:100000000C94B5020C94D2020C94D2020C94D2023D
:100010000C94D2020C94D2020C94D2020C94D20210
:100020000C94D2020C94D2020C94D2020C94D20200
:100030000C94D2020C94D2020C94D2020C94D202F0
:100040000C9487480C94D2020C94D2020C94D202E5
:100050000C946F490C94D2020C94D2020C94D202EC
:100060000C94D2020C94D2020C94D2020C94D202C0
:100070003D0200007A44063D0200007A44053D023C
:1000800000007A440447020000803F064702000057
:10009000803F0547020000803F045102002474495C
:1000A0000551020024744904600200007A4406608D
:1000B0000200007A4405600200007A4404D4020081
:1000C00000D50200003A080000FD0700001A0300F6
:1000D0000082030000A2030000D2030000CE0A0049
:1000E00000060400001E040000380400005804004C
:1000F0000088040000440A0000BC0400004E030015
:1001000000D4040000FE040000FF090000B2080053
:10011000003F0500005905000083050000890A0022
:1001200000130B0000C4050000D1050000DE05002F
:1001300000EB050000C0070000F8050000330600D2
:1001400000900600009D060000AA060000C40600FC
:1001500000EE060000BA0900002F0700004E07005D
:10016000005B0700007707000089070000B907005F
:1001700000ED0D0000300E00004C0E0000462F7701
:10018000206465762000492D5620536F7572636593
:10019000204D6574657200ACC5273717B7D1386F2D
:1001A00012833A0AD7233CCDCCCC3D08040201008F
:1001B00000000100020003000400ACC5273717B798
:1001C000D1386F12833A0AD7233CCDCCCC3D0804FA
:1001D00002010000000100020003000400D61E001E
:1001E00000D71E0000D02100000C2000002E2000AF
:1001F00000502000006320000002220000F71E00D3
:1002000000222200007620000098200000AB200091
:10021000003E220000051F00005E220000BE2000FC
:1002200000E02000007A220000131F0000F32000ED
:100230000006210000282100009A220000211F0052
:10024000003B2100002F1F00003D1F00004B1F003E
:1002500000591F00004E210000DA220000ED2200AC
:1002600000671F0000751F0000612100007521005C
:1002700000BA220000831F000088210000911F00A7
:10028000009B2100009F1F0000E8210000AD1F001F
:1002900000BD210000BB1F0000C91F0000000001BD
:1002A000000000000001000200030004000500003F
:1002B0000001000200030004000000010000000132
:1002C00000020003000400000001001E001E001ECA
:1002D000001E001E001E001E002800280028002806
:1002E00000280028002800280028002800280022D4
:1002F00000280013000C000D000E000F001000116C
:10030000000700080009000A000B000500060000B5
:100310000001000200030004006F12833A0AD72391
:100320003CCDCCCC3D0000803F000020410000C807
:100330004208040201003000000100000001000238
:100340000003000400050000002041000000002020
:10035000410000C842002000000100030003000229
:10036000000AD7233C0300030003000AD7233C0301
:1003700000030004000AD7233C0200020004006FBF
:1003800012833A01000100040017B7D138010001BF
:10039000000400ACC52737010001000400BD37860A
:1003A000350300030002000AD7233CCDCCCC3D032B
:1003B00000030003000AD7233C0000803F03000332
:1003C0000004000AD7233C00002041020002000480
:1003D000006F12833A000020410100010004001761
:1003E000B7D13800002041010001000400ACC5274E
:1003F0003700002041010001000400BD37863500B0
:100400000020410000010002000300040005000676
:100410000080C09141000092410000984100009E80
:1004200041000000FFFFFFFF000100FF002000105F
:100430000008000400010203C44A0000CB4A000087
:10044000EA4A0000764B0000094B0000964B000082
:10045000104B0000174B00001E4B0000364B0000F5
:100460003D4B0000614B00006E616E00696E6600DE
:1004700000407A10F35A00A0724E18090010A5D45B
:10048000E80000E87648170000E40B54020000CAB8
:100490009A3B000000E1F5050000809698000000FE
:1004A00040420F000000A08601000000102700005D
:1004B0000000E803000000006400000000000A00E3
:1004C000000000000100000000002C76D888DC67E6
:1004D0004F0823DFC1DFAE59E1B1B796E5E3E4533E
:1004E000C63AE651997696E8E6C28426EB898C9B5B
:1004F00062ED407C6FFCEFBC9C9F40F2BAA56FA5FB
:10050000F490055A2AF75C936B6CF9676DC11BFC7C
:10051000E0E40D47FEF520E6B500D0ED902E030097
:10052000943577050080841E080000204E0A0000E4
:1005300000C80C333333330F986E12831141EF8DA3
:100540002114893BE65516CFFEE6DB18D1844B38E3
:100550001BF77C1D901DA4BBE424203284725E2214
:100560008100C9F124ECA1E53D2711241FBECFEF86
:10057000D0E1DEBFCDBF12E0A0E0B1E0EEE2F1EBF2
:1005800002C005900D92A43FB107D9F723E0A4EF74
:10059000B2E001C01D92A03BB207E1F70E94B80E85
:1005A0000C9495580C9400000895CF92DF92EF922E
:1005B000FF920F931F93DC019196ED91FC9192971E
:1005C00040815181052E000C660B770B9A01112793
:1005D000002742815381052E000C660B770B762F86
:1005E000652F542F4427402B512B622B732B2481D2
:1005F00035818901330F220B330B6A017B01C02A3D
:10060000D12AE22AF32AA701960114E0E12E12E092
:10061000F12E02E010E064E271E05D968D919C9114
:100620005E970E94E6231F910F91FF90EF90DF905D
:10063000CF9008950F931F93CF93DF93EC018B011D
:10064000FB01828193810E948B18BC018F89988D58
:100650000E94B319EF89F88D808191810E946B23EC
:10066000BC018D8D9E8D0E948A28F8018281938124
:100670000E94171CBC018B899C890E94E21CEB899B
:10068000FC89848195810E944B23BC018D8D9E8DB8
:10069000DF91CF911F910F910C94F8240F931F932A
:1006A000CF93DF93EC018B01FB01828193810E9448
:1006B000171CBC018B899C890E94E21CEB89FC8978
:1006C000848195810E944B23BC018D8D9E8D0E945B
:1006D000F824F801828193810E948B18BC018F89D4
:1006E000988D0E94B319EF89F88D808191810E94C5
:1006F0006B23BC018D8D9E8DDF91CF911F910F914A
:100700000C948A280F931F93FC0123893489FB01E1
:10071000628173817727FB01EE0FFF1FE60FF71F42
:10072000EE0FFF1FE20FF31F008511852285338531
:1007300046815781FC01858D968D0E9431251F9140
:100740000F910895EF92FF920F931F93CF93DF9332
:100750007C01FB01C281D381DD27BE01FC018389BD
:1007600094890E94A51EF70183899489FE01EE0FEA
:10077000FF1FEC0FFD1FEE0FFF1FE80FF91F008595
:1007800011852285338546815781BE01F701858D0C
:10079000968D0E948D25DF91CF911F910F91FF9033
:1007A000EF900895EF92FF920F931F93CF93DF93F3
:1007B0007C01FB01C281D381DD2724813581468103
:1007C0005781BE01FC01838994890E94B51EF701FF
:1007D00083899489FE01EE0FFF1FEC0FFD1FEE0FC2
:1007E000FF1FE80FF91F008511852285338546819B
:1007F0005781BE01F701858D968D0E94E925DF9115
:10080000CF911F910F91FF90EF900895CF93DF93B9
:10081000EC01FB0142815381648175818B899C8944
:100820000E94301EEB89FC89408151816281738175
:100830008D8D9E8DDF91CF910C947426CF93DF9395
:10084000EC01FB01828193810E947A37BC018D8982
:100850009E890E948D37ED89FE89848195810E9451
:100860005B23BC018D8D9E8DDF91CF910C94C126B1
:100870000F931F93FC0125893689FB0162817381E7
:100880007727FB01EE0FFF1FE60FF71FEE0FFF1F8D
:10089000E20FF31F0085118522853385468157813C
:1008A000FC01858D968D0E94FA261F910F91089567
:1008B000EF92FF920F931F93CF93DF937C01FB0185
:1008C000C281D381DD27BE01FC01858996890E9402
:1008D0007739F70185899689FE01EE0FFF1FEC0F2E
:1008E000FD1FEE0FFF1FE80FF91F00851185228500
:1008F000338546815781BE01F701858D968D0E9413
:100900005627DF91CF911F910F91FF90EF9008959F
:10091000EF92FF920F931F93CF93DF937C01FB0124
:10092000C281D381DD272481358146815781BE0173
:10093000FC01858996890E948739F7018589968906
:10094000FE01EE0FFF1FEC0FFD1FEE0FFF1FE80F64
:10095000F91F008511852285338546815781BE01A7
:10096000F701858D968D0E94B227DF91CF911F915F
:100970000F91FF90EF900895CF93DF93EC01FB016F
:1009800042815381648175818D899E890E940239DB
:10099000ED89FE8940815181628173818D8D9E8DAB
:1009A000DF91CF910C943D28EF92FF920F931F930C
:1009B000DC015796ED91FC915897DB0112966D91F1
:1009C0007C91139777279B01220F331F220F331F30
:1009D000220F331FE20FF31FE680F7800085118599
:1009E0002281338144815581FC01858D968D0E9441
:1009F000C3281F910F91FF90EF900895CF92DF923F
:100A0000EF92FF920F931F93CF93DF936C01DB0163
:100A10001296CD91DC911397DD2714962D913D917F
:100A20004D915C911797BE01FC018789908D0E94C2
:100A3000541BD6015796ED91FC9158979E01220FB9
:100A4000331F220F331F220F331FE20FF31FE680E5
:100A5000F780008511852281338144815581BE0153
:100A60005D968D919C915E970E942829DF91CF9190
:100A70001F910F91FF90EF90DF90CF900895CF934B
:100A8000DF93EC01FB01828193810E948731BC01DD
:100A9000898D9A8D0E94E632E98DFA8D808191814F
:100AA0000E947B23BC018D8D9E8DDF91CF910C9494
:100AB000092AEF92FF920F931F93DC015996ED9153
:100AC000FC915A97DB0112966D917C9113977727D1
:100AD0009B01220F331F220F331F220F331FE20F00
:100AE000F31FE680F78000851185228133814481E0
:100AF0005581FC01858D968D0E94422A1F910F9190
:100B0000FF90EF900895CF92DF92EF92FF920F93B4
:100B10001F93CF93DF936C01DB011296CD91DC9193
:100B20001397DD2714962D913D914D915C91179768
:100B3000BE01FC01818D928D0E945334D6015996DD
:100B4000ED91FC915A979E01220F331F220F331F04
:100B5000220F331FE20FF31FE680F7800085118517
:100B60002281338144815581BE015D968D919C9196
:100B70005E970E94A72ADF91CF911F910F91FF905E
:100B8000EF90DF90CF900895CF93DF93EC018B89A6
:100B90009C890E94541E8D8D9E8DDF91CF910C9467
:100BA000882BCF93DF93EC018D899E890E94263993
:100BB0008D8D9E8DDF91CF910C94B72BCF93DF93CA
:100BC000EC018F89988D0E94ED1A8D8D9E8DDF919D
:100BD000CF910C94E62BCF93DF93EC01898D9A8D06
:100BE0000E94EC338D8D9E8DDF91CF910C94152C4E
:100BF000DB0112962D913C9113972130310521F1A3
:100C00002230310591F0232B09F00895DC019196F3
:100C1000ED91FC9192974081518160E070E05D968A
:100C20008D919C915E970C94912CDC019196ED91A5
:100C3000FC9192974481558162E070E05D968D91C0
:100C40009C915E970C94912CDC019196ED91FC9116
:100C500092974281538161E070E05D968D919C9105
:100C60005E970C94912CDB0112962D913C91139779
:100C700014964D915C9115972130310559F1223030
:100C80003105D1F02115310549F02130310581F1CF
:100C900022303105A9F1232BD9F10895DC01919679
:100CA000ED91FC9192975183408360E070E0FC01EC
:100CB000858D968D0C94D92CDC019196ED91FC914B
:100CC00092975583448362E070E0FC01858D968D98
:100CD0000C94D92CDC019196ED91FC919297538361
:100CE000428361E070E0FC01858D968D0C94D92CD7
:100CF000DC019196ED91FC91929742815381F1CF65
:100D0000DC019196ED91FC91929744815581DBCF66
:100D1000DC019196ED91FC91929740815181C5CF74
:100D2000CF93DF93EC0189A19AA10E94A63B8D8D00
:100D30009E8DDF91CF910C94212DCF93DF93EC0109
:100D400089A19AA10E94AE3B8D8D9E8DDF91CF919E
:100D50000C94502DCF93DF93EC01FB0182819381A2
:100D60000E940635BC018B8D9C8D0E94D835EB8D81
:100D7000FC8D858196810E948B23BC018D8D9E8D7B
:100D8000DF91CF910C947F2DEF92FF920F931F93E1
:100D9000DC015B96ED91FC915C97DB0112966D9105
:100DA0007C91139777279B01220F331F220F331F4C
:100DB000220F331FE20FF31FE384F48405851685A9
:100DC0002781308541855285FC01858D968D0E9455
:100DD000B82D1F910F91FF90EF900895CF92DF9261
:100DE000EF92FF920F931F93CF93DF936C01DB0180
:100DF0001296CD91DC911397DD2714962D913D919C
:100E00004D915C911797BE01FC01838D948D0E94DA
:100E10006936D6015B96ED91FC915C979E01220F9D
:100E2000331F220F331F220F331FE20FF31FE38400
:100E3000F484058516852781308541855285BE015C
:100E40005D968D919C915E970E941D2EDF91CF91B2
:100E50001F910F91FF90EF90DF90CF9008950F9327
:100E60001F93CF93DF93EC018B018DA19EA10E9474
:100E7000CB39F801628173818B8D9C8D0E9438374C
:100E8000AB01BC018D8D9E8D0E94B12E8DA19EA1C6
:100E9000DF91CF911F910F910C94CD39CF93DF93B8
:100EA000EC018B8D9C8D0E94D1368D8D9E8DDF91B6
:100EB000CF910C94FE2ECF93DF93EC01FB01828146
:100EC00093810E949731BC01898D9A8D0E94C8340C
:100ED000E98DFA8DEF5BFF4F808191810E94902315
:100EE000BC018D8D9E8DDF91CF910C942D2FCF93D2
:100EF000DF93EC01E98DFA8DEF5BFF4F80819181EB
:100F00000E949023BC018D8D9E8DDF91CF910C941A
:100F1000662FCF92DF92EF92FF92CF93DF93EC0197
:100F2000FB01C280D380E480F580B701A6018D8DDE
:100F30009E8D0E94D82381110AC08D8D9E8DDF91D8
:100F4000CF91FF90EF90DF90CF900C944A24B7019F
:100F5000A6018D8D9E8D0E949F2FB701A6018D8DBC
:100F60009E8DDF91CF91FF90EF90DF90CF900C940A
:100F7000DF2364E070E0FC01858D968D0C94E72FF3
:100F80000F931F93CF93DF93EC018B018D899E8983
:100F90000E948A378DA19EA10E94C9398B899C89A4
:100FA0000E94271C8DA19EA10E94C339F801628175
:100FB00073818F8D98A10E949F3AAB01BC018D8DEA
:100FC0009E8DDF91CF911F910F910C94442C27E6B9
:100FD00032E0FC01318320830C94D63BCF93DF9326
:100FE000EC0187E692E099838883CE010E94D63B8C
:100FF000CE01DF91CF910C944055CF93DF93EC015C
:10100000FB01828193810097E9F00197C1F48B89FC
:101010009C890E94DF1C8DA19EA10E94C5398D89EB
:101020009E890E94C9388DA19EA10E94C73961E0A6
:1010300070E08D8D9E8DDF91CF910C94BF24DF9158
:10104000CF9108958D899E890E948A378DA19EA196
:101050000E94C9398B899C890E94271C8DA19EA161
:101060000E94C33960E070E08D8D9E8DDF91CF913D
:101070000C94BF248F929F92AF92BF92CF92DF9237
:10108000EF92FF92CF93DF93EC01FB01828093807C
:10109000A480B58081E08B878BA19CA10E94D6485B
:1010A0006B017C01C501B4010E94AC522FE632E114
:1010B00043E85AE30E94B153AB01BC018BA19CA150
:1010C0000E94E248C60ED71EE81EF91ECC86DD86B9
:1010D000EE86FF86B501A4018D8D9E8DDF91CF91A7
:1010E000FF90EF90DF90CF90BF90AF909F908F9048
:1010F0000C947724CF92DF92EF92FF92DB01ED9177
:10110000FC91E033F10548F5EE0FFF1FEE0FFF1FD6
:10111000E354FF4FC590D590E590F490F601970108
:1011200035952795E0FE12C0DC01A20FB31F2D916B
:101130003C911197F901EC0DFD1D0190F081E02D1E
:10114000CD01FF90EF90DF90CF900994820F931F15
:10115000FF90EF90DF90CF900994FF90EF90DF9099
:10116000CF9008958F929F92AF92BF92CF92DF92CD
:10117000EF92FF920F931F93CF93DF93CDB7DEB71C
:101180002B970FB6F894DEBF0FBECDBF8C017B014D
:10119000DC0195968D919C9196970E94CB39F70131
:1011A00062817381D80157968D919C9158970E94C6
:1011B000541A4B015C01AB01BC01F801858D968D81
:1011C0000E94BC2981E0D80116968C9316979396BD
:1011D0008D919C9194970E94D6486B017C0140E0D0
:1011E00050E060E070E4F80183A194A10E94E2481D
:1011F000C60ED71EE81EF91ED8011796CD92DD92B5
:10120000ED92FC921A975796ED91FC915897C080F9
:10121000D18051968D919C9152970E94D03DFC01B6
:1012200096E0DE01119601900D929A95E1F740E06B
:1012300060E0F801818992890E94AC3D7601EE0C54
:10124000FF1CEE0CFF1CEE0CFF1CEC18FD08F70158
:10125000E656FF4FC590D49082E00E9445418B87AF
:1012600081E00E9445418A87F701E456FF4F2591AE
:10127000359145915491C501B4010E94B1534B0180
:101280005C01F701E056FF4F84910E944641898737
:1012900089E00E944541888784E00E9445418F8310
:1012A0006EEF70E4D80151968D919C9152970E94F7
:1012B000B440BE01695F7F4F0E9447416FE271E019
:1012C0000E94DB3D62E271E40E94B44066EB70E490
:1012D0000E94B4406AED70E40E94B440BE01685FB1
:1012E0007F4F0E944741BE01675F7F4F0E946C4164
:1012F000B501A4010E949A3FBE01665F7F4F0E9424
:10130000474162E172E00E94DB3D6EEF70E40E94B3
:10131000B440BE01655F7F4F0E944741B6010E9405
:10132000DB3D40E061E0F801818992890E94AC3D9B
:10133000BE016F5F7F4FD80151968D919C9152975E
:101340000E94D23DF80185A196A10E94CD392B962D
:101350000FB6F894DEBF0FBECDBFDF91CF911F91C6
:101360000F91FF90EF90DF90CF90BF90AF909F9044
:101370008F900895CF92DF92EF92FF92CF93DF93F9
:10138000EC018B8D9C8D0E94C0368D8D9E8D0E94B0
:10139000822E81E08E838BA19CA10E94D6486B0196
:1013A0007C0140E050E060E070E48BA19CA10E94D1
:1013B000E248C60ED71EE81EF91ECF82D886E986FF
:1013C000FA8640E060E089899A890E94AC3D62E338
:1013D00071E089899A890E94DB3D40E061E089895A
:1013E0009A890E94AC3D63E471E089899A89DF9112
:1013F000CF91FF90EF90DF90CF900C94DB3DCF9298
:10140000DF92EF92FF92CF93DF93EC018F89988D5B
:101410000E94FC1B8D8D9E8D0E948D2981E08E8304
:101420008BA19CA10E94D6486B017C0140E050E05A
:1014300060E070E48BA19CA10E94E248C60ED71E1A
:10144000E81EF91ECF82D886E986FA8640E060E081
:1014500089899A890E94AC3D62E371E089899A8901
:101460000E94DB3D40E061E089899A890E94AC3DA1
:1014700063E471E089899A89DF91CF91FF90EF90C1
:10148000DF90CF900C94DB3DCF92DF92EF92FF92F2
:10149000CF93DF93EC018D899E890E9497398D8DC2
:1014A0009E8D0E940E2881E08E838BA19CA10E94BC
:1014B000D6486B017C0140E050E060E070E48BA115
:1014C0009CA10E94E248C60ED71EE81EF91ECF82DC
:1014D000D886E986FA8640E060E089899A890E9488
:1014E000AC3D62E371E089899A890E94DB3D40E06E
:1014F00061E089899A890E94AC3D63E471E0898941
:101500009A89DF91CF91FF90EF90DF90CF900C946C
:10151000DB3DCF92DF92EF92FF92CF93DF93EC010E
:10152000898D9A8D0E94B1348D8D9E8D0E940C2BD9
:1015300081E08E838BA19CA10E94D6486B017C0127
:1015400040E050E060E070E48BA19CA10E94E24882
:10155000C60ED71EE81EF91ECF82D886E986FA8607
:1015600040E060E089899A890E94AC3D62E371E0C5
:1015700089899A890E94DB3D40E061E089899A89E6
:101580000E94AC3D63E471E089899A89DF91CF9133
:10159000FF90EF90DF90CF900C94DB3DCF92DF92E5
:1015A000EF92FF92CF93DF93EC018B899C890E948D
:1015B000C51E8D8D9E8D0E94452681E08E838BA158
:1015C0009CA10E94D6486B017C0140E050E060E0A5
:1015D00070E48BA19CA10E94E248C60ED71EE81EB3
:1015E000F91ECF82D886E986FA8640E060E08989D4
:1015F0009A890E94AC3D62E371E089899A890E94D0
:10160000DB3D40E061E089899A890E94AC3D63E45A
:1016100071E089899A89DF91CF91FF90EF90DF90F7
:10162000CF900C94DB3D8F929F92AF92BF92CF925E
:10163000DF92EF92FF920F931F93CF93DF93CDB77B
:10164000DEB72B970FB6F894DEBF0FBECDBF8C016F
:101650007B01DC0195968D919C9196970E94CB39E8
:10166000F70162817381D80159968D919C915A97A7
:101670000E9491334B015C01AB01BC01F801858DE7
:10168000968D0E943B2B81E0D80116968C9316977D
:1016900093968D919C9194970E94D6486B017C0102
:1016A00040E050E060E070E4F80183A194A10E9462
:1016B000E248C60ED71EE81EF91ED8011796CD9235
:1016C000DD92ED92FC921A975996ED91FC915A9702
:1016D000C080D18051968D919C9152970E94D03DAF
:1016E000FC0196E0DE01119601900D929A95E1F7CA
:1016F00040E060E0F801818992890E94AC3D40E0C1
:1017000061E0D80151968D919C9152970E94AC3D19
:101710007601EE0CFF1CEE0CFF1CEE0CFF1CEC180F
:10172000FD08F701E059FF4FC590D49082E00E9478
:1017300045418B8781E00E9445418A87F701EE5839
:10174000FF4F2591359145915491C501B4010E94F7
:10175000B1534B015C01F701EA58FF4F84910E949D
:101760004641898789E00E944541888784E00E943C
:1017700045418F836EEF70E4F801818992890E9460
:10178000B440BE01695F7F4F0E94474164E571E04C
:101790000E94DB3D62E271E40E94B44066EB70E4BB
:1017A0000E94B4406AED70E40E94B440BE01685FDC
:1017B0007F4F0E944741BE01675F7F4F0E946C418F
:1017C000B501A4010E949A3FBE01665F7F4F0E944F
:1017D000474162E172E00E94DB3D6EEF70E40E94DF
:1017E000B440BE01655F7F4F0E944741B6010E9431
:1017F000DB3DBE016F5F7F4FD80151968D919C916B
:1018000052970E94D23DF80185A196A10E94CD3940
:101810002B960FB6F894DEBF0FBECDBFDF91CF91F0
:101820001F910F91FF90EF90DF90CF90BF90AF90FE
:101830009F908F9008950C94AB540C9440550F9347
:101840001F93CF93DF93CDB7DEB7AB970FB6F89466
:10185000DEBF0FBECDBF8C01FC01818992890E9441
:10186000D03DFC0196E0DE01919601900D929A9593
:10187000E1F740E060E0F801818992890E94AC3D87
:1018800066E871E0CE0101960E947A57BC01F8012A
:10189000818992890E94DB3D40E061E0F801818905
:1018A00092890E94AC3D82E00E9445418FA381E075
:1018B0000E94454188A782E00E94454189A781E0B6
:1018C0000E9445418AA782E00E9445418BA76DE7AF
:1018D00071E0CE0101960E947A57BC01F80181891E
:1018E00092890E94DB3DBE01655D7F4F0E944741AA
:1018F0006AED70E40E94B44042E050E060E070E0C5
:101900000E94A53EBE01665D7F4F0E94474167E58C
:1019100071E00E94DB3DBE01675D7F4F0E94474141
:101920006AED70E40E94B44042E050E060E070E094
:101930000E94A53EBE01685D7F4F0E94474167E55A
:1019400071E00E94DB3DBE01695D7F4F0E9447410F
:101950006AED70E40E94B44044E050E060E070E062
:101960000E94A53EBE016F5D7F4FF801818992897B
:101970000E94D23DAB960FB6F894DEBF0FBECDBF2E
:10198000DF91CF911F910F910895CF92DF92EF9247
:10199000FF92CF93DF93EC010E94853C87E692E0B3
:1019A000998388831E821F82188619861A861B8651
:1019B0001C861D861E861F86188A0E94C73C9A8B2D
:1019C000898B0E940F1E9C8B8B8B0E94A8389E8B4C
:1019D0008D8B0E949219988F8F8B0E94C5329A8F9F
:1019E000898F80910003882309F462C08091F602F8
:1019F0009091F7028B8F9C8F0E94A0239E8F8D8FDA
:101A00000E94CF3998A38F8F0E945C3B9AA389A331
:101A10000E94AC489CA38BA30E94A8399EA38DA3CF
:101A20008B899C890E94271C8DA19EA10E94C3398D
:101A300040E050E0BA018D899E890E94023960E041
:101A400070E0898D9A8D0E94C834AE016AE778E013
:101A50008D8D9E8D0E94B73CCE010E941F0C2FEFF2
:101A60008FE19CE1215080409040E1F700C00000F0
:101A7000789481E08E838BA19CA10E94D6486B0153
:101A80007C0140E050E060E070E48BA19CA10E94EA
:101A9000E248C60ED71EE81EF91ECF82D886E98618
:101AA000FA86DF91CF91FF90EF90DF90CF9008956D
:101AB00081E390E00E94AB547C010E940B35E092E0
:101AC000F602F092F70281E080930003C70192CF03
:101AD000CF93DF938091F802882339F08091F4024C
:101AE0009091F502DF91CF91089587E290E00E94F6
:101AF000AB54D82FC92F0E94C50CD093F402C093C9
:101B0000F50281E08093F8028D2F9C2FDF91CF9119
:101B10000895CF92DF92EF92FF920F931F93CF938E
:101B2000DF93CDB7DEB727970FB6F894DEBF0FBEB1
:101B3000CDBF8C016B017A0140E060E0FC0181893E
:101B400092890E94AC3DF801818992890E94D03D22
:101B5000FC0196E0DE01119601900D929A95E1F755
:101B600084E00E9445418F8362E271E4F80181893B
:101B700092890E94B440BE01695F7F4F0E94474135
:101B8000B6010E94DB3D84E00E9445418F8362E202
:101B900071E4F801818992890E94B440BE01695FB5
:101BA0007F4F0E944741B7010E94DB3DBE016F5F3E
:101BB0007F4FF801818992890E94D23D27960FB606
:101BC000F894DEBF0FBECDBFDF91CF911F910F9173
:101BD000FF90EF90DF90CF9008950F931F93CF93D6
:101BE000DF93CDB7DEB76C970FB6F894DEBF0FBEAC
:101BF000CDBF8C01FB01628173818CE0E8E0F1E0F4
:101C0000DE01519601900D928A95E1F7AE014F5E8B
:101C10005F4FF801858D968D0E9420304AE0BE010D
:101C20006F5F7F4F0E94A757AE014F5F5F4F69E51F
:101C300071E0C8010E94890DFFEF2FE388E3F150A6
:101C400020408040E1F700C000006C960FB6F89489
:101C5000DEBF0FBECDBFDF91CF911F910F910895D1
:101C6000CF93DF93EC0181E0888B8D8D9E8D0E9458
:101C7000AF304AE651E06BE771E0CE010E94890D7A
:101C80002FEF8FE19CE1215080409040E1F700C0B0
:101C90000000DF91CF910895CF93DF93EC014CE8E2
:101CA00051E06DE971E00E94890D2FEF8FE19CE119
:101CB000215080409040E1F700C00000188A8D8DCF
:101CC0009E8DDF91CF910C94DE300F931F93CF93B5
:101CD000DF93EC018B85811115C043E052E064E194
:101CE00072E0CE010E94890D2FEF8FE398E321501F
:101CF00080409040E1F700C00000DF91CF911F913C
:101D00000F9108958BA19CA10E94D6480C851D853A
:101D10002E853F85601771078207930758F48B85DE
:101D20008823D9F288898823C1F040ED51E061EE23
:101D300071E0D7CF1B864EEA51E06FEB71E0CE0128
:101D40000E94890D2FEF8FE398E32150804090404F
:101D5000E1F700C000008B85E3CF42EF51E061EE78
:101D600071E0CE01DF91CF911F910F910C94890DFD
:101D70002FEF8FE398E3215080409040E1F700C0BF
:101D800000000E94680D0E94383C80E090E00895B9
:101D90002F923F924F925F926F927F928F929F927B
:101DA000AF92BF92CF92DF92EF92FF920F931F9369
:101DB000CF93DF938C01EB01FC01E080F1806E1585
:101DC0007F050CF065C082809380A480B580A5015A
:101DD000940160857185828593850E948C512B01C9
:101DE0003C01F801668177816E197F09072E000C8E
:101DF000880B990B0E94AE529B01AC01C301B2014A
:101E00000E94FE512B013C01CE19DF09BE01DD0FFE
:101E1000880B990B0E94AE529B01AC01C301B20129
:101E20000E94B1539B01AC01C501B4010E948D51C8
:101E30008B01D82FC92F2CE53FE842E85FE3C501AD
:101E4000B4010E94B1536B017C019B01AC01B8014C
:101E50008D2F9C2F0E94F95187FDEDC0502F412FEF
:101E60009E01652F742F832F922FDF91CF911F91A9
:101E70000F91FF90EF90DF90CF90BF90AF909F9029
:101E80008F907F906F905F904F903F902F9008952C
:101E9000FC01208C318C261637060CF47EC0A4E0A1
:101EA000B0E00DC04C175D070CF0CAC09C01CB011F
:101EB000BF2DAC01421B530B42305105FCF02B2FC0
:101EC00030E06A2F70E0C901860F971F95958795BE
:101ED000F82EFC01EE0FFF1FE80FF91FEE0FFF1F9A
:101EE000E00FF11F40815181C417D507DCF6A82F00
:101EF000AC01421B530B423051050CF7F901EE0FB8
:101F0000FF1FE20FF31FEE0FFF1FE00FF11F828094
:101F10009380A480B580E080F1809C01220F331F64
:101F2000820F931F880F991F080F191FA501940195
:101F3000F80162817381848195810E948C512B010B
:101F40003C01F801608171816E197F09072E000C38
:101F5000880B990B0E94AE529B01AC01C301B201E8
:101F60000E94FE512B013C01CE19DF09BE01DD0F9D
:101F7000880B990B0E94AE529B01AC01C301B201C8
:101F80000E94B1539B01AC01C501B4010E948D5167
:101F9000562F472F382F292F64CFC28CD38CE48C37
:101FA000F58C84889588A688B78802891389A5014D
:101FB0009401C701B6010E948C512B013C01B10173
:101FC000601B710B072E000C880B990B0E94AE5200
:101FD0009B01AC01C301B2010E94FE512B013C01E7
:101FE000C01BD10BBE01DD0F880B990B0E94AE52B6
:101FF0009B01AC01C301B2010E94B1539B01AC0132
:10200000C501B4010E948D518B01D82FC92F2CE539
:102010003FE842E85FE3C701B6010E94B1536B019C
:102020007C019B01AC01B8018D2F9C2F0E94AC5309
:1020300018160CF013CF5C2D4D2D3E2D2F2D11CFEA
:1020400052814381348125810CCF2F923F924F9250
:102050005F926F927F928F929F92AF92BF92CF9238
:10206000DF92EF92FF920F931F93CF93DF93CDB741
:10207000DEB728970FB6F894DEBF0FBECDBF8C0138
:102080006A017B01FC0182809380A480B5809A0163
:10209000AB01C501B4010E94AC53F80118160CF055
:1020A00079C060807180B301072C000C880B990BFC
:1020B0000E94AE5269837A838B839C83F801668188
:1020C000778166197709072E000C880B990B0E94FF
:1020D000AE522B013C01A5019401F8016085718588
:1020E000828593850E948C519B01AC01C301B20192
:1020F0000E94FE512B013C01A5019401C701B601CC
:102100000E948C519B01AC01C301B2010E94B153EA
:1021100029813A814B815C810E948D518B015C0148
:102120002CE53FE842E85FE369817A818B819C81FD
:102130000E94B1536B017C019B01AC01B801C50148
:102140000E94F95187FD23C1502F412F3A2D2B2D8D
:10215000652F742F832F922F0E941E540E9470525D
:10216000CB0128960FB6F894DEBF0FBECDBFDF912E
:10217000CF911F910F91FF90EF90DF90CF90BF9084
:10218000AF909F908F907F906F905F904F903F9017
:102190002F900895828C938CA48CB58CA701960106
:1021A000C501B4010E94F95187FD94C0F4E0F983A0
:1021B0001D8211C0A7019601C301B2010E94F9510D
:1021C00087FFEAC045015101FE81FD83C5018819E1
:1021D0009909029754F12D81822E912C3981232E59
:1021E000312C5401A20CB31CB594A794AE82C50146
:1021F000880F991F8A0D9B1D880F991FFC01E00F06
:10220000F11FF887EF834280538064807580A701B7
:102210009601C301B2010E94AC5318165CF6A98264
:10222000C501881999090297B4F6F401EE0FFF1F52
:10223000E80DF91DEE0FFF1FE00FF11F2080318028
:102240004280538064807580C501880F991F8A0D74
:102250009B1D880F991F080F191FF801608171815C
:1022600062197309072E000C880B990B0E94AE525D
:102270004B015C01A3019201F801628173818481A9
:1022800095810E948C519B01AC01C501B4010E9453
:10229000FE514B015C01A3019201C701B6010E94EE
:1022A0008C519B01AC01C501B4010E94B1536B017B
:1022B0007C01B101330C880B990B0E94AE529B013B
:1022C000AC01C701B6010E948D51562F472F382F00
:1022D000292F3ECFF801208C318C22893389388711
:1022E0002F834488558866887788B101621B730BF9
:1022F000072E000C880B990B0E94AE5269837A83DB
:102300008B839C83A3019201C501B4010E948C516F
:102310009B01AC0169817A818B819C810E94FE5175
:102320004B015C01A3019201C701B6010E948C51CF
:102330009B01AC01C501B4010E94B1536B017C014A
:10234000EF81F885BF01FF0F880B990B0E94AE52F9
:102350009B01AC01C701B6010E948D518B015C014C
:10236000B101330C880B990B0E94AE522CE53FE86B
:1023700042E85FE30E94B1536B017C019B01AC0119
:10238000B801C5010E94AC5318160CF0DDCE5C2DCF
:102390004D2D3E2D2F2DDCCEEF81F8856081718192
:1023A000072E000C880B990B0E94AE52562F472F18
:1023B000382F292FCDCE2F923F924F925F926F925E
:1023C0007F928F929F92AF92BF92CF92DF92EF92C5
:1023D000FF920F931F93CF93DF938C01EB01FC01CE
:1023E000E080F1806E157F050CF065C082809380DF
:1023F000A480B580A501940160857185828593854F
:102400000E948C512B013C01F801668177816E1985
:102410007F09072E000C880B990B0E94AE529B017E
:10242000AC01C301B2010E94FE512B013C01CE1947
:10243000DF09BE01DD0F880B990B0E94AE529B0194
:10244000AC01C301B2010E94B1539B01AC01C501B3
:10245000B4010E948D518B01D82FC92F2CE53FE884
:1024600042E85FE3C501B4010E94B1536B017C01F6
:102470009B01AC01B8018D2F9C2F0E94F95187FD63
:10248000EDC0502F412F9E01652F742F832F922F67
:10249000DF91CF911F910F91FF90EF90DF90CF9040
:1024A000BF90AF909F908F907F906F905F904F9074
:1024B0003F902F900895FC01208C318C2616370612
:1024C0000CF47EC0A4E0B0E00DC04C175D070CF02A
:1024D000CAC09C01CB01BF2DAC01421B530B423043
:1024E0005105FCF02B2F30E06A2F70E0C901860FF8
:1024F000971F95958795F82EFC01EE0FFF1FE80FAB
:10250000F91FEE0FFF1FE00FF11F40815181C4172B
:10251000D507DCF6A82FAC01421B530B4230510506
:102520000CF7F901EE0FFF1FE20FF31FEE0FFF1F75
:10253000E00FF11F82809380A480B580E080F1805D
:102540009C01220F331F820F931F880F991F080FC2
:10255000191FA5019401F80162817381848195811D
:102560000E948C512B013C01F801608171816E1930
:102570007F09072E000C880B990B0E94AE529B011D
:10258000AC01C301B2010E94FE512B013C01CE19E6
:10259000DF09BE01DD0F880B990B0E94AE529B0133
:1025A000AC01C301B2010E94B1539B01AC01C50152
:1025B000B4010E948D51562F472F382F292F64CFF9
:1025C000C28CD38CE48CF58C84889588A688B788D7
:1025D00002891389A5019401C701B6010E948C519B
:1025E0002B013C01B101601B710B072E000C880B05
:1025F000990B0E94AE529B01AC01C301B2010E9433
:10260000FE512B013C01C01BD10BBE01DD0F880B1D
:10261000990B0E94AE529B01AC01C301B2010E9412
:10262000B1539B01AC01C501B4010E948D518B01D6
:10263000D82FC92F2CE53FE842E85FE3C701B60178
:102640000E94B1536B017C019B01AC01B8018D2F3D
:102650009C2F0E94AC5318160CF013CF5C2D4D2DFF
:102660003E2D2F2D11CF52814381348125810CCFF6
:102670002F923F924F925F926F927F928F929F9292
:10268000AF92BF92CF92DF92EF92FF920F931F9380
:10269000CF93DF93CDB7DEB728970FB6F894DEBFA0
:1026A0000FBECDBF8C016A017B01FC01828093804B
:1026B000A480B5809A01AB01C501B4010E94AC535E
:1026C000F80118160CF079C060807180B301072CF6
:1026D000000C880B990B0E94AE5269837A838B831E
:1026E0009C83F8016681778166197709072E000CB3
:1026F000880B990B0E94AE522B013C01A50194015D
:10270000F80160857185828593850E948C519B01BB
:10271000AC01C301B2010E94FE512B013C01A50195
:102720009401C701B6010E948C519B01AC01C30109
:10273000B2010E94B15329813A814B815C810E9490
:102740008D518B015C012CE53FE842E85FE3698134
:102750007A818B819C810E94B1536B017C019B012A
:10276000AC01B801C5010E94F95187FD23C1502F6A
:10277000412F3A2D2B2D652F742F832F922F0E94DE
:102780001E540E947052CB0128960FB6F894DEBFFB
:102790000FBECDBFDF91CF911F910F91FF90EF90B2
:1027A000DF90CF90BF90AF909F908F907F906F9071
:1027B0005F904F903F902F900895828C938CA48CC3
:1027C000B58CA7019601C501B4010E94F95187FD9E
:1027D00094C0F4E0F9831D8211C0A7019601C301E2
:1027E000B2010E94F95187FFEAC045015101FE8103
:1027F000FD83C50188199909029754F12D81822E14
:10280000912C3981232E312C5401A20CB31CB59488
:10281000A794AE82C501880F991F8A0D9B1D880F52
:10282000991FFC01E00FF11FF887EF83428053806E
:1028300064807580A7019601C301B2010E94AC5368
:1028400018165CF6A982C501881999090297B4F691
:10285000F401EE0FFF1FE80DF91DEE0FFF1FE00F53
:10286000F11F208031804280538064807580C501D3
:10287000880F991F8A0D9B1D880F991F080F191F1C
:10288000F8016081718162197309072E000C880BB1
:10289000990B0E94AE524B015C01A3019201F80119
:1028A00062817381848195810E948C519B01AC016E
:1028B000C501B4010E94FE514B015C01A3019201CC
:1028C000C701B6010E948C519B01AC01C501B40146
:1028D0000E94B1536B017C01B101330C880B990B41
:1028E0000E94AE529B01AC01C701B6010E948D51FE
:1028F000562F472F382F292F3ECFF801208C318CAF
:102900002289338938872F83448855886688778859
:10291000B101621B730B072E000C880B990B0E94F0
:10292000AE5269837A838B839C83A3019201C50194
:10293000B4010E948C519B01AC0169817A818B8129
:102940009C810E94FE514B015C01A3019201C701D1
:10295000B6010E948C519B01AC01C501B4010E94DB
:10296000B1536B017C01EF81F885BF01FF0F880B2C
:10297000990B0E94AE529B01AC01C701B6010E94A7
:102980008D518B015C01B101330C880B990B0E94B6
:10299000AE522CE53FE842E85FE30E94B1536B0181
:1029A0007C019B01AC01B801C5010E94AC53181613
:1029B0000CF0DDCE5C2D4D2D3E2D2F2DDCCEEF818C
:1029C000F88560817181072E000C880B990B0E949D
:1029D000AE52562F472F382F292FCDCE2F923F9210
:1029E0004F925F926F927F928F929F92AF92BF921F
:1029F000CF92DF92EF92FF921F93CF93DF93CDB7E9
:102A0000DEB72C970FB6F894DEBF0FBECDBF1C010A
:102A10006A017B01DC018D909D90AD90BC90139775
:102A2000481559056A057B050CF07DC014962D915B
:102A30003D914D915C91179729833A834B835C8339
:102A40001C966D917D918D919C911F970E948C5148
:102A50002B013C01F10180859185A285B385BC01E4
:102A6000CD01681979098A099B090E94AE529B0120
:102A7000AC01C301B2010E94FE512B013C01C70110
:102A8000B601681979098A099B090E94AE529B0117
:102A9000AC01C301B2010E94B1539B01AC01698139
:102AA0007A818B819C810E948D51F62E172F982E52
:102AB000A92E2CE53FE842E85FE369817A818B81AA
:102AC0009C810E94B153B62EC72ED82EE92E262FF8
:102AD000372F482F592F6F2D712F892D9A2D0E9436
:102AE000F95187FD37C15F2D412F392D2A2D652FD3
:102AF000742F832F922F2C960FB6F894DEBF0FBE43
:102B0000CDBFDF91CF911F91FF90EF90DF90CF90DD
:102B1000BF90AF909F908F907F906F905F904F90FD
:102B20003F902F900895DC0190964D905D906D90B0
:102B30007C90939744165506660677060CF495C06C
:102B400014E0B12C0FC04C155D056E057F050CF02F
:102B500006C19C01CD01BA2CAC01421B530B423083
:102B600051051CF12B2D30E0A12FB0E0C9018A0FD7
:102B70009B1F95958795A82EFC01EE0FFF1FEE0F6A
:102B8000FF1FEE0FFF1FE20DF31D40815181628197
:102B90007381C416D506E606F706ACF6182FAC010D
:102BA000421B530B42305105ECF6220F331F220F0C
:102BB000331F220F331FF101E20FF31F8480958032
:102BC000A680B780208131814281538129833A8355
:102BD0004B835C83880F991F880F991F880F991F5B
:102BE000280E391EA5019401D10114966D917D9195
:102BF0008D919C9117970E948C512B013C01F10102
:102C000080819181A281B381BC01CD0129813A816A
:102C10004B815C81621B730B840B950B0E94AE523F
:102C20009B01AC01C301B2010E94FE512B013C018A
:102C3000C701B60129813A814B815C81621B730B0C
:102C4000840B950B0E94AE529B01AC01C301B201F3
:102C50000E94B1539B01AC01C501B4010E948D518A
:102C6000562F472F382F292F42CF94968D909D9025
:102C7000AD90BC9097975C962D913D914D915C9154
:102C80005F9729833A834B835C8358962D913D91BE
:102C90004D915C915B972D833E834F8358872981AB
:102CA0003A814B815C81C501B4010E948C516987D6
:102CB0007A878B879C87C301B2012D813E814F812A
:102CC0005885621B730B840B950B0E94AE529B01BF
:102CD000AC0169857A858B859C850E94FE512B010C
:102CE0003C01C701B6012D813E814F815885621B91
:102CF000730B840B950B0E94AE529B01AC01C30178
:102D0000B2010E94B1539B01AC0169817A818B8130
:102D10009C810E948D51F62E172F3C012CE53FE837
:102D200042E85FE3C501B4010E94B153B62EC72E3D
:102D3000D82EE92E262F372F482F592F6F2D712F80
:102D4000C3010E94AC5318162CF05F2D412F362D75
:102D5000272DCDCE5B2D4C2D3D2D2E2DC8CE548153
:102D6000458136812781C3CE2F923F924F925F9249
:102D70006F927F928F929F92AF92BF92CF92DF928B
:102D8000EF92FF921F93CF93DF93CDB7DEB72C97CF
:102D90000FB6F894DEBF0FBECDBF1C016A017B01E8
:102DA000DC018D909D90AD90BC901397481559050E
:102DB0006A057B050CF07DC014962D913D914D91D7
:102DC0005C91179729833A834B835C831C966D91A2
:102DD0007D918D919C911F970E948C512B013C01FC
:102DE000F10180859185A285B385BC01CD0168196B
:102DF00079098A099B090E94AE529B01AC01C3016B
:102E0000B2010E94FE512B013C01C701B6016819B5
:102E100079098A099B090E94AE529B01AC01C3014A
:102E2000B2010E94B1539B01AC0169817A818B810F
:102E30009C810E948D51F62E172F982EA92E2CE5DD
:102E40003FE842E85FE369817A818B819C810E943F
:102E5000B153B62EC72ED82EE92E262F372F482F46
:102E6000592F6F2D712F892D9A2D0E94F95187FDB1
:102E700037C15F2D412F392D2A2D652F742F832FB8
:102E8000922F2C960FB6F894DEBF0FBECDBFDF9108
:102E9000CF911F91FF90EF90DF90CF90BF90AF90B8
:102EA0009F908F907F906F905F904F903F902F906A
:102EB0000895DC0190964D905D906D907C90939775
:102EC00044165506660677060CF495C014E0B12C3E
:102ED0000FC04C155D056E057F050CF006C19C0109
:102EE000CD01BA2CAC01421B530B423051051CF1F1
:102EF0002B2D30E0A12FB0E0C9018A0F9B1F9595C3
:102F00008795A82EFC01EE0FFF1FEE0FFF1FEE0F9F
:102F1000FF1FE20DF31D4081518162817381C41650
:102F2000D506E606F706ACF6182FAC01421B530B8C
:102F300042305105ECF6220F331F220F331F220FB0
:102F4000331FF101E20FF31F84809580A680B780C4
:102F5000208131814281538129833A834B835C8371
:102F6000880F991F880F991F880F991F280E391EE7
:102F7000A5019401D10114966D917D918D919C9143
:102F800017970E948C512B013C01F10180819181A6
:102F9000A281B381BC01CD0129813A814B815C8141
:102FA000621B730B840B950B0E94AE529B01AC010C
:102FB000C301B2010E94FE512B013C01C701B601C1
:102FC00029813A814B815C81621B730B840B950BC9
:102FD0000E94AE529B01AC01C301B2010E94B153E9
:102FE0009B01AC01C501B4010E948D51562F472FA2
:102FF000382F292F42CF94968D909D90AD90BC9004
:1030000097975C962D913D914D915C915F972983A7
:103010003A834B835C8358962D913D914D915C9101
:103020005B972D833E834F83588729813A814B815B
:103030005C81C501B4010E948C5169877A878B87B6
:103040009C87C301B2012D813E814F815885621B4F
:10305000730B840B950B0E94AE529B01AC016985EA
:103060007A858B859C850E94FE512B013C01C7010E
:10307000B6012D813E814F815885621B730B840BF5
:10308000950B0E94AE529B01AC01C301B2010E949C
:10309000B1539B01AC0169817A818B819C810E9433
:1030A0008D51F62E172F3C012CE53FE842E85FE3F7
:1030B000C501B4010E94B153B62EC72ED82EE92EF9
:1030C000262F372F482F592F6F2D712FC3010E94A4
:1030D000AC5318162CF05F2D412F362D272DCDCE59
:1030E0005B2D4C2D3D2D2E2DC8CE54814581368132
:1030F0002781C3CE0895549A559808955C980895F1
:103100005C9A08950895089589B185FB882780F910
:1031100091E0892708958530910540F4FC01EE0F78
:10312000FF1FE055FE4F859194910895E0EBF1E08B
:103130008591949108954F925F926F927F928F92B2
:103140009F92AF92BF92CF92DF92EF92FF920F9336
:103150001F93CF93DF93EC016C0182E0C80ED11C6A
:103160001A821B821C821D821E821F82188619866B
:103170001A861B861C861D861E861F86188A198A3B
:103180001A8A1B8A1C8A1D8A1E8A1F8A188E198E0B
:103190001A8E1B8E1C8E1D8E1E8E1F8E18A219A2BB
:1031A0001AA21BA21CA21DA21EA21FA218A619A62B
:1031B0008E01065D1F4F60E0C8010E94CA437E0178
:1031C0008DE2E80EF11CC7010E94344581E792E0D0
:1031D0009EA78DA7C7010E94534560E170E0CE0114
:1031E000C2960E94CA4C0E9452319FAF8EAFC80156
:1031F0000E945944682F607FC8010E948144C80121
:103200000E941744682F607FC8010E943F4482E0FB
:1032100090E0998388830E942D31A601BC018EAD78
:103220009FAD0E94C547889709F460C0EFE9F1E0BF
:1032300085909590A590B490C501B401905823E372
:10324000422E542C23EF622E77247A944A825B829A
:103250006C827D826E837F838887998731EE432ECF
:103260003AE7532E34EF632E77247A944A865B86AE
:103270006C867D8626E636E646E65FE30E94B1531D
:103280006E877F87888B998B1A8A1B8A1C8A1D8A76
:103290001E8A1F8A188E198E8FE195E8ABE0B0E088
:1032A0008A8F9B8FAC8FBD8F26E636E646E65FE3BE
:1032B000C501B4010E94B1536E8F7F8F88A399A37B
:1032C0008DEC9CECACE0B0E08AA39BA3ACA3BDA3C7
:1032D0008EA29FA2A8A6B9A6888199810E942D31AD
:1032E000A601BC018EAD9FAD0E942C48C8010E9472
:1032F000EF43EDEAF1E09491682F607F692BC801FC
:10330000DF91CF911F910F91FF90EF90DF90CF90C1
:10331000BF90AF909F908F907F906F905F904F90F5
:103320000C94D543CF93DF9380910A03882339F01F
:103330008091080390910903DF91CF91089580E473
:1033400090E00E941B0CD82FC92F0E949B18D0938D
:103350000803C093090381E080930A038D2F9C2FFB
:10336000DF91CF9108954F925F926F927F928F92EB
:103370009F92AF92BF92EF92FF920F931F93CF93C2
:10338000DF93EC018B01FC01619371937F01CB0111
:103390000E942D31A701BC018EAD9FAD0E94C54793
:1033A000889709F465C0F801EE0FFF1FEE0FFF1FAD
:1033B000E956FE4F85909590A590B490C501B40153
:1033C000905823E3422E542C23EF622E77247A94D4
:1033D0004A825B826C827D826E837F838887998735
:1033E00031EE432E3AE7532E34EF632E77247A944E
:1033F0004A865B866C867D8626E636E646E65FE391
:103400000E94B1536E877F87888B998B1A8A1B8A9B
:103410001C8A1D8A1E8A1F8A188E198E8FE195E8D4
:10342000ABE0B0E08A8F9B8FAC8FBD8F26E636E68F
:1034300046E65FE3C501B4010E94B1536E8F7F8FF2
:1034400088A399A38DEC9CECACE0B0E08AA39BA38D
:10345000ACA3BDA38EA29FA2A8A6B9A6888199817C
:103460000E942D31A701BC018EAD9FAD0E942C485A
:10347000AA96CE010E94EF43F801E555FE4F049154
:10348000682F607F602BCE01DF91CF911F910F914C
:10349000FF90EF90BF90AF909F908F907F906F9034
:1034A0005F904F900C94D543AF92BF92CF92DF9232
:1034B000EF92FF920F931F93CF93DF93CDB7DEB7B9
:1034C00027970FB6F894DEBF0FBECDBF7C016130E9
:1034D00081E0780710F060E071E0CE0101960E9473
:1034E0004C4D2B813C818D819E812817390709F431
:1034F0004DC08701035D1F4F18C060E0C8010E94E6
:1035000001465B016C0144275527BA014A195B0942
:103510006C097D09CE0101960E94664D2B813C818C
:103520008D819E812817390789F10E945C3BFC013F
:1035300040815181052E000C660B770BDA0199272B
:10354000882742815381052E000C660B770B762F5E
:10355000652F542F4427482B592B6A2B7B2B8481B2
:103560009581092E000CAA0BBB0B482B592B6A2BFB
:103570007B2B411551056340710508F0BECF60E01B
:10358000C8010E940146AB01BC01C4CFCE01019627
:103590000E94884D0E941E540E947052AB01BC01D3
:1035A000C70102960E94EE146B017C01CE010196C8
:1035B0000E94614DC701B60127960FB6F894DEBF91
:1035C0000FBECDBFDF91CF911F910F91FF90EF9074
:1035D000DF90CF90BF90AF900895CF92DF92EF929F
:1035E000FF920F931F93CF93DF93EC01E881F98152
:1035F000EE0FFF1FEE0FFF1FE956FE4FC590D5904F
:10360000E590F490C701B601905803E313E323EF6C
:103610003FEF0A831B832C833D836E837F838887E0
:10362000998701EE1AE724EF3FEF0A871B872C8763
:103630003D8726E636E646E65FE30E94B1536E8795
:103640007F87888B998B1A8A1B8A1C8A1D8A1E8AFF
:103650001F8A188E198E8FE195E8ABE0B0E08A8F53
:103660009B8FAC8FBD8F26E636E646E65FE3C7014B
:10367000B6010E94B1536E8F7F8F88A399A38DEC02
:103680009CECACE0B0E08AA39BA3ACA3BDA3CEA20C
:10369000DFA2E8A6F9A6DF91CF911F910F91FF90CD
:1036A000EF90DF90CF9008954F925F926F927F924C
:1036B0008F929F92AF92BF92CF92DF92EF92FF9242
:1036C0000F931F93CF93DF93CDB7DEB72C970FB631
:1036D000F894DEBF0FBECDBF6C017B0149015A01DA
:1036E00060E870E0CE0101960E94CA4C8B859C85F3
:1036F000892B09F450C08601035D1F4F15C060E09F
:10370000C8010E9401462B013C0144275527BA01FC
:103710004419550966097709CE0101960E94E64CC5
:103720008B859C85892BB9F10E945C3BFC01408113
:103730005181052E000C660B770BDA01992788273B
:1037400042815381052E000C660B770B762F652F77
:10375000542F4427482B592B6A2B7B2B848195812E
:10376000092E000CAA0BBB0B482B592B6A2B7B2B69
:10377000411551056340710510F660E0C8010E94D3
:103780000146AB01BC01CE0101960E94E64C8B853F
:103790009C85892B49F6CE0101960E94214D0E94FD
:1037A0001E54FF24EE0CFF1CEE0CFF1CEE0CFF1C45
:1037B000CE0CDF1C0E947052F601628373838483F7
:1037C000958386829782A086B1862C960FB6F89450
:1037D000DEBF0FBECDBFDF91CF911F910F91FF9044
:1037E000EF90DF90CF90BF90AF909F908F907F90A1
:1037F0006F905F904F9008950F931F93CF93DF9337
:103800008C01EC01899199910E942D31AE01BC018E
:10381000F80186AD97ADDF91CF911F910F910C9478
:103820002C485F9808955F9A0895579A08958530B7
:10383000910540F4FC01EE0FFF1FED52FE4F859104
:1038400094910895E3EDF1E08591949108958F921C
:103850009F92AF92BF92CF92DF92EF92FF920F931F
:103860001F93CF93DF93EC0181E08EA77E0184E26A
:10387000E80EF11CC7010E94EF43682F6F7EC7015D
:103880000E94D5430C811D816E0186E0C80ED11CBB
:10389000C8010E940D31A601BC018FA598A90E9404
:1038A000C5474E9709F44CC0F801EE0FFF1FEE0F0D
:1038B000FF1FE654FE4F85909590A590B490C501EA
:1038C000B40190582BEB33EF3F832E8368877987C1
:1038D0008A879B8725EF34EF3D872C8726E636E6DF
:1038E00046E65FE30E94B1536E877F87888B998B92
:1038F0001B8A1A8A1C8A1D8A1E8A1F8A8BE09BE0FB
:10390000998F888F26E636E646E65FE3C501B40167
:103910000E94B1536A8F7B8F8C8F9D8F85E49CE0D2
:103920009F8F8E8F88A299A2AAA2BBA28C819D8113
:103930000E940D31A601BC018FA598A90E942C48B8
:10394000C7010E94EF43F801E253FE4F0491682F34
:10395000607F602BC7010E94D5438EA581110DC0E9
:10396000DF91CF911F910F91FF90EF90DF90CF905B
:10397000BF90AF909F908F900895488159816A8140
:103980007B81C6010E9425108C01BC01C6010E94EA
:10399000C80E688379838A839B83B8017058CE01EF
:1039A0008796DF91CF911F910F91FF90EF90DF905D
:1039B000CF90BF90AF909F908F900C94E344FC0108
:1039C00016A608958F929F92AF92BF92CF92DF92E8
:1039D000EF92FF920F931F93CF93DF93EC018B0134
:1039E0007D836C837C0186E0E80EF11CCB010E9494
:1039F0000D31A701BC018FA598A90E94C5474E971C
:103A000009F44CC0F801EE0FFF1FEE0FFF1FE65444
:103A1000FE4F85909590A590B490C501B401905843
:103A20002BEB33EF3F832E83688779878A879B87C9
:103A300025EF34EF3D872C8726E636E646E65FE342
:103A40000E94B1536E877F87888B998B1B8A1A8A55
:103A50001C8A1D8A1E8A1F8A8BE09BE0998F888FA3
:103A600026E636E646E65FE3C501B4010E94B1539F
:103A70006A8F7B8F8C8F9D8F85E49CE09F8F8E8FCC
:103A800088A299A2AAA2BBA28C819D810E940D311D
:103A9000A701BC018FA598A90E942C486E0184E261
:103AA000C80ED11CC6010E94EF43F801E253FE4F3D
:103AB0000491682F607F602BC6010E94D5438EA5BC
:103AC00081110DC0DF91CF911F910F91FF90EF9069
:103AD000DF90CF90BF90AF909F908F9008954881D6
:103AE00059816A817B81C7010E9425108C01BC012C
:103AF000C7010E94C80E688379838A839B83B801BB
:103B00007058CE018796DF91CF911F910F91FF9052
:103B1000EF90DF90CF90BF90AF909F908F900C94DC
:103B2000E344CF92DF92EF92FF920F931F93CF93D4
:103B3000DF93EC01188219821A821B8282E090E0E6
:103B40009D838C836E0186E0C80ED11C1F821E826D
:103B5000188619861A861B861D861C861E861F8659
:103B6000188A198A1B8A1A8A1C8A1D8A1E8A1F8A29
:103B7000198E188E1A8E1B8E1C8E1D8E1F8E1E8EF9
:103B800018A219A21AA21BA28E010C5D1F4F60E0A1
:103B9000C8010E94CA437E0187E2E80EF11CC701FA
:103BA0000E949E4483E892E098A78FA3C7010E94D9
:103BB000BB441EA60E94523198AB8FA7C8010E9439
:103BC0005944682F607CC8010E948144C8010E944A
:103BD0001744682F607CC8010E943F4462E070E097
:103BE000CE010E94E21C40E050E0BA01C6010E94F2
:103BF00025108C01BC01C6010E94C80E6883798320
:103C00008A839B83B8017058C701DF91CF911F91C0
:103C10000F91FF90EF90DF90CF900C94E344CF93FF
:103C2000DF9380911403882339F0809112039091DF
:103C30001303DF91CF91089581E390E00E941B0C64
:103C4000D82FC92F0E94911DD0931203C093130344
:103C500081E0809314038D2F9C2FDF91CF910895E5
:103C6000EF92FF920F931F93CF93DF938C017C0110
:103C700086E0E80EF11CC7010E942510EC01BC0192
:103C8000C7010E94C80EF801608371838283938309
:103C9000BE017058C8018796DF91CF911F910F9197
:103CA000FF90EF900C94E344CF92DF92EF92FF925B
:103CB000CF93DF93EC01EC81FD81EE0FFF1FEE0F40
:103CC000FF1FE654FE4FC590D590E590F490C701D4
:103CD000B60190582BEB33EF3F832E8368877987AB
:103CE0008A879B8725EF34EF3D872C8726E636E6CB
:103CF00046E65FE30E94B1536E877F87888B998B7E
:103D00001B8A1A8A1C8A1D8A1E8A1F8A8BE09BE0E6
:103D1000998F888F26E636E646E65FE3C701B6014F
:103D20000E94B1536A8F7B8F8C8F9D8F85E49CE0BE
:103D30009F8F8E8FC8A2D9A2EAA2FBA2DF91CF915A
:103D4000FF90EF90DF90CF9008957727FB01EE0F63
:103D5000FF1FE60FF71FEE0FFF1FE80FF91F668129
:103D60007781705887960C94E3447727FB01EE0F18
:103D7000FF1F6E0F7F1F660F771F860F971FFC01B7
:103D800020873187428753870895CF93DF93EC01D3
:103D90008C819D810E940D31AE014A5F5F4FBC0155
:103DA0008FA598A9DF91CF910C942C48089521E01C
:103DB00030E0FC0134AF23AFBC01655C7F4F0C9455
:103DC000BD3C2DE832E0FC01318320830C94D63BCE
:103DD000CF93DF93EC018DE892E099838883CE0145
:103DE0000E94D63BCE01DF91CF910C941D0C443044
:103DF000510508F4089528E030E0FC0134AF23AF0A
:103E0000BC01655C7F4F0C94BD3C4430510508F407
:103E100008952EE030E0FC0134AF23AFBC01655CB7
:103E20007F4F0C94BD3C4430510508F4089523E1C4
:103E300030E0FC0134AF23AFBC01655C7F4F0C94D4
:103E4000BD3C4430510508F4089528E130E0FC0100
:103E500034AF23AFBC01655C7F4F0C94BD3C443054
:103E6000510508F408952AE130E0FC0134AF23AF96
:103E7000BC01655C7F4F0C94BD3C4430510508F497
:103E800008952BE130E0FC0134AF23AFBC01655C49
:103E90007F4F0C94BD3C4430510508F408952CE14B
:103EA00030E0FC0134AF23AFBC01655C7F4F0C9464
:103EB000BD3C4430510508F408952DE130E0FC018B
:103EC00034AF23AFBC01655C7F4F0C94BD3C4430E4
:103ED000510508F4089521E230E0FC0134AF23AF2E
:103EE000BC01655C7F4F0C94BD3C4430510508F427
:103EF000089522E230E0FC0134AF23AFBC01655CE1
:103F00007F4F0C94BD3C4430510508F4089526E2DF
:103F100030E0FC0134AF23AFBC01655C7F4F0C94F3
:103F2000BD3C4430510508F4089528E230E0FC011E
:103F300034AF23AFBC01655C7F4F0C94BD3C443073
:103F4000510508F408952AE230E0FC0134AF23AFB4
:103F5000BC01655C7F4F0C94BD3C4430510508F4B6
:103F600008952CE230E0FC0134AF23AFBC01655C66
:103F70007F4F0C94BD3C4430510508F408952EE267
:103F800030E0FC0134AF23AFBC01655C7F4F0C9483
:103F9000BD3C4430510508F408952FE230E0FC01A7
:103FA00034AF23AFBC01655C7F4F0C94BD3C0F93D5
:103FB0001F93FB01A081B1812B2F3A2F20333105B4
:103FC00040F5EB2FFA2FEE0FFF1FEE0FFF1FE3520E
:103FD000FE4F0591159125913491F80120FF12C0F3
:103FE000F901F595E795DC01AE0FBF1FED91FC914E
:103FF0001197E00FF11F0190F081E02DCD011F918D
:104000000F91099435952795820F931F1F910F915A
:1040100009941F910F9108954830510508F40895AF
:10402000DB011596EC9115971496FC91E230F105A1
:1040300080F0E7ECF2E02591349143E050E0FC01A0
:1040400054AF43AF36AF25AFBC01655C7F4F0C94D6
:10405000BD3CEE0FFF1FE953FD4FEDCF483051053A
:1040600008F40895DB011596EC9115971496FC91D0
:10407000E530F10590F4EE0FFF1FE354FD4F25915D
:10408000349144E050E0FC0154AF43AF36AF25AF6C
:10409000BC01655C7F4F0C94BD3CEDEBF2E0EFCFD3
:1040A0004830510578F0FB012481358145E050E02E
:1040B000FC0154AF43AF35AF26AFBC01655C7F4F09
:1040C0000C94BD3C08954830510578F0FB012481E3
:1040D000358146E050E0FC0154AF43AF35AF26AF29
:1040E000BC01655C7F4F0C94BD3C08954830510580
:1040F00008F40895DB011596EC9115971496FC9140
:10410000E230F10580F0E9EBF2E0259134914AE0EC
:1041100050E0FC0154AF43AF36AF25AFBC01655C46
:104120007F4F0C94BD3CEE0FFF1FE754FD4FEDCFCA
:104130004830510578F0FB01248135814BE050E097
:10414000FC0154AF43AF35AF26AFBC01655C7F4F78
:104150000C94BD3C08954830510578F0FB01248152
:1041600035814CE050E0FC0154AF43AF35AF26AF92
:10417000BC01655C7F4F0C94BD3C089548305105EF
:1041800008F40895DB011596EC9115971496FC91AF
:10419000E530F10590F4EE0FFF1FE155FD4F25913D
:1041A000349140E150E0FC0154AF43AF36AF25AF4E
:1041B000BC01655C7F4F0C94BD3CEFEAF2E0EFCFB1
:1041C0004830510578F0FB012481358141E150E010
:1041D000FC0154AF43AF35AF26AFBC01655C7F4FE8
:1041E0000C94BD3C08954830510578F0FB012481C2
:1041F000358144E150E0FC0154AF43AF35AF26AF09
:10420000BC01655C7F4F0C94BD3C0895483051055E
:1042100008F40895DB011596EC9115971496FC911E
:10422000E630F10590F4EE0FFF1FED55FD4F25919F
:10423000349145E150E0FC0154AF43AF36AF25AFB8
:10424000BC01655C7F4F0C94BD3CE3EAF2E0EFCF2C
:104250004830510578F0FB012481358146E150E07A
:10426000FC0154AF43AF35AF26AFBC01655C7F4F57
:104270000C94BD3C08954830510578F0FB01248131
:10428000358149E150E0FC0154AF43AF35AF26AF73
:10429000BC01655C7F4F0C94BD3C089548305105CE
:1042A00078F0FB01248135814EE150E0FC0154AFF0
:1042B00043AF35AF26AFBC01655C7F4F0C94BD3C6E
:1042C00008954830510508F40895E1EAF2E0259197
:1042D000349143E250E0FC0154AF43AF36AF25AF19
:1042E000BC01655C7F4F0C94BD3C4830510578F0B3
:1042F000FB012481358144E250E0FC0154AF43AF1F
:1043000035AF26AFBC01655C7F4F0C94BD3C089572
:104310004830510578F0FB012481358147E250E0B7
:10432000FC0154AF43AF35AF26AFBC01655C7F4F96
:104330000C94BD3C08954830510508F40895DB0104
:104340001596EC9115971496FC91E230F10580F0EA
:10435000EDE9F2E02591349149E250E0FC0154AFDF
:1043600043AF36AF25AFBC01655C7F4F0C94BD3CBD
:10437000EE0FFF1FE356FD4FEDCF4830510578F0AB
:10438000FB01248135814DE250E0FC0154AF43AF85
:1043900035AF26AFBC01655C7F4F0C94BD3C0895E2
:1043A000FB014830510598F02481358146815781C1
:1043B00062E070E0FC0174AF63AFFD96508341830F
:1043C00032832383BC01655C7F4F0C94BD3C089510
:1043D000FB0148305105A8F0478156816581748101
:1043E0002BE230E0FC0134AF23AFFD966627772740
:1043F0004083518362837383BC01655C7F4F0C945F
:10440000BD3C0895FB014C305105D8F044815581E5
:10441000B385A2853185208567E070E0FC0174AF2B
:1044200063AF55AF46AFFF964B2F5A2F632F722FB6
:104430004083518362837383BC01655C7F4F0C941E
:10444000BD3C0895FB0148305105B8F0B781A68105
:104450003581248149E050E0FC0154AF43AFFD9623
:104460004B2F5A2F632F722F4083518362837383A4
:10447000BC01655C7F4F0C94BD3C0895FB014C3042
:104480005105D8F044815581B385A28531852085B9
:104490006DE070E0FC0174AF63AF55AF46AFFF96BF
:1044A0004B2F5A2F632F722F408351836283738364
:1044B000BC01655C7F4F0C94BD3C0895FB01483006
:1044C0005105B8F0B781A681358124814FE050E0D5
:1044D000FC0154AF43AFFD964B2F5A2F632F722F21
:1044E0004083518362837383BC01655C7F4F0C946E
:1044F000BD3C0895FB014C305105D8F044815581F5
:10450000B385A2853185208562E170E0FC0174AF3E
:1045100063AF55AF46AFFF964B2F5A2F632F722FC5
:104520004083518362837383BC01655C7F4F0C942D
:10453000BD3C0895FB014C305105D8F044815581B4
:10454000B385A2853185208567E170E0FC0174AFF9
:1045500063AF55AF46AFFF964B2F5A2F632F722F85
:104560004083518362837383BC01655C7F4F0C94ED
:10457000BD3C0895FB014C305105D8F04481558174
:10458000B385A2853185208565E270E0FC0174AFBA
:1045900063AF55AF46AFFF964B2F5A2F632F722F45
:1045A0004083518362837383BC01655C7F4F0C94AD
:1045B000BD3C08954830510578F0FB0124813581D8
:1045C0004FE150E0FC0154AF43AF35AF26AFBC0123
:1045D000655C7F4F0C94BD3C0895FB01483051054C
:1045E00098F0448155812681378160E270E0FC01BA
:1045F00074AF63AF55AF46AFFF9630832183BC01E4
:10460000655C7F4F0C94BD3C0895AF92BF92CF92F2
:10461000DF92EF92FF920F931F93CF93DF938C0162
:10462000FC01ED5BFF4F808191810E946F4A5C012C
:104630000E949A49EC01892B59F4DF91CF911F9187
:104640000F91FF90EF90DF90CF90BF90AF900895C3
:10465000680186E0C80ED11C75015801EEE0AE0E6F
:10466000B11C05C0C6010E941043219731F3F70128
:1046700061917F01C6010E942443F80190A999230A
:10468000A1F3408551854430510560F3B501C8015F
:104690000E94D71FE7CF8530910540F4FC01EE0F53
:1046A000FF1FE354FD4F859194910895EDEBF2E0E7
:1046B0008591949108958230910528F0E9EBF2E01C
:1046C000859194910895FC01EE0FFF1FE754FD4F73
:1046D0008591949108958530910540F4FC01EE0F89
:1046E000FF1FE155FD4F859194910895EFEAF2E0A7
:1046F0008591949108958630910540F4FC01EE0F68
:10470000FF1FED55FD4F859194910895E3EAF2E086
:10471000859194910895E1EAF2E08591949108954C
:104720008230910528F0EDE9F2E0859194910895A9
:10473000FC01EE0FFF1FE356FD4F85919491089504
:10474000CF93DF9380911E03882339F080911C035F
:1047500090911D03DF91CF91089585E490E00E9430
:104760001B0CEC010E94853C8DE892E099838883C4
:10477000CE0106960E94FC4218AE1FAA1AAE19AED0
:104780000E94A449FE01ED5BFF4F9183808340E8C6
:1047900055E260E070E00E94154AD0931D03C0937B
:1047A0001C0381E080931E03CE01DF91CF91089519
:1047B000FC01ED5BFF4F808191810C94F449FC0179
:1047C000ED5BFF4F808191810C94154A6F927F922F
:1047D0008F929F92AF92BF92CF92DF92EF92FF9211
:1047E0000F931F93CF93DF9300D000D0CDB7DEB7E8
:1047F0006C014B015C0187E3A80EB11C6CE270E018
:10480000C50129833A834B835C830E94C8423C01E3
:10481000FC01108681E08187138612865C8154A793
:104820004B8145A73A8136A7298127A710AB01AB59
:10483000F2AAE3AAC3010C9620E2FC0111922A9588
:10484000E9F7B4010E949557C3010E94A942F30100
:1048500045815481485F5F4FF601ED5BFF4FB30127
:10486000808191810E94AA4AB301C5010F900F90E7
:104870000F900F90DF91CF911F910F91FF90EF90CC
:10488000DF90CF90BF90AF909F908F907F906F9070
:104890000C94FB42EF92FF920F931F93CF93DF9301
:1048A0008C017C0187E3E80EF11C64E070E0C70135
:1048B0000E94C842EC01188619861B861A860E943F
:1048C000A9424D815C81485F5F4FF801ED5BFF4F6E
:1048D000BE01808191810E94AA4ABE01C701DF9179
:1048E000CF911F910F91FF90EF900C94FB42AF92EC
:1048F000BF92CF92DF92EF92FF920F931F93CF93CD
:10490000DF9300D0CDB7DEB78C01D62EC72E7C0149
:1049100087E3E80EF11C68E070E0C70149835A8321
:104920000E94C8425C01FC01108682E081871386E8
:104930001286C486D5865A81568749814787C50124
:104940000E94A942F50145815481485F5F4FF801FB
:10495000ED5BFF4FB501808191810E94AA4AB501AC
:10496000C7010F900F90DF91CF911F910F91FF9092
:10497000EF90DF90CF90BF90AF900C94FB42CF921E
:10498000DF92EF92FF920F931F93CF93DF938C01EF
:10499000D62EC72E7C0187E3E80EF11C68E070E09C
:1049A000C7010E94C842EC01188683E089871B86F4
:1049B0001A86CC86DD861F861E86CE010E94A942FD
:1049C0004D815C81485F5F4FF801ED5BFF4FBE0199
:1049D000808191810E94AA4ABE01C701DF91CF91D7
:1049E0001F910F91FF90EF90DF90CF900C94FB42BE
:1049F000CF92DF92EF92FF920F931F93CF93DF93AB
:104A00008C01D62EC72E7C0187E3E80EF11C68E0EE
:104A100070E0C7010E94C842EC01188684E08987D3
:104A20001B861A86CC86DD861F861E86CE010E94D6
:104A3000A9424D815C81485F5F4FF801ED5BFF4FFC
:104A4000BE01808191810E94AA4ABE01C701DF9107
:104A5000CF911F910F91FF90EF90DF90CF900C942A
:104A6000FB428F929F92AF92BF92CF92DF92EF92D2
:104A7000FF920F931F93CF93DF9300D000D0CDB759
:104A8000DEB77C01B62EA72E6C0187E3C80ED11CC1
:104A90006CE070E0C6012B833C8349835A830E94FB
:104AA000C8424C01FC01108685E08187138612867E
:104AB000A486B5865A815687498147873C812B81D8
:104AC000A801832F922FA52FB02F808B918BA28BC3
:104AD000B38BC4010E94A942F40145815481485F0F
:104AE0005F4FF701ED5BFF4FB401808191810E9420
:104AF000AA4AB401C6010F900F900F900F90DF915A
:104B0000CF911F910F91FF90EF90DF90CF90BF90CA
:104B1000AF909F908F900C94FB428F929F92AF9298
:104B2000BF92CF92DF92EF92FF920F931F93CF939A
:104B3000DF9300D000D0CDB7DEB77C01B62EA72E14
:104B40006C0187E3C80ED11C6CE070E0C6012B83BA
:104B50003C8349835A830E94C8424C01FC01108661
:104B600086E0818713861286A486B5865A81568789
:104B7000498147873C812B81A801832F922FA52F44
:104B8000B02F808B918BA28BB38BC4010E94A94262
:104B9000F40145815481485F5F4FF701ED5BFF4FA2
:104BA000B401808191810E94AA4AB401C6010F908C
:104BB0000F900F900F90DF91CF911F910F91FF9069
:104BC000EF90DF90CF90BF90AF909F908F900C941C
:104BD000FB428F929F92AF92BF92CF92DF92EF9261
:104BE000FF920F931F93CF93DF9300D000D0CDB7E8
:104BF000DEB77C01B62EA72E6C0187E3C80ED11C50
:104C00006CE070E0C6012B833C8349835A830E9489
:104C1000C8424C01FC01108687E08187138612860A
:104C2000A486B5865A815687498147873C812B8166
:104C3000A801832F922FA52FB02F808B918BA28B51
:104C4000B38BC4010E94A942F40145815481485F9D
:104C50005F4FF701ED5BFF4FB401808191810E94AE
:104C6000AA4AB401C6010F900F900F900F90DF91E8
:104C7000CF911F910F91FF90EF90DF90CF90BF9059
:104C8000AF909F908F900C94FB42EF92FF920F9306
:104C90001F93CF93DF938C017C0187E3E80EF11C17
:104CA00064E070E0C7010E94C842EC01188688E009
:104CB00089871B861A86CE010E94A9424D815C819C
:104CC000485F5F4FF801ED5BFF4FBE01808191812E
:104CD0000E94AA4ABE01C701DF91CF911F910F9197
:104CE000FF90EF900C94FB42AF92BF92CF92DF9275
:104CF000EF92FF920F931F93CF93DF9300D0CDB726
:104D0000DEB78C01D62EC72E7C0187E3E80EF11C9E
:104D100068E070E0C70149835A830E94C8425C0181
:104D2000FC01108689E08187138612865A814981A9
:104D30008C2D9D2DA52FB42FF50184879587A687EF
:104D4000B787C5010E94A942F50145815481485F9A
:104D50005F4FF801ED5BFF4FB501808191810E94AB
:104D6000AA4AB501C7010F900F90DF91CF911F9113
:104D70000F91FF90EF90DF90CF90BF90AF900C9489
:104D8000FB42CF92DF92EF92FF920F931F93CF934C
:104D9000DF938C01D62EC72E7C0187E3E80EF11C31
:104DA00068E070E0C7010E94C842EC0118868AE002
:104DB00089871B861A86CC86DD861F861E86CE01D5
:104DC0000E94A9424D815C81485F5F4FF801ED5B15
:104DD000FF4FBE01808191810E94AA4ABE01C70196
:104DE000DF91CF911F910F91FF90EF90DF90CF90C7
:104DF0000C94FB428F929F92AF92BF92CF92DF9220
:104E0000EF92FF920F931F93CF93DF9300D000D0C8
:104E1000CDB7DEB77C01B62EA72E6C0187E3C80E96
:104E2000D11C6CE070E0C6012B833C8349835A831C
:104E30000E94C8424C01FC0110868BE081871386DA
:104E40001286A486B5865A815687498147873C8158
:104E50002B81A801832F922FA52FB02F808B918BB0
:104E6000A28BB38BC4010E94A942F40145815481F5
:104E7000485F5F4FF701ED5BFF4FB4018081918187
:104E80000E94AA4AB401C6010F900F900F900F9094
:104E9000DF91CF911F910F91FF90EF90DF90CF9016
:104EA000BF90AF909F908F900C94FB428F929F92F7
:104EB000AF92BF92CF92DF92EF92FF920F931F9328
:104EC000CF93DF9300D000D0CDB7DEB77C01B62EF4
:104ED000A72E6C0187E3C80ED11C6CE070E0C60100
:104EE0002B833C8349835A830E94C8424C01FC01B6
:104EF00010868CE0818713861286A486B5865A8137
:104F00005687498147873C812B81A801832F922FA7
:104F1000A52FB02F808B918BA28BB38BC4010E94E5
:104F2000A942F40145815481485F5F4FF701ED5B71
:104F3000FF4FB401808191810E94AA4AB401C60149
:104F40000F900F900F900F90DF91CF911F910F91C5
:104F5000FF90EF90DF90CF90BF90AF909F908F9099
:104F60000C94FB428F929F92AF92BF92CF92DF92AE
:104F7000EF92FF920F931F93CF93DF9300D000D057
:104F8000CDB7DEB77C01B62EA72E6C0187E3C80E25
:104F9000D11C6CE070E0C6012B833C8349835A83AB
:104FA0000E94C8424C01FC0110868DE08187138667
:104FB0001286A486B5865A815687498147873C81E7
:104FC0002B81A801832F922FA52FB02F808B918B3F
:104FD000A28BB38BC4010E94A942F4014581548184
:104FE000485F5F4FF701ED5BFF4FB4018081918116
:104FF0000E94AA4AB401C6010F900F900F900F9023
:10500000DF91CF911F910F91FF90EF90DF90CF90A4
:10501000BF90AF909F908F900C94FB42EF92FF92C5
:105020000F931F93CF93DF938C017C0187E3E80EEE
:10503000F11C64E070E0C7010E94C842EC011886D0
:105040008EE089871B861A86CE010E94A9424D8177
:105050005C81485F5F4FF801ED5BFF4FBE018081CF
:1050600091810E94AA4ABE01C701DF91CF911F9191
:105070000F91FF90EF900C94FB42AF92BF92CF92B2
:10508000DF92EF92FF920F931F93CF93DF9300D0A5
:10509000CDB7DEB78C01D62EC72E7C0187E3E80E94
:1050A000F11C68E070E0C70149835A830E94C8423E
:1050B0005C01FC0110868FE08187138612865A817D
:1050C00049818C2D9D2DA52FB42FF50184879587BF
:1050D000A687B787C5010E94A942F5014581548181
:1050E000485F5F4FF801ED5BFF4FB5018081918113
:1050F0000E94AA4AB501C7010F900F90DF91CF918E
:105100001F910F91FF90EF90DF90CF90BF90AF90E5
:105110000C94FB42CF92DF92EF92FF920F931F937A
:10512000CF93DF938C01D62EC72E7C0187E3E80E48
:10513000F11C68E070E0C7010E94C842EC011886CB
:1051400080E189871B861A86CC86DD861F861E86AF
:10515000CE010E94A9424D815C81485F5F4FF801FA
:10516000ED5BFF4FBE01808191810E94AA4ABE0182
:10517000C701DF91CF911F910F91FF90EF90DF90CA
:10518000CF900C94FB426F927F928F929F92AF923E
:10519000BF92CF92DF92EF92FF920F931F93CF9324
:1051A000DF9300D000D0CDB7DEB76C01962E872EEE
:1051B0005C0187E3A80EB11C60E170E0C5012983A2
:1051C0003A834B835C830E94C8423C01FC011086F9
:1051D00081E18187138612868486958617861686D6
:1051E0005C81508B4B81418B3A81328B2981238B9F
:1051F000A8019701852F902FA32FBE2D848B958B0F
:10520000A68BB78BC3010E94A942F301458154814B
:10521000485F5F4FF601ED5BFF4FB30180819181E5
:105220000E94AA4AB301C5010F900F900F900F90F2
:10523000DF91CF911F910F91FF90EF90DF90CF9072
:10524000BF90AF909F908F907F906F900C94FB4297
:105250006F927F928F929F92AF92BF92CF92DF9286
:10526000EF92FF920F931F93CF93DF9300D000D064
:10527000CDB7DEB76C01962E872E5C0187E3A80EB2
:10528000B11C60E170E0C50129833A834B835C83E4
:105290000E94C8423C01FC01108682E1818713868E
:1052A000128684869586178616865C81508B4B8184
:1052B000418B3A81328B2981238BA8019701852F5D
:1052C000902FA32FBE2D848B958BA68BB78BC301FC
:1052D0000E94A942F30145815481485F5F4FF60166
:1052E000ED5BFF4FB301808191810E94AA4AB30117
:1052F000C5010F900F900F900F90DF91CF911F91EC
:105300000F91FF90EF90DF90CF90BF90AF909F9064
:105310008F907F906F900C94FB42EF92FF920F93CF
:105320001F93CF93DF938C017C0187E3E80EF11C80
:1053300064E070E0C7010E94C842EC01188683E176
:1053400089871B861A86CE010E94A9424D815C8105
:10535000485F5F4FF801ED5BFF4FBE018081918197
:105360000E94AA4ABE01C701DF91CF911F910F9100
:10537000FF90EF900C94FB42AF92BF92CF92DF92DE
:10538000EF92FF920F931F93CF93DF9300D0CDB78F
:10539000DEB78C01D62EC72E7C0187E3E80EF11C08
:1053A00068E070E0C70149835A830E94C8425C01EB
:1053B000FC01108684E18187138612865A81498117
:1053C0008C2D9D2DA52FB42FF50184879587A68759
:1053D000B787C5010E94A942F50145815481485F04
:1053E0005F4FF801ED5BFF4FB501808191810E9415
:1053F000AA4AB501C7010F900F90DF91CF911F917D
:105400000F91FF90EF90DF90CF90BF90AF900C94F2
:10541000FB42CF92DF92EF92FF920F931F93CF93B5
:10542000DF938C01D62EC72E7C0187E3E80EF11C9A
:1054300068E070E0C7010E94C842EC01188685E16F
:1054400089871B861A86CC86DD861F861E86CE013E
:105450000E94A9424D815C81485F5F4FF801ED5B7E
:10546000FF4FBE01808191810E94AA4ABE01C701FF
:10547000DF91CF911F910F91FF90EF90DF90CF9030
:105480000C94FB426F927F928F929F92AF92BF9249
:10549000CF92DF92EF92FF920F931F93CF93DF9300
:1054A00000D000D0CDB7DEB76C01962E872E5C0100
:1054B00087E3A80EB11C60E170E0C50129833A833F
:1054C0004B835C830E94C8423C01FC01108686E14C
:1054D00081871386128684869586178616865C8158
:1054E000508B4B81418B3A81328B2981238BA801D0
:1054F0009701852F902FA32FBE2D848B958BA68B84
:10550000B78BC3010E94A942F30145815481485FD2
:105510005F4FF601ED5BFF4FB301808191810E94E7
:10552000AA4AB301C5010F900F900F900F90DF9121
:10553000CF911F910F91FF90EF90DF90CF90BF9090
:10554000AF909F908F907F906F900C94FB426F92E2
:105550007F928F929F92AF92BF92CF92DF92EF9203
:10556000FF920F931F93CF93DF9300D000D0CDB75E
:10557000DEB76C01962E872E5C0187E3A80EB11C66
:1055800060E170E0C50129833A834B835C830E940C
:10559000C8423C01FC01108687E181871386128690
:1055A00084869586178616865C81508B4B81418B4D
:1055B0003A81328B2981238BA8019701852F902F67
:1055C000A32FBE2D848B958BA68BB78BC3010E9416
:1055D000A942F30145815481485F5F4FF601ED5BBD
:1055E000FF4FB301808191810E94AA4AB301C50196
:1055F0000F900F900F900F90DF91CF911F910F910F
:10560000FF90EF90DF90CF90BF90AF909F908F90E2
:105610007F906F900C94FB42EF92FF920F931F9339
:10562000CF93DF938C017C0187E3E80EF11C64E0EB
:1056300070E0C7010E94C842EC01188688E18987A2
:105640001B861A86CE010E94A9424D815C81485F6B
:105650005F4FF801ED5BFF4FBE01808191810E9499
:10566000AA4ABE01C701DF91CF911F910F91FF9010
:10567000EF900C94FB42AF92BF92CF92DF92EF92E9
:10568000FF920F931F93CF93DF9300D0CDB7DEB778
:105690008C01D62EC72E7C0187E3E80EF11C68E052
:1056A00070E0C70149835A830E94C8425C01FC0133
:1056B000108689E18187138612865A8149818C2D53
:1056C0009D2DA52FB42FF50184879587A687B787D1
:1056D000C5010E94A942F50145815481485F5F4F91
:1056E000F801ED5BFF4FB501808191810E94AA4ACC
:1056F000B501C7010F900F90DF91CF911F910F91CE
:10570000FF90EF90DF90CF90BF90AF900C94FB4252
:10571000EF92FF920F931F93CF93DF938C017C0145
:1057200087E3E80EF11C64E070E0C7010E94C84204
:10573000EC0118868AE189871B861A86CE010E94B1
:10574000A9424D815C81485F5F4FF801ED5BFF4FDF
:10575000BE01808191810E94AA4ABE01C701DF91EA
:10576000CF911F910F91FF90EF900C94FB42EF921D
:10577000FF920F931F93CF93DF938C017C0187E3FC
:10578000E80EF11C64E070E0C7010E94C842EC0121
:1057900018868BE189871B861A86CE010E94A94252
:1057A0004D815C81485F5F4FF801ED5BFF4FBE01AB
:1057B000808191810E94AA4ABE01C701DF91CF91E9
:1057C0001F910F91FF90EF900C94FB42EF92FF928C
:1057D0000F931F93CF93DF938C017C0187E3E80E37
:1057E000F11C64E070E0C7010E94C842EC01188619
:1057F0008CE189871B861A86CE010E94A9424D81C1
:105800005C81485F5F4FF801ED5BFF4FBE01808117
:1058100091810E94AA4ABE01C701DF91CF911F91D9
:105820000F91FF90EF900C94FB42EF92FF920F9339
:105830001F93CF93DF938C017C0187E3E80EF11C6B
:1058400064E070E0C7010E94C842EC0118868DE157
:1058500089871B861A86CE010E94A9424D815C81F0
:10586000485F5F4FF801ED5BFF4FBE018081918182
:105870000E94AA4ABE01C701DF91CF911F910F91EB
:10588000FF90EF900C94FB42AF92BF92CF92DF92C9
:10589000EF92FF920F931F93CF93DF9300D0CDB77A
:1058A000DEB78C01D62EC72E7C0187E3E80EF11CF3
:1058B00068E070E0C70149835A830E94C8425C01D6
:1058C000FC0110868EE18187138612865A814981F8
:1058D0008C2D9D2DA52FB42FF50184879587A68744
:1058E000B787C5010E94A942F50145815481485FEF
:1058F0005F4FF801ED5BFF4FB501808191810E9400
:10590000AA4AB501C7010F900F90DF91CF911F9167
:105910000F91FF90EF90DF90CF90BF90AF900C94DD
:10592000FB42AF92BF92CF92DF92EF92FF920F9322
:105930001F93CF93DF9300D0CDB7DEB78C01D62E67
:10594000C72E7C0187E3E80EF11C68E070E0C70118
:1059500049835A830E94C8425C01FC0110868FE192
:10596000818713861286C486D5865A8156874981D7
:105970004787C5010E94A942F50145815481485FCE
:105980005F4FF801ED5BFF4FB501808191810E946F
:10599000AA4AB501C7010F900F90DF91CF911F91D7
:1059A0000F91FF90EF90DF90CF90BF90AF900C944D
:1059B000FB42AF92BF92CF92DF92EF92FF920F9392
:1059C0001F93CF93DF9300D0CDB7DEB78C01D62ED7
:1059D000C72E7C0187E3E80EF11C68E070E0C70188
:1059E00049835A830E94C8425C01FC01108680E210
:1059F000818713861286C486D5865A815687498147
:105A00004787C5010E94A942F50145815481485F3D
:105A10005F4FF801ED5BFF4FB501808191810E94DE
:105A2000AA4AB501C7010F900F90DF91CF911F9146
:105A30000F91FF90EF90DF90CF90BF90AF900C94BC
:105A4000FB42EF92FF920F931F93CF93DF938C0152
:105A50007C0187E3E80EF11C64E070E0C7010E945E
:105A6000C842EC01188681E289871B861A86CE011E
:105A70000E94A9424D815C81485F5F4FF801ED5B58
:105A8000FF4FBE01808191810E94AA4ABE01C701D9
:105A9000DF91CF911F910F91FF90EF900C94FB42FB
:105AA000EF92FF920F931F93CF93DF938C017C01B2
:105AB00087E3E80EF11C64E070E0C7010E94C84271
:105AC000EC01188682E289871B861A86CE010E9425
:105AD000A9424D815C81485F5F4FF801ED5BFF4F4C
