:100000000C94B5020C94D2020C94D2020C94D2023D
:100010000C94D2020C94D2020C94D2020C94D20210
:100020000C94D2020C94D2020C94D2020C94D20200
:100030000C94D2020C94D2020C94D2020C94D202F0
:100040000C94224A0C94D2020C94D2020C94D20248
:100050000C940A4B0C94D2020C94D2020C94D2024F
:100060000C94D2020C94D2020C94D2020C94D202C0
:10007000310200007A4406310200007A4405310260
:1000800000007A44043B020000803F063B0200006F
:10009000803F053B020000803F0445020024744974
:1000A0000545020024744904540200007A440654B1
:1000B0000200007A4405540200007A4404D402008D
:1000C00000D5020000660800000F0800001A0300B7
:1000D0000082030000A2030000D2030000E6090032
:1000E00000060400001E040000380400005804004C
:1000F0000088040000700A0000BC0400004E0300E9
:1001000000D4040000FE0400002B0A0000DE0800FA
:10011000003F0500005905000083050000B50A00F6
:10012000003F0B0000C4050000D1050000DE050003
:1001300000EB050000E8070000F8050000330600AA
:1001400000900600009D060000AA060000C40600FC
:1001500000EE060000FA0A00002F0700004E07001C
:10016000005B0700007707000089070000B907005F
:10017000001B0E00006E0E0000A50E0000462F773B
:10018000206465762000492D5620536F7572636593
:10019000204D6574657200ACC5273717B7D1386F2D
:1001A00012833A0AD7233CCDCCCC3D08040201008F
:1001B00000000100020003000400ACC5273717B798
:1001C000D1386F12833A0AD7233CCDCCCC3D0804FA
:1001D000020100000001000200030004003C1F00B7
:1001E000003D1F0000362200007220000094200015
:1001F00000B6200000C9200000682200005D1F003A
:100200000088220000DC200000FE200000112100F8
:1002100000A42200006B1F0000C422000024210063
:100220000046210000E0220000791F000059210053
:10023000006C2100008E21000000230000871F00B9
:1002400000A1210000951F0000A31F0000B11F00A6
:1002500000BF1F0000B42100004023000053230012
:1002600000CD1F0000DB1F0000C7210000DB2100C4
:100270000020230000E91F0000EE210000F71F000E
:100280000001220000052000004E22000013200083
:100290000023220000212000002F20000000000188
:1002A000000000000001000200030004000500003F
:1002B0000001000200030004000000010000000132
:1002C00000020003000400000001001E001E001ECA
:1002D000001E001E001E001E002800280028002806
:1002E00000280028002800280028002800280022D4
:1002F00000280013000C000D000E000F001000116C
:10030000000700080009000A000B000500060000B5
:100310000001000200030004006F12833A0AD72391
:100320003CCDCCCC3D0000803F000020410000C807
:100330004208040201003000000100000001000238
:100340000003000400050000002041000000002020
:10035000410000C842002000000100030003000229
:10036000000AD7233C0300030003000AD7233C0301
:1003700000030004000AD7233C0200020004006FBF
:1003800012833A01000100040017B7D138010001BF
:10039000000400ACC52737010001000400BD37860A
:1003A000350300030002000AD7233CCDCCCC3D032B
:1003B00000030003000AD7233C0000803F03000332
:1003C0000004000AD7233C00002041020002000480
:1003D000006F12833A000020410100010004001761
:1003E000B7D13800002041010001000400ACC5274E
:1003F0003700002041010001000400BD37863500B0
:100400000020410000010002000300040005000676
:100410000080C02C4300002D43000033430000390E
:1004200043000000FFFFFFFF000100FF002000105D
:1004300000080004000102035F4C0000664C00004D
:10044000854C0000114D0000A44C0000314D00000F
:10045000AB4C0000B24C0000B94C0000D14C000085
:10046000D84C0000FC4C00006E616E00696E6600A6
:1004700000407A10F35A00A0724E18090010A5D45B
:10048000E80000E87648170000E40B54020000CAB8
:100490009A3B000000E1F5050000809698000000FE
:1004A00040420F000000A08601000000102700005D
:1004B0000000E803000000006400000000000A00E3
:1004C000000000000100000000002C76D888DC67E6
:1004D0004F0823DFC1DFAE59E1B1B796E5E3E4533E
:1004E000C63AE651997696E8E6C28426EB898C9B5B
:1004F00062ED407C6FFCEFBC9C9F40F2BAA56FA5FB
:10050000F490055A2AF75C936B6CF9676DC11BFC7C
:10051000E0E40D47FEF520E6B500D0ED902E030097
:10052000943577050080841E080000204E0A0000E4
:1005300000C80C333333330F986E12831141EF8DA3
:100540002114893BE65516CFFEE6DB18D1844B38E3
:100550001BF77C1D901DA4BBE424203284725E2214
:100560008100C9F124ECA1E53D2711241FBECFEF86
:10057000D0E1DEBFCDBF12E0A0E0B1E0E4E6F4EBF5
:1005800002C005900D92A23FB107D9F723E0A2EF78
:10059000B2E001C01D92AE3AB207E1F70E941E0F11
:1005A0000C94305A0C9400000895CF92DF92EF9291
:1005B000FF920F931F93DC019496ED91FC91959718
:1005C00040815181052E000C660B770B9A01112793
:1005D000002742815381052E000C660B770B762F86
:1005E000652F542F4427402B512B622B732B2481D2
:1005F00035818901330F220B330B6A017B01C02A3D
:10060000D12AE22AF32AA701960114E0E12E12E092
:10061000F12E02E010E068E171E090968D919C91DE
:1006200091970E944C241F910F91FF90EF90DF90C3
:10063000CF9008950F931F93CF93DF93EC018B011D
:10064000FB01828193810E94F118BC018A8D9B8DF0
:100650000E94191AEA8DFB8D808191810E94D1231D
:10066000BC0188A199A10E94F028F80182819381A0
:100670000E947D1CBC018E899F890E94481DEE89C5
:10068000FF89848195810E94B123BC0188A199A131
:10069000DF91CF911F910F910C945E250F931F93C3
:1006A000CF93DF93EC018B01FB01828193810E9448
:1006B0007D1CBC018E899F890E94481DEE89FF899F
:1006C000848195810E94B123BC0188A199A10E94D7
:1006D0005E25F801828193810E94F118BC018A8D08
:1006E0009B8D0E94191AEA8DFB8D808191810E9459
:1006F000D123BC0188A199A1DF91CF911F910F91C6
:100700000C94F0280F931F93FC0126893789FB0175
:10071000628173817727FB01EE0FFF1FE60FF71F42
:10072000EE0FFF1FE20FF31F008511852285338531
:1007300046815781FC0180A191A10E9497251F91BC
:100740000F910895EF92FF920F931F93CF93DF9332
:100750007C01FB01C281D381DD27BE01FC018689BA
:1007600097890E940B1FF70186899789FE01EE0F7A
:10077000FF1FEC0FFD1FEE0FFF1FE80FF91F008595
:1007800011852285338546815781BE01F70180A1FD
:1007900091A10E94F325DF91CF911F910F91FF90BE
:1007A000EF900895EF92FF920F931F93CF93DF93F3
:1007B0007C01FB01C281D381DD2724813581468103
:1007C0005781BE01FC01868997890E941B1FF70192
:1007D00086899789FE01EE0FFF1FEC0FFD1FEE0FBC
:1007E000FF1FE80FF91F008511852285338546819B
:1007F0005781BE01F70180A191A10E944F26DF9190
:10080000CF911F910F91FF90EF900895CF93DF93B9
:10081000EC01FB0142815381648175818E899F893E
:100820000E94961EEE89FF89408151816281738109
:1008300088A199A1DF91CF910C94DA26CF93DF9311
:10084000EC01FB01828193810E94E037BC01888D1D
:10085000998D0E94F337E88DF98D848195810E94EE
:10086000C123BC0188A199A1DF91CF910C942727C6
:100870000F931F93FC01208D318DFB0162817381E9
:100880007727FB01EE0FFF1FE60FF71FEE0FFF1F8D
:10089000E20FF31F0085118522853385468157813C
:1008A000FC0180A191A10E9460271F910F910895E2
:1008B000EF92FF920F931F93CF93DF937C01FB0185
:1008C000C281D381DD27BE01FC01808D918D0E9404
:1008D000DD39F701808D918DFE01EE0FFF1FEC0FCA
:1008E000FD1FEE0FFF1FE80FF91F00851185228500
:1008F000338546815781BE01F70180A191A10E94F5
:10090000BC27DF91CF911F910F91FF90EF90089539
:10091000EF92FF920F931F93CF93DF937C01FB0124
:10092000C281D381DD272481358146815781BE0173
:10093000FC01808D918D0E94ED39F701808D918DA4
:10094000FE01EE0FFF1FEC0FFD1FEE0FFF1FE80F64
:10095000F91F008511852285338546815781BE01A7
:10096000F70180A191A10E941828DF91CF911F91DA
:100970000F91FF90EF900895CF93DF93EC01FB016F
:100980004281538164817581888D998D0E94683977
:10099000E88DF98D408151816281738188A199A18F
:1009A000DF91CF910C94A328EF92FF920F931F93A6
:1009B000DC015A96ED91FC915B97DB0112966D91EB
:1009C0007C91139777279B01220F331F220F331F30
:1009D000220F331FE20FF31FE680F7800085118599
:1009E0002281338144815581FC0180A191A10E9423
:1009F00029291F910F91FF90EF900895CF92DF92D8
:100A0000EF92FF920F931F93CF93DF936C01DB0163
:100A10001296CD91DC911397DD2714962D913D917F
:100A20004D915C911797BE01FC01828D938D0E94C0
:100A3000BA1BD6015A96ED91FC915B979E01220F4D
:100A4000331F220F331F220F331FE20FF31FE680E5
:100A5000F780008511852281338144815581BE0153
:100A600090968D919C9191970E948E29DF91CF91C4
:100A70001F910F91FF90EF90DF90CF900895CF934B
:100A8000DF93EC01FB01828193810E94ED31BC0177
:100A90008C8D9D8D0E944C33EC8DFD8D80819181DC
:100AA0000E94E123BC0188A199A1DF91CF910C9410
:100AB0006F2AEF92FF920F931F93DC015C96ED91EA
:100AC000FC915D97DB0112966D917C9113977727CE
:100AD0009B01220F331F220F331F220F331FE20F00
:100AE000F31FE680F78000851185228133814481E0
:100AF0005581FC0180A191A10E94A82A1F910F910C
:100B0000FF90EF900895CF92DF92EF92FF920F93B4
:100B10001F93CF93DF936C01DB011296CD91DC9193
:100B20001397DD2714962D913D914D915C91179768
:100B3000BE01FC01848D958D0E94B934D6015C966E
:100B4000ED91FC915D979E01220F331F220F331F01
:100B5000220F331FE20FF31FE680F7800085118517
:100B60002281338144815581BE0190968D919C9163
:100B700091970E940D2BDF91CF911F910F91FF90C4
:100B8000EF90DF90CF900895CF93DF93EC018E89A3
:100B90009F890E94BA1E88A199A1DF91CF910C94E0
:100BA000EE2BCF93DF93EC01888D998D0E948C39C9
:100BB00088A199A1DF91CF910C941D2CCF93DF9345
:100BC000EC018A8D9B8D0E94531B88A199A1DF9116
:100BD000CF910C944C2CCF93DF93EC018C8D9D8D99
:100BE0000E94523488A199A1DF91CF910C947B2C63
:100BF000DB0112962D913C9113972130310521F1A3
:100C00002230310591F0232B09F00895DC019496F0
:100C1000ED91FC9195974081518160E070E0909654
:100C20008D919C9191970C94F72CDC019496ED9109
:100C3000FC9195974481558162E070E090968D918A
:100C40009C9191970C94F72CDC019496ED91FC917A
:100C500095974281538161E070E090968D919C91CF
:100C600091970C94F72CDB0112962D913C911397E0
:100C700014964D915C9115972130310559F1223030
:100C80003105D1F02115310549F02130310581F1CF
:100C900022303105A9F1232BD9F10895DC01949676
:100CA000ED91FC9195975183408360E070E0FC01E9
:100CB00080A191A10C943F2DDC019496ED91FC91C3
:100CC00095975583448362E070E0FC0180A191A177
:100CD0000C943F2DDC019496ED91FC9195975383F4
:100CE000428361E070E0FC0180A191A10C943F2D52
:100CF000DC019496ED91FC91959742815381F1CF5F
:100D0000DC019496ED91FC91959744815581DBCF60
:100D1000DC019496ED91FC91959740815181C5CF6E
:100D2000CF93DF93EC018CA19DA10E940C3C88A184
:100D300099A1DF91CF910C94872DCF93DF93EC0194
:100D40008CA19DA10E94143C88A199A1DF91CF9113
:100D50000C94B62DCF93DF93EC01FB01828193813C
:100D60000E946C35BC018E8D9F8D0E943E36EE8DAB
:100D7000FF8D858196810E94F123BC0188A199A1F4
:100D8000DF91CF910C94E52DEF92FF920F931F937B
:100D9000DC015E96ED91FC915F97DB0112966D91FF
:100DA0007C91139777279B01220F331F220F331F4C
:100DB000220F331FE20FF31FE384F48405851685A9
:100DC0002781308541855285FC0180A191A10E9437
:100DD0001E2E1F910F91FF90EF900895CF92DF92FA
:100DE000EF92FF920F931F93CF93DF936C01DB0180
:100DF0001296CD91DC911397DD2714962D913D919C
:100E00004D915C911797BE01FC01868D978D0E94D4
:100E1000CF36D6015E96ED91FC915F979E01220F31
:100E2000331F220F331F220F331FE20FF31FE38400
:100E3000F484058516852781308541855285BE015C
:100E400090968D919C9191970E94832EDF91CF91E6
:100E50001F910F91FF90EF90DF90CF9008950F9327
:100E60001F93CF93DF93EC018B0188A599A50E9476
:100E7000313AF801628173818E8D9F8D0E949E3779
:100E8000AB01BC0188A199A10E94172F88A599A543
:100E9000DF91CF911F910F910C94333ACF93DF9351
:100EA000EC018E8D9F8D0E94373788A199A1DF912B
:100EB000CF910C94642FCF93DF93EC01FB018281DF
:100EC00093810E94FD31BC018C8D9D8D0E942E3539
:100ED000EC8DFD8DEF5BFF4F808191810E94F623A9
:100EE000BC0188A199A1DF91CF910C94932FCF934E
:100EF000DF93EC01EC8DFD8DEF5BFF4F80819181E5
:100F00000E94F623BC0188A199A1DF91CF910C9496
:100F1000CC2FCF92DF92EF92FF92CF93DF93EC0131
:100F2000FB01C280D380E480F580B701A60188A1CF
:100F300099A10E943E2481110AC088A199A1DF9144
:100F4000CF91FF90EF90DF90CF900C94B024B70139
:100F5000A60188A199A10E940530B701A60188A128
:100F600099A1DF91CF91FF90EF90DF90CF900C94FB
:100F70004524CF93DF93EC0188899989009749F044
:100F80000E94DE3CBC0188A199A1DF91CF910C9415
:100F90004D3060E070E088A199A1DF91CF910C9471
:100FA0004D30CF93DF93EC018BE592E099838883FA
:100FB00088899989009739F0DC01ED91FC910280D4
:100FC000F381E02D0995CE01DF91CF910C94713D15
:100FD0000F931F93CF93DF93EC018B01888D998D35
:100FE0000E94F03788A599A50E942F3A8E899F8983
:100FF0000E948D1C88A599A50E94293AF80162815A
:1010000073818AA19BA10E94053BAB01BC0188A111
:1010100099A1DF91CF911F910F910C94AA2CCF939E
:10102000DF93EC01FB01828193810097E9F0019746
:10103000C1F48E899F890E94451D88A599A50E94AB
:101040002B3A888D998D0E942F3988A599A50E94E9
:101050002D3A61E070E088A199A1DF91CF910C94C5
:101060002525DF91CF910895888D998D0E94F037C5
:1010700088A599A50E942F3A8E899F890E948D1C70
:1010800088A599A50E94293A60E070E088A199A1FD
:10109000DF91CF910C942525CF93DF93EC018BE565
:1010A00092E09983888388899989009739F0DC01D7
:1010B000ED91FC910280F381E02D0995CE010E9413
:1010C000713DCE01DF91CF910C94DB568F929F92B0
:1010D000AF92BF92CF92DF92EF92FF92CF93DF93C6
:1010E000EC01FB0182809380A480B58081E08B8736
:1010F0008EA19FA10E94714A6B017C01C501B401C0
:101100000E9447542FE632E143E85AE30E944C55CF
:10111000AB01BC018EA19FA10E947D4AC60ED71EC5
:10112000E81EF91ECC86DD86EE86FF86B501A40199
:1011300088A199A1DF91CF91FF90EF90DF90CF90A0
:10114000BF90AF909F908F900C94DD24CF92DF9250
:10115000EF92FF92DB01ED91FC91E033F10548F550
:10116000EE0FFF1FEE0FFF1FE354FF4FC590D5900A
:10117000E590F490F601970135952795E0FE12C0B1
:10118000DC01A20FB31F2D913C911197F901EC0DD9
:10119000FD1D0190F081E02DCD01FF90EF90DF90DB
:1011A000CF900994820F931FFF90EF90DF90CF9024
:1011B0000994FF90EF90DF90CF9008958F929F92C7
:1011C000AF92BF92CF92DF92EF92FF920F931F9355
:1011D000CF93DF93CDB7DEB72B970FB6F894DEBF72
:1011E0000FBECDBF8C017B01DC0198968D919C9147
:1011F00099970E94313AF70162817381D8015A961A
:101200008D919C915B970E94BA1A4B015C01AB01D6
:10121000BC01F80180A191A10E94222A81E0D8019D
:1012200016968C93169796968D919C9197970E94FF
:10123000714A6B017C0140E050E060E070E4F8012D
:1012400086A197A10E947D4AC60ED71EE81EF91EF0
:10125000D8011796CD92DD92ED92FC921A975A968C
:10126000ED91FC915B97C080D18054968D919C91BB
:1012700055970E946B3FFC0196E0DE0111960190AC
:101280000D929A95E1F740E060E0F8018489958934
:101290000E94473F7601EE0CFF1CEE0CFF1CEE0C8B
:1012A000FF1CEC18FD08F701E656FF4FC590D490DF
:1012B00082E00E94E0428B8781E00E94E0428A87C0
:1012C000F701E456FF4F2591359145915491C501A1
:1012D000B4010E944C554B015C01F701E056FF4FF1
:1012E00084910E94E142898789E00E94E0428887D8
:1012F00084E00E94E0428F8369E972E4D801549649
:101300008D919C9155970E944F42BE01695F7F4F1E
:101310000E94E24263E271E00E94763F6DEB72E46C
:101320000E944F4261E572E40E944F4265E772E419
:101330000E944F42BE01685F7F4F0E94E242BE01A1
:10134000675F7F4F0E940743B501A4010E943541AA
:10135000BE01665F7F4F0E94E24266E072E00E943B
:10136000763F69E972E40E944F42BE01655F7F4F9C
:101370000E94E242B6010E94763F40E061E0F8013F
:10138000848995890E94473FBE016F5F7F4FD801D6
:1013900054968D919C9155970E946D3FF80180A5C0
:1013A00091A50E94333A2B960FB6F894DEBF0FBE7C
:1013B000CDBFDF91CF911F910F91FF90EF90DF9004
:1013C000CF90BF90AF909F908F900895CF92DF9273
:1013D000EF92FF92CF93DF93EC018E899F890E9459
:1013E0002B1F88A199A10E94AB2681E08E838EA13C
:1013F0009FA10E94714A6B017C0140E050E060E0D7
:1014000070E48EA19FA10E947D4AC60ED71EE81EE1
:10141000F91ECF82D886E986FA8640E060E08C89A2
:101420009D890E94473F66E271E08C899D890E94F8
:10143000763F40E061E08C899D890E94473F67E3E9
:1014400071E08C899D89DF91CF91FF90EF90DF90C3
:10145000CF900C94763FCF92DF92EF92FF92CF9392
:10146000DF93EC018A8D9B8D0E94621C88A199A15B
:101470000E94F32981E08E838EA19FA10E94714A70
:101480006B017C0140E050E060E070E48EA19FA120
:101490000E947D4AC60ED71EE81EF91ECF82D8864E
:1014A000E986FA8640E060E08C899D890E94473F8A
:1014B00066E271E08C899D890E94763F40E061E0A0
:1014C0008C899D890E94473F67E371E08C899D89E3
:1014D000DF91CF91FF90EF90DF90CF900C94763F0B
:1014E000CF92DF92EF92FF92CF93DF93EC01888D42
:1014F000998D0E94FD3988A199A10E94742881E0EC
:101500008E838EA19FA10E94714A6B017C0140E0F5
:1015100050E060E070E48EA19FA10E947D4AC60E5B
:10152000D71EE81EF91ECF82D886E986FA8640E0EB
:1015300060E08C899D890E94473F66E271E08C895A
:101540009D890E94763F40E061E08C899D890E94E0
:10155000473F67E371E08C899D89DF91CF91FF90D0
:10156000EF90DF90CF900C94763FCF92DF92EF9286
:10157000FF92CF93DF93EC018C8D9D8D0E941735E8
:1015800088A199A10E94722B81E08E838EA19FA1D8
:101590000E94714A6B017C0140E050E060E070E421
:1015A0008EA19FA10E947D4AC60ED71EE81EF91E7D
:1015B000CF82D886E986FA8640E060E08C899D89F2
:1015C0000E94473F66E271E08C899D890E94763FC8
:1015D00040E061E08C899D890E94473F67E371E0AC
:1015E0008C899D89DF91CF91FF90EF90DF90CF9014
:1015F0000C94763FCF92DF92EF92FF92CF93DF93DE
:10160000EC018E8D9F8D0E94263788A199A10E94A2
:10161000E82E81E08E838EA19FA10E94714A6B010A
:101620007C0140E050E060E070E48EA19FA10E9448
:101630007D4AC60ED71EE81EF91ECF82D886E986DF
:10164000FA8640E060E08C899D890E94473F66E20F
:1016500071E08C899D890E94763F40E061E08C8931
:101660009D890E94473F67E371E08C899D89DF91E6
:10167000CF91FF90EF90DF90CF900C94763F8F92B8
:101680009F92AF92BF92CF92DF92EF92FF920F9311
:101690001F93CF93DF93CDB7DEB72B970FB6F89498
:1016A000DEBF0FBECDBF8C017B01DC0198968D9112
:1016B0009C9199970E94313AF70162817381D80118
:1016C0005C968D919C915D970E94F7334B015C0174
:1016D000AB01BC01F80180A191A10E94A12B81E086
:1016E000D80116968C93169796968D919C91979704
:1016F0000E94714A6B017C0140E050E060E070E4C0
:10170000F80186A197A10E947D4AC60ED71EE81E49
:10171000F91ED8011796CD92DD92ED92FC921A97A0
:101720005C96ED91FC915D97C080D18054968D912F
:101730009C9155970E946B3FFC0196E0DE0111964B
:1017400001900D929A95E1F740E060E0F8018489FC
:1017500095890E94473F40E061E0D80154968D9101
:101760009C9155970E94473F7601EE0CFF1CEE0CB2
:10177000FF1CEE0CFF1CEC18FD08F701E059FF4FB1
:10178000C590D49082E00E94E0428B8781E00E9465
:10179000E0428A87F701EE58FF4F25913591459138
:1017A0005491C501B4010E944C554B015C01F701F5
:1017B000EA58FF4F84910E94E142898789E00E94A4
:1017C000E042888784E00E94E0428F8369E972E406
:1017D000F801848995890E944F42BE01695F7F4F5D
:1017E0000E94E24268E471E00E94763F6DEB72E491
:1017F0000E944F4261E572E40E944F4265E772E445
:101800000E944F42BE01685F7F4F0E94E242BE01CC
:10181000675F7F4F0E940743B501A4010E943541D5
:10182000BE01665F7F4F0E94E24266E072E00E9466
:10183000763F69E972E40E944F42BE01655F7F4FC7
:101840000E94E242B6010E94763FBE016F5F7F4F69
:10185000D80154968D919C9155970E946D3FF80147
:1018600080A591A50E94333A2B960FB6F894DEBF5F
:101870000FBECDBFDF91CF911F910F91FF90EF90E1
:10188000DF90CF90BF90AF909F908F9008950C9471
:1018900046560C94DB560F931F93CF93DF93CDB72F
:1018A000DEB7AB970FB6F894DEBF0FBECDBF8C018D
:1018B000FC01848995890E946B3FFC0196E0DE0162
:1018C000919601900D929A95E1F740E060E0F80161
:1018D000848995890E94473F66E871E0CE010196B0
:1018E0000E941559BC01F801848995890E94763FB0
:1018F00040E061E0F801848995890E94473F82E0D9
:101900000E94E0428FA381E00E94E04288A782E02B
:101910000E94E04289A781E00E94E0428AA782E01B
:101920000E94E0428BA76DE771E0CE0101960E9414
:101930001559BC01F801848995890E94763FBE0142
:10194000655D7F4F0E94E24265E772E40E944F426C
:1019500042E050E060E070E00E944040BE01665D01
:101960007F4F0E94E2426BE471E00E94763FBE012D
:10197000675D7F4F0E94E24265E772E40E944F423A
:1019800042E050E060E070E00E944040BE01685DCF
:101990007F4F0E94E2426BE471E00E94763FBE01FD
:1019A000695D7F4F0E94E24265E772E40E944F4208
:1019B00044E050E060E070E00E944040BE016F5D96
:1019C0007F4FF801848995890E946D3FAB960FB6D1
:1019D000F894DEBF0FBECDBFDF91CF911F910F9165
:1019E0000895CF92DF92EF92FF92CF93DF93EC01B5
:1019F0000E94203E8BE592E0998388831E821F829D
:101A0000188619861A861B861C861D861E861F86CA
:101A1000198A188A1B8A0E94623E9D8B8C8B0E94B9
:101A2000751E9F8B8E8B0E940E39998F888F0E9416
:101A3000F8199B8F8A8F0E942B339D8F8C8F8091FA
:101A4000FE02882309F462C08091F4029091F502AD
:101A50008E8F9F8F0E94062499A388A30E94353AF7
:101A60009BA38AA30E94C23B9DA38CA30E94474ACA
:101A70009FA38EA30E940E3A99A788A78E899F895B
:101A80000E948D1C88A599A50E94293A40E050E04B
:101A9000BA01888D998D0E94683960E070E08C8D64
:101AA0009D8D0E942E35AE0166EA78E088A199A14D
:101AB0000E94523ECE010E944B0C2FEF8FE19CE121
:101AC000215080409040E1F700C00000789481E010
:101AD0008E838EA19FA10E94714A6B017C0140E020
:101AE00050E060E070E48EA19FA10E947D4AC60E86
:101AF000D71EE81EF91ECF82D886E986FA86DF91C6
:101B0000CF91FF90EF90DF90CF90089581E390E028
:101B10000E9446567C010E947135E092F402F092D8
:101B2000F50281E08093FE02C70192CFCF93DF934D
:101B30008091F602882339F08091F2029091F302AD
:101B4000DF91CF9108958AE290E00E944656D82F07
:101B5000C92F0E94F10CD093F202C093F30281E0EE
:101B60008093F6028D2F9C2FDF91CF910895CF9215
:101B7000DF92EF92FF920F931F93CF93DF93CDB736
:101B8000DEB727970FB6F894DEBF0FBECDBF8C012E
:101B90006B017A0140E060E0FC01848995890E9434
:101BA000473FF801848995890E946B3FFC0196E0CC
:101BB000DE01119601900D929A95E1F784E00E9462
:101BC000E0428F836DEB72E4F801848995890E946D
:101BD0004F42BE01695F7F4F0E94E242B6010E9400
:101BE000763F84E00E94E0428F836DEB72E4F8015F
:101BF000848995890E944F42BE01695F7F4F0E9490
:101C0000E242B7010E94763FBE016F5F7F4FF8014D
:101C1000848995890E946D3F27960FB6F894DEBFA0
:101C20000FBECDBFDF91CF911F910F91FF90EF902D
:101C3000DF90CF900895EF92FF920F931F93CF9371
:101C4000DF93CDB7DEB762970FB6F894DEBF0FBE55
:101C5000CDBF8C01FB01628173816115710599F51E
:101C600040E050E0F80180A191A10E9486307C0103
:101C7000BC01F801808991890E94403D4AE0BE0183
:101C80006F5F7F4FC7010E944259AE014F5F5F4FA8
:101C90006FE671E0C8010E94B70DFFEF2FE388E304
:101CA000F15020408040E1F700C0000062960FB67E
:101CB000F894DEBF0FBECDBFDF91CF911F910F9182
:101CC000FF90EF900895FC0180899189698B7A8B50
:101CD0000E94D63CAC0169897A89C4CF0F931F93C7
:101CE000CF93DF93EC018FE090E00E9446568C0189
:101CF0000E94923C888999898017910759F0198B25
:101D0000088B009739F0DC01ED91FC910280F381A2
:101D1000E02D099581E08B8B88A199A10E94153156
:101D200040E851E061E971E0CE010E94B70DBFEFDC
:101D30002FE18CE1B15020408040E1F700C000006D
:101D4000DF91CF911F910F910895CF93DF93EC0115
:101D500042EA51E063EB71E00E94B70D2FEF8FE193
:101D60009CE1215080409040E1F700C000001B8AB8
:101D700088899989009749F0198A188ADC01ED91C0
:101D8000FC910280F381E02D099588A199A1DF9152
:101D9000CF910C9444310F931F93CF93DF93EC01B9
:101DA0008B85811115C047EF51E068E072E0CE01EC
:101DB0000E94B70D2FEF8FE398E3215080409040B1
:101DC000E1F700C00000DF91CF911F910F910895BE
:101DD0008EA19FA10E94714A0C851D852E853F858D
:101DE000601771078207930758F48B858823D9F20F
:101DF0008B898823C1F044EC51E065ED71E0D7CFC9
:101E00001B864DE451E06EE571E0CE010E94B70DF6
:101E10002FEF8FE398E3215080409040E1F700C01E
:101E200000008B85E3CF46EE51E065ED71E0CE0119
:101E3000DF91CF911F910F910C94B70D2FEF8FE38E
:101E400098E3215080409040E1F700C000000E94DC
:101E5000960D0E94D33D80E090E008952F923F922E
:101E60004F925F926F927F928F929F92AF92BF92AA
:101E7000CF92DF92EF92FF920F931F93CF93DF9356
:101E80008C01EB01FC01E080F1806E157F050CF008
:101E900065C082809380A480B580A501940160858F
:101EA0007185828593850E9427532B013C01F8019F
:101EB000668177816E197F09072E000C880B990BBC
:101EC0000E9449549B01AC01C301B2010E94995385
:101ED0002B013C01CE19DF09BE01DD0F880B990BE8
:101EE0000E9449549B01AC01C301B2010E944C55B0
:101EF0009B01AC01C501B4010E9428538B01D82F6E
:101F0000C92F2CE53FE842E85FE3C501B4010E9418
:101F10004C556B017C019B01AC01B8018D2F9C2FAE
:101F20000E94945387FDEDC0502F412F9E01652FD5
:101F3000742F832F922FDF91CF911F910F91FF90DC
:101F4000EF90DF90CF90BF90AF909F908F907F9059
:101F50006F905F904F903F902F900895FC01208CE0
:101F6000318C261637060CF47EC0A4E0B0E00DC01C
:101F70004C175D070CF0CAC09C01CB01BF2DAC0112
:101F8000421B530B42305105FCF02B2F30E06A2FDF
:101F900070E0C901860F971F95958795F82EFC0173
:101FA000EE0FFF1FE80FF91FEE0FFF1FE00FF11FED
:101FB00040815181C417D507DCF6A82FAC01421B24
:101FC000530B423051050CF7F901EE0FFF1FE20FE2
:101FD000F31FEE0FFF1FE00FF11F82809380A4809C
:101FE000B580E080F1809C01220F331F820F931F88
:101FF000880F991F080F191FA5019401F80162812C
:102000007381848195810E9427532B013C01F80143
:10201000608171816E197F09072E000C880B990B66
:102020000E9449549B01AC01C301B2010E94995323
:102030002B013C01CE19DF09BE01DD0F880B990B86
:102040000E9449549B01AC01C301B2010E944C554E
:102050009B01AC01C501B4010E942853562F472FA4
:10206000382F292F64CFC28CD38CE48CF58C8488D4
:102070009588A688B78802891389A5019401C701AC
:10208000B6010E9427532B013C01B101601B710B6B
:10209000072E000C880B990B0E9449549B01AC0140
:1020A000C301B2010E9499532B013C01C01BD10B0B
:1020B000BE01DD0F880B990B0E9449549B01AC01B6
:1020C000C301B2010E944C559B01AC01C501B40192
:1020D0000E9428538B01D82FC92F2CE53FE842E8F6
:1020E0005FE3C701B6010E944C556B017C019B0167
:1020F000AC01B8018D2F9C2F0E94475518160CF08B
:1021000013CF5C2D4D2D3E2D2F2D11CF52814381AC
:10211000348125810CCF2F923F924F925F926F9224
:102120007F928F929F92AF92BF92CF92DF92EF9267
:10213000FF920F931F93CF93DF93CDB7DEB728970E
:102140000FB6F894DEBF0FBECDBF8C016A017B01D4
:10215000FC0182809380A480B5809A01AB01C50107
:10216000B4010E944755F80118160CF079C0608040
:102170007180B301072C000C880B990B0E94495405
:1021800069837A838B839C83F801668177816619E2
:102190007709072E000C880B990B0E9449542B01DC
:1021A0003C01A5019401F8016085718582859385C4
:1021B0000E9427539B01AC01C301B2010E949953B5
:1021C0002B013C01A5019401C701B6010E942753D0
:1021D0009B01AC01C301B2010E944C5529813A8197
:1021E0004B815C810E9428538B015C012CE53FE808
:1021F00042E85FE369817A818B819C810E944C5522
:102200006B017C019B01AC01B801C5010E94945394
:1022100087FD23C1502F412F3A2D2B2D652F742F71
:10222000832F922F0E94B9550E940B54CB01289600
:102230000FB6F894DEBF0FBECDBFDF91CF911F91D7
:102240000F91FF90EF90DF90CF90BF90AF909F9055
:102250008F907F906F905F904F903F902F90089558
:10226000828C938CA48CB58CA7019601C501B40116
:102270000E94945387FD94C0F4E0F9831D8211C03D
:10228000A7019601C301B2010E94945387FFEAC0DF
:1022900045015101FE81FD83C50188199909029705
:1022A00054F12D81822E912C3981232E312C540111
:1022B000A20CB31CB594A794AE82C501880F991FD8
:1022C0008A0D9B1D880F991FFC01E00FF11FF887F5
:1022D000EF834280538064807580A7019601C3011B
:1022E000B2010E94475518165CF6A982C5018819EB
:1022F00099090297B4F6F401EE0FFF1FE80DF91DDE
:10230000EE0FFF1FE00FF11F2080318042805380CD
:1023100064807580C501880F991F8A0D9B1D880FE9
:10232000991F080F191FF8016081718162197309E3
:10233000072E000C880B990B0E9449544B015C013D
:10234000A3019201F80162817381848195810E94C9
:1023500027539B01AC01C501B4010E9499534B0165
:102360005C01A3019201C701B6010E9427539B01A2
:10237000AC01C501B4010E944C556B017C01B10157
:10238000330C880B990B0E9449549B01AC01C70187
:10239000B6010E942853562F472F382F292F3ECFA2
:1023A000F801208C318C2289338938872F83448827
:1023B000558866887788B101621B730B072E000C65
:1023C000880B990B0E94495469837A838B839C8381
:1023D000A3019201C501B4010E9427539B01AC01E6
:1023E00069817A818B819C810E9499534B015C01A8
:1023F000A3019201C701B6010E9427539B01AC01C2
:10240000C501B4010E944C556B017C01EF81F88538
:10241000BF01FF0F880B990B0E9449549B01AC012F
:10242000C701B6010E9428538B015C01B101330C36
:10243000880B990B0E9449542CE53FE842E85FE382
:102440000E944C556B017C019B01AC01B801C50198
:102450000E94475518160CF0DDCE5C2D4D2D3E2DFB
:102460002F2DDCCEEF81F88560817181072E000C65
:10247000880B990B0E944954562F472F382F292F2C
:10248000CDCE2F923F924F925F926F927F928F921A
:102490009F92AF92BF92CF92DF92EF92FF920F93F3
:1024A0001F93CF93DF938C01EB01FC01E080F1805F
:1024B0006E157F050CF065C082809380A480B58086
:1024C000A501940160857185828593850E942753BB
:1024D0002B013C01F801668177816E197F09072E77
:1024E000000C880B990B0E9449549B01AC01C3015D
:1024F000B2010E9499532B013C01CE19DF09BE01A4
:10250000DD0F880B990B0E9449549B01AC01C3015C
:10251000B2010E944C559B01AC01C501B4010E945F
:1025200028538B01D82FC92F2CE53FE842E85FE301
:10253000C501B4010E944C556B017C019B01AC01AB
:10254000B8018D2F9C2F0E94945387FDEDC0502F12
:10255000412F9E01652F742F832F922FDF91CF91F2
:102560001F910F91FF90EF90DF90CF90BF90AF90B1
:102570009F908F907F906F905F904F903F902F90A3
:102580000895FC01208C318C261637060CF47EC091
:10259000A4E0B0E00DC04C175D070CF0CAC09C0170
:1025A000CB01BF2DAC01421B530B42305105FCF057
:1025B0002B2F30E06A2F70E0C901860F971F959589
:1025C0008795F82EFC01EE0FFF1FE80FF91FEE0FA5
:1025D000FF1FE00FF11F40815181C417D507DCF6C2
:1025E000A82FAC01421B530B423051050CF7F901E7
:1025F000EE0FFF1FE20FF31FEE0FFF1FE00FF11FA3
:1026000082809380A480B580E080F1809C01220FBD
:10261000331F820F931F880F991F080F191FA501E1
:102620009401F80162817381848195810E9427530E
:102630002B013C01F801608171816E197F09072E21
:10264000000C880B990B0E9449549B01AC01C301FB
:10265000B2010E9499532B013C01CE19DF09BE0142
:10266000DD0F880B990B0E9449549B01AC01C301FB
:10267000B2010E944C559B01AC01C501B4010E94FE
:102680002853562F472F382F292F64CFC28CD38C35
:10269000E48CF58C84889588A688B788028913898C
:1026A000A5019401C701B6010E9427532B013C01EB
:1026B000B101601B710B072E000C880B990B0E9457
:1026C00049549B01AC01C301B2010E9499532B01F3
:1026D0003C01C01BD10BBE01DD0F880B990B0E9482
:1026E00049549B01AC01C301B2010E944C559B01AE
:1026F000AC01C501B4010E9428538B01D82FC92F0A
:102700002CE53FE842E85FE3C701B6010E944C5563
:102710006B017C019B01AC01B8018D2F9C2F0E94A5
:10272000475518160CF013CF5C2D4D2D3E2D2F2D37
:1027300011CF52814381348125810CCF2F923F925A
:102740004F925F926F927F928F929F92AF92BF92C1
:10275000CF92DF92EF92FF920F931F93CF93DF936D
:10276000CDB7DEB728970FB6F894DEBF0FBECDBF4A
:102770008C016A017B01FC0182809380A480B5807A
:102780009A01AB01C501B4010E944755F801181622
:102790000CF079C060807180B301072C000C880BAD
:1027A000990B0E94495469837A838B839C83F80137
:1027B0006681778166197709072E000C880B990BC3
:1027C0000E9449542B013C01A5019401F801608548
:1027D0007185828593850E9427539B01AC01C301BB
:1027E000B2010E9499532B013C01A5019401C7013C
:1027F000B6010E9427539B01AC01C301B2010E94A4
:102800004C5529813A814B815C810E9428538B0170
:102810005C012CE53FE842E85FE369817A818B81C6
:102820009C810E944C556B017C019B01AC01B8015D
:10283000C5010E94945387FD23C1502F412F3A2D8B
:102840002B2D652F742F832F922F0E94B9550E9434
:102850000B54CB0128960FB6F894DEBF0FBECDBF48
:10286000DF91CF911F910F91FF90EF90DF90CF906C
:10287000BF90AF909F908F907F906F905F904F90A0
:102880003F902F900895828C938CA48CB58CA701D7
:102890009601C501B4010E94945387FD94C0F4E0F1
:1028A000F9831D8211C0A7019601C301B2010E94E4
:1028B000945387FFEAC045015101FE81FD83C501A4
:1028C00088199909029754F12D81822E912C398112
:1028D000232E312C5401A20CB31CB594A794AE82C4
:1028E000C501880F991F8A0D9B1D880F991FFC0138
:1028F000E00FF11FF887EF8342805380648075807A
:10290000A7019601C301B2010E94475518165CF653
:10291000A982C501881999090297B4F6F401EE0F4E
:10292000FF1FE80DF91DEE0FFF1FE00FF11F2080C4
:1029300031804280538064807580C501880F991F63
:102940008A0D9B1D880F991F080F191FF8016081C0
:10295000718162197309072E000C880B990B0E9474
:1029600049544B015C01A3019201F801628173811A
:10297000848195810E9427539B01AC01C501B4015C
:102980000E9499534B015C01A3019201C701B6015A
:102990000E9427539B01AC01C501B4010E944C5514
:1029A0006B017C01B101330C880B990B0E944954D7
:1029B0009B01AC01C701B6010E942853562F472F37
:1029C000382F292F3ECFF801208C318C2289338972
:1029D00038872F834488558866887788B101621BC1
:1029E000730B072E000C880B990B0E9449546983C6
:1029F0007A838B839C83A3019201C501B4010E9459
:102A000027539B01AC0169817A818B819C810E9453
:102A100099534B015C01A3019201C701B6010E94C9
:102A200027539B01AC01C501B4010E944C556B01B9
:102A30007C01EF81F885BF01FF0F880B990B0E9485
:102A400049549B01AC01C701B6010E9428538B0178
:102A50005C01B101330C880B990B0E9449542CE5A1
:102A60003FE842E85FE30E944C556B017C019B010B
:102A7000AC01B801C5010E94475518160CF0DDCE17
:102A80005C2D4D2D3E2D2F2DDCCEEF81F885608104
:102A90007181072E000C880B990B0E944954562F08
:102AA000472F382F292FCDCE2F923F924F925F92F2
:102AB0006F927F928F929F92AF92BF92CF92DF924E
:102AC000EF92FF921F93CF93DF93CDB7DEB72C9792
:102AD0000FB6F894DEBF0FBECDBF1C016A017B01AB
:102AE000DC018D909D90AD90BC90139748155905D1
:102AF0006A057B050CF07DC014962D913D914D919A
:102B00005C91179729833A834B835C831C966D9164
:102B10007D918D919C911F970E9427532B013C0121
:102B2000F10180859185A285B385BC01CD0168192D
:102B300079098A099B090E9449549B01AC01C30190
:102B4000B2010E9499532B013C01C701B6016819DB
:102B500079098A099B090E9449549B01AC01C30170
:102B6000B2010E944C559B01AC0169817A818B8135
:102B70009C810E942853F62E172F982EA92E2CE503
:102B80003FE842E85FE369817A818B819C810E9402
:102B90004C55B62EC72ED82EE92E262F372F482F6C
:102BA000592F6F2D712F892D9A2D0E94945387FDD7
:102BB00037C15F2D412F392D2A2D652F742F832F7B
:102BC000922F2C960FB6F894DEBF0FBECDBFDF91CB
:102BD000CF911F91FF90EF90DF90CF90BF90AF907B
:102BE0009F908F907F906F905F904F903F902F902D
:102BF0000895DC0190964D905D906D907C90939738
:102C000044165506660677060CF495C014E0B12C00
:102C10000FC04C155D056E057F050CF006C19C01CB
:102C2000CD01BA2CAC01421B530B423051051CF1B3
:102C30002B2D30E0A12FB0E0C9018A0F9B1F959585
:102C40008795A82EFC01EE0FFF1FEE0FFF1FEE0F62
:102C5000FF1FE20DF31D4081518162817381C41613
:102C6000D506E606F706ACF6182FAC01421B530B4F
:102C700042305105ECF6220F331F220F331F220F73
:102C8000331FF101E20FF31F84809580A680B78087
:102C9000208131814281538129833A834B835C8334
:102CA000880F991F880F991F880F991F280E391EAA
:102CB000A5019401D10114966D917D918D919C9106
:102CC00017970E9427532B013C01F10180819181CC
:102CD000A281B381BC01CD0129813A814B815C8104
:102CE000621B730B840B950B0E9449549B01AC0132
:102CF000C301B2010E9499532B013C01C701B601E7
:102D000029813A814B815C81621B730B840B950B8B
:102D10000E9449549B01AC01C301B2010E944C5571
:102D20009B01AC01C501B4010E942853562F472FC7
:102D3000382F292F42CF94968D909D90AD90BC90C6
:102D400097975C962D913D914D915C915F9729836A
:102D50003A834B835C8358962D913D914D915C91C4
:102D60005B972D833E834F83588729813A814B811E
:102D70005C81C501B4010E94275369877A878B87DC
:102D80009C87C301B2012D813E814F815885621B12
:102D9000730B840B950B0E9449549B01AC01698510
:102DA0007A858B859C850E9499532B013C01C70134
:102DB000B6012D813E814F815885621B730B840BB8
:102DC000950B0E9449549B01AC01C301B2010E94C2
:102DD0004C559B01AC0169817A818B819C810E9459
:102DE0002853F62E172F3C012CE53FE842E85FE31D
:102DF000C501B4010E944C55B62EC72ED82EE92E1F
:102E0000262F372F482F592F6F2D712FC3010E9466
:102E1000475518162CF05F2D412F362D272DCDCE7E
:102E20005B2D4C2D3D2D2E2DC8CE548145813681F4
:102E30002781C3CE2F923F924F925F926F927F92E3
:102E40008F929F92AF92BF92CF92DF92EF92FF92BA
:102E50001F93CF93DF93CDB7DEB72C970FB6F894BF
:102E6000DEBF0FBECDBF1C016A017B01DC018D906E
:102E70009D90AD90BC901397481559056A057B0548
:102E80000CF07DC014962D913D914D915C9117975A
:102E900029833A834B835C831C966D917D918D9140
:102EA0009C911F970E9427532B013C01F1018085C3
:102EB0009185A285B385BC01CD01681979098A097C
:102EC0009B090E9449549B01AC01C301B2010E94BD
:102ED00099532B013C01C701B601681979098A0988
:102EE0009B090E9449549B01AC01C301B2010E949D
:102EF0004C559B01AC0169817A818B819C810E9438
:102F00002853F62E172F982EA92E2CE53FE842E8DD
:102F10005FE369817A818B819C810E944C55B62E3A
:102F2000C72ED82EE92E262F372F482F592F6F2D39
:102F3000712F892D9A2D0E94945387FD37C15F2DE3
:102F4000412F392D2A2D652F742F832F922F2C96E8
:102F50000FB6F894DEBF0FBECDBFDF91CF911F91AA
:102F6000FF90EF90DF90CF90BF90AF909F908F90A9
:102F70007F906F905F904F903F902F900895DC016D
:102F800090964D905D906D907C9093974416550669
:102F9000660677060CF495C014E0B12C0FC04C15F2
:102FA0005D056E057F050CF006C19C01CD01BA2CB4
:102FB000AC01421B530B423051051CF12B2D30E06C
:102FC000A12FB0E0C9018A0F9B1F95958795A82E68
:102FD000FC01EE0FFF1FEE0FFF1FEE0FFF1FE20DB4
:102FE000F31D4081518162817381C416D506E606C6
:102FF000F706ACF6182FAC01421B530B42305105BB
:10300000ECF6220F331F220F331F220F331FF10163
:10301000E20FF31F84809580A680B78020813181E4
:103020004281538129833A834B835C83880F991FA4
:10303000880F991F880F991F280E391EA50194012A
:10304000D10114966D917D918D919C9117970E945D
:1030500027532B013C01F10180819181A281B38131
:10306000BC01CD0129813A814B815C81621B730BCC
:10307000840B950B0E9449549B01AC01C301B20122
:103080000E9499532B013C01C701B60129813A8165
:103090004B815C81621B730B840B950B0E9449541E
:1030A0009B01AC01C301B2010E944C559B01AC01D4
:1030B000C501B4010E942853562F472F382F292FBE
:1030C00042CF94968D909D90AD90BC9097975C96D2
:1030D0002D913D914D915C915F9729833A834B836C
:1030E0005C8358962D913D914D915C915B972D831A
:1030F0003E834F83588729813A814B815C81C5018A
:10310000B4010E94275369877A878B879C87C30104
:10311000B2012D813E814F815885621B730B840B58
:10312000950B0E9449549B01AC0169857A858B857A
:103130009C850E9499532B013C01C701B6012D814A
:103140003E814F815885621B730B840B950B0E9447
:1031500049549B01AC01C301B2010E944C559B0133
:10316000AC0169817A818B819C810E942853F62E63
:10317000172F3C012CE53FE842E85FE3C501B401AD
:103180000E944C55B62EC72ED82EE92E262F372F4B
:10319000482F592F6F2D712FC3010E9447551816C4
:1031A0002CF05F2D412F362D272DCDCE5B2D4C2DB4
:1031B0003D2D2E2DC8CE5481458136812781C3CE29
:1031C0000895549A559808955C9808955C9A0895C6
:1031D0000895089589B185FB882780F991E08927B2
:1031E00008958530910540F4FC01EE0FFF1FE05576
:1031F000FE4F859194910895E0EBF1E085919491D3
:1032000008954F925F926F927F928F929F92AF92AA
:10321000BF92CF92DF92EF92FF920F931F93CF93C3
:10322000DF93EC016C0182E0C80ED11C1A821B8274
:103230001C821D821E821F82188619861A861B8692
:103240001C861D861E861F86188A198A1A8A1B8A62
:103250001C8A1D8A1E8A1F8A188E198E1A8E1B8E32
:103260001C8E1D8E1E8E1F8E18A219A21AA21BA2C2
:103270001CA21DA21EA21FA218A619A68E01065DE1
:103280001F4F60E0C8010E9465457E018DE2E80E97
:10329000F11CC7010E94CF4685E692E09EA78DA74C
:1032A000C7010E94EE4660E170E0CE01C2960E9426
:1032B000654E0E94B8319FAF8EAFC8010E94F445A1
:1032C000682F607FC8010E941C46C8010E94B24559
:1032D000682F607FC8010E94DA4582E090E0998300
:1032E00088830E949331A601BC018EAD9FAD0E94E0
:1032F0006049889709F460C0EFE9F1E08590959006
:10330000A590B490C501B401905823E3422E542CEB
:1033100023EF622E77247A944A825B826C827D82CC
:103320006E837F838887998731EE432E3AE7532E49
:1033300034EF632E77247A944A865B866C867D868A
:1033400026E636E646E65FE30E944C556E877F87A9
:10335000888B998B1A8A1B8A1C8A1D8A1E8A1F8A4F
:10336000188E198E8FE195E8ABE0B0E08A8F9B8FC5
:10337000AC8FBD8F26E636E646E65FE3C501B401B5
:103380000E944C556E8F7F8F88A399A38DEC9CEC87
:10339000ACE0B0E08AA39BA3ACA3BDA38EA29FA286
:1033A000A8A6B9A6888199810E949331A601BC0183
:1033B0008EAD9FAD0E94C749C8010E948A45EDEAC3
:1033C000F1E09491682F607F692BC801DF91CF9164
:1033D0001F910F91FF90EF90DF90CF90BF90AF9033
:1033E0009F908F907F906F905F904F900C9470455E
:1033F000CF93DF9380910803882339F080910603EF
:1034000090910703DF91CF91089580E490E00E94AE
:10341000470CD82FC92F0E940119D0930603C093DF
:10342000070381E0809308038D2F9C2FDF91CF91BC
:1034300008954F925F926F927F928F929F92AF9278
:10344000BF92EF92FF920F931F93CF93DF93EC0104
:103450008B01FC01619371937F01CB010E94933139
:10346000A701BC018EAD9FAD0E946049889709F409
:1034700065C0F801EE0FFF1FEE0FFF1FE956FE4F6C
:1034800085909590A590B490C501B401905823E320
:10349000422E542C23EF622E77247A944A825B8248
:1034A0006C827D826E837F838887998731EE432E7D
:1034B0003AE7532E34EF632E77247A944A865B865C
:1034C0006C867D8626E636E646E65FE30E944C552E
:1034D0006E877F87888B998B1A8A1B8A1C8A1D8A24
:1034E0001E8A1F8A188E198E8FE195E8ABE0B0E036
:1034F0008A8F9B8FAC8FBD8F26E636E646E65FE36C
:10350000C501B4010E944C556E8F7F8F88A399A38B
:103510008DEC9CECACE0B0E08AA39BA3ACA3BDA374
:103520008EA29FA2A8A6B9A6888199810E949331F4
:10353000A701BC018EAD9FAD0E94C749AA96CE01DE
:103540000E948A45F801E555FE4F0491682F607F7F
:10355000602BCE01DF91CF911F910F91FF90EF90E3
:10356000BF90AF909F908F907F906F905F904F90A3
:103570000C947045AF92BF92CF92DF92EF92FF9280
:103580000F931F93CF93DF93CDB7DEB727970FB677
:10359000F894DEBF0FBECDBF7C01613081E07807BB
:1035A00010F060E071E0CE0101960E94E74E2B81A1
:1035B0003C818D819E812817390709F44DC0870110
:1035C000035D1F4F18C060E0C8010E949C475B016B
:1035D0006C0144275527BA014A195B096C097D091A
:1035E000CE0101960E94014F2B813C818D819E81ED
:1035F0002817390789F10E94C23BFC0140815181A3
:10360000052E000C660B770BDA019927882742817B
:103610005381052E000C660B770B762F652F542FE8
:103620004427482B592B6A2B7B2B84819581092EAB
:10363000000CAA0BBB0B482B592B6A2B7B2B41157B
:1036400051056340710508F0BECF60E0C8010E94DB
:103650009C47AB01BC01C4CFCE0101960E94234F11
:103660000E94B9550E940B54AB01BC01C7010296E0
:103670000E9454156B017C01CE0101960E94FC4E04
:10368000C701B60127960FB6F894DEBF0FBECDBFB7
:10369000DF91CF911F910F91FF90EF90DF90CF902E
:1036A000BF90AF900895CF92DF92EF92FF920F9369
:1036B0001F93CF93DF93EC01E881F981EE0FFF1F99
:1036C000EE0FFF1FE956FE4FC590D590E590F490A0
:1036D000C701B601905803E313E323EF3FEF0A83DA
:1036E0001B832C833D836E837F838887998701EEBC
:1036F0001AE724EF3FEF0A871B872C873D8726E6D2
:1037000036E646E65FE30E944C556E877F87888BDE
:10371000998B1A8A1B8A1C8A1D8A1E8A1F8A188EF8
:10372000198E8FE195E8ABE0B0E08A8F9B8FAC8F6C
:10373000BD8F26E636E646E65FE3C701B6010E9486
:103740004C556E8F7F8F88A399A38DEC9CECACE0D9
:10375000B0E08AA39BA3ACA3BDA3CEA2DFA2E8A640
:10376000F9A6DF91CF911F910F91FF90EF90DF901D
:10377000CF9008954F925F926F927F928F929F9217
:10378000AF92BF92CF92DF92EF92FF920F931F936F
:10379000CF93DF93CDB7DEB72C970FB6F894DEBF8B
:1037A0000FBECDBF6C017B0149015A0160E870E09A
:1037B000CE0101960E94654E8B859C85892B09F46C
:1037C00050C08601035D1F4F15C060E0C8010E9414
:1037D0009C472B013C0144275527BA014419550940
:1037E00066097709CE0101960E94814E8B859C85E2
:1037F000892BB9F10E94C23BFC0140815181052E09
:10380000000C660B770BDA019927882742815381D8
:10381000052E000C660B770B762F652F542F44274F
:10382000482B592B6A2B7B2B84819581092E000C08
:10383000AA0BBB0B482B592B6A2B7B2B411551052F
:103840006340710510F660E0C8010E949C47AB011F
:10385000BC01CE0101960E94814E8B859C85892BEF
:1038600049F6CE0101960E94BC4E0E94B955FF2434
:10387000EE0CFF1CEE0CFF1CEE0CFF1CCE0CDF1C34
:103880000E940B54F601628373838483958386823E
:103890009782A086B1862C960FB6F894DEBF0FBE35
:1038A000CDBFDF91CF911F910F91FF90EF90DF90EF
:1038B000CF90BF90AF909F908F907F906F905F90D0
:1038C0004F9008950F931F93CF93DF938C01EC01DA
:1038D000899199910E949331AE01BC01F80186ADA6
:1038E00097ADDF91CF911F910F910C94C7495F98CD
:1038F00008955F9A0895579A08958530910540F488
:10390000FC01EE0FFF1FED52FE4F8591949108953B
:10391000E3EDF1E08591949108958F929F92AF929B
:10392000BF92CF92DF92EF92FF920F931F93CF93AC
:10393000DF93EC0181E08EA77E0184E2E80EF11CAA
:10394000C7010E948A45682F6F7EC7010E9470459B
:103950000C811D816E0186E0C80ED11CC8010E9439
:103960007331A601BC018FA598A90E9460494E97AA
:1039700009F44CC0F801EE0FFF1FEE0FFF1FE654D5
:10398000FE4F85909590A590B490C501B4019058D4
:103990002BEB33EF3F832E83688779878A879B875A
:1039A00025EF34EF3D872C8726E636E646E65FE3D3
:1039B0000E944C556E877F87888B998B1B8A1A8A49
:1039C0001C8A1D8A1E8A1F8A8BE09BE0998F888F34
:1039D00026E636E646E65FE3C501B4010E944C5593
:1039E0006A8F7B8F8C8F9D8F85E49CE09F8F8E8F5D
:1039F00088A299A2AAA2BBA28C819D810E94733148
:103A0000A601BC018FA598A90E94C749C7010E94C1
:103A10008A45F801E253FE4F0491682F607F602BC6
:103A2000C7010E9470458EA581110DC0DF91CF9115
:103A30001F910F91FF90EF90DF90CF90BF90AF90CC
:103A40009F908F900895488159816A817B81C6013A
:103A50000E948B108C01BC01C6010E942E0F68834E
:103A600079838A839B83B8017058CE018796DF9152
:103A7000CF911F910F91FF90EF90DF90CF90BF906B
:103A8000AF909F908F900C947E46FC0116A60895EF
:103A90008F929F92AF92BF92CF92DF92EF92FF925E
:103AA0000F931F93CF93DF93EC018B017D836C8386
:103AB0007C0186E0E80EF11CCB010E947331A70166
:103AC000BC018FA598A90E9460494E9709F44CC08B
:103AD000F801EE0FFF1FEE0FFF1FE654FE4F85901B
:103AE0009590A590B490C501B40190582BEB33EF9D
:103AF0003F832E83688779878A879B8725EF34EFFA
:103B00003D872C8726E636E646E65FE30E944C5565
:103B10006E877F87888B998B1B8A1A8A1C8A1D8ADD
:103B20001E8A1F8A8BE09BE0998F888F26E636E6F7
:103B300046E65FE3C501B4010E944C556A8F7B8F56
:103B40008C8F9D8F85E49CE09F8F8E8F88A299A299
:103B5000AAA2BBA28C819D810E947331A701BC01E6
:103B60008FA598A90E94C7496E0184E2C80ED11C96
:103B7000C6010E948A45F801E253FE4F0491682F66
:103B8000607F602BC6010E9470458EA581110DC01B
:103B9000DF91CF911F910F91FF90EF90DF90CF9029
:103BA000BF90AF909F908F900895488159816A810E
:103BB0007B81C7010E948B108C01BC01C7010E9450
:103BC0002E0F688379838A839B83B8017058CE0156
:103BD0008796DF91CF911F910F91FF90EF90DF902B
:103BE000CF90BF90AF909F908F900C947E46CF92D5
:103BF000DF92EF92FF920F931F93CF93DF93EC012D
:103C0000188219821A821B8282E090E09D838C8345
:103C10006E0186E0C80ED11C1F821E82188619868E
:103C20001A861B861D861C861E861F86188A198A80
:103C30001B8A1A8A1C8A1D8A1E8A1F8A198E188E50
:103C40001A8E1B8E1C8E1D8E1F8E1E8E18A219A200
:103C50001AA21BA28E010C5D1F4F60E0C8010E94DA
:103C600065457E0187E2E80EF11CC7010E943946D6
:103C700087E792E098A78FA3C7010E9456461EA629
:103C80000E94B83198AB8FA7C8010E94F445682FF5
:103C9000607CC8010E941C46C8010E94B245682F82
:103CA000607CC8010E94DA4562E070E0CE010E94AB
:103CB000481D40E050E0BA01C6010E948B108C0103
:103CC000BC01C6010E942E0F688379838A839B837F
:103CD000B8017058C701DF91CF911F910F91FF90EC
:103CE000EF90DF90CF900C947E46CF93DF9380913E
:103CF0001203882339F08091100390911103DF9112
:103D0000CF91089581E390E00E94470CD82FC92FEE
:103D10000E94F71DD0931003C093110381E080939C
:103D200012038D2F9C2FDF91CF910895EF92FF9278
:103D30000F931F93CF93DF938C017C0186E0E80EF5
:103D4000F11CC7010E948B10EC01BC01C7010E944D
:103D50002E0FF8016083718382839383BE017058B4
:103D6000C8018796DF91CF911F910F91FF90EF903F
:103D70000C947E46CF92DF92EF92FF92CF93DF9327
:103D8000EC01EC81FD81EE0FFF1FEE0FFF1FE654EB
:103D9000FE4FC590D590E590F490C701B6019058BC
:103DA0002BEB33EF3F832E83688779878A879B8746
:103DB00025EF34EF3D872C8726E636E646E65FE3BF
:103DC0000E944C556E877F87888B998B1B8A1A8A35
:103DD0001C8A1D8A1E8A1F8A8BE09BE0998F888F20
:103DE00026E636E646E65FE3C701B6010E944C557B
:103DF0006A8F7B8F8C8F9D8F85E49CE09F8F8E8F49
:103E0000C8A2D9A2EAA2FBA2DF91CF91FF90EF90C6
:103E1000DF90CF9008957727FB01EE0FFF1FE60F8D
:103E2000F71FEE0FFF1FE80FF91F668177817058AB
:103E300087960C947E467727FB01EE0FFF1F6E0FCF
:103E40007F1F660F771F860F971FFC012087318722
:103E5000428753870895CF93DF93EC018C819D8136
:103E60000E947331AE014A5F5F4FBC018FA598A9D4
:103E7000DF91CF910C94C749089521E030E0FC0117
:103E800034AF23AFBC01655C7F4F0C94583E21E8F2
:103E900032E0FC01318320830C94713DCF93DF939A
:103EA000EC0181E892E099838883CE010E94713D04
:103EB000CE01DF91CF910C94490C4430510508F4A8
:103EC000089528E030E0FC0134AF23AFBC01655C0D
:103ED0007F4F0C94583E4430510508F408952EE06D
:103EE00030E0FC0134AF23AFBC01655C7F4F0C9424
:103EF000583E4430510508F4089523E130E0FC01B8
:103F000034AF23AFBC01655C7F4F0C94583E443006
:103F1000510508F4089528E130E0FC0134AF23AFE7
:103F2000BC01655C7F4F0C94583E4430510508F449
:103F300008952AE130E0FC0134AF23AFBC01655C99
:103F40007F4F0C94583E4430510508F408952BE1FE
:103F500030E0FC0134AF23AFBC01655C7F4F0C94B3
:103F6000583E4430510508F408952CE130E0FC013E
:103F700034AF23AFBC01655C7F4F0C94583E443096
:103F8000510508F408952DE130E0FC0134AF23AF72
:103F9000BC01655C7F4F0C94583E4430510508F4D9
:103FA000089521E230E0FC0134AF23AFBC01655C31
:103FB0007F4F0C94583E4430510508F4089522E296
:103FC00030E0FC0134AF23AFBC01655C7F4F0C9443
:103FD000583E4430510508F4089526E230E0FC01D3
:103FE00034AF23AFBC01655C7F4F0C94583E443026
:103FF000510508F4089528E230E0FC0134AF23AF06
:10400000BC01655C7F4F0C94583E4430510508F468
:1040100008952AE230E0FC0134AF23AFBC01655CB7
:104020007F4F0C94583E4430510508F408952CE21B
:1040300030E0FC0134AF23AFBC01655C7F4F0C94D2
:10404000583E4430510508F408952EE230E0FC015A
:1040500034AF23AFBC01655C7F4F0C94583E4430B5
:10406000510508F408952FE230E0FC0134AF23AF8E
:10407000BC01655C7F4F0C94583E0F931F93FB016E
:10408000A081B1812B2F3A2F2033310540F5EB2F42
:10409000FA2FEE0FFF1FEE0FFF1FE352FE4F0591A9
:1040A000159125913491F80120FF12C0F901F59581
:1040B000E795DC01AE0FBF1FED91FC911197E00F6A
:1040C000F11F0190F081E02DCD011F910F91099416
:1040D00035952795820F931F1F910F9109941F917A
:1040E0000F9108954830510508F40895DB011596A5
:1040F000EC9115971496FC91E230F10580F0E7EC15
:10410000F2E02591349143E050E0FC0154AF43AF1D
:1041100036AF25AFBC01655C7F4F0C94583EEE0F67
:10412000FF1FE953FD4FEDCF4830510508F40895C6
:10413000DB011596EC9115971496FC91E530F1058D
:1041400090F4EE0FFF1FE354FD4F2591349144E0AE
:1041500050E0FC0154AF43AF36AF25AFBC01655C06
:104160007F4F0C94583EEDEBF2E0EFCF4830510515
:1041700078F0FB012481358145E050E0FC0154AF2B
:1041800043AF35AF26AFBC01655C7F4F0C94583E02
:1041900008954830510578F0FB012481358146E0CF
:1041A00050E0FC0154AF43AF35AF26AFBC01655CB6
:1041B0007F4F0C94583E08954830510508F40895F7
:1041C000DB011596EC9115971496FC91E230F10500
:1041D00080F0E9EBF2E0259134914AE050E0FC01F7
:1041E00054AF43AF36AF25AFBC01655C7F4F0C9435
:1041F000583EEE0FFF1FE754FD4FEDCF48305105FD
:1042000078F0FB01248135814BE050E0FC0154AF94
:1042100043AF35AF26AFBC01655C7F4F0C94583E71
:1042200008954830510578F0FB01248135814CE038
:1042300050E0FC0154AF43AF35AF26AFBC01655C25
:104240007F4F0C94583E08954830510508F4089566
:10425000DB011596EC9115971496FC91E530F1056C
:1042600090F4EE0FFF1FE155FD4F2591349140E191
:1042700050E0FC0154AF43AF36AF25AFBC01655CE5
:104280007F4F0C94583EEFEAF2E0EFCF48305105F3
:1042900078F0FB012481358141E150E0FC0154AF0D
:1042A00043AF35AF26AFBC01655C7F4F0C94583EE1
:1042B00008954830510578F0FB012481358144E1AF
:1042C00050E0FC0154AF43AF35AF26AFBC01655C95
:1042D0007F4F0C94583E08954830510508F40895D6
:1042E000DB011596EC9115971496FC91E630F105DB
:1042F00090F4EE0FFF1FED55FD4F2591349145E1F0
:1043000050E0FC0154AF43AF36AF25AFBC01655C54
:104310007F4F0C94583EE3EAF2E0EFCF483051056E
:1043200078F0FB012481358146E150E0FC0154AF77
:1043300043AF35AF26AFBC01655C7F4F0C94583E50
:1043400008954830510578F0FB012481358149E119
:1043500050E0FC0154AF43AF35AF26AFBC01655C04
:104360007F4F0C94583E08954830510578F0FB017A
:10437000248135814EE150E0FC0154AF43AF35AFAD
:1043800026AFBC01655C7F4F0C94583E08954830C1
:10439000510508F40895E1EAF2E02591349143E2F1
:1043A00050E0FC0154AF43AF36AF25AFBC01655CB4
:1043B0007F4F0C94583E4830510578F0FB01248122
:1043C000358144E250E0FC0154AF43AF35AF26AF36
:1043D000BC01655C7F4F0C94583E089548305105F0
:1043E00078F0FB012481358147E250E0FC0154AFB5
:1043F00043AF35AF26AFBC01655C7F4F0C94583E90
:1044000008954830510508F40895DB011596EC91A4
:1044100015971496FC91E230F10580F0EDE9F2E099
:104420002591349149E250E0FC0154AF43AF36AFDF
:1044300025AFBC01655C7F4F0C94583EEE0FFF1F0B
:10444000E356FD4FEDCF4830510578F0FB01248154
:1044500035814DE250E0FC0154AF43AF35AF26AF9C
:10446000BC01655C7F4F0C94583E0895FB014830B9
:10447000510598F0248135814681578162E070E0D2
:10448000FC0174AF63AFFD96508341833283238375
:10449000BC01655C7F4F0C94583E0895FB01483089
:1044A0005105A8F047815681658174812BE230E087
:1044B000FC0134AF23AFFD966627772740835183F5
:1044C00062837383BC01655C7F4F0C94583E0895F2
:1044D000FB014C305105D8F044815581B385A2854C
:1044E0003185208567E070E0FC0174AF63AF55AFA4
:1044F00046AFFF964B2F5A2F632F722F4083518365
:1045000062837383BC01655C7F4F0C94583E0895B1
:10451000FB0148305105B8F0B781A681358124816F
:1045200049E050E0FC0154AF43AFFD964B2F5A2FAA
:10453000632F722F4083518362837383BC01655C58
:104540007F4F0C94583E0895FB014C305105D8F034
:1045500044815581B385A285318520856DE070E069
:10456000FC0174AF63AF55AF46AFFF964B2F5A2F88
:10457000632F722F4083518362837383BC01655C18
:104580007F4F0C94583E0895FB0148305105B8F018
:10459000B781A681358124814FE050E0FC0154AF02
:1045A00043AFFD964B2F5A2F632F722F40835183B9
:1045B00062837383BC01655C7F4F0C94583E089501
:1045C000FB014C305105D8F044815581B385A2855B
:1045D0003185208562E170E0FC0174AF63AF55AFB7
:1045E00046AFFF964B2F5A2F632F722F4083518374
:1045F00062837383BC01655C7F4F0C94583E0895C1
:10460000FB014C305105D8F044815581B385A2851A
:104610003185208567E170E0FC0174AF63AF55AF71
:1046200046AFFF964B2F5A2F632F722F4083518333
:1046300062837383BC01655C7F4F0C94583E089580
:10464000FB014C305105D8F044815581B385A285DA
:104650003185208565E270E0FC0174AF63AF55AF32
:1046600046AFFF964B2F5A2F632F722F40835183F3
:1046700062837383BC01655C7F4F0C94583E089540
:104680004830510578F0FB01248135814FE150E03D
:10469000FC0154AF43AF35AF26AFBC01655C7F4F23
:1046A0000C94583E0895FB014830510598F0448120
:1046B00055812681378160E270E0FC0174AF63AF01
:1046C00055AF46AFFF9630832183BC01655C7F4FB9
:1046D0000C94583E0895AF92BF92CF92DF92EF9222
:1046E000FF920F931F93CF93DF938C01FC01ED5B3F
:1046F000FF4F808191810E940A4C5C010E94354BE2
:10470000EC01892B59F4DF91CF911F910F91FF900C
:10471000EF90DF90CF90BF90AF900895680186E052
:10472000C80ED11C75015801EEE0AE0EB11C05C0DB
:10473000C6010E94AB44219731F3F70161917F01DB
:10474000C6010E94BF44F80190A99923A1F34085B6
:1047500051854430510560F3B501C8010E943D20E8
:10476000E7CF8530910540F4FC01EE0FFF1FE354C5
:10477000FD4F859194910895EDEBF2E08591949130
:1047800008958230910528F0E9EBF2E0859194914B
:104790000895FC01EE0FFF1FE754FD4F85919491A2
:1047A00008958530910540F4FC01EE0FFF1FE1559F
:1047B000FD4F859194910895EFEAF2E085919491EF
:1047C00008958630910540F4FC01EE0FFF1FED5572
:1047D000FD4F859194910895E3EAF2E085919491DB
:1047E0000895E1EAF2E0859194910895823091056F
:1047F00028F0EDE9F2E0859194910895FC01EE0F27
:10480000FF1FE356FD4F859194910895CF93DF9359
:1048100080911C03882339F080911A0390911B0327
:10482000DF91CF91089585E490E00E94470CEC0160
:104830000E94203E81E892E099838883CE0106960B
:104840000E94974418AE1FAA1AAE19AE0E943F4BA1
:10485000FE01ED5BFF4F9183808340E855E260E00D
:1048600070E00E94B04BD0931B03C0931A0381E009
:1048700080931C03CE01DF91CF910895FC01ED5B85
:10488000FF4F808191810C948F4BFC01ED5BFF4FBA
:10489000808191810C94B04B6F927F928F929F9206
:1048A000AF92BF92CF92DF92EF92FF920F931F933E
:1048B000CF93DF9300D000D0CDB7DEB76C014B01B2
:1048C0005C0187E3A80EB11C6CE270E0C50129838E
:1048D0003A834B835C830E9463443C01FC01108655
:1048E00081E08187138612865C8154A74B8145A79E
:1048F0003A8136A7298127A710AB01ABF2AAE3AA18
:10490000C3010C9620E2FC0111922A95E9F7B4014B
:104910000E943059C3010E944444F30145815481EF
:10492000485F5F4FF601ED5BFF4FB30180819181DE
:104930000E94454CB301C5010F900F900F900F904E
:10494000DF91CF911F910F91FF90EF90DF90CF906B
:10495000BF90AF909F908F907F906F900C949644F3
:10496000EF92FF920F931F93CF93DF938C017C0103
:1049700087E3E80EF11C64E070E0C7010E94634425
:10498000EC01188619861B861A860E9444444D81C4
:104990005C81485F5F4FF801ED5BFF4FBE01808196
:1049A00091810E94454CBE01C701DF91CF911F91BB
:1049B0000F91FF90EF900C949644AF92BF92CF92DC
:1049C000DF92EF92FF920F931F93CF93DF9300D06C
:1049D000CDB7DEB78C01D62EC72E7C0187E3E80E5B
:1049E000F11C68E070E0C70149835A830E94634468
:1049F0005C01FC01108682E0818713861286C486E2
:104A0000D5865A81568749814787C5010E9444440B
:104A1000F50145815481485F5F4FF801ED5BFF4F21
:104A2000B501808191810E94454CB501C7010F906D
:104A30000F90DF91CF911F910F91FF90EF90DF903A
:104A4000CF90BF90AF900C949644CF92DF92EF92AC
:104A5000FF920F931F93CF93DF938C01D62EC72E17
:104A60007C0187E3E80EF11C68E070E0C7010E945A
:104A70006344EC01188683E089871B861A86CC86FE
:104A8000DD861F861E86CE010E9444444D815C81D6
:104A9000485F5F4FF801ED5BFF4FBE018081918160
:104AA0000E94454CBE01C701DF91CF911F910F912C
:104AB000FF90EF90DF90CF900C949644CF92DF92CE
:104AC000EF92FF920F931F93CF93DF938C01D62E1B
:104AD000C72E7C0187E3E80EF11C68E070E0C70197
:104AE0000E946344EC01188684E089871B861A863D
:104AF000CC86DD861F861E86CE010E9444444D81F1
:104B00005C81485F5F4FF801ED5BFF4FBE01808124
:104B100091810E94454CBE01C701DF91CF911F9149
:104B20000F91FF90EF90DF90CF900C9496448F926E
:104B30009F92AF92BF92CF92DF92EF92FF920F932C
:104B40001F93CF93DF9300D000D0CDB7DEB77C01A9
:104B5000B62EA72E6C0187E3C80ED11C6CE070E066
:104B6000C6012B833C8349835A830E9463444C01D2
:104B7000FC01108685E0818713861286A486B5869F
:104B80005A815687498147873C812B81A801832F11
:104B9000922FA52FB02F808B918BA28BB38BC4014A
:104BA0000E944444F40145815481485F5F4FF701FE
:104BB000ED5BFF4FB401808191810E94454CB401AF
:104BC000C6010F900F900F900F90DF91CF911F9122
:104BD0000F91FF90EF90DF90CF90BF90AF909F909C
:104BE0008F900C9496448F929F92AF92BF92CF92E7
:104BF000DF92EF92FF920F931F93CF93DF9300D03A
:104C000000D0CDB7DEB77C01B62EA72E6C0187E3AE
:104C1000C80ED11C6CE070E0C6012B833C83498335
:104C20005A830E9463444C01FC01108686E0818710
:104C300013861286A486B5865A815687498147878E
:104C40003C812B81A801832F922FA52FB02F808B21
:104C5000918BA28BB38BC4010E944444F401458123
:104C60005481485F5F4FF701ED5BFF4FB4018081D6
:104C700091810E94454CB401C6010F900F900F9096
:104C80000F90DF91CF911F910F91FF90EF90DF90E8
:104C9000CF90BF90AF909F908F900C9496448F923E
:104CA0009F92AF92BF92CF92DF92EF92FF920F93BB
:104CB0001F93CF93DF9300D000D0CDB7DEB77C0138
:104CC000B62EA72E6C0187E3C80ED11C6CE070E0F5
:104CD000C6012B833C8349835A830E9463444C0161
:104CE000FC01108687E0818713861286A486B5862C
:104CF0005A815687498147873C812B81A801832FA0
:104D0000922FA52FB02F808B918BA28BB38BC401D8
:104D10000E944444F40145815481485F5F4FF7018C
:104D2000ED5BFF4FB401808191810E94454CB4013D
:104D3000C6010F900F900F900F90DF91CF911F91B0
:104D40000F91FF90EF90DF90CF90BF90AF909F902A
:104D50008F900C949644EF92FF920F931F93CF93F2
:104D6000DF938C017C0187E3E80EF11C64E070E0C6
:104D7000C7010E946344EC01188688E089871B867E
:104D80001A86CE010E9444444D815C81485F5F4F8A
:104D9000F801ED5BFF4FBE01808191810E94454C7F
:104DA000BE01C701DF91CF911F910F91FF90EF904E
:104DB0000C949644AF92BF92CF92DF92EF92FF9203
:104DC0000F931F93CF93DF9300D0CDB7DEB78C0145
:104DD000D62EC72E7C0187E3E80EF11C68E070E058
:104DE000C70149835A830E9463445C01FC01108619
:104DF00089E08187138612865A8149818C2D9D2DE9
:104E0000A52FB42FF50184879587A687B787C5019D
:104E10000E944444F50145815481485F5F4FF80189
:104E2000ED5BFF4FB501808191810E94454CB5013A
:104E3000C7010F900F90DF91CF911F910F91FF90BD
:104E4000EF90DF90CF90BF90AF900C949644CF92AC
:104E5000DF92EF92FF920F931F93CF93DF938C011A
:104E6000D62EC72E7C0187E3E80EF11C68E070E0C7
:104E7000C7010E946344EC0118868AE089871B867B
:104E80001A86CC86DD861F861E86CE010E9444448B
:104E90004D815C81485F5F4FF801ED5BFF4FBE01C4
:104EA000808191810E94454CBE01C701DF91CF9165
:104EB0001F910F91FF90EF90DF90CF900C9496444C
:104EC0008F929F92AF92BF92CF92DF92EF92FF921A
:104ED0000F931F93CF93DF9300D000D0CDB7DEB7F1
:104EE0007C01B62EA72E6C0187E3C80ED11C6CE0A6
:104EF00070E0C6012B833C8349835A830E9463443C
:104F00004C01FC0110868BE0818713861286A486F3
:104F1000B5865A815687498147873C812B81A801F4
:104F2000832F922FA52FB02F808B918BA28BB38BC9
:104F3000C4010E944444F40145815481485F5F4F9D
:104F4000F701ED5BFF4FB401808191810E94454CD8
:104F5000B401C6010F900F900F900F90DF91CF9189
:104F60001F910F91FF90EF90DF90CF90BF90AF9087
:104F70009F908F900C9496448F929F92AF92BF9285
:104F8000CF92DF92EF92FF920F931F93CF93DF9315
:104F900000D000D0CDB7DEB77C01B62EA72E6C01B5
:104FA00087E3C80ED11C6CE070E0C6012B833C8304
:104FB00049835A830E9463444C01FC0110868CE0B3
:104FC000818713861286A486B5865A8156874981C1
:104FD00047873C812B81A801832F922FA52FB02FCB
:104FE000808B918BA28BB38BC4010E944444F4014B
:104FF00045815481485F5F4FF701ED5BFF4FB4017E
:10500000808191810E94454CB401C6010F900F90A0
:105010000F900F90DF91CF911F910F91FF90EF9024
:10502000DF90CF90BF90AF909F908F900C9496445C
:105030008F929F92AF92BF92CF92DF92EF92FF92A8
:105040000F931F93CF93DF9300D000D0CDB7DEB77F
:105050007C01B62EA72E6C0187E3C80ED11C6CE034
:1050600070E0C6012B833C8349835A830E946344CA
:105070004C01FC0110868DE0818713861286A48680
:10508000B5865A815687498147873C812B81A80183
:10509000832F922FA52FB02F808B918BA28BB38B58
:1050A000C4010E944444F40145815481485F5F4F2C
:1050B000F701ED5BFF4FB401808191810E94454C67
:1050C000B401C6010F900F900F900F90DF91CF9118
:1050D0001F910F91FF90EF90DF90CF90BF90AF9016
:1050E0009F908F900C949644EF92FF920F931F9392
:1050F000CF93DF938C017C0187E3E80EF11C64E021
:1051000070E0C7010E946344EC0118868EE0898735
:105110001B861A86CE010E9444444D815C81485F03
:105120005F4FF801ED5BFF4FBE01808191810E94CE
:10513000454CBE01C701DF91CF911F910F91FF90A8
:10514000EF900C949644AF92BF92CF92DF92EF9281
:10515000FF920F931F93CF93DF9300D0CDB7DEB7AD
:105160008C01D62EC72E7C0187E3E80EF11C68E087
:1051700070E0C70149835A830E9463445C01FC01CB
:1051800010868FE08187138612865A8149818C2D83
:105190009D2DA52FB42FF50184879587A687B78706
:1051A000C5010E944444F50145815481485F5F4F29
:1051B000F801ED5BFF4FB501808191810E94454C64
:1051C000B501C7010F900F90DF91CF911F910F9103
:1051D000FF90EF90DF90CF90BF90AF900C949644EB
:1051E000CF92DF92EF92FF920F931F93CF93DF93B3
:1051F0008C01D62EC72E7C0187E3E80EF11C68E0F7
:1052000070E0C7010E946344EC01188680E1898741
:105210001B861A86CC86DD861F861E86CE010E94DE
:1052200044444D815C81485F5F4FF801ED5BFF4F67
:10523000BE01808191810E94454CBE01C701DF9172
:10524000CF911F910F91FF90EF90DF90CF900C9432
:1052500096446F927F928F929F92AF92BF92CF921D
:10526000DF92EF92FF920F931F93CF93DF9300D0C3
:1052700000D0CDB7DEB76C01962E872E5C0187E398
:10528000A80EB11C60E170E0C50129833A834B830D
:105290005C830E9463443C01FC01108681E18187AC
:1052A0001386128684869586178616865C81508BB7
:1052B0004B81418B3A81328B2981238BA801970145
:1052C000852F902FA32FBE2D848B958BA68BB78B0C
:1052D000C3010E944444F30145815481485F5F4FFC
:1052E000F601ED5BFF4FB301808191810E94454C37
:1052F000B301C5010F900F900F900F90DF91CF91E8
:105300001F910F91FF90EF90DF90CF90BF90AF90E3
:105310009F908F907F906F900C9496446F927F92A5
:105320008F929F92AF92BF92CF92DF92EF92FF92B5
:105330000F931F93CF93DF9300D000D0CDB7DEB78C
:105340006C01962E872E5C0187E3A80EB11C60E1EC
:1053500070E0C50129833A834B835C830E946344D8
:105360003C01FC01108682E18187138612868486C7
:105370009586178616865C81508B4B81418B3A81CE
:10538000328B2981238BA8019701852F902FA32F82
:10539000BE2D848B958BA68BB78BC3010E94444492
:1053A000F30145815481485F5F4FF601ED5BFF4F8C
:1053B000B301808191810E94454CB301C5010F90DA
:1053C0000F900F900F90DF91CF911F910F91FF9051
:1053D000EF90DF90CF90BF90AF909F908F907F9095
:1053E0006F900C949644EF92FF920F931F93CF937C
:1053F000DF938C017C0187E3E80EF11C64E070E030
:10540000C7010E946344EC01188683E189871B86EB
:105410001A86CE010E9444444D815C81485F5F4FF3
:10542000F801ED5BFF4FBE01808191810E94454CE8
:10543000BE01C701DF91CF911F910F91FF90EF90B7
:105440000C949644AF92BF92CF92DF92EF92FF926C
:105450000F931F93CF93DF9300D0CDB7DEB78C01AE
:10546000D62EC72E7C0187E3E80EF11C68E070E0C1
:10547000C70149835A830E9463445C01FC01108682
:1054800084E18187138612865A8149818C2D9D2D56
:10549000A52FB42FF50184879587A687B787C50107
:1054A0000E944444F50145815481485F5F4FF801F3
:1054B000ED5BFF4FB501808191810E94454CB501A4
:1054C000C7010F900F90DF91CF911F910F91FF9027
:1054D000EF90DF90CF90BF90AF900C949644CF9216
:1054E000DF92EF92FF920F931F93CF93DF938C0184
:1054F000D62EC72E7C0187E3E80EF11C68E070E031
:10550000C7010E946344EC01188685E189871B86E8
:105510001A86CC86DD861F861E86CE010E944444F4
:105520004D815C81485F5F4FF801ED5BFF4FBE012D
:10553000808191810E94454CBE01C701DF91CF91CE
:105540001F910F91FF90EF90DF90CF900C949644B5
:105550006F927F928F929F92AF92BF92CF92DF9283
:10556000EF92FF920F931F93CF93DF9300D000D061
:10557000CDB7DEB76C01962E872E5C0187E3A80EAF
:10558000B11C60E170E0C50129833A834B835C83E1
:105590000E9463443C01FC01108686E181871386EA
:1055A000128684869586178616865C81508B4B8181
:1055B000418B3A81328B2981238BA8019701852F5A
:1055C000902FA32FBE2D848B958BA68BB78BC301F9
:1055D0000E944444F30145815481485F5F4FF601C6
:1055E000ED5BFF4FB301808191810E94454CB30177
:1055F000C5010F900F900F900F90DF91CF911F91E9
:105600000F91FF90EF90DF90CF90BF90AF909F9061
:105610008F907F906F900C9496446F927F928F92B0
:105620009F92AF92BF92CF92DF92EF92FF920F9331
:105630001F93CF93DF9300D000D0CDB7DEB76C01BE
:10564000962E872E5C0187E3A80EB11C60E170E006
:10565000C50129833A834B835C830E9463443C01E8
:10566000FC01108687E181871386128684869586E1
:10567000178616865C81508B4B81418B3A81328B29
:105680002981238BA8019701852F902FA32FBE2D51
:10569000848B958BA68BB78BC3010E944444F30186
:1056A00045815481485F5F4FF601ED5BFF4FB301C9
:1056B000808191810E94454CB301C5010F900F90EC
:1056C0000F900F90DF91CF911F910F91FF90EF906E
:1056D000DF90CF90BF90AF909F908F907F906F9012
:1056E0000C949644EF92FF920F931F93CF93DF9306
:1056F0008C017C0187E3E80EF11C64E070E0C701D7
:105700000E946344EC01188688E189871B861A860B
:10571000CE010E9444444D815C81485F5F4FF80197
:10572000ED5BFF4FBE01808191810E94454CBE011F
:10573000C701DF91CF911F910F91FF90EF900C94D3
:105740009644AF92BF92CF92DF92EF92FF920F9367
:105750001F93CF93DF9300D0CDB7DEB78C01D62E49
:10576000C72E7C0187E3E80EF11C68E070E0C701FA
:1057700049835A830E9463445C01FC01108689E1DD
:105780008187138612865A8149818C2D9D2DA52FE4
:10579000B42FF50184879587A687B787C5010E9436
:1057A0004444F50145815481485F5F4FF801ED5B4A
:1057B000FF4FB501808191810E94454CB501C70121
:1057C0000F900F90DF91CF911F910F91FF90EF906D
:1057D000DF90CF90BF90AF900C949644EF92FF92E1
:1057E0000F931F93CF93DF938C017C0187E3E80E27
:1057F000F11C64E070E0C7010E946344EC0118866C
:105800008AE189871B861A86CE010E9444444D8115
:105810005C81485F5F4FF801ED5BFF4FBE01808107
:1058200091810E94454CBE01C701DF91CF911F912C
:105830000F91FF90EF900C949644EF92FF920F938C
:105840001F93CF93DF938C017C0187E3E80EF11C5B
:1058500064E070E0C7010E946344EC0118868BE1AC
:1058600089871B861A86CE010E9444444D815C8143
:10587000485F5F4FF801ED5BFF4FBE018081918172
:105880000E94454CBE01C701DF91CF911F910F913E
:10589000FF90EF900C949644EF92FF920F931F931A
:1058A000CF93DF938C017C0187E3E80EF11C64E069
:1058B00070E0C7010E946344EC0118868CE189877F
:1058C0001B861A86CE010E9444444D815C81485F4C
:1058D0005F4FF801ED5BFF4FBE01808191810E9417
:1058E000454CBE01C701DF91CF911F910F91FF90F1
:1058F000EF900C949644EF92FF920F931F93CF93E7
:10590000DF938C017C0187E3E80EF11C64E070E01A
:10591000C7010E946344EC0118868DE189871B86CC
:105920001A86CE010E9444444D815C81485F5F4FDE
:10593000F801ED5BFF4FBE01808191810E94454CD3
:10594000BE01C701DF91CF911F910F91FF90EF90A2
:105950000C949644AF92BF92CF92DF92EF92FF9257
:105960000F931F93CF93DF9300D0CDB7DEB78C0199
:10597000D62EC72E7C0187E3E80EF11C68E070E0AC
:10598000C70149835A830E9463445C01FC0110866D
:105990008EE18187138612865A8149818C2D9D2D37
:1059A000A52FB42FF50184879587A687B787C501F2
:1059B0000E944444F50145815481485F5F4FF801DE
:1059C000ED5BFF4FB501808191810E94454CB5018F
:1059D000C7010F900F90DF91CF911F910F91FF9012
:1059E000EF90DF90CF90BF90AF900C949644AF9221
:1059F000BF92CF92DF92EF92FF920F931F93CF93BC
:105A0000DF9300D0CDB7DEB78C01D62EC72E7C0138
:105A100087E3E80EF11C68E070E0C70149835A8310
:105A20000E9463445C01FC0110868FE1818713862C
:105A30001286C486D5865A81568749814787C50113
:105A40000E944444F50145815481485F5F4FF8014D
:105A5000ED5BFF4FB501808191810E94454CB501FE
:105A6000C7010F900F90DF91CF911F910F91FF9081
:105A7000EF90DF90CF90BF90AF900C949644AF9290
:105A8000BF92CF92DF92EF92FF920F931F93CF932B
:105A9000DF9300D0CDB7DEB78C01D62EC72E7C01A8
:105AA00087E3E80EF11C68E070E0C70149835A8380
:105AB0000E9463445C01FC01108680E281871386AA
:105AC0001286C486D5865A81568749814787C50183
:105AD0000E944444F50145815481485F5F4FF801BD
