:100000000C94AE020C94D6020C94D6020C94D60238
:100010000C94D6020C94D6020C94D6020C94D60200
:100020000C94D6020C94D6020C94D6020C94D602F0
:100030000C94D6020C94D6020C94D6020C94D602E0
:100040000C94DD460C94D6020C94D6020C94D60285
:100050000C94B2470C94D6020C94D6020C94D6029F
:100060000C94D6020C94D6020C94D6020C94D602B0
:10007000D80100007A4406D80100007A4405D8016E
:1000800000007A4404E5010000803F06E50100001D
:10009000803F05E5010000803F04EF010024744922
:1000A00005EF010024744904FE0100007A4406FEB5
:1000B0000100007A4405FE0100007A4404D80200E1
:1000C00000D9020000880900003D0A000032030048
:1000D00000A0030000D203000009040000A30C00EC
:1000E000005804000088040000A4040000D60400A6
:1000F000000D0500002D0D00005C050000690300E7
:10010000008C050000D0050000720D0000710A008F
:1001100000240600004006000084060000E80C00F1
:1001200000620B0000D8060000E0060000E80600B0
:1001300000F0060000CE090000F8060000320700BB
:1001400000850700008D0700004A090000430800F1
:1001500000A3080000530C00000D090000900800E7
:100160000095070000B10700001A080000C2070050
:1001700000C8070000462F77206465762000492DCF
:100180005620536F75726365204D6574657200ACBF
:10019000C5273717B7D1386F12833A0AD7233CCD1A
:1001A000CCCC3D0804020100000001000200030065
:1001B0000400ACC5273717B7D1386F12833A0AD776
:1001C000233CCDCCCC3D080402010000000100021C
:1001D0000003000400C9200000CA20000091230091
:1001E00000CD210000EF2100001122000024220098
:1001F00000C1230000D4200000E0230000372200CB
:1002000000592200006C220000FB230000E22000C5
:10021000001A2400007F220000A1220000352400E3
:1002200000F0200000B4220000C7220000E92200F4
:100230000054240000FE200000FC2200000C2100DD
:10024000001A21000028210000362100000F2300A1
:100250000092240000A52400004421000052210047
:1002600000222300003623000073240000602100D8
:1002700000492300006E2100005C2300007C210067
:1002800000A82300008A2100007E23000000000156
:10029000000000000001000200030004000500004F
:1002A0000001000200030004000000010000000142
:1002B00000020003000400000001001E001E001EDA
:1002C000001E001E001E001E002800280028002816
:1002D00000280028002800280028002800280020E6
:1002E00000280013000C000D000E000F001000117C
:1002F000000700080009000A000B000500060000C6
:100300000001000200030004006F12833A0AD723A1
:100310003CCDCCCC3D0000803F000020410000C817
:100320004208040201003000000100000001000248
:100330000003000400050000002041000000002030
:10034000410000C842002000000100030003000239
:10035000000AD7233C0300030003000AD7233C0311
:1003600000030004000AD7233C0200020004006FCF
:1003700012833A01000100040017B7D138010001CF
:10038000000400ACC52737010001000400BD37861A
:10039000350300030002000AD7233CCDCCCC3D033B
:1003A00000030003000AD7233C0000803F03000342
:1003B0000004000AD7233C00002041020002000490
:1003C000006F12833A000020410100010004001771
:1003D000B7D13800002041010001000400ACC5275E
:1003E0003700002041010001000400BD37863500C0
:1003F0000020410000010002000300040005000687
:100400000080C016400000174000001D400000237F
:1004100040000000FFFFFFFF000100FF0020001070
:100420000008000400010203FC480000034900002A
:1004300022490000AE49000041490000CE490000B9
:10044000484900004F490000564900006E4900002D
:1004500075490000994900006E616E00696E660082
:1004600000407A10F35A00A0724E18090010A5D46B
:10047000E80000E87648170000E40B54020000CAC8
:100480009A3B000000E1F50500008096980000000E
:1004900040420F000000A08601000000102700006D
:1004A0000000E803000000006400000000000A00F3
:1004B000000000000100000000002C76D888DC67F6
:1004C0004F0823DFC1DFAE59E1B1B796E5E3E4534E
:1004D000C63AE651997696E8E6C28426EB898C9B6B
:1004E00062ED407C6FFCEFBC9C9F40F2BAA56FA50B
:1004F000F490055A2AF75C936B6CF9676DC11BFC8D
:10050000E0E40D47FEF520E6B500D0ED902E0300A7
:10051000943577050080841E080000204E0A0000F4
:1005200000C80C333333330F986E12831141EF8DB3
:100530002114893BE65516CFFEE6DB18D1844B38F3
:100540001BF77C1D901DA4BBE424203284725E2224
:100550008100C9F124ECA1E53D27483B11241FBED1
:10056000CFEFD0E1DEBFCDBF12E0A0E0B1E0EEE61C
:10057000FBEA02C005900D92A638B107D9F725E035
:10058000A6E8B2E001C01D92A837B207E1F712E079
:10059000CEEAD2E004C02197FE010E94CD52CD3AAE
:1005A000D107C9F70E94AE100C94B5550C94000009
:1005B0000895CF92DF92EF92FF920F931F93CF9304
:1005C000DF9300D000D0CDB7DEB70E94713AFC01B6
:1005D000C080D1800D2C000CEE08FF087601DD24D0
:1005E000CC240E94713AFC0182819381092E000C77
:1005F000AA0BBB0BBA2FA92F982F8827C82AD92A54
:10060000EA2AFB2A0E94713AFC0124813581C90142
:10061000330FAA0BBB0BA7019601282B392B4A2BB2
:100620005B2B29833A834B835C830E9454251DEF07
:10063000E12EFF24FA940FEF1FEF29813A814B81BD
:100640005C8168E171E00E94AC250F900F900F90E3
:100650000F90DF91CF911F910F91FF90EF90DF905E
:10066000CF9008950F931F93CF93DF93EB018A816F
:100670009B810E948A1A8C010E943D1BB8010E9436
:100680009A1A0E943D1BFC01808191810E941F25C6
:100690008C010E945425B8010E94C4298A819B8143
:1006A0000E94181EEC010E941020BE010E94E51E4F
:1006B0000E941020FC01848195810E94FF24EC019E
:1006C0000E945425BE01DF91CF911F910F910C9490
:1006D0009A260F931F93CF93DF93EB018A819B811F
:1006E0000E94181E8C010E941020B8010E94E51E75
:1006F0000E941020FC01848195810E94FF248C01BE
:100700000E945425B8010E949A268A819B810E94EA
:100710008A1AEC010E943D1BBE010E949A1A0E9497
:100720003D1BFC01808191810E941F25EC010E94EC
:100730005425BE01DF91CF911F910F910C94C429D4
:100740008F929F92AF92BF92EF92FF920F931F935F
:10075000CF93DF93FB01C281D3810E941020DD275C
:10076000FE01EE0FFF1FEC0FFD1FEE0FFF1FE80F46
:10077000F91F80849184A284B384E680F7800E946C
:10078000542595018401A701BE010E94C926DF916D
:10079000CF911F910F91FF90EF90BF90AF909F90DE
:1007A0008F9008958F929F92AF92BF92EF92FF9297
:1007B0000F931F93CF93DF93FB01C281D381DD277A
:1007C0000E941020BE010E9493200E941020FE0172
:1007D000EE0FFF1FEC0FFD1FEE0FFF1FE80FF91FBD
:1007E00080849184A284B384E680F7800E9454259B
:1007F00095018401A701BE010E941C27DF91CF91C2
:100800001F910F91FF90EF90BF90AF909F908F90AE
:1008100008958F929F92AF92BF92CF92DF92EF9204
:10082000FF920F931F93CF93DF9300D000D0CDB7EB
:10083000DEB7FB012481358146815781C280D38098
:10084000DD2429833A834B835C830E941020298115
:100850003A814B815C81B6010E94A3200E94102046
:10086000F601EE0FFF1FEC0DFD1DEE0FFF1FE80F51
:10087000F91F80849184A284B384E680F7800E946B
:10088000542595018401A701B6010E946F270F909E
:100890000F900F900F90DF91CF911F910F91FF90CC
:1008A000EF90DF90CF90BF90AF909F908F90089582
:1008B000CF93DF9300D000D0CDB7DEB7FB014281EC
:1008C00053816481758149835A836B837C830E9441
:1008D000102049815A816B817C810E941E200E94D8
:1008E0001020FC01408151816281738149835A83C8
:1008F0006B837C830E94542549815A816B817C8162
:100900000F900F900F900F90DF91CF910C94EB27E9
:10091000CF93DF93FB01828193810E949036EC019B
:100920000E94BC37BE010E94A3360E94BC37FC0166
:10093000848195810E940F25EC010E945425BE01FF
:10094000DF91CF910C942F288F929F92AF92BF92FC
:10095000EF92FF920F931F93CF93DF93FB01C2811E
:10096000D3810E94BC37DD27FE01EE0FFF1FEC0F85
:10097000FD1FEE0FFF1FE80FF91F80849184A284F2
:10098000B384E680F7800E94542595018401A70175
:10099000BE010E945E28DF91CF911F910F91FF90C1
:1009A000EF90BF90AF909F908F9008958F929F92FD
:1009B000AF92BF92EF92FF920F931F93CF93DF936B
:1009C000FB01C281D381DD270E94BC37BE010E949A
:1009D00078380E94BC37FE01EE0FFF1FEC0FFD1FA1
:1009E000EE0FFF1FE80FF91F80849184A284B38467
:1009F000E680F7800E94542595018401A701BE017D
:100A00000E94B128DF91CF911F910F91FF90EF903D
:100A1000BF90AF909F908F9008958F929F92AF92CA
:100A2000BF92CF92DF92EF92FF920F931F93CF93DB
:100A3000DF9300D000D0CDB7DEB7FB012481358134
:100A400046815781C280D380DD2429833A834B833A
:100A50005C830E94BC3729813A814B815C81B6015D
:100A60000E9488380E94BC37F601EE0FFF1FEC0D84
:100A7000FD1DEE0FFF1FE80FF91F80849184A284F3
:100A8000B384E680F7800E94542595018401A70174
:100A9000B6010E9404290F900F900F900F90DF91E4
:100AA000CF911F910F91FF90EF90DF90CF90BF906B
:100AB000AF909F908F900895CF93DF9300D000D098
:100AC000CDB7DEB7FB0142815381648175814983D3
:100AD0005A836B837C830E94BC3749815A816B8126
:100AE0007C810E9403380E94BC37FC014081518107
:100AF0006281738149835A836B837C830E9454256E
:100B000049815A816B817C810F900F900F900F90DB
:100B1000DF91CF910C948029AF92BF92CF92DF9258
:100B2000EF92FF920F931F93CF93DF9300D000D0EB
:100B3000CDB7DEB7FB01E280F3800E943D1B570179
:100B4000BB24F501EE0FFF1FEE0FFF1FEE0FFF1F7F
:100B5000E80FF91FC680D780E084F18422813381B9
:100B60004481558129833A834B835C830E945425B9
:100B70008701760129813A814B815C81B5010E9410
:100B8000F3290F900F900F900F90DF91CF911F914D
:100B90000F91FF90EF90DF90CF90BF90AF900895AE
:100BA000AF92BF92CF92DF92EF92FF920F931F937B
:100BB000CF93DF9300D000D0CDB7DEB7FB01248107
:100BC000358146815781A280B380BB2429833A8333
:100BD0004B835C830E943D1B29813A814B815C8160
:100BE000B5010E94CF1C0E943D1BF501EE0FFF1FB7
:100BF000EE0FFF1FEE0FFF1FE80FF91FC680D78013
:100C0000E084F184228133814481558129833A83B0
:100C10004B835C830E9454258701760129813A81A8
:100C20004B815C81B5010E944E2A0F900F900F906E
:100C30000F90DF91CF911F910F91FF90EF90DF9078
:100C4000CF90BF90AF900895CF93DF93FB01828147
:100C500093810E941131EC010E946232BE010E9418
:100C600031310E946232FC01808191810E942F25E6
:100C7000EC010E945425BE01DF91CF910C94162BFC
:100C8000AF92BF92CF92DF92EF92FF920F931F939A
:100C9000CF93DF9300D000D0CDB7DEB7FB01E28069
:100CA000F3800E9462325701BB24F501EE0FFF1F53
:100CB000EE0FFF1FEE0FFF1FE80FF91FC680D78052
:100CC000E084F184228133814481558129833A83F0
:100CD0004B835C830E9454258701760129813A81E8
:100CE0004B815C81B5010E94452B0F900F900F90B6
:100CF0000F90DF91CF911F910F91FF90EF90DF90B8
:100D0000CF90BF90AF900895AF92BF92CF92DF92F5
:100D1000EF92FF920F931F93CF93DF9300D000D0F9
:100D2000CDB7DEB7FB012481358146815781A28092
:100D3000B380BB2429833A834B835C830E94623255
:100D400029813A814B815C81B5010E9432330E9436
:100D50006232F501EE0FFF1FEE0FFF1FEE0FFF1FB8
:100D6000E80FF91FC680D780E084F18422813381A7
:100D70004481558129833A834B835C830E945425A7
:100D80008701760129813A814B815C81B5010E94FE
:100D9000A02B0F900F900F900F90DF91CF911F918C
:100DA0000F91FF90EF90DF90CF90BF90AF9008959C
:100DB0000E9410200E9442200E9454250C94682C0E
:100DC0000E94BC370E9427380E9454250C94912C15
:100DD0000E943D1B0E94681C0E9454250C94BA2C52
:100DE0000E9462320E94CB320E9454250C94E32C64
:100DF000CF93DF93FB01828193818130910521F1B3
:100E00008230910599F0892B19F0DF91CF910895E7
:100E10000E94713AFC01C081D1810E945425AE012B
:100E200060E070E0DF91CF910C94502D0E94713AF8
:100E3000FC01C481D5810E945425AE0162E070E0BE
:100E4000DF91CF910C94502D0E94713AFC01C28128
:100E5000D3810E945425AE0161E070E0DF91CF9113
:100E60000C94502DCF93DF93FB0182819381C48139
:100E7000D58181309105B1F18230910501F1009762
:100E800059F08130910599F182309105E9F0892B73
:100E900041F0DF91CF9108950E94713AFC01D18316
:100EA000C0830E94713AFC01C081D1810E94542507
:100EB000AE0160E070E0DF91CF910C948E2D0E9426
:100EC000713AFC01D583C4830E94713AFC01C4814C
:100ED000D5810E945425AE0162E070E0DF91CF9190
:100EE0000C948E2D0E94713AFC01D383C2830E9420
:100EF000713AFC01C281D3810E945425AE0161E0A8
:100F000070E0DF91CF910C948E2D0E94713A0E9477
:100F1000CB3A0E9454250C94CC2D0E94713A0E9429
:100F2000D73A0E9454250C94F52DCF93DF93FB0103
:100F3000828193810E942131EC010E946232BE01C4
:100F40000E94DB330E946232FC0183AD94AD0E94AB
:100F50004425EC010E945425BE01DF91CF910C94F1
:100F6000992FCF93DF930E946232FC0183AD94AD41
:100F70000E944425EC010E945425BE01DF91CF91CF
:100F80000C94C82F0E94542561E070E00C94353019
:100F9000CF93DF93EB010E944D3B40E060E00E9465
:100FA000313C0E944D3B63E271E00E94603C0E9434
:100FB0004D3B40E061E00E94313C0E944D3B64E3C8
:100FC00071E00E94603C2FEF8FE39BE02150804056
:100FD0009040E1F700C000000A80DB81C02D0E9434
:100FE000542540E050E0BE010E9464300E944D3B19
:100FF00040E060E00E94313C0E944D3B65E471E0BE
:101000000E94603C0E944D3B40E061E00E94313C08
:101010000E944D3B64E371E00E94603C2FEF8FE340
:101020009BE0215080409040E1F700C00000DF913C
:10103000CF910895CF92DF92EF92FF92FB01C28091
:10104000D380E480F5800E945425B701A6010E9458
:101050007425811108C00E945425FF90EF90DF9005
:10106000CF900C9406260E945425B701A6010E9439
:10107000F72F0E945425B701A601FF90EF90DF9053
:10108000CF900C948C25AF92BF92CF92DF92EF92CB
:10109000FF920F931F93CF93DF9300D000D0CDB773
:1010A000DEB7FB01E280F3808091CB02811107C0A3
:1010B00086E992E00E941C3481E08093CB025701C4
:1010C000BB24F501EE0FFF1FEE0FFF1FEE0FFF1FFA
:1010D000EA56FD4FC184D284E384F48425813681AD
:1010E0004781508529833A834B835C830E94542532
:1010F0008701760129813A814B815C81B5010E948B
:101100004D2E0F900F900F900F90DF91CF911F9168
:101110000F91FF90EF90DF90CF90BF90AF90089528
:101120008091CB02811107C086E992E00E941C34B5
:1011300081E08093CB0286E992E00E94E7350E942D
:1011400054250C94702FAF92BF92CF92DF92EF9202
:10115000FF920F931F93CF93DF9300D000D0CDB7B2
:10116000DEB7FB012481358146815781A280B3809F
:10117000BB248091CB02882309F43FC0B50186E9E6
:1011800092E00E947A358091CB02811107C086E9F6
:1011900092E00E941C3481E08093CB02F501EE0FB7
:1011A000FF1FEE0FFF1FEE0FFF1FEA56FD4FC1841A
:1011B000D284E384F4842581368147815085298354
:1011C0003A834B835C830E945425870176012981F1
:1011D0003A814B815C81B5010E94A82E0F900F903F
:1011E0000F900F90DF91CF911F910F91FF90EF9093
:1011F000DF90CF90BF90AF90089586E992E0298369
:101200003A834B835C830E941C3481E08093CB0241
:101210005C814B813A812981B1CF0F931F93CF938A
:10122000DF9300D000D0CDB7DEB78B010E94AE387F
:101230000E94C638F801628173818091CB028111CE
:101240000BC086E992E06B837C830E941C3481E0B2
:101250008093CB027C816B8186E992E00E944E36BE
:10126000AB01BC0149835A836B837C830E94542564
:1012700049815A816B817C810E942C2F0E94AE385B
:101280000F900F900F900F90DF91CF911F910F91C2
:101290000C94C8380F931F93CF93DF9300D0CDB732
:1012A000DEB7FB01828193810E941734BC018091DB
:1012B000CB02882309F186E992E00E94E73480910D
:1012C000CB02811107C086E992E00E941C3481E0C4
:1012D0008093CB028091990290919A020E943F25BF
:1012E0008C010E945425B8010F900F90DF91CF918F
:1012F0001F910F910C941E2E86E992E069837A83E8
:101300000E941C3481E08093CB027A816981D3CF23
:101310008F929F92AF92BF92CF92DF92EF92FF9205
:101320000F931F93CF93DF93EC01FB018280938097
:10133000A480B58081E08B870E9402470E942447E9
:101340006B017C010E9402478C01C501B4010E941F
:10135000CE502FE632E143E85AE30E94D351AB016D
:10136000BC01C8010E943047C60ED71EE81EF91EF8
:10137000CC86DD86EE86FF860E945425B501A40149
:10138000DF91CF911F910F91FF90EF90DF90CF9061
:10139000BF90AF909F908F900C942D260F931F932A
:1013A000CF93DF9300D000D0CDB7DEB78B010E9482
:1013B000BC370E94A0360E94AE380E94C4380E94FA
:1013C00010200E94281E0E94AE380E94BE38F801EC
:1013D000028113810E94CA38B8010E94223AAB01EF
:1013E000BC0149835A836B837C830E9454254981C5
:1013F0005A816B817C810F900F900F900F90DF913D
:10140000CF911F910F910C940C2DCF92DF92EF9200
:10141000FF92DB01ED91FC91EE32F10548F5EE0F04
:10142000FF1FEE0FFF1FE354FF4FC590D590E590CF
:10143000F490F601970135952795E0FE12C0DC0186
:10144000A20FB31F2D913C911197F901EC0DFD1DD9
:101450000190F081E02DCD01FF90EF90DF90CF90D3
:101460000994820F931FFF90EF90DF90CF90099423
:10147000FF90EF90DF90CF900895FB0182819381E0
:101480000097C9F00197B1F40E9410200E94E21E5B
:101490000E94AE380E94C0380E94BC370E94CA37F2
:1014A0000E94AE380E94C2380E94542561E070E06C
:1014B0000C946B2608950E94BC370E94A0360E94AF
:1014C000AE380E94C4380E9410200E94281E0E943C
:1014D000AE380E94BE380E94542560E070E00C9443
:1014E0006B268F929F92AF92BF92CF92DF92EF9234
:1014F000FF920F931F93CF93DF93CDB7DEB72B9758
:101500000FB6F894DEBF0FBECDBF8C017B010E94E9
:10151000AE380E94C638F701E280F3800E943D1B7E
:10152000B7010E94CA1B4B015C010E945425B50102
:10153000A4010E94D22A81E0F80186830E9402471A
:101540000E9424476B017C010E94024740E050E06A
:1015500060E070E40E943047C60ED71EE81EF91EF8
:10156000F801C782D086E186F2860E9462320E942C
:101570003D1BFC01E080F1800E944D3B0E94553CE8
:10158000FC0196E0DE01119601900D929A95E1F72B
:101590000E944D3B40E060E00E94313C8701000F1B
:1015A000111F000F111F000F111F0E191F09F80145
:1015B000E656FF4FE590F49082E00E94CA3F8B8789
:1015C00081E00E94CA3F8A87F801E456FF4F2591C7
:1015D000359145915491C501B4010E94D3514B01FD
:1015E0005C01F801E056FF4F84910E94CB3F898750
:1015F00089E00E94CA3F888784E00E94CA3F8F83A7
:101600000E944D3B63E87FE30E94393FBE01695F62
:101610007F4F0E94CC3F66E571E00E94603C67EA24
:101620007FE30E94393F6BE37FE30E94393F6FE520
:101630007FE30E94393FBE01685F7F4F0E94CC3F2D
:10164000BE01675F7F4F0E94F13FB501A4010E9478
:101650001F3EBE01665F7F4F0E94CC3F6CE771E08A
:101660000E94603C63E87FE30E94393FBE01655FF2
:101670007F4F0E94CC3FB7010E94603C0E944D3BCF
:1016800040E061E00E94313C0E944D3BBE016F5F33
:101690007F4F0E94573C0E94AE380E94C8382B965C
:1016A0000FB6F894DEBF0FBECDBFDF91CF911F9173
:1016B0000F91FF90EF90DF90CF90BF90AF909F90F1
:1016C0008F9008958F929F92AF92BF92CF92DF92A8
:1016D000EF92FF920F931F93CF93DF93CDB7DEB7B7
:1016E0002B970FB6F894DEBF0FBECDBF8C017B01E8
:1016F0000E94AE380E94C638F701E280F3800E9453
:101700006232B7010E9470324B015C010E94542585
:10171000B501A4010E94242C81E0F80186830E9477
:1017200002470E9424476B017C010E94024740E06F
:1017300050E060E070E40E943047C60ED71EE81EFD
:10174000F91EF801C782D086E186F2860E946232D5
:10175000FC01E080F1800E943D1B0E944D3B0E94F5
:10176000553CFC0196E0DE01119601900D929A9590
:10177000E1F70E944D3B40E060E00E94313C0E9456
:101780004D3B40E061E00E94313C8701000F111F9A
:10179000000F111F000F111F0E191F09F801E0594A
:1017A000FF4FE590F49082E00E94CA3F8B8781E072
:1017B0000E94CA3F8A87F801EE58FF4F2591359164
:1017C00045915491C501B4010E94D3514B015C0174
:1017D000F801EA58FF4F84910E94CB3F898789E046
:1017E0000E94CA3F888784E00E94CA3F8F830E947C
:1017F0004D3B63E87FE30E94393FBE01695F7F4F45
:101800000E94CC3F69E571E00E94603C67EA7FE39B
:101810000E94393F6BE37FE30E94393F6FE57FE32E
:101820000E94393FBE01685F7F4F0E94CC3FBE01DE
:10183000675F7F4F0E94F13FB501A4010E941F3EE8
:10184000BE01665F7F4F0E94CC3F6CE771E00E9453
:10185000603C63E87FE30E94393FBE01655F7F4FD4
:101860000E94CC3FB7010E94603C0E944D3BBE01EC
:101870006F5F7F4F0E94573C0E94AE380E94C8386D
:101880002B960FB6F894DEBF0FBECDBFDF91CF9180
:101890001F910F91FF90EF90DF90CF90BF90AF908E
:1018A0009F908F900895CF92DF92EF92FF92CF9307
:1018B000DF93EC018091CB02811107C086E992E0B1
:1018C0000E941C3481E08093CB0286E992E00E9462
:1018D000D1350E9454250E94032F81E08E830E94FF
:1018E00002470E9424476B017C010E94024740E0AE
:1018F00050E060E070E40E943047C60ED71EE81E3C
:10190000F91ECF82D886E986FA860E944D3B40E0D8
:1019100060E00E94313C0E944D3B6CE571E00E940A
:10192000603C0E944D3B40E061E00E94313C0E94DF
:101930004D3B6DE671E0DF91CF91FF90EF90DF902E
:10194000CF900C94603CCF92DF92EF92FF92CF93B6
:10195000DF93EC010E9410200E94B3200E945425C6
:101960000E94C22781E08E830E9402470E94244782
:101970006B017C010E94024740E050E060E070E4AF
:101980000E943047C60ED71EE81EF91ECF82D886A9
:10199000E986FA860E944D3B40E060E00E94313CBF
:1019A0000E944D3B6CE571E00E94603C0E944D3B03
:1019B00040E061E00E94313C0E944D3B6DE671E0E9
:1019C000DF91CF91FF90EF90DF90CF900C94603C2F
:1019D000CF92DF92EF92FF92CF93DF93EC010E94C0
:1019E00062320E9490330E9454250E94FB2B81E0BA
:1019F0008E830E9402470E9424476B017C010E9453
:101A0000024740E050E060E070E40E943047C60EBC
:101A1000D71EE81EF91ECF82D886E986FA860E9474
:101A20004D3B40E060E00E94313C0E944D3B6CE544
:101A300071E00E94603C0E944D3B40E061E00E94EA
:101A4000313C0E944D3B6DE671E0DF91CF91FF90FC
:101A5000EF90DF90CF900C94603CCF92DF92EF92AA
:101A6000FF92CF93DF93EC010E94BC370E9498381D
:101A70000E9454250E94572981E08E830E940247CC
:101A80000E9424476B017C010E94024740E050E025
:101A900060E070E40E943047C60ED71EE81EF91EB3
:101AA000CF82D886E986FA860E944D3B40E060E00E
:101AB0000E94313C0E944D3B6CE571E00E94603C0D
:101AC0000E944D3B40E061E00E94313C0E944D3B52
:101AD0006DE671E0DF91CF91FF90EF90DF90CF90B6
:101AE0000C94603CCF92DF92EF92FF92CF93DF9302
:101AF000EC010E943D1B0E947E1D0E9454250E9405
:101B0000A92A81E08E830E9402470E9424476B012C
:101B10007C010E94024740E050E060E070E40E94D7
:101B20003047C60ED71EE81EF91ECF82D886E9863A
:101B3000FA860E944D3B40E060E00E94313C0E94EA
:101B40004D3B6CE571E00E94603C0E944D3B40E0E3
:101B500061E00E94313C0E944D3B6DE671E0DF91F7
:101B6000CF91FF90EF90DF90CF900C94603C0F935B
:101B70001F93CF93DF93CDB7DEB7AB970FB6F89433
:101B8000DEBF0FBECDBF0E944D3B0E94553CFC0105
:101B900096E0DE01919601900D929A95E1F70E94F0
:101BA0004D3B40E060E00E94313C6EE771E0CE01C9
:101BB00001960E94D8548C010E944D3BB8010E94AE
:101BC000603C0E944D3B40E061E00E94313C82E07D
:101BD0000E94CA3F8FA381E00E94CA3F88A782E08B
:101BE0000E94CA3F89A781E00E94CA3F8AA782E07B
:101BF0000E94CA3F8BA765E771E0CE0101960E9463
:101C0000D8548C010E944D3BB8010E94603CBE013B
:101C1000655D7F4F0E94CC3F6FE57FE30E94393FB7
:101C20004FEF50E060E070E00E942A3DBE01665D2B
:101C30007F4F0E94CC3F6EE771E00E94603CBE0186
:101C4000675D7F4F0E94CC3F6FE57FE30E94393F85
:101C50004FEF50E060E070E00E942A3DBE01685DF9
:101C60007F4F0E94CC3F6EE771E00E94603CBE0156
:101C7000695D7F4F0E94CC3F6FE57FE30E94393F53
:101C80004DEF50E060E070E00E942A3D0E944D3B25
:101C9000BE016F5D7F4F0E94573CAB960FB6F89424
:101CA000DEBF0FBECDBFDF91CF911F910F91089581
:101CB000CF92DF92EF92FF92CF93DF93EC010E94DD
:101CC0001E3B85E092E0998388831E821F821886DE
:101CD00019861A861B861C861D861E861F860E94F4
:101CE0004D3B0E9410200E94BC370E943D1B0E9469
:101CF00062328091CB02811107C086E992E00E9496
:101D00001C3481E08093CB020E94CA380E94542583
:101D10000E9410200E94281E0E94AE380E94BE38E9
:101D20000E94BC3740E050E0BA010E9403380E9494
:101D3000623260E070E00E94DB330E945425AE0105
:101D400065E07AE00E94383BCE010E94B70D78949E
:101D500081E08E830E9402470E9424476B017C0130
:101D60000E94024740E050E060E070E40E9430478B
:101D7000C60ED71EE81EF91ECF82D886E986FA86DF
:101D8000DF91CF91FF90EF90DF90CF9008952F9249
:101D90003F924F925F926F927F928F929F92AF92FB
:101DA000BF92CF92DF92EF92FF920F931F93CF9348
:101DB000DF93CDB7DEB72B970FB6F894DEBF0FBE1B
:101DC000CDBFF62E29013A010E944D3B0E94553CA1
:101DD000FC0196E0DE01119601900D929A95E1F7D3
:101DE0000E944D3B40E060E00E94313CF11099C000
:101DF0000E944D3B40E061E00E94313CEE2009F43E
:101E000070C08401000F111F000F111F000F111F60
:101E100008191909F801E059FF4FE590F49082E0A4
:101E20000E94CA3F8F8381E00E94CA3F8887F801E1
:101E3000EE58FF4F2591359145915491C601B5015A
:101E40000E94D3514B015C01F801EA58FF4F849185
:101E50000E94CB3F898789E00E94CA3F8A8784E03D
:101E60000E94CA3F8B870E944D3B63E87FE30E943C
:101E7000393FBE01655F7F4F0E94CC3F69E571E04D
:101E80000E94603C67EA7FE30E94393F6BE37FE397
:101E90000E94393F6FE57FE30E94393FBE01665FD4
:101EA0007F4F0E94CC3FBE01675F7F4F0E94F13F92
:101EB000B501A4010E941F3EBE01685F7F4F0E94D2
:101EC000CC3F6CE771E00E94603C63E87FE30E94D6
:101ED000393FBE01695F7F4F0E94CC3FB7010E942E
:101EE000603C0E944D3BBE016F5F7F4F0E94573C9C
:101EF0002B960FB6F894DEBF0FBECDBFDF91CF910A
:101F00001F910F91FF90EF90DF90CF90BF90AF9017
:101F10009F908F907F906F905F904F903F902F9009
:101F20000895F801EE0FFF1FEE0FFF1FEE0FFF1FCA
:101F3000CF01801B910B8C01FC01E656FF4F2590D1
:101F4000349082E00E94CA3F8F8381E00E94CA3FA2
:101F50008887F801E456FF4F2591359145915491BA
:101F6000C301B2010E94D3512B013C01F801E0569C
:101F7000FF4F84910E94CB3F898789E00E94CA3F2E
:101F80008A8784E00E94CA3F8B870E944D3B63E8AA
:101F90007FE30E94393FBE01655F7F4F0E94CC3FC7
:101FA00066E571E00E94603C67EA7FE30E94393F8A
:101FB0006BE37FE30E94393F6FE57FE30E94393F87
:101FC000BE01665F7F4F0E94CC3FBE01675F7F4FBF
:101FD0000E94F13FB301A2010E941F3EBE01685F53
:101FE0007F4F0E94CC3F6CE771E00E94603C63E849
:101FF0007FE30E94393FBE01695F7F4F0E94CC3F63
:10200000B1010E94603CF4CE2F923F924F925F92BA
:102010006F927F928F929F92AF92BF92CF92DF92F8
:10202000EF920F931F93CF93DF9300D000D0CDB7E3
:10203000DEB71C01FC018385811125C00E943D1B78
:102040000E94921D0E9462320E94A4330E943D1B96
:10205000FC0180AD91AD892B59F10F900F900F903D
:102060000F90DF91CF911F910F91EF90DF90CF9064
:10207000BF90AF909F908F907F906F905F904F90A8
:102080003F902F9008950E9402470E942447F1013B
:1020900004851585268537856017710782079307A4
:1020A00068F2F10113860E9454250E94A425C6CF30
:1020B0000E946232FC0180AD91AD892B71F60E94C5
:1020C0003D1B0E94EA1D9B01AC0169833A834B834F
:1020D0005C830E9462320E94B3335B016C01F101A8
:1020E000868129813A814B815C81811119C02983C4
:1020F0003A834B835C830E946232FC018080918032
:102100000E943D1BFC0100811181EE24E394298192
:102110003A814B815C8161E0C1010E94C70E9DCF75
:1021200029833A834B835C830E9402470E942447A1
:10213000F101478050846184728429813A814B8106
:102140005C81641575058605970518F0F101168206
:10215000CECFF1018681811180CFC9CF2FEF8FE3E0
:1021600098E3215080409040E1F700C0000080914A
:10217000C302811107C086E892E00E94580E81E0F8
:102180008093C3020E94FD3A80E090E008952F9270
:102190003F924F925F926F927F928F929F92AF92F7
:1021A000BF92CF92DF92EF92FF920F931F93CF9344
:1021B000DF938C01EB01FC01E080F1806E157F055F
:1021C0000CF065C082809380A480B580A501940145
:1021D00060857185828593850E94AE4F2B013C01FD
:1021E000F801668177816E197F09072E000C880B34
:1021F000990B0E94D0509B01AC01C301B2010E9417
:1022000020502B013C01CE19DF09BE01DD0F880BE8
:10221000990B0E94D0509B01AC01C301B2010E94F6
:10222000D3519B01AC01C501B4010E94AF4F8B019A
:10223000D82FC92F2CE53FE842E85FE3C501B40180
:102240000E94D3516B017C019B01AC01B8018D2F21
:102250009C2F0E941B5087FDEDC0502F412F9E01E7
:10226000652F742F832F922FDF91CF911F910F91A4
:10227000FF90EF90DF90CF90BF90AF909F908F90A6
:102280007F906F905F904F903F902F900895FC014A
:10229000208C318C261637060CF47EC0A4E0B0E00A
:1022A0000DC04C175D070CF0CAC09C01CB01BF2DBF
:1022B000AC01421B530B42305105FCF02B2F30E098
:1022C0006A2F70E0C901860F971F95958795F82EA4
:1022D000FC01EE0FFF1FE80FF91FEE0FFF1FE00FCD
:1022E000F11F40815181C417D507DCF6A82FAC013E
:1022F000421B530B423051050CF7F901EE0FFF1F43
:10230000E20FF31FEE0FFF1FE00FF11F828093809B
:10231000A480B580E080F1809C01220F331F820FE2
:10232000931F880F991F080F191FA5019401F80129
:1023300062817381848195810E94AE4F2B013C01A3
:10234000F801608171816E197F09072E000C880BDE
:10235000990B0E94D0509B01AC01C301B2010E94B5
:1023600020502B013C01CE19DF09BE01DD0F880B87
:10237000990B0E94D0509B01AC01C301B2010E9495
:10238000D3519B01AC01C501B4010E94AF4F562F40
:10239000472F382F292F64CFC28CD38CE48CF58C37
:1023A00084889588A688B78802891389A501940135
:1023B000C701B6010E94AE4F2B013C01B101601B69
:1023C000710B072E000C880B990B0E94D0509B01BB
:1023D000AC01C301B2010E9420502B013C01C01B83
:1023E000D10BBE01DD0F880B990B0E94D0509B01D1
:1023F000AC01C301B2010E94D3519B01AC01C501E4
:10240000B4010E94AF4F8B01D82FC92F2CE53FE8B4
:1024100042E85FE3C701B6010E94D3516B017C0122
:102420009B01AC01B8018D2F9C2F0E94CE51181634
:102430000CF013CF5C2D4D2D3E2D2F2D11CF528141
:102440004381348125810CCF2F923F924F925F922E
:102450006F927F928F929F92AF92BF92CF92DF92B4
:10246000EF92FF920F931F93CF93DF93CDB7DEB719
:1024700028970FB6F894DEBF0FBECDBF8C016A015E
:102480007B01FC0182809380A480B5809A01AB011E
:10249000C501B4010E94CE51F80118160CF079C0A4
:1024A00060807180B301072C000C880B990B0E948F
:1024B000D05069837A838B839C83F801668177810E
:1024C00066197709072E000C880B990B0E94D050D3
:1024D0002B013C01A5019401F8016085718582857D
:1024E00093850E94AE4F9B01AC01C301B2010E94D3
:1024F00020502B013C01A5019401C701B6010E94A7
:10250000AE4F9B01AC01C301B2010E94D35129819E
:102510003A814B815C810E94AF4F8B015C012CE5BD
:102520003FE842E85FE369817A818B819C810E9468
:10253000D3516B017C019B01AC01B801C5010E9424
:102540001B5087FD23C1502F412F3A2D2B2D652F76
:10255000742F832F922F0E9440520E949250CB01E1
:1025600028960FB6F894DEBF0FBECDBFDF91CF9196
:102570001F910F91FF90EF90DF90CF90BF90AF90A1
:102580009F908F907F906F905F904F903F902F9093
:102590000895828C938CA48CB58CA7019601C501FB
:1025A000B4010E941B5087FD94C0F4E0F9831D82A2
:1025B00011C0A7019601C301B2010E941B5087FF01
:1025C000EAC045015101FE81FD83C50188199909C1
:1025D000029754F12D81822E912C3981232E312C9A
:1025E0005401A20CB31CB594A794AE82C501880F08
:1025F000991F8A0D9B1D880F991FFC01E00FF11F89
:10260000F887EF834280538064807580A70196012C
:10261000C301B2010E94CE5118165CF6A982C50111
:10262000881999090297B4F6F401EE0FFF1FE80D1F
:10263000F91DEE0FFF1FE00FF11F20803180428057
:10264000538064807580C501880F991F8A0D9B1D7A
:10265000880F991F080F191FF80160817181621995
:102660007309072E000C880B990B0E94D0504B0168
:102670005C01A3019201F8016281738184819581DB
:102680000E94AE4F9B01AC01C501B4010E942050D5
:102690004B015C01A3019201C701B6010E94AE4F3C
:1026A0009B01AC01C501B4010E94D3516B017C01B7
:1026B000B101330C880B990B0E94D0509B01AC01E7
:1026C000C701B6010E94AF4F562F472F382F292F31
:1026D0003ECFF801208C318C2289338938872F83B3
:1026E0004488558866887788B101621B730B072E72
:1026F000000C880B990B0E94D05069837A838B83DE
:102700009C83A3019201C501B4010E94AE4F9B01BD
:10271000AC0169817A818B819C810E9420504B01A0
:102720005C01A3019201C701B6010E94AE4F9B015B
:10273000AC01C501B4010E94D3516B017C01EF8152
:10274000F885BF01FF0F880B990B0E94D0509B01A9
:10275000AC01C701B6010E94AF4F8B015C01B10112
:10276000330C880B990B0E94D0502CE53FE842E8CF
:102770005FE30E94D3516B017C019B01AC01B80166
:10278000C5010E94CE5118160CF0DDCE5C2D4D2DEA
:102790003E2D2F2DDCCEEF81F88560817181072ED3
:1027A000000C880B990B0E94D050562F472F382FC2
:1027B000292FCDCE2F923F924F925F926F927F92B0
:1027C0008F929F92AF92BF92CF92DF92EF92FF9241
:1027D0000F931F93CF93DF938C01EB01FC01E080FB
:1027E000F1806E157F050CF065C082809380A48017
:1027F000B580A501940160857185828593850E94CD
:10280000AE4F2B013C01F801668177816E197F097B
:10281000072E000C880B990B0E94D0509B01AC0135
:10282000C301B2010E9420502B013C01CE19DF09E7
:10283000BE01DD0F880B990B0E94D0509B01AC01AB
:10284000C301B2010E94D3519B01AC01C501B40187
:102850000E94AF4F8B01D82FC92F2CE53FE842E8EB
:102860005FE3C501B4010E94D3516B017C019B0160
:10287000AC01B8018D2F9C2F0E941B5087FDEDC02D
:10288000502F412F9E01652F742F832F922FDF91A0
:10289000CF911F910F91FF90EF90DF90CF90BF905D
:1028A000AF909F908F907F906F905F904F903F90F0
:1028B0002F900895FC01208C318C261637060CF4DD
:1028C0007EC0A4E0B0E00DC04C175D070CF0CAC09C
:1028D0009C01CB01BF2DAC01421B530B4230510573
:1028E000FCF02B2F30E06A2F70E0C901860F971F94
:1028F00095958795F82EFC01EE0FFF1FE80FF91F45
:10290000EE0FFF1FE00FF11F40815181C417D50763
:10291000DCF6A82FAC01421B530B423051050CF7DB
:10292000F901EE0FFF1FE20FF31FEE0FFF1FE00F85
:10293000F11F82809380A480B580E080F1809C01AB
:10294000220F331F820F931F880F991F080F191F23
:10295000A5019401F80162817381848195810E94AF
:10296000AE4F2B013C01F801608171816E197F0926
:10297000072E000C880B990B0E94D0509B01AC01D4
:10298000C301B2010E9420502B013C01CE19DF0986
:10299000BE01DD0F880B990B0E94D0509B01AC014A
:1029A000C301B2010E94D3519B01AC01C501B40126
:1029B0000E94AF4F562F472F382F292F64CFC28C3C
:1029C000D38CE48CF58C84889588A688B788028996
:1029D0001389A5019401C701B6010E94AE4F2B01D6
:1029E0003C01B101601B710B072E000C880B990B89
:1029F0000E94D0509B01AC01C301B2010E94205043
:102A00002B013C01C01BD10BBE01DD0F880B990BC4
:102A10000E94D0509B01AC01C301B2010E94D3516E
:102A20009B01AC01C501B4010E94AF4F8B01D82FAF
:102A3000C92F2CE53FE842E85FE3C701B6010E94D9
:102A4000D3516B017C019B01AC01B8018D2F9C2FF0
:102A50000E94CE5118160CF013CF5C2D4D2D3E2D3B
:102A60002F2D11CF52814381348125810CCF2F929C
:102A70003F924F925F926F927F928F929F92AF920E
:102A8000BF92CF92DF92EF92FF920F931F93CF935B
:102A9000DF93CDB7DEB728970FB6F894DEBF0FBE31
:102AA000CDBF8C016A017B01FC0182809380A480F0
:102AB000B5809A01AB01C501B4010E94CE51F80165
:102AC00018160CF079C060807180B301072C000CDF
:102AD000880B990B0E94D05069837A838B839C83E7
:102AE000F8016681778166197709072E000C880B3B
:102AF000990B0E94D0502B013C01A5019401F801D3
:102B000060857185828593850E94AE4F9B01AC01E3
:102B1000C301B2010E9420502B013C01A501940188
:102B2000C701B6010E94AE4F9B01AC01C301B201C7
:102B30000E94D35129813A814B815C810E94AF4F21
:102B40008B015C012CE53FE842E85FE369817A8113
:102B50008B819C810E94D3516B017C019B01AC0154
:102B6000B801C5010E941B5087FD23C1502F412F82
:102B70003A2D2B2D652F742F832F922F0E944052B8
:102B80000E949250CB0128960FB6F894DEBF0FBE7C
:102B9000CDBFDF91CF911F910F91FF90EF90DF900C
:102BA000CF90BF90AF909F908F907F906F905F90ED
:102BB0004F903F902F900895828C938CA48CB58C6D
:102BC000A7019601C501B4010E941B5087FD94C066
:102BD000F4E0F9831D8211C0A7019601C301B2017F
:102BE0000E941B5087FFEAC045015101FE81FD8311
:102BF000C50188199909029754F12D81822E912CD3
:102C00003981232E312C5401A20CB31CB594A79406
:102C1000AE82C501880F991F8A0D9B1D880F991FD1
:102C2000FC01E00FF11FF887EF834280538064803E
:102C30007580A7019601C301B2010E94CE511816FA
:102C40005CF6A982C501881999090297B4F6F401C6
:102C5000EE0FFF1FE80DF91DEE0FFF1FE00FF11F34
:102C6000208031804280538064807580C501880F48
:102C7000991F8A0D9B1D880F991F080F191FF801B6
:102C80006081718162197309072E000C880B990B02
:102C90000E94D0504B015C01A3019201F8016281B6
:102CA0007381848195810E94AE4F9B01AC01C50167
:102CB000B4010E9420504B015C01A3019201C701A5
:102CC000B6010E94AE4F9B01AC01C501B4010E9448
:102CD000D3516B017C01B101330C880B990B0E941D
:102CE000D0509B01AC01C701B6010E94AF4F562FD7
:102CF000472F382F292F3ECFF801208C318C228985
:102D0000338938872F834488558866887788B1014E
:102D1000621B730B072E000C880B990B0E94D0507E
:102D200069837A838B839C83A3019201C501B401DB
:102D30000E94AE4F9B01AC0169817A818B819C819D
:102D40000E9420504B015C01A3019201C701B60112
:102D50000E94AE4F9B01AC01C501B4010E94D3514A
:102D60006B017C01EF81F885BF01FF0F880B990B88
:102D70000E94D0509B01AC01C701B6010E94AF4F29
:102D80008B015C01B101330C880B990B0E94D05070
:102D90002CE53FE842E85FE30E94D3516B017C01E0
:102DA0009B01AC01B801C5010E94CE5118160CF070
:102DB000DDCE5C2D4D2D3E2D2F2DDCCEEF81F88507
:102DC00060817181072E000C880B990B0E94D050F6
:102DD000562F472F382F292FCDCE2F923F924F922B
:102DE0005F926F927F928F929F92AF92BF92CF929B
:102DF000DF92EF92FF921F93CF93DF93CDB7DEB7B1
:102E00002C970FB6F894DEBF0FBECDBF1C016A0130
:102E10007B01DC018D909D90AD90BC90139748157F
:102E200059056A057B050CF07DC014962D913D91E6
:102E30004D915C91179729833A834B835C831C9651
:102E40006D917D918D919C911F970E94AE4F2B01AA
:102E50003C01F10180859185A285B385BC01CD013E
:102E6000681979098A099B090E94D0509B01AC011D
:102E7000C301B2010E9420502B013C01C701B601E1
:102E8000681979098A099B090E94D0509B01AC01FD
:102E9000C301B2010E94D3519B01AC0169817A81C7
:102EA0008B819C810E94AF4FF62E172F982EA92E52
:102EB0002CE53FE842E85FE369817A818B819C8160
:102EC0000E94D351B62EC72ED82EE92E262F372F8B
:102ED000482F592F6F2D712F892D9A2D0E941B502D
:102EE00087FD37C15F2D412F392D2A2D652F742F76
:102EF000832F922F2C960FB6F894DEBF0FBECDBF56
:102F0000DF91CF911F91FF90EF90DF90CF90BF9016
:102F1000AF909F908F907F906F905F904F903F9079
:102F20002F900895DC0190964D905D906D907C906F
:102F3000939744165506660677060CF495C014E080
:102F4000B12C0FC04C155D056E057F050CF006C158
:102F50009C01CD01BA2CAC01421B530B42305105F0
:102F60001CF12B2D30E0A12FB0E0C9018A0F9B1F6F
:102F700095958795A82EFC01EE0FFF1FEE0FFF1F02
:102F8000EE0FFF1FE20DF31D4081518162817381BD
:102F9000C416D506E606F706ACF6182FAC01421BA0
:102FA000530B42305105ECF6220F331F220F331F13
:102FB000220F331FF101E20FF31F84809580A6805A
:102FC000B780208131814281538129833A834B83A9
:102FD0005C83880F991F880F991F880F991F280EEF
:102FE000391EA5019401D10114966D917D918D91A9
:102FF0009C9117970E94AE4F2B013C01F1018081FB
:103000009181A281B381BC01CD0129813A814B819B
:103010005C81621B730B840B950B0E94D0509B014B
:10302000AC01C301B2010E9420502B013C01C70139
:10303000B60129813A814B815C81621B730B840B41
:10304000950B0E94D0509B01AC01C301B2010E94BC
:10305000D3519B01AC01C501B4010E94AF4F562F63
:10306000472F382F292F42CF94968D909D90AD9069
:10307000BC9097975C962D913D914D915C915F9797
:1030800029833A834B835C8358962D913D914D91D2
:103090005C915B972D833E834F83588729813A81CA
:1030A0004B815C81C501B4010E94AE4F69877A876C
:1030B0008B879C87C301B2012D813E814F8158854A
:1030C000621B730B840B950B0E94D0509B01AC01CB
:1030D00069857A858B859C850E9420502B013C0157
:1030E000C701B6012D813E814F815885621B730B4C
:1030F000840B950B0E94D0509B01AC01C301B2011F
:103100000E94D3519B01AC0169817A818B819C81A2
:103110000E94AF4FF62E172F3C012CE53FE842E806
:103120005FE3C501B4010E94D351B62EC72ED82E3D
:10313000E92E262F372F482F592F6F2D712FC301BE
:103140000E94CE5118162CF05F2D412F362D272DC1
:10315000CDCE5B2D4C2D3D2D2E2DC8CE54814581DD
:1031600036812781C3CE2F923F924F925F926F920A
:103170007F928F929F92AF92BF92CF92DF92EF9207
:10318000FF921F93CF93DF93CDB7DEB72C970FB687
:10319000F894DEBF0FBECDBF1C016A017B01DC01CC
:1031A0008D909D90AD90BC901397481559056A0578
:1031B0007B050CF07DC014962D913D914D915C9155
:1031C000179729833A834B835C831C966D917D917D
:1031D0008D919C911F970E94AE4F2B013C01F101F4
:1031E00080859185A285B385BC01CD0168197909D7
:1031F0008A099B090E94D0509B01AC01C301B20116
:103200000E9420502B013C01C701B60168197909C1
:103210008A099B090E94D0509B01AC01C301B201F5
:103220000E94D3519B01AC0169817A818B819C8181
:103230000E94AF4FF62E172F982EA92E2CE53FE8AF
:1032400042E85FE369817A818B819C810E94D3513E
:10325000B62EC72ED82EE92E262F372F482F592FBE
:103260006F2D712F892D9A2D0E941B5087FD37C11C
:103270005F2D412F392D2A2D652F742F832F922FEB
:103280002C960FB6F894DEBF0FBECDBFDF91CF9165
:103290001F91FF90EF90DF90CF90BF90AF909F90E5
:1032A0008F907F906F905F904F903F902F900895F8
:1032B000DC0190964D905D906D907C9093974416B4
:1032C0005506660677060CF495C014E0B12C0FC0C5
:1032D0004C155D056E057F050CF006C19C01CD0106
:1032E000BA2CAC01421B530B423051051CF12B2D63
:1032F00030E0A12FB0E0C9018A0F9B1F95958795FB
:10330000A82EFC01EE0FFF1FEE0FFF1FEE0FFF1F99
:10331000E20DF31D4081518162817381C416D5068F
:10332000E606F706ACF6182FAC01421B530B4230F1
:103330005105ECF6220F331F220F331F220F331FCC
:10334000F101E20FF31F84809580A680B780208171
:1033500031814281538129833A834B835C83880F77
:10336000991F880F991F880F991F280E391EA501D4
:103370009401D10114966D917D918D919C91179737
:103380000E94AE4F2B013C01F10180819181A2810D
:10339000B381BC01CD0129813A814B815C81621BE3
:1033A000730B840B950B0E94D0509B01AC01C301A1
:1033B000B2010E9420502B013C01C701B6012981B6
:1033C0003A814B815C81621B730B840B950B0E94CD
:1033D000D0509B01AC01C301B2010E94D3519B01AB
:1033E000AC01C501B4010E94AF4F562F472F382FB3
:1033F000292F42CF94968D909D90AD90BC90979739
:103400005C962D913D914D915C915F9729833A8314
:103410004B835C8358962D913D914D915C915B97C8
:103420002D833E834F83588729813A814B815C816C
:10343000C501B4010E94AE4F69877A878B879C874C
:10344000C301B2012D813E814F815885621B730BF0
:10345000840B950B0E94D0509B01AC0169857A8545
:103460008B859C850E9420502B013C01C701B60131
:103470002D813E814F815885621B730B840B950B08
:103480000E94D0509B01AC01C301B2010E94D351F4
:103490009B01AC0169817A818B819C810E94AF4F35
:1034A000F62E172F3C012CE53FE842E85FE3C5010B
:1034B000B4010E94D351B62EC72ED82EE92E262F46
:1034C000372F482F592F6F2D712FC3010E94CE51D6
:1034D00018162CF05F2D412F362D272DCDCE5B2DCC
:1034E0004C2D3D2D2E2DC8CE54814581368127810E
:1034F000C3CE0895549A559808955C9808955C9A9F
:1035000008950895089589B185FB882780F991E091
:10351000892708958530910540F4FC01EE0FFF1FC7
:10352000E855FE4F859194910895E8EAF1E0859180
:10353000949108954F925F926F927F928F929F9293
:10354000AF92BF92EF92FF920F931F93CF93DF93AF
:10355000EC018B01FC01619371937F01CB010E940F
:10356000CA305C010E94EF30A701B5010E941C46E1
:10357000889709F466C0F801EE0FFF1FEE0FFF1FDA
:10358000E157FE4F85909590A590B490C501B40188
:10359000905823E3422E542C23EF622E77247A9402
:1035A0004A825B826C827D826E837F838887998763
:1035B00031EE432E3AE7532E34EF632E77247A947C
:1035C0004A865B866C867D8626E636E646E65FE3BF
:1035D0000E94D3516E877F87888B998B1A8A1B8AAA
:1035E0001C8A1D8A1E8A1F8A188E198E8FE195E803
:1035F000ABE0B0E08A8F9B8FAC8FBD8F26E636E6BE
:1036000046E65FE3C501B4010E94D3516E8F7F8F00
:1036100088A399A38DEC9CECACE0B0E08AA39BA3BB
:10362000ACA3BDA38EA29FA2A8A6B9A688819981AA
:103630000E94CA305C010E94EF30A701B5010E94D0
:103640008646AA96CE010E944D42F801ED55FE4FE6
:103650000491682F607F602BCE01DF91CF911F9185
:103660000F91FF90EF90BF90AF909F908F907F90C1
:103670006F905F904F900C942F4280910D038111B9
:1036800086C01092D5021092D6021092D7021092E4
:10369000D8021092D9021092DA021092DB02109234
:1036A000DC021092DD021092DE021092DF02109214
:1036B000E0021092E1021092E2021092E3021092F4
:1036C000E4021092E5021092E6021092E7021092D4
:1036D000E8021092E9021092EA021092EB021092B4
:1036E000EC021092ED021092EE021092EF02109294
:1036F000F0021092F1021092F2021092F302109274
:10370000F4021092F5021092F6021092F702109253
:10371000F8021092F9021092FA021092FB02109233
:10372000FC0260E08DEF92E00E942C428EEF92E06E
:103730000E94A7438BE092E09093FF028093FE02E9
:103740008EEF92E00E94C24360E170E081E093E07E
:103750000E94EC4A8DEF92E00E94C342682F607F86
:103760008DEF92E00E94EF428DEF92E00E9479424D
:10377000682F607F8DEF92E00E94A54262E070E0CA
:1037800083ED92E00E949A1A81E080930D0383ED0D
:1037900092E00895AF92BF92CF92DF92EF92FF92A4
:1037A0000F931F93CF93DF93CDB7DEB727970FB655
:1037B000F894DEBF0FBECDBF5C01613081E07807B9
:1037C00010F060E071E0CE0101960E946E4B2B81FB
:1037D0003C818D819E812817390709F452C08501EB
:1037E000055D1F4F16C00E946C446B017C0144278D
:1037F0005527BA014C195D096E097F09CE01019662
:103800000E94884B2B813C818D819E81281739072E
:10381000C1F10E94713AFC01C080D1800D2C000CD6
:10382000EE08FF087601DD24CC240E94713AFC01E9
:1038300082819381092E000CAA0BBB0BBA2FA92FF2
:10384000982F8827C82AD92AEA2AFB2A0E94713A87
:10385000FC0184819581092E000CAA0BBB0BC82AA0
:10386000D92AEA2AFB2A60E0C801C114D104F3E096
:10387000EF06F10408F0B7CF0E946C44AB01BC0125
:10388000BDCFCE0101960E94AA4B0E9440520E94D9
:103890009250AB01BC01C50102960E94ED166B016E
:1038A0007C01CE0101960E94834BC701B601279689
:1038B0000FB6F894DEBF0FBECDBFDF91CF911F9141
:1038C0000F91FF90EF90DF90CF90BF90AF90089551
:1038D000CF92DF92EF92FF920F931F93CF93DF93DC
:1038E000EC01E881F981EE0FFF1FEE0FFF1FE1579A
:1038F000FE4FC590D590E590F490C701B601905861
:1039000003E313E323EF3FEF0A831B832C833D8301
:103910006E837F838887998701EE1AE724EF3FEF54
:103920000A871B872C873D8726E636E646E65FE357
:103930000E94D3516E877F87888B998B1A8A1B8A46
:103940001C8A1D8A1E8A1F8A188E198E8FE195E89F
:10395000ABE0B0E08A8F9B8FAC8FBD8F26E636E65A
:1039600046E65FE3C701B6010E94D3516E8F7F8F99
:1039700088A399A38DEC9CECACE0B0E08AA39BA358
:10398000ACA3BDA3CEA2DFA2E8A6F9A6DF91CF919A
:103990001F910F91FF90EF90DF90CF9008954F927D
:1039A0005F926F927F928F929F92AF92BF92CF92CF
:1039B000DF92EF92FF920F931F93CF93DF93CDB7D8
:1039C000DEB72C970FB6F894DEBF0FBECDBF4C010B
:1039D0005B0129013A0160E870E0CE0101960E9486
:1039E000EC4A8B859C85892B09F457C08401055DC1
:1039F0001F4F14C00E946C446B017C014427552763
:103A0000BA014C195D096E097F09CE0101960E9429
:103A1000084B8B859C85892B09F43FC00E94713A25
:103A2000FC01C080D1800D2C000CEE08FF0876014F
:103A3000DD24CC240E94713AFC0182819381092EFD
:103A4000000CAA0BBB0BBA2FA92F982F8827C82AC6
:103A5000D92AEA2AFB2A0E94713AFC0184819581C5
:103A6000092E000CAA0BBB0BC82AD92AEA2AFB2A6A
:103A700060E0C801C114D104F3E0EF06F10408F0DE
:103A8000B9CF0E946C44AB01BC01CE0101960E94EB
:103A9000084B8B859C85892B09F6CE0101960E94E7
:103AA000434B0E944052BB24AA0CBB1CAA0CBB1C5B
:103AB000AA0CBB1C8A0C9B1C0E949250F4016283CE
:103AC00073838483958346825782608671862C96A1
:103AD0000FB6F894DEBF0FBECDBFDF91CF911F911F
:103AE0000F91FF90EF90DF90CF90BF90AF909F909D
:103AF0008F907F906F905F904F9008950F931F93DA
:103B0000CF93DF93EC01899199910E94CA308C0187
:103B10000E94EF30AE01B801DF91CF911F910F915C
:103B20000C948646CF92DF92EF92FF920F931F93F1
:103B3000CF93DF93EC010E94713AFC01C080D180E9
:103B40000D2C000CEE08FF087601DD24CC240E9429
:103B5000713AFC0182819381092E000CAA0BBB0BE8
:103B6000BA2FA92F982F8827C82AD92AEA2AFB2AF0
:103B70000E94713AFC0184819581092E000CAA0BE8
:103B8000BB0BC82AD92AEA2AFB2A60E0CE018B9611
:103B9000C114D104F3E0EF06F104B8F00E946C44C4
:103BA0008B019C0144275527BA01401B510B620B26
:103BB000730BCE018E96DF91CF911F910F91FF90E5
:103BC000EF90DF90CF900C94084B0E946C44AB01B7
:103BD000BC01EFCFCF92DF92EF92FF920F931F9332
:103BE000CF93DF938C01EC01AE96CE010E94434B44
:103BF0000E9440520E949250AB01BC01C801029643
:103C00000E94ED166B017C01CE010E94FA4AC701A9
:103C1000B601DF91CF911F910F91FF90EF90DF9050
:103C2000CF9008955F9808955F9A0895579A0895E0
:103C30008530910540F4FC01EE0FFF1FE553FE4F68
:103C4000859194910895EBECF1E08591949108951C
:103C50008F929F92AF92BF92CF92DF92EF92FF929C
:103C60000F931F93CF93DF93EC0181E08AA77E012E
:103C700084E2E80EF11CC7010E944D42682F6F7E5E
:103C8000C7010E942F420C811D816E0186E0C80E83
:103C9000D11CC8010E94AA305C010E94EF30A6012D
:103CA000B5010E941C464E9709F44DC0F801EE0F75
:103CB000FF1FEE0FFF1FEE54FE4F85909590A590CD
:103CC000B490C501B40190582BEB33EF3F832E83A2
:103CD000688779878A879B8725EF34EF3D872C8714
:103CE00026E636E646E65FE30E94D3516E877F877D
:103CF000888B998B1B8A1A8A1C8A1D8A1E8A1F8AA6
:103D00008BE09BE0998F888F26E636E646E65FE3F8
:103D1000C501B4010E94D3516A8F7B8F8C8F9D8F18
:103D200085E49CE09F8F8E8F88A299A2AAA2BBA255
:103D30008C819D810E94AA305C010E94EF30A60117
:103D4000B5010E948646C7010E944D42F801EA5320
:103D5000FE4F0491682F607F602BC7010E942F42A5
:103D60008AA581110DC0DF91CF911F910F91FF9016
:103D7000EF90DF90CF90BF90AF909F908F9008957D
:103D8000488159816A817B81C6010E9424128C017D
:103D9000BC01C6010E94C710688379838A839B8314
:103DA000B8017058CE018596DF91CF911F910F9188
:103DB000FF90EF90DF90CF90BF90AF909F908F904B
:103DC0000C945543FC0112A608958F929F92AF92D6
:103DD000BF92CF92DF92EF92FF920F931F93CF93F8
:103DE000DF93EC018B017D836C837C0186E0E80E20
:103DF000F11CCB010E94AA306C010E94EF30A70198
:103E0000B6010E941C464E9709F44DC0F801EE0F12
:103E1000FF1FEE0FFF1FEE54FE4F85909590A5906B
:103E2000B490C501B40190582BEB33EF3F832E8340
:103E3000688779878A879B8725EF34EF3D872C87B2
:103E400026E636E646E65FE30E94D3516E877F871B
:103E5000888B998B1B8A1A8A1C8A1D8A1E8A1F8A44
:103E60008BE09BE0998F888F26E636E646E65FE397
:103E7000C501B4010E94D3516A8F7B8F8C8F9D8FB7
:103E800085E49CE09F8F8E8F88A299A2AAA2BBA2F4
:103E90008C819D810E94AA306C010E94EF30A701A5
:103EA000B6010E9486466E0184E2C80ED11CC6018E
:103EB0000E944D42F801EA53FE4F0491682F607F43
:103EC000602BC6010E942F428AA581110DC0DF918F
:103ED000CF911F910F91FF90EF90DF90CF90BF9007
:103EE000AF909F908F900895488159816A817B811E
:103EF000C7010E9424128C01BC01C7010E94C71097
:103F0000688379838A839B83B8017058CE01859634
:103F1000DF91CF911F910F91FF90EF90DF90CF90A5
:103F2000BF90AF909F908F900C945543CF92DF92AB
:103F3000EF92FF920F931F93CF93DF93EC011882C0
:103F400019821A821B8282E090E09D838C836E012D
:103F500086E0C80ED11C1F821E82188619861A861A
:103F60001B861D861C861E861F86188A198A1B8A38
:103F70001A8A1C8A1D8A1E8A1F8A198E188E1A8E0A
:103F80001B8E1C8E1D8E1F8E1E8E18A219A21AA2A9
:103F90001BA28E010C5D1F4F60E0C8010E942C42E5
:103FA0007E0185E2E80EF11CC7010E9410438DE1FD
:103FB00092E09EA38DA3C7010E942D431AA6C801BB
:103FC0000E94C342682F607CC8010E94EF42C80172
:103FD0000E947942682F607CC8010E94A54262E07D
:103FE00070E0CE010E94E51E40E050E0BA01C6013B
:103FF0000E9424128C01BC01C6010E94C710688374
:1040000079838A839B83B8017058C701DF91CF9170
:104010001F910F91FF90EF90DF90CF900C9455433C
:1040200080914003811107C085E193E00E94961FB3
:1040300081E08093400385E193E00895EF92FF9241
:104040000F931F93CF93DF938C017C0186E0E80EE2
:10405000F11CC7010E942412EC01BC01C7010E949F
:10406000C710F8016083718382839383BE01705807
:10407000C8018596DF91CF911F910F91FF90EF902E
:104080000C945543CF92DF92EF92FF92CF93DF9340
:10409000EC01EC81FD81EE0FFF1FEE0FFF1FEE54D0
:1040A000FE4FC590D590E590F490C701B6019058A9
:1040B0002BEB33EF3F832E83688779878A879B8733
:1040C00025EF34EF3D872C8726E636E646E65FE3AC
:1040D0000E94D3516E877F87888B998B1B8A1A8A9F
:1040E0001C8A1D8A1E8A1F8A8BE09BE0998F888F0D
:1040F00026E636E646E65FE3C701B6010E94D351E5
:104100006A8F7B8F8C8F9D8F85E49CE09F8F8E8F35
:10411000C8A2D9A2EAA2FBA2DF91CF91FF90EF90B3
:10412000DF90CF9008957727FB01EE0FFF1FE60F7A
:10413000F71FEE0FFF1FE80FF91F66817781705898
:1041400085960C9455437727FB01EE0FFF1F6E0FEA
:104150007F1F660F771F860F971FFC01208731870F
:104160004287538708950F931F93CF93DF93EC01FA
:104170008C819D810E94AA308C010E94EF30AE019B
:104180004A5F5F4FB801DF91CF911F910F910C945F
:104190008646089521E030E0FC0130AF27ABBC013A
:1041A000695C7F4F0C943E3B4430510508F4089500
:1041B00028E030E0FC0130AF27ABBC01695C7F4FE9
:1041C0000C943E3B4430510508F408952EE030E055
:1041D000FC0130AF27ABBC01695C7F4F0C943E3BC8
:1041E0004430510508F4089523E130E0FC0130AF7C
:1041F00027ABBC01695C7F4F0C943E3B44305105BA
:1042000008F4089528E130E0FC0130AF27ABBC0191
:10421000695C7F4F0C943E3B4430510508F408958F
:104220002AE130E0FC0130AF27ABBC01695C7F4F75
:104230000C943E3B4430510508F408952BE130E0E6
:10424000FC0130AF27ABBC01695C7F4F0C943E3B57
:104250004430510508F408952CE130E0FC0130AF02
:1042600027ABBC01695C7F4F0C943E3B4430510549
:1042700008F408952DE130E0FC0130AF27ABBC011C
:10428000695C7F4F0C943E3B4430510508F408951F
:1042900021E230E0FC0130AF27ABBC01695C7F4F0D
:1042A0000C943E3B4430510508F4089522E230E07E
:1042B000FC0130AF27ABBC01695C7F4F0C943E3BE7
:1042C0004430510508F4089526E230E0FC0130AF97
:1042D00027ABBC01695C7F4F0C943E3B44305105D9
:1042E00008F4089528E230E0FC0130AF27ABBC01B0
:1042F000695C7F4F0C943E3B4430510508F40895AF
:104300002AE230E0FC0130AF27ABBC01695C7F4F93
:104310000C943E3B4430510508F408952CE230E003
:10432000FC0130AF27ABBC01695C7F4F0C943E3B76
:104330000F931F93FB01A081B1812B2F3A2F2E32B7
:10434000310540F5EB2FFA2FEE0FFF1FEE0FFF1F89
:10435000EB52FE4F0591159125913491F80120FF04
:1043600012C0F901F595E795DC01AE0FBF1FED9185
:10437000FC911197E00FF11F0190F081E02DCD012C
:104380001F910F91099435952795820F931F1F91C7
:104390000F9109941F910F9108954830510508F429
:1043A0000895DB011596EC9115971496FC91E23077
:1043B000F10580F0E7EBF2E02591349143E050E025
:1043C000FC0150AF47AB32AF21AFBC01695C7F4FFE
:1043D0000C943E3BEE0FFF1FE954FD4FEDCF4830EC
:1043E000510508F40895DB011596EC911597149684
:1043F000FC91E530F10590F4EE0FFF1FE355FD4F02
:104400002591349144E050E0FC0150AF47AB32AF0E
:1044100021AFBC01695C7F4F0C943E3BEDEAF2E0BA
:10442000EFCF4830510578F0FB012481358145E01C
:1044300050E0FC0150AF47AB31AF22AFBC01695C2B
:104440007F4F0C943E3B08954830510578F0FB01B6
:104450002481358146E050E0FC0150AF47AB31AFDD
:1044600022AFBC01695C7F4F0C943E3B08954830FD
:10447000510508F40895DB011596EC9115971496F3
:10448000FC91E230F10580F0E9EAF2E02591349107
:104490004AE050E0FC0150AF47AB32AF21AFBC0166
:1044A000695C7F4F0C943E3BEE0FFF1FE755FD4FBD
:1044B000EDCF4830510578F0FB01248135814BE088
:1044C00050E0FC0150AF47AB31AF22AFBC01695C9B
:1044D0007F4F0C943E3B08954830510578F0FB0126
:1044E000248135814CE050E0FC0150AF47AB31AF47
:1044F00022AFBC01695C7F4F0C943E3B089548306D
:10450000510508F40895DB011596EC911597149662
:10451000FC91E530F10590F4EE0FFF1FE156FD4FE1
:104520002591349140E150E0FC0150AF47AB32AFF0
:1045300021AFBC01695C7F4F0C943E3BEFE9F2E098
:10454000EFCF4830510578F0FB012481358141E1FE
:1045500050E0FC0150AF47AB31AF22AFBC01695C0A
:104560007F4F0C943E3B08954830510578F0FB0195
:104570002481358144E150E0FC0150AF47AB31AFBD
:1045800022AFBC01695C7F4F0C943E3B08954830DC
:10459000510508F40895DB011596EC9115971496D2
:1045A000FC91E630F10590F4EE0FFF1FED56FD4F44
:1045B0002591349145E150E0FC0150AF47AB32AF5B
:1045C00021AFBC01695C7F4F0C943E3BE3E9F2E014
:1045D000EFCF4830510578F0FB012481358146E169
:1045E00050E0FC0150AF47AB31AF22AFBC01695C7A
:1045F0007F4F0C943E3B08954830510578F0FB0105
:104600002481358149E150E0FC0150AF47AB31AF27
:1046100022AFBC01695C7F4F0C943E3B089548304B
:10462000510578F0FB01248135814EE150E0FC0119
:1046300050AF47AB31AF22AFBC01695C7F4F0C94E8
:104640003E3B08954830510508F40895E1E9F2E051
:104650002591349143E250E0FC0150AF47AB32AFBB
:1046600021AFBC01695C7F4F0C943E3B4830510543
:1046700078F0FB012481358144E250E0FC0150AF29
:1046800047AB31AF22AFBC01695C7F4F0C943E3B1E
:1046900008954830510578F0FB012481358147E2C7
:1046A00050E0FC0150AF47AB31AF22AFBC01695CB9
:1046B0007F4F0C943E3B08954830510508F408950F
:1046C000DB011596EC9115971496FC91E230F105FB
:1046D00080F0EDE8F2E02591349149E250E0FC01F0
:1046E00050AF47AB32AF21AFBC01695C7F4F0C9438
:1046F0003E3BEE0FFF1FE357FD4FEDCF4830510516
:1047000078F0FB01248135814DE250E0FC0150AF8F
:1047100047AB31AF22AFBC01695C7F4F0C943E3B8D
:104720000895FB014830510590F024813581468180
:10473000578162E070E0FC0170AF67AB51AF42AFF0
:1047400033AF24AFBC01695C7F4F0C943E3B0895AE
:10475000FB0148305105A0F0478156816581748185
:104760002BE230E0FC0130AF27AB6627772741AF63
:1047700052AF63AF74AFBC01695C7F4F0C943E3B9A
:104780000895FB014C305105D0F044815581B3852B
:10479000A2853185208567E070E0FC0170AF67ABD2
:1047A00051AF42AF4B2F5A2F632F722F43AF54AFED
:1047B00065AF76AFBC01695C7F4F0C943E3B0895BA
:1047C000FB0148305105B0F0B781A68135812481C5
:1047D00049E050E0FC0150AF47AB4B2F5A2F632FFD
:1047E000722F41AF52AF63AF74AFBC01695C7F4FB2
:1047F0000C943E3B0895FB014C305105D0F04481B0
:104800005581B385A285318520856DE070E0FC017E
:1048100070AF67AB51AF42AF4B2F5A2F632F722F40
:1048200043AF54AF65AF76AFBC01695C7F4F0C946A
:104830003E3B0895FB0148305105B0F0B781A68199
:10484000358124814FE050E0FC0150AF47AB4B2F46
:104850005A2F632F722F41AF52AF63AF74AFBC01B9
:10486000695C7F4F0C943E3B0895FB014C30510531
:10487000D0F044815581B385A2853185208562E1E0
:1048800070E0FC0170AF67AB51AF42AF4B2F5A2FB6
:10489000632F722F43AF54AF65AF76AFBC01695C35
:1048A0007F4F0C943E3B0895FB014C305105D0F0F6
:1048B00044815581B385A2853185208567E170E00B
:1048C000FC0170AF67AB51AF42AF4B2F5A2F632F34
:1048D000722F43AF54AF65AF76AFBC01695C7F4FB9
:1048E0000C943E3B0895FB014C305105D0F04481BF
:1048F0005581B385A2853185208565E270E0FC0194
:1049000070AF67AB51AF42AF4B2F5A2F632F722F4F
:1049100043AF54AF65AF76AFBC01695C7F4F0C9479
:104920003E3B08954830510578F0FB0124813581E4
:104930004FE150E0FC0150AF47AB31AF22AFBC01BB
:10494000695C7F4F0C943E3B0895FB014830510554
:1049500090F0448155812681378160E270E0FC014E
:1049600070AF67AB51AF42AF33AF24AFBC01695CEE
:104970007F4F0C943E3B0895AF92BF92CF92DF924F
:10498000EF92FF920F931F93CF93DF937C010E94CE
:10499000E7470E94A7485C010E94DD47EC01892B94
:1049A00059F4DF91CF911F910F91FF90EF90DF901D
:1049B000CF90BF90AF900895670186E0C80ED11CDC
:1049C00085015701EEE0AE0EB11C05C0C6010E9484
:1049D0007241219731F3F80161918F01C6010E9464
:1049E0008641F70190A99923A1F340855185443070
:1049F000510560F3B501C7010E949821E7CF8530CA
:104A0000910540F4FC01EE0FFF1FE355FD4F85912A
:104A100094910895EDEAF2E08591949108958230A1
:104A2000910528F0E9EAF2E0859194910895FC015E
:104A3000EE0FFF1FE755FD4F859194910895853046
:104A4000910540F4FC01EE0FFF1FE156FD4F8591EB
:104A500094910895EFE9F2E085919491089586305C
:104A6000910540F4FC01EE0FFF1FED56FD4F8591BF
:104A700094910895E3E9F2E0859194910895E1E934
:104A8000F2E08591949108958230910528F0EDE847
:104A9000F2E0859194910895FC01EE0FFF1FE3571A
:104AA000FD4F85919491089580918703811119C0DC
:104AB00088E493E00E941E3B87E292E090934903D2
:104AC000809348038EE493E00E945E410E94E74792
:104AD00040E855E260E070E00E944D4881E080933C
:104AE000870388E493E00895CF93DF9300D000D04C
:104AF000CDB7DEB749835A836B837C830E94E74737
:104B000049815A816B817C810F900F900F900F909B
:104B1000DF91CF910C942C48CF93DF9300D000D03D
:104B2000CDB7DEB749835A836B837C830E94E74706
:104B300049815A816B817C810F900F900F900F906B
:104B4000DF91CF910C944D480E94E74740E855E231
:104B500060E070E00C944D488F929F92AF92BF92AC
:104B6000CF92DF92EF92FF920F931F93CF93DF9339
:104B700000D000D0CDB7DEB75B0106966C016CE2C9
:104B800070E029833A834B835C830E944D414C0142
:104B9000FC01108681E08187138612865C8154A710
:104BA0004B8145A73A8136A7298127A710AB01ABD6
:104BB000F2AAE3AAC4010C9620E2FC0111922A9504
:104BC000E9F7B5010E94EA54C4010E942E41F401A4
:104BD000058114810E94E747A801485F5F4FB40137
:104BE0000E94E248B401C6010F900F900F900F9001
:104BF000DF91CF911F910F91FF90EF90DF90CF90B9
:104C0000BF90AF909F908F900C945D41EF92FF9278
:104C10000F931F93CF93DF9306967C0164E070E0BF
:104C20000E944D41EC01188619861B861A860E9447
:104C30002E410D811C810E94E747A801485F5F4F0C
:104C4000BE010E94E248BE01C701DF91CF911F91D2
:104C50000F91FF90EF900C945D41CF92DF92EF9215
:104C6000FF920F931F93CF93DF9300D0CDB7DEB7A2
:104C7000162F072F06967C0168E070E049835A835F
:104C80000E944D416C01FC01108682E081871386F1
:104C90001286048715875A81568749814787C6013E
:104CA0000E942E41F601058114810E94E747A80168
:104CB000485F5F4FB6010E94E248B601C7010F90FE
:104CC0000F90DF91CF911F910F91FF90EF90DF90A8
:104CD000CF900C945D41EF92FF920F931F93CF936F
:104CE000DF93162F072F06967C0168E070E00E9484
:104CF0004D41EC01188683E089871B861A860C8754
:104D00001D871F861E86CE010E942E410D811C81AB
:104D10000E94E747A801485F5F4FBE010E94E2483A
:104D2000BE01C701DF91CF911F910F91FF90EF90CE
:104D30000C945D41EF92FF920F931F93CF93DF93FB
:104D4000162F072F06967C0168E070E00E944D4107
:104D5000EC01188684E089871B861A860C871D87DC
:104D60001F861E86CE010E942E410D811C810E944D
:104D7000E747A801485F5F4FBE010E94E248BE01BD
:104D8000C701DF91CF911F910F91FF90EF900C948D
:104D90005D41AF92BF92CF92DF92EF92FF920F935D
:104DA0001F93CF93DF9300D000D0CDB7DEB7D62EC0
:104DB000C72E06967C016CE070E02B833C83498310
:104DC0005A830E944D415C01FC01108685E0818779
:104DD00013861286C486D5865A81568749814787AD
:104DE0003C812B81C801432F522F692F702FF50171
:104DF000408B518B628B738BC5010E942E41F50154
:104E0000058114810E94E747A801485F5F4FB50103
:104E10000E94E248B501C7010F900F900F900F90CC
:104E2000DF91CF911F910F91FF90EF90DF90CF9086
:104E3000BF90AF900C945D41AF92BF92CF92DF9242
:104E4000EF92FF920F931F93CF93DF9300D000D088
:104E5000CDB7DEB7D62EC72E06967C016CE070E08B
:104E60002B833C8349835A830E944D415C01FC01A2
:104E7000108686E0818713861286C486D5865A817D
:104E80005687498147873C812B81C801432F522F88
:104E9000692F702FF501408B518B628B738BC5018D
:104EA0000E942E41F501058114810E94E747A80167
:104EB000485F5F4FB5010E94E248B501C7010F90FE
:104EC0000F900F900F90DF91CF911F910F91FF9056
:104ED000EF90DF90CF90BF90AF900C945D41AF9278
:104EE000BF92CF92DF92EF92FF920F931F93CF93D7
:104EF000DF9300D000D0CDB7DEB7D62EC72E0696F2
:104F00007C016CE070E02B833C8349835A830E94D0
:104F10004D415C01FC01108687E081871386128673
:104F2000C486D5865A815687498147873C812B8123
:104F3000C801432F522F692F702FF501408B518BE1
:104F4000628B738BC5010E942E41F501058114818E
:104F50000E94E747A801485F5F4FB5010E94E24801
:104F6000B501C7010F900F900F900F90DF91CF9177
:104F70001F910F91FF90EF90DF90CF90BF90AF9077
:104F80000C945D41EF92FF920F931F93CF93DF93A9
:104F900006967C0164E070E00E944D41EC011886A9
:104FA00088E089871B861A86CE010E942E410D81DA
:104FB0001C810E94E747A801485F5F4FBE010E9425
:104FC000E248BE01C701DF91CF911F910F91FF9081
:104FD000EF900C945D41CF92DF92EF92FF920F938E
:104FE0001F93CF93DF9300D0CDB7DEB7162F072FD7
:104FF00006967C0168E070E049835A830E944D4127
:105000006C01FC01108689E08187138612865A8123
:10501000952F4981842F402F512F692F782F448756
:10502000558766877787C6010E942E41F601058164
:1050300014810E94E747A801485F5F4FB6010E94B4
:10504000E248B601C7010F900F90DF91CF911F91F9
:105050000F91FF90EF90DF90CF900C945D41EF9215
:10506000FF920F931F93CF93DF93162F072F069670
:105070007C0168E070E00E944D41EC0118868AE0F6
:1050800089871B861A860C871D871F861E86CE0180
:105090000E942E410D811C810E94E747A801485FB4
:1050A0005F4FBE010E94E248BE01C701DF91CF9170
:1050B0001F910F91FF90EF900C945D41AF92BF92C2
:1050C000CF92DF92EF92FF920F931F93CF93DF93D4
:1050D00000D000D0CDB7DEB7D62EC72E06967C0105
:1050E0006CE070E02B833C8349835A830E944D41DE
:1050F0005C01FC0110868BE0818713861286C486D2
:10510000D5865A815687498147873C812B81C801C2
:10511000432F522F692F702FF501408B518B628BDB
:10512000738BC5010E942E41F501058114810E94F7
:10513000E747A801485F5F4FB5010E94E248B5010B
:10514000C7010F900F900F900F90DF91CF911F919B
:105150000F91FF90EF90DF90CF90BF90AF900C94A5
:105160005D41AF92BF92CF92DF92EF92FF920F9389
:105170001F93CF93DF9300D000D0CDB7DEB7D62EEC
:10518000C72E06967C016CE070E02B833C8349833C
:105190005A830E944D415C01FC0110868CE081879E
:1051A00013861286C486D5865A81568749814787D9
:1051B0003C812B81C801432F522F692F702FF5019D
:1051C000408B518B628B738BC5010E942E41F50180
:1051D000058114810E94E747A801485F5F4FB50130
:1051E0000E94E248B501C7010F900F900F900F90F9
:1051F000DF91CF911F910F91FF90EF90DF90CF90B3
:10520000BF90AF900C945D41AF92BF92CF92DF926E
:10521000EF92FF920F931F93CF93DF9300D000D0B4
:10522000CDB7DEB7D62EC72E06967C016CE070E0B7
:105230002B833C8349835A830E944D415C01FC01CE
:1052400010868DE0818713861286C486D5865A81A2
:105250005687498147873C812B81C801432F522FB4
:10526000692F702FF501408B518B628B738BC501B9
:105270000E942E41F501058114810E94E747A80193
:10528000485F5F4FB5010E94E248B501C7010F902A
:105290000F900F900F90DF91CF911F910F91FF9082
:1052A000EF90DF90CF90BF90AF900C945D41EF9264
:1052B000FF920F931F93CF93DF9306967C0164E0D8
:1052C00070E00E944D41EC0118868EE089871B86B4
:1052D0001A86CE010E942E410D811C810E94E74753
:1052E000A801485F5F4FBE010E94E248BE01C701AE
:1052F000DF91CF911F910F91FF90EF900C945D4142
:10530000CF92DF92EF92FF920F931F93CF93DF9391
:1053100000D0CDB7DEB7162F072F06967C0168E0C8
:1053200070E049835A830E944D416C01FC01108654
:105330008FE08187138612865A81952F4981842FA9
:10534000402F512F692F782F44875587668777879D
:10535000C6010E942E41F601058114810E94E74793
:10536000A801485F5F4FB6010E94E248B601C7013D
:105370000F900F90DF91CF911F910F91FF90EF90C1
:10538000DF90CF900C945D41EF92FF920F931F93AB
:10539000CF93DF93162F072F06967C0168E070E00D
:1053A0000E944D41EC01188680E189871B861A8690
:1053B0000C871D871F861E86CE010E942E410D81FF
:1053C0001C810E94E747A801485F5F4FBE010E9411
:1053D000E248BE01C701DF91CF911F910F91FF906D
:1053E000EF900C945D418F929F92AF92BF92CF92BB
:1053F000DF92EF92FF920F931F93CF93DF9300D032
:1054000000D0CDB7DEB7B62EA72E06966C0160E1B0
:1054100070E029833A834B835C830E944D414C01A9
:10542000FC01108681E1818713861286A486B586E9
:10543000178616865C81508B4B81418B3A81328B6B
:105440002981238B9801C701432F502F692F7E2D6F
:10545000448B558B668B778BC4010E942E41F401DF
:10546000058114810E94E747A801485F5F4FB4019E
:105470000E94E248B401C6010F900F900F900F9068
:10548000DF91CF911F910F91FF90EF90DF90CF9020
:10549000BF90AF909F908F900C945D418F929F92A0
:1054A000AF92BF92CF92DF92EF92FF920F931F9332
:1054B000CF93DF9300D000D0CDB7DEB7B62EA72EA6
:1054C00006966C0160E170E029833A834B835C832C
:1054D0000E944D414C01FC01108682E181871386B8
:1054E0001286A486B586178616865C81508B4B8102
:1054F000418B3A81328B2981238B9801C701432F3D
:10550000502F692F7E2D448B558B668B778BC40172
:105510000E942E41F401058114810E94E747A801F1
:10552000485F5F4FB4010E94E248B401C6010F908A
:105530000F900F900F90DF91CF911F910F91FF90DF
:10554000EF90DF90CF90BF90AF909F908F900C9492
:105550005D41EF92FF920F931F93CF93DF930696D7
:105560007C0164E070E00E944D41EC01188683E10B
:1055700089871B861A86CE010E942E410D811C81CF
:105580000E94E747A801485F5F4FBE010E94E248C2
:10559000BE01C701DF91CF911F910F91FF90EF9056
:1055A0000C945D41CF92DF92EF92FF920F931F9385
:1055B000CF93DF9300D0CDB7DEB7162F072F069617
:1055C0007C0168E070E049835A830E944D416C0180
:1055D000FC01108684E18187138612865A81952FFB
:1055E0004981842F402F512F692F782F4487558769
:1055F00066877787C6010E942E41F60105811481D6
:105600000E94E747A801485F5F4FB6010E94E24849
:10561000B601C7010F900F90DF91CF911F910F91AD
:10562000FF90EF90DF90CF900C945D41EF92FF924E
:105630000F931F93CF93DF93162F072F06967C01AE
:1056400068E070E00E944D41EC01188685E1898791
:105650001B861A860C871D871F861E86CE010E9418
:105660002E410D811C810E94E747A801485F5F4FD2
:10567000BE010E94E248BE01C701DF91CF911F9198
:105680000F91FF90EF900C945D418F929F92AF929B
:10569000BF92CF92DF92EF92FF920F931F93CF931F
:1056A000DF9300D000D0CDB7DEB7B62EA72E06967A
:1056B0006C0160E170E029833A834B835C830E9434
:1056C0004D414C01FC01108686E1818713861286CC
:1056D000A486B586178616865C81508B4B81418BDC
:1056E0003A81328B2981238B9801C701432F502F98
:1056F000692F7E2D448B558B668B778BC4010E945E
:105700002E41F401058114810E94E747A801485FFA
:105710005F4FB4010E94E248B401C6010F900F90A0
:105720000F900F90DF91CF911F910F91FF90EF900D
:10573000DF90CF90BF90AF909F908F900C945D4181
:105740008F929F92AF92BF92CF92DF92EF92FF9291
:105750000F931F93CF93DF9300D000D0CDB7DEB768
:10576000B62EA72E06966C0160E170E029833A837D
:105770004B835C830E944D414C01FC01108687E104
:10578000818713861286A486B586178616865C8165
:10579000508B4B81418B3A81328B2981238B98012D
:1057A000C701432F502F692F7E2D448B558B668B5D
:1057B000778BC4010E942E41F401058114810E945F
:1057C000E747A801485F5F4FB4010E94E248B40177
:1057D000C6010F900F900F900F90DF91CF911F9106
:1057E0000F91FF90EF90DF90CF90BF90AF909F9080
:1057F0008F900C945D41EF92FF920F931F93CF9384
:10580000DF9306967C0164E070E00E944D41EC015C
:10581000188688E189871B861A86CE010E942E4150
:105820000D811C810E94E747A801485F5F4FBE01C0
:105830000E94E248BE01C701DF91CF911F910F91F5
:10584000FF90EF900C945D41CF92DF92EF92FF9228
:105850000F931F93CF93DF9300D0CDB7DEB7162FF2
:10586000072F06967C0168E070E049835A830E9406
:105870004D416C01FC01108689E1818713861286F7
:105880005A81952F4981842F402F512F692F782FCE
:105890004487558766877787C6010E942E41F601A7
:1058A000058114810E94E747A801485F5F4FB60158
:1058B0000E94E248B601C7010F900F90DF91CF918F
:1058C0001F910F91FF90EF90DF90CF900C945D416E
:1058D000EF92FF920F931F93CF93DF9306967C0175
:1058E00064E070E00E944D41EC0118868AE18987EE
:1058F0001B861A86CE010E942E410D811C810E94BA
:10590000E747A801485F5F4FBE010E94E248BE0121
:10591000C701DF91CF911F910F91FF90EF900C94F1
:105920005D41EF92FF920F931F93CF93DF93069603
:105930007C0164E070E00E944D41EC0118868BE12F
:1059400089871B861A86CE010E942E410D811C81FB
:105950000E94E747A801485F5F4FBE010E94E248EE
:10596000BE01C701DF91CF911F910F91FF90EF9082
:105970000C945D41EF92FF920F931F93CF93DF93AF
:1059800006967C0164E070E00E944D41EC011886AF
:105990008CE189871B861A86CE010E942E410D81DB
:1059A0001C810E94E747A801485F5F4FBE010E942B
:1059B000E248BE01C701DF91CF911F910F91FF9087
:1059C000EF900C945D41EF92FF920F931F93CF9352
:1059D000DF9306967C0164E070E00E944D41EC018B
:1059E00018868DE189871B861A86CE010E942E417A
:1059F0000D811C810E94E747A801485F5F4FBE01EF
:105A00000E94E248BE01C701DF91CF911F910F9123
:105A1000FF90EF900C945D41CF92DF92EF92FF9256
:105A20000F931F93CF93DF9300D0CDB7DEB7162F20
:105A3000072F06967C0168E070E049835A830E9434
:105A40004D416C01FC0110868EE181871386128620
:105A50005A81952F4981842F402F512F692F782FFC
:105A60004487558766877787C6010E942E41F601D5
:105A7000058114810E94E747A801485F5F4FB60186
:105A80000E94E248B601C7010F900F90DF91CF91BD
:105A90001F910F91FF90EF90DF90CF900C945D419C
:105AA000CF92DF92EF92FF920F931F93CF93DF93EA
:105AB00000D0CDB7DEB7162F072F06967C0168E021
:105AC00070E049835A830E944D416C01FC011086AD
:105AD0008FE1818713861286048715875A8156873E
