:100000000C94A4020C94CC020C94CC020C94CC0260
:100010000C94CC020C94CC020C94CC020C94CC0228
:100020000C94CC020C94CC020C94CC020C94CC0218
:100030000C94CC020C94CC020C94CC020C94CC0208
:100040000C949D440C94CC020C94CC020C94CC02E5
:100050000C9472450C94CC020C94CC020C94CC02FF
:100060000C94CC020C94CC020C94CC020C94CC02D8
:10007000A50100007A4406A50100007A4405A50107
:1000800000007A4404B2010000803F06B201000083
:10009000803F05B2010000803F04BC010024744988
:1000A00005BC010024744904CB0100007A4406CB4E
:1000B0000100007A4405CB0100007A4404CE02001E
:1000C00000D0020000CF0200006D090000290300EB
:1000D0000097030000C9030000000400005D0C004D
:1000E000004F0400007F0400009B040000CD0400CA
:1000F0000004050000A20C0000530500006003008E
:100100000083050000C7050000180C0000A10900CD
:10011000001B060000370600007B060000D30B0022
:1001200000920A0000CF060000D7060000DF06009C
:1001300000E7060000FE080000EF060000290700A7
:10014000007C07000084070000C0080000B9070019
:100150000019080000830B00008308000006080057
:10016000008C070000A8070000462F772064657602
:100170002000492D5620536F75726365204D6574BC
:10018000657200ACC5273717B7D1386F12833A0AAA
:10019000D7233CCDCCCC3D08040201000000010077
:1001A000020003000400ACC5273717B7D1386F121F
:1001B000833A0AD7233CCDCCCC3D08040201000091
:1001C000000100020003000400DB1F0000DC1F0030
:1001D00000D9230000D1200000F3200000152100E9
:1001E000002821000082220000E61F0000A122005A
:1001F000003B2100005D21000070210000BC2200B6
:1002000000F41F0000DB22000083210000A5210074
:1002100000F622000002200000B8210000CB2100DF
:1002200000ED210000152300001020000000220036
:10023000001E2000002C2000003A20000048200072
:100240000013220000532300006623000056200004
:100250000064200000262200003A2200003423001F
:1002600000722000004D220000802000006022006B
:10027000008E2000007D230000000001000000002F
:10028000000100020003000400050000000100025C
:100290000003000400000001000000010002000350
:1002A000000400000001001E001E001E001E001EB3
:1002B000001E001E00280028002800280028002812
:1002C000002800280028002800280020002800130B
:1002D000000C000D000E000F0010001100070008B8
:1002E0000009000A000B00050006000000010002E2
:1002F00000030004006F12833A0AD7233CCDCCCC14
:100300003D0000803F000020410000C84208040278
:1003100001003000000100000001000200030004A1
:10032000000500000020410000000020410000C83E
:10033000420020000001000300030002000AD7234E
:100340003C0300030003000AD7233C03000300041E
:10035000000AD7233C0200020004006F12833A0116
:10036000000100040017B7D138010001000400ACFF
:10037000C52737010001000400BD3786350300039F
:100380000002000AD7233CCDCCCC3D030003000380
:10039000000AD7233C0000803F0300030004000A4A
:1003A000D7233C000020410200020004006F1283AA
:1003B0003A0000204101000100040017B7D13800C5
:1003C000002041010001000400ACC52737000020D7
:1003D00041010001000400BD3786350000204100C6
:1003E0000001000200030004000500060080C0D6E2
:1003F0003D0000D73D0000DD3D0000E33D00000072
:10040000FFFFFFFF000100FF0020001000080004B4
:1004100000010203604600006746000086460000B7
:1004200012470000A546000032470000AC4600001D
:10043000B3460000BA460000D2460000D94600008C
:10044000FD4600006E616E00696E660000407A1025
:10045000F35A00A0724E18090010A5D4E80000E875
:100460007648170000E40B54020000CA9A3B0000D3
:1004700000E1F505000080969800000040420F0062
:100480000000A08601000000102700000000E80323
:10049000000000006400000000000A0000000000EE
:1004A0000100000000002C76D888DC674F0823DFAD
:1004B000C1DFAE59E1B1B796E5E3E453C63AE65180
:1004C000997696E8E6C28426EB898C9B62ED407CA7
:1004D0006FFCEFBC9C9F40F2BAA56FA5F490055A43
:1004E0002AF75C936B6CF9676DC11BFCE0E40D4768
:1004F000FEF520E6B500D0ED902E0300943577058B
:100500000080841E080000204E0A000000C80C3342
:100510003333330F986E12831141EF8D2114893BD1
:10052000E65516CFFEE6DB18D1844B381BF77C1D51
:10053000901DA4BBE424203284725E228100C9F1A4
:1005400024ECA1E53D27083911241FBECFEFD0E1EF
:10055000DEBFCDBF12E0A0E0B1E0E6E3F6EA02C004
:1005600005900D92A235B107D9F725E0A2E5B2E0DA
:1005700001C01D92AF33B207E1F712E0C4EAD2E046
:1005800004C02197FE010E943150C33AD107C9F738
:100590000E94C00F0C9419530C9400000895089504
:1005A000CF92DF92EF92FF920F931F93CF93DF933F
:1005B00000D000D0CDB7DEB70E943138FC01C0803A
:1005C000D1800D2C000CEE08FF087601DD24CC2430
:1005D0000E943138FC0182819381092E000CAA0B04
:1005E000BB0BBA2FA92F982F8827C82AD92AEA2A05
:1005F000FB2A0E943138FC0124813581C901330F67
:10060000AA0BBB0BA7019601282B392B4A2B5B2B7E
:1006100029833A834B835C830E9464241DEFE12E7F
:10062000FF24FA940FEF1FEF29813A814B815C81FF
:1006300068E171E00E9484240F900F900F900F905A
:10064000DF91CF911F910F91FF90EF90DF90CF90AE
:1006500008950F931F93CF93DF93EB018A819B81C2
:100660000E949C198C010E944F1AB8010E94AC197B
:100670000E944F1AFC01808191810E942F248C01DD
:100680000E946424B8010E9437288A819B810E94BD
:100690002A1DEC010E94221FBE010E94F71D0E942C
:1006A000221FFC01848195810E940F24EC010E948D
:1006B0006424BE01DF91CF911F910F910C940D2501
:1006C0000F931F93CF93DF93EB018A819B810E944D
:1006D0002A1D8C010E94221FB8010E94F71D0E9452
:1006E000221FFC01848195810E940F248C010E94AD
:1006F0006424B8010E940D258A819B810E949C1967
:10070000EC010E944F1ABE010E94AC190E944F1AC0
:10071000FC01808191810E942F24EC010E946424BD
:10072000BE01DF91CF911F910F910C9437288F92CA
:100730009F92AF92BF92EF92FF920F931F93CF932E
:10074000DF93FB01C281D3810E94221FDD27FE01BE
:10075000EE0FFF1FEC0FFD1FEE0FFF1FE80FF91F3D
:1007600080849184A284B384E680F7800E9464240C
:1007700095018401A701BE010E943C25DF91CF9124
:100780001F910F91FF90EF90BF90AF909F908F902F
:1007900008958F929F92AF92BF92EF92FF920F9324
:1007A0001F93CF93DF93FB01C281D381DD270E948A
:1007B000221FBE010E94A51F0E94221FFE01EE0FF4
:1007C000FF1FEC0FFD1FEE0FFF1FE80FF91F8084C6
:1007D0009184A284B384E680F7800E94642495010A
:1007E0008401A701BE010E948F25DF91CF911F9147
:1007F0000F91FF90EF90BF90AF909F908F900895D2
:100800008F929F92AF92BF92CF92DF92EF92FF9220
:100810000F931F93CF93DF9300D000D0CDB7DEB7F7
:10082000FB012481358146815781C280D380DD243C
:1008300029833A834B835C830E94221F29813A815A
:100840004B815C81B6010E94B51F0E94221FF601F8
:10085000EE0FFF1FEC0DFD1DEE0FFF1FE80FF91F40
:1008600080849184A284B384E680F7800E9464240B
:1008700095018401A701B6010E94E2250F900F9017
:100880000F900F90DF91CF911F910F91FF90EF90FC
:10089000DF90CF90BF90AF909F908F900895CF93AF
:1008A000DF9300D000D0CDB7DEB7FB01428153818A
:1008B0006481758149835A836B837C830E94221FE4
:1008C00049815A816B817C810E94301F0E94221FC6
:1008D000FC01408151816281738149835A836B831A
:1008E0007C830E94642449815A816B817C810F90B2
:1008F0000F900F900F90DF91CF910C945E26CF93C5
:10090000DF93FB01828193810E945034EC010E94AD
:100910007C35BE010E9463340E947C35FC018481D9
:1009200095810E941F24EC010E946424BE01DF9186
:10093000CF910C94A2268F929F92AF92BF92EF928A
:10094000FF920F931F93CF93DF93FB01C281D3815B
:100950000E947C35DD27FE01EE0FFF1FEC0FFD1F0F
:10096000EE0FFF1FE80FF91F80849184A284B384E7
:10097000E680F7800E94642495018401A701BE01EE
:100980000E94D126DF91CF911F910F91FF90EF90A0
:10099000BF90AF909F908F9008958F929F92AF924B
:1009A000BF92EF92FF920F931F93CF93DF93FB01C0
:1009B000C281D381DD270E947C35BE010E9438367A
:1009C0000E947C35FE01EE0FFF1FEC0FFD1FEE0FA6
:1009D000FF1FE80FF91F80849184A284B384E6800E
:1009E000F7800E94642495018401A701BE010E9442
:1009F0002427DF91CF911F910F91FF90EF90BF902F
:100A0000AF909F908F9008958F929F92AF92BF92D8
:100A1000CF92DF92EF92FF920F931F93CF93DF93CA
:100A200000D000D0CDB7DEB7FB01248135814681EF
:100A30005781C280D380DD2429833A834B835C8332
:100A40000E947C3529813A814B815C81B6010E94EC
:100A500048360E947C35F601EE0FFF1FEC0DFD1DA0
:100A6000EE0FFF1FE80FF91F80849184A284B384E6
:100A7000E680F7800E94642495018401A701B601F5
:100A80000E9477270F900F900F900F90DF91CF91DA
:100A90001F910F91FF90EF90DF90CF90BF90AF909C
:100AA0009F908F900895CF93DF9300D000D0CDB763
:100AB000DEB7FB01428153816481758149835A838A
:100AC0006B837C830E947C3549815A816B817C8158
:100AD0000E94C3350E947C35FC01408151816281B6
:100AE000738149835A836B837C830E946424498188
:100AF0005A816B817C810F900F900F900F90DF9146
:100B0000CF910C94F327AF92BF92CF92DF92EF92E6
:100B1000FF920F931F93CF93DF9300D000D0CDB7F8
:100B2000DEB7FB01E280F3800E944F1A5701BB241D
:100B3000F501EE0FFF1FEE0FFF1FEE0FFF1FE80F77
:100B4000F91FC680D780E084F184228133814481FB
:100B5000558129833A834B835C830E9464248701F7
:100B6000760129813A814B815C81B5010E9466281A
:100B70000F900F900F900F90DF91CF911F910F91D9
:100B8000FF90EF90DF90CF90BF90AF900895AF921D
:100B9000BF92CF92DF92EF92FF920F931F93CF936A
:100BA000DF9300D000D0CDB7DEB7FB0124813581C3
:100BB00046815781A280B380BB2429833A834B832B
:100BC0005C830E944F1A29813A814B815C81B50177
:100BD0000E94E11B0E944F1AF501EE0FFF1FEE0F5E
:100BE000FF1FEE0FFF1FE80FF91FC680D780E084BC
:100BF000F184228133814481558129833A834B8357
:100C00005C830E9464248701760129813A814B81AB
:100C10005C81B5010E94C1280F900F900F900F903A
:100C2000DF91CF911F910F91FF90EF90DF90CF90C8
:100C3000BF90AF900895CF93DF93FB0182819381A2
:100C40000E94D12EEC010E942230BE010E94F12EA2
:100C50000E942230FC01808191810E943F24EC019E
:100C60000E946424BE01DF91CF910C948929AF9238
:100C7000BF92CF92DF92EF92FF920F931F93CF9389
:100C8000DF9300D000D0CDB7DEB7FB01E280F38068
:100C90000E9422305701BB24F501EE0FFF1FEE0F1B
:100CA000FF1FEE0FFF1FE80FF91FC680D780E084FB
:100CB000F184228133814481558129833A834B8396
:100CC0005C830E9464248701760129813A814B81EB
:100CD0005C81B5010E94B8290F900F900F900F9082
:100CE000DF91CF911F910F91FF90EF90DF90CF9008
:100CF000BF90AF900895AF92BF92CF92DF92EF92E4
:100D0000FF920F931F93CF93DF9300D000D0CDB706
:100D1000DEB7FB012481358146815781A280B380F3
:100D2000BB2429833A834B835C830E942230298130
:100D30003A814B815C81B5010E94F2300E942230E1
:100D4000F501EE0FFF1FEE0FFF1FEE0FFF1FE80F65
:100D5000F91FC680D780E084F184228133814481E9
:100D6000558129833A834B835C830E9464248701E5
:100D7000760129813A814B815C81B5010E94132A59
:100D80000F900F900F900F90DF91CF911F910F91C7
:100D9000FF90EF90DF90CF90BF90AF9008950E94AA
:100DA000221F0E94541F0E9464240C94DB2A0E947C
:100DB0007C350E94E7350E9464240C94042B0E9429
:100DC0004F1A0E947A1B0E9464240C942D2B0E94BF
:100DD00022300E948B300E9464240C94562BCF93B7
:100DE000DF93FB01828193818130910521F1823073
:100DF000910599F0892B19F0DF91CF9108950E9408
:100E00003138FC01C081D1810E946424AE0160E0D0
:100E100070E0DF91CF910C94C32B0E943138FC011C
:100E2000C481D5810E946424AE0162E070E0DF914C
:100E3000CF910C94C32B0E943138FC01C281D38125
:100E40000E946424AE0161E070E0DF91CF910C94C8
:100E5000C32BCF93DF93FB0182819381C481D58122
:100E600081309105B1F18230910501F1009759F07F
:100E70008130910599F182309105E9F0892B41F09B
:100E8000DF91CF9108950E943138FC01D183C08356
:100E90000E943138FC01C081D1810E946424AE01DE
:100EA00060E070E0DF91CF910C94012C0E9431380A
:100EB000FC01D583C4830E943138FC01C481D581F3
:100EC0000E946424AE0162E070E0DF91CF910C9447
:100ED000012C0E943138FC01D383C2830E94313837
:100EE000FC01C281D3810E946424AE0161E070E004
:100EF000DF91CF910C94012C0E9431380E948B38E5
:100F00000E9464240C943F2C0E9431380E94973830
:100F10000E9464240C94682CCF93DF93FB018281A0
:100F200093810E94E12EEC010E942230BE010E94BA
:100F30009B310E942230FC0183AD94AD0E94542469
:100F4000EC010E946424BE01DF91CF910C940C2E21
:100F5000CF93DF930E942230FC0183AD94AD0E94B9
:100F60005424EC010E946424BE01DF91CF910C94C3
:100F70003B2EAF92BF92CF92DF92EF92FF920F93F0
:100F80001F93CF93DF9300D000D0CDB7DEB7FB0126
:100F9000E280F38080919202811107C08DE592E09A
:100FA0000E94DC3181E0809392025701BB24F5015D
:100FB000EE0FFF1FEE0FFF1FEE0FFF1FE35AFD4F57
:100FC000C184D284E384F4842581368147815085AD
:100FD00029833A834B835C830E94642487017601D2
:100FE00029813A814B815C81B5010E94C02C0F9010
:100FF0000F900F900F90DF91CF911F910F91FF9065
:10100000EF90DF90CF90BF90AF90089580919202C3
:10101000811107C08DE592E00E94DC3181E0809370
:1010200092028DE592E00E94A7330E9464240C9402
:10103000E32DAF92BF92CF92DF92EF92FF920F9388
:101040001F93CF93DF9300D000D0CDB7DEB7FB0165
:101050002481358146815781A280B380BB24809151
:101060009202882309F43FC0B5018DE592E00E9409
:101070003A3380919202811107C08DE592E00E947F
:10108000DC3181E080939202F501EE0FFF1FEE0F3D
:10109000FF1FEE0FFF1FE35AFD4FC184D284E3848C
:1010A000F484258136814781508529833A834B8397
:1010B0005C830E9464248701760129813A814B81F7
:1010C0005C81B5010E941B2D0F900F900F900F9027
:1010D000DF91CF911F910F91FF90EF90DF90CF9014
:1010E000BF90AF9008958DE592E029833A834B83BA
:1010F0005C830E94DC3181E0809392025C814B81B1
:101100003A812981B1CF0F931F93CF93DF9300D002
:1011100000D0CDB7DEB78B010E946E360E948636B6
:10112000F801628173818091920281110BC08DE57B
:1011300092E06B837C830E94DC3181E08093920299
:101140007C816B818DE592E00E940E34AB01BC0185
:1011500049835A836B837C830E94642449815A812A
:101160006B817C810E949F2D0E946E360F900F90A4
:101170000F900F90DF91CF911F910F910C948836B3
:101180000F931F93CF93DF9300D0CDB7DEB7FB0152
:10119000828193810E94D731BC0180919202882381
:1011A00009F18DE592E00E94A732809192028111AF
:1011B00007C08DE592E00E94DC3181E080939202CD
:1011C00080916002909161020E944F248C010E94E4
:1011D0006424B8010F900F90DF91CF911F910F9170
:1011E0000C94912C8DE592E069837A830E94DC3126
:1011F00081E0809392027A816981D3CF0F931F930C
:10120000CF93DF9300D000D0CDB7DEB78B010E9423
:101210007C350E9460340E946E360E9484360E94A3
:10122000221F0E943A1D0E946E360E947E36F801EF
:10123000028113810E948A36B8010E94E237AB0115
:10124000BC0149835A836B837C830E946424498157
:101250005A816B817C810F900F900F900F90DF91DE
:10126000CF911F910F910C947F2BCF92DF92EF9231
:10127000FF92DB01ED91FC91EB32F10548F5EE0FA9
:10128000FF1FEE0FFF1FE354FF4FC590D590E59071
:10129000F490F601970135952795E0FE12C0DC0128
:1012A000A20FB31F2D913C911197F901EC0DFD1D7B
:1012B0000190F081E02DCD01FF90EF90DF90CF9075
:1012C0000994820F931FFF90EF90DF90CF900994C5
:1012D000FF90EF90DF90CF900895FB018281938182
:1012E0000097C9F00197B1F40E94221F0E94F41DDB
:1012F0000E946E360E9480360E947C350E948A359C
:101300000E946E360E9482360E94642461E070E082
:101310000C94DE2408950E947C350E9460340E9463
:101320006E360E9484360E94221F0E943A1D0E943F
:101330006E360E947E360E94642460E070E00C9459
:10134000DE248F929F92AF92BF92CF92DF92EF9264
:10135000FF920F931F93CF93DF93CDB7DEB72B97F9
:101360000FB6F894DEBF0FBECDBF8C017B010E948B
:101370006E360E948636F701E280F3800E944F1A93
:10138000B7010E94DC1A4B015C010E946424B50184
:10139000A4010E94452981E0F80186830E94C2448D
:1013A0000E94E4446B017C010E94C24440E050E092
:1013B00060E070E40E94F044C60ED71EE81EF91EDD
:1013C000F801C782D086E186F2860E9422300E9410
:1013D0004F1AFC01E080F1800E940D390E94153AFD
:1013E000FC0196E0DE01119601900D929A95E1F7CD
:1013F0000E940D3940E060E00E94F1398701000F42
:10140000111F000F111F000F111F0E191F09F801E6
:10141000E656FF4FE590F49082E00E948A3D8B876C
:1014200081E00E948A3D8A87F801E456FF4F2591AA
:10143000359145915491C501B4010E94374F4B013C
:101440005C01F801E056FF4F84910E948B3D898733
:1014500089E00E948A3D888784E00E948A3D8F83CC
:101460000E940D3963E47DE30E94F93CBE01695F8F
:101470007F4F0E948C3D63E271E00E94203A67E654
:101480007DE30E94F93C6BEF7CE30E94F93C6FE145
:101490007DE30E94F93CBE01685F7F4F0E948C3D56
:1014A000BE01675F7F4F0E94B13DB501A4010E945C
:1014B000DF3BBE01665F7F4F0E948C3D69E471E0B7
:1014C0000E94203A63E47DE30E94F93CBE01655F1F
:1014D0007F4F0E948C3DB7010E94203A0E940D3937
:1014E00040E061E00E94F1390E940D39BE016F5F5A
:1014F0007F4F0E94173A0E946E360E9488362B96C4
:101500000FB6F894DEBF0FBECDBFDF91CF911F9114
:101510000F91FF90EF90DF90CF90BF90AF909F9092
:101520008F9008958F929F92AF92BF92CF92DF9249
:10153000EF92FF920F931F93CF93DF93CDB7DEB758
:101540002B970FB6F894DEBF0FBECDBF8C017B0189
:101550000E946E360E948636F701E280F3800E9478
:101560002230B7010E9430304B015C010E9464249C
:10157000B501A4010E94972A81E0F80186830E94A8
:10158000C2440E94E4446B017C010E94C24440E0DA
:1015900050E060E070E40E94F044C60ED71EE81EE2
:1015A000F91EF801C782D086E186F2860E942230B9
:1015B000FC01E080F1800E944F1A0E940D390E94C8
:1015C000153AFC0196E0DE01119601900D929A9574
:1015D000E1F70E940D3940E060E00E94F1390E947D
:1015E0000D3940E061E00E94F1398701000F111FC1
:1015F000000F111F000F111F0E191F09F801E059EC
:10160000FF4FE590F49082E00E948A3D8B8781E055
:101610000E948A3D8A87F801EE58FF4F2591359147
:1016200045915491C501B4010E94374F4B015C01B3
:10163000F801EA58FF4F84910E948B3D898789E029
:101640000E948A3D888784E00E948A3D8F830E94A1
:101650000D3963E47DE30E94F93CBE01695F7F4F71
:101660000E948C3D66E271E00E94203A67E67DE3CD
:101670000E94F93C6BEF7CE30E94F93C6FE17DE353
:101680000E94F93CBE01685F7F4F0E948C3DBE0105
:10169000675F7F4F0E94B13DB501A4010E94DF3B0F
:1016A000BE01665F7F4F0E948C3D69E471E00E943D
:1016B000203A63E47DE30E94F93CBE01655F7F4F01
:1016C0000E948C3DB7010E94203A0E940D39BE0154
:1016D0006F5F7F4F0E94173A0E946E360E948836D5
:1016E0002B960FB6F894DEBF0FBECDBFDF91CF9122
:1016F0001F910F91FF90EF90DF90CF90BF90AF9030
:101700009F908F900895CF92DF92EF92FF92CF93A8
:10171000DF93EC0180919202811107C08DE592E088
:101720000E94DC3181E0809392028DE592E00E947C
:1017300091330E9464240E94762D81E08E830E9462
:10174000C2440E94E4446B017C010E94C24440E018
:1017500050E060E070E40E94F044C60ED71EE81E20
:10176000F91ECF82D886E986FA860E940D3940E0BC
:1017700060E00E94F1390E940D3969E271E00E9437
:10178000203A0E940D3940E061E00E94F1390E9448
:101790000D396AE371E0DF91CF91FF90EF90DF9018
:1017A000CF900C94203ACF92DF92EF92FF92CF939A
:1017B000DF93EC010E9422300E9450310E94642489
:1017C0000E946E2A81E08E830E94C2440E94E444FB
:1017D0006B017C010E94C24440E050E060E070E494
:1017E0000E94F044C60ED71EE81EF91ECF82D8868E
:1017F000E986FA860E940D3940E060E00E94F139E6
:101800000E940D3969E271E00E94203A0E940D3970
:1018100040E061E00E94F1390E940D396AE371E015
:10182000DF91CF91FF90EF90DF90CF900C94203A12
:10183000CF92DF92EF92FF92CF93DF93EC010E9461
:101840004F1A0E94901C0E9464240E941C2981E06F
:101850008E830E94C2440E94E4446B017C010E947A
:10186000C24440E050E060E070E40E94F044C60EE4
:10187000D71EE81EF91ECF82D886E986FA860E9416
:101880000D3940E060E00E94F1390E940D3969E2B3
:1018900071E00E94203A0E940D3940E061E00E9410
:1018A000F1390E940D396AE371E0DF91CF91FF9029
:1018B000EF90DF90CF900C94203ACF92DF92EF928E
:1018C000FF92CF93DF93EC010E94221F0E94C51F5D
:1018D0000E9464240E94352681E08E830E94C244C7
:1018E0000E94E4446B017C010E94C24440E050E04D
:1018F00060E070E40E94F044C60ED71EE81EF91E98
:10190000CF82D886E986FA860E940D3940E060E0F1
:101910000E94F1390E940D3969E271E00E94203A7B
:101920000E940D3940E061E00E94F1390E940D39BA
:101930006AE371E0DF91CF91FF90EF90DF90CF905D
:101940000C94203ACF92DF92EF92FF92CF93DF93E5
:10195000EC010E947C350E9458360E9464240E944B
:10196000CA2781E08E830E94C2440E94E4446B0136
:101970007C010E94C24440E050E060E070E40E94BC
:10198000F044C60ED71EE81EF91ECF82D886E9861F
:10199000FA860E940D3940E060E00E94F1390E9411
:1019A0000D3969E271E00E94203A0E940D3940E051
:1019B00061E00E94F1390E940D396AE371E0DF9124
:1019C000CF91FF90EF90DF90CF900C94203A0F933F
:1019D0001F93CF93DF93CDB7DEB7AB970FB6F894D5
:1019E000DEBF0FBECDBF0E940D390E94153AFC012B
:1019F00096E0DE01919601900D929A95E1F70E9492
:101A00000D3940E060E00E94F13962E771E0CE01FB
:101A100001960E943C528C010E940D39B8010E942F
:101A2000203A0E940D3940E061E00E94F13982E0E5
:101A30000E948A3D8FA381E00E948A3D88A782E0B0
:101A40000E948A3D89A781E00E948A3D8AA782E0A0
:101A50000E948A3D8BA769E671E0CE0101960E9443
:101A60003C528C010E940D39B8010E94203ABE01FF
:101A7000655D7F4F0E948C3D6FE17DE30E94F93CE4
:101A80004FEF50E060E070E00E94EA3ABE01665D10
:101A90007F4F0E948C3D6BE471E00E94203ABE01B2
:101AA000675D7F4F0E948C3D6FE17DE30E94F93CB2
:101AB0004FEF50E060E070E00E94EA3ABE01685DDE
:101AC0007F4F0E948C3D6BE471E00E94203ABE0182
:101AD000695D7F4F0E948C3D6FE17DE30E94F93C80
:101AE0004DEF50E060E070E00E94EA3A0E940D394C
:101AF000BE016F5D7F4F0E94173AAB960FB6F89408
:101B0000DEBF0FBECDBFDF91CF911F910F91089522
:101B1000CF92DF92EF92FF92CF93DF93EC010E947E
:101B2000DE3882ED91E0998388831E821F821886B9
:101B300019861A860E940D390E94221F0E947C3548
:101B40000E944F1A0E94223080919202811107C098
:101B50008DE592E00E94DC3181E0809392020E9448
:101B60008A360E9464240E94221F0E943A1D0E940D
:101B70006E360E947E360E947C3540E050E0BA010D
:101B80000E94C3350E94223060E070E00E949B31C9
:101B90000E946424AE0165E379E00E94F838CE012A
:101BA0000E94E70C789481E08E830E94C2440E94D8
:101BB000E4446B017C010E94C24440E050E060E0DC
:101BC00070E40E94F044C60ED71EE81EF91ECF82B4
:101BD000D886E986FA86DF91CF91FF90EF90DF906B
:101BE000CF9008952F923F924F925F926F927F9283
:101BF0008F929F92AF92BF92CF92DF92EF92FF921D
:101C00000F931F93CF93DF93CDB7DEB72B970FB60C
:101C1000F894DEBF0FBECDBFF62E29013A010E9417
:101C20000D390E94153AFC0196E0DE0111960190F3
:101C30000D929A95E1F70E940D3940E060E00E9414
:101C4000F139F11099C00E940D3940E061E00E9425
:101C5000F139EE2009F470C08401000F111F000F4C
:101C6000111F000F111F08191909F801E059FF4F42
:101C7000E590F49082E00E948A3D8F8381E00E948B
:101C80008A3D8887F801EE58FF4F2591359145919F
:101C90005491C601B5010E94374F4B015C01F80118
:101CA000EA58FF4F84910E948B3D898789E00E940A
:101CB0008A3D8A8784E00E948A3D8B870E940D3985
:101CC00063E47DE30E94F93CBE01655F7F4F0E94A3
:101CD0008C3D66E271E00E94203A67E67DE30E9457
:101CE000F93C6BEF7CE30E94F93C6FE17DE30E94DD
:101CF000F93CBE01665F7F4F0E948C3DBE01675F6D
:101D00007F4F0E94B13DB501A4010E94DF3BBE019F
:101D1000685F7F4F0E948C3D69E471E00E94203A29
:101D200063E47DE30E94F93CBE01695F7F4F0E943E
:101D30008C3DB7010E94203A0E940D39BE016F5FB1
:101D40007F4F0E94173A2B960FB6F894DEBF0FBE56
:101D5000CDBFDF91CF911F910F91FF90EF90DF905A
:101D6000CF90BF90AF909F908F907F906F905F903B
:101D70004F903F902F900895F801EE0FFF1FEE0F48
:101D8000FF1FEE0FFF1FCF01801B910B8C01FC0189
:101D9000E656FF4F2590349082E00E948A3D8F8363
:101DA00081E00E948A3D8887F801E456FF4F259123
:101DB000359145915491C301B2010E94374F2B01D7
:101DC0003C01F801E056FF4F84910E948B3D8987CA
:101DD00089E00E948A3D8A8784E00E948A3D8B8741
:101DE0000E940D3963E47DE30E94F93CBE01655F0A
:101DF0007F4F0E948C3D63E271E00E94203A67E6CB
:101E00007DE30E94F93C6BEF7CE30E94F93C6FE1BB
:101E10007DE30E94F93CBE01665F7F4F0E948C3DCE
:101E2000BE01675F7F4F0E94B13DB301A2010E94D6
:101E3000DF3BBE01685F7F4F0E948C3D69E471E02B
:101E40000E94203A63E47DE30E94F93CBE01695F91
:101E50007F4F0E948C3DB1010E94203AF4CE2F9218
:101E60003F924F925F926F927F928F929F92AF922A
:101E7000BF92CF92DF92EF920F931F93CF93DF9396
:101E800000D000D0CDB7DEB71C010E944F1A0E94CF
:101E9000A41C0E9422300E9464310E944F1AFC014F
:101EA00020AD31AD232BB1F00F900F900F900F901C
:101EB000DF91CF911F910F91EF90DF90CF90BF9066
:101EC000AF909F908F907F906F905F904F903F90DA
:101ED0002F9008950E942230FC0180AD91AD892B96
:101EE00019F70E944F1A0E94FC1C9B01AC016983E8
:101EF0003A834B835C830E9422300E9473315B01E2
:101F00006C01F101868129813A814B815C818111CB
:101F100019C029833A834B835C830E942230FC01E1
:101F2000808091800E944F1AFC0100811181EE2473
:101F3000E39429813A814B815C8161E0C1010E9477
:101F4000F20DB2CF29833A834B835C830E94C24453
:101F50000E94E444F10147805084618472842981A5
:101F60003A814B815C81641575058605970518F0EB
:101F7000F1011682CECFF1018681811195CFC9CFB3
:101F80002FEF8FE398E3215080409040E1F700C0AD
:101F9000000080918A02811107C082E592E00E94D0
:101FA000880D81E080938A020E94BD3880E090E035
:101FB00008952F923F924F925F926F927F928F92ED
:101FC0009F92AF92BF92CF92DF92EF92FF920F93C8
:101FD0001F93CF93DF938C01EB01FC01E080F18034
:101FE0006E157F050CF065C082809380A480B5805B
:101FF000A501940160857185828593850E94124DAB
:102000002B013C01F801668177816E197F09072E4B
:10201000000C880B990B0E94344E9B01AC01C3014C
:10202000B2010E94844D2B013C01CE19DF09BE0193
:10203000DD0F880B990B0E94344E9B01AC01C3014C
:10204000B2010E94374F9B01AC01C501B4010E944F
:10205000134D8B01D82FC92F2CE53FE842E85FE3F1
:10206000C501B4010E94374F6B017C019B01AC019B
:10207000B8018D2F9C2F0E947F4D87FDEDC0502F02
:10208000412F9E01652F742F832F922FDF91CF91C7
:102090001F910F91FF90EF90DF90CF90BF90AF9086
:1020A0009F908F907F906F905F904F903F902F9078
:1020B0000895FC01208C318C261637060CF47EC066
:1020C000A4E0B0E00DC04C175D070CF0CAC09C0145
:1020D000CB01BF2DAC01421B530B42305105FCF02C
:1020E0002B2F30E06A2F70E0C901860F971F95955E
:1020F0008795F82EFC01EE0FFF1FE80FF91FEE0F7A
:10210000FF1FE00FF11F40815181C417D507DCF696
:10211000A82FAC01421B530B423051050CF7F901BB
:10212000EE0FFF1FE20FF31FEE0FFF1FE00FF11F77
:1021300082809380A480B580E080F1809C01220F92
:10214000331F820F931F880F991F080F191FA501B6
:102150009401F80162817381848195810E94124DFE
:102160002B013C01F801608171816E197F09072EF6
:10217000000C880B990B0E94344E9B01AC01C301EB
:10218000B2010E94844D2B013C01CE19DF09BE0132
:10219000DD0F880B990B0E94344E9B01AC01C301EB
:1021A000B2010E94374F9B01AC01C501B4010E94EE
:1021B000134D562F472F382F292F64CFC28CD38C25
:1021C000E48CF58C84889588A688B7880289138961
:1021D000A5019401C701B6010E94124D2B013C01DB
:1021E000B101601B710B072E000C880B990B0E942C
:1021F000344E9B01AC01C301B2010E94844D2B01FE
:102200003C01C01BD10BBE01DD0F880B990B0E9456
:10221000344E9B01AC01C301B2010E94374F9B01B8
:10222000AC01C501B4010E94134D8B01D82FC92FF9
:102230002CE53FE842E85FE3C701B6010E94374F53
:102240006B017C019B01AC01B8018D2F9C2F0E947A
:10225000324F18160CF013CF5C2D4D2D3E2D2F2D27
:1022600011CF52814381348125810CCF2F923F922F
:102270004F925F926F927F928F929F92AF92BF9296
:10228000CF92DF92EF92FF920F931F93CF93DF9342
:10229000CDB7DEB728970FB6F894DEBF0FBECDBF1F
:1022A0008C016A017B01FC0182809380A480B5804F
:1022B0009A01AB01C501B4010E94324FF801181612
:1022C0000CF079C060807180B301072C000C880B82
:1022D000990B0E94344E69837A838B839C83F80127
:1022E0006681778166197709072E000C880B990B98
:1022F0000E94344E2B013C01A5019401F801608538
:102300007185828593850E94124D9B01AC01C301AA
:10231000B2010E94844D2B013C01A5019401C7012B
:10232000B6010E94124D9B01AC01C301B2010E9493
:10233000374F29813A814B815C810E94134D8B017B
:102340005C012CE53FE842E85FE369817A818B819B
:102350009C810E94374F6B017C019B01AC01B8014D
:10236000C5010E947F4D87FD23C1502F412F3A2D7B
:102370002B2D652F742F832F922F0E94A44F0E9424
:10238000F64DCB0128960FB6F894DEBF0FBECDBF39
:10239000DF91CF911F910F91FF90EF90DF90CF9041
:1023A000BF90AF909F908F907F906F905F904F9075
:1023B0003F902F900895828C938CA48CB58CA701AC
:1023C0009601C501B4010E947F4D87FD94C0F4E0E1
:1023D000F9831D8211C0A7019601C301B2010E94B9
:1023E0007F4D87FFEAC045015101FE81FD83C50194
:1023F00088199909029754F12D81822E912C3981E7
:10240000232E312C5401A20CB31CB594A794AE8298
:10241000C501880F991F8A0D9B1D880F991FFC010C
:10242000E00FF11FF887EF8342805380648075804E
:10243000A7019601C301B2010E94324F18165CF643
:10244000A982C501881999090297B4F6F401EE0F23
:10245000FF1FE80DF91DEE0FFF1FE00FF11F208099
:1024600031804280538064807580C501880F991F38
:102470008A0D9B1D880F991F080F191FF801608195
:10248000718162197309072E000C880B990B0E9449
:10249000344E4B015C01A3019201F801628173810A
:1024A000848195810E94124D9B01AC01C501B4014C
:1024B0000E94844D4B015C01A3019201C701B6014A
:1024C0000E94124D9B01AC01C501B4010E94374F1F
:1024D0006B017C01B101330C880B990B0E94344EC7
:1024E0009B01AC01C701B6010E94134D562F472F27
:1024F000382F292F3ECFF801208C318C2289338947
:1025000038872F834488558866887788B101621B95
:10251000730B072E000C880B990B0E94344E6983B5
:102520007A838B839C83A3019201C501B4010E942D
:10253000124D9B01AC0169817A818B819C810E9443
:10254000844D4B015C01A3019201C701B6010E94B9
:10255000124D9B01AC01C501B4010E94374F6B01C4
:102560007C01EF81F885BF01FF0F880B990B0E945A
:10257000344E9B01AC01C701B6010E94134D8B0183
:102580005C01B101330C880B990B0E94344E2CE591
:102590003FE842E85FE30E94374F6B017C019B01FB
:1025A000AC01B801C5010E94324F18160CF0DDCE07
:1025B0005C2D4D2D3E2D2F2DDCCEEF81F8856081D9
:1025C0007181072E000C880B990B0E94344E562FF8
:1025D000472F382F292FCDCE2F923F924F925F92C7
:1025E0006F927F928F929F92AF92BF92CF92DF9223
:1025F000EF92FF920F931F93CF93DF938C01EB0128
:10260000FC01E080F1806E157F050CF065C08280D2
:102610009380A480B580A501940160857185828531
:1026200093850E94124D2B013C01F8016681778150
:102630006E197F09072E000C880B990B0E94344EEF
:102640009B01AC01C301B2010E94844D2B013C01EE
:10265000CE19DF09BE01DD0F880B990B0E94344EA5
:102660009B01AC01C301B2010E94374F9B01AC0139
:10267000C501B4010E94134D8B01D82FC92F2CE541
:102680003FE842E85FE3C501B4010E94374F6B01A8
:102690007C019B01AC01B8018D2F9C2F0E947F4DC6
:1026A00087FDEDC0502F412F9E01652F742F832F82
:1026B000922FDF91CF911F910F91FF90EF90DF90BC
:1026C000CF90BF90AF909F908F907F906F905F90D2
:1026D0004F903F902F900895FC01208C318C26164E
:1026E00037060CF47EC0A4E0B0E00DC04C175D07C7
:1026F0000CF0CAC09C01CB01BF2DAC01421B530B97
:1027000042305105FCF02B2F30E06A2F70E0C901F8
:10271000860F971F95958795F82EFC01EE0FFF1FEA
:10272000E80FF91FEE0FFF1FE00FF11F40815181ED
:10273000C417D507DCF6A82FAC01421B530B42305F
:1027400051050CF7F901EE0FFF1FE20FF31FEE0F1B
:10275000FF1FE00FF11F82809380A480B580E0808E
:10276000F1809C01220F331F820F931F880F991F46
:10277000080F191FA5019401F801628173818481FA
:1027800095810E94124D2B013C01F80160817181FD
:102790006E197F09072E000C880B990B0E94344E8E
:1027A0009B01AC01C301B2010E94844D2B013C018D
:1027B000CE19DF09BE01DD0F880B990B0E94344E44
:1027C0009B01AC01C301B2010E94374F9B01AC01D8
:1027D000C501B4010E94134D562F472F382F292FC2
:1027E00064CFC28CD38CE48CF58C84889588A688C1
:1027F000B78802891389A5019401C701B6010E9417
:10280000124D2B013C01B101601B710B072E000C16
:10281000880B990B0E94344E9B01AC01C301B2019D
:102820000E94844D2B013C01C01BD10BBE01DD0F6A
:10283000880B990B0E94344E9B01AC01C301B2017D
:102840000E94374F9B01AC01C501B4010E94134D9A
:102850008B01D82FC92F2CE53FE842E85FE3C70181
:10286000B6010E94374F6B017C019B01AC01B8019E
:102870008D2F9C2F0E94324F18160CF013CF5C2D19
:102880004D2D3E2D2F2D11CF528143813481258135
:102890000CCF2F923F924F925F926F927F928F92C6
:1028A0009F92AF92BF92CF92DF92EF92FF920F93DF
:1028B0001F93CF93DF93CDB7DEB728970FB6F89469
:1028C000DEBF0FBECDBF8C016A017B01FC0182809F
:1028D0009380A480B5809A01AB01C501B4010E9428
:1028E000324FF80118160CF079C060807180B30186
:1028F000072C000C880B990B0E94344E69837A8355
:102900008B839C83F8016681778166197709072E8E
:10291000000C880B990B0E94344E2B013C01A50141
:102920009401F80160857185828593850E94124D1E
:102930009B01AC01C301B2010E94844D2B013C01FB
:10294000A5019401C701B6010E94124D9B01AC0183
:10295000C301B2010E94374F29813A814B815C81CA
:102960000E94134D8B015C012CE53FE842E85FE3D8
:1029700069817A818B819C810E94374F6B017C0138
:102980009B01AC01B801C5010E947F4D87FD23C1A9
:10299000502F412F3A2D2B2D652F742F832F922FDF
:1029A0000E94A44F0E94F64DCB0128960FB6F894D2
:1029B000DEBF0FBECDBFDF91CF911F910F91FF9072
:1029C000EF90DF90CF90BF90AF909F908F907F90CF
:1029D0006F905F904F903F902F900895828C938CD2
:1029E000A48CB58CA7019601C501B4010E947F4D4E
:1029F00087FD94C0F4E0F9831D8211C0A701960100
:102A0000C301B2010E947F4D87FFEAC04501510119
:102A1000FE81FD83C50188199909029754F12D8122
:102A2000822E912C3981232E312C5401A20CB31CFF
:102A3000B594A794AE82C501880F991F8A0D9B1D7E
:102A4000880F991FFC01E00FF11FF887EF83428088
:102A5000538064807580A7019601C301B2010E9472
:102A6000324F18165CF6A982C50188199909029798
:102A7000B4F6F401EE0FFF1FE80DF91DEE0FFF1F76
:102A8000E00FF11F20803180428053806480758088
:102A9000C501880F991F8A0D9B1D880F991F080F6C
:102AA000191FF8016081718162197309072E000CEA
:102AB000880B990B0E94344E4B015C01A3019201DB
:102AC000F80162817381848195810E94124D9B017E
:102AD000AC01C501B4010E94844D4B015C01A3010E
:102AE0009201C701B6010E94124D9B01AC01C501C4
:102AF000B4010E94374F6B017C01B101330C880B8C
:102B0000990B0E94344E9B01AC01C701B6010E9493
:102B1000134D562F472F382F292F3ECFF801208CE9
:102B2000318C2289338938872F8344885588668879
:102B30007788B101621B730B072E000C880B990B71
:102B40000E94344E69837A838B839C83A301920114
:102B5000C501B4010E94124D9B01AC0169817A81CB
:102B60008B819C810E94844D4B015C01A3019201E9
:102B7000C701B6010E94124D9B01AC01C501B40111
:102B80000E94374F6B017C01EF81F885BF01FF0F79
:102B9000880B990B0E94344E9B01AC01C701B60112
:102BA0000E94134D8B015C01B101330C880B990B12
:102BB0000E94344E2CE53FE842E85FE30E94374F25
:102BC0006B017C019B01AC01B801C5010E94324F31
:102BD00018160CF0DDCE5C2D4D2D3E2D2F2DDCCEAC
:102BE000EF81F88560817181072E000C880B990BAD
:102BF0000E94344E562F472F382F292FCDCE2F929B
:102C00003F924F925F926F927F928F929F92AF927C
:102C1000BF92CF92DF92EF92FF921F93CF93DF93F9
:102C2000CDB7DEB72C970FB6F894DEBF0FBECDBF81
:102C30001C016A017B01DC018D909D90AD90BC90E0
:102C40001397481559056A057B050CF07DC014964D
:102C50002D913D914D915C91179729833A834B8338
:102C60005C831C966D917D918D919C911F970E9424
:102C7000124D2B013C01F10180859185A285B38520
:102C8000BC01CD01681979098A099B090E94344E5B
:102C90009B01AC01C301B2010E94844D2B013C0198
:102CA000C701B601681979098A099B090E94344E47
:102CB0009B01AC01C301B2010E94374F9B01AC01E3
:102CC00069817A818B819C810E94134DF62E172F8A
:102CD000982EA92E2CE53FE842E85FE369817A81CE
:102CE0008B819C810E94374FB62EC72ED82EE92E9D
:102CF000262F372F482F592F6F2D712F892D9A2D61
:102D00000E947F4D87FD37C15F2D412F392D2A2D20
:102D1000652F742F832F922F2C960FB6F894DEBF59
:102D20000FBECDBFDF91CF911F91FF90EF90DF904D
:102D3000CF90BF90AF909F908F907F906F905F905B
:102D40004F903F902F900895DC0190964D905D90AC
:102D50006D907C90939744165506660677060CF4A2
:102D600095C014E0B12C0FC04C155D056E057F05B4
:102D70000CF006C19C01CD01BA2CAC01421B530BD7
:102D8000423051051CF12B2D30E0A12FB0E0C901DC
:102D90008A0F9B1F95958795A82EFC01EE0FFF1FAC
:102DA000EE0FFF1FEE0FFF1FE20DF31D408151815B
:102DB00062817381C416D506E606F706ACF6182FB5
:102DC000AC01421B530B42305105ECF6220F331F6E
:102DD000220F331F220F331FF101E20FF31F8480F4
:102DE0009580A680B78020813181428153812983DB
:102DF0003A834B835C83880F991F880F991F880F34
:102E0000991F280E391EA5019401D10114966D91C8
:102E10007D918D919C9117970E94124D2B013C0141
:102E2000F10180819181A281B381BC01CD01298111
:102E30003A814B815C81621B730B840B950B0E9462
:102E4000344E9B01AC01C301B2010E94844D2B01A1
:102E50003C01C701B60129813A814B815C81621B2B
:102E6000730B840B950B0E94344E9B01AC01C30184
:102E7000B2010E94374F9B01AC01C501B4010E9411
:102E8000134D562F472F382F292F42CF94968D90D0
:102E90009D90AD90BC9097975C962D913D914D91F2
:102EA0005C915F9729833A834B835C8358962D917D
:102EB0003D914D915C915B972D833E834F83588765
:102EC00029813A814B815C81C501B4010E94124D78
:102ED00069877A878B879C87C301B2012D813E81E8
:102EE0004F815885621B730B840B950B0E94344EE7
:102EF0009B01AC0169857A858B859C850E94844DF8
:102F00002B013C01C701B6012D813E814F815885BF
:102F1000621B730B840B950B0E94344E9B01AC011A
:102F2000C301B2010E94374F9B01AC0169817A81D4
:102F30008B819C810E94134DF62E172F3C012CE5AE
:102F40003FE842E85FE3C501B4010E94374FB62E67
:102F5000C72ED82EE92E262F372F482F592F6F2D09
:102F6000712FC3010E94324F18162CF05F2D412F94
:102F7000362D272DCDCE5B2D4C2D3D2D2E2DC8CEA3
:102F80005481458136812781C3CE2F923F924F9243
:102F90005F926F927F928F929F92AF92BF92CF92E9
:102FA000DF92EF92FF921F93CF93DF93CDB7DEB7FF
:102FB0002C970FB6F894DEBF0FBECDBF1C016A017F
:102FC0007B01DC018D909D90AD90BC9013974815CE
:102FD00059056A057B050CF07DC014962D913D9135
:102FE0004D915C91179729833A834B835C831C96A0
:102FF0006D917D918D919C911F970E94124D2B0197
:103000003C01F10180859185A285B385BC01CD018C
:10301000681979098A099B090E94344E9B01AC0109
:10302000C301B2010E94844D2B013C01C701B601CE
:10303000681979098A099B090E94344E9B01AC01E9
:10304000C301B2010E94374F9B01AC0169817A81B3
:103050008B819C810E94134DF62E172F982EA92E3E
:103060002CE53FE842E85FE369817A818B819C81AE
:103070000E94374FB62EC72ED82EE92E262F372F77
:10308000482F592F6F2D712F892D9A2D0E947F4D1A
:1030900087FD37C15F2D412F392D2A2D652F742FC4
:1030A000832F922F2C960FB6F894DEBF0FBECDBFA4
:1030B000DF91CF911F91FF90EF90DF90CF90BF9065
:1030C000AF909F908F907F906F905F904F903F90C8
:1030D0002F900895DC0190964D905D906D907C90BE
:1030E000939744165506660677060CF495C014E0CF
:1030F000B12C0FC04C155D056E057F050CF006C1A7
:103100009C01CD01BA2CAC01421B530B423051053E
:103110001CF12B2D30E0A12FB0E0C9018A0F9B1FBD
:1031200095958795A82EFC01EE0FFF1FEE0FFF1F50
:10313000EE0FFF1FE20DF31D40815181628173810B
:10314000C416D506E606F706ACF6182FAC01421BEE
:10315000530B42305105ECF6220F331F220F331F61
:10316000220F331FF101E20FF31F84809580A680A8
:10317000B780208131814281538129833A834B83F7
:103180005C83880F991F880F991F880F991F280E3D
:10319000391EA5019401D10114966D917D918D91F7
:1031A0009C9117970E94124D2B013C01F1018081E7
:1031B0009181A281B381BC01CD0129813A814B81EA
:1031C0005C81621B730B840B950B0E94344E9B0138
:1031D000AC01C301B2010E94844D2B013C01C70127
:1031E000B60129813A814B815C81621B730B840B90
:1031F000950B0E94344E9B01AC01C301B2010E94A9
:10320000374F9B01AC01C501B4010E94134D562FED
:10321000472F382F292F42CF94968D909D90AD90B7
:10322000BC9097975C962D913D914D915C915F97E5
:1032300029833A834B835C8358962D913D914D9120
:103240005C915B972D833E834F83588729813A8118
:103250004B815C81C501B4010E94124D69877A8758
:103260008B879C87C301B2012D813E814F81588598
:10327000621B730B840B950B0E94344E9B01AC01B7
:1032800069857A858B859C850E94844D2B013C0144
:10329000C701B6012D813E814F815885621B730B9A
:1032A000840B950B0E94344E9B01AC01C301B2010B
:1032B0000E94374F9B01AC0169817A818B819C818F
:1032C0000E94134DF62E172F3C012CE53FE842E8F3
:1032D0005FE3C501B4010E94374FB62EC72ED82E2A
:1032E000E92E262F372F482F592F6F2D712FC3010D
:1032F0000E94324F18162CF05F2D412F362D272DAE
:10330000CDCE5B2D4C2D3D2D2E2DC8CE548145812B
:1033100036812781C3CE0895549A559808955C98B4
:1033200008955C9A08950895089589B185FB8827CA
:1033300080F991E0892708958530910540F4FC01DA
:10334000EE0FFF1FE456FE4F859194910895ECE92E
:10335000F1E08591949108954F925F926F927F92E0
:103360008F929F92AF92BF92EF92FF920F931F9313
:10337000CF93DF93EC018B01FC01619371937F018B
:10338000CB010E948A2E5C010E94AF2EA701B501DD
:103390000E94DC43889709F466C0F801EE0FFF1F16
:1033A000EE0FFF1FED57FE4F85909590A590B490BE
:1033B000C501B401905823E3422E542C23EF622E12
:1033C00077247A944A825B826C827D826E837F83CB
:1033D0008887998731EE432E3AE7532E34EF632ED8
:1033E00077247A944A865B866C867D8626E636E666
:1033F00046E65FE30E94374F6E877F87888B998B05
:103400001A8A1B8A1C8A1D8A1E8A1F8A188E198E88
:103410008FE195E8ABE0B0E08A8F9B8FAC8FBD8FDA
:1034200026E636E646E65FE3C501B4010E94374F63
:103430006E8F7F8F88A399A38DEC9CECACE0B0E0FD
:103440008AA39BA3ACA3BDA38EA29FA2A8A6B9A644
:10345000888199810E948A2E5C010E94AF2EA7016B
:10346000B5010E944644AA96CE010E940D40F80183
:10347000E956FE4F0491682F607F602BCE01DF91EB
:10348000CF911F910F91FF90EF90BF90AF909F90C1
:103490008F907F906F905F904F900C94EF3F809152
:1034A000D402811186C010929C0210929D0210924B
:1034B0009E0210929F021092A0021092A1021092FE
:1034C000A2021092A3021092A4021092A5021092DE
:1034D000A6021092A7021092A8021092A9021092BE
:1034E000AA021092AB021092AC021092AD0210929E
:1034F000AE021092AF021092B0021092B10210927E
:10350000B2021092B3021092B4021092B50210925D
:10351000B6021092B7021092B8021092B90210923D
:10352000BA021092BB021092BC021092BD0210921D
:10353000BE021092BF021092C0021092C1021092FD
:10354000C2021092C30260E084EC92E00E94EC3F61
:1035500085EC92E00E94674188ED91E09093C6026D
:103560008093C50285EC92E00E94824160E170E0A8
:1035700088EC92E00E94504884EC92E00E948340E4
:10358000682F607F84EC92E00E94AF4084EC92E070
:103590000E943940682F607F84EC92E00E94654071
:1035A00062E070E08AE992E00E94AC1981E08093C9
:1035B000D4028AE992E00895AF92BF92CF92DF924F
:1035C000EF92FF920F931F93CF93DF93CDB7DEB7A8
:1035D00027970FB6F894DEBF0FBECDBF5C016130F8
:1035E00081E0780710F060E071E0CE0101960E9462
:1035F000D2482B813C818D819E812817390709F49F
:1036000052C08501055D1F4F16C00E942C426B0100
:103610007C0144275527BA014C195D096E097F09C1
:10362000CE0101960E94EC482B813C818D819E81C8
:1036300028173907C1F10E943138FC01C080D180C0
:103640000D2C000CEE08FF087601DD24CC240E942E
:103650003138FC0182819381092E000CAA0BBB0B2F
:10366000BA2FA92F982F8827C82AD92AEA2AFB2AF5
:103670000E943138FC0184819581092E000CAA0B2F
:10368000BB0BC82AD92AEA2AFB2A60E0C801C11468
:10369000D104F3E0EF06F10408F0B7CF0E942C420A
:1036A000AB01BC01BDCFCE0101960E940E490E9424
:1036B000A44F0E94F64DAB01BC01C50102960E94C9
:1036C000FF156B017C01CE0101960E94E748C701FE
:1036D000B60127960FB6F894DEBF0FBECDBFDF91BF
:1036E000CF911F910F91FF90EF90DF90CF90BF90FF
:1036F000AF900895CF92DF92EF92FF920F931F93B6
:10370000CF93DF93EC01E881F981EE0FFF1FEE0FFD
:10371000FF1FED57FE4FC590D590E590F490C7017F
:10372000B601905803E313E323EF3FEF0A831B83B3
:103730002C833D836E837F838887998701EE1AE708
:1037400024EF3FEF0A871B872C873D8726E636E666
:1037500046E65FE30E94374F6E877F87888B998BA1
:103760001A8A1B8A1C8A1D8A1E8A1F8A188E198E25
:103770008FE195E8ABE0B0E08A8F9B8FAC8FBD8F77
:1037800026E636E646E65FE3C701B6010E94374FFC
:103790006E8F7F8F88A399A38DEC9CECACE0B0E09A
:1037A0008AA39BA3ACA3BDA3CEA2DFA2E8A6F9A6E1
:1037B000DF91CF911F910F91FF90EF90DF90CF900D
:1037C00008954F925F926F927F928F929F92AF92E5
:1037D000BF92CF92DF92EF92FF920F931F93CF93FE
:1037E000DF93CDB7DEB72C970FB6F894DEBF0FBED0
:1037F000CDBF4C015B0129013A0160E870E0CE01C8
:1038000001960E9450488B859C85892B09F457C0EE
:103810008401055D1F4F14C00E942C426B017C0186
:1038200044275527BA014C195D096E097F09CE015D
:1038300001960E946C488B859C85892B09F43FC0BA
:103840000E943138FC01C080D1800D2C000CEE08A4
:10385000FF087601DD24CC240E943138FC018281EE
:103860009381092E000CAA0BBB0BBA2FA92F982FFE
:103870008827C82AD92AEA2AFB2A0E943138FC0163
:1038800084819581092E000CAA0BBB0BC82AD92A6A
:10389000EA2AFB2A60E0C801C114D104F3E0EF0674
:1038A000F10408F0B9CF0E942C42AB01BC01CE015B
:1038B00001960E946C488B859C85892B09F6CE0168
:1038C00001960E94A7480E94A44FBB24AA0CBB1CCF
:1038D000AA0CBB1CAA0CBB1C8A0C9B1C0E94F64D9C
:1038E000F401628373838483958346825782608662
:1038F00071862C960FB6F894DEBF0FBECDBFDF9158
:10390000CF911F910F91FF90EF90DF90CF90BF90DC
:10391000AF909F908F907F906F905F904F900895A1
:103920000F931F93CF93DF93EC01899199910E949C
:103930008A2E8C010E94AF2EAE01B801DF91CF918B
:103940001F910F910C944644CF92DF92EF92FF9219
:103950000F931F93CF93DF93EC010E943138FC014A
:10396000C080D1800D2C000CEE08FF087601DD240C
:10397000CC240E943138FC0182819381092E000CF5
:10398000AA0BBB0BBA2FA92F982F8827C82AD92A90
:10399000EA2AFB2A0E943138FC0184819581092E94
:1039A000000CAA0BBB0BC82AD92AEA2AFB2A60E022
:1039B000CE018B96C114D104F3E0EF06F104B8F008
:1039C0000E942C428B019C0144275527BA01401BC1
:1039D000510B620B730BCE018E96DF91CF911F912D
:1039E0000F91FF90EF90DF90CF900C946C480E9465
:1039F0002C42AB01BC01EFCFCF92DF92EF92FF924E
:103A00000F931F93CF93DF938C01EC01AE96CE0101
:103A10000E94A7480E94A44F0E94F64DAB01BC0132
:103A2000C80102960E94FF156B017C01CE010E9425
:103A30005E48C701B601DF91CF911F910F91FF90B2
:103A4000EF90DF90CF9008955F9808955F9A089562
:103A5000579A08958530910540F4FC01EE0FFF1F41
:103A6000E154FE4F859194910895EFEBF1E085913B
:103A7000949108958F929F92AF92BF92CF92DF92CE
:103A8000EF92FF920F931F93CF93DF93EC0181E0AE
:103A90008AA77E0184E2E80EF11CC7010E940D4056
:103AA000682F6F7EC7010E94EF3F0C811D816E0160
:103AB00086E0C80ED11CC8010E946A2E5C010E94DB
:103AC000AF2EA601B5010E94DC434E9709F44DC00C
:103AD000F801EE0FFF1FEE0FFF1FEA55FE4F859016
:103AE0009590A590B490C501B40190582BEB33EF9D
:103AF0003F832E83688779878A879B8725EF34EFFA
:103B00003D872C8726E636E646E65FE30E94374F80
:103B10006E877F87888B998B1B8A1A8A1C8A1D8ADD
:103B20001E8A1F8A8BE09BE0998F888F26E636E6F7
:103B300046E65FE3C501B4010E94374F6A8F7B8F71
:103B40008C8F9D8F85E49CE09F8F8E8F88A299A299
:103B5000AAA2BBA28C819D810E946A2E5C010E9458
:103B6000AF2EA601B5010E944644C7010E940D4038
:103B7000F801E654FE4F0491682F607F602BC70167
:103B80000E94EF3F8AA581110DC0DF91CF911F9157
:103B90000F91FF90EF90DF90CF90BF90AF909F90EC
:103BA0008F900895488159816A817B81C6010E9466
:103BB00036118C01BC01C6010E94D90F688379833C
:103BC0008A839B83B8017058CE018596DF91CF918F
:103BD0001F910F91FF90EF90DF90CF90BF90AF902B
:103BE0009F908F900C941541FC0112A608958F921E
:103BF0009F92AF92BF92CF92DF92EF92FF920F937C
:103C00001F93CF93DF93EC018B017D836C837C0149
:103C100086E0E80EF11CCB010E946A2E6C010E9426
:103C2000AF2EA701B6010E94DC434E9709F44DC0A8
:103C3000F801EE0FFF1FEE0FFF1FEA55FE4F8590B4
:103C40009590A590B490C501B40190582BEB33EF3B
:103C50003F832E83688779878A879B8725EF34EF98
:103C60003D872C8726E636E646E65FE30E94374F1F
:103C70006E877F87888B998B1B8A1A8A1C8A1D8A7C
:103C80001E8A1F8A8BE09BE0998F888F26E636E696
:103C900046E65FE3C501B4010E94374F6A8F7B8F10
:103CA0008C8F9D8F85E49CE09F8F8E8F88A299A238
:103CB000AAA2BBA28C819D810E946A2E6C010E94E7
:103CC000AF2EA701B6010E9446446E0184E2C80EE1
:103CD000D11CC6010E940D40F801E654FE4F04912C
:103CE000682F607F602BC6010E94EF3F8AA581117B
:103CF0000DC0DF91CF911F910F91FF90EF90DF905A
:103D0000CF90BF90AF909F908F9008954881598138
:103D10006A817B81C7010E9436118C01BC01C701F9
:103D20000E94D90F688379838A839B83B801705876
:103D3000CE018596DF91CF911F910F91FF90EF906B
:103D4000DF90CF90BF90AF909F908F900C941541D3
:103D5000CF92DF92EF92FF920F931F93CF93DF9357
:103D6000EC01188219821A821B8282E090E09D8306
:103D70008C836E0186E0C80ED11C1F821E821886BD
:103D800019861A861B861D861C861E861F86188A23
:103D9000198A1B8A1A8A1C8A1D8A1E8A1F8A198EF2
:103DA000188E1A8E1B8E1C8E1D8E1F8E1E8E18A2B4
:103DB00019A21AA21BA28E010C5D1F4F60E0C80160
:103DC0000E94EC3F7E0185E2E80EF11CC7010E94D3
:103DD000D0408AEE91E09EA38DA3C7010E94ED40E2
:103DE0001AA6C8010E948340682F607CC8010E9407
:103DF000AF40C8010E943940682F607CC8010E9412
:103E0000654062E070E0CE010E94F71D40E050E0A6
:103E1000BA01C6010E9436118C01BC01C6010E9484
:103E2000D90F688379838A839B83B8017058C7014F
:103E3000DF91CF911F910F91FF90EF90DF90CF9086
:103E40000C94154180910703811107C08CED92E01D
:103E50000E94A81E81E0809307038CED92E00895F4
:103E6000EF92FF920F931F93CF93DF938C017C010E
:103E700086E0E80EF11CC7010E943611EC01BC017E
:103E8000C7010E94D90FF8016083718382839383F5
:103E9000BE017058C8018596DF91CF911F910F9197
:103EA000FF90EF900C941541CF92DF92EF92FF922A
:103EB000CF93DF93EC01EC81FD81EE0FFF1FEE0F3E
:103EC000FF1FEA55FE4FC590D590E590F490C701CD
:103ED000B60190582BEB33EF3F832E8368877987A9
:103EE0008A879B8725EF34EF3D872C8726E636E6C9
:103EF00046E65FE30E94374F6E877F87888B998BFA
:103F00001B8A1A8A1C8A1D8A1E8A1F8A8BE09BE0E4
:103F1000998F888F26E636E646E65FE3C701B6014D
:103F20000E94374F6A8F7B8F8C8F9D8F85E49CE03A
:103F30009F8F8E8FC8A2D9A2EAA2FBA2DF91CF9158
:103F4000FF90EF90DF90CF9008957727FB01EE0F61
:103F5000FF1FE60FF71FEE0FFF1FE80FF91F668127
:103F60007781705885960C9415417727FB01EE0FE9
:103F7000FF1F6E0F7F1F660F771F860F971FFC01B5
:103F8000208731874287538708950F931F93CF93DC
:103F9000DF93EC018C819D810E946A2E8C010E942E
:103FA000AF2EAE014A5F5F4FB801DF91CF911F91F5
:103FB0000F910C944644089521E030E0FC0130AFAD
:103FC00027ABBC01695C7F4F0C94FE38443051052F
:103FD00008F4089528E030E0FC0130AF27ABBC01C5
:103FE000695C7F4F0C94FE384430510508F4089505
:103FF0002EE030E0FC0130AF27ABBC01695C7F4FA5
:104000000C94FE384430510508F4089523E130E063
:10401000FC0130AF27ABBC01695C7F4F0C94FE38CC
:104020004430510508F4089528E130E0FC0130AF38
:1040300027ABBC01695C7F4F0C94FE3844305105BE
:1040400008F408952AE130E0FC0130AF27ABBC0151
:10405000695C7F4F0C94FE384430510508F4089594
:104060002BE130E0FC0130AF27ABBC01695C7F4F36
:104070000C94FE384430510508F408952CE130E0EA
:10408000FC0130AF27ABBC01695C7F4F0C94FE385C
:104090004430510508F408952DE130E0FC0130AFC3
:1040A00027ABBC01695C7F4F0C94FE38443051054E
:1040B00008F4089521E230E0FC0130AF27ABBC01E9
:1040C000695C7F4F0C94FE384430510508F4089524
:1040D00022E230E0FC0130AF27ABBC01695C7F4FCE
:1040E0000C94FE384430510508F4089526E230E07F
:1040F000FC0130AF27ABBC01695C7F4F0C94FE38EC
:104100004430510508F4089528E230E0FC0130AF56
:1041100027ABBC01695C7F4F0C94FE3844305105DD
:1041200008F408952AE230E0FC0130AF27ABBC016F
:10413000695C7F4F0C94FE380F931F93FB01A081A5
:10414000B1812B2F3A2F2C32310540F5EB2FFA2F6E
:10415000EE0FFF1FEE0FFF1FE753FE4F0591159166
:1041600025913491F80120FF12C0F901F595E795EA
:10417000DC01AE0FBF1FED91FC911197E00FF11F15
:104180000190F081E02DCD011F910F91099435959B
:104190002795820F931F1F910F9109941F910F91E3
:1041A00008954830510508F40895DB011596EC9107
:1041B00015971496FC91E230F10580F0E3EAF2E005
:1041C0002591349143E050E0FC0150AF47AB32AF52
:1041D00021AFBC01695C7F4F0C94FE38EE0FFF1FCE
:1041E000ED55FD4FEDCF4830510508F40895DB0142
:1041F0001596EC9115971496FC91E530F10590F425
:10420000EE0FFF1FE756FD4F2591349144E050E03B
:10421000FC0150AF47AB32AF21AFBC01695C7F4FAF
:104220000C94FE38E9E9F2E0EFCF4830510578F020
:10423000FB012481358145E050E0FC0150AF47ABE4
:1042400031AF22AFBC01695C7F4F0C94FE380895FA
:104250004830510578F0FB012481358146E050E07B
:10426000FC0150AF47AB31AF22AFBC01695C7F4F5F
:104270000C94FE3808954830510508F40895DB0188
:104280001596EC9115971496FC91E230F10580F0AB
:10429000E5E9F2E0259134914AE050E0FC0150AFAD
:1042A00047AB32AF21AFBC01695C7F4F0C94FE3845
:1042B000EE0FFF1FEB56FD4FEDCF4830510578F064
:1042C000FB01248135814BE050E0FC0150AF47AB4E
:1042D00031AF22AFBC01695C7F4F0C94FE3808956A
:1042E0004830510578F0FB01248135814CE050E0E5
:1042F000FC0150AF47AB31AF22AFBC01695C7F4FCF
:104300000C94FE3808954830510508F40895DB01F7
:104310001596EC9115971496FC91E530F10590F403
:10432000EE0FFF1FE557FD4F2591349140E150E01E
:10433000FC0150AF47AB32AF21AFBC01695C7F4F8E
:104340000C94FE38EBE8F2E0EFCF4830510578F0FE
:10435000FB012481358141E150E0FC0150AF47ABC6
:1043600031AF22AFBC01695C7F4F0C94FE380895D9
:104370004830510578F0FB012481358144E150E05B
:10438000FC0150AF47AB31AF22AFBC01695C7F4F3E
:104390000C94FE3808954830510508F40895DB0167
:1043A0001596EC9115971496FC91E630F10590F472
:1043B000EE0FFF1FE158FD4F2591349145E150E08C
:1043C000FC0150AF47AB32AF21AFBC01695C7F4FFE
:1043D0000C94FE38EFE7F2E0EFCF4830510578F06B
:1043E000FB012481358146E150E0FC0150AF47AB31
:1043F00031AF22AFBC01695C7F4F0C94FE38089549
:104400004830510578F0FB012481358149E150E0C5
:10441000FC0150AF47AB31AF22AFBC01695C7F4FAD
:104420000C94FE3808954830510578F0FB01248142
:1044300035814EE150E0FC0150AF47AB31AF22AFC8
:10444000BC01695C7F4F0C94FE38089548305105DB
:1044500008F40895EDE7F2E02591349143E250E04D
:10446000FC0150AF47AB32AF21AFBC01695C7F4F5D
:104470000C94FE384830510578F0FB0124813581D9
:1044800044E250E0FC0150AF47AB31AF22AFBC017A
:10449000695C7F4F0C94FE3808954830510578F0E0
:1044A000FB012481358147E250E0FC0150AF47AB6E
:1044B00031AF22AFBC01695C7F4F0C94FE38089588
:1044C0004830510508F40895DB011596EC911597D5
:1044D0001496FC91E230F10580F0E9E7F2E02591D5
:1044E000349149E250E0FC0150AF47AB32AF21AF0D
:1044F000BC01695C7F4F0C94FE38EE0FFF1FE7583C
:10450000FD4FEDCFFB014C305105D0F0448155817A
:10451000B385A2853185208567E070E0FC0170AF2E
:1045200067AB51AF42AF4B2F5A2F632F722F43AF60
:1045300054AF65AF76AFBC01695C7F4F0C94FE3819
:104540000895FB0148305105B0F0B781A68135814F
:10455000248149E050E0FC0150AF47AB4B2F5A2F6C
:10456000632F722F41AF52AF63AF74AFBC01695C70
:104570007F4F0C94FE380895FB014C305105D0F06C
:1045800044815581B385A285318520856DE070E039
:10459000FC0170AF67AB51AF42AF4B2F5A2F632F67
:1045A000722F43AF54AF65AF76AFBC01695C7F4FEC
:1045B0000C94FE380895FB0148305105B0F0B781E6
:1045C000A681358124814FE050E0FC0150AF47AB1C
:1045D0004B2F5A2F632F722F41AF52AF63AF74AF7F
:1045E000BC01695C7F4F0C94FE380895FB014C3090
:1045F0005105D0F044815581B385A2853185208550
:1046000062E170E0FC0170AF67AB51AF42AF4B2F7E
:104610005A2F632F722F43AF54AF65AF76AFBC01F3
:10462000695C7F4F0C94FE380895FB014C305105B6
:10463000D0F044815581B385A2853185208567E11D
:1046400070E0FC0170AF67AB51AF42AF4B2F5A2FF8
:10465000632F722F43AF54AF65AF76AFBC01695C77
:104660007F4F0C94FE380895FB014C305105D0F07B
:1046700044815581B385A2853185208565E270E04E
:10468000FC0170AF67AB51AF42AF4B2F5A2F632F76
:10469000722F43AF54AF65AF76AFBC01695C7F4FFB
:1046A0000C94FE3808954830510578F0FB012481C0
:1046B00035814FE150E0FC0150AF47AB31AF22AF45
:1046C000BC01695C7F4F0C94FE380895FB014830B3
:1046D000510590F0448155812681378160E270E078
:1046E000FC0170AF67AB51AF42AF33AF24AFBC0139
:1046F000695C7F4F0C94FE380895FB0148305105EA
:10470000A0F047815681658174812BE230E0FC0185
:1047100030AF27AB6627772741AF52AF63AF74AF97
:10472000BC01695C7F4F0C94FE380895AF92BF9234
:10473000CF92DF92EF92FF920F931F93CF93DF936D
:104740007C010E94A7450E940B465C010E949D458A
:10475000EC01892B59F4DF91CF911F910F91FF90BC
:10476000EF90DF90CF90BF90AF900895670186E003
:10477000C80ED11C85015701EEE0AE0EB11C05C07C
:10478000C6010E94323F219731F3F80161918F01F8
:10479000C6010E94463FF70190A99923A1F34085E5
:1047A00051854430510560F3B501C7010E949C203A
:1047B000E7CFEF92FF920F931F93CF93DF93EC011C
:1047C00082E090E098AF8FABBE01695C7F4FCE0175
:1047D0000E94FE388E010A5F1F4F64E070E0C8013E
:1047E0000E940D3FEC01188682E089871B861A869D
:1047F000CE010E94EE3EED80FC800E94A745A701FD
:10480000485F5F4FBE010E944646BE01C801DF916E
:10481000CF911F910F91FF90EF900C941D3F853029
:10482000910540F4FC01EE0FFF1FE756FD4F859107
:1048300094910895E9E9F2E0859194910895823088
:10484000910528F0E5E9F2E0859194910895FC0145
:10485000EE0FFF1FEB56FD4F859194910895853023
:10486000910540F4FC01EE0FFF1FE557FD4F8591C8
:1048700094910895EBE8F2E0859194910895863043
:10488000910540F4FC01EE0FFF1FE158FD4F8591AB
:1048900094910895EFE7F2E0859194910895EDE702
:1048A000F2E08591949108958230910528F0E9E72E
:1048B000F2E0859194910895FC01EE0FFF1FE758F7
:1048C000FD4F85919491089580914E03811119C0F7
:1048D0008FE093E00E94DE3884EF91E09093100324
:1048E00080930F0385E193E00E941E3F0E94A7453D
:1048F00040E855E260E070E00E94EC4581E0809382
:104900004E038FE093E008958F929F92AF92BF92F3
:10491000CF92DF92EF92FF920F931F93CF93DF938B
:1049200000D000D0CDB7DEB75B0106966C016CE21B
:1049300070E029833A834B835C830E940D3F4C01D6
:10494000FC01108681E08187138612865C8154A762
:104950004B8145A73A8136A7298127A710AB01AB28
:10496000F2AAE3AAC4010C9620E2FC0111922A9556
:10497000E9F7B5010E944E52C4010E94EE3EF401D7
:10498000058114810E94A745A801485F5F4FB401CB
:104990000E944646B401C6010F900F900F900F90F1
:1049A000DF91CF911F910F91FF90EF90DF90CF900B
:1049B000BF90AF909F908F900C941D3FEF92FF920D
:1049C0000F931F93CF93DF93162F072F06967C012B
:1049D00068E070E00E940D3FEC01188683E0898753
:1049E0001B861A860C871D871F861E86CE010E9495
:1049F000EE3E0D811C810E94A745A801485F5F4FD4
:104A0000BE010E944646BE01C701DF91CF911F91B2
:104A10000F91FF90EF900C941D3FEF92FF920F9338
:104A20001F93CF93DF93162F072F06967C0168E024
:104A300070E00E940D3FEC01188684E089871B8698
:104A40001A860C871D871F861E86CE010E94EE3EA9
:104A50000D811C810E94A745A801485F5F4FBE01E0
:104A60000E944646BE01C701DF91CF911F910F9171
:104A7000FF90EF900C941D3FAF92BF92CF92DF92C8
:104A8000EF92FF920F931F93CF93DF9300D000D04C
:104A9000CDB7DEB7D62EC72E06967C016CE070E04F
:104AA0002B833C8349835A830E940D3F5C01FC01A8
:104AB000108685E0818713861286C486D5865A8142
:104AC0005687498147873C812B81C801432F522F4C
:104AD000692F702FF501408B518B628B738BC50151
:104AE0000E94EE3EF501058114810E94A745A801B0
:104AF000485F5F4FB5010E944646B501C7010F9060
:104B00000F900F900F90DF91CF911F910F91FF9019
:104B1000EF90DF90CF90BF90AF900C941D3FAF927D
:104B2000BF92CF92DF92EF92FF920F931F93CF939A
:104B3000DF9300D000D0CDB7DEB7D62EC72E0696B5
:104B40007C016CE070E02B833C8349835A830E9494
:104B50000D3F5C01FC01108686E08187138612867A
:104B6000C486D5865A815687498147873C812B81E7
:104B7000C801432F522F692F702FF501408B518BA5
:104B8000628B738BC5010E94EE3EF5010581148195
:104B90000E94A745A801485F5F4FB5010E944646A5
:104BA000B501C7010F900F900F900F90DF91CF913B
:104BB0001F910F91FF90EF90DF90CF90BF90AF903B
:104BC0000C941D3FAF92BF92CF92DF92EF92FF9273
:104BD0000F931F93CF93DF9300D000D0CDB7DEB7F4
:104BE000D62EC72E06967C016CE070E02B833C83AA
:104BF00049835A830E940D3F5C01FC01108687E0C7
:104C0000818713861286C486D5865A815687498144
:104C100047873C812B81C801432F522F692F702F6A
:104C2000F501408B518B628B738BC5010E94EE3E68
:104C3000F501058114810E94A745A801485F5F4FD7
:104C4000B5010E944646B501C7010F900F900F9025
:104C50000F90DF91CF911F910F91FF90EF90DF9018
:104C6000CF90BF90AF900C941D3FEF92FF920F93A7
:104C70001F93CF93DF9306967C0164E070E00E945F
:104C80000D3FEC01188688E089871B861A86CE01C5
:104C90000E94EE3E0D811C810E94A745A801485F3D
:104CA0005F4FBE010E944646BE01C701DF91CF9112
:104CB0001F910F91FF90EF900C941D3FCF92DF92C8
:104CC000EF92FF920F931F93CF93DF9300D0CDB756
:104CD000DEB7162F072F06967C0168E070E0498347
:104CE0005A830E940D3F6C01FC01108689E0818788
:104CF000138612865A81952F4981842F402F512F78
:104D0000692F782F4487558766877787C6010E9469
:104D1000EE3EF601058114810E94A745A801485F77
:104D20005F4FB6010E944646B601C7010F900F9033
:104D3000DF91CF911F910F91FF90EF90DF90CF9077
:104D40000C941D3FEF92FF920F931F93CF93DF932D
:104D5000162F072F06967C0168E070E00E940D3F39
:104D6000EC0118868AE089871B861A860C871D87C6
:104D70001F861E86CE010E94EE3E0D811C810E9480
:104D8000A745A801485F5F4FBE010E944646BE018D
:104D9000C701DF91CF911F910F91FF90EF900C947D
:104DA0001D3FAF92BF92CF92DF92EF92FF920F938F
:104DB0001F93CF93DF9300D000D0CDB7DEB7D62EB0
:104DC000C72E06967C016CE070E02B833C83498300
:104DD0005A830E940D3F5C01FC0110868BE08187A5
:104DE00013861286C486D5865A815687498147879D
:104DF0003C812B81C801432F522F692F702FF50161
:104E0000408B518B628B738BC5010E94EE3EF50186
:104E1000058114810E94A745A801485F5F4FB50135
:104E20000E944646B501C7010F900F900F900F905A
:104E3000DF91CF911F910F91FF90EF90DF90CF9076
:104E4000BF90AF900C941D3FAF92BF92CF92DF9274
:104E5000EF92FF920F931F93CF93DF9300D000D078
:104E6000CDB7DEB7D62EC72E06967C016CE070E07B
:104E70002B833C8349835A830E940D3F5C01FC01D4
:104E800010868CE0818713861286C486D5865A8167
:104E90005687498147873C812B81C801432F522F78
:104EA000692F702FF501408B518B628B738BC5017D
:104EB0000E94EE3EF501058114810E94A745A801DC
:104EC000485F5F4FB5010E944646B501C7010F908C
:104ED0000F900F900F90DF91CF911F910F91FF9046
:104EE000EF90DF90CF90BF90AF900C941D3FAF92AA
:104EF000BF92CF92DF92EF92FF920F931F93CF93C7
:104F0000DF9300D000D0CDB7DEB7D62EC72E0696E1
:104F10007C016CE070E02B833C8349835A830E94C0
:104F20000D3F5C01FC0110868DE08187138612869F
:104F3000C486D5865A815687498147873C812B8113
:104F4000C801432F522F692F702FF501408B518BD1
:104F5000628B738BC5010E94EE3EF50105811481C1
:104F60000E94A745A801485F5F4FB5010E944646D1
:104F7000B501C7010F900F900F900F90DF91CF9167
:104F80001F910F91FF90EF90DF90CF90BF90AF9067
:104F90000C941D3FEF92FF920F931F93CF93DF93DB
:104FA00006967C0164E070E00E940D3FEC011886DB
:104FB0008EE089871B861A86CE010E94EE3E0D8107
:104FC0001C810E94A745A801485F5F4FBE010E9457
:104FD0004646BE01C701DF91CF911F910F91FF900F
:104FE000EF900C941D3FCF92DF92EF92FF920F93C0
:104FF0001F93CF93DF9300D0CDB7DEB7162F072FC7
:1050000006967C0168E070E049835A830E940D3F58
:105010006C01FC0110868FE08187138612865A810D
:10502000952F4981842F402F512F692F782F448746
:10503000558766877787C6010E94EE3EF601058197
:1050400014810E94A745A801485F5F4FB6010E94E6
:105050004646B601C7010F900F90DF91CF911F9187
:105060000F91FF90EF90DF90CF900C941D3FEF9247
:10507000FF920F931F93CF93DF93162F072F069660
:105080007C0168E070E00E940D3FEC01188680E131
:1050900089871B861A860C871D871F861E86CE0170
:1050A0000E94EE3E0D811C810E94A745A801485F29
:1050B0005F4FBE010E944646BE01C701DF91CF91FE
:1050C0001F910F91FF90EF900C941D3F8F929F9234
:1050D000AF92BF92CF92DF92EF92FF920F931F9306
:1050E000CF93DF9300D000D0CDB7DEB7B62EA72E7A
:1050F00006966C0160E170E029833A834B835C8300
:105100000E940D3F4C01FC01108681E181871386CE
:105110001286A486B586178616865C81508B4B81D5
:10512000418B3A81328B2981238B9801C701432F10
:10513000502F692F7E2D448B558B668B778BC40146
:105140000E94EE3EF401058114810E94A745A8014A
:10515000485F5F4FB4010E944646B401C6010F90FC
:105160000F900F900F90DF91CF911F910F91FF90B3
:10517000EF90DF90CF90BF90AF909F908F900C9466
:105180001D3F8F929F92AF92BF92CF92DF92EF928C
:10519000FF920F931F93CF93DF9300D000D0CDB732
:1051A000DEB7B62EA72E06966C0160E170E029836B
:1051B0003A834B835C830E940D3F4C01FC011086B7
:1051C00082E1818713861286A486B58617861686A5
:1051D0005C81508B4B81418B3A81328B2981238BAF
:1051E0009801C701432F502F692F7E2D448B558B7B
:1051F000668B778BC4010E94EE3EF4010581148119
:105200000E94A745A801485F5F4FB4010E9446462F
:10521000B401C6010F900F900F900F90DF91CF91C6
:105220001F910F91FF90EF90DF90CF90BF90AF90C4
:105230009F908F900C941D3FEF92FF920F931F93BE
:10524000CF93DF9306967C0164E070E00E940D3FEF
:10525000EC01188683E189871B861A86CE010E949D
:10526000EE3E0D811C810E94A745A801485F5F4F5B
:10527000BE010E944646BE01C701DF91CF911F913A
:105280000F91FF90EF900C941D3FCF92DF92EF9221
:10529000FF920F931F93CF93DF9300D0CDB7DEB76C
:1052A000162F072F06967C0168E070E049835A8329
:1052B0000E940D3F6C01FC01108684E181871386FA
:1052C00012865A81952F4981842F402F512F692FA3
:1052D000782F4487558766877787C6010E94EE3E00
:1052E000F601058114810E94A745A801485F5F4F20
:1052F000B6010E944646B601C7010F900F90DF919C
:10530000CF911F910F91FF90EF90DF90CF900C9471
:105310001D3FEF92FF920F931F93CF93DF93162FB2
:10532000072F06967C0168E070E00E940D3FEC01BB
:10533000188685E189871B861A860C871D871F863C
:105340001E86CE010E94EE3E0D811C810E94A74563
:10535000A801485F5F4FBE010E944646BE01C701DB
:10536000DF91CF911F910F91FF90EF900C941D3F13
:105370008F929F92AF92BF92CF92DF92EF92FF9265
:105380000F931F93CF93DF9300D000D0CDB7DEB73C
:10539000B62EA72E06966C0160E170E029833A8351
:1053A0004B835C830E940D3F4C01FC01108686E11B
:1053B000818713861286A486B586178616865C8139
:1053C000508B4B81418B3A81328B2981238B980101
:1053D000C701432F502F692F7E2D448B558B668B31
:1053E000778BC4010E94EE3EF401058114810E9476
:1053F000A745A801485F5F4FB4010E944646B4012B
:10540000C6010F900F900F900F90DF91CF911F91D9
:105410000F91FF90EF90DF90CF90BF90AF909F9053
:105420008F900C941D3F8F929F92AF92BF92CF921C
:10543000DF92EF92FF920F931F93CF93DF9300D0F1
:1054400000D0CDB7DEB7B62EA72E06966C0160E170
:1054500070E029833A834B835C830E940D3F4C01AB
:10546000FC01108687E1818713861286A486B586A3
:10547000178616865C81508B4B81418B3A81328B2B
:105480002981238B9801C701432F502F692F7E2D2F
:10549000448B558B668B778BC4010E94EE3EF401E2
:1054A000058114810E94A745A801485F5F4FB401A0
:1054B0000E944646B401C6010F900F900F900F90C6
:1054C000DF91CF911F910F91FF90EF90DF90CF90E0
:1054D000BF90AF909F908F900C941D3FEF92FF92E2
:1054E0000F931F93CF93DF9306967C0164E070E0E7
:1054F0000E940D3FEC01188688E189871B861A8679
:10550000CE010E94EE3E0D811C810E94A745A8019C
:10551000485F5F4FBE010E944646BE01C701DF9152
:10552000CF911F910F91FF90EF900C941D3FCF9260
:10553000DF92EF92FF920F931F93CF93DF9300D0F0
:10554000CDB7DEB7162F072F06967C0168E070E016
:1055500049835A830E940D3F6C01FC01108689E14A
:105560008187138612865A81952F4981842F402F77
:10557000512F692F782F4487558766877787C60113
:105580000E94EE3EF601058114810E94A745A80104
:10559000485F5F4FB6010E944646B601C7010F90B3
:1055A0000F90DF91CF911F910F91FF90EF90DF90BF
:1055B000CF900C941D3FEF92FF920F931F93CF93C8
:1055C000DF9306967C0164E070E00E940D3FEC01E1
:1055D00018868AE189871B861A86CE010E94EE3ED4
:1055E0000D811C810E94A745A801485F5F4FBE0145
:1055F0000E944646BE01C701DF91CF911F910F91D6
:10560000FF90EF900C941D3FEF92FF920F931F932A
:10561000CF93DF9306967C0164E070E00E940D3F1B
:10562000EC0118868BE189871B861A86CE010E94C1
:10563000EE3E0D811C810E94A745A801485F5F4F87
:10564000BE010E944646BE01C701DF91CF911F9166
:105650000F91FF90EF900C941D3FEF92FF920F93EC
:105660001F93CF93DF9306967C0164E070E00E9465
:105670000D3FEC0118868CE189871B861A86CE01C6
:105680000E94EE3E0D811C810E94A745A801485F43
:105690005F4FBE010E944646BE01C701DF91CF9118
:1056A0001F910F91FF90EF900C941D3FEF92FF928E
:1056B0000F931F93CF93DF9306967C0164E070E015
:1056C0000E940D3FEC0118868DE189871B861A86A2
:1056D000CE010E94EE3E0D811C810E94A745A801CB
:1056E000485F5F4FBE010E944646BE01C701DF9181
:1056F000CF911F910F91FF90EF900C941D3FCF928F
:10570000DF92EF92FF920F931F93CF93DF9300D01E
:10571000CDB7DEB7162F072F06967C0168E070E044
:1057200049835A830E940D3F6C01FC0110868EE173
:105730008187138612865A81952F4981842F402FA5
:10574000512F692F782F4487558766877787C60141
:105750000E94EE3EF601058114810E94A745A80132
:10576000485F5F4FB6010E944646B601C7010F90E1
:105770000F90DF91CF911F910F91FF90EF90DF90ED
:10578000CF900C941D3FCF92DF92EF92FF920F9338
:105790001F93CF93DF9300D0CDB7DEB7162F072F1F
:1057A00006967C0168E070E049835A830E940D3FB1
:1057B0006C01FC0110868FE18187138612860487B5
:1057C00015875A81568749814787C6010E94EE3E58
:1057D000F601058114810E94A745A801485F5F4F2B
:1057E000B6010E944646B601C7010F900F90DF91A7
:1057F000CF911F910F91FF90EF90DF90CF900C947D
:105800001D3FCF92DF92EF92FF920F931F93CF93A2
:10581000DF9300D0CDB7DEB7162F072F06967C0199
:1058200068E070E049835A830E940D3F6C01FC01DF
:10583000108680E2818713861286048715875A8135
:10584000568749814787C6010E94EE3EF6010581D1
:1058500014810E94A745A801485F5F4FB6010E94CE
:105860004646B601C7010F900F90DF91CF911F916F
:105870000F91FF90EF90DF90CF900C941D3FEF922F
:10588000FF920F931F93CF93DF9306967C0164E002
:1058900070E00E940D3FEC01188681E289871B862B
:1058A0001A86CE010E94EE3E0D811C810E94A74502
:1058B000A801485F5F4FBE010E944646BE01C70176
:1058C000DF91CF911F910F91FF90EF900C941D3FAE
:1058D000EF92FF920F931F93CF93DF9306967C0175
:1058E00064E070E00E940D3FEC01188682E2898737
:1058F0001B861A86CE010E94EE3E0D811C810E94FD
:10590000A745A801485F5F4FBE010E944646BE0101
:10591000C701DF91CF911F910F91FF90EF900C94F1
:105920001D3FEF92FF920F931F93CF93DF93162F9C
:10593000072F06967C0168E070E00E940D3FEC01A5
:10594000188683E289871B861A860C871D871F8627
:105950001E86CE010E94EE3E0D811C810E94A7454D
:10596000A801485F5F4FBE010E944646BE01C701C5
:10597000DF91CF911F910F91FF90EF900C941D3FFD
:105980008F929F92AF92BF92CF92DF92EF92FF924F
:105990000F931F93CF93DF9300D000D0CDB7DEB726
:1059A000B62EA72E06966C0160E170E029833A833B
:1059B0004B835C830E940D3F4C01FC01108684E206
:1059C000818713861286A486B586178616865C8123
:1059D000508B4B81418B3A81328B2981238B9801EB
:1059E000C701432F502F692F7E2D448B558B668B1B
:1059F000778BC4010E94EE3EF401058114810E9460
:105A0000A745A801485F5F4FB4010E944646B40114
:105A1000C6010F900F900F900F90DF91CF911F91C3
:105A20000F91FF90EF90DF90CF90BF90AF909F903D
:105A30008F900C941D3F8F929F92AF92BF92CF9206
:105A4000DF92EF92FF920F931F93CF93DF9300D0DB
:105A500000D0CDB7DEB7B62EA72E06966C0160E15A
:105A600070E029833A834B835C830E940D3F4C0195
:105A7000FC01108685E2818713861286A486B5868E
:105A8000178616865C81508B4B81418B3A81328B15
:105A90002981238B9801C701432F502F692F7E2D19
:105AA000448B558B668B778BC4010E94EE3EF401CC
:105AB000058114810E94A745A801485F5F4FB4018A
:105AC0000E944646B401C6010F900F900F900F90B0
:105AD000DF91CF911F910F91FF90EF90DF90CF90CA
