:100000000C94A6020C94CE020C94CE020C94CE0258
:100010000C94CE020C94CE020C94CE020C94CE0220
:100020000C94CE020C94CE020C94CE020C94CE0210
:100030000C94CE020C94CE020C94CE020C94CE0200
:100040000C94D8450C94CE020C94CE020C94CE02A3
:100050000C94AD460C94CE020C94CE020C94CE02BD
:100060000C94CE020C94CE020C94CE020C94CE02D0
:10007000A50100007A4406A50100007A4405A50107
:1000800000007A4404B2010000803F06B201000083
:10009000803F05B2010000803F04BC010024744988
:1000A00005BC010024744904CB0100007A4406CB4E
:1000B0000100007A4405CB0100007A4404D002001C
:1000C00000D102000025090000DA0900002A03001F
:1000D0000098030000CA03000001040000CA0C00DD
:1000E0000050040000800400009C040000CE0400C6
:1000F0000005050000850C000054050000610300A8
:100100000084050000C8050000400C00000E0A0035
:10011000001C060000380600007C0600000F0D00E1
:1001200000FF0A0000D0060000D8060000E006002C
:1001300000E80600006B090000F00600002A070036
:10014000007D07000085070000E7080000E00700C9
:100150000040080000F00B0000AA0800002D080075
:10016000008D070000A9070000BA070000462F779E
:10017000206465762000492D5620536F75726365A3
:10018000204D6574657200ACC5273717B7D1386F3D
:1001900012833A0AD7233CCDCCCC3D08040201009F
:1001A00000000100020003000400ACC5273717B7A8
:1001B000D1386F12833A0AD7233CCDCCCC3D08040A
:1001C00002010000000100020003000400622000A0
:1001D000006320000009230000582100007A21005C
:1001E000009C210000AF210000392300006D200099
:1001F0000058230000C2210000E4210000F7210084
:1002000000732300007B200000922300000A2200DC
:10021000002C220000AD230000892000003F2200B6
:10022000005222000074220000CC2300009720001E
:100230000087220000A5200000B3200000C120009C
:1002400000CF2000009A2200000A2400001D240094
:1002500000DD200000EB200000AD220000C12200E4
:1002600000EB230000F9200000D422000007210049
:1002700000E72200001521000020230000000001FB
:10028000000000000001000200030004000500005F
:100290000001000200030004000000010000000152
:1002A00000020003000400000001001E001E001EEA
:1002B000001E001E001E001E002800280028002826
:1002C00000280028002800280028002800280020F6
:1002D00000280013000C000D000E000F001000118C
:1002E000000700080009000A000B000500060000D6
:1002F0000001000200030004006F12833A0AD723B2
:100300003CCDCCCC3D0000803F000020410000C827
:100310004208040201003000000100000001000258
:100320000003000400050000002041000000002040
:10033000410000C842002000000100030003000249
:10034000000AD7233C0300030003000AD7233C0321
:1003500000030004000AD7233C0200020004006FDF
:1003600012833A01000100040017B7D138010001DF
:10037000000400ACC52737010001000400BD37862A
:10038000350300030002000AD7233CCDCCCC3D034B
:1003900000030003000AD7233C0000803F03000352
:1003A0000004000AD7233C000020410200020004A0
:1003B000006F12833A000020410100010004001781
:1003C000B7D13800002041010001000400ACC5276E
:1003D0003700002041010001000400BD37863500D0
:1003E0000020410000010002000300040005000697
:1003F0000080C0113F0000123F0000183F00001EA7
:100400003F000000FFFFFFFF000100FF0020001081
:100410000008000400010203F7470000FE47000047
:100420001D480000A94800003C480000C9480000E1
:10043000434800004A480000514800006948000055
:1004400070480000944800006E616E00696E66009E
:1004500000407A10F35A00A0724E18090010A5D47B
:10046000E80000E87648170000E40B54020000CAD8
:100470009A3B000000E1F50500008096980000001E
:1004800040420F000000A08601000000102700007D
:100490000000E803000000006400000000000A0003
:1004A000000000000100000000002C76D888DC6706
:1004B0004F0823DFC1DFAE59E1B1B796E5E3E4535E
:1004C000C63AE651997696E8E6C28426EB898C9B7B
:1004D00062ED407C6FFCEFBC9C9F40F2BAA56FA51B
:1004E000F490055A2AF75C936B6CF9676DC11BFC9D
:1004F000E0E40D47FEF520E6B500D0ED902E0300B8
:10050000943577050080841E080000204E0A000004
:1005100000C80C333333330F986E12831141EF8DC3
:100520002114893BE65516CFFEE6DB18D1844B3803
:100530001BF77C1D901DA4BBE424203284725E2234
:100540008100C9F124ECA1E53D27433A11241FBEE7
:10055000CFEFD0E1DEBFCDBF12E0A0E0B1E0E4E636
:10056000F9EA02C005900D92A235B107D9F725E04E
:10057000A2E5B2E001C01D92A434B207E1F712E097
:10058000C6EAD2E004C02197FE010E94C851C53AD4
:10059000D107C9F70E9447100C94B0540C94000086
:1005A0000895CF92DF92EF92FF920F931F93CF9314
:1005B000DF9300D000D0CDB7DEB70E946C39FC01CC
:1005C000C080D1800D2C000CEE08FF087601DD24E0
:1005D000CC240E946C39FC0182819381092E000C8D
:1005E000AA0BBB0BBA2FA92F982F8827C82AD92A64
:1005F000EA2AFB2A0E946C39FC0124813581C90159
:10060000330FAA0BBB0BA7019601282B392B4A2BC2
:100610005B2B29833A834B835C830E94CC241DEFA0
:10062000E12EFF24FA940FEF1FEF29813A814B81CD
:100630005C8168E171E00E941C250F900F900F9083
:100640000F90DF91CF911F910F91FF90EF90DF906E
:10065000CF9008950F931F93CF93DF93EB018A817F
:100660009B810E94231A8C010E94D61AB8010E9415
:10067000331A0E94D61AFC01808191810E9497242E
:100680008C010E94CC24B8010E9434298A819B816C
:100690000E94B11DEC010E94A91FBE010E947E1E96
:1006A0000E94A91FFC01848195810E947724EC019E
:1006B0000E94CC24BE01DF91CF911F910F910C9429
:1006C0000A260F931F93CF93DF93EB018A819B81BF
:1006D0000E94B11D8C010E94A91FB8010E947E1EBC
:1006E0000E94A91FFC01848195810E9477248C01BE
:1006F0000E94CC24B8010E940A268A819B810E9414
:10070000231AEC010E94D61ABE010E94331A0E94DD
:10071000D61AFC01808191810E949724EC010E94ED
:10072000CC24BE01DF91CF911F910F910C943429FD
:100730008F929F92AF92BF92EF92FF920F931F936F
:10074000CF93DF93FB01C281D3810E94A91FDD27D4
:10075000FE01EE0FFF1FEC0FFD1FEE0FFF1FE80F56
:10076000F91F80849184A284B384E680F7800E947C
:10077000CC2495018401A701BE010E943926DF9196
:10078000CF911F910F91FF90EF90BF90AF909F90EE
:100790008F9008958F929F92AF92BF92EF92FF92A7
:1007A0000F931F93CF93DF93FB01C281D381DD278A
:1007B0000E94A91FBE010E942C200E94A91FFE01B9
:1007C000EE0FFF1FEC0FFD1FEE0FFF1FE80FF91FCD
:1007D00080849184A284B384E680F7800E94CC2434
:1007E00095018401A701BE010E948C26DF91CF9163
:1007F0001F910F91FF90EF90BF90AF909F908F90BF
:1008000008958F929F92AF92BF92CF92DF92EF9214
:10081000FF920F931F93CF93DF9300D000D0CDB7FB
:10082000DEB7FB012481358146815781C280D380A8
:10083000DD2429833A834B835C830E94A91F29818D
:100840003A814B815C81B6010E943C200E94A91F25
:10085000F601EE0FFF1FEC0DFD1DEE0FFF1FE80F61
:10086000F91F80849184A284B384E680F7800E947B
:10087000CC2495018401A701B6010E94DF260F90C8
:100880000F900F900F90DF91CF911F910F91FF90DC
:10089000EF90DF90CF90BF90AF909F908F90089592
:1008A000CF93DF9300D000D0CDB7DEB7FB014281FC
:1008B00053816481758149835A836B837C830E9451
:1008C000A91F49815A816B817C810E94B71F0E94B8
:1008D000A91FFC01408151816281738149835A8340
:1008E0006B837C830E94CC2449815A816B817C81FB
:1008F0000F900F900F900F90DF91CF910C945B278A
:10090000CF93DF93FB01828193810E948B35EC01B1
:100910000E94B736BE010E949E350E94B736FC0188
:10092000848195810E948724EC010E94CC24BE0121
:10093000DF91CF910C949F278F929F92AF92BF929D
:10094000EF92FF920F931F93CF93DF93FB01C2812E
:10095000D3810E94B736DD27FE01EE0FFF1FEC0F9B
:10096000FD1FEE0FFF1FE80FF91F80849184A28402
:10097000B384E680F7800E94CC2495018401A7010E
:10098000BE010E94CE27DF91CF911F910F91FF9062
:10099000EF90BF90AF909F908F9008958F929F920D
:1009A000AF92BF92EF92FF920F931F93CF93DF937B
:1009B000FB01C281D381DD270E94B736BE010E94B0
:1009C00073370E94B736FE01EE0FFF1FEC0FFD1FBD
:1009D000EE0FFF1FE80FF91F80849184A284B38477
:1009E000E680F7800E94CC2495018401A701BE0116
:1009F0000E942128DF91CF911F910F91FF90EF90DE
:100A0000BF90AF909F908F9008958F929F92AF92DA
:100A1000BF92CF92DF92EF92FF920F931F93CF93EB
:100A2000DF9300D000D0CDB7DEB7FB012481358144
:100A300046815781C280D380DD2429833A834B834A
:100A40005C830E94B73629813A814B815C81B60173
:100A50000E9483370E94B736F601EE0FFF1FEC0DA0
:100A6000FD1DEE0FFF1FE80FF91F80849184A28403
:100A7000B384E680F7800E94CC2495018401A7010D
:100A8000B6010E9474280F900F900F900F90DF9185
:100A9000CF911F910F91FF90EF90DF90CF90BF907B
:100AA000AF909F908F900895CF93DF9300D000D0A8
:100AB000CDB7DEB7FB0142815381648175814983E3
:100AC0005A836B837C830E94B73649815A816B813C
:100AD0007C810E94FE360E94B736FC014081518124
:100AE0006281738149835A836B837C830E94CC2407
:100AF00049815A816B817C810F900F900F900F90EC
:100B0000DF91CF910C94F028AF92BF92CF92DF92F9
:100B1000EF92FF920F931F93CF93DF9300D000D0FB
:100B2000CDB7DEB7FB01E280F3800E94D61A5701F1
:100B3000BB24F501EE0FFF1FEE0FFF1FEE0FFF1F8F
:100B4000E80FF91FC680D780E084F18422813381C9
:100B50004481558129833A834B835C830E94CC2452
:100B60008701760129813A814B815C81B5010E9420
:100B700063290F900F900F900F90DF91CF911F91ED
:100B80000F91FF90EF90DF90CF90BF90AF900895BE
:100B9000AF92BF92CF92DF92EF92FF920F931F938B
:100BA000CF93DF9300D000D0CDB7DEB7FB01248117
:100BB000358146815781A280B380BB2429833A8343
:100BC0004B835C830E94D61A29813A814B815C81D8
:100BD000B5010E94681C0E94D61AF501EE0FFF1F96
:100BE000EE0FFF1FEE0FFF1FE80FF91FC680D78023
:100BF000E084F184228133814481558129833A83C1
:100C00004B835C830E94CC248701760129813A8141
:100C10004B815C81B5010E94BE290F900F900F900F
:100C20000F90DF91CF911F910F91FF90EF90DF9088
:100C3000CF90BF90AF900895CF93DF93FB01828157
:100C400093810E940C30EC010E945D31BE010E9434
:100C50002C300E945D31FC01808191810E94A7248B
:100C6000EC010E94CC24BE01DF91CF910C94862A26
:100C7000AF92BF92CF92DF92EF92FF920F931F93AA
:100C8000CF93DF9300D000D0CDB7DEB7FB01E28079
:100C9000F3800E945D315701BB24F501EE0FFF1F69
:100CA000EE0FFF1FEE0FFF1FE80FF91FC680D78062
:100CB000E084F184228133814481558129833A8300
:100CC0004B835C830E94CC248701760129813A8181
:100CD0004B815C81B5010E94B52A0F900F900F9057
:100CE0000F90DF91CF911F910F91FF90EF90DF90C8
:100CF000CF90BF90AF900895AF92BF92CF92DF9206
:100D0000EF92FF920F931F93CF93DF9300D000D009
:100D1000CDB7DEB7FB012481358146815781A280A2
:100D2000B380BB2429833A834B835C830E945D316B
:100D300029813A814B815C81B5010E942D320E944C
:100D40005D31F501EE0FFF1FEE0FFF1FEE0FFF1FCE
:100D5000E80FF91FC680D780E084F18422813381B7
:100D60004481558129833A834B835C830E94CC2440
:100D70008701760129813A814B815C81B5010E940E
:100D8000102B0F900F900F900F90DF91CF911F912C
:100D90000F91FF90EF90DF90CF90BF90AF900895AC
:100DA0000E94A91F0E94DB1F0E94CC240C94D82B08
:100DB0000E94B7360E9422370E94CC240C94012C4A
:100DC0000E94D61A0E94011C0E94CC240C942A2C4A
:100DD0000E945D310E94C6310E94CC240C94532C99
:100DE000CF93DF93FB01828193818130910521F1C3
:100DF0008230910599F0892B19F0DF91CF910895F8
:100E00000E946C39FC01C081D1810E94CC24AE01CA
:100E100060E070E0DF91CF910C94C02C0E946C399F
:100E2000FC01C481D5810E94CC24AE0162E070E057
:100E3000DF91CF910C94C02C0E946C39FC01C281CF
:100E4000D3810E94CC24AE0161E070E0DF91CF91AC
:100E50000C94C02CCF93DF93FB0182819381C481DA
:100E6000D58181309105B1F18230910501F1009772
:100E700059F08130910599F182309105E9F0892B83
:100E800041F0DF91CF9108950E946C39FC01D1832C
:100E9000C0830E946C39FC01C081D1810E94CC24A6
:100EA000AE0160E070E0DF91CF910C94FE2C0E94C7
:100EB0006C39FC01D583C4830E946C39FC01C48168
:100EC000D5810E94CC24AE0162E070E0DF91CF9129
:100ED0000C94FE2C0E946C39FC01D383C2830E94C7
:100EE0006C39FC01C281D3810E94CC24AE0161E047
:100EF00070E0DF91CF910C94FE2C0E946C390E941F
:100F0000C6390E94CC240C943C2D0E946C390E945E
:100F1000D2390E94CC240C94652DCF93DF93FB0132
:100F2000828193810E941C30EC010E945D31BE01E0
:100F30000E94D6320E945D31FC0183AD94AD0E94C7
:100F4000BC24EC010E94CC24BE01DF91CF910C9413
:100F5000092FCF93DF930E945D31FC0183AD94ADE7
:100F60000E94BC24EC010E94CC24BE01DF91CF91F1
:100F70000C94382FCF92DF92EF92FF92FB01C28048
:100F8000D380E480F5800E94CC24B701A6010E94A2
:100F9000EC2481110EC00E94CC240E9476250E9470
:100FA000CC24B701A601FF90EF90DF90CF900C9476
:100FB00004250E94CC24B701A6010E94672FEFCF21
:100FC000AF92BF92CF92DF92EF92FF920F931F9357
:100FD000CF93DF9300D000D0CDB7DEB7FB01E28026
:100FE000F38080919702811107C082E692E00E940F
:100FF000173381E0809397025701BB24F501EE0F70
:10100000FF1FEE0FFF1FEE0FFF1FEE59FD4FC184B4
:10101000D284E384F48425813681478150852983F5
:101020003A834B835C830E94CC248701760129811B
:101030003A814B815C81B5010E94BD2D0F900F90CC
:101040000F900F90DF91CF911F910F91FF90EF9034
:10105000DF90CF90BF90AF9008958091970281115B
:1010600007C082E692E00E94173381E080939702E6
:1010700082E692E00E94E2340E94CC240C94E02E9E
:10108000AF92BF92CF92DF92EF92FF920F931F9396
:10109000CF93DF9300D000D0CDB7DEB7FB01248122
:1010A000358146815781A280B380BB24809197020D
:1010B000882309F43FC0B50182E692E00E947534AE
:1010C00080919702811107C082E692E00E94173357
:1010D00081E080939702F501EE0FFF1FEE0FFF1FD7
:1010E000EE0FFF1FEE59FD4FC184D284E384F484D8
:1010F000258136814781508529833A834B835C83E0
:101100000E94CC248701760129813A814B815C8140
:10111000B5010E94182E0F900F900F900F90DF9145
:10112000CF911F910F91FF90EF90DF90CF90BF90E4
:10113000AF90089582E692E029833A834B835C83E3
:101140000E94173381E0809397025C814B813A8142
:101150002981B1CF0F931F93CF93DF9300D000D09D
:10116000CDB7DEB78B010E94A9370E94C137F801C5
:10117000628173818091970281110BC082E692E0B7
:101180006B837C830E94173381E0809397027C817C
:101190006B8182E692E00E944935AB01BC01498334
:1011A0005A836B837C830E94CC2449815A816B8152
:1011B0007C810E949C2E0E94A9370F900F900F9067
:1011C0000F90DF91CF911F910F910C94C3370F9324
:1011D0001F93CF93DF9300D0CDB7DEB7FB018281A1
:1011E00093810E941233BC0180919702882309F1F8
:1011F00082E692E00E94E23380919702811107C05B
:1012000082E692E00E94173381E0809397028091FA
:101210006502909166020E94B7248C010E94CC2442
:10122000B8010F900F90DF91CF911F910F910C9407
:101230008E2D82E692E069837A830E94173381E0E3
:10124000809397027A816981D3CF8F929F92AF92D8
:10125000BF92CF92DF92EF92FF920F931F93CF93A3
:10126000DF93EC01FB0182809380A480B58081E054
:101270008B870E94FD450E941F466B017C010E94E6
:10128000FD458C01C501B4010E94C94F2FE632E132
:1012900043E85AE30E94CE50AB01BC01C8010E9452
:1012A0002B46C60ED71EE81EF91ECC86DD86EE86BE
:1012B000FF860E94CC24B501A401DF91CF911F913C
:1012C0000F91FF90EF90DF90CF90BF90AF909F90E5
:1012D0008F900C949D250F931F93CF93DF9300D095
:1012E00000D0CDB7DEB78B010E94B7360E949B3588
:1012F0000E94A9370E94BF370E94A91F0E94C11DEA
:101300000E94A9370E94B937F801028113810E9417
:10131000C537B8010E941D39AB01BC0149835A830E
:101320006B837C830E94CC2449815A816B817C81B0
:101330000F900F900F900F90DF91CF911F910F9111
:101340000C947C2CCF92DF92EF92FF92DB01ED9117
:10135000FC91EC32F10548F5EE0FFF1FEE0FFF1F79
:10136000E354FF4FC590D590E590F490F6019701B6
:1013700035952795E0FE12C0DC01A20FB31F2D9119
:101380003C911197F901EC0DFD1D0190F081E02DCC
:10139000CD01FF90EF90DF90CF900994820F931FC3
:1013A000FF90EF90DF90CF900994FF90EF90DF9047
:1013B000CF900895FB01828193810097C9F0019736
:1013C000B1F40E94A91F0E947B1E0E94A9370E94AF
:1013D000BB370E94B7360E94C5360E94A9370E94CB
:1013E000BD370E94CC2461E070E00C94DB250895A9
:1013F0000E94B7360E949B350E94A9370E94BF37D2
:101400000E94A91F0E94C11D0E94A9370E94B937DE
:101410000E94CC2460E070E00C94DB258F929F92B8
:10142000AF92BF92CF92DF92EF92FF920F931F93F2
:10143000CF93DF93CDB7DEB72B970FB6F894DEBF0F
:101440000FBECDBF8C017B010E94A9370E94C1371E
:10145000F701E280F3800E94D61AB7010E94631B55
:101460004B015C010E94CC24B501A4010E94422AD8
:1014700081E0F80186830E94FD450E941F466B01B2
:101480007C010E94FD4540E050E060E070E40E9475
:101490002B46C60ED71EE81EF91EF801C782D0865D
:1014A000E186F2860E945D310E94D61AFC01E0803E
:1014B000F1800E94483A0E94503BFC0196E0DE0118
:1014C000119601900D929A95E1F70E94483A40E0FA
:1014D00060E00E942C3B8701000F111F000F111FBD
:1014E000000F111F0E191F09F801E656FF4FE59076
:1014F000F49082E00E94C53E8B8781E00E94C53E49
:101500008A87F801E456FF4F259135914591549112
:10151000C501B4010E94CE504B015C01F801E056B8
:10152000FF4F84910E94C63E898789E00E94C53E94
:10153000888784E00E94C53E8F830E94483A6EE708
:101540007EE30E94343EBE01695F7F4F0E94C73E2A
:1015500063E271E00E945B3B62EA7EE30E94343EFC
:1015600066E37EE30E94343E6AE57EE30E94343EF9
:10157000BE01685F7F4F0E94C73EBE01675F7F4F1D
:101580000E94EC3EB501A4010E941A3DBE01665FB7
:101590007F4F0E94C73E69E471E00E945B3B6EE7AB
:1015A0007EE30E94343EBE01655F7F4F0E94C73ECE
:1015B000B7010E945B3B0E94483A40E061E00E9414
:1015C0002C3B0E94483ABE016F5F7F4F0E94523B06
:1015D0000E94A9370E94C3372B960FB6F894DEBF3E
:1015E0000FBECDBFDF91CF911F910F91FF90EF9074
:1015F000DF90CF90BF90AF909F908F9008958F9283
:101600009F92AF92BF92CF92DF92EF92FF920F9391
:101610001F93CF93DF93CDB7DEB72B970FB6F89418
:10162000DEBF0FBECDBF8C017B010E94A9370E9497
:10163000C137F701E280F3800E945D31B7010E945B
:101640006B314B015C010E94CC24B501A4010E94C6
:10165000942B81E0F80186830E94FD450E941F467D
:101660006B017C010E94FD4540E050E060E070E4C9
:101670000E942B46C60ED71EE81EF91EF801C7822F
:10168000D086E186F2860E945D31FC01E080F18027
:101690000E94D61A0E94483A0E94503BFC0196E0F4
:1016A000DE01119601900D929A95E1F70E94483A59
:1016B00040E060E00E942C3B0E94483A40E061E03C
:1016C0000E942C3B8701000F111F000F111F000FFC
:1016D000111F0E191F09F801E059FF4FE590F49012
:1016E00082E00E94C53E8B8781E00E94C53E8A87CA
:1016F000F801EE58FF4F2591359145915491C50160
:10170000B4010E94CE504B015C01F801EA58FF4F32
:1017100084910E94C63E898789E00E94C53E8887E1
:1017200084E00E94C53E8F830E94483A6EE77EE3C4
:101730000E94343EBE01695F7F4F0E94C73E66E251
:1017400071E00E945B3B62EA7EE30E94343E66E306
:101750007EE30E94343E6AE57EE30E94343EBE0191
:10176000685F7F4F0E94C73EBE01675F7F4F0E9448
:10177000EC3EB501A4010E941A3DBE01665F7F4F99
:101780000E94C73E69E471E00E945B3B6EE77EE326
:101790000E94343EBE01655F7F4F0E94C73EB70185
:1017A0000E945B3B0E94483ABE016F5F7F4F0E94E0
:1017B000523B0E94A9370E94C3372B960FB6F8946C
:1017C000DEBF0FBECDBFDF91CF911F910F91FF9074
:1017D000EF90DF90CF90BF90AF909F908F90089543
:1017E000CF92DF92EF92FF92CF93DF93EC01809143
:1017F0009702811107C082E692E00E94173381E0D0
:101800008093970282E692E00E94CC340E94CC241E
:101810000E94732E81E08E830E94FD450E941F4628
:101820006B017C010E94FD4540E050E060E070E407
:101830000E942B46C60ED71EE81EF91ECF82D88600
:10184000E986FA860E94483A40E060E00E942C3B1C
:101850000E94483A69E271E00E945B3B0E94483A6C
:1018600040E061E00E942C3B0E94483A6AE371E04C
:10187000DF91CF91FF90EF90DF90CF900C945B3B86
:10188000CF92DF92EF92FF92CF93DF93EC010E9411
:10189000D61A0E94171D0E94CC240E94192A81E0AA
:1018A0008E830E94FD450E941F466B017C010E94B1
:1018B000FD4540E050E060E070E40E942B46C60E1B
:1018C000D71EE81EF91ECF82D886E986FA860E94C6
:1018D000483A40E060E00E942C3B0E94483A69E2AE
:1018E00071E00E945B3B0E94483A40E061E00E9448
:1018F0002C3B0E94483A6AE371E0DF91CF91FF9060
:10190000EF90DF90CF900C945B3BCF92DF92EF9201
:10191000FF92CF93DF93EC010E94B7360E9493377A
:101920000E94CC240E94C72881E08E830E94FD453E
:101930000E941F466B017C010E94FD4540E050E083
:1019400060E070E40E942B46C60ED71EE81EF91E0A
:10195000CF82D886E986FA860E94483A40E060E065
:101960000E942C3B0E94483A69E271E00E945B3B76
:101970000E94483A40E061E00E942C3B0E94483AB5
:101980006AE371E0DF91CF91FF90EF90DF90CF900D
:101990000C945B3BCF92DF92EF92FF92CF93DF9359
:1019A000EC010E94A91F0E944C200E94CC240E949E
:1019B000322781E08E830E94FD450E941F466B0105
:1019C0007C010E94FD4540E050E060E070E40E9430
:1019D0002B46C60ED71EE81EF91ECF82D886E98692
:1019E000FA860E94483A40E060E00E942C3B0E9448
:1019F000483A69E271E00E945B3B0E94483A40E04D
:101A000061E00E942C3B0E94483A6AE371E0DF915A
:101A1000CF91FF90EF90DF90CF900C945B3BCF92F3
:101A2000DF92EF92FF92CF93DF93EC010E945D3142
:101A30000E948B320E94CC240E946B2B81E08E830B
:101A40000E94FD450E941F466B017C010E94FD45DE
:101A500040E050E060E070E40E942B46C60ED71EC6
:101A6000E81EF91ECF82D886E986FA860E94483A97
:101A700040E060E00E942C3B0E94483A69E271E03D
:101A80000E945B3B0E94483A40E061E00E942C3B90
:101A90000E94483A6AE371E0DF91CF91FF90EF90A6
:101AA000DF90CF900C945B3B0F931F93CF93DF930A
:101AB000CDB7DEB7AB970FB6F894DEBF0FBECDBF84
:101AC0000E94483A0E94503BFC0196E0DE0191964C
:101AD00001900D929A95E1F70E94483A40E060E04B
:101AE0000E942C3B66E771E0CE0101960E94D35321
:101AF0008C010E94483AB8010E945B3B0E94483A20
:101B000040E061E00E942C3B82E00E94C53E8FA332
:101B100081E00E94C53E88A782E00E94C53E89A759
:101B200081E00E94C53E8AA782E00E94C53E8BA745
:101B30006DE671E0CE0101960E94D3538C010E94A4
:101B4000483AB8010E945B3BBE01655D7F4F0E9431
:101B5000C73E6AE57EE30E94343E4FEF50E060E00E
:101B600070E00E94253CBE01665D7F4F0E94C73E2B
:101B70006BE471E00E945B3BBE01675D7F4F0E949A
:101B8000C73E6AE57EE30E94343E4FEF50E060E0DE
:101B900070E00E94253CBE01685D7F4F0E94C73EF9
:101BA0006BE471E00E945B3BBE01695D7F4F0E9468
:101BB000C73E6AE57EE30E94343E4DEF50E060E0B0
:101BC00070E00E94253C0E94483ABE016F5D7F4F45
:101BD0000E94523BAB960FB6F894DEBF0FBECDBF4E
:101BE000DF91CF911F910F910895CF92DF92EF92E5
:101BF000FF92CF93DF93EC010E94193A82ED91E0BE
:101C0000998388831E821F82188619861A861B86EE
:101C10001C861D861E861F860E94483A0E94A91FA8
:101C20000E94B7360E94D61A0E945D3180919702B9
:101C3000811107C082E692E00E94173381E0809311
:101C400097020E94C5370E94CC240E94A91F0E94BF
:101C5000C11D0E94A9370E94B9370E94B73640E0E3
:101C600050E0BA010E94FE360E945D3160E070E0F3
:101C70000E94D6320E94CC24AE0162EA79E00E9432
:101C8000333ACE010E94540D789481E08E830E94F5
:101C9000FD450E941F466B017C010E94FD4540E00E
:101CA00050E060E070E40E942B46C60ED71EE81E8E
:101CB000F91ECF82D886E986FA86DF91CF91FF9010
:101CC000EF90DF90CF9008952F923F924F925F92C6
:101CD0006F927F928F929F92AF92BF92CF92DF923C
:101CE000EF92FF920F931F93CF93DF93CDB7DEB7A1
:101CF0002B970FB6F894DEBF0FBECDBFF62E29018D
:101D00003A010E94483A0E94503BFC0196E0DE01F5
:101D1000119601900D929A95E1F70E94483A40E0A1
:101D200060E00E942C3BF11099C00E94483A40E0CC
:101D300061E00E942C3BEE2009F470C08401000F8A
:101D4000111F000F111F000F111F08191909F801A9
:101D5000E059FF4FE590F49082E00E94C53E8F83EA
:101D600081E00E94C53E8887F801EE58FF4F25911B
:101D7000359145915491C601B5010E94CE504B0159
:101D80005C01F801EA58FF4F84910E94C63E8987A2
:101D900089E00E94C53E8A8784E00E94C53E8B8709
:101DA0000E94483A6EE77EE30E94343EBE01655FC2
:101DB0007F4F0E94C73E66E271E00E945B3B62EA91
:101DC0007EE30E94343E66E37EE30E94343E6AE591
:101DD0007EE30E94343EBE01665F7F4F0E94C73E95
:101DE000BE01675F7F4F0E94EC3EB501A4010E94D7
:101DF0001A3DBE01685F7F4F0E94C73E69E471E0F3
:101E00000E945B3B6EE77EE30E94343EBE01695F49
:101E10007F4F0E94C73EB7010E945B3B0E94483A39
:101E2000BE016F5F7F4F0E94523B2B960FB6F89416
:101E3000DEBF0FBECDBFDF91CF911F910F91FF90FD
:101E4000EF90DF90CF90BF90AF909F908F907F905A
:101E50006F905F904F903F902F900895F801EE0F94
:101E6000FF1FEE0FFF1FEE0FFF1FCF01801B910B17
:101E70008C01FC01E656FF4F2590349082E00E94D1
:101E8000C53E8F8381E00E94C53E8887F801E456F5
:101E9000FF4F2591359145915491C301B2010E94A4
:101EA000CE502B013C01F801E056FF4F84910E9477
:101EB000C63E898789E00E94C53E8A8784E00E94E9
:101EC000C53E8B870E94483A6EE77EE30E94343E0F
:101ED000BE01655F7F4F0E94C73E63E271E00E94D2
:101EE0005B3B62EA7EE30E94343E66E37EE30E944F
:101EF000343E6AE57EE30E94343EBE01665F7F4F5A
:101F00000E94C73EBE01675F7F4F0E94EC3EB30157
:101F1000A2010E941A3DBE01685F7F4F0E94C73E2A
:101F200069E471E00E945B3B6EE77EE30E94343E11
:101F3000BE01695F7F4F0E94C73EB1010E945B3BBB
:101F4000F4CE2F923F924F925F926F927F928F9238
:101F50009F92AF92BF92CF92DF92EF920F931F9317
:101F6000CF93DF9300D000D0CDB7DEB71C01FC01CA
:101F70008385811125C00E94D61A0E942B1D0E94C4
:101F80005D310E949F320E94D61AFC0180AD91AD56
:101F9000892B39F10F900F900F900F90DF91CF9117
:101FA0001F910F91EF90DF90CF90BF90AF909F90D7
:101FB0008F907F906F905F904F903F902F900895FB
:101FC0000E94FD450E941F46F10104851585268566
:101FD0003785601771078207930768F2F10113864E
:101FE000CACF0E945D31FC0180AD91AD892B91F685
:101FF0000E94D61A0E94831D9B01AC0169833A831B
:102000004B835C830E945D310E94AE325B016C01A8
:10201000F101868129813A814B815C81811119C04E
:1020200029833A834B835C830E945D31FC0180806D
:1020300091800E94D61AFC0100811181EE24E39464
:1020400029813A814B815C8161E0C1010E94640E6B
:10205000A1CF29833A834B835C830E94FD450E9474
:102060001F46F101478050846184728429813A813E
:102070004B815C81641575058605970518F0F101A3
:102080001682CECFF1018681811184CFC9CF2FEF87
:102090008FE398E3215080409040E1F700C00000BA
:1020A00080918F02811107C082E592E00E94F50DB8
:1020B00081E080938F020E94F83980E090E00895DB
:1020C0002F923F924F925F926F927F928F929F9248
:1020D000AF92BF92CF92DF92EF92FF920F931F9336
:1020E000CF93DF938C01EB01FC01E080F1806E1552
:1020F0007F050CF065C082809380A480B580A50127
:10210000940160857185828593850E94A94E2B017B
:102110003C01F801668177816E197F09072E000C5A
:10212000880B990B0E94CB4F9B01AC01C301B201FC
:102130000E941B4F2B013C01CE19DF09BE01DD0FB0
:10214000880B990B0E94CB4F9B01AC01C301B201DC
:102150000E94CE509B01AC01C501B4010E94AA4E61
:102160008B01D82FC92F2CE53FE842E85FE3C5017A
:10217000B4010E94CE506B017C019B01AC01B801FF
:102180008D2F9C2F0E94164F87FDEDC0502F412FA1
:102190009E01652F742F832F922FDF91CF911F9176
:1021A0000F91FF90EF90DF90CF90BF90AF909F90F6
:1021B0008F907F906F905F904F903F902F900895F9
:1021C000FC01208C318C261637060CF47EC0A4E06E
:1021D000B0E00DC04C175D070CF0CAC09C01CB01EC
:1021E000BF2DAC01421B530B42305105FCF02B2F8D
:1021F00030E06A2F70E0C901860F971F959587958B
:10220000F82EFC01EE0FFF1FE80FF91FEE0FFF1F66
:10221000E00FF11F40815181C417D507DCF6A82FCC
:10222000AC01421B530B423051050CF7F901EE0F84
:10223000FF1FE20FF31FEE0FFF1FE00FF11F828061
:102240009380A480B580E080F1809C01220F331F31
:10225000820F931F880F991F080F191FA501940162
:10226000F80162817381848195810E94A94E2B01BE
:102270003C01F801608171816E197F09072E000C05
:10228000880B990B0E94CB4F9B01AC01C301B2019B
:102290000E941B4F2B013C01CE19DF09BE01DD0F4F
:1022A000880B990B0E94CB4F9B01AC01C301B2017B
:1022B0000E94CE509B01AC01C501B4010E94AA4E00
:1022C000562F472F382F292F64CFC28CD38CE48C04
:1022D000F58C84889588A688B78802891389A5011A
:1022E0009401C701B6010E94A94E2B013C01B10126
:1022F000601B710B072E000C880B990B0E94CB4FB3
:102300009B01AC01C301B2010E941B4F2B013C0198
:10231000C01BD10BBE01DD0F880B990B0E94CB4F68
:102320009B01AC01C301B2010E94CE509B01AC01E4
:10233000C501B4010E94AA4E8B01D82FC92F2CE5EC
:102340003FE842E85FE3C701B6010E94CE506B014F
:102350007C019B01AC01B8018D2F9C2F0E94C950BC
:1023600018160CF013CF5C2D4D2D3E2D2F2D11CFB7
:1023700052814381348125810CCF2F923F924F921D
:102380005F926F927F928F929F92AF92BF92CF9205
:10239000DF92EF92FF920F931F93CF93DF93CDB70E
:1023A000DEB728970FB6F894DEBF0FBECDBF8C0105
:1023B0006A017B01FC0182809380A480B5809A0130
:1023C000AB01C501B4010E94C950F80118160CF008
:1023D00079C060807180B301072C000C880B990BC9
:1023E0000E94CB4F69837A838B839C83F80166813B
:1023F000778166197709072E000C880B990B0E94CC
:10240000CB4F2B013C01A5019401F801608571853A
:10241000828593850E94A94E9B01AC01C301B20144
:102420000E941B4F2B013C01A5019401C701B6017D
:102430000E94A94E9B01AC01C301B2010E94CE5083
:1024400029813A814B815C810E94AA4E8B015C01FB
:102450002CE53FE842E85FE369817A818B819C81CA
:102460000E94CE506B017C019B01AC01B801C501FB
:102470000E94164F87FD23C1502F412F3A2D2B2D3F
:10248000652F742F832F922F0E943B510E948D4FF6
:10249000CB0128960FB6F894DEBF0FBECDBFDF91FB
:1024A000CF911F910F91FF90EF90DF90CF90BF9051
:1024B000AF909F908F907F906F905F904F903F90E4
:1024C0002F900895828C938CA48CB58CA7019601D3
:1024D000C501B4010E94164F87FD94C0F4E0F98352
:1024E0001D8211C0A7019601C301B2010E94164FBF
:1024F00087FFEAC045015101FE81FD83C5018819AE
:102500009909029754F12D81822E912C3981232E25
:10251000312C5401A20CB31CB594A794AE82C50112
:10252000880F991F8A0D9B1D880F991FFC01E00FD2
:10253000F11FF887EF834280538064807580A70184
:102540009601C301B2010E94C95018165CF6A98217
:10255000C501881999090297B4F6F401EE0FFF1F1F
:10256000E80DF91DEE0FFF1FE00FF11F20803180F5
:102570004280538064807580C501880F991F8A0D41
:102580009B1D880F991F080F191FF8016081718129
:1025900062197309072E000C880B990B0E94CB4F10
:1025A0004B015C01A3019201F80162817381848176
:1025B00095810E94A94E9B01AC01C501B4010E9406
:1025C0001B4F4B015C01A3019201C701B6010E94A0
:1025D000A94E9B01AC01C501B4010E94CE506B0114
:1025E0007C01B101330C880B990B0E94CB4F9B01EE
:1025F000AC01C701B6010E94AA4E562F472F382FB3
:10260000292F3ECFF801208C318C228933893887DD
:102610002F834488558866887788B101621B730BC5
:10262000072E000C880B990B0E94CB4F69837A838D
:102630008B839C83A3019201C501B4010E94A94E22
:102640009B01AC0169817A818B819C810E941B4F27
:102650004B015C01A3019201C701B6010E94A94E82
:102660009B01AC01C501B4010E94CE506B017C01FD
:10267000EF81F885BF01FF0F880B990B0E94CB4FAC
:102680009B01AC01C701B6010E94AA4E8B015C01FF
:10269000B101330C880B990B0E94CB4F2CE53FE81E
:1026A00042E85FE30E94CE506B017C019B01AC01CC
:1026B000B801C5010E94C95018160CF0DDCE5C2D82
:1026C0004D2D3E2D2F2DDCCEEF81F885608171815F
:1026D000072E000C880B990B0E94CB4F562F472FCB
:1026E000382F292FCDCE2F923F924F925F926F922B
:1026F0007F928F929F92AF92BF92CF92DF92EF9292
:10270000FF920F931F93CF93DF938C01EB01FC019A
:10271000E080F1806E157F050CF065C082809380AB
:10272000A480B580A501940160857185828593851B
:102730000E94A94E2B013C01F801668177816E1938
:102740007F09072E000C880B990B0E94CB4F9B0131
:10275000AC01C301B2010E941B4F2B013C01CE19F9
:10276000DF09BE01DD0F880B990B0E94CB4F9B0147
:10277000AC01C301B2010E94CE509B01AC01C50166
:10278000B4010E94AA4E8B01D82FC92F2CE53FE837
:1027900042E85FE3C501B4010E94CE506B017C01A9
:1027A0009B01AC01B8018D2F9C2F0E94164F87FD15
:1027B000EDC0502F412F9E01652F742F832F922F34
:1027C000DF91CF911F910F91FF90EF90DF90CF900D
:1027D000BF90AF909F908F907F906F905F904F9041
:1027E0003F902F900895FC01208C318C26163706DF
:1027F0000CF47EC0A4E0B0E00DC04C175D070CF0F7
:10280000CAC09C01CB01BF2DAC01421B530B42300F
:102810005105FCF02B2F30E06A2F70E0C901860FC4
:10282000971F95958795F82EFC01EE0FFF1FE80F77
:10283000F91FEE0FFF1FE00FF11F40815181C417F8
:10284000D507DCF6A82FAC01421B530B42305105D3
:102850000CF7F901EE0FFF1FE20FF31FEE0FFF1F42
:10286000E00FF11F82809380A480B580E080F1802A
:102870009C01220F331F820F931F880F991F080F8F
:10288000191FA5019401F8016281738184819581EA
:102890000E94A94E2B013C01F801608171816E19E3
:1028A0007F09072E000C880B990B0E94CB4F9B01D0
:1028B000AC01C301B2010E941B4F2B013C01CE1998
:1028C000DF09BE01DD0F880B990B0E94CB4F9B01E6
:1028D000AC01C301B2010E94CE509B01AC01C50105
:1028E000B4010E94AA4E562F472F382F292F64CFAC
:1028F000C28CD38CE48CF58C84889588A688B788A4
:1029000002891389A5019401C701B6010E94A94E4D
:102910002B013C01B101601B710B072E000C880BD1
:10292000990B0E94CB4F9B01AC01C301B2010E94E5
:102930001B4F2B013C01C01BD10BBE01DD0F880BCF
:10294000990B0E94CB4F9B01AC01C301B2010E94C5
:10295000CE509B01AC01C501B4010E94AA4E8B016F
:10296000D82FC92F2CE53FE842E85FE3C701B60145
:102970000E94CE506B017C019B01AC01B8018D2FF0
:102980009C2F0E94C95018160CF013CF5C2D4D2DB2
:102990003E2D2F2D11CF52814381348125810CCFC3
:1029A0002F923F924F925F926F927F928F929F925F
:1029B000AF92BF92CF92DF92EF92FF920F931F934D
:1029C000CF93DF93CDB7DEB728970FB6F894DEBF6D
:1029D0000FBECDBF8C016A017B01FC018280938018
:1029E000A480B5809A01AB01C501B4010E94C95011
:1029F000F80118160CF079C060807180B301072CC3
:102A0000000C880B990B0E94CB4F69837A838B83D0
:102A10009C83F8016681778166197709072E000C7F
:102A2000880B990B0E94CB4F2B013C01A50194010F
:102A3000F80160857185828593850E94A94E9B016E
:102A4000AC01C301B2010E941B4F2B013C01A50147
:102A50009401C701B6010E94A94E9B01AC01C301BC
:102A6000B2010E94CE5029813A814B815C810E9443
:102A7000AA4E8B015C012CE53FE842E85FE36981E7
:102A80007A818B819C810E94CE506B017C019B01DD
:102A9000AC01B801C5010E94164F87FD23C1502F1C
:102AA000412F3A2D2B2D652F742F832F922F0E94AB
:102AB0003B510E948D4FCB0128960FB6F894DEBF94
:102AC0000FBECDBFDF91CF911F910F91FF90EF907F
:102AD000DF90CF90BF90AF909F908F907F906F903E
:102AE0005F904F903F902F900895828C938CA48C90
:102AF000B58CA7019601C501B4010E94164F87FD50
:102B000094C0F4E0F9831D8211C0A7019601C301AE
:102B1000B2010E94164F87FFEAC045015101FE81B4
:102B2000FD83C50188199909029754F12D81822EE0
:102B3000912C3981232E312C5401A20CB31CB59455
:102B4000A794AE82C501880F991F8A0D9B1D880F1F
:102B5000991FFC01E00FF11FF887EF83428053803B
:102B600064807580A7019601C301B2010E94C9501B
:102B700018165CF6A982C501881999090297B4F65E
:102B8000F401EE0FFF1FE80DF91DEE0FFF1FE00F20
:102B9000F11F208031804280538064807580C501A0
:102BA000880F991F8A0D9B1D880F991F080F191FE9
:102BB000F8016081718162197309072E000C880B7E
:102BC000990B0E94CB4F4B015C01A3019201F801CC
:102BD00062817381848195810E94A94E9B01AC0121
:102BE000C501B4010E941B4F4B015C01A30192017E
:102BF000C701B6010E94A94E9B01AC01C501B401F9
:102C00000E94CE506B017C01B101330C880B990BF3
:102C10000E94CB4F9B01AC01C701B6010E94AA4E96
:102C2000562F472F382F292F3ECFF801208C318C7B
:102C30002289338938872F83448855886688778826
:102C4000B101621B730B072E000C880B990B0E94BD
:102C5000CB4F69837A838B839C83A3019201C50147
:102C6000B4010E94A94E9B01AC0169817A818B81DC
:102C70009C810E941B4F4B015C01A3019201C70183
:102C8000B6010E94A94E9B01AC01C501B4010E948E
:102C9000CE506B017C01EF81F885BF01FF0F880BDF
:102CA000990B0E94CB4F9B01AC01C701B6010E945A
:102CB000AA4E8B015C01B101330C880B990B0E9469
:102CC000CB4F2CE53FE842E85FE30E94CE506B011A
:102CD0007C019B01AC01B801C5010E94C9501816C6
:102CE0000CF0DDCE5C2D4D2D3E2D2F2DDCCEEF8159
:102CF000F88560817181072E000C880B990B0E946A
:102D0000CB4F562F472F382F292FCDCE2F923F92C2
:102D10004F925F926F927F928F929F92AF92BF92EB
:102D2000CF92DF92EF92FF921F93CF93DF93CDB7B5
:102D3000DEB72C970FB6F894DEBF0FBECDBF1C01D7
:102D40006A017B01DC018D909D90AD90BC90139742
:102D5000481559056A057B050CF07DC014962D9128
:102D60003D914D915C91179729833A834B835C8306
:102D70001C966D917D918D919C911F970E94A94EFB
:102D80002B013C01F10180859185A285B385BC01B1
:102D9000CD01681979098A099B090E94CB4F9B01D3
:102DA000AC01C301B2010E941B4F2B013C01C701C2
:102DB000B601681979098A099B090E94CB4F9B01CA
:102DC000AC01C301B2010E94CE509B01AC016981EC
:102DD0007A818B819C810E94AA4EF62E172F982E05
:102DE000A92E2CE53FE842E85FE369817A818B8177
:102DF0009C810E94CE50B62EC72ED82EE92E262FAB
:102E0000372F482F592F6F2D712F892D9A2D0E9402
:102E1000164F87FD37C15F2D412F392D2A2D652F84
:102E2000742F832F922F2C960FB6F894DEBF0FBE0F
:102E3000CDBFDF91CF911F91FF90EF90DF90CF90AA
:102E4000BF90AF909F908F907F906F905F904F90CA
:102E50003F902F900895DC0190964D905D906D907D
:102E60007C90939744165506660677060CF495C039
:102E700014E0B12C0FC04C155D056E057F050CF0FC
:102E800006C19C01CD01BA2CAC01421B530B423050
:102E900051051CF12B2D30E0A12FB0E0C9018A0FA4
:102EA0009B1F95958795A82EFC01EE0FFF1FEE0F37
:102EB000FF1FEE0FFF1FE20DF31D40815181628164
:102EC0007381C416D506E606F706ACF6182FAC01DA
:102ED000421B530B42305105ECF6220F331F220FD9
:102EE000331F220F331FF101E20FF31F84809580FF
:102EF000A680B780208131814281538129833A8322
:102F00004B835C83880F991F880F991F880F991F27
:102F1000280E391EA5019401D10114966D917D9161
:102F20008D919C9117970E94A94E2B013C01F101B4
:102F300080819181A281B381BC01CD0129813A8137
:102F40004B815C81621B730B840B950B0E94CB4FF2
:102F50009B01AC01C301B2010E941B4F2B013C013C
:102F6000C701B60129813A814B815C81621B730BD9
:102F7000840B950B0E94CB4F9B01AC01C301B201A6
:102F80000E94CE509B01AC01C501B4010E94AA4E23
:102F9000562F472F382F292F42CF94968D909D90F2
:102FA000AD90BC9097975C962D913D914D915C9121
:102FB0005F9729833A834B835C8358962D913D918B
:102FC0004D915C915B972D833E834F835887298178
:102FD0003A814B815C81C501B4010E94A94E698789
:102FE0007A878B879C87C301B2012D813E814F81F7
:102FF0005885621B730B840B950B0E94CB4F9B0172
:10300000AC0169857A858B859C850E941B4F2B01BD
:103010003C01C701B6012D813E814F815885621B5D
:10302000730B840B950B0E94CB4F9B01AC01C3012A
:10303000B2010E94CE509B01AC0169817A818B81E3
:103040009C810E94AA4EF62E172F3C012CE53FE8EA
:1030500042E85FE3C501B4010E94CE50B62EC72EF0
:10306000D82EE92E262F372F482F592F6F2D712F4D
:10307000C3010E94C95018162CF05F2D412F362D28
:10308000272DCDCE5B2D4C2D3D2D2E2DC8CE548120
:10309000458136812781C3CE2F923F924F925F9216
:1030A0006F927F928F929F92AF92BF92CF92DF9258
:1030B000EF92FF921F93CF93DF93CDB7DEB72C979C
:1030C0000FB6F894DEBF0FBECDBF1C016A017B01B5
:1030D000DC018D909D90AD90BC90139748155905DB
:1030E0006A057B050CF07DC014962D913D914D91A4
:1030F0005C91179729833A834B835C831C966D916F
:103100007D918D919C911F970E94A94E2B013C01AE
:10311000F10180859185A285B385BC01CD01681937
:1031200079098A099B090E94CB4F9B01AC01C3011D
:10313000B2010E941B4F2B013C01C701B601681967
:1031400079098A099B090E94CB4F9B01AC01C301FD
:10315000B2010E94CE509B01AC0169817A818B81C2
:103160009C810E94AA4EF62E172F982EA92E2CE590
:103170003FE842E85FE369817A818B819C810E940C
:10318000CE50B62EC72ED82EE92E262F372F482FF9
:10319000592F6F2D712F892D9A2D0E94164F87FD63
:1031A00037C15F2D412F392D2A2D652F742F832F85
:1031B000922F2C960FB6F894DEBF0FBECDBFDF91D5
:1031C000CF911F91FF90EF90DF90CF90BF90AF9085
:1031D0009F908F907F906F905F904F903F902F9037
:1031E0000895DC0190964D905D906D907C90939742
:1031F00044165506660677060CF495C014E0B12C0B
:103200000FC04C155D056E057F050CF006C19C01D5
:10321000CD01BA2CAC01421B530B423051051CF1BD
:103220002B2D30E0A12FB0E0C9018A0F9B1F95958F
:103230008795A82EFC01EE0FFF1FEE0FFF1FEE0F6C
:10324000FF1FE20DF31D4081518162817381C4161D
:10325000D506E606F706ACF6182FAC01421B530B59
:1032600042305105ECF6220F331F220F331F220F7D
:10327000331FF101E20FF31F84809580A680B78091
:10328000208131814281538129833A834B835C833E
:10329000880F991F880F991F880F991F280E391EB4
:1032A000A5019401D10114966D917D918D919C9110
:1032B00017970E94A94E2B013C01F1018081918159
:1032C000A281B381BC01CD0129813A814B815C810E
:1032D000621B730B840B950B0E94CB4F9B01AC01BF
:1032E000C301B2010E941B4F2B013C01C701B60173
:1032F00029813A814B815C81621B730B840B950B96
:103300000E94CB4F9B01AC01C301B2010E94CE5081
:103310009B01AC01C501B4010E94AA4E562F472F54
:10332000382F292F42CF94968D909D90AD90BC90D0
:1033300097975C962D913D914D915C915F97298374
:103340003A834B835C8358962D913D914D915C91CE
:103350005B972D833E834F83588729813A814B8128
:103360005C81C501B4010E94A94E69877A878B8769
:103370009C87C301B2012D813E814F815885621B1C
:10338000730B840B950B0E94CB4F9B01AC0169859D
:103390007A858B859C850E941B4F2B013C01C701C0
:1033A000B6012D813E814F815885621B730B840BC2
:1033B000950B0E94CB4F9B01AC01C301B2010E944F
:1033C000CE509B01AC0169817A818B819C810E94E6
:1033D000AA4EF62E172F3C012CE53FE842E85FE3AA
:1033E000C501B4010E94CE50B62EC72ED82EE92EAC
:1033F000262F372F482F592F6F2D712FC3010E9471
:10340000C95018162CF05F2D412F362D272DCDCE0B
:103410005B2D4C2D3D2D2E2DC8CE548145813681FE
:103420002781C3CE0895549A559808955C980895BD
:103430005C9A08950895089589B185FB882780F9DD
:1034400091E0892708958530910540F4FC01EE0F45
:10345000FF1FE056FE4F859194910895E0EAF1E058
:103460008591949108954F925F926F927F928F927F
:103470009F92AF92BF92EF92FF920F931F93CF93C1
:10348000DF93EC018B01FC01619371937F01CB0110
:103490000E94C52F5C010E94EA2FA701B5010E947E
:1034A0001745889709F466C0F801EE0FFF1FEE0F6D
:1034B000FF1FE957FE4F85909590A590B490C501E8
:1034C000B401905823E3422E542C23EF622E77242C
:1034D0007A944A825B826C827D826E837F83888746
:1034E000998731EE432E3AE7532E34EF632E77243B
:1034F0007A944A865B866C867D8626E636E646E6C4
:103500005FE30E94CE506E877F87888B998B1A8AE3
:103510001B8A1C8A1D8A1E8A1F8A188E198E8FE1AB
:1035200095E8ABE0B0E08A8F9B8FAC8FBD8F26E62D
:1035300036E646E65FE3C501B4010E94CE506E8FC9
:103540007F8F88A399A38DEC9CECACE0B0E08AA3BC
:103550009BA3ACA3BDA38EA29FA2A8A6B9A6888157
:1035600099810E94C52F5C010E94EA2FA701B50135
:103570000E948145AA96CE010E944841F801E55675
:10358000FE4F0491682F607F602BCE01DF91CF91B9
:103590001F910F91FF90EF90BF90AF909F908F90F1
:1035A0007F906F905F904F900C942A418091D90248
:1035B000811186C01092A1021092A2021092A30261
:1035C0001092A4021092A5021092A6021092A702D5
:1035D0001092A8021092A9021092AA021092AB02B5
:1035E0001092AC021092AD021092AE021092AF0295
:1035F0001092B0021092B1021092B2021092B30275
:103600001092B4021092B5021092B6021092B70254
:103610001092B8021092B9021092BA021092BB0234
:103620001092BC021092BD021092BE021092BF0214
:103630001092C0021092C1021092C2021092C302F4
:103640001092C4021092C5021092C6021092C702D4
:103650001092C80260E089EC92E00E9427418AEC57
:1036600092E00E94A24288ED91E09093CB02809379
:10367000CA028AEC92E00E94BD4260E170E08DECEB
:1036800092E00E94E74989EC92E00E94BE41682FD7
:10369000607F89EC92E00E94EA4189EC92E00E940E
:1036A0007441682F607F89EC92E00E94A04162E043
:1036B00070E08FE992E00E94331A81E08093D90292
:1036C0008FE992E00895AF92BF92CF92DF92EF928E
:1036D000FF920F931F93CF93DF93CDB7DEB727975A
:1036E0000FB6F894DEBF0FBECDBF5C01613081E044
:1036F000780710F060E071E0CE0101960E94694AFF
:103700002B813C818D819E812817390709F452C095
:103710008501055D1F4F16C00E9467436B017C0148
:1037200044275527BA014C195D096E097F09CE015E
:1037300001960E94834A2B813C818D819E812817AE
:103740003907C1F10E946C39FC01C080D1800D2C79
:10375000000CEE08FF087601DD24CC240E946C39B1
:10376000FC0182819381092E000CAA0BBB0BBA2F9E
:10377000A92F982F8827C82AD92AEA2AFB2A0E942B
:103780006C39FC0184819581092E000CAA0BBB0BBE
:10379000C82AD92AEA2AFB2A60E0C801C114D10448
:1037A000F3E0EF06F10408F0B7CF0E946743AB01E6
:1037B000BC01BDCFCE0101960E94A54A0E943B519B
:1037C0000E948D4FAB01BC01C50102960E94861676
:1037D0006B017C01CE0101960E947E4AC701B601B1
:1037E00027960FB6F894DEBF0FBECDBFDF91CF9105
:1037F0001F910F91FF90EF90DF90CF90BF90AF900F
:103800000895CF92DF92EF92FF920F931F93CF9381
:10381000DF93EC01E881F981EE0FFF1FEE0FFF1F30
:10382000E957FE4FC590D590E590F490C701B601D9
:10383000905803E313E323EF3FEF0A831B832C83AA
:103840003D836E837F838887998701EE1AE724EF93
:103850003FEF0A871B872C873D8726E636E646E63C
:103860005FE30E94CE506E877F87888B998B1A8A80
:103870001B8A1C8A1D8A1E8A1F8A188E198E8FE148
:1038800095E8ABE0B0E08A8F9B8FAC8FBD8F26E6CA
:1038900036E646E65FE3C701B6010E94CE506E8F62
:1038A0007F8F88A399A38DEC9CECACE0B0E08AA359
:1038B0009BA3ACA3BDA3CEA2DFA2E8A6F9A6DF918D
:1038C000CF911F910F91FF90EF90DF90CF900895CF
:1038D0004F925F926F927F928F929F92AF92BF9220
:1038E000CF92DF92EF92FF920F931F93CF93DF93CC
:1038F000CDB7DEB72C970FB6F894DEBF0FBECDBFA5
:103900004C015B0129013A0160E870E0CE010196AB
:103910000E94E7498B859C85892B09F457C0840157
:10392000055D1F4F14C00E9467436B017C01442753
:103930005527BA014C195D096E097F09CE01019620
:103940000E94034A8B859C85892B09F43FC00E9405
:103950006C39FC01C080D1800D2C000CEE08FF08F2
:103960007601DD24CC240E946C39FC018281938194
:10397000092E000CAA0BBB0BBA2FA92F982F882752
:10398000C82AD92AEA2AFB2A0E946C39FC018481C0
:103990009581092E000CAA0BBB0BC82AD92AEA2A4A
:1039A000FB2A60E0C801C114D104F3E0EF06F10482
:1039B00008F0B9CF0E946743AB01BC01CE0101966C
:1039C0000E94034A8B859C85892B09F6CE010196BE
:1039D0000E943E4A0E943B51BB24AA0CBB1CAA0C6D
:1039E000BB1CAA0CBB1C8A0C9B1C0E948D4FF401B3
:1039F000628373838483958346825782608671864F
:103A00002C960FB6F894DEBF0FBECDBFDF91CF91DD
:103A10001F910F91FF90EF90DF90CF90BF90AF90EC
:103A20009F908F907F906F905F904F9008950F932D
:103A30001F93CF93DF93EC01899199910E94C52F39
:103A40008C010E94EA2FAE01B801DF91CF911F9146
:103A50000F910C948145CF92DF92EF92FF920F93DA
:103A60001F93CF93DF93EC010E946C39FC01C0805F
:103A7000D1800D2C000CEE08FF087601DD24CC244B
:103A80000E946C39FC0182819381092E000CAA0BE3
:103A9000BB0BBA2FA92F982F8827C82AD92AEA2A20
:103AA000FB2A0E946C39FC0184819581092E000C4F
:103AB000AA0BBB0BC82AD92AEA2AFB2A60E0CE014E
:103AC0008B96C114D104F3E0EF06F104B8F00E9424
:103AD00067438B019C0144275527BA01401B510BBA
:103AE000620B730BCE018E96DF91CF911F910F91D8
:103AF000FF90EF90DF90CF900C94034A0E946743B1
:103B0000AB01BC01EFCFCF92DF92EF92FF920F9308
:103B10001F93CF93DF938C01EC01AE96CE010E94F0
:103B20003E4A0E943B510E948D4FAB01BC01C8012F
:103B300002960E9486166B017C01CE010E94F54917
:103B4000C701B601DF91CF911F910F91FF90EF90C8
:103B5000DF90CF9008955F9808955F9A0895579ADF
:103B600008958530910540F4FC01EE0FFF1FED53E1
:103B7000FE4F859194910895E3ECF1E08591949145
:103B800008958F929F92AF92BF92CF92DF92EF9261
:103B9000FF920F931F93CF93DF93EC0181E08AA7ED
:103BA0007E0184E2E80EF11CC7010E944841682FA3
:103BB0006F7EC7010E942A410C811D816E0186E043
:103BC000C80ED11CC8010E94A52F5C010E94EA2FDB
:103BD000A601B5010E9417454E9709F44DC0F801A2
:103BE000EE0FFF1FEE0FFF1FE655FE4F85909590DD
:103BF000A590B490C501B40190582BEB33EF3F83EF
:103C00002E83688779878A879B8725EF34EF3D87E6
:103C10002C8726E636E646E65FE30E94CE506E87A6
:103C20007F87888B998B1B8A1A8A1C8A1D8A1E8A19
:103C30001F8A8BE09BE0998F888F26E636E646E662
:103C40005FE3C501B4010E94CE506A8F7B8F8C8FD9
:103C50009D8F85E49CE09F8F8E8F88A299A2AAA257
:103C6000BBA28C819D810E94A52F5C010E94EA2F3E
:103C7000A601B5010E948145C7010E944841F80193
:103C8000E254FE4F0491682F607F602BC7010E94B1
:103C90002A418AA581110DC0DF91CF911F910F910B
:103CA000FF90EF90DF90CF90BF90AF909F908F905C
:103CB0000895488159816A817B81C6010E94BD11A6
:103CC0008C01BC01C6010E946010688379838A83DD
:103CD0009B83B8017058CE018596DF91CF911F91DB
:103CE0000F91FF90EF90DF90CF90BF90AF909F909B
:103CF0008F900C945042FC0112A608958F929F92CF
:103D0000AF92BF92CF92DF92EF92FF920F931F93E9
:103D1000CF93DF93EC018B017D836C837C0186E084
:103D2000E80EF11CCB010E94A52F6C010E94EA2F26
:103D3000A701B6010E9417454E9709F44DC0F8013E
:103D4000EE0FFF1FEE0FFF1FE655FE4F859095907B
:103D5000A590B490C501B40190582BEB33EF3F838D
:103D60002E83688779878A879B8725EF34EF3D8785
:103D70002C8726E636E646E65FE30E94CE506E8745
:103D80007F87888B998B1B8A1A8A1C8A1D8A1E8AB8
:103D90001F8A8BE09BE0998F888F26E636E646E601
:103DA0005FE3C501B4010E94CE506A8F7B8F8C8F78
:103DB0009D8F85E49CE09F8F8E8F88A299A2AAA2F6
:103DC000BBA28C819D810E94A52F6C010E94EA2FCD
:103DD000A701B6010E9481456E0184E2C80ED11C84
:103DE000C6010E944841F801E254FE4F0491682F39
:103DF000607F602BC6010E942A418AA581110DC0F7
:103E0000DF91CF911F910F91FF90EF90DF90CF90B6
:103E1000BF90AF909F908F900895488159816A819B
:103E20007B81C7010E94BD118C01BC01C7010E94AA
:103E30006010688379838A839B83B8017058CE01B0
:103E40008596DF91CF911F910F91FF90EF90DF90BA
:103E5000CF90BF90AF909F908F900C945042CF9294
:103E6000DF92EF92FF920F931F93CF93DF93EC01BA
:103E7000188219821A821B8282E090E09D838C83D3
:103E80006E0186E0C80ED11C1F821E82188619861C
:103E90001A861B861D861C861E861F86188A198A0E
:103EA0001B8A1A8A1C8A1D8A1E8A1F8A198E188EDE
:103EB0001A8E1B8E1C8E1D8E1F8E1E8E18A219A28E
:103EC0001AA21BA28E010C5D1F4F60E0C8010E9468
:103ED00027417E0185E2E80EF11CC7010E940B42DA
:103EE0008AEE91E09EA38DA3C7010E9428421AA6E4
:103EF000C8010E94BE41682F607CC8010E94EA414F
:103F0000C8010E947441682F607CC8010E94A041D2
:103F100062E070E0CE010E947E1E40E050E0BA01F7
:103F2000C6010E94BD118C01BC01C6010E94601037
:103F3000688379838A839B83B8017058C701DF91B6
:103F4000CF911F910F91FF90EF90DF90CF900C9445
:103F5000504280910C03811107C081EE92E00E94D3
:103F60002F1F81E080930C0381EE92E00895EF9281
:103F7000FF920F931F93CF93DF938C017C0186E018
:103F8000E80EF11CC7010E94BD11EC01BC01C70184
:103F90000E946010F8016083718382839383BE0165
:103FA0007058C8018596DF91CF911F910F91FF90B6
:103FB000EF900C945042CF92DF92EF92FF92CF930A
:103FC000DF93EC01EC81FD81EE0FFF1FEE0FFF1F71
:103FD000E655FE4FC590D590E590F490C701B60127
:103FE00090582BEB33EF3F832E83688779878A873E
:103FF0009B8725EF34EF3D872C8726E636E646E69D
:104000005FE30E94CE506E877F87888B998B1B8AD7
:104010001A8A1C8A1D8A1E8A1F8A8BE09BE0998F50
:10402000888F26E636E646E65FE3C701B6010E94C2
:10403000CE506A8F7B8F8C8F9D8F85E49CE09F8F05
:104040008E8FC8A2D9A2EAA2FBA2DF91CF91FF90E6
:10405000EF90DF90CF9008957727FB01EE0FFF1FC1
:10406000E60FF71FEE0FFF1FE80FF91F668177813C
:10407000705885960C9450427727FB01EE0FFF1F76
:104080006E0F7F1F660F771F860F971FFC0120871B
:1040900031874287538708950F931F93CF93DF9300
:1040A000EC018C819D810E94A52F8C010E94EA2F3A
:1040B000AE014A5F5F4FB801DF91CF911F910F9121
:1040C0000C948145089521E030E0FC0130AF27AB2E
:1040D000BC01695C7F4F0C94393A4430510508F4B7
:1040E000089528E030E0FC0130AF27ABBC01695CEB
:1040F0007F4F0C94393A4430510508F408952EE06E
:1041000030E0FC0130AF27ABBC01695C7F4F0C9401
:10411000393A4430510508F4089523E130E0FC01B8
:1041200030AF27ABBC01695C7F4F0C94393A443007
:10413000510508F4089528E130E0FC0130AF27ABC9
:10414000BC01695C7F4F0C94393A4430510508F446
:1041500008952AE130E0FC0130AF27ABBC01695C77
:104160007F4F0C94393A4430510508F408952BE1FF
:1041700030E0FC0130AF27ABBC01695C7F4F0C9491
:10418000393A4430510508F408952CE130E0FC013F
:1041900030AF27ABBC01695C7F4F0C94393A443097
:1041A000510508F408952DE130E0FC0130AF27AB54
:1041B000BC01695C7F4F0C94393A4430510508F4D6
:1041C000089521E230E0FC0130AF27ABBC01695C0F
:1041D0007F4F0C94393A4430510508F4089522E297
:1041E00030E0FC0130AF27ABBC01695C7F4F0C9421
:1041F000393A4430510508F4089526E230E0FC01D4
:1042000030AF27ABBC01695C7F4F0C94393A443026
:10421000510508F4089528E230E0FC0130AF27ABE7
:10422000BC01695C7F4F0C94393A4430510508F465
:1042300008952AE230E0FC0130AF27ABBC01695C95
:104240007F4F0C94393A0F931F93FB01A081B181EA
:104250002B2F3A2F2C32310540F5EB2FFA2FEE0F92
:10426000FF1FEE0FFF1FE353FE4F059115912591A0
:104270003491F80120FF12C0F901F595E795DC01B2
:10428000AE0FBF1FED91FC911197E00FF11F019050
:10429000F081E02DCD011F910F910994359527955F
:1042A000820F931F1F910F9109941F910F910895F1
:1042B0004830510508F40895DB011596EC911597E7
:1042C0001496FC91E230F10580F0E7EAF2E02591E6
:1042D000349143E050E0FC0150AF47AB32AF21AF27
:1042E000BC01695C7F4F0C94393AEE0FFF1FE95512
:1042F000FD4FEDCF4830510508F40895DB011596C8
:10430000EC9115971496FC91E530F10590F4EE0FC1
:10431000FF1FE356FD4F2591349144E050E0FC012E
:1043200050AF47AB32AF21AFBC01695C7F4F0C94FB
:10433000393AEDE9F2E0EFCF4830510578F0FB0172
:104340002481358145E050E0FC0150AF47AB31AFEF
:1043500022AFBC01695C7F4F0C94393A0895483014
:10436000510578F0FB012481358146E050E0FC01E5
:1043700050AF47AB31AF22AFBC01695C7F4F0C94AB
:10438000393A08954830510508F40895DB0115962F
:10439000EC9115971496FC91E230F10580F0E9E973
:1043A000F2E0259134914AE050E0FC0150AF47AB78
:1043B00032AF21AFBC01695C7F4F0C94393AEE0FEC
:1043C000FF1FE756FD4FEDCF4830510578F0FB0158
:1043D000248135814BE050E0FC0150AF47AB31AF59
:1043E00022AFBC01695C7F4F0C94393A0895483084
:1043F000510578F0FB01248135814CE050E0FC014F
:1044000050AF47AB31AF22AFBC01695C7F4F0C941A
:10441000393A08954830510508F40895DB0115969E
:10442000EC9115971496FC91E530F10590F4EE0FA0
:10443000FF1FE157FD4F2591349140E150E0FC0111
:1044400050AF47AB32AF21AFBC01695C7F4F0C94DA
:10445000393AEFE8F2E0EFCF4830510578F0FB0150
:104460002481358141E150E0FC0150AF47AB31AFD1
:1044700022AFBC01695C7F4F0C94393A08954830F3
:10448000510578F0FB012481358144E150E0FC01C5
:1044900050AF47AB31AF22AFBC01695C7F4F0C948A
:1044A000393A08954830510508F40895DB0115960E
:1044B000EC9115971496FC91E630F10590F4EE0F0F
:1044C000FF1FED57FD4F2591349145E150E0FC0170
:1044D00050AF47AB32AF21AFBC01695C7F4F0C944A
:1044E000393AE3E8F2E0EFCF4830510578F0FB01CC
:1044F0002481358146E150E0FC0150AF47AB31AF3C
:1045000022AFBC01695C7F4F0C94393A0895483062
:10451000510578F0FB012481358149E150E0FC012F
:1045200050AF47AB31AF22AFBC01695C7F4F0C94F9
:10453000393A08954830510578F0FB0124813581DE
:104540004EE150E0FC0150AF47AB31AF22AFBC01B0
:10455000695C7F4F0C94393A08954830510508F44E
:104560000895E1E8F2E02591349143E250E0FC0146
:1045700050AF47AB32AF21AFBC01695C7F4F0C94A9
:10458000393A4830510578F0FB012481358144E205
:1045900050E0FC0150AF47AB31AF22AFBC01695CCA
:1045A0007F4F0C94393A08954830510578F0FB015B
:1045B0002481358147E250E0FC0150AF47AB31AF79
:1045C00022AFBC01695C7F4F0C94393A08954830A2
:1045D000510508F40895DB011596EC911597149692
:1045E000FC91E230F10580F0EDE7F2E025913491A5
:1045F00049E250E0FC0150AF47AB32AF21AFBC0104
:10460000695C7F4F0C94393AEE0FFF1FE358FD4F62
:10461000EDCFFB014830510590F024813581468172
:10462000578162E070E0FC0170AF67AB51AF42AF01
:1046300033AF24AFBC01695C7F4F0C94393A0895C5
:10464000FB0148305105A0F0478156816581748196
:104650002BE230E0FC0130AF27AB6627772741AF74
:1046600052AF63AF74AFBC01695C7F4F0C94393AB1
:104670000895FB014C305105D0F044815581B3853C
:10468000A2853185208567E070E0FC0170AF67ABE3
:1046900051AF42AF4B2F5A2F632F722F43AF54AFFE
:1046A00065AF76AFBC01695C7F4F0C94393A0895D1
:1046B000FB0148305105B0F0B781A68135812481D6
:1046C00049E050E0FC0150AF47AB4B2F5A2F632F0E
:1046D000722F41AF52AF63AF74AFBC01695C7F4FC3
:1046E0000C94393A0895FB014C305105D0F04481C7
:1046F0005581B385A285318520856DE070E0FC0190
:1047000070AF67AB51AF42AF4B2F5A2F632F722F51
:1047100043AF54AF65AF76AFBC01695C7F4F0C947B
:10472000393A0895FB0148305105B0F0B781A681B0
:10473000358124814FE050E0FC0150AF47AB4B2F57
:104740005A2F632F722F41AF52AF63AF74AFBC01CA
:10475000695C7F4F0C94393A0895FB014C30510548
:10476000D0F044815581B385A2853185208562E1F1
:1047700070E0FC0170AF67AB51AF42AF4B2F5A2FC7
:10478000632F722F43AF54AF65AF76AFBC01695C46
:104790007F4F0C94393A0895FB014C305105D0F00D
:1047A00044815581B385A2853185208567E170E01C
:1047B000FC0170AF67AB51AF42AF4B2F5A2F632F45
:1047C000722F43AF54AF65AF76AFBC01695C7F4FCA
:1047D0000C94393A0895FB014C305105D0F04481D6
:1047E0005581B385A2853185208565E270E0FC01A5
:1047F00070AF67AB51AF42AF4B2F5A2F632F722F61
:1048000043AF54AF65AF76AFBC01695C7F4F0C948A
:10481000393A08954830510578F0FB0124813581FB
:104820004FE150E0FC0150AF47AB31AF22AFBC01CC
:10483000695C7F4F0C94393A0895FB01483051056B
:1048400090F0448155812681378160E270E0FC015F
:1048500070AF67AB51AF42AF33AF24AFBC01695CFF
:104860007F4F0C94393A0895AF92BF92CF92DF9266
:10487000EF92FF920F931F93CF93DF937C010E94DF
:10488000E2460E94A2475C010E94D846EC01892BB7
:1048900059F4DF91CF911F910F91FF90EF90DF902E
:1048A000CF90BF90AF900895670186E0C80ED11CED
:1048B00085015701EEE0AE0EB11C05C0C6010E9495
:1048C0006D40219731F3F80161918F01C6010E947B
:1048D0008140F70190A99923A1F340855185443087
:1048E000510560F3B501C7010E942321E7CF853050
:1048F000910540F4FC01EE0FFF1FE356FD4F85913B
:1049000094910895EDE9F2E08591949108958230B3
:10491000910528F0E9E9F2E0859194910895FC0170
:10492000EE0FFF1FE756FD4F859194910895853056
:10493000910540F4FC01EE0FFF1FE157FD4F8591FB
:1049400094910895EFE8F2E085919491089586306E
:10495000910540F4FC01EE0FFF1FED57FD4F8591CF
:1049600094910895E3E8F2E0859194910895E1E847
:10497000F2E08591949108958230910528F0EDE759
:10498000F2E0859194910895FC01EE0FFF1FE3582A
:10499000FD4F85919491089580915303811119C021
:1049A00084E193E00E94193A84EF91E0909315031B
:1049B000809314038AE193E00E9459400E94E246EA
:1049C00040E855E260E070E00E94484781E0809353
:1049D000530384E193E00895CF93DF9300D000D098
:1049E000CDB7DEB749835A836B837C830E94E2464E
:1049F00049815A816B817C810F900F900F900F90AD
:104A0000DF91CF910C942747CF93DF9300D000D054
:104A1000CDB7DEB749835A836B837C830E94E2461D
:104A200049815A816B817C810F900F900F900F907C
:104A3000DF91CF910C9448478F929F92AF92BF9293
:104A4000CF92DF92EF92FF920F931F93CF93DF935A
:104A500000D000D0CDB7DEB75B0106966C016CE2EA
:104A600070E029833A834B835C830E9448404C0169
:104A7000FC01108681E08187138612865C8154A731
:104A80004B8145A73A8136A7298127A710AB01ABF7
:104A9000F2AAE3AAC4010C9620E2FC0111922A9525
:104AA000E9F7B5010E94E553C4010E942940F401D1
:104AB000058114810E94E246A801485F5F4FB4015E
:104AC0000E94DD47B401C6010F900F900F900F9028
:104AD000DF91CF911F910F91FF90EF90DF90CF90DA
:104AE000BF90AF909F908F900C945840EF92FF92A0
:104AF0000F931F93CF93DF9306967C0164E070E0E1
:104B00000E944840EC01188619861B861A860E946E
:104B100029400D811C810E94E246A801485F5F4F39
:104B2000BE010E94DD47BE01C701DF91CF911F91F9
:104B30000F91FF90EF900C945840CF92DF92EF923C
:104B4000FF920F931F93CF93DF9300D0CDB7DEB7C3
:104B5000162F072F06967C0168E070E049835A8380
:104B60000E9448406C01FC01108682E08187138618
:104B70001286048715875A81568749814787C6015F
:104B80000E942940F601058114810E94E246A80195
:104B9000485F5F4FB6010E94DD47B601C7010F9025
:104BA0000F90DF91CF911F910F91FF90EF90DF90C9
:104BB000CF900C945840EF92FF920F931F93CF9396
:104BC000DF93162F072F06967C0168E070E00E94A5
:104BD0004840EC01188683E089871B861A860C877B
:104BE0001D871F861E86CE010E9429400D811C81D3
:104BF0000E94E246A801485F5F4FBE010E94DD4768
:104C0000BE01C701DF91CF911F910F91FF90EF90EF
:104C10000C945840EF92FF920F931F93CF93DF9322
:104C2000162F072F06967C0168E070E00E9448402E
:104C3000EC01188684E089871B861A860C871D87FD
:104C40001F861E86CE010E9429400D811C810E9474
:104C5000E246A801485F5F4FBE010E94DD47BE01EA
:104C6000C701DF91CF911F910F91FF90EF900C94AE
:104C70005840AF92BF92CF92DF92EF92FF920F9384
:104C80001F93CF93DF9300D000D0CDB7DEB7D62EE1
:104C9000C72E06967C016CE070E02B833C83498331
:104CA0005A830E9448405C01FC01108685E08187A0
:104CB00013861286C486D5865A81568749814787CE
:104CC0003C812B81C801432F522F692F702FF50192
:104CD000408B518B628B738BC5010E942940F5017B
:104CE000058114810E94E246A801485F5F4FB5012B
:104CF0000E94DD47B501C7010F900F900F900F90F4
:104D0000DF91CF911F910F91FF90EF90DF90CF90A7
:104D1000BF90AF900C945840AF92BF92CF92DF9269
:104D2000EF92FF920F931F93CF93DF9300D000D0A9
:104D3000CDB7DEB7D62EC72E06967C016CE070E0AC
:104D40002B833C8349835A830E9448405C01FC01C9
:104D5000108686E0818713861286C486D5865A819E
:104D60005687498147873C812B81C801432F522FA9
:104D7000692F702FF501408B518B628B738BC501AE
:104D80000E942940F501058114810E94E246A80194
:104D9000485F5F4FB5010E94DD47B501C7010F9025
:104DA0000F900F900F90DF91CF911F910F91FF9077
:104DB000EF90DF90CF90BF90AF900C945840AF929F
:104DC000BF92CF92DF92EF92FF920F931F93CF93F8
:104DD000DF9300D000D0CDB7DEB7D62EC72E069613
:104DE0007C016CE070E02B833C8349835A830E94F2
:104DF00048405C01FC01108687E08187138612869B
:104E0000C486D5865A815687498147873C812B8144
:104E1000C801432F522F692F702FF501408B518B02
:104E2000628B738BC5010E942940F50105811481B5
:104E30000E94E246A801485F5F4FB5010E94DD472E
:104E4000B501C7010F900F900F900F90DF91CF9198
:104E50001F910F91FF90EF90DF90CF90BF90AF9098
:104E60000C945840EF92FF920F931F93CF93DF93D0
:104E700006967C0164E070E00E944840EC011886D0
:104E800088E089871B861A86CE010E9429400D8101
:104E90001C810E94E246A801485F5F4FBE010E944C
:104EA000DD47BE01C701DF91CF911F910F91FF90A8
:104EB000EF900C945840CF92DF92EF92FF920F93B5
:104EC0001F93CF93DF9300D0CDB7DEB7162F072FF8
:104ED00006967C0168E070E049835A830E9448404E
:104EE0006C01FC01108689E08187138612865A8145
:104EF000952F4981842F402F512F692F782F448778
:104F0000558766877787C6010E942940F60105818B
:104F100014810E94E246A801485F5F4FB6010E94DB
:104F2000DD47B601C7010F900F90DF91CF911F9120
:104F30000F91FF90EF90DF90CF900C945840EF923C
:104F4000FF920F931F93CF93DF93162F072F069691
:104F50007C0168E070E00E944840EC0118868AE01D
:104F600089871B861A860C871D871F861E86CE01A1
:104F70000E9429400D811C810E94E246A801485FE1
:104F80005F4FBE010E94DD47BE01C701DF91CF9197
:104F90001F910F91FF90EF900C945840AF92BF92E9
:104FA000CF92DF92EF92FF920F931F93CF93DF93F5
:104FB00000D000D0CDB7DEB7D62EC72E06967C0126
:104FC0006CE070E02B833C8349835A830E94484005
:104FD0005C01FC0110868BE0818713861286C486F3
:104FE000D5865A815687498147873C812B81C801E4
:104FF000432F522F692F702FF501408B518B628BFD
:10500000738BC5010E942940F501058114810E941E
:10501000E246A801485F5F4FB5010E94DD47B50138
:10502000C7010F900F900F900F90DF91CF911F91BC
:105030000F91FF90EF90DF90CF90BF90AF900C94C6
:105040005840AF92BF92CF92DF92EF92FF920F93B0
:105050001F93CF93DF9300D000D0CDB7DEB7D62E0D
:10506000C72E06967C016CE070E02B833C8349835D
:105070005A830E9448405C01FC0110868CE08187C5
:1050800013861286C486D5865A81568749814787FA
:105090003C812B81C801432F522F692F702FF501BE
:1050A000408B518B628B738BC5010E942940F501A7
:1050B000058114810E94E246A801485F5F4FB50157
:1050C0000E94DD47B501C7010F900F900F900F9020
:1050D000DF91CF911F910F91FF90EF90DF90CF90D4
:1050E000BF90AF900C945840AF92BF92CF92DF9296
:1050F000EF92FF920F931F93CF93DF9300D000D0D6
:10510000CDB7DEB7D62EC72E06967C016CE070E0D8
:105110002B833C8349835A830E9448405C01FC01F5
:1051200010868DE0818713861286C486D5865A81C3
:105130005687498147873C812B81C801432F522FD5
:10514000692F702FF501408B518B628B738BC501DA
:105150000E942940F501058114810E94E246A801C0
:10516000485F5F4FB5010E94DD47B501C7010F9051
:105170000F900F900F90DF91CF911F910F91FF90A3
:10518000EF90DF90CF90BF90AF900C945840EF928B
:10519000FF920F931F93CF93DF9306967C0164E0F9
:1051A00070E00E944840EC0118868EE089871B86DB
:1051B0001A86CE010E9429400D811C810E94E24680
:1051C000A801485F5F4FBE010E94DD47BE01C701D5
:1051D000DF91CF911F910F91FF90EF900C94584069
:1051E000CF92DF92EF92FF920F931F93CF93DF93B3
:1051F00000D0CDB7DEB7162F072F06967C0168E0EA
:1052000070E049835A830E9448406C01FC0110867B
:105210008FE08187138612865A81952F4981842FCA
:10522000402F512F692F782F4487558766877787BE
:10523000C6010E942940F601058114810E94E246C0
:10524000A801485F5F4FB6010E94DD47B601C70164
:105250000F900F90DF91CF911F910F91FF90EF90E2
:10526000DF90CF900C945840EF92FF920F931F93D2
:10527000CF93DF93162F072F06967C0168E070E02E
:105280000E944840EC01188680E189871B861A86B7
:105290000C871D871F861E86CE010E9429400D8126
:1052A0001C810E94E246A801485F5F4FBE010E9438
:1052B000DD47BE01C701DF91CF911F910F91FF9094
:1052C000EF900C9458408F929F92AF92BF92CF92E2
:1052D000DF92EF92FF920F931F93CF93DF9300D053
:1052E00000D0CDB7DEB7B62EA72E06966C0160E1D2
:1052F00070E029833A834B835C830E9448404C01D1
:10530000FC01108681E1818713861286A486B5860A
:10531000178616865C81508B4B81418B3A81328B8C
:105320002981238B9801C701432F502F692F7E2D90
:10533000448B558B668B778BC4010E942940F40106
:10534000058114810E94E246A801485F5F4FB401C5
:105350000E94DD47B401C6010F900F900F900F908F
:10536000DF91CF911F910F91FF90EF90DF90CF9041
:10537000BF90AF909F908F900C9458408F929F92C7
:10538000AF92BF92CF92DF92EF92FF920F931F9353
:10539000CF93DF9300D000D0CDB7DEB7B62EA72EC7
:1053A00006966C0160E170E029833A834B835C834D
:1053B0000E9448404C01FC01108682E181871386DF
:1053C0001286A486B586178616865C81508B4B8123
:1053D000418B3A81328B2981238B9801C701432F5E
:1053E000502F692F7E2D448B558B668B778BC40194
:1053F0000E942940F401058114810E94E246A8011F
:10540000485F5F4FB4010E94DD47B401C6010F90B1
:105410000F900F900F90DF91CF911F910F91FF9000
:10542000EF90DF90CF90BF90AF909F908F900C94B3
:105430005840EF92FF920F931F93CF93DF930696FE
:105440007C0164E070E00E944840EC01188683E132
:1054500089871B861A86CE010E9429400D811C81F6
:105460000E94E246A801485F5F4FBE010E94DD47EF
:10547000BE01C701DF91CF911F910F91FF90EF9077
:105480000C945840CF92DF92EF92FF920F931F93AC
:10549000CF93DF9300D0CDB7DEB7162F072F069638
:1054A0007C0168E070E049835A830E9448406C01A7
:1054B000FC01108684E18187138612865A81952F1C
:1054C0004981842F402F512F692F782F448755878A
:1054D00066877787C6010E942940F60105811481FD
:1054E0000E94E246A801485F5F4FB6010E94DD4777
:1054F000B601C7010F900F90DF91CF911F910F91CF
:10550000FF90EF90DF90CF900C945840EF92FF9275
:105510000F931F93CF93DF93162F072F06967C01CF
:1055200068E070E00E944840EC01188685E18987B8
:105530001B861A860C871D871F861E86CE010E9439
:1055400029400D811C810E94E246A801485F5F4FFF
:10555000BE010E94DD47BE01C701DF91CF911F91BF
:105560000F91FF90EF900C9458408F929F92AF92C2
:10557000BF92CF92DF92EF92FF920F931F93CF9340
:10558000DF9300D000D0CDB7DEB7B62EA72E06969B
:105590006C0160E170E029833A834B835C830E9455
:1055A00048404C01FC01108686E1818713861286F3
:1055B000A486B586178616865C81508B4B81418BFD
:1055C0003A81328B2981238B9801C701432F502FB9
:1055D000692F7E2D448B558B668B778BC4010E947F
:1055E0002940F401058114810E94E246A801485F28
:1055F0005F4FB4010E94DD47B401C6010F900F90C8
:105600000F900F90DF91CF911F910F91FF90EF902E
:10561000DF90CF90BF90AF909F908F900C945840A8
:105620008F929F92AF92BF92CF92DF92EF92FF92B2
:105630000F931F93CF93DF9300D000D0CDB7DEB789
:10564000B62EA72E06966C0160E170E029833A839E
:105650004B835C830E9448404C01FC01108687E12B
:10566000818713861286A486B586178616865C8186
:10567000508B4B81418B3A81328B2981238B98014E
:10568000C701432F502F692F7E2D448B558B668B7E
:10569000778BC4010E942940F401058114810E9486
:1056A000E246A801485F5F4FB4010E94DD47B401A4
:1056B000C6010F900F900F900F90DF91CF911F9127
:1056C0000F91FF90EF90DF90CF90BF90AF909F90A1
:1056D0008F900C945840EF92FF920F931F93CF93AB
:1056E000DF9306967C0164E070E00E944840EC0184
:1056F000188688E189871B861A86CE010E94294078
:105700000D811C810E94E246A801485F5F4FBE01E7
:105710000E94DD47BE01C701DF91CF911F910F911C
:10572000FF90EF900C945840CF92DF92EF92FF924F
:105730000F931F93CF93DF9300D0CDB7DEB7162F13
:10574000072F06967C0168E070E049835A830E9427
:1057500048406C01FC01108689E18187138612861E
:105760005A81952F4981842F402F512F692F782FEF
:105770004487558766877787C6010E942940F601CE
:10578000058114810E94E246A801485F5F4FB6017F
:105790000E94DD47B601C7010F900F90DF91CF91B6
:1057A0001F910F91FF90EF90DF90CF900C94584095
:1057B000EF92FF920F931F93CF93DF9306967C0196
:1057C00064E070E00E944840EC0118868AE1898715
:1057D0001B861A86CE010E9429400D811C810E94E1
:1057E000E246A801485F5F4FBE010E94DD47BE014F
:1057F000C701DF91CF911F910F91FF90EF900C9413
:105800005840EF92FF920F931F93CF93DF9306962A
:105810007C0164E070E00E944840EC0118868BE156
:1058200089871B861A86CE010E9429400D811C8122
:105830000E94E246A801485F5F4FBE010E94DD471B
:10584000BE01C701DF91CF911F910F91FF90EF90A3
:105850000C945840EF92FF920F931F93CF93DF93D6
:1058600006967C0164E070E00E944840EC011886D6
:105870008CE189871B861A86CE010E9429400D8102
:105880001C810E94E246A801485F5F4FBE010E9452
:10589000DD47BE01C701DF91CF911F910F91FF90AE
:1058A000EF900C945840EF92FF920F931F93CF9379
:1058B000DF9306967C0164E070E00E944840EC01B2
:1058C00018868DE189871B861A86CE010E942940A1
:1058D0000D811C810E94E246A801485F5F4FBE0116
:1058E0000E94DD47BE01C701DF91CF911F910F914B
:1058F000FF90EF900C945840CF92DF92EF92FF927E
:105900000F931F93CF93DF9300D0CDB7DEB7162F41
:10591000072F06967C0168E070E049835A830E9455
:1059200048406C01FC0110868EE181871386128647
:105930005A81952F4981842F402F512F692F782F1D
:105940004487558766877787C6010E942940F601FC
:10595000058114810E94E246A801485F5F4FB601AD
:105960000E94DD47B601C7010F900F90DF91CF91E4
:105970001F910F91FF90EF90DF90CF900C945840C3
:10598000CF92DF92EF92FF920F931F93CF93DF930B
:1059900000D0CDB7DEB7162F072F06967C0168E042
:1059A00070E049835A830E9448406C01FC011086D4
:1059B0008FE1818713861286048715875A8156875F
:1059C00049814787C6010E942940F601058114815B
:1059D0000E94E246A801485F5F4FB6010E94DD4782
:1059E000B601C7010F900F90DF91CF911F910F91DA
:1059F000FF90EF90DF90CF900C945840CF92DF92C1
:105A0000EF92FF920F931F93CF93DF9300D0CDB708
:105A1000DEB7162F072F06967C0168E070E04983F9
:105A20005A830E9448406C01FC01108680E2818705
:105A300013861286048715875A81568749814787BE
:105A4000C6010E942940F601058114810E94E246A8
:105A5000A801485F5F4FB6010E94DD47B601C7014C
:105A60000F900F90DF91CF911F910F91FF90EF90CA
:105A7000DF90CF900C945840EF92FF920F931F93BA
:105A8000CF93DF9306967C0164E070E00E9448406B
:105A9000EC01188681E289871B861A86CE010E9456
:105AA00029400D811C810E94E246A801485F5F4F9A
:105AB000BE010E94DD47BE01C701DF91CF911F915A
:105AC0000F91FF90EF900C945840EF92FF920F933C
:105AD0001F93CF93DF9306967C0164E070E00E94F1
