:100000000C94AE020C94D6020C94D6020C94D60238
:100010000C94D6020C94D6020C94D6020C94D60200
:100020000C94D6020C94D6020C94D6020C94D602F0
:100030000C94D6020C94D6020C94D6020C94D602E0
:100040000C94A1460C94D6020C94D6020C94D602C1
:100050000C9476470C94D6020C94D6020C94D602DB
:100060000C94D6020C94D6020C94D6020C94D602B0
:10007000A50100007A4406A50100007A4405A50107
:1000800000007A4404B2010000803F06B201000083
:10009000803F05B2010000803F04BC010024744988
:1000A00005BC010024744904CB0100007A4406CB4E
:1000B0000100007A4405CB0100007A4404D8020014
:1000C00000D9020000590900000E0A0000320300A6
:1000D00000A0030000D203000009040000FE0C0091
:1000E000005804000088040000A4040000D60400A6
:1000F000000D050000430D00005C050000690300D1
:10010000008C050000D0050000B90C0000420A0078
:1001100000240600004006000084060000740C0065
:1001200000330B0000D8060000E0060000E80600DF
:1001300000F00600009F090000F8060000320700EA
:1001400000850700008D0700001B0900001408004F
:100150000074080000240C0000DE080000610800A4
:100160000095070000B1070000EB070000C2070080
:1001700000DF070000462F77206465762000492DB8
:100180005620536F75726365204D6574657200ACBF
:10019000C5273717B7D1386F12833A0AD7233CCD1A
:1001A000CCCC3D0804020100000001000200030065
:1001B0000400ACC5273717B7D1386F12833A0AD776
:1001C000233CCDCCCC3D080402010000000100021C
:1001D000000300040096200000972000003D23004B
:1001E000008C210000AE210000D0210000E321009E
:1001F0000084230000A1200000A3230000F62100BA
:1002000000182200002B220000BE230000AF2000B7
:1002100000DD2300003E22000060220000F82300E1
:1002200000BD2000007322000086220000A82200EA
:100230000017240000CB200000BB220000D92000C2
:1002400000E7200000F520000003210000CE22007E
:10025000005524000068240000112100001F210027
:1002600000E1220000F5220000362400002D2100CC
:1002700000082300003B2100001B2300004921004F
:1002800000542300006D2300007F240000000001C3
:10029000000000000001000200030004000500004F
:1002A0000001000200030004000000010000000142
:1002B00000020003000400000001001E001E001EDA
:1002C000001E001E001E001E002800280028002816
:1002D00000280028002800280028002800280020E6
:1002E00000280013000C000D000E000F001000117C
:1002F000000700080009000A000B000500060000C6
:100300000001000200030004006F12833A0AD723A1
:100310003CCDCCCC3D0000803F000020410000C817
:100320004208040201003000000100000001000248
:100330000003000400050000002041000000002030
:10034000410000C842002000000100030003000239
:10035000000AD7233C0300030003000AD7233C0311
:1003600000030004000AD7233C0200020004006FCF
:1003700012833A01000100040017B7D138010001CF
:10038000000400ACC52737010001000400BD37861A
:10039000350300030002000AD7233CCDCCCC3D033B
:1003A00000030003000AD7233C0000803F03000342
:1003B0000004000AD7233C00002041020002000490
:1003C000006F12833A000020410100010004001771
:1003D000B7D13800002041010001000400ACC5275E
:1003E0003700002041010001000400BD37863500C0
:1003F0000020410000010002000300040005000687
:100400000080C0DA3F0000DB3F0000E13F0000E772
:100410003F000000FFFFFFFF000100FF0020001071
:100420000008000400010203C0480000C7480000A3
:10043000E6480000724900000549000092490000AA
:100440000C490000134900001A490000324900001D
:10045000394900005D4900006E616E00696E6600FA
:1004600000407A10F35A00A0724E18090010A5D46B
:10047000E80000E87648170000E40B54020000CAC8
:100480009A3B000000E1F50500008096980000000E
:1004900040420F000000A08601000000102700006D
:1004A0000000E803000000006400000000000A00F3
:1004B000000000000100000000002C76D888DC67F6
:1004C0004F0823DFC1DFAE59E1B1B796E5E3E4534E
:1004D000C63AE651997696E8E6C28426EB898C9B6B
:1004E00062ED407C6FFCEFBC9C9F40F2BAA56FA50B
:1004F000F490055A2AF75C936B6CF9676DC11BFC8D
:10050000E0E40D47FEF520E6B500D0ED902E0300A7
:10051000943577050080841E080000204E0A0000F4
:1005200000C80C333333330F986E12831141EF8DB3
:100530002114893BE65516CFFEE6DB18D1844B38F3
:100540001BF77C1D901DA4BBE424203284725E2224
:100550008100C9F124ECA1E53D270C3B11241FBE0D
:10056000CFEFD0E1DEBFCDBF12E0A0E0B1E0E6EF1B
:10057000FAEA02C005900D92A235B107D9F725E03D
:10058000A2E5B2E001C01D92A434B207E1F712E087
:10059000CEEAD2E004C02197FE010E949152CD3AEA
:1005A000D107C9F70E947B100C9479550C94000078
:1005B0000895CF92DF92EF92FF920F931F93CF9304
:1005C000DF9300D000D0CDB7DEB70E94353AFC01F2
:1005D000C080D1800D2C000CEE08FF087601DD24D0
:1005E000CC240E94353AFC0182819381092E000CB3
:1005F000AA0BBB0BBA2FA92F982F8827C82AD92A54
:10060000EA2AFB2A0E94353AFC0124813581C9017E
:10061000330FAA0BBB0BA7019601282B392B4A2BB2
:100620005B2B29833A834B835C830E942A251DEF31
:10063000E12EFF24FA940FEF1FEF29813A814B81BD
:100640005C8168E171E00E947A250F900F900F9015
:100650000F90DF91CF911F910F91FF90EF90DF905E
:10066000CF9008950F931F93CF93DF93EB018A816F
:100670009B810E94571A8C010E940A1BB8010E949C
:10068000671A0E940A1BFC01808191810E94F52457
:100690008C010E942A25B8010E9492298A819B819F
:1006A0000E94E51DEC010E94DD1FBE010E94B21EEA
:1006B0000E94DD1FFC01848195810E94D524EC01FC
:1006C0000E942A25BE01DF91CF911F910F910C94BA
:1006D00068260F931F93CF93DF93EB018A819B8151
:1006E0000E94E51D8C010E94DD1FB8010E94B21E10
:1006F0000E94DD1FFC01848195810E94D5248C011C
:100700000E942A25B8010E9468268A819B810E9446
:10071000571AEC010E940A1BBE010E94671A0E9430
:100720000A1BFC01808191810E94F524EC010E944A
:100730002A25BE01DF91CF911F910F910C94922930
:100740008F929F92AF92BF92EF92FF920F931F935F
:10075000CF93DF93FB01C281D3810E94DD1FDD2790
:10076000FE01EE0FFF1FEC0FFD1FEE0FFF1FE80F46
:10077000F91F80849184A284B384E680F7800E946C
:100780002A2595018401A701BE010E949726DF91C9
:10079000CF911F910F91FF90EF90BF90AF909F90DE
:1007A0008F9008958F929F92AF92BF92EF92FF9297
:1007B0000F931F93CF93DF93FB01C281D381DD277A
:1007C0000E94DD1FBE010E9460200E94DD1FFE010D
:1007D000EE0FFF1FEC0FFD1FEE0FFF1FE80FF91FBD
:1007E00080849184A284B384E680F7800E942A25C5
:1007F00095018401A701BE010E94EA26DF91CF91F5
:100800001F910F91FF90EF90BF90AF909F908F90AE
:1008100008958F929F92AF92BF92CF92DF92EF9204
:10082000FF920F931F93CF93DF9300D000D0CDB7EB
:10083000DEB7FB012481358146815781C280D38098
:10084000DD2429833A834B835C830E94DD1F298149
:100850003A814B815C81B6010E9470200E94DD1FAD
:10086000F601EE0FFF1FEC0DFD1DEE0FFF1FE80F51
:10087000F91F80849184A284B384E680F7800E946B
:100880002A2595018401A701B6010E943D270F90FA
:100890000F900F900F90DF91CF911F910F91FF90CC
:1008A000EF90DF90CF90BF90AF909F908F90089582
:1008B000CF93DF9300D000D0CDB7DEB7FB014281EC
:1008C00053816481758149835A836B837C830E9441
:1008D000DD1F49815A816B817C810E94EB1F0E9440
:1008E000DD1FFC01408151816281738149835A83FC
:1008F0006B837C830E942A2549815A816B817C818C
:100900000F900F900F900F90DF91CF910C94B9271B
:10091000CF93DF93FB01828193810E945436EC01D7
:100920000E948037BE010E9467360E948037FC011A
:10093000848195810E94E524EC010E942A25BE0154
:10094000DF91CF910C94FD278F929F92AF92BF922F
:10095000EF92FF920F931F93CF93DF93FB01C2811E
:10096000D3810E948037DD27FE01EE0FFF1FEC0FC1
:10097000FD1FEE0FFF1FE80FF91F80849184A284F2
:10098000B384E680F7800E942A2595018401A7019F
:10099000BE010E942C28DF91CF911F910F91FF90F3
:1009A000EF90BF90AF909F908F9008958F929F92FD
:1009B000AF92BF92EF92FF920F931F93CF93DF936B
:1009C000FB01C281D381DD270E948037BE010E94D6
:1009D0003C380E948037FE01EE0FFF1FEC0FFD1F19
:1009E000EE0FFF1FE80FF91F80849184A284B38467
:1009F000E680F7800E942A2595018401A701BE01A7
:100A00000E947F28DF91CF911F910F91FF90EF906F
:100A1000BF90AF909F908F9008958F929F92AF92CA
:100A2000BF92CF92DF92EF92FF920F931F93CF93DB
:100A3000DF9300D000D0CDB7DEB7FB012481358134
:100A400046815781C280D380DD2429833A834B833A
:100A50005C830E94803729813A814B815C81B60199
:100A60000E944C380E948037F601EE0FFF1FEC0DFC
:100A7000FD1DEE0FFF1FE80FF91F80849184A284F3
:100A8000B384E680F7800E942A2595018401A7019E
:100A9000B6010E94D2280F900F900F900F90DF9117
:100AA000CF911F910F91FF90EF90DF90CF90BF906B
:100AB000AF909F908F900895CF93DF9300D000D098
:100AC000CDB7DEB7FB0142815381648175814983D3
:100AD0005A836B837C830E94803749815A816B8162
:100AE0007C810E94C7370E948037FC014081518180
:100AF0006281738149835A836B837C830E942A2598
:100B000049815A816B817C810F900F900F900F90DB
:100B1000DF91CF910C944E29AF92BF92CF92DF928A
:100B2000EF92FF920F931F93CF93DF9300D000D0EB
:100B3000CDB7DEB7FB01E280F3800E940A1B5701AC
:100B4000BB24F501EE0FFF1FEE0FFF1FEE0FFF1F7F
:100B5000E80FF91FC680D780E084F18422813381B9
:100B60004481558129833A834B835C830E942A25E3
:100B70008701760129813A814B815C81B5010E9410
:100B8000C1290F900F900F900F90DF91CF911F917F
:100B90000F91FF90EF90DF90CF90BF90AF900895AE
:100BA000AF92BF92CF92DF92EF92FF920F931F937B
:100BB000CF93DF9300D000D0CDB7DEB7FB01248107
:100BC000358146815781A280B380BB2429833A8333
:100BD0004B835C830E940A1B29813A814B815C8193
:100BE000B5010E949C1C0E940A1BF501EE0FFF1F1D
:100BF000EE0FFF1FEE0FFF1FE80FF91FC680D78013
:100C0000E084F184228133814481558129833A83B0
:100C10004B835C830E942A258701760129813A81D2
:100C20004B815C81B5010E941C2A0F900F900F90A0
:100C30000F90DF91CF911F910F91FF90EF90DF9078
:100C4000CF90BF90AF900895CF93DF93FB01828147
:100C500093810E94D530EC010E942632BE010E9491
:100C6000F5300E942632FC01808191810E94052589
:100C7000EC010E942A25BE01DF91CF910C94E42A59
:100C8000AF92BF92CF92DF92EF92FF920F931F939A
:100C9000CF93DF9300D000D0CDB7DEB7FB01E28069
:100CA000F3800E9426325701BB24F501EE0FFF1F8F
:100CB000EE0FFF1FEE0FFF1FE80FF91FC680D78052
:100CC000E084F184228133814481558129833A83F0
:100CD0004B835C830E942A258701760129813A8112
:100CE0004B815C81B5010E94132B0F900F900F90E8
:100CF0000F90DF91CF911F910F91FF90EF90DF90B8
:100D0000CF90BF90AF900895AF92BF92CF92DF92F5
:100D1000EF92FF920F931F93CF93DF9300D000D0F9
:100D2000CDB7DEB7FB012481358146815781A28092
:100D3000B380BB2429833A834B835C830E94263291
:100D400029813A814B815C81B5010E94F6320E9473
:100D50002632F501EE0FFF1FEE0FFF1FEE0FFF1FF4
:100D6000E80FF91FC680D780E084F18422813381A7
:100D70004481558129833A834B835C830E942A25D1
:100D80008701760129813A814B815C81B5010E94FE
:100D90006E2B0F900F900F900F90DF91CF911F91BE
:100DA0000F91FF90EF90DF90CF90BF90AF9008959C
:100DB0000E94DD1F0E940F200E942A250C94362CD1
:100DC0000E9480370E94EB370E942A250C945F2CEA
:100DD0000E940A1B0E94351C0E942A250C94882C14
:100DE0000E9426320E948F320E942A250C94B12C38
:100DF000CF93DF93FB01828193818130910521F1B3
:100E00008230910599F0892B19F0DF91CF910895E7
:100E10000E94353AFC01C081D1810E942A25AE0191
:100E200060E070E0DF91CF910C941E2D0E94353A66
:100E3000FC01C481D5810E942A25AE0162E070E0E8
:100E4000DF91CF910C941E2D0E94353AFC01C28196
:100E5000D3810E942A25AE0161E070E0DF91CF913D
:100E60000C941E2DCF93DF93FB0182819381C4816B
:100E7000D58181309105B1F18230910501F1009762
:100E800059F08130910599F182309105E9F0892B73
:100E900041F0DF91CF9108950E94353AFC01D18352
:100EA000C0830E94353AFC01C081D1810E942A256D
:100EB000AE0160E070E0DF91CF910C945C2D0E9458
:100EC000353AFC01D583C4830E94353AFC01C481C4
:100ED000D5810E942A25AE0162E070E0DF91CF91BA
:100EE0000C945C2D0E94353AFC01D383C2830E948E
:100EF000353AFC01C281D3810E942A25AE0161E00E
:100F000070E0DF91CF910C945C2D0E94353A0E94E5
:100F10008F3A0E942A250C949A2D0E94353A0E94FD
:100F20009B3A0E942A250C94C32DCF93DF93FB019B
:100F3000828193810E94E530EC010E942632BE013D
:100F40000E949F330E942632FC0183AD94AD0E9423
:100F50001A25EC010E942A25BE01DF91CF910C9445
:100F6000672FCF93DF930E942632FC0183AD94ADAF
:100F70000E941A25EC010E942A25BE01DF91CF9123
:100F80000C94962FCF93DF9300D000D0CDB7DEB76F
:100F9000FB01428153816481758149835A836B834C
:100FA0007C830E942A2549815A816B817C810F9024
:100FB0000F900F900F90DF91CF910C940330CF934F
:100FC000DF93FB01C281D3810E942A25BE01DF91FC
:100FD000CF910C944130CF92DF92EF92FF92FB01C0
:100FE000C280D380E480F5800E942A25B701A60143
:100FF0000E944A25811108C00E942A25FF90EF9087
:10100000DF90CF900C94D4250E942A25B701A60129
:101010000E94C52F0E942A25B701A601FF90EF90DC
:10102000DF90CF900C946225AF92BF92CF92DF9267
:10103000EF92FF920F931F93CF93DF9300D000D0D6
:10104000CDB7DEB7FB01E280F3808091970281117A
:1010500007C082E692E00E94E03381E0809397022D
:101060005701BB24F501EE0FFF1FEE0FFF1FEE0F20
:10107000FF1FEE59FD4FC184D284E384F48425819F
:1010800036814781508529833A834B835C830E9454
:101090002A258701760129813A814B815C81B5013E
:1010A0000E941B2E0F900F900F900F90DF91CF9109
:1010B0001F910F91FF90EF90DF90CF90BF90AF9076
:1010C000089580919702811107C082E692E00E9404
:1010D000E03381E08093970282E692E00E94AB3594
:1010E0000E942A250C943E2FAF92BF92CF92DF929E
:1010F000EF92FF920F931F93CF93DF9300D000D016
:10110000CDB7DEB7FB012481358146815781A280AE
:10111000B380BB2480919702882309F43FC0B501B6
:1011200082E692E00E943E3580919702811107C0CD
:1011300082E692E00E94E03381E080939702F5011D
:10114000EE0FFF1FEE0FFF1FEE0FFF1FEE59FD4FBB
:10115000C184D284E384F48425813681478150851B
:1011600029833A834B835C830E942A258701760179
:1011700029813A814B815C81B5010E94762E0F90C6
:101180000F900F900F90DF91CF911F910F91FF90D3
:10119000EF90DF90CF90BF90AF90089582E692E0FD
:1011A00029833A834B835C830E94E03381E0809300
:1011B00097025C814B813A812981B1CF0F931F93B4
:1011C000CF93DF9300D000D0CDB7DEB78B010E9464
:1011D00072380E948A38F801628173818091970287
:1011E00081110BC082E692E06B837C830E94E03326
:1011F00081E0809397027C816B8182E692E00E947D
:101200001236AB01BC0149835A836B837C830E94F5
:101210002A2549815A816B817C810E94FA2E0E9485
:1012200072380F900F900F900F90DF91CF911F9118
:101230000F910C948C380F931F93CF93DF9300D0B2
:10124000CDB7DEB7FB01828193810E94DB33BC0105
:1012500080919702882309F182E692E00E94AB34E4
:1012600080919702811107C082E692E00E94E033EC
:1012700081E08093970280916502909166020E94BE
:1012800015258C010E942A25B8010F900F90DF913F
:10129000CF911F910F910C94EC2D82E692E069831F
:1012A0007A830E94E03381E0809397027A8169819A
:1012B000D3CF8F929F92AF92BF92CF92DF92EF9255
:1012C000FF920F931F93CF93DF93EC01FB0182807A
:1012D0009380A480B58081E08B870E94C6460E94DF
:1012E000E8466B017C010E94C6468C01C501B40131
:1012F0000E9492502FE632E143E85AE30E94975150
:10130000AB01BC01C8010E94F446C60ED71EE81E00
:10131000F91ECC86DD86EE86FF860E942A25B50161
:10132000A401DF91CF911F910F91FF90EF90DF907B
:10133000CF90BF90AF909F908F900C94FB250F9310
:101340001F93CF93DF9300D000D0CDB7DEB78B01D2
:101350000E9480370E9464360E9472380E9488384A
:101360000E94DD1F0E94F51D0E9472380E94823883
:10137000F801028113810E948E38B8010E94E6397B
:10138000AB01BC0149835A836B837C830E942A256D
:1013900049815A816B817C810F900F900F900F9043
:1013A000DF91CF911F910F910C94DA2CCF92DF92A5
:1013B000EF92FF92DB01ED91FC91EE32F10548F5E1
:1013C000EE0FFF1FEE0FFF1FE354FF4FC590D590A8
:1013D000E590F490F601970135952795E0FE12C04F
:1013E000DC01A20FB31F2D913C911197F901EC0D77
:1013F000FD1D0190F081E02DCD01FF90EF90DF9079
:10140000CF900994820F931FFF90EF90DF90CF90C1
:101410000994FF90EF90DF90CF900895FB018281B7
:1014200093810097C9F00197B1F40E94DD1F0E94DB
:10143000AF1E0E9472380E9484380E9480370E943A
:101440008E370E9472380E9486380E942A2561E0F9
:1014500070E00C94392608950E9480370E9464360B
:101460000E9472380E9488380E94DD1F0E94F51D7C
:101470000E9472380E9482380E942A2560E070E043
:101480000C9439268F929F92AF92BF92CF92DF92A7
:10149000EF92FF920F931F93CF93DF93CDB7DEB7F9
:1014A0002B970FB6F894DEBF0FBECDBF8C017B012A
:1014B0000E9472380E948A38F701E280F3800E940D
:1014C0000A1BB7010E94971B4B015C010E942A2551
:1014D000B501A4010E94A02A81E0F80186830E9440
:1014E000C6460E94E8466B017C010E94C64640E069
:1014F00050E060E070E40E94F446C60ED71EE81E7D
:10150000F91EF801C782D086E186F2860E94263253
:101510000E940A1BFC01E080F1800E94113B0E94A6
:10152000193CFC0196E0DE01119601900D929A950E
:10153000E1F70E94113B40E060E00E94F53B87012B
:10154000000F111F000F111F000F111F0E191F098F
:10155000F801E656FF4FE590F49082E00E948E3F3E
:101560008B8781E00E948E3F8A87F801E456FF4F07
:101570002591359145915491C501B4010E9497512F
:101580004B015C01F801E056FF4F84910E948F3FB0
:10159000898789E00E948E3F888784E00E948E3F81
:1015A0008F830E94113B67E47FE30E94FD3EBE01F2
:1015B000695F7F4F0E94903F63E271E00E94243C8C
:1015C0006BE67FE30E94FD3E6FEF7EE30E94FD3EEF
:1015D00063E27FE30E94FD3EBE01685F7F4F0E9491
:1015E000903FBE01675F7F4F0E94B53FB501A401E8
:1015F0000E94E33DBE01665F7F4F0E94903F69E419
:1016000071E00E94243C67E47FE30E94FD3EBE013E
:10161000655F7F4F0E94903FB7010E94243C0E946B
:10162000113B40E061E00E94F53B0E94113BBE018E
:101630006F5F7F4F0E941B3C0E9472380E948C3863
:101640002B960FB6F894DEBF0FBECDBFDF91CF91C2
:101650001F910F91FF90EF90DF90CF90BF90AF90D0
:101660009F908F9008958F929F92AF92BF92CF924A
:10167000DF92EF92FF920F931F93CF93DF93CDB73B
:10168000DEB72B970FB6F894DEBF0FBECDBF8C012F
:101690007B010E9472380E948A38F701E280F38051
:1016A0000E942632B7010E9434324B015C010E9435
:1016B0002A25B501A4010E94F22B81E0F80186835E
:1016C0000E94C6460E94E8466B017C010E94C64605
:1016D00040E050E060E070E40E94F446C60ED71E81
:1016E000E81EF91EF801C782D086E186F2860E94C4
:1016F0002632FC01E080F1800E940A1B0E94113B0F
:101700000E94193CFC0196E0DE01119601900D92B9
:101710009A95E1F70E94113B40E060E00E94F53BA2
:101720000E94113B40E061E00E94F53B8701000F01
:10173000111F000F111F000F111F0E191F09F801B3
:10174000E059FF4FE590F49082E00E948E3F8B8736
:1017500081E00E948E3F8A87F801EE58FF4F259165
:10176000359145915491C501B4010E9497514B01A7
:101770005C01F801EA58FF4F84910E948F3F8987EE
:1017800089E00E948E3F888784E00E948E3F8F838D
:101790000E94113B67E47FE30E94FD3EBE01695F4A
:1017A0007F4F0E94903F66E271E00E94243C6BE60E
:1017B0007FE30E94FD3E6FEF7EE30E94FD3E63E209
:1017C0007FE30E94FD3EBE01685F7F4F0E94903F15
:1017D000BE01675F7F4F0E94B53FB501A4010E9423
:1017E000E33DBE01665F7F4F0E94903F69E471E078
:1017F0000E94243C67E47FE30E94FD3EBE01655FDA
:101800007F4F0E94903FB7010E94243C0E94113BF1
:10181000BE016F5F7F4F0E941B3C0E9472380E9486
:101820008C382B960FB6F894DEBF0FBECDBFDF917C
:10183000CF911F910F91FF90EF90DF90CF90BF90CD
:10184000AF909F908F900895CF92DF92EF92FF928A
:10185000CF93DF93EC0180919702811107C082E65C
:1018600092E00E94E03381E08093970282E692E06A
:101870000E9495350E942A250E94D12E81E08E83F8
:101880000E94C6460E94E8466B017C010E94C64643
:1018900040E050E060E070E40E94F446C60ED71EBF
:1018A000E81EF91ECF82D886E986FA860E94113B8F
:1018B00040E060E00E94F53B0E94113B69E271E06C
:1018C0000E94243C0E94113B40E061E00E94F53BF5
:1018D0000E94113B6AE371E0DF91CF91FF90EF909E
:1018E000DF90CF900C94243CCF92DF92EF92FF9246
:1018F000CF93DF93EC010E9426320E9454330E9462
:101900002A250E94C92B81E08E830E94C6460E9430
:10191000E8466B017C010E94C64640E050E060E072
:1019200070E40E94F446C60ED71EE81EF91ECF8250
:10193000D886E986FA860E94113B40E060E00E946A
:10194000F53B0E94113B69E271E00E94243C0E9439
:10195000113B40E061E00E94F53B0E94113B6AE3CD
:1019600071E0DF91CF91FF90EF90DF90CF900C94DA
:10197000243CCF92DF92EF92FF92CF93DF93EC0162
:101980000E940A1B0E944B1D0E942A250E94772A52
:1019900081E08E830E94C6460E94E8466B017C016E
:1019A0000E94C64640E050E060E070E40E94F446C9
:1019B000C60ED71EE81EF91ECF82D886E986FA86A3
:1019C0000E94113B40E060E00E94F53B0E94113B09
:1019D00069E271E00E94243C0E94113B40E061E01A
:1019E0000E94F53B0E94113B6AE371E0DF91CF91C9
:1019F000FF90EF90DF90CF900C94243CCF92DF9239
:101A0000EF92FF92CF93DF93EC010E94DD1F0E94C3
:101A100080200E942A250E94902781E08E830E94C8
:101A2000C6460E94E8466B017C010E94C64640E023
:101A300050E060E070E40E94F446C60ED71EE81E37
:101A4000F91ECF82D886E986FA860E94113B40E0D3
:101A500060E00E94F53B0E94113B69E271E00E9448
:101A6000243C0E94113B40E061E00E94F53B0E9453
:101A7000113B6AE371E0DF91CF91FF90EF90DF902F
:101A8000CF900C94243CCF92DF92EF92FF92CF93B1
:101A9000DF93EC010E9480370E945C380E942A2567
:101AA0000E94252981E08E830E94C6460E94E84656
:101AB0006B017C010E94C64640E050E060E070E4AB
:101AC0000E94F446C60ED71EE81EF91ECF82D886A5
:101AD000E986FA860E94113B40E060E00E94F53BF7
:101AE0000E94113B69E271E00E94243C0E94113B7C
:101AF00040E061E00E94F53B0E94113B6AE371E027
:101B0000DF91CF91FF90EF90DF90CF900C94243C29
:101B10000F931F93CF93DF93CDB7DEB7AB970FB67D
:101B2000F894DEBF0FBECDBF0E94113B0E94193C4E
:101B3000FC0196E0DE01919601900D929A95E1F7F5
:101B40000E94113B40E060E00E94F53B6EE771E0CF
:101B5000CE0101960E949C548C010E94113BB80159
:101B60000E94243C0E94113B40E061E00E94F53B52
:101B700082E00E948E3F8FA381E00E948E3F88A763
:101B800082E00E948E3F89A781E00E948E3F8AA753
:101B900082E00E948E3F8BA765E771E0CE0101963F
:101BA0000E949C548C010E94113BB8010E94243C6D
:101BB000BE01655D7F4F0E94903F63E27FE30E941C
:101BC000FD3E4FEF50E060E070E00E94EE3CBE0151
:101BD000665D7F4F0E94903F6BE471E00E94243C61
:101BE000BE01675D7F4F0E94903F63E27FE30E94EA
:101BF000FD3E4FEF50E060E070E00E94EE3CBE0121
:101C0000685D7F4F0E94903F6BE471E00E94243C2E
:101C1000BE01695D7F4F0E94903F63E27FE30E94B7
:101C2000FD3E4DEF50E060E070E00E94EE3C0E940F
:101C3000113BBE016F5D7F4F0E941B3CAB960FB600
:101C4000F894DEBF0FBECDBFDF91CF911F910F91F2
:101C50000895CF92DF92EF92FF92CF93DF93EC0142
:101C60000E94E23A82ED91E0998388831E821F826E
:101C7000188619861A861B861C861D861E861F8658
:101C80000E94113B0E94DD1F0E9480370E940A1BA8
:101C90000E94263280919702811107C082E692E06D
:101CA0000E94E03381E0809397020E948E380E9468
:101CB0002A250E94DD1F0E94F51D0E9472380E9495
:101CC00082380E94803740E050E0BA010E94C73756
:101CD0000E94263260E070E00E949F330E942A2515
:101CE000AE0166ED79E00E94FC3ACE010E94880DBB
:101CF000789481E08E830E94C6460E94E8466B017C
:101D00007C010E94C64640E050E060E070E40E9422
:101D1000F446C60ED71EE81EF91ECF82D886E98685
:101D2000FA86DF91CF91FF90EF90DF90CF900895EA
:101D30002F923F924F925F926F927F928F929F92DB
:101D4000AF92BF92CF92DF92EF92FF920F931F93C9
:101D5000CF93DF93CDB7DEB72B970FB6F894DEBFE6
:101D60000FBECDBFF62E29013A010E94113B0E9401
:101D7000193CFC0196E0DE01119601900D929A95B6
:101D8000E1F70E94113B40E060E00E94F53BF1105A
:101D900099C00E94113B40E061E00E94F53BEE20BB
:101DA00009F470C08401000F111F000F111F000FF4
:101DB000111F08191909F801E059FF4FE590F49037
:101DC00082E00E948E3F8F8381E00E948E3F888751
:101DD000F801EE58FF4F2591359145915491C60178
:101DE000B5010E9497514B015C01F801EA58FF4F81
:101DF00084910E948F3F898789E00E948E3F8A8765
:101E000084E00E948E3F8B870E94113B67E47FE352
:101E10000E94FD3EBE01655F7F4F0E94903F66E2DB
:101E200071E00E94243C6BE67FE30E94FD3E6FEF71
:101E30007EE30E94FD3E63E27FE30E94FD3EBE0121
:101E4000665F7F4F0E94903FBE01675F7F4F0E9499
:101E5000B53FB501A4010E94E33DBE01685F7F4F1D
:101E60000E94903F69E471E00E94243C67E47FE3B4
:101E70000E94FD3EBE01695F7F4F0E94903FB70107
:101E80000E94243C0E94113BBE016F5F7F4F0E9465
:101E90001B3C2B960FB6F894DEBF0FBECDBFDF9173
:101EA000CF911F910F91FF90EF90DF90CF90BF9057
:101EB000AF909F908F907F906F905F904F903F90EA
:101EC0002F900895F801EE0FFF1FEE0FFF1FEE0F8A
:101ED000FF1FCF01801B910B8C01FC01E656FF4FC9
:101EE0002590349082E00E948E3F8F8381E00E9493
:101EF0008E3F8887F801E456FF4F25913591459133
:101F00005491C301B2010E9497512B013C01F80189
:101F1000E056FF4F84910E948F3F898789E00E949D
:101F20008E3F8A8784E00E948E3F8B870E94113B00
:101F300067E47FE30E94FD3EBE01655F7F4F0E9424
:101F4000903F63E271E00E94243C6BE67FE30E94D5
:101F5000FD3E6FEF7EE30E94FD3E63E27FE30E9461
:101F6000FD3EBE01665F7F4F0E94903FBE01675FEE
:101F70007F4F0E94B53FB301A2010E94E33DBE0125
:101F8000685F7F4F0E94903F69E471E00E94243CAB
:101F900067E47FE30E94FD3EBE01695F7F4F0E94C0
:101FA000903FB1010E94243CF4CE2F923F924F9279
:101FB0005F926F927F928F929F92AF92BF92CF92D9
:101FC000DF92EF920F931F93CF93DF9300D000D057
:101FD000CDB7DEB71C01FC018385811125C00E94AD
:101FE0000A1B0E945F1D0E9426320E9468330E94D5
:101FF0000A1BFC0180AD91AD892B39F10F900F9038
:102000000F900F90DF91CF911F910F91EF90DF9084
:10201000CF90BF90AF909F908F907F906F905F9088
:102020004F903F902F9008950E94C6460E94E84628
:10203000F1010485158526853785601771078207AC
:10204000930768F2F1011386CACF0E942632FC0181
:1020500080AD91AD892B91F60E940A1B0E94B71D9D
:102060009B01AC0169833A834B835C830E942632D7
:102070000E9477335B016C01F101868129813A81ED
:102080004B815C81811119C029833A834B835C8326
:102090000E942632FC01808091800E940A1BFC0174
:1020A00000811181EE24E39429813A814B815C8186
:1020B00061E0C1010E94980EA1CF29833A834B832E
:1020C0005C830E94C6460E94E846F1014780508426
:1020D0006184728429813A814B815C816415750524
:1020E0008605970518F0F1011682CECFF1018681A1
:1020F000811184CFC9CF2FEF8FE398E32150804027
:102100009040E1F700C0000080918F02811107C06C
:1021100082E592E00E94290E81E080938F020E9466
:10212000C13A80E090E008952F923F924F925F92E3
:102130006F927F928F929F92AF92BF92CF92DF92D7
:10214000EF92FF920F931F93CF93DF938C01EB01DC
:10215000FC01E080F1806E157F050CF065C0828087
:102160009380A480B580A5019401608571858285E6
:1021700093850E94724F2B013C01F80166817781A3
:102180006E197F09072E000C880B990B0E94945042
:102190009B01AC01C301B2010E94E44F2B013C0141
:1021A000CE19DF09BE01DD0F880B990B0E949450F8
:1021B0009B01AC01C301B2010E9497519B01AC018C
:1021C000C501B4010E94734F8B01D82FC92F2CE594
:1021D0003FE842E85FE3C501B4010E9497516B01FB
:1021E0007C019B01AC01B8018D2F9C2F0E94DF4F19
:1021F00087FDEDC0502F412F9E01652F742F832F37
:10220000922FDF91CF911F910F91FF90EF90DF9070
:10221000CF90BF90AF909F908F907F906F905F9086
:102220004F903F902F900895FC01208C318C261602
:1022300037060CF47EC0A4E0B0E00DC04C175D077B
:102240000CF0CAC09C01CB01BF2DAC01421B530B4B
:1022500042305105FCF02B2F30E06A2F70E0C901AD
:10226000860F971F95958795F82EFC01EE0FFF1F9F
:10227000E80FF91FEE0FFF1FE00FF11F40815181A2
:10228000C417D507DCF6A82FAC01421B530B423014
:1022900051050CF7F901EE0FFF1FE20FF31FEE0FD0
:1022A000FF1FE00FF11F82809380A480B580E08043
:1022B000F1809C01220F331F820F931F880F991FFB
:1022C000080F191FA5019401F801628173818481AF
:1022D00095810E94724F2B013C01F8016081718150
:1022E0006E197F09072E000C880B990B0E949450E1
:1022F0009B01AC01C301B2010E94E44F2B013C01E0
:10230000CE19DF09BE01DD0F880B990B0E94945096
:102310009B01AC01C301B2010E9497519B01AC012A
:10232000C501B4010E94734F562F472F382F292F14
:1023300064CFC28CD38CE48CF58C84889588A68875
:10234000B78802891389A5019401C701B6010E94CB
:10235000724F2B013C01B101601B710B072E000C69
:10236000880B990B0E9494509B01AC01C301B201F0
:102370000E94E44F2B013C01C01BD10BBE01DD0FBD
:10238000880B990B0E9494509B01AC01C301B201D0
:102390000E9497519B01AC01C501B4010E94734F8B
:1023A0008B01D82FC92F2CE53FE842E85FE3C70136
:1023B000B6010E9497516B017C019B01AC01B801F1
:1023C0008D2F9C2F0E94925118160CF013CF5C2D6C
:1023D0004D2D3E2D2F2D11CF5281438134812581EA
:1023E0000CCF2F923F924F925F926F927F928F927B
:1023F0009F92AF92BF92CF92DF92EF92FF920F9394
:102400001F93CF93DF93CDB7DEB728970FB6F8941D
:10241000DEBF0FBECDBF8C016A017B01FC01828053
:102420009380A480B5809A01AB01C501B4010E94DC
:102430009251F80118160CF079C060807180B301D8
:10244000072C000C880B990B0E94945069837A83A7
:102450008B839C83F8016681778166197709072E43
:10246000000C880B990B0E9494502B013C01A50194
:102470009401F80160857185828593850E94724F71
:102480009B01AC01C301B2010E94E44F2B013C014E
:10249000A5019401C701B6010E94724F9B01AC01D6
:1024A000C301B2010E94975129813A814B815C811D
:1024B0000E94734F8B015C012CE53FE842E85FE32B
:1024C00069817A818B819C810E9497516B017C018B
:1024D0009B01AC01B801C5010E94DF4F87FD23C1FC
:1024E000502F412F3A2D2B2D652F742F832F922F94
:1024F0000E9404520E945650CB0128960FB6F894C1
:10250000DEBF0FBECDBFDF91CF911F910F91FF9026
:10251000EF90DF90CF90BF90AF909F908F907F9083
:102520006F905F904F903F902F900895828C938C86
:10253000A48CB58CA7019601C501B4010E94DF4FA0
:1025400087FD94C0F4E0F9831D8211C0A7019601B4
:10255000C301B2010E94DF4F87FFEAC0450151016C
:10256000FE81FD83C50188199909029754F12D81D7
:10257000822E912C3981232E312C5401A20CB31CB4
:10258000B594A794AE82C501880F991F8A0D9B1D33
:10259000880F991FFC01E00FF11FF887EF8342803D
:1025A000538064807580A7019601C301B2010E9427
:1025B000925118165CF6A982C501881999090297EB
:1025C000B4F6F401EE0FFF1FE80DF91DEE0FFF1F2B
:1025D000E00FF11F2080318042805380648075803D
:1025E000C501880F991F8A0D9B1D880F991F080F21
:1025F000191FF8016081718162197309072E000C9F
:10260000880B990B0E9494504B015C01A30192012D
:10261000F80162817381848195810E94724F9B01D0
:10262000AC01C501B4010E94E44F4B015C01A30160
:102630009201C701B6010E94724F9B01AC01C50116
:10264000B4010E9497516B017C01B101330C880BDE
:10265000990B0E9494509B01AC01C701B6010E94E6
:10266000734F562F472F382F292F3ECFF801208C3C
:10267000318C2289338938872F834488558866882E
:102680007788B101621B730B072E000C880B990B26
:102690000E94945069837A838B839C83A301920167
:1026A000C501B4010E94724F9B01AC0169817A811E
:1026B0008B819C810E94E44F4B015C01A30192013C
:1026C000C701B6010E94724F9B01AC01C501B40164
:1026D0000E9497516B017C01EF81F885BF01FF0FCC
:1026E000880B990B0E9494509B01AC01C701B60165
:1026F0000E94734F8B015C01B101330C880B990B65
:102700000E9494502CE53FE842E85FE30E94975115
:102710006B017C019B01AC01B801C5010E94925183
:1027200018160CF0DDCE5C2D4D2D3E2D2F2DDCCE60
:10273000EF81F88560817181072E000C880B990B61
:102740000E949450562F472F382F292FCDCE2F92ED
:102750003F924F925F926F927F928F929F92AF9231
:10276000BF92CF92DF92EF92FF920F931F93CF937E
:10277000DF938C01EB01FC01E080F1806E157F0599
:102780000CF065C082809380A480B580A50194017F
:1027900060857185828593850E94724F2B013C0173
:1027A000F801668177816E197F09072E000C880B6E
:1027B000990B0E9494509B01AC01C301B2010E948D
:1027C000E44F2B013C01CE19DF09BE01DD0F880B60
:1027D000990B0E9494509B01AC01C301B2010E946D
:1027E00097519B01AC01C501B4010E94734F8B014D
:1027F000D82FC92F2CE53FE842E85FE3C501B401BB
:102800000E9497516B017C019B01AC01B8018D2F97
:102810009C2F0E94DF4F87FDEDC0502F412F9E015E
:10282000652F742F832F922FDF91CF911F910F91DE
:10283000FF90EF90DF90CF90BF90AF909F908F90E0
:102840007F906F905F904F903F902F900895FC0184
:10285000208C318C261637060CF47EC0A4E0B0E044
:102860000DC04C175D070CF0CAC09C01CB01BF2DF9
:10287000AC01421B530B42305105FCF02B2F30E0D2
:102880006A2F70E0C901860F971F95958795F82EDE
:10289000FC01EE0FFF1FE80FF91FEE0FFF1FE00F07
:1028A000F11F40815181C417D507DCF6A82FAC0178
:1028B000421B530B423051050CF7F901EE0FFF1F7D
:1028C000E20FF31FEE0FFF1FE00FF11F82809380D6
:1028D000A480B580E080F1809C01220F331F820F1D
:1028E000931F880F991F080F191FA5019401F80164
:1028F00062817381848195810E94724F2B013C011A
:10290000F801608171816E197F09072E000C880B18
:10291000990B0E9494509B01AC01C301B2010E942B
:10292000E44F2B013C01CE19DF09BE01DD0F880BFE
:10293000990B0E9494509B01AC01C301B2010E940B
:1029400097519B01AC01C501B4010E94734F562FF2
:10295000472F382F292F64CFC28CD38CE48CF58C71
:1029600084889588A688B78802891389A50194016F
:10297000C701B6010E94724F2B013C01B101601BDF
:10298000710B072E000C880B990B0E9494509B0131
:10299000AC01C301B2010E94E44F2B013C01C01BFA
:1029A000D10BBE01DD0F880B990B0E9494509B0147
:1029B000AC01C301B2010E9497519B01AC01C5015A
:1029C000B4010E94734F8B01D82FC92F2CE53FE82B
:1029D00042E85FE3C701B6010E9497516B017C0199
:1029E0009B01AC01B8018D2F9C2F0E9492511816AB
:1029F0000CF013CF5C2D4D2D3E2D2F2D11CF52817C
:102A00004381348125810CCF2F923F924F925F9268
:102A10006F927F928F929F92AF92BF92CF92DF92EE
:102A2000EF92FF920F931F93CF93DF93CDB7DEB753
:102A300028970FB6F894DEBF0FBECDBF8C016A0198
:102A40007B01FC0182809380A480B5809A01AB0158
:102A5000C501B4010E949251F80118160CF079C01A
:102A600060807180B301072C000C880B990B0E94C9
:102A7000945069837A838B839C83F8016681778184
:102A800066197709072E000C880B990B0E94945049
:102A90002B013C01A5019401F801608571858285B7
:102AA00093850E94724F9B01AC01C301B2010E9449
:102AB000E44F2B013C01A5019401C701B6010E941E
:102AC000724F9B01AC01C301B2010E949751298151
:102AD0003A814B815C810E94734F8B015C012CE534
:102AE0003FE842E85FE369817A818B819C810E94A3
:102AF00097516B017C019B01AC01B801C5010E949B
:102B0000DF4F87FD23C1502F412F3A2D2B2D652FED
:102B1000742F832F922F0E9404520E945650CB0193
:102B200028960FB6F894DEBF0FBECDBFDF91CF91D0
:102B30001F910F91FF90EF90DF90CF90BF90AF90DB
:102B40009F908F907F906F905F904F903F902F90CD
:102B50000895828C938CA48CB58CA7019601C50135
:102B6000B4010E94DF4F87FD94C0F4E0F9831D8219
:102B700011C0A7019601C301B2010E94DF4F87FF78
:102B8000EAC045015101FE81FD83C50188199909FB
:102B9000029754F12D81822E912C3981232E312CD4
:102BA0005401A20CB31CB594A794AE82C501880F42
:102BB000991F8A0D9B1D880F991FFC01E00FF11FC3
:102BC000F887EF834280538064807580A701960167
:102BD000C301B2010E94925118165CF6A982C50188
:102BE000881999090297B4F6F401EE0FFF1FE80D5A
:102BF000F91DEE0FFF1FE00FF11F20803180428092
:102C0000538064807580C501880F991F8A0D9B1DB4
:102C1000880F991F080F191FF801608171816219CF
:102C20007309072E000C880B990B0E9494504B01DE
:102C30005C01A3019201F801628173818481958115
:102C40000E94724F9B01AC01C501B4010E94E44F88
:102C50004B015C01A3019201C701B6010E94724FB2
:102C60009B01AC01C501B4010E9497516B017C012D
:102C7000B101330C880B990B0E9494509B01AC015D
:102C8000C701B6010E94734F562F472F382F292FA7
:102C90003ECFF801208C318C2289338938872F83ED
:102CA0004488558866887788B101621B730B072EAC
:102CB000000C880B990B0E94945069837A838B8354
:102CC0009C83A3019201C501B4010E94724F9B0134
:102CD000AC0169817A818B819C810E94E44F4B0118
:102CE0005C01A3019201C701B6010E94724F9B01D2
:102CF000AC01C501B4010E9497516B017C01EF81C9
:102D0000F885BF01FF0F880B990B0E9494509B011F
:102D1000AC01C701B6010E94734F8B015C01B10188
:102D2000330C880B990B0E9494502CE53FE842E845
:102D30005FE30E9497516B017C019B01AC01B801DC
:102D4000C5010E94925118160CF0DDCE5C2D4D2D60
:102D50003E2D2F2DDCCEEF81F88560817181072E0D
:102D6000000C880B990B0E949450562F472F382F38
:102D7000292FCDCE2F923F924F925F926F927F92EA
:102D80008F929F92AF92BF92CF92DF92EF92FF927B
:102D90001F93CF93DF93CDB7DEB72C970FB6F89480
:102DA000DEBF0FBECDBF1C016A017B01DC018D902F
:102DB0009D90AD90BC901397481559056A057B0509
:102DC0000CF07DC014962D913D914D915C9117971B
:102DD00029833A834B835C831C966D917D918D9101
:102DE0009C911F970E94724F2B013C01F10180853D
:102DF0009185A285B385BC01CD01681979098A093D
:102E00009B090E9494509B01AC01C301B2010E9436
:102E1000E44F2B013C01C701B601681979098A0901
:102E20009B090E9494509B01AC01C301B2010E9416
:102E300097519B01AC0169817A818B819C810E94B1
:102E4000734FF62E172F982EA92E2CE53FE842E857
:102E50005FE369817A818B819C810E949751B62EB4
:102E6000C72ED82EE92E262F372F482F592F6F2DFA
:102E7000712F892D9A2D0E94DF4F87FD37C15F2D5D
:102E8000412F392D2A2D652F742F832F922F2C96A9
:102E90000FB6F894DEBF0FBECDBFDF91CF911F916B
:102EA000FF90EF90DF90CF90BF90AF909F908F906A
:102EB0007F906F905F904F903F902F900895DC012E
:102EC00090964D905D906D907C909397441655062A
:102ED000660677060CF495C014E0B12C0FC04C15B3
:102EE0005D056E057F050CF006C19C01CD01BA2C75
:102EF000AC01421B530B423051051CF12B2D30E02D
:102F0000A12FB0E0C9018A0F9B1F95958795A82E28
:102F1000FC01EE0FFF1FEE0FFF1FEE0FFF1FE20D74
:102F2000F31D4081518162817381C416D506E60686
:102F3000F706ACF6182FAC01421B530B423051057B
:102F4000ECF6220F331F220F331F220F331FF10124
:102F5000E20FF31F84809580A680B78020813181A5
:102F60004281538129833A834B835C83880F991F65
:102F7000880F991F880F991F280E391EA5019401EB
:102F8000D10114966D917D918D919C9117970E941E
:102F9000724F2B013C01F10180819181A281B381AB
:102FA000BC01CD0129813A814B815C81621B730B8D
:102FB000840B950B0E9494509B01AC01C301B2019C
:102FC0000E94E44F2B013C01C701B60129813A81DF
:102FD0004B815C81621B730B840B950B0E94945098
:102FE0009B01AC01C301B2010E9497519B01AC014E
:102FF000C501B4010E94734F562F472F382F292F38
:1030000042CF94968D909D90AD90BC9097975C9692
:103010002D913D914D915C915F9729833A834B832C
:103020005C8358962D913D914D915C915B972D83DA
:103030003E834F83588729813A814B815C81C5014A
:10304000B4010E94724F69877A878B879C87C3017E
:10305000B2012D813E814F815885621B730B840B19
:10306000950B0E9494509B01AC0169857A858B85F4
:103070009C850E94E44F2B013C01C701B6012D81C4
:103080003E814F815885621B730B840B950B0E9408
:1030900094509B01AC01C301B2010E9497519B0166
:1030A000AC0169817A818B819C810E94734FF62EDD
:1030B000172F3C012CE53FE842E85FE3C501B4016E
:1030C0000E949751B62EC72ED82EE92E262F372FC5
:1030D000482F592F6F2D712FC3010E94925118163E
:1030E0002CF05F2D412F362D272DCDCE5B2D4C2D75
:1030F0003D2D2E2DC8CE5481458136812781C3CEEA
:103100002F923F924F925F926F927F928F929F92F7
:10311000AF92BF92CF92DF92EF92FF921F93CF9325
:10312000DF93CDB7DEB72C970FB6F894DEBF0FBE96
:10313000CDBF1C016A017B01DC018D909D90AD909B
:10314000BC901397481559056A057B050CF07DC0A6
:1031500014962D913D914D915C91179729833A8357
:103160004B835C831C966D917D918D919C911F97F3
:103170000E94724F2B013C01F10180859185A2854F
:10318000B385BC01CD01681979098A099B090E94A0
:1031900094509B01AC01C301B2010E94E44F2B018A
:1031A0003C01C701B601681979098A099B090E9487
:1031B00094509B01AC01C301B2010E9497519B0145
:1031C000AC0169817A818B819C810E94734FF62EBC
:1031D000172F982EA92E2CE53FE842E85FE369817E
:1031E0007A818B819C810E949751B62EC72ED82E52
:1031F000E92E262F372F482F592F6F2D712F892D0C
:103200009A2D0E94DF4F87FD37C15F2D412F392D49
:103210002A2D652F742F832F922F2C960FB6F8949A
:10322000DEBF0FBECDBFDF91CF911F91FF90EF901A
:10323000DF90CF90BF90AF909F908F907F906F90D6
:103240005F904F903F902F900895DC0190964D90A5
:103250005D906D907C9093974416550666067706B0
:103260000CF495C014E0B12C0FC04C155D056E0533
:103270007F050CF006C19C01CD01BA2CAC01421BAC
:10328000530B423051051CF12B2D30E0A12FB0E043
:10329000C9018A0F9B1F95958795A82EFC01EE0FFB
:1032A000FF1FEE0FFF1FEE0FFF1FE20DF31D40810A
:1032B000518162817381C416D506E606F706ACF625
:1032C000182FAC01421B530B42305105ECF6220F74
:1032D000331F220F331F220F331FF101E20FF31FA1
:1032E00084809580A680B78020813181428153817E
:1032F00029833A834B835C83880F991F880F991F1A
:10330000880F991F280E391EA5019401D10114962A
:103310006D917D918D919C9117970E94724F2B0119
:103320003C01F10180819181A281B381BC01CD0179
:1033300029813A814B815C81621B730B840B950B55
:103340000E9494509B01AC01C301B2010E94E44F62
:103350002B013C01C701B60129813A814B815C8177
:10336000621B730B840B950B0E9494509B01AC0164
:10337000C301B2010E9497519B01AC01C501B40188
:103380000E94734F562F472F382F292F42CF9496E4
:103390008D909D90AD90BC9097975C962D913D91AE
:1033A0004D915C915F9729833A834B835C83589658
:1033B0002D913D914D915C915B972D833E834F8381
:1033C000588729813A814B815C81C501B4010E94F3
:1033D000724F69877A878B879C87C301B2012D81E1
:1033E0003E814F815885621B730B840B950B0E94A5
:1033F00094509B01AC0169857A858B859C850E94E0
:10340000E44F2B013C01C701B6012D813E814F8164
:103410005885621B730B840B950B0E9494509B0183
:10342000AC01C301B2010E9497519B01AC016981BB
:103430007A818B819C810E94734FF62E172F3C015D
:103440002CE53FE842E85FE3C501B4010E949751D3
:10345000B62EC72ED82EE92E262F372F482F592FBC
:103460006F2D712FC3010E94925118162CF05F2D01
:10347000412F362D272DCDCE5B2D4C2D3D2D2E2DC4
:10348000C8CE5481458136812781C3CE0895549A90
:10349000559808955C9808955C9A08950895089544
:1034A00089B185FB882780F991E0892708958530C7
:1034B000910540F4FC01EE0FFF1FE855FE4F85918A
:1034C00094910895E8EAF1E08591949108954F92DE
:1034D0005F926F927F928F929F92AF92BF92EF9284
:1034E000FF920F931F93CF93DF93EC018B01FC01AD
:1034F000619371937F01CB010E948E305C010E9429
:10350000B330A701B5010E94E045889709F466C071
:10351000F801EE0FFF1FEE0FFF1FE157FE4F8590E2
:103520009590A590B490C501B401905823E3422E24
:10353000542C23EF622E77247A944A825B826C8229
:103540007D826E837F838887998731EE432E3AE7A9
:10355000532E34EF632E77247A944A865B866C86EA
:103560007D8626E636E646E65FE30E9497516E8743
:103570007F87888B998B1A8A1B8A1C8A1D8A1E8AD0
:103580001F8A188E198E8FE195E8ABE0B0E08A8F24
:103590009B8FAC8FBD8F26E636E646E65FE3C5011E
:1035A000B4010E9497516E8F7F8F88A399A38DECF1
:1035B0009CECACE0B0E08AA39BA3ACA3BDA38EA21D
:1035C0009FA2A8A6B9A6888199810E948E305C012D
:1035D0000E94B330A701B5010E944A46AA96CE01C7
:1035E0000E941142F801ED55FE4F0491682F607F53
:1035F000602BCE01DF91CF911F910F91FF90EF9043
:10360000BF90AF909F908F907F906F905F904F9002
:103610000C94F3418091D902811186C01092A102CD
:103620001092A2021092A3021092A4021092A5027C
:103630001092A6021092A7021092A8021092A9025C
:103640001092AA021092AB021092AC021092AD023C
:103650001092AE021092AF021092B0021092B1021C
:103660001092B2021092B3021092B4021092B502FC
:103670001092B6021092B7021092B8021092B902DC
:103680001092BA021092BB021092BC021092BD02BC
:103690001092BE021092BF021092C0021092C1029C
:1036A0001092C2021092C3021092C4021092C5027C
:1036B0001092C6021092C7021092C80260E089EC14
:1036C00092E00E94F0418AEC92E00E946B4388ED08
:1036D00091E09093CB028093CA028AEC92E00E9420
:1036E000864360E170E08DEC92E00E94B04A89EC84
:1036F00092E00E948742682F607F89EC92E00E94EE
:10370000B34289EC92E00E943D42682F607F89ECD1
:1037100092E00E94694262E070E08FE992E00E94CC
:10372000671A81E08093D9028FE992E00895AF9201
:10373000BF92CF92DF92EF92FF920F931F93CF939E
:10374000DF93CDB7DEB727970FB6F894DEBF0FBE75
:10375000CDBF5C01613081E0780710F060E071E07E
:10376000CE0101960E94324B2B813C818D819E813E
:103770002817390709F452C08501055D1F4F16C08F
:103780000E9430446B017C0144275527BA014C1933
:103790005D096E097F09CE0101960E944C4B2B8179
:1037A0003C818D819E8128173907C1F10E94353AED
:1037B000FC01C080D1800D2C000CEE08FF087601C2
:1037C000DD24CC240E94353AFC0182819381092EAC
:1037D000000CAA0BBB0BBA2FA92F982F8827C82A39
:1037E000D92AEA2AFB2A0E94353AFC018481958174
:1037F000092E000CAA0BBB0BC82AD92AEA2AFB2ADD
:1038000060E0C801C114D104F3E0EF06F10408F050
:10381000B7CF0E943044AB01BC01BDCFCE010196B1
:103820000E946E4B0E9404520E945650AB01BC0194
:10383000C50102960E94BA166B017C01CE01019669
:103840000E94474BC701B60127960FB6F894DEBF1A
:103850000FBECDBFDF91CF911F910F91FF90EF90E1
:10386000DF90CF90BF90AF900895CF92DF92EF920C
:10387000FF920F931F93CF93DF93EC01E881F981BF
:10388000EE0FFF1FEE0FFF1FE157FE4FC590D590C3
:10389000E590F490C701B601905803E313E323EFDA
:1038A0003FEF0A831B832C833D836E837F8388874E
:1038B000998701EE1AE724EF3FEF0A871B872C87D1
:1038C0003D8726E636E646E65FE30E9497516E871F
:1038D0007F87888B998B1A8A1B8A1C8A1D8A1E8A6D
:1038E0001F8A188E198E8FE195E8ABE0B0E08A8FC1
:1038F0009B8FAC8FBD8F26E636E646E65FE3C701B9
:10390000B6010E9497516E8F7F8F88A399A38DEC8B
:103910009CECACE0B0E08AA39BA3ACA3BDA3CEA279
:10392000DFA2E8A6F9A6DF91CF911F910F91FF903A
:10393000EF90DF90CF9008954F925F926F927F92B9
:103940008F929F92AF92BF92CF92DF92EF92FF92AF
:103950000F931F93CF93DF93CDB7DEB72C970FB69E
:10396000F894DEBF0FBECDBF4C015B0129013A01C7
:1039700060E870E0CE0101960E94B04A8B859C857C
:10398000892B09F457C08401055D1F4F14C00E94A4
:1039900030446B017C0144275527BA014C195D095D
:1039A0006E097F09CE0101960E94CC4A8B859C85C9
:1039B000892B09F43FC00E94353AFC01C080D180B8
:1039C0000D2C000CEE08FF087601DD24CC240E94AB
:1039D000353AFC0182819381092E000CAA0BBB0BA6
:1039E000BA2FA92F982F8827C82AD92AEA2AFB2A72
:1039F0000E94353AFC0184819581092E000CAA0BA6
:103A0000BB0BC82AD92AEA2AFB2A60E0C801C114E4
:103A1000D104F3E0EF06F10408F0B9CF0E9430447E
:103A2000AB01BC01CE0101960E94CC4A8B859C85DE
:103A3000892B09F6CE0101960E94074B0E94045281
:103A4000BB24AA0CBB1CAA0CBB1CAA0CBB1C8A0C5A
:103A50009B1C0E945650F401628373838483958378
:103A600046825782608671862C960FB6F894DEBF28
:103A70000FBECDBFDF91CF911F910F91FF90EF90BF
:103A8000DF90CF90BF90AF909F908F907F906F907E
:103A90005F904F9008950F931F93CF93DF93EC01A6
:103AA000899199910E948E308C010E94B330AE01B1
:103AB000B801DF91CF911F910F910C944A46CF929C
:103AC000DF92EF92FF920F931F93CF93DF93EC015E
:103AD0000E94353AFC01C080D1800D2C000CEE080C
:103AE000FF087601DD24CC240E94353AFC01828156
:103AF0009381092E000CAA0BBB0BBA2FA92F982F6C
:103B00008827C82AD92AEA2AFB2A0E94353AFC01CA
:103B100084819581092E000CAA0BBB0BC82AD92AD7
:103B2000EA2AFB2A60E0CE018B96C114D104F3E0AF
:103B3000EF06F104B8F00E9430448B019C01442749
:103B40005527BA01401B510B620B730BCE018E96A9
:103B5000DF91CF911F910F91FF90EF90DF90CF9069
:103B60000C94CC4A0E943044AB01BC01EFCFCF9201
:103B7000DF92EF92FF920F931F93CF93DF938C010D
:103B8000EC01AE96CE010E94074B0E9404520E94A7
:103B90005650AB01BC01C80102960E94BA166B01D7
:103BA0007C01CE010E94BE4AC701B601DF91CF91D0
:103BB0001F910F91FF90EF90DF90CF9008955F9845
:103BC00008955F9A0895579A08958530910540F4B5
:103BD000FC01EE0FFF1FE553FE4F85919491089570
:103BE000EBECF1E08591949108958F929F92AF92C2
:103BF000BF92CF92DF92EF92FF920F931F93CF93DA
:103C0000DF93EC0181E08AA77E0184E2E80EF11CDB
:103C1000C7010E941142682F6F7EC7010E94F341C5
:103C20000C811D816E0186E0C80ED11CC8010E9466
:103C30006E305C010E94B330A601B5010E94E045E0
:103C40004E9709F44DC0F801EE0FFF1FEE0FFF1F56
:103C5000EE54FE4F85909590A590B490C501B401A7
:103C600090582BEB33EF3F832E83688779878A87C1
:103C70009B8725EF34EF3D872C8726E636E646E620
:103C80005FE30E9497516E877F87888B998B1B8A91
:103C90001A8A1C8A1D8A1E8A1F8A8BE09BE0998FD4
:103CA000888F26E636E646E65FE3C501B4010E944A
:103CB00097516A8F7B8F8C8F9D8F85E49CE09F8FBF
:103CC0008E8F88A299A2AAA2BBA28C819D810E94FC
:103CD0006E305C010E94B330A601B5010E944A46D5
:103CE000C7010E941142F801EA53FE4F0491682F68
:103CF000607F602BC7010E94F3418AA581110DC02E
:103D0000DF91CF911F910F91FF90EF90DF90CF90B7
:103D1000BF90AF909F908F900895488159816A819C
:103D20007B81C6010E94F1118C01BC01C6010E9479
:103D30009410688379838A839B83B8017058CE017D
:103D40008596DF91CF911F910F91FF90EF90DF90BB
:103D5000CF90BF90AF909F908F900C941943FC012F
:103D600012A608958F929F92AF92BF92CF92DF9248
:103D7000EF92FF920F931F93CF93DF93EC018B0190
:103D80007D836C837C0186E0E80EF11CCB010E94F0
:103D90006E306C010E94B330A701B6010E94E0456D
:103DA0004E9709F44DC0F801EE0FFF1FEE0FFF1FF5
:103DB000EE54FE4F85909590A590B490C501B40146
:103DC00090582BEB33EF3F832E83688779878A8760
:103DD0009B8725EF34EF3D872C8726E636E646E6BF
:103DE0005FE30E9497516E877F87888B998B1B8A30
:103DF0001A8A1C8A1D8A1E8A1F8A8BE09BE0998F73
:103E0000888F26E636E646E65FE3C501B4010E94E8
:103E100097516A8F7B8F8C8F9D8F85E49CE09F8F5D
:103E20008E8F88A299A2AAA2BBA28C819D810E949A
:103E30006E306C010E94B330A701B6010E944A4661
:103E40006E0184E2C80ED11CC6010E941142F80125
:103E5000EA53FE4F0491682F607F602BC6010E94D9
:103E6000F3418AA581110DC0DF91CF911F910F9170
:103E7000FF90EF90DF90CF90BF90AF909F908F908A
:103E80000895488159816A817B81C7010E94F1119F
:103E90008C01BC01C7010E949410688379838A83D6
:103EA0009B83B8017058CE018596DF91CF911F9109
:103EB0000F91FF90EF90DF90CF90BF90AF909F90C9
:103EC0008F900C941943CF92DF92EF92FF920F9351
:103ED0001F93CF93DF93EC01188219821A821B8201
:103EE00082E090E09D838C836E0186E0C80ED11C39
:103EF0001F821E82188619861A861B861D861C86BE
:103F00001E861F86188A198A1B8A1A8A1C8A1D8A8D
:103F10001E8A1F8A198E188E1A8E1B8E1C8E1D8E5D
:103F20001F8E1E8E18A219A21AA21BA28E010C5D52
:103F30001F4F60E0C8010E94F0417E0185E2E80E5B
:103F4000F11CC7010E94D4428AEE91E09EA38DA38A
:103F5000C7010E94F1421AA6C8010E948742682F39
:103F6000607CC8010E94B342C8010E943D42682F94
:103F7000607CC8010E94694262E070E0CE010E944C
:103F8000B21E40E050E0BA01C6010E94F1118C015E
:103F9000BC01C6010E949410688379838A839B8345
:103FA000B8017058C701DF91CF911F910F91FF9019
:103FB000EF90DF90CF900C94194380910C03811106
:103FC00007C081EE92E00E94631F81E080930C03A2
:103FD00081EE92E00895EF92FF920F931F93CF939B
:103FE000DF938C017C0186E0E80EF11CC7010E9482
:103FF000F111EC01BC01C7010E949410F80160832B
:10400000718382839383BE017058C8018596DF91C6
:10401000CF911F910F91FF90EF900C941943CF9285
:10402000DF92EF92FF92CF93DF93EC01EC81FD8161
:10403000EE0FFF1FEE0FFF1FEE54FE4FC590D59001
:10404000E590F490C701B60190582BEB33EF3F8316
:104050002E83688779878A879B8725EF34EF3D8792
:104060002C8726E636E646E65FE30E9497516E8788
:104070007F87888B998B1B8A1A8A1C8A1D8A1E8AC5
:104080001F8A8BE09BE0998F888F26E636E646E60E
:104090005FE3C701B6010E9497516A8F7B8F8C8FB7
:1040A0009D8F85E49CE09F8F8E8FC8A2D9A2EAA243
:1040B000FBA2DF91CF91FF90EF90DF90CF9008951A
:1040C0007727FB01EE0FFF1FE60FF71FEE0FFF1F15
:1040D000E80FF91F66817781705885960C94194313
:1040E0007727FB01EE0FFF1F6E0F7F1F660F771FF5
:1040F000860F971FFC0120873187428753870895D9
:104100000F931F93CF93DF93EC018C819D810E94CD
:104110006E308C010E94B330AE014A5F5F4FB80130
:10412000DF91CF911F910F910C944A46089521E0A1
:1041300030E0FC0130AF27ABBC01695C7F4F0C94D1
:10414000023B4430510508F4089528E030E0FC01BA
:1041500030AF27ABBC01695C7F4F0C94023B44300D
:10416000510508F408952EE030E0FC0130AF27AB94
:10417000BC01695C7F4F0C94023B4430510508F44C
:10418000089523E130E0FC0130AF27ABBC01695C4E
:104190007F4F0C94023B4430510508F4089528E108
:1041A00030E0FC0130AF27ABBC01695C7F4F0C9461
:1041B000023B4430510508F408952AE130E0FC0147
:1041C00030AF27ABBC01695C7F4F0C94023B44309D
:1041D000510508F408952BE130E0FC0130AF27AB26
:1041E000BC01695C7F4F0C94023B4430510508F4DC
:1041F00008952CE130E0FC0130AF27ABBC01695CD5
:104200007F4F0C94023B4430510508F408952DE192
:1042100030E0FC0130AF27ABBC01695C7F4F0C94F0
:10422000023B4430510508F4089521E230E0FC01DE
:1042300030AF27ABBC01695C7F4F0C94023B44302C
:10424000510508F4089522E230E0FC0130AF27ABBD
:10425000BC01695C7F4F0C94023B4430510508F46B
:10426000089526E230E0FC0130AF27ABBC01695C69
:104270007F4F0C94023B4430510508F4089528E226
:1042800030E0FC0130AF27ABBC01695C7F4F0C9480
:10429000023B4430510508F408952AE230E0FC0165
:1042A00030AF27ABBC01695C7F4F0C94023B0F938E
:1042B0001F93FB01A081B1812B2F3A2F2E323105A4
:1042C00040F5EB2FFA2FEE0FFF1FEE0FFF1FEB5203
:1042D000FE4F0591159125913491F80120FF12C0F0
:1042E000F901F595E795DC01AE0FBF1FED91FC914B
:1042F0001197E00FF11F0190F081E02DCD011F918A
:104300000F91099435952795820F931F1F910F9157
:1043100009941F910F9108954830510508F40895AC
:10432000DB011596EC9115971496FC91E230F1059E
:1043300080F0E7EBF2E02591349143E050E0FC019E
:1043400050AF47AB32AF21AFBC01695C7F4F0C94DB
:10435000023BEE0FFF1FE954FD4FEDCF48305105F2
:1043600008F40895DB011596EC9115971496FC91CD
:10437000E530F10590F4EE0FFF1FE355FD4F259159
:10438000349144E050E0FC0150AF47AB32AF21AF75
:10439000BC01695C7F4F0C94023BEDEAF2E0EFCF89
:1043A0004830510578F0FB012481358145E050E02B
:1043B000FC0150AF47AB31AF22AFBC01695C7F4F0E
:1043C0000C94023B08954830510578F0FB0124819C
:1043D000358146E050E0FC0150AF47AB31AF22AF32
:1043E000BC01695C7F4F0C94023B08954830510535
:1043F00008F40895DB011596EC9115971496FC913D
:10440000E230F10580F0E9EAF2E0259134914AE0EA
:1044100050E0FC0150AF47AB32AF21AFBC01695C4B
:104420007F4F0C94023BEE0FFF1FE755FD4FEDCF82
:104430004830510578F0FB01248135814BE050E094
:10444000FC0150AF47AB31AF22AFBC01695C7F4F7D
:104450000C94023B08954830510578F0FB0124810B
:1044600035814CE050E0FC0150AF47AB31AF22AF9B
:10447000BC01695C7F4F0C94023B089548305105A4
:1044800008F40895DB011596EC9115971496FC91AC
:10449000E530F10590F4EE0FFF1FE156FD4F259139
:1044A000349140E150E0FC0150AF47AB32AF21AF57
:1044B000BC01695C7F4F0C94023BEFE9F2E0EFCF67
:1044C0004830510578F0FB012481358141E150E00D
:1044D000FC0150AF47AB31AF22AFBC01695C7F4FED
:1044E0000C94023B08954830510578F0FB0124817B
:1044F000358144E150E0FC0150AF47AB31AF22AF12
:10450000BC01695C7F4F0C94023B08954830510513
:1045100008F40895DB011596EC9115971496FC911B
:10452000E630F10590F4EE0FFF1FED56FD4F25919B
:10453000349145E150E0FC0150AF47AB32AF21AFC1
:10454000BC01695C7F4F0C94023BE3E9F2E0EFCFE2
:104550004830510578F0FB012481358146E150E077
:10456000FC0150AF47AB31AF22AFBC01695C7F4F5C
:104570000C94023B08954830510578F0FB012481EA
:10458000358149E150E0FC0150AF47AB31AF22AF7C
:10459000BC01695C7F4F0C94023B08954830510583
:1045A00078F0FB01248135814EE150E0FC0150AFF1
:1045B00047AB31AF22AFBC01695C7F4F0C94023B2B
:1045C00008954830510508F40895E1E9F2E0259195
:1045D000349143E250E0FC0150AF47AB32AF21AF22
:1045E000BC01695C7F4F0C94023B4830510578F068
:1045F000FB012481358144E250E0FC0150AF47AB20
:1046000031AF22AFBC01695C7F4F0C94023B08952F
:104610004830510578F0FB012481358147E250E0B4
:10462000FC0150AF47AB31AF22AFBC01695C7F4F9B
:104630000C94023B08954830510508F40895DB01BD
:104640001596EC9115971496FC91E230F10580F0E7
:10465000EDE8F2E02591349149E250E0FC0150AFE1
:1046600047AB32AF21AFBC01695C7F4F0C94023B7A
:10467000EE0FFF1FE357FD4FEDCFFB014830510513
:1046800090F0248135814681578162E070E0FC0121
:1046900070AF67AB51AF42AF33AF24AFBC01695CC1
:1046A0007F4F0C94023B0895FB0148305105A0F068
:1046B00047815681658174812BE230E0FC0130AF87
:1046C00027AB6627772741AF52AF63AF74AFBC010A
:1046D000695C7F4F0C94023B0895FB014830510503
:1046E00090F024813581468157816CE270E0FC01B5
:1046F00070AF67AB51AF42AF33AF24AFBC01695C61
:104700007F4F0C94023B0895FB014C305105D0F0D3
:1047100044815581B385A2853185208567E070E0AD
:10472000FC0170AF67AB51AF42AF4B2F5A2F632FD5
:10473000722F43AF54AF65AF76AFBC01695C7F4F5A
:104740000C94023B0895FB0148305105B0F0B7814D
:10475000A6813581248149E050E0FC0150AF47AB90
:104760004B2F5A2F632F722F41AF52AF63AF74AFED
:10477000BC01695C7F4F0C94023B0895FB014C30F7
:104780005105D0F044815581B385A28531852085BE
:104790006DE070E0FC0170AF67AB51AF42AF4B2FE3
:1047A0005A2F632F722F43AF54AF65AF76AFBC0162
:1047B000695C7F4F0C94023B0895FB014830510522
:1047C000B0F0B781A681358124814FE050E0FC0133
:1047D00050AF47AB4B2F5A2F632F722F41AF52AFC1
:1047E00063AF74AFBC01695C7F4F0C94023B0895CA
:1047F000FB014C305105D0F044815581B385A28531
:104800003185208562E170E0FC0170AF67AB51AF8C
:1048100042AF4B2F5A2F632F722F43AF54AF65AF68
:1048200076AFBC01695C7F4F0C94023B0895FB019D
:104830004C305105D0F044815581B385A285318536
:10484000208567E170E0FC0170AF67AB51AF42AF0C
:104850004B2F5A2F632F722F43AF54AF65AF76AFF4
:10486000BC01695C7F4F0C94023B0895FB014C3006
:104870005105D0F044815581B385A28531852085CD
:1048800065E270E0FC0170AF67AB51AF42AF4B2FF8
:104890005A2F632F722F43AF54AF65AF76AFBC0171
:1048A000695C7F4F0C94023B08954830510578F0C5
:1048B000FB01248135814FE150E0FC0150AF47AB53
:1048C00031AF22AFBC01695C7F4F0C94023B08956D
:1048D000FB014830510590F0448155812681378194
:1048E00060E270E0FC0170AF67AB51AF42AF33AF35
:1048F00024AFBC01695C7F4F0C94023B08954630A5
:10490000510578F0FB01248135814DE250E0FC0136
:1049100050AF47AB31AF22AFBC01695C7F4F0C9405
:10492000023B0895AF92BF92CF92DF92EF92FF9237
:104930000F931F93CF93DF937C010E94AB470E949C
:104940006B485C010E94A147EC01892B59F4DF916F
:10495000CF911F910F91FF90EF90DF90CF90BF907C
:10496000AF900895670186E0C80ED11C85015701FC
:10497000EEE0AE0EB11C05C0C6010E943641219783
:1049800031F3F80161918F01C6010E944A41F7019C
:1049900090A99923A1F3408551854430510560F3D6
:1049A000B501C7010E945721E7CF8530910540F43A
:1049B000FC01EE0FFF1FE355FD4F85919491089583
:1049C000EDEAF2E08591949108958230910528F006
:1049D000E9EAF2E0859194910895FC01EE0FFF1F42
:1049E000E755FD4F8591949108958530910540F4E8
:1049F000FC01EE0FFF1FE156FD4F85919491089544
:104A0000EFE9F2E08591949108958630910540F4A4
:104A1000FC01EE0FFF1FED56FD4F85919491089517
:104A2000E3E9F2E0859194910895E1E9F2E085915E
:104A3000949108958230910528F0EDE8F2E0859197
:104A400094910895FC01EE0FFF1FE357FD4F8591F0
:104A50009491089580915303811119C084E193E0EA
:104A60000E94E23A84EF91E090931503809314033F
:104A70008AE193E00E9422410E94AB4740E855E260
:104A800060E070E00E94114881E08093530384E16C
:104A900093E00895CF93DF9300D000D0CDB7DEB779
:104AA00049835A836B837C830E94AB4749815A8137
:104AB0006B817C810F900F900F900F90DF91CF91C1
:104AC0000C94F047CF93DF9300D000D0CDB7DEB782
:104AD00049835A836B837C830E94AB4749815A8107
:104AE0006B817C810F900F900F900F90DF91CF9191
:104AF0000C9411488F929F92AF92BF92CF92DF9207
:104B0000EF92FF920F931F93CF93DF9300D000D0CB
:104B1000CDB7DEB75B0106966C016CE270E02983CD
:104B20003A834B835C830E9411414C01FC01108647
:104B300081E08187138612865C8154A74B8145A74B
:104B40003A8136A7298127A710AB01ABF2AAE3AAC5
:104B5000C4010C9620E2FC0111922A95E9F7B501F7
:104B60000E94AE54C4010E94F240F40105811481F8
:104B70000E94AB47A801485F5F4FB4010E94A6485E
:104B8000B401C6010F900F900F900F90DF91CF915D
:104B90001F910F91FF90EF90DF90CF90BF90AF905B
:104BA0009F908F900C942141EF92FF920F931F934F
:104BB000CF93DF9306967C0164E070E00E94114180
:104BC000EC01188619861B861A860E94F2400D8118
:104BD0001C810E94AB47A801485F5F4FBE010E9445
:104BE000A648BE01C701DF91CF911F910F91FF90A1
:104BF000EF900C942141CF92DF92EF92FF920F93AE
:104C00001F93CF93DF9300D0CDB7DEB7162F072FBA
:104C100006967C0168E070E049835A830E94114146
:104C20006C01FC01108682E081871386128604875E
:104C300015875A81568749814787C6010E94F240ED
:104C4000F601058114810E94AB47A801485F5F4FC0
:104C5000B6010E94A648B601C7010F900F90DF91E0
:104C6000CF911F910F91FF90EF90DF90CF900C9418
:104C70002141EF92FF920F931F93CF93DF93162F53
:104C8000072F06967C0168E070E00E941141EC015C
:104C9000188683E089871B861A860C871D871F86E6
:104CA0001E86CE010E94F2400D811C810E94AB47FE
:104CB000A801485F5F4FBE010E94A648BE01C70120
:104CC000DF91CF911F910F91FF90EF900C942141B4
:104CD000EF92FF920F931F93CF93DF93162F072F1F
:104CE00006967C0168E070E00E941141EC01188694
:104CF00084E089871B861A860C871D871F861E867F
:104D0000CE010E94F2400D811C810E94AB47A80198
:104D1000485F5F4FBE010E94A648BE01C701DF91F8
:104D2000CF911F910F91FF90EF900C942141AF9282
:104D3000BF92CF92DF92EF92FF920F931F93CF9388
:104D4000DF9300D000D0CDB7DEB7D62EC72E0696A3
:104D50007C016CE070E02B833C8349835A830E9482
:104D600011415C01FC01108685E081871386128663
:104D7000C486D5865A815687498147873C812B81D5
:104D8000C801432F522F692F702FF501408B518B93
:104D9000628B738BC5010E94F240F501058114817D
:104DA0000E94AB47A801485F5F4FB5010E94A6482B
:104DB000B501C7010F900F900F900F90DF91CF9129
:104DC0001F910F91FF90EF90DF90CF90BF90AF9029
:104DD0000C942141AF92BF92CF92DF92EF92FF925B
:104DE0000F931F93CF93DF9300D000D0CDB7DEB7E2
:104DF000D62EC72E06967C016CE070E02B833C8398
:104E000049835A830E9411415C01FC01108686E0AF
:104E1000818713861286C486D5865A815687498132
:104E200047873C812B81C801432F522F692F702F58
:104E3000F501408B518B628B738BC5010E94F24050
:104E4000F501058114810E94AB47A801485F5F4FBF
:104E5000B5010E94A648B501C7010F900F900F90B1
:104E60000F90DF91CF911F910F91FF90EF90DF9006
:104E7000CF90BF90AF900C942141AF92BF92CF9250
:104E8000DF92EF92FF920F931F93CF93DF9300D0A7
:104E900000D0CDB7DEB7D62EC72E06967C016CE0CB
:104EA00070E02B833C8349835A830E9411415C014B
:104EB000FC01108687E0818713861286C486D5861A
:104EC0005A815687498147873C812B81C801432FEE
:104ED000522F692F702FF501408B518B628B738B92
:104EE000C5010E94F240F501058114810E94AB4783
:104EF000A801485F5F4FB5010E94A648B501C701F0
:104F00000F900F900F900F90DF91CF911F910F9105
:104F1000FF90EF90DF90CF90BF90AF900C94214125
:104F2000EF92FF920F931F93CF93DF9306967C012E
:104F300064E070E00E941141EC01188688E08987E6
:104F40001B861A86CE010E94F2400D811C810E94B0
:104F5000AB47A801485F5F4FBE010E94A648BE0153
:104F6000C701DF91CF911F910F91FF90EF900C94AB
:104F70002141CF92DF92EF92FF920F931F93CF9335
:104F8000DF9300D0CDB7DEB7162F072F06967C0132
:104F900068E070E049835A830E9411416C01FC0172
:104FA000108689E08187138612865A81952F498160
:104FB000842F402F512F692F782F4487558766877C
:104FC0007787C6010E94F240F601058114810E9494
:104FD000AB47A801485F5F4FB6010E94A648B601E3
:104FE000C7010F900F90DF91CF911F910F91FF900C
:104FF000EF90DF90CF900C942141EF92FF920F93AE
:105000001F93CF93DF93162F072F06967C0168E03E
:1050100070E00E941141EC0118868AE089871B86A6
:105020001A860C871D871F861E86CE010E94F240BD
:105030000D811C810E94AB47A801485F5F4FBE01F4
:105040000E94A648BE01C701DF91CF911F910F9129
:10505000FF90EF900C942141AF92BF92CF92DF92DC
:10506000EF92FF920F931F93CF93DF9300D000D066
:10507000CDB7DEB7D62EC72E06967C016CE070E069
:105080002B833C8349835A830E9411415C01FC01BC
:1050900010868BE0818713861286C486D5865A8156
:1050A0005687498147873C812B81C801432F522F66
:1050B000692F702FF501408B518B628B738BC5016B
:1050C0000E94F240F501058114810E94AB47A801BE
:1050D000485F5F4FB5010E94A648B501C7010F9018
:1050E0000F900F900F90DF91CF911F910F91FF9034
:1050F000EF90DF90CF90BF90AF900C942141AF9292
:10510000BF92CF92DF92EF92FF920F931F93CF93B4
:10511000DF9300D000D0CDB7DEB7D62EC72E0696CF
:105120007C016CE070E02B833C8349835A830E94AE
:1051300011415C01FC0110868CE081871386128688
:10514000C486D5865A815687498147873C812B8101
:10515000C801432F522F692F702FF501408B518BBF
:10516000628B738BC5010E94F240F50105811481A9
:105170000E94AB47A801485F5F4FB5010E94A64857
:10518000B501C7010F900F900F900F90DF91CF9155
:105190001F910F91FF90EF90DF90CF90BF90AF9055
:1051A0000C942141AF92BF92CF92DF92EF92FF9287
:1051B0000F931F93CF93DF9300D000D0CDB7DEB70E
:1051C000D62EC72E06967C016CE070E02B833C83C4
:1051D00049835A830E9411415C01FC0110868DE0D5
:1051E000818713861286C486D5865A81568749815F
:1051F00047873C812B81C801432F522F692F702F85
:10520000F501408B518B628B738BC5010E94F2407C
:10521000F501058114810E94AB47A801485F5F4FEB
:10522000B5010E94A648B501C7010F900F900F90DD
:105230000F90DF91CF911F910F91FF90EF90DF9032
:10524000CF90BF90AF900C942141EF92FF920F93BB
:105250001F93CF93DF9306967C0164E070E00E9479
:105260001141EC0118868EE089871B861A86CE01D3
:105270000E94F2400D811C810E94AB47A801485F4B
:105280005F4FBE010E94A648BE01C701DF91CF91CA
:105290001F910F91FF90EF900C942141CF92DF92DC
:1052A000EF92FF920F931F93CF93DF9300D0CDB770
:1052B000DEB7162F072F06967C0168E070E0498361
:1052C0005A830E9411416C01FC0110868FE0818796
:1052D000138612865A81952F4981842F402F512F92
:1052E000692F782F4487558766877787C6010E9484
:1052F000F240F601058114810E94AB47A801485F86
:105300005F4FB6010E94A648B601C7010F900F90EB
:10531000DF91CF911F910F91FF90EF90DF90CF9091
:105320000C942141EF92FF920F931F93CF93DF9341
:10533000162F072F06967C0168E070E00E9411414D
:10534000EC01188680E189871B861A860C871D87E9
:105350001F861E86CE010E94F2400D811C810E9494
:10536000AB47A801485F5F4FBE010E94A648BE013F
:10537000C701DF91CF911F910F91FF90EF900C9497
:1053800021418F929F92AF92BF92CF92DF92EF9284
:10539000FF920F931F93CF93DF9300D000D0CDB730
:1053A000DEB7B62EA72E06966C0160E170E0298369
:1053B0003A834B835C830E9411414C01FC011086AF
:1053C00081E1818713861286A486B58617861686A4
:1053D0005C81508B4B81418B3A81328B2981238BAD
:1053E0009801C701432F502F692F7E2D448B558B79
:1053F000668B778BC4010E94F240F4010581148111
:105400000E94AB47A801485F5F4FB4010E94A648C5
:10541000B401C6010F900F900F900F90DF91CF91C4
:105420001F910F91FF90EF90DF90CF90BF90AF90C2
:105430009F908F900C9421418F929F92AF92BF9238
:10544000CF92DF92EF92FF920F931F93CF93DF9350
:1054500000D000D0CDB7DEB7B62EA72E06966C01D1
:1054600060E170E029833A834B835C830E941141A1
:105470004C01FC01108682E1818713861286A48686
:10548000B586178616865C81508B4B81418B3A819D
:10549000328B2981238B9801C701432F502F692F0D
:1054A0007E2D448B558B668B778BC4010E94F24016
:1054B000F401058114810E94AB47A801485F5F4F4A
:1054C000B4010E94A648B401C6010F900F900F903E
:1054D0000F90DF91CF911F910F91FF90EF90DF9090
:1054E000CF90BF90AF909F908F900C942141EF92FE
:1054F000FF920F931F93CF93DF9306967C0164E096
:1055000070E00E941141EC01188683E189871B86B7
:105510001A86CE010E94F2400D811C810E94AB4789
:10552000A801485F5F4FBE010E94A648BE01C701A7
:10553000DF91CF911F910F91FF90EF900C9421413B
:10554000CF92DF92EF92FF920F931F93CF93DF934F
:1055500000D0CDB7DEB7162F072F06967C0168E086
:1055600070E049835A830E9411416C01FC0110864E
:1055700084E18187138612865A81952F4981842F71
:10558000402F512F692F782F44875587668777875B
:10559000C6010E94F240F601058114810E94AB47CA
:1055A000A801485F5F4FB6010E94A648B601C70137
:1055B0000F900F90DF91CF911F910F91FF90EF907F
:1055C000DF90CF900C942141EF92FF920F931F93A5
:1055D000CF93DF93162F072F06967C0168E070E0CB
:1055E0000E941141EC01188685E189871B861A8685
:1055F0000C871D871F861E86CE010E94F2400D81FA
:105600001C810E94AB47A801485F5F4FBE010E940A
:10561000A648BE01C701DF91CF911F910F91FF9066
:10562000EF900C9421418F929F92AF92BF92CF92B4
:10563000DF92EF92FF920F931F93CF93DF9300D0EF
:1056400000D0CDB7DEB7B62EA72E06966C0160E16E
:1056500070E029833A834B835C830E9411414C01A3
:10566000FC01108686E1818713861286A486B586A2
:10567000178616865C81508B4B81418B3A81328B29
:105680002981238B9801C701432F502F692F7E2D2D
:10569000448B558B668B778BC4010E94F240F401DA
:1056A000058114810E94AB47A801485F5F4FB40198
:1056B0000E94A648B401C6010F900F900F900F9062
:1056C000DF91CF911F910F91FF90EF90DF90CF90DE
:1056D000BF90AF909F908F900C9421418F929F929A
:1056E000AF92BF92CF92DF92EF92FF920F931F93F0
:1056F000CF93DF9300D000D0CDB7DEB7B62EA72E64
:1057000006966C0160E170E029833A834B835C83E9
:105710000E9411414C01FC01108687E181871386AC
:105720001286A486B586178616865C81508B4B81BF
:10573000418B3A81328B2981238B9801C701432FFA
:10574000502F692F7E2D448B558B668B778BC40130
:105750000E94F240F401058114810E94AB47A80128
:10576000485F5F4FB4010E94A648B401C6010F9084
:105770000F900F900F90DF91CF911F910F91FF909D
:10578000EF90DF90CF90BF90AF909F908F900C9450
:105790002141EF92FF920F931F93CF93DF930696D1
:1057A0007C0164E070E00E941141EC01188688E100
:1057B00089871B861A86CE010E94F2400D811C81CA
:1057C0000E94AB47A801485F5F4FBE010E94A648F8
:1057D000BE01C701DF91CF911F910F91FF90EF9014
:1057E0000C942141CF92DF92EF92FF920F931F937F
:1057F000CF93DF9300D0CDB7DEB7162F072F0696D5
:105800007C0168E070E049835A830E9411416C0179
:10581000FC01108689E18187138612865A81952FB3
:105820004981842F402F512F692F782F4487558726
:1058300066877787C6010E94F240F60105811481D0
:105840000E94AB47A801485F5F4FB6010E94A6487F
:10585000B601C7010F900F90DF91CF911F910F916B
:10586000FF90EF90DF90CF900C942141EF92FF9248
:105870000F931F93CF93DF9306967C0164E070E053
:105880000E941141EC0118868AE189871B861A86DD
:10589000CE010E94F2400D811C810E94AB47A801FD
:1058A000485F5F4FBE010E94A648BE01C701DF915D
:1058B000CF911F910F91FF90EF900C942141EF92A7
:1058C000FF920F931F93CF93DF9306967C0164E0C2
:1058D00070E00E941141EC0118868BE189871B86DC
:1058E0001A86CE010E94F2400D811C810E94AB47B6
:1058F000A801485F5F4FBE010E94A648BE01C701D4
:10590000DF91CF911F910F91FF90EF900C94214167
:10591000EF92FF920F931F93CF93DF9306967C0134
:1059200064E070E00E941141EC0118868CE18987E7
:105930001B861A86CE010E94F2400D811C810E94B6
:10594000AB47A801485F5F4FBE010E94A648BE0159
:10595000C701DF91CF911F910F91FF90EF900C94B1
:105960002141EF92FF920F931F93CF93DF930696FF
:105970007C0164E070E00E941141EC0118868DE129
:1059800089871B861A86CE010E94F2400D811C81F8
:105990000E94AB47A801485F5F4FBE010E94A64826
:1059A000BE01C701DF91CF911F910F91FF90EF9042
:1059B0000C942141CF92DF92EF92FF920F931F93AD
:1059C000CF93DF9300D0CDB7DEB7162F072F069603
:1059D0007C0168E070E049835A830E9411416C01A8
:1059E000FC0110868EE18187138612865A81952FDD
:1059F0004981842F402F512F692F782F4487558755
:105A000066877787C6010E94F240F60105811481FE
:105A10000E94AB47A801485F5F4FB6010E94A648AD
:105A2000B601C7010F900F90DF91CF911F910F9199
:105A3000FF90EF90DF90CF900C942141CF92DF92B6
:105A4000EF92FF920F931F93CF93DF9300D0CDB7C8
:105A5000DEB7162F072F06967C0168E070E04983B9
:105A60005A830E9411416C01FC0110868FE18187ED
:105A700013861286048715875A815687498147877E
:105A8000C6010E94F240F601058114810E94AB47D5
:105A9000A801485F5F4FB6010E94A648B601C70142
:105AA0000F900F90DF91CF911F910F91FF90EF908A
:105AB000DF90CF900C942141CF92DF92EF92FF9232
:105AC0000F931F93CF93DF9300D0CDB7DEB7162F80
:105AD000072F06967C0168E070E049835A830E9494
