:100000000C94B6020C94DE020C94DE020C94DE0218
:100010000C94DE020C94DE020C94DE020C94DE02E0
:100020000C94DE020C94DE020C94DE020C94DE02D0
:100030000C94DE020C94DE020C94DE020C94DE02C0
:100040000C9471470C94DE020C94DE020C94DE02D8
:100050000C9446480C94DE020C94DE020C94DE02F2
:100060000C94DE020C94DE020C94DE020C94DE0290
:10007000C70100007A4406C70100007A4405C701A1
:1000800000007A4404D4010000803F06D40100003F
:10009000803F05D4010000803F04DE010024744944
:1000A00005DE010024744904ED0100007A4406EDE8
:1000B0000100007A4405ED0100007A4404E00200EA
:1000C00000E102000046090000FB0900003A0300BD
:1000D00000A8030000DA030000110400000E0D0068
:1000E000006004000090040000AC040000DE040086
:1000F0000015050000980D00006405000071030064
:100100000094050000D8050000530D0000970A0078
:10011000002C060000480600008C060000C90C00F8
:1001200000880B0000E0060000E8060000F0060072
:1001300000F80600008C090000000700003A0700E4
:10014000008D070000950700000809000001080065
:100150000061080000790C0000CB0800004E080088
:10016000009D070000B9070000D8070000CA07007B
:10017000002F0A0000D0070000D4070000462F77A8
:10018000206465762000492D5620536F7572636593
:10019000204D6574657200ACC5273717B7D1386F2D
:1001A00012833A0AD7233CCDCCCC3D08040201008F
:1001B00000000100020003000400ACC5273717B798
:1001C000D1386F12833A0AD7233CCDCCCC3D0804FA
:1001D00002010000000100020003000400EF200003
:1001E00000F0200000D32300000F22000031220085
:1001F00000532200006622000003240000FA2000C1
:100200000022240000792200009B220000AE220080
:10021000003D240000082100005C240000C12200F1
:1002200000E32200007724000016210000F62200DF
:1002300000092300002B2300009624000024210045
:10024000003E23000032210000402100004E21002A
:10025000005C21000051230000D4240000E72400AA
:10026000006A210000782100006423000078230048
:1002700000B5240000862100008B2300009421009B
:10028000009E230000A2210000EA230000B021000C
:1002900000C0230000BE210000CC210000000001AE
:1002A000000000000001000200030004000500003F
:1002B0000001000200030004000000010000000132
:1002C00000020003000400000001001E001E001ECA
:1002D000001E001E001E001E002800280028002806
:1002E00000280028002800280028002800280020D6
:1002F00000280013000C000D000E000F001000116C
:10030000000700080009000A000B000500060000B5
:100310000001000200030004006F12833A0AD72391
:100320003CCDCCCC3D0000803F000020410000C807
:100330004208040201003000000100000001000238
:100340000003000400050000002041000000002020
:10035000410000C842002000000100030003000229
:10036000000AD7233C0300030003000AD7233C0301
:1003700000030004000AD7233C0200020004006FBF
:1003800012833A01000100040017B7D138010001BF
:10039000000400ACC52737010001000400BD37860A
:1003A000350300030002000AD7233CCDCCCC3D032B
:1003B00000030003000AD7233C0000803F03000332
:1003C0000004000AD7233C00002041020002000480
:1003D000006F12833A000020410100010004001761
:1003E000B7D13800002041010001000400ACC5274E
:1003F0003700002041010001000400BD37863500B0
:100400000020410000010002000300040005000676
:100410000080C0AA400000AB400000B1400000B71F
:1004200040000000FFFFFFFF000100FF0020001060
:1004300000080004000102039049000097490000F1
:10044000B6490000424A0000D5490000624A000057
:10045000DC490000E3490000EA490000024A0000CC
:10046000094A00002D4A00006E616E00696E660048
:1004700000407A10F35A00A0724E18090010A5D45B
:10048000E80000E87648170000E40B54020000CAB8
:100490009A3B000000E1F5050000809698000000FE
:1004A00040420F000000A08601000000102700005D
:1004B0000000E803000000006400000000000A00E3
:1004C000000000000100000000002C76D888DC67E6
:1004D0004F0823DFC1DFAE59E1B1B796E5E3E4533E
:1004E000C63AE651997696E8E6C28426EB898C9B5B
:1004F00062ED407C6FFCEFBC9C9F40F2BAA56FA5FB
:10050000F490055A2AF75C936B6CF9676DC11BFC7C
:10051000E0E40D47FEF520E6B500D0ED902E030097
:10052000943577050080841E080000204E0A0000E4
:1005300000C80C333333330F986E12831141EF8DA3
:100540002114893BE65516CFFEE6DB18D1844B38E3
:100550001BF77C1D901DA4BBE424203284725E2214
:100560008100C9F124ECA1E53D27DC3B11241FBE2D
:10057000CFEFD0E1DEBFCDBF12E0A0E0B1E0E6E911
:10058000FCEA02C005900D92A437B107D9F725E027
:10059000A4E7B2E001C01D92A636B207E1F712E06F
:1005A000C6EBD2E004C02197FE010E946153C53B17
:1005B000D107C9F70E94D4100C9449560C9400003E
:1005C0000895CF92DF92EF92FF920F931F93CF93F4
:1005D000DF9300D000D0CDB7DEB70E94053BFC0111
:1005E000C080D1800D2C000CEE08FF087601DD24C0
:1005F000CC240E94053BFC0182819381092E000CD2
:10060000AA0BBB0BBA2FA92F982F8827C82AD92A43
:10061000EA2AFB2A0E94053BFC0124813581C9019D
:10062000330FAA0BBB0BA7019601282B392B4A2BA2
:100630005B2B29833A834B835C830E9496251DEFB5
:10064000E12EFF24FA940FEF1FEF29813A814B81AD
:100650005C8168E171E00E94EE250F900F900F9091
:100660000F90DF91CF911F910F91FF90EF90DF904E
:10067000CF9008950F931F93CF93DF93EB018A815F
:100680009B810E94B01A8C010E94631BB8010E94DA
:10069000C01A0E94631BFC01808191810E94612528
:1006A0008C010E949625B8010E94062A8A819B81AE
:1006B0000E943E1EEC010E943620BE010E940B1FCC
:1006C0000E943620FC01848195810E944125EC0125
:1006D0000E949625BE01DF91CF911F910F910C943E
:1006E000DC260F931F93CF93DF93EB018A819B81CD
:1006F0000E943E1E8C010E943620B8010E940B1FF2
:100700000E943620FC01848195810E9441258C0144
:100710000E949625B8010E94DC268A819B810E9456
:10072000B01AEC010E94631BBE010E94C01A0E9415
:10073000631BFC01808191810E946125EC010E9474
:100740009625BE01DF91CF911F910F910C94062A3F
:100750008F929F92AF92BF92EF92FF920F931F934F
:10076000CF93DF93FB01C281D3810E943620DD2726
:10077000FE01EE0FFF1FEC0FFD1FEE0FFF1FE80F36
:10078000F91F80849184A284B384E680F7800E945C
:10079000962595018401A701BE010E940B27DF91D8
:1007A000CF911F910F91FF90EF90BF90AF909F90CE
:1007B0008F9008958F929F92AF92BF92EF92FF9287
:1007C0000F931F93CF93DF93FB01C281D381DD276A
:1007D0000E943620BE010E94B9200E943620FE01F0
:1007E000EE0FFF1FEC0FFD1FEE0FFF1FE80FF91FAD
:1007F00080849184A284B384E680F7800E94962549
:1008000095018401A701BE010E945E27DF91CF916F
:100810001F910F91FF90EF90BF90AF909F908F909E
:1008200008958F929F92AF92BF92CF92DF92EF92F4
:10083000FF920F931F93CF93DF9300D000D0CDB7DB
:10084000DEB7FB012481358146815781C280D38088
:10085000DD2429833A834B835C830E9436202981DF
:100860003A814B815C81B6010E94C9200E943620EA
:10087000F601EE0FFF1FEC0DFD1DEE0FFF1FE80F41
:10088000F91F80849184A284B384E680F7800E945B
:10089000962595018401A701B6010E94B1270F900A
:1008A0000F900F900F90DF91CF911F910F91FF90BC
:1008B000EF90DF90CF90BF90AF909F908F90089572
:1008C000CF93DF9300D000D0CDB7DEB7FB014281DC
:1008D00053816481758149835A836B837C830E9431
:1008E000362049815A816B817C810E9444200E947C
:1008F0003620FC01408151816281738149835A8392
:100900006B837C830E94962549815A816B817C810F
:100910000F900F900F900F90DF91CF910C942D2896
:10092000CF93DF93FB01828193810E942437EC01F6
:100930000E945038BE010E9437370E945038FC0197
:10094000848195810E945125EC010E949625BE016B
:10095000DF91CF910C9471288F929F92AF92BF92AA
:10096000EF92FF920F931F93CF93DF93FB01C2810E
:10097000D3810E945038DD27FE01EE0FFF1FEC0FE0
:10098000FD1FEE0FFF1FE80FF91F80849184A284E2
:10099000B384E680F7800E94962595018401A70123
:1009A000BE010E94A028DF91CF911F910F91FF906F
:1009B000EF90BF90AF909F908F9008958F929F92ED
:1009C000AF92BF92EF92FF920F931F93CF93DF935B
:1009D000FB01C281D381DD270E945038BE010E94F5
:1009E0000C390E945038FE01EE0FFF1FEC0FFD1F67
:1009F000EE0FFF1FE80FF91F80849184A284B38457
:100A0000E680F7800E94962595018401A701BE012A
:100A10000E94F328DF91CF911F910F91FF90EF90EB
:100A2000BF90AF909F908F9008958F929F92AF92BA
:100A3000BF92CF92DF92EF92FF920F931F93CF93CB
:100A4000DF9300D000D0CDB7DEB7FB012481358124
:100A500046815781C280D380DD2429833A834B832A
:100A60005C830E94503829813A814B815C81B601B8
:100A70000E941C390E945038F601EE0FFF1FEC0D4A
:100A8000FD1DEE0FFF1FE80FF91F80849184A284E3
:100A9000B384E680F7800E94962595018401A70122
:100AA000B6010E9446290F900F900F900F90DF9192
:100AB000CF911F910F91FF90EF90DF90CF90BF905B
:100AC000AF909F908F900895CF93DF9300D000D088
:100AD000CDB7DEB7FB0142815381648175814983C3
:100AE0005A836B837C830E94503849815A816B8181
:100AF0007C810E9497380E945038FC0140815181CE
:100B00006281738149835A836B837C830E9496251B
:100B100049815A816B817C810F900F900F900F90CB
:100B2000DF91CF910C94C229AF92BF92CF92DF9206
:100B3000EF92FF920F931F93CF93DF9300D000D0DB
:100B4000CDB7DEB7FB01E280F3800E94631B570143
:100B5000BB24F501EE0FFF1FEE0FFF1FEE0FFF1F6F
:100B6000E80FF91FC680D780E084F18422813381A9
:100B70004481558129833A834B835C830E94962567
:100B80008701760129813A814B815C81B5010E9400
:100B9000352A0F900F900F900F90DF91CF911F91FA
:100BA0000F91FF90EF90DF90CF90BF90AF9008959E
:100BB000AF92BF92CF92DF92EF92FF920F931F936B
:100BC000CF93DF9300D000D0CDB7DEB7FB012481F7
:100BD000358146815781A280B380BB2429833A8323
:100BE0004B835C830E94631B29813A814B815C812A
:100BF000B5010E94F51C0E94631BF501EE0FFF1F5B
:100C0000EE0FFF1FEE0FFF1FE80FF91FC680D78002
:100C1000E084F184228133814481558129833A83A0
:100C20004B835C830E9496258701760129813A8156
:100C30004B815C81B5010E94902A0F900F900F901C
:100C40000F90DF91CF911F910F91FF90EF90DF9068
:100C5000CF90BF90AF900895CF93DF93FB01828137
:100C600093810E94A531EC010E94F632BE010E94E0
:100C7000C5310E94F632FC01808191810E9471256C
:100C8000EC010E949625BE01DF91CF910C94582B68
:100C9000AF92BF92CF92DF92EF92FF920F931F938A
:100CA000CF93DF9300D000D0CDB7DEB7FB01E28059
:100CB000F3800E94F6325701BB24F501EE0FFF1FAF
:100CC000EE0FFF1FEE0FFF1FE80FF91FC680D78042
:100CD000E084F184228133814481558129833A83E0
:100CE0004B835C830E9496258701760129813A8196
:100CF0004B815C81B5010E94872B0F900F900F9064
:100D00000F90DF91CF911F910F91FF90EF90DF90A7
:100D1000CF90BF90AF900895AF92BF92CF92DF92E5
:100D2000EF92FF920F931F93CF93DF9300D000D0E9
:100D3000CDB7DEB7FB012481358146815781A28082
:100D4000B380BB2429833A834B835C830E94F632B1
:100D500029813A814B815C81B5010E94C6330E9492
:100D6000F632F501EE0FFF1FEE0FFF1FEE0FFF1F14
:100D7000E80FF91FC680D780E084F1842281338197
:100D80004481558129833A834B835C830E94962555
:100D90008701760129813A814B815C81B5010E94EE
:100DA000E22B0F900F900F900F90DF91CF911F913A
:100DB0000F91FF90EF90DF90CF90BF90AF9008958C
:100DC0000E9436200E9468200E9496250C94AA2C2E
:100DD0000E9450380E94BB380E9496250C94D32C58
:100DE0000E94631B0E948E1C0E9496250C94FC2C72
:100DF0000E94F6320E945F330E9496250C94252DA6
:100E0000CF93DF93FB01828193818130910521F1A2
:100E10008230910599F0892B19F0DF91CF910895D7
:100E20000E94053BFC01C081D1810E949625AE0144
:100E300060E070E0DF91CF910C94922D0E94053B11
:100E4000FC01C481D5810E949625AE0162E070E06C
:100E5000DF91CF910C94922D0E94053BFC01C28141
:100E6000D3810E949625AE0161E070E0DF91CF91C1
:100E70000C94922DCF93DF93FB0182819381C481E7
:100E8000D58181309105B1F18230910501F1009752
:100E900059F08130910599F182309105E9F0892B63
:100EA00041F0DF91CF9108950E94053BFC01D18371
:100EB000C0830E94053BFC01C081D1810E94962520
:100EC000AE0160E070E0DF91CF910C94D02D0E94D4
:100ED000053BFC01D583C4830E94053BFC01C48112
:100EE000D5810E949625AE0162E070E0DF91CF913E
:100EF0000C94D02D0E94053BFC01D383C2830E9439
:100F0000053BFC01C281D3810E949625AE0161E0C0
:100F100070E0DF91CF910C94D02D0E94053B0E9490
:100F20005F3B0E9496250C940E2E0E94053B0E946A
:100F30006B3B0E9496250C94372ECF93DF93FB01D9
:100F4000828193810E94B531EC010E94F632BE018C
:100F50000E946F340E94F632FC0183AD94AD0E9472
:100F60008625EC010E949625BE01DF91CF910C945D
:100F7000DB2FCF93DF930E94F632FC0183AD94AD5B
:100F80000E948625EC010E949625BE01DF91CF913B
:100F90000C940A300E94962561E070E00C94773042
:100FA0000E9496250C94EC300E9496250C941531E5
:100FB000CF92DF92EF92FF92FB01C280D380E48058
:100FC000F5800E949625B701A6010E94B6258111E1
:100FD00008C00E949625FF90EF90DF90CF900C9470
:100FE00048260E949625B701A6010E9439300E942A
:100FF0009625B701A601FF90EF90DF90CF900C945B
:10100000CE25AF92BF92CF92DF92EF92FF920F93D5
:101010001F93CF93DF9300D000D0CDB7DEB7FB0195
:10102000E280F3808091B902811107C084E892E0E8
:101030000E94B03481E08093B9025701BB24F501CE
:10104000EE0FFF1FEE0FFF1FEE0FFF1FEC57FD4FC0
:10105000C184D284E384F48425813681478150851C
:1010600029833A834B835C830E949625870176010E
:1010700029813A814B815C81B5010E948F2E0F90AE
:101080000F900F900F90DF91CF911F910F91FF90D4
:10109000EF90DF90CF90BF90AF9008958091B9020C
:1010A000811107C084E892E00E94B03481E080930F
:1010B000B90284E892E00E947B360E9496250C9447
:1010C000B22FAF92BF92CF92DF92EF92FF920F9327
:1010D0001F93CF93DF9300D000D0CDB7DEB7FB01D5
:1010E0002481358146815781A280B380BB248091C1
:1010F000B902882309F43FC0B50184E892E00E9458
:101100000E368091B902811107C084E892E00E94F6
:10111000B03481E08093B902F501EE0FFF1FEE0FAE
:10112000FF1FEE0FFF1FEC57FD4FC184D284E384F5
:10113000F484258136814781508529833A834B8306
:101140005C830E9496258701760129813A814B8133
:101150005C81B5010E94EA2E0F900F900F900F90C6
:10116000DF91CF911F910F91FF90EF90DF90CF9083
:10117000BF90AF90089584E892E029833A834B832F
:101180005C830E94B03481E08093B9025C814B8122
:101190003A812981B1CF0F931F93CF93DF9300D072
:1011A00000D0CDB7DEB78B010E9442390E945A3978
:1011B000F801628173818091B90281110BC084E8CA
:1011C00092E06B837C830E94B03481E08093B9020B
:1011D0007C816B8184E892E00E94E236AB01BC0125
:1011E00049835A836B837C830E94962549815A8167
:1011F0006B817C810E946E2F0E9442390F900F906C
:101200000F900F90DF91CF911F910F910C945C394B
:101210000F931F93CF93DF9300D0CDB7DEB7FB01C1
:10122000828193810E94AB34BC018091B9028823F2
:1012300009F184E892E00E947B358091B902811126
:1012400007C084E892E00E94B03481E08093B90244
:1012500080918702909188020E9481258C010E94D2
:101260009625B8010F900F90DF91CF911F910F91AC
:101270000C94602E84E892E069837A830E94B034F3
:1012800081E08093B9027A816981D3CF8F929F9256
:10129000AF92BF92CF92DF92EF92FF920F931F9384
:1012A000CF93DF93EC01FB0182809380A480B58013
:1012B00081E08B870E9496470E94B8476B017C01B2
:1012C0000E9496478C01C501B4010E9462512FE62D
:1012D00032E143E85AE30E946752AB01BC01C80106
:1012E0000E94C447C60ED71EE81EF91ECC86DD86B6
:1012F000EE86FF860E949625B501A401DF91CF916D
:101300001F910F91FF90EF90DF90CF90BF90AF9023
:101310009F908F900C946F260F931F93CF93DF9322
:1013200000D000D0CDB7DEB78B010E9450380E94AC
:1013300034370E9442390E9458390E9436200E9458
:101340004E1E0E9442390E945239F80102811381D7
:101350000E945E39B8010E94B63AAB01BC014983D4
:101360005A836B837C830E94962549815A816B81C5
:101370007C810F900F900F900F90DF91CF911F9174
:101380000F910C944E2DCF92DF92EF92FF92DB01E2
:10139000ED91FC91E033F10548F5EE0FFF1FEE0FE4
:1013A000FF1FE354FF4FC590D590E590F490F601F0
:1013B000970135952795E0FE12C0DC01A20FB31FFF
:1013C0002D913C911197F901EC0DFD1D0190F081DB
:1013D000E02DCD01FF90EF90DF90CF900994820F28
:1013E000931FFF90EF90DF90CF900994FF90EF90C4
:1013F000DF90CF900895FB01828193810097C9F01F
:101400000197B1F40E9436200E94081F0E944239C1
:101410000E9454390E9450380E945E380E9442391E
:101420000E9456390E94962561E070E00C94AD262A
:1014300008950E9450380E9434370E9442390E9419
:1014400058390E9436200E944E1E0E9442390E9446
:1014500052390E94962560E070E00C94AD26CF9240
:10146000DF92EF92FF920F931F93CF93DF9300D001
:1014700000D0CDB7DEB78C01FB01E280F38081E0C4
:1014800090E0A0E0B0E089839A83AB83BC830E94A4
:101490009625AE014F5F5F4FB7010E94A63081E0F5
:1014A000F80186830E9496470E94B8476B017C0131
:1014B0000E94964740E050E060E070E40E94C4471C
:1014C000C60ED71EE81EF91EF801C782D086E18637
:1014D000F2860E94E13B40E060E00E94C53C0E9431
:1014E000E13B63E271E00E94F43C0E94E13B40E09A
:1014F00061E00E94C53C0E94E13B64E371E00E9410
:10150000F43CFFEF2FE18CE1F15020408040E1F707
:1015100000C000000F900F900F900F90DF91CF91BF
:101520001F910F91FF90EF90DF90CF9008958F92D1
:101530009F92AF92BF92CF92DF92EF92FF920F9362
:101540001F93CF93DF93CDB7DEB72B970FB6F894E9
:10155000DEBF0FBECDBF8C017B010E9442390E94CD
:101560005A39F701E280F3800E94631BB7010E94A1
:10157000F01B4B015C010E949625B501A4010E945D
:10158000142B81E0F80186830E9496470E94B84799
:101590006B017C010E94964740E050E060E070E4FF
:1015A0000E94C447C60ED71EE81EF91EF801C78266
:1015B000D086E186F2860E94F6320E94631BFC010F
:1015C000E080F1800E94E13B0E94E93CFC0196E052
:1015D000DE01119601900D929A95E1F70E94E13B90
:1015E00040E060E00E94C53C8701000F111F000F22
:1015F000111F000F111F0E191F09F801E656FF4FAA
:10160000E590F49082E00E945E408B8781E00E942A
:101610005E408A87F801E456FF4F25913591459148
:101620005491C501B4010E9467524B015C01F8015D
:10163000E056FF4F84910E945F40898789E00E94B5
:101640005E40888784E00E945E408F830E94E13B79
:1016500067E170E40E94CD3FBE01695F7F4F0E9449
:10166000604065E471E00E94F43C6BE370E40E942A
:10167000CD3F6FEC7FE30E94CD3F63EF7FE30E949D
:10168000CD3FBE01685F7F4F0E946040BE01675F33
:101690007F4F0E948540B501A4010E94B33EBE0168
:1016A000665F7F4F0E9460406BE671E00E94F43CF1
:1016B00067E170E40E94CD3FBE01655F7F4F0E94ED
:1016C0006040B7010E94F43C0E94E13B40E061E0D1
:1016D0000E94C53C0E94E13BBE016F5F7F4F0E94AC
:1016E000EB3C0E9442390E945C392B960FB6F8946D
:1016F000DEBF0FBECDBFDF91CF911F910F91FF9045
:10170000EF90DF90CF90BF90AF909F908F90089513
:101710008F929F92AF92BF92CF92DF92EF92FF9201
:101720000F931F93CF93DF93CDB7DEB72B970FB6F1
:10173000F894DEBF0FBECDBF8C017B010E94423901
:101740000E945A39F701E280F3800E94F632B70115
:101750000E9404334B015C010E949625B501A4014F
:101760000E94662C81E0F80186830E9496470E94C1
:10177000B8476B017C010E94964740E050E060E072
:1017800070E40E94C447C60ED71EE81EF91EF80179
:10179000C782D086E186F2860E94F632FC01E080A4
:1017A000F1800E94631B0E94E13B0E94E93CFC0126
:1017B00096E0DE01119601900D929A95E1F70E9454
:1017C000E13B40E060E00E94C53C0E94E13B40E01C
:1017D00061E00E94C53C8701000F111F000F111F1F
:1017E000000F111F0E191F09F801E059FF4FE59076
:1017F000F49082E00E945E408B8781E00E945E4010
:101800008A87F801EE58FF4F259135914591549103
:10181000C501B4010E9467524B015C01F801EA580E
:10182000FF4F84910E945F40898789E00E945E405B
:10183000888784E00E945E408F830E94E13B67E1DD
:1018400070E40E94CD3FBE01695F7F4F0E946040FF
:1018500068E471E00E94F43C6BE370E40E94CD3FC9
:101860006FEC7FE30E94CD3F63EF7FE30E94CD3FAB
:10187000BE01685F7F4F0E946040BE01675F7F4F7F
:101880000E948540B501A4010E94B33EBE01665F7F
:101890007F4F0E9460406BE671E00E94F43C67E17C
:1018A00070E40E94CD3FBE01655F7F4F0E946040A3
:1018B000B7010E94F43C0E94E13BBE016F5F7F4F85
:1018C0000E94EB3C0E9442390E945C392B960FB675
:1018D000F894DEBF0FBECDBFDF91CF911F910F9166
:1018E000FF90EF90DF90CF90BF90AF909F908F9040
:1018F0000895CF92DF92EF92FF92CF93DF93EC01A6
:101900008091B902811107C084E892E00E94B0344E
:1019100081E08093B90284E892E00E9465360E94DB
:1019200096250E94452F81E08E830E9496470E9453
:10193000B8476B017C010E94964740E050E060E0B0
:1019400070E40E94C447C60ED71EE81EF91ECF825F
:10195000D886E986FA860E94E13B40E060E00E947A
:10196000C53C0E94E13B6BE471E00E94F43C0E94A4
:10197000E13B40E061E00E94C53C0E94E13B6CE538
:1019800071E0DF91CF91FF90EF90DF90CF900C94BA
:10199000F43CCF92DF92EF92FF92CF93DF93EC0172
:1019A0000E94F6320E9424340E9496250E943D2C0B
:1019B00081E08E830E9496470E94B8476B017C01AC
:1019C0000E94964740E050E060E070E40E94C44707
:1019D000C60ED71EE81EF91ECF82D886E986FA8683
:1019E0000E94E13B40E060E00E94C53C0E94E13B78
:1019F0006BE471E00E94F43C0E94E13B40E061E056
:101A00000E94C53C0E94E13B6CE571E0DF91CF9103
:101A1000FF90EF90DF90CF900C94F43CCF92DF9248
:101A2000EF92FF92CF93DF93EC010E9436200E9449
:101A3000D9200E9496250E94042881E08E830E946E
:101A400096470E94B8476B017C010E94964740E090
:101A500050E060E070E40E94C447C60ED71EE81E46
:101A6000F91ECF82D886E986FA860E94E13B40E0E3
:101A700060E00E94C53C0E94E13B6BE471E00E9483
:101A8000F43C0E94E13B40E061E00E94C53C0E94C2
:101A9000E13B6CE571E0DF91CF91FF90EF90DF903B
:101AA000CF900C94F43CCF92DF92EF92FF92CF93C1
:101AB000DF93EC010E94631B0E94A41D0E949625E7
:101AC0000E94EB2A81E08E830E9496470E94B847CD
:101AD0006B017C010E94964740E050E060E070E4BA
:101AE0000E94C447C60ED71EE81EF91ECF82D886B4
:101AF000E986FA860E94E13B40E060E00E94C53C36
:101B00000E94E13B6BE471E00E94F43C0E94E13BE7
:101B100040E061E00E94C53C0E94E13B6CE571E061
:101B2000DF91CF91FF90EF90DF90CF900C94F43C39
:101B3000CF92DF92EF92FF92CF93DF93EC010E945E
:101B400050380E942C390E9496250E94992981E0E4
:101B50008E830E9496470E94B8476B017C010E94C9
:101B6000964740E050E060E070E40E94C447C60E33
:101B7000D71EE81EF91ECF82D886E986FA860E9413
:101B8000E13B40E060E00E94C53C0E94E13B6BE429
:101B900071E00E94F43C0E94E13B40E061E00E9461
:101BA000C53C0E94E13B6CE571E0DF91CF91FF9075
:101BB000EF90DF90CF900C94F43C0F931F93CF9352
:101BC000DF93CDB7DEB7AB970FB6F894DEBF0FBE8D
:101BD000CDBF0E94E13B0E94E93CFC0196E0DE01A2
:101BE000919601900D929A95E1F70E94E13B40E0B9
:101BF00060E00E94C53C66E871E0CE0101960E945B
:101C00006C558C010E94E13BB8010E94F43C0E949B
:101C1000E13B40E061E00E94C53C82E00E945E4002
:101C20008FA381E00E945E4088A782E00E945E4010
:101C300089A781E00E945E408AA782E00E945E4000
:101C40008BA76DE771E0CE0101960E946C558C0167
:101C50000E94E13BB8010E94F43CBE01655D7F4FEC
:101C60000E94604063EF7FE30E94CD3F4FEF50E062
:101C700060E070E00E94BE3DBE01665D7F4F0E9445
:101C800060406DE671E00E94F43CBE01675D7F4FED
:101C90000E94604063EF7FE30E94CD3F4FEF50E032
:101CA00060E070E00E94BE3DBE01685D7F4F0E9413
:101CB00060406DE671E00E94F43CBE01695D7F4FBB
:101CC0000E94604063EF7FE30E94CD3F4DEF50E004
:101CD00060E070E00E94BE3D0E94E13BBE016F5D8E
:101CE0007F4F0E94EB3CAB960FB6F894DEBF0FBE61
:101CF000CDBFDF91CF911F910F910895CF92DF92C9
:101D0000EF92FF92CF93DF93EC010E94B23B84EFFE
:101D100091E0998388831E821F82188619861A860D
:101D20001B861C861D861E861F860E94E13B0E9424
:101D300036200E9450380E94631B0E94F632809128
:101D4000B902811107C084E892E00E94B03481E0BA
:101D50008093B9020E945E390E9496250E94362027
:101D60000E944E1E0E9442390E9452390E945038F1
:101D700040E050E0BA010E9497380E94F63260E0DD
:101D800070E00E946F340E949625AE0163EC79E00A
:101D90000E94CC3BCE010E94DD0D789481E08E83C1
:101DA0000E9496470E94B8476B017C010E949647AB
:101DB00040E050E060E070E40E94C447C60ED71EC9
:101DC000E81EF91ECF82D886E986FA86DF91CF9188
:101DD000FF90EF90DF90CF9008952F923F924F9217
:101DE0005F926F927F928F929F92AF92BF92CF92AB
:101DF000DF92EF92FF920F931F93CF93DF93CDB7B4
:101E0000DEB72B970FB6F894DEBF0FBECDBFF62E10
:101E100029013A010E94E13B0E94E93CFC0196E065
:101E2000DE01119601900D929A95E1F70E94E13B37
:101E300040E060E00E94C53CF11099C00E94E13B87
:101E400040E061E00E94C53CEE2009F470C08401CE
:101E5000000F111F000F111F000F111F0819190982
:101E6000F801E059FF4FE590F49082E00E945E4057
:101E70008F8381E00E945E408887F801EE58FF4F13
:101E80002591359145915491C601B5010E94675243
:101E90004B015C01F801EA58FF4F84910E945F40BA
:101EA000898789E00E945E408A8784E00E945E40C4
:101EB0008B870E94E13B67E170E40E94CD3FBE0149
:101EC000655F7F4F0E94604068E471E00E94F43CCF
:101ED0006BE370E40E94CD3F6FEC7FE30E94CD3F47
:101EE00063EF7FE30E94CD3FBE01665F7F4F0E949C
:101EF0006040BE01675F7F4F0E948540B501A4012D
:101F00000E94B33EBE01685F7F4F0E9460406BE657
:101F100071E00E94F43C67E170E40E94CD3FBE0195
:101F2000695F7F4F0E946040B7010E94F43C0E94AD
:101F3000E13BBE016F5F7F4F0E94EB3C2B960FB6DB
:101F4000F894DEBF0FBECDBFDF91CF911F910F91EF
:101F5000FF90EF90DF90CF90BF90AF909F908F90C9
:101F60007F906F905F904F903F902F900895F80171
:101F7000EE0FFF1FEE0FFF1FEE0FFF1FCF01801BA5
:101F8000910B8C01FC01E656FF4F2590349082E0C6
:101F90000E945E408F8381E00E945E408887F80146
:101FA000E456FF4F2591359145915491C301B201FB
:101FB0000E9467522B013C01F801E056FF4F8491CB
:101FC0000E945F40898789E00E945E408A8784E0A2
:101FD0000E945E408B870E94E13B67E170E40E94B3
:101FE000CD3FBE01655F7F4F0E94604065E471E0B8
:101FF0000E94F43C6BE370E40E94CD3F6FEC7FE302
:102000000E94CD3F63EF7FE30E94CD3FBE01665F3C
:102010007F4F0E946040BE01675F7F4F0E948540F6
:10202000B301A2010E94B33EBE01685F7F4F0E94D0
:1020300060406BE671E00E94F43C67E170E40E944E
:10204000CD3FBE01695F7F4F0E946040B1010E9499
:10205000F43CF4CE2F923F924F925F926F927F9218
:102060008F929F92AF92BF92CF92DF92EF920F9397
:102070001F93CF93DF9300D000D0CDB7DEB71C0104
:10208000FC018385811125C00E94631B0E94B81D3D
:102090000E94F6320E9438340E94631BFC0180AD1E
:1020A00091AD892B59F10F900F900F900F90DF9108
:1020B000CF911F910F91EF90DF90CF90BF90AF9095
:1020C0009F908F907F906F905F904F903F902F9058
:1020D00008950E9496470E94B847F101048515852E
:1020E00026853785601771078207930768F2F1012B
:1020F00013860E9496250E94E625C6CF0E94F632DE
:10210000FC0180AD91AD892B71F60E94631B0E948A
:10211000101E9B01AC0169833A834B835C830E9450
:10212000F6320E9447345B016C01F10186812981FE
:102130003A814B815C81811119C029833A834B8399
:102140005C830E94F632FC01808091800E94631BB8
:10215000FC0100811181EE24E39429813A814B81B5
:102160005C8161E0C1010E94ED0E9DCF29833A831D
:102170004B835C830E9496470E94B847F1014780D9
:1021800050846184728429813A814B815C81641519
:1021900075058605970518F0F1011682CECFF1017D
:1021A0008681811180CFC9CF2FEF8FE398E3215033
:1021B00080409040E1F700C000008091B1028111A1
:1021C00007C084E792E00E947E0E81E08093B10216
:1021D0000E94913B80E090E008952F923F924F92B1
:1021E0005F926F927F928F929F92AF92BF92CF92A7
:1021F000DF92EF92FF920F931F93CF93DF938C01A7
:10220000EB01FC01E080F1806E157F050CF065C0EC
:1022100082809380A480B580A5019401608571853A
:10222000828593850E9442502B013C01F801668112
:1022300077816E197F09072E000C880B990B0E947D
:1022400064519B01AC01C301B2010E94B4502B0147
:102250003C01CE19DF09BE01DD0F880B990B0E94EE
:1022600064519B01AC01C301B2010E9467529B0102
:10227000AC01C501B4010E9443508B01D82FC92F76
:102280002CE53FE842E85FE3C501B4010E946752D4
:102290006B017C019B01AC01B8018D2F9C2F0E942A
:1022A000AF5087FDEDC0502F412F9E01652F742F39
:1022B000832F922FDF91CF911F910F91FF90EF907D
:1022C000DF90CF90BF90AF909F908F907F906F9056
:1022D0005F904F903F902F900895FC01208C318C9F
:1022E000261637060CF47EC0A4E0B0E00DC04C17F3
:1022F0005D070CF0CAC09C01CB01BF2DAC01421B95
:10230000530B42305105FCF02B2F30E06A2F70E068
:10231000C901860F971F95958795F82EFC01EE0F42
:10232000FF1FE80FF91FEE0FFF1FE00FF11F4081A5
:102330005181C417D507DCF6A82FAC01421B530B03
:10234000423051050CF7F901EE0FFF1FE20FF31FAA
:10235000EE0FFF1FE00FF11F82809380A480B580F5
:10236000E080F1809C01220F331F820F931F880FA2
:10237000991F080F191FA5019401F801628173814B
:10238000848195810E9442502B013C01F8016081BB
:1023900071816E197F09072E000C880B990B0E9422
:1023A00064519B01AC01C301B2010E94B4502B01E6
:1023B0003C01CE19DF09BE01DD0F880B990B0E948D
:1023C00064519B01AC01C301B2010E9467529B01A1
:1023D000AC01C501B4010E944350562F472F382F3E
:1023E000292F64CFC28CD38CE48CF58C848895889B
:1023F000A688B78802891389A5019401C701B6018F
:102400000E9442502B013C01B101601B710B072E51
:10241000000C880B990B0E9464519B01AC01C30115
:10242000B2010E94B4502B013C01C01BD10BBE0174
:10243000DD0F880B990B0E9464519B01AC01C30115
:10244000B2010E9467529B01AC01C501B4010E9418
:1024500043508B01D82FC92F2CE53FE842E85FE3BA
:10246000C701B6010E9467526B017C019B01AC0160
:10247000B8018D2F9C2F0E94625218160CF013CFBA
:102480005C2D4D2D3E2D2F2D11CF52814381348156
:1024900025810CCF2F923F924F925F926F927F9245
:1024A0008F929F92AF92BF92CF92DF92EF92FF9264
:1024B0000F931F93CF93DF93CDB7DEB728970FB657
:1024C000F894DEBF0FBECDBF8C016A017B01FC0119
:1024D00082809380A480B5809A01AB01C501B401CC
:1024E0000E946252F80118160CF079C06080718069
:1024F000B301072C000C880B990B0E94645169836F
:102500007A838B839C83F8016681778166197709CA
:10251000072E000C880B990B0E9464512B013C0183
:10252000A5019401F80160857185828593850E94DB
:1025300042509B01AC01C301B2010E94B4502B0177
:102540003C01A5019401C701B6010E9442509B01C4
:10255000AC01C301B2010E94675229813A814B81CB
:102560005C810E9443508B015C012CE53FE842E80E
:102570005FE369817A818B819C810E9467526B0144
:102580007C019B01AC01B801C5010E94AF5087FDE1
:1025900023C1502F412F3A2D2B2D652F742F832FC0
:1025A000922F0E94D4520E942651CB0128960FB63A
:1025B000F894DEBF0FBECDBFDF91CF911F910F9179
:1025C000FF90EF90DF90CF90BF90AF909F908F9053
:1025D0007F906F905F904F903F902F900895828CE6
:1025E000938CA48CB58CA7019601C501B4010E94FF
:1025F000AF5087FD94C0F4E0F9831D8211C0A7019C
:102600009601C301B2010E94AF5087FFEAC04501A5
:102610005101FE81FD83C50188199909029754F182
:102620002D81822E912C3981232E312C5401A20C24
:10263000B31CB594A794AE82C501880F991F8A0D6B
:102640009B1D880F991FFC01E00FF11FF887EF8396
:102650004280538064807580A7019601C301B20156
:102660000E94625218165CF6A982C5018819990960
:102670000297B4F6F401EE0FFF1FE80DF91DEE0FFF
:10268000FF1FE00FF11F2080318042805380648063
:102690007580C501880F991F8A0D9B1D880F991F92
:1026A000080F191FF8016081718162197309072EE3
:1026B000000C880B990B0E9464514B015C01A30133
:1026C0009201F80162817381848195810E94425058
:1026D0009B01AC01C501B4010E94B4504B015C01E7
:1026E000A3019201C701B6010E9442509B01AC01B7
:1026F000C501B4010E9467526B017C01B101330C2A
:10270000880B990B0E9464519B01AC01C701B60173
:102710000E944350562F472F382F292F3ECFF801C4
:10272000208C318C2289338938872F8344885588BF
:1027300066887788B101621B730B072E000C880B2B
:10274000990B0E94645169837A838B839C83A301D4
:102750009201C501B4010E9442509B01AC01698104
:102760007A818B819C810E94B4504B015C01A30152
:102770009201C701B6010E9442509B01AC01C50104
:10278000B4010E9467526B017C01EF81F885BF01A3
:10279000FF0F880B990B0E9464519B01AC01C7018C
:1027A000B6010E9443508B015C01B101330C880BD0
:1027B000990B0E9464512CE53FE842E85FE30E94D8
:1027C00067526B017C019B01AC01B801C5010E94FD
:1027D000625218160CF0DDCE5C2D4D2D3E2D2F2DA6
:1027E000DCCEEF81F88560817181072E000C880BAB
:1027F000990B0E946451562F472F382F292FCDCE89
:102800002F923F924F925F926F927F928F929F9200
:10281000AF92BF92CF92DF92EF92FF920F931F93EE
:10282000CF93DF938C01EB01FC01E080F1806E150A
:102830007F050CF065C082809380A480B580A501DF
:10284000940160857185828593850E9442502B0199
:102850003C01F801668177816E197F09072E000C13
:10286000880B990B0E9464519B01AC01C301B2011A
:102870000E94B4502B013C01CE19DF09BE01DD0FCF
:10288000880B990B0E9464519B01AC01C301B201FA
:102890000E9467529B01AC01C501B4010E944350E4
:1028A0008B01D82FC92F2CE53FE842E85FE3C50133
:1028B000B4010E9467526B017C019B01AC01B8011D
:1028C0008D2F9C2F0E94AF5087FDEDC0502F412FC0
:1028D0009E01652F742F832F922FDF91CF911F912F
:1028E0000F91FF90EF90DF90CF90BF90AF909F90AF
:1028F0008F907F906F905F904F903F902F900895B2
:10290000FC01208C318C261637060CF47EC0A4E026
:10291000B0E00DC04C175D070CF0CAC09C01CB01A4
:10292000BF2DAC01421B530B42305105FCF02B2F45
:1029300030E06A2F70E0C901860F971F9595879543
:10294000F82EFC01EE0FFF1FE80FF91FEE0FFF1F1F
:10295000E00FF11F40815181C417D507DCF6A82F85
:10296000AC01421B530B423051050CF7F901EE0F3D
:10297000FF1FE20FF31FEE0FFF1FE00FF11F82801A
:102980009380A480B580E080F1809C01220F331FEA
:10299000820F931F880F991F080F191FA50194011B
:1029A000F80162817381848195810E9442502B01DC
:1029B0003C01F801608171816E197F09072E000CBE
:1029C000880B990B0E9464519B01AC01C301B201B9
:1029D0000E94B4502B013C01CE19DF09BE01DD0F6E
:1029E000880B990B0E9464519B01AC01C301B20199
:1029F0000E9467529B01AC01C501B4010E94435083
:102A0000562F472F382F292F64CFC28CD38CE48CBC
:102A1000F58C84889588A688B78802891389A501D2
:102A20009401C701B6010E9442502B013C01B10143
:102A3000601B710B072E000C880B990B0E946451D0
:102A40009B01AC01C301B2010E94B4502B013C01B7
:102A5000C01BD10BBE01DD0F880B990B0E94645186
:102A60009B01AC01C301B2010E9467529B01AC0102
:102A7000C501B4010E9443508B01D82FC92F2CE50A
:102A80003FE842E85FE3C701B6010E9467526B016D
:102A90007C019B01AC01B8018D2F9C2F0E946252DA
:102AA00018160CF013CF5C2D4D2D3E2D2F2D11CF70
:102AB00052814381348125810CCF2F923F924F92D6
:102AC0005F926F927F928F929F92AF92BF92CF92BE
:102AD000DF92EF92FF920F931F93CF93DF93CDB7C7
:102AE000DEB728970FB6F894DEBF0FBECDBF8C01BE
:102AF0006A017B01FC0182809380A480B5809A01E9
:102B0000AB01C501B4010E946252F80118160CF025
:102B100079C060807180B301072C000C880B990B81
:102B20000E94645169837A838B839C83F801668158
:102B3000778166197709072E000C880B990B0E9484
:102B400064512B013C01A5019401F8016085718558
:102B5000828593850E9442509B01AC01C301B20162
:102B60000E94B4502B013C01A5019401C701B6019C
:102B70000E9442509B01AC01C301B2010E94675206
:102B800029813A814B815C810E9443508B015C0119
:102B90002CE53FE842E85FE369817A818B819C8183
:102BA0000E9467526B017C019B01AC01B801C50119
:102BB0000E94AF5087FD23C1502F412F3A2D2B2D5E
:102BC000652F742F832F922F0E94D4520E9426517A
:102BD000CB0128960FB6F894DEBF0FBECDBFDF91B4
:102BE000CF911F910F91FF90EF90DF90CF90BF900A
:102BF000AF909F908F907F906F905F904F903F909D
:102C00002F900895828C938CA48CB58CA70196018B
:102C1000C501B4010E94AF5087FD94C0F4E0F98370
:102C20001D8211C0A7019601C301B2010E94AF50DD
:102C300087FFEAC045015101FE81FD83C501881966
:102C40009909029754F12D81822E912C3981232EDE
:102C5000312C5401A20CB31CB594A794AE82C501CB
:102C6000880F991F8A0D9B1D880F991FFC01E00F8B
:102C7000F11FF887EF834280538064807580A7013D
:102C80009601C301B2010E94625218165CF6A98235
:102C9000C501881999090297B4F6F401EE0FFF1FD8
:102CA000E80DF91DEE0FFF1FE00FF11F20803180AE
:102CB0004280538064807580C501880F991F8A0DFA
:102CC0009B1D880F991F080F191FF80160817181E2
:102CD00062197309072E000C880B990B0E9464512E
:102CE0004B015C01A3019201F8016281738184812F
:102CF00095810E9442509B01AC01C501B4010E9424
:102D0000B4504B015C01A3019201C701B6010E94BE
:102D100042509B01AC01C501B4010E9467526B0196
:102D20007C01B101330C880B990B0E9464519B010B
:102D3000AC01C701B6010E944350562F472F382FD0
:102D4000292F3ECFF801208C318C22893389388796
:102D50002F834488558866887788B101621B730B7E
:102D6000072E000C880B990B0E94645169837A83AB
:102D70008B839C83A3019201C501B4010E94425040
:102D80009B01AC0169817A818B819C810E94B45046
:102D90004B015C01A3019201C701B6010E944250A0
:102DA0009B01AC01C501B4010E9467526B017C011B
:102DB000EF81F885BF01FF0F880B990B0E946451CA
:102DC0009B01AC01C701B6010E9443508B015C011D
:102DD000B101330C880B990B0E9464512CE53FE83C
:102DE00042E85FE30E9467526B017C019B01AC01EA
:102DF000B801C5010E94625218160CF0DDCE5C2DA0
:102E00004D2D3E2D2F2DDCCEEF81F8856081718117
:102E1000072E000C880B990B0E946451562F472FE8
:102E2000382F292FCDCE2F923F924F925F926F92E3
:102E30007F928F929F92AF92BF92CF92DF92EF924A
:102E4000FF921F93CF93DF93CDB7DEB72C970FB6CA
:102E5000F894DEBF0FBECDBF1C016A017B01DC010F
:102E60008D909D90AD90BC901397481559056A05BB
:102E70007B050CF07DC014962D913D914D915C9198
:102E8000179729833A834B835C831C966D917D91C0
:102E90008D919C911F970E9442502B013C01F101A2
:102EA00080859185A285B385BC01CD01681979091A
:102EB0008A099B090E9464519B01AC01C301B201C4
:102EC0000E94B4502B013C01C701B6016819790971
:102ED0008A099B090E9464519B01AC01C301B201A4
:102EE0000E9467529B01AC0169817A818B819C8130
:102EF0000E944350F62E172F982EA92E2CE53FE85E
:102F000042E85FE369817A818B819C810E946752EC
:102F1000B62EC72ED82EE92E262F372F482F592F01
:102F20006F2D712F892D9A2D0E94AF5087FD37C1CB
:102F30005F2D412F392D2A2D652F742F832F922F2E
:102F40002C960FB6F894DEBF0FBECDBFDF91CF91A8
:102F50001F91FF90EF90DF90CF90BF90AF909F9028
:102F60008F907F906F905F904F903F902F9008953B
:102F7000DC0190964D905D906D907C9093974416F7
:102F80005506660677060CF495C014E0B12C0FC008
:102F90004C155D056E057F050CF006C19C01CD0149
:102FA000BA2CAC01421B530B423051051CF12B2DA6
:102FB00030E0A12FB0E0C9018A0F9B1F959587953E
:102FC000A82EFC01EE0FFF1FEE0FFF1FEE0FFF1FDD
:102FD000E20DF31D4081518162817381C416D506D3
:102FE000E606F706ACF6182FAC01421B530B423035
:102FF0005105ECF6220F331F220F331F220F331F10
:10300000F101E20FF31F84809580A680B7802081B4
:1030100031814281538129833A834B835C83880FBA
:10302000991F880F991F880F991F280E391EA50117
:103030009401D10114966D917D918D919C9117977A
:103040000E9442502B013C01F10180819181A281BB
:10305000B381BC01CD0129813A814B815C81621B26
:10306000730B840B950B0E9464519B01AC01C3014F
:10307000B2010E94B4502B013C01C701B601298165
:103080003A814B815C81621B730B840B950B0E9410
:1030900064519B01AC01C301B2010E9467529B01C4
:1030A000AC01C501B4010E944350562F472F382F61
:1030B000292F42CF94968D909D90AD90BC9097977C
:1030C0005C962D913D914D915C915F9729833A8358
:1030D0004B835C8358962D913D914D915C915B970C
:1030E0002D833E834F83588729813A814B815C81B0
:1030F000C501B4010E94425069877A878B879C87FB
:10310000C301B2012D813E814F815885621B730B33
:10311000840B950B0E9464519B01AC0169857A85F3
:103120008B859C850E94B4502B013C01C701B601E0
:103130002D813E814F815885621B730B840B950B4B
:103140000E9464519B01AC01C301B2010E9467520D
:103150009B01AC0169817A818B819C810E944350E3
:10316000F62E172F3C012CE53FE842E85FE3C5014E
:10317000B4010E946752B62EC72ED82EE92E262FF4
:10318000372F482F592F6F2D712FC3010E94625284
:1031900018162CF05F2D412F362D272DCDCE5B2D0F
:1031A0004C2D3D2D2E2DC8CE548145813681278151
:1031B000C3CE2F923F924F925F926F927F928F92E7
:1031C0009F92AF92BF92CF92DF92EF92FF921F93A6
:1031D000CF93DF93CDB7DEB72C970FB6F894DEBF51
:1031E0000FBECDBF1C016A017B01DC018D909D905B
:1031F000AD90BC901397481559056A057B050CF0F6
:103200007DC014962D913D914D915C911797298326
:103210003A834B835C831C966D917D918D919C913B
:103220001F970E9442502B013C01F101808591853E
:10323000A285B385BC01CD01681979098A099B096A
:103240000E9464519B01AC01C301B2010E94B450C1
:103250002B013C01C701B601681979098A099B094C
:103260000E9464519B01AC01C301B2010E946752EC
:103270009B01AC0169817A818B819C810E944350C2
:10328000F62E172F982EA92E2CE53FE842E85FE393
:1032900069817A818B819C810E946752B62EC72EEC
:1032A000D82EE92E262F372F482F592F6F2D712F0B
:1032B000892D9A2D0E94AF5087FD37C15F2D412F78
:1032C000392D2A2D652F742F832F922F2C960FB610
:1032D000F894DEBF0FBECDBFDF91CF911F91FF905D
:1032E000EF90DF90CF90BF90AF909F908F907F90A6
:1032F0006F905F904F903F902F900895DC019096D3
:103300004D905D906D907C9093974416550666069F
:1033100077060CF495C014E0B12C0FC04C155D0578
:103320006E057F050CF006C19C01CD01BA2CAC01E5
:10333000421B530B423051051CF12B2D30E0A12FC5
:10334000B0E0C9018A0F9B1F95958795A82EFC01B7
:10335000EE0FFF1FEE0FFF1FEE0FFF1FE20DF31D1D
:103360004081518162817381C416D506E606F70655
:10337000ACF6182FAC01421B530B42305105ECF652
:10338000220F331F220F331F220F331FF101E20FD1
:10339000F31F84809580A680B7802081318142818F
:1033A000538129833A834B835C83880F991F880F4D
:1033B000991F880F991F280E391EA5019401D1016C
:1033C00014966D917D918D919C9117970E9442501A
:1033D0002B013C01F10180819181A281B381BC016B
:1033E000CD0129813A814B815C81621B730B840B77
:1033F000950B0E9464519B01AC01C301B2010E9474
:10340000B4502B013C01C701B60129813A814B819F
:103410005C81621B730B840B950B0E9464519B01B2
:10342000AC01C301B2010E9467529B01AC01C5010E
:10343000B4010E944350562F472F382F292F42CFD7
:1034400094968D909D90AD90BC9097975C962D91A1
:103450003D914D915C915F9729833A834B835C83C7
:1034600058962D913D914D915C915B972D833E83B4
:103470004F83588729813A814B815C81C501B40112
:103480000E94425069877A878B879C87C301B2016B
:103490002D813E814F815885621B730B840B950BE8
:1034A0000E9464519B01AC0169857A858B859C855E
:1034B0000E94B4502B013C01C701B6012D813E8111
:1034C0004F815885621B730B840B950B0E946451CE
:1034D0009B01AC01C301B2010E9467529B01AC0188
:1034E00069817A818B819C810E944350F62E172F2F
:1034F0003C012CE53FE842E85FE3C501B4010E94CE
:103500006752B62EC72ED82EE92E262F372F482FDA
:10351000592F6F2D712FC3010E94625218162CF083
:103520005F2D412F362D272DCDCE5B2D4C2D3D2DE2
:103530002E2DC8CE5481458136812781C3CE089572
:10354000549A559808955C9808955C9A0895089542
:10355000089589B185FB882780F991E0892708952E
:103560008530910540F4FC01EE0FFF1FE055FE4F42
:10357000859194910895E0EBF1E0859194910895FF
:103580004F925F926F927F928F929F92AF92BF9273
:10359000EF92FF920F931F93CF93DF93EC018B0178
:1035A000FC01619371937F01CB010E945E315C014C
:1035B0000E948331A701B5010E94B046889709F4A3
:1035C00066C0F801EE0FFF1FEE0FFF1FE956FE4F1A
:1035D00085909590A590B490C501B401905823E3CF
:1035E000422E542C23EF622E77247A944A825B82F7
:1035F0006C827D826E837F838887998731EE432E2C
:103600003AE7532E34EF632E77247A944A865B860A
:103610006C867D8626E636E646E65FE30E946752C4
:103620006E877F87888B998B1A8A1B8A1C8A1D8AD2
:103630001E8A1F8A188E198E8FE195E8ABE0B0E0E4
:103640008A8F9B8FAC8FBD8F26E636E646E65FE31A
:10365000C501B4010E9467526E8F7F8F88A399A322
:103660008DEC9CECACE0B0E08AA39BA3ACA3BDA323
:103670008EA29FA2A8A6B9A6888199810E945E31D8
:103680005C010E948331A701B5010E941A47AA96E6
:10369000CE010E94E142F801E555FE4F0491682FEA
:1036A000607F602BCE01DF91CF911F910F91FF9032
:1036B000EF90BF90AF909F908F907F906F905F90B2
:1036C0004F900C94C3428091FB02811186C01092EE
:1036D000C3021092C4021092C5021092C602109248
:1036E000C7021092C8021092C9021092CA02109228
:1036F000CB021092CC021092CD021092CE02109208
:10370000CF021092D0021092D1021092D2021092E7
:10371000D3021092D4021092D5021092D6021092C7
:10372000D7021092D8021092D9021092DA021092A7
:10373000DB021092DC021092DD021092DE02109287
:10374000DF021092E0021092E1021092E202109267
:10375000E3021092E4021092E5021092E602109247
:10376000E7021092E8021092E9021092EA0260E089
:103770008BEE92E00E94C0428CEE92E00E943B44AD
:103780008AEF91E09093ED028093EC028CEE92E050
:103790000E94564460E170E08FEE92E00E94804B00
:1037A0008BEE92E00E945743682F607F8BEE92E091
:1037B0000E9483438BEE92E00E940D43682F607F4E
:1037C0008BEE92E00E94394362E070E081EC92E07F
:1037D0000E94C01A81E08093FB0281EC92E0089580
:1037E000AF92BF92CF92DF92EF92FF920F931F930F
:1037F000CF93DF93CDB7DEB727970FB6F894DEBF30
:103800000FBECDBF5C01613081E0780710F060E051
:1038100071E0CE0101960E94024C2B813C818D818A
:103820009E812817390709F452C08501055D1F4F95
:1038300016C00E9400456B017C0144275527BA0140
:103840004C195D096E097F09CE0101960E941C4C3E
:103850002B813C818D819E8128173907C1F10E94FF
:10386000053BFC01C080D1800D2C000CEE08FF0848
:103870007601DD24CC240E94053BFC0182819381EA
:10388000092E000CAA0BBB0BBA2FA92F982F882743
:10389000C82AD92AEA2AFB2A0E94053BFC01848116
:1038A0009581092E000CAA0BBB0BC82AD92AEA2A3B
:1038B000FB2A60E0C801C114D104F3E0EF06F10473
:1038C00008F0B7CF0E940045AB01BC01BDCFCE01CF
:1038D00001960E943E4C0E94D4520E942651AB0198
:1038E000BC01C50102960E9413176B017C01CE0139
:1038F00001960E94174CC701B60127960FB6F8949F
:10390000DEBF0FBECDBFDF91CF911F910F91FF9012
:10391000EF90DF90CF90BF90AF900895CF92DF925D
:10392000EF92FF920F931F93CF93DF93EC01E88107
:10393000F981EE0FFF1FEE0FFF1FE956FE4FC590F6
:10394000D590E590F490C701B601905803E313E3D6
:1039500023EF3FEF0A831B832C833D836E837F839A
:103960008887998701EE1AE724EF3FEF0A871B87C4
:103970002C873D8726E636E646E65FE30E946752DF
:103980006E877F87888B998B1A8A1B8A1C8A1D8A6F
:103990001E8A1F8A188E198E8FE195E8ABE0B0E081
:1039A0008A8F9B8FAC8FBD8F26E636E646E65FE3B7
:1039B000C701B6010E9467526E8F7F8F88A399A3BB
:1039C0008DEC9CECACE0B0E08AA39BA3ACA3BDA3C0
:1039D000CEA2DFA2E8A6F9A6DF91CF911F910F91A9
:1039E000FF90EF90DF90CF9008954F925F926F928B
:1039F0007F928F929F92AF92BF92CF92DF92EF927F
:103A0000FF920F931F93CF93DF93CDB7DEB72C9721
:103A10000FB6F894DEBF0FBECDBF4C015B0129018C
:103A20003A0160E870E0CE0101960E94804B8B85E0
:103A30009C85892B09F457C08401055D1F4F14C074
:103A40000E9400456B017C0144275527BA014C199F
:103A50005D096E097F09CE0101960E949C4B8B8502
:103A60009C85892B09F43FC00E94053BFC01C08066
:103A7000D1800D2C000CEE08FF087601DD24CC244B
:103A80000E94053BFC0182819381092E000CAA0B48
:103A9000BB0BBA2FA92F982F8827C82AD92AEA2A20
:103AA000FB2A0E94053BFC0184819581092E000CB4
:103AB000AA0BBB0BC82AD92AEA2AFB2A60E0C80154
:103AC000C114D104F3E0EF06F10408F0B9CF0E946D
:103AD0000045AB01BC01CE0101960E949C4B8B8539
:103AE0009C85892B09F6CE0101960E94D74B0E9436
:103AF000D452BB24AA0CBB1CAA0CBB1CAA0CBB1C1A
:103B00008A0C9B1C0E942651F40162837383848378
:103B1000958346825782608671862C960FB6F894FC
:103B2000DEBF0FBECDBFDF91CF911F910F91FF90F0
:103B3000EF90DF90CF90BF90AF909F908F907F904D
:103B40006F905F904F9008950F931F93CF93DF93E3
:103B5000EC01899199910E945E318C010E94833120
:103B6000AE01B801DF91CF911F910F910C941A47CC
:103B7000CF92DF92EF92FF920F931F93CF93DF9339
:103B8000EC010E94053BFC01C080D1800D2C000C93
:103B9000EE08FF087601DD24CC240E94053BFC01E1
:103BA00082819381092E000CAA0BBB0BBA2FA92F7F
:103BB000982F8827C82AD92AEA2AFB2A0E94053B7F
:103BC000FC0184819581092E000CAA0BBB0BC82A2D
:103BD000D92AEA2AFB2A60E0CE018B96C114D104CF
:103BE000F3E0EF06F104B8F00E9400458B019C0160
:103BF00044275527BA01401B510B620B730BCE01B2
:103C00008E96DF91CF911F910F91FF90EF90DF90F3
:103C1000CF900C949C4B0E940045AB01BC01EFCFB0
:103C2000CF92DF92EF92FF920F931F93CF93DF9388
:103C30008C01EC01AE96CE010E94D74B0E94D4526B
:103C40000E942651AB01BC01C80102960E941317C5
:103C50006B017C01CE010E948E4BC701B601DF9142
:103C6000CF911F910F91FF90EF90DF90CF9008952B
:103C70005F9808955F9A0895579A08958530910541
:103C800040F4FC01EE0FFF1FED52FE4F8591949121
:103C90000895E3EDF1E08591949108958F929F92BC
:103CA000AF92BF92CF92DF92EF92FF920F931F934A
:103CB000CF93DF93EC0181E08AA77E0184E2E80ED6
:103CC000F11CC7010E94E142682F6F7EC7010E946C
:103CD000C3420C811D816E0186E0C80ED11CC80153
:103CE0000E943E315C010E948331A601B5010E9411
:103CF000B0464E9709F44DC0F801EE0FFF1FEE0FCE
:103D0000FF1FE654FE4F85909590A590B490C50195
:103D1000B40190582BEB33EF3F832E83688779876C
:103D20008A879B8725EF34EF3D872C8726E636E68A
:103D300046E65FE30E9467526E877F87888B998B88
:103D40001B8A1A8A1C8A1D8A1E8A1F8A8BE09BE0A6
:103D5000998F888F26E636E646E65FE3C501B40113
:103D60000E9467526A8F7B8F8C8F9D8F85E49CE0C9
:103D70009F8F8E8F88A299A2AAA2BBA28C819D81BF
:103D80000E943E315C010E948331A601B5010E9470
:103D90001A47C7010E94E142F801E253FE4F049125
:103DA000682F607F602BC7010E94C3428AA58111E2
:103DB0000DC0DF91CF911F910F91FF90EF90DF9099
:103DC000CF90BF90AF909F908F9008954881598178
:103DD0006A817B81C6010E944A128C01BC01C60126
:103DE0000E94ED10688379838A839B83B8017058A1
:103DF000CE018596DF91CF911F910F91FF90EF90AB
:103E0000DF90CF90BF90AF909F908F900C94E9433C
:103E1000FC0112A608958F929F92AF92BF92CF920B
:103E2000DF92EF92FF920F931F93CF93DF93EC01FA
:103E30008B017D836C837C0186E0E80EF11CCB0155
:103E40000E943E316C010E948331A701B6010E949D
:103E5000B0464E9709F44DC0F801EE0FFF1FEE0F6C
:103E6000FF1FE654FE4F85909590A590B490C50134
:103E7000B40190582BEB33EF3F832E83688779870B
:103E80008A879B8725EF34EF3D872C8726E636E629
:103E900046E65FE30E9467526E877F87888B998B27
:103EA0001B8A1A8A1C8A1D8A1E8A1F8A8BE09BE045
:103EB000998F888F26E636E646E65FE3C501B401B2
:103EC0000E9467526A8F7B8F8C8F9D8F85E49CE068
:103ED0009F8F8E8F88A299A2AAA2BBA28C819D815E
:103EE0000E943E316C010E948331A701B6010E94FD
:103EF0001A476E0184E2C80ED11CC6010E94E1423D
:103F0000F801E253FE4F0491682F607F602BC601D9
:103F10000E94C3428AA581110DC0DF91CF911F91EC
:103F20000F91FF90EF90DF90CF90BF90AF909F9058
:103F30008F900895488159816A817B81C7010E94D1
:103F40004A128C01BC01C7010E94ED10688379837D
:103F50008A839B83B8017058CE018596DF91CF91FB
:103F60001F910F91FF90EF90DF90CF90BF90AF9097
:103F70009F908F900C94E943CF92DF92EF92FF9243
:103F80000F931F93CF93DF93EC01188219821A824B
:103F90001B8282E090E09D838C836E0186E0C80ED8
:103FA000D11C1F821E82188619861A861B861D86C2
:103FB0001C861E861F86188A198A1B8A1A8A1C8AE2
:103FC0001D8A1E8A1F8A198E188E1A8E1B8E1C8EB1
:103FD0001D8E1F8E1E8E18A219A21AA21BA28E0160
:103FE0000C5D1F4F60E0C8010E94C0427E0185E267
:103FF000E80EF11CC7010E94A4438CE092E09EA34E
:104000008DA3C7010E94C1431AA6C8010E9457434D
:10401000682F607CC8010E948343C8010E940D4341
:10402000682F607CC8010E94394362E070E0CE01D5
:104030000E940B1F40E050E0BA01C6010E944A12E4
:104040008C01BC01C6010E94ED10688379838A83CC
:104050009B83B8017058C701DF91CF911F910F91D9
:10406000FF90EF90DF90CF900C94E94380912E0366
:10407000811107C083E093E00E94BC1F81E0809320
:104080002E0383E093E00895EF92FF920F931F9326
:10409000CF93DF938C017C0186E0E80EF11CC70111
:1040A0000E944A12EC01BC01C7010E94ED10F80108
:1040B0006083718382839383BE017058C8018596A3
:1040C000DF91CF911F910F91FF90EF900C94E943F6
:1040D000CF92DF92EF92FF92CF93DF93EC01EC81CE
:1040E000FD81EE0FFF1FEE0FFF1FE654FE4FC59040
:1040F000D590E590F490C701B60190582BEB33EFC3
:104100003F832E83688779878A879B8725EF34EFE3
:104110003D872C8726E636E646E65FE30E94675237
:104120006E877F87888B998B1B8A1A8A1C8A1D8AC7
:104130001E8A1F8A8BE09BE0998F888F26E636E6E1
:1041400046E65FE3C701B6010E9467526A8F7B8F24
:104150008C8F9D8F85E49CE09F8F8E8FC8A2D9A203
:10416000EAA2FBA2DF91CF91FF90EF90DF90CF907A
:1041700008957727FB01EE0FFF1FE60FF71FEE0FE5
:10418000FF1FE80FF91F66817781705885960C94A0
:10419000E9437727FB01EE0FFF1F6E0F7F1F660FAE
:1041A000771F860F971FFC0120873187428753872F
:1041B00008950F931F93CF93DF93EC018C819D8122
:1041C0000E943E318C010E948331AE014A5F5F4FF5
:1041D000B801DF91CF911F910F910C941A47089568
:1041E00021E030E0FC0130AF27ABBC01695C7F4FC0
:1041F0000C94D23B4430510508F4089528E030E097
:10420000FC0130AF27ABBC01695C7F4F0C94D23B03
:104210004430510508F408952EE030E0FC0130AF41
:1042200027ABBC01695C7F4F0C94D23B44305105F5
:1042300008F4089523E130E0FC0130AF27ABBC0166
:10424000695C7F4F0C94D23B4430510508F40895CB
:1042500028E130E0FC0130AF27ABBC01695C7F4F47
:104260000C94D23B4430510508F408952AE130E023
:10427000FC0130AF27ABBC01695C7F4F0C94D23B93
:104280004430510508F408952BE130E0FC0130AFD3
:1042900027ABBC01695C7F4F0C94D23B4430510585
:1042A00008F408952CE130E0FC0130AF27ABBC01ED
:1042B000695C7F4F0C94D23B4430510508F408955B
:1042C0002DE130E0FC0130AF27ABBC01695C7F4FD2
:1042D0000C94D23B4430510508F4089521E230E0BB
:1042E000FC0130AF27ABBC01695C7F4F0C94D23B23
:1042F0004430510508F4089522E230E0FC0130AF6B
:1043000027ABBC01695C7F4F0C94D23B4430510514
:1043100008F4089526E230E0FC0130AF27ABBC0181
:10432000695C7F4F0C94D23B4430510508F40895EA
:1043300028E230E0FC0130AF27ABBC01695C7F4F65
:104340000C94D23B4430510508F408952AE230E041
:10435000FC0130AF27ABBC01695C7F4F0C94D23BB2
:104360004430510508F408952CE230E0FC0130AFF0
:1043700027ABBC01695C7F4F0C94D23B44305105A4
:1043800008F408952EE230E0FC0130AF27ABBC0109
:10439000695C7F4F0C94D23B4430510508F408957A
:1043A0002FE230E0FC0130AF27ABBC01695C7F4FEE
:1043B0000C94D23B0F931F93FB01A081B1812B2F53
:1043C0003A2F2033310540F5EB2FFA2FEE0FFF1F68
:1043D000EE0FFF1FE352FE4F059115912591349189
:1043E000F80120FF12C0F901F595E795DC01AE0F49
:1043F000BF1FED91FC911197E00FF11F0190F0812B
:10440000E02DCD011F910F91099435952795820FCD
:10441000931F1F910F9109941F910F910895483098
:10442000510508F40895DB011596EC911597149643
:10443000FC91E230F10580F0E7ECF2E02591349157
:1044400043E050E0FC0150AF47AB32AF21AFBC01BD
:10445000695C7F4F0C94D23BEE0FFF1FE953FD4F79
:10446000EDCF4830510508F40895DB011596EC9125
:1044700015971496FC91E530F10590F4EE0FFF1FAF
:10448000E354FD4F2591349144E050E0FC0150AFDE
:1044900047AB32AF21AFBC01695C7F4F0C94D23B7C
:1044A000EDEBF2E0EFCF4830510578F0FB012481CD
:1044B000358145E050E0FC0150AF47AB31AF22AF52
:1044C000BC01695C7F4F0C94D23B08954830510584
:1044D00078F0FB012481358146E050E0FC0150AFCB
:1044E00047AB31AF22AFBC01695C7F4F0C94D23B2C
:1044F00008954830510508F40895DB011596EC91B4
:1045000015971496FC91E230F10580F0E9EBF2E0AA
:10451000259134914AE050E0FC0150AF47AB32AFF7
:1045200021AFBC01695C7F4F0C94D23BEE0FFF1FA3
:10453000E754FD4FEDCF4830510578F0FB01248161
:1045400035814BE050E0FC0150AF47AB31AF22AFBB
:10455000BC01695C7F4F0C94D23B089548305105F3
:1045600078F0FB01248135814CE050E0FC0150AF34
:1045700047AB31AF22AFBC01695C7F4F0C94D23B9B
:1045800008954830510508F40895DB011596EC9123
:1045900015971496FC91E530F10590F4EE0FFF1F8E
:1045A000E155FD4F2591349140E150E0FC0150AFC1
:1045B00047AB32AF21AFBC01695C7F4F0C94D23B5B
:1045C000EFEAF2E0EFCF4830510578F0FB012481AB
:1045D000358141E150E0FC0150AF47AB31AF22AF34
:1045E000BC01695C7F4F0C94D23B08954830510563
:1045F00078F0FB012481358144E150E0FC0150AFAB
:1046000047AB31AF22AFBC01695C7F4F0C94D23B0A
:1046100008954830510508F40895DB011596EC9192
:1046200015971496FC91E630F10590F4EE0FFF1FFC
:10463000ED55FD4F2591349145E150E0FC0150AF1F
:1046400047AB32AF21AFBC01695C7F4F0C94D23BCA
:10465000E3EAF2E0EFCF4830510578F0FB01248126
:10466000358146E150E0FC0150AF47AB31AF22AF9E
:10467000BC01695C7F4F0C94D23B089548305105D2
:1046800078F0FB012481358149E150E0FC0150AF15
:1046900047AB31AF22AFBC01695C7F4F0C94D23B7A
:1046A00008954830510578F0FB01248135814EE1B1
:1046B00050E0FC0150AF47AB31AF22AFBC01695CA9
:1046C0007F4F0C94D23B08954830510508F408956B
:1046D000E1EAF2E02591349143E250E0FC0150AF71
:1046E00047AB32AF21AFBC01695C7F4F0C94D23B2A
:1046F0004830510578F0FB012481358144E250E0D7
:10470000FC0150AF47AB31AF22AFBC01695C7F4FBA
:104710000C94D23B08954830510578F0FB01248178
:10472000358147E250E0FC0150AF47AB31AF22AFDB
:10473000BC01695C7F4F0C94D23B08954830510511
:1047400008F40895DB011596EC9115971496FC91E9
:10475000E230F10580F0EDE9F2E02591349149E293
:1047600050E0FC0150AF47AB32AF21AFBC01695CF8
:104770007F4F0C94D23BEE0FFF1FE356FD4FEDCF62
:104780004830510578F0FB01248135814DE250E03D
:10479000FC0150AF47AB31AF22AFBC01695C7F4F2A
:1047A0000C94D23B0895FB014830510590F02481D0
:1047B00035814681578162E070E0FC0170AF67ABE4
:1047C00051AF42AF33AF24AFBC01695C7F4F0C9453
:1047D000D23B0895FB0148305105A0F04781568136
:1047E000658174812BE230E0FC0130AF27AB662796
:1047F000772741AF52AF63AF74AFBC01695C7F4FA5
:104800000C94D23B0895FB014C305105D0F044810B
:104810005581B385A2853185208567E070E0FC0174
:1048200070AF67AB51AF42AF4B2F5A2F632F722F30
:1048300043AF54AF65AF76AFBC01695C7F4F0C945A
:10484000D23B0895FB0148305105B0F0B781A681F5
:104850003581248149E050E0FC0150AF47AB4B2F3C
:104860005A2F632F722F41AF52AF63AF74AFBC01A9
:10487000695C7F4F0C94D23B0895FB014C3051058D
:10488000D0F044815581B385A285318520856DE0C6
:1048900070E0FC0170AF67AB51AF42AF4B2F5A2FA6
:1048A000632F722F43AF54AF65AF76AFBC01695C25
:1048B0007F4F0C94D23B0895FB0148305105B0F076
:1048C000B781A681358124814FE050E0FC0150AFD3
:1048D00047AB4B2F5A2F632F722F41AF52AF63AFAD
:1048E00074AFBC01695C7F4F0C94D23B0895FB010F
:1048F0004C305105D0F044815581B385A285318576
:10490000208562E170E0FC0170AF67AB51AF42AF50
:104910004B2F5A2F632F722F43AF54AF65AF76AF33
:10492000BC01695C7F4F0C94D23B0895FB014C3075
:104930005105D0F044815581B385A285318520850C
:1049400067E170E0FC0170AF67AB51AF42AF4B2F36
:104950005A2F632F722F43AF54AF65AF76AFBC01B0
:10496000695C7F4F0C94D23B0895FB014C3051059C
:10497000D0F044815581B385A2853185208565E2DB
:1049800070E0FC0170AF67AB51AF42AF4B2F5A2FB5
:10499000632F722F43AF54AF65AF76AFBC01695C34
:1049A0007F4F0C94D23B08954830510578F0FB01BD
:1049B000248135814FE150E0FC0150AF47AB31AF6E
:1049C00022AFBC01695C7F4F0C94D23B0895FB0180
:1049D0004830510590F0448155812681378160E24D
:1049E00070E0FC0170AF67AB51AF42AF33AF24AFA3
:1049F000BC01695C7F4F0C94D23B0895AF92BF928B
:104A0000CF92DF92EF92FF920F931F93CF93DF939A
:104A10007C010E947B480E943B495C010E947148D6
:104A2000EC01892B59F4DF91CF911F910F91FF90E9
:104A3000EF90DF90CF90BF90AF900895670186E030
:104A4000C80ED11C85015701EEE0AE0EB11C05C0A9
:104A5000C6010E940642219731F3F80161918F014E
:104A6000C6010E941A42F70190A99923A1F340853B
:104A700051854430510560F3B501C7010E94DA2128
:104A8000E7CF8530910540F4FC01EE0FFF1FE354A2
:104A9000FD4F859194910895EDEBF2E0859194910D
:104AA00008958230910528F0E9EBF2E08591949128
:104AB0000895FC01EE0FFF1FE754FD4F859194917F
:104AC00008958530910540F4FC01EE0FFF1FE1557C
:104AD000FD4F859194910895EFEAF2E085919491CC
:104AE00008958630910540F4FC01EE0FFF1FED554F
:104AF000FD4F859194910895E3EAF2E085919491B8
:104B00000895E1EAF2E0859194910895823091054B
:104B100028F0EDE9F2E0859194910895FC01EE0F03
:104B2000FF1FE356FD4F8591949108958091750381
:104B3000811119C086E393E00E94B23B86E192E0C6
:104B400090933703809336038CE393E00E94F24105
:104B50000E947B4840E855E260E070E00E94E14836
:104B600081E08093750386E393E00895CF93DF930C
:104B700000D000D0CDB7DEB749835A836B837C83E6
:104B80000E947B4849815A816B817C810F900F90F4
:104B90000F900F90DF91CF910C94C048CF93DF938B
:104BA00000D000D0CDB7DEB749835A836B837C83B6
:104BB0000E947B4849815A816B817C810F900F90C4
:104BC0000F900F90DF91CF910C94E1480E947B48A9
:104BD00040E855E260E070E00C94E1488F929F92CB
:104BE000AF92BF92CF92DF92EF92FF920F931F93FB
:104BF000CF93DF9300D000D0CDB7DEB75B01069630
:104C00006C016CE270E029833A834B835C830E94E1
:104C1000E1414C01FC01108681E0818713861286F8
:104C20005C8154A74B8145A73A8136A7298127A7E4
:104C300010AB01ABF2AAE3AAC4010C9620E2FC017E
:104C400011922A95E9F7B5010E947E55C4010E9490
:104C5000C241F401058114810E947B48A801485F8C
:104C60005F4FB4010E947649B401C6010F900F90C6
:104C70000F900F90DF91CF911F910F91FF90EF90C8
:104C8000DF90CF90BF90AF909F908F900C94F141A8
:104C9000EF92FF920F931F93CF93DF9306967C01C1
:104CA00064E070E00E94E141EC01188619861B86E1
:104CB0001A860E94C2410D811C810E947B48A80176
:104CC000485F5F4FBE010E947649BE01C701DF9178
:104CD000CF911F910F91FF90EF900C94F141CF92E3
:104CE000DF92EF92FF920F931F93CF93DF9300D049
:104CF000CDB7DEB7162F072F06967C0168E070E06F
:104D000049835A830E94E1416C01FC01108682E0D4
:104D1000818713861286048715875A8156874981B1
:104D20004787C6010E94C241F601058114810E9495
:104D30007B48A801485F5F4FB6010E947649B601E3
:104D4000C7010F900F90DF91CF911F910F91FF90AE
:104D5000EF90DF90CF900C94F141EF92FF920F9380
:104D60001F93CF93DF93162F072F06967C0168E0E1
:104D700070E00E94E141EC01188683E089871B8680
:104D80001A860C871D871F861E86CE010E94C2418F
:104D90000D811C810E947B48A801485F5F4FBE01C6
:104DA0000E947649BE01C701DF91CF911F910F91FB
:104DB000FF90EF900C94F141EF92FF920F931F93AD
:104DC000CF93DF93162F072F06967C0168E070E0E3
:104DD0000E94E141EC01188684E089871B861A86CF
:104DE0000C871D871F861E86CE010E94C2410D8141
:104DF0001C810E947B48A801485F5F4FBE010E9452
:104E00007649BE01C701DF91CF911F910F91FF90AD
:104E1000EF900C94F141AF92BF92CF92DF92EF925C
:104E2000FF920F931F93CF93DF9300D000D0CDB7A5
:104E3000DEB7D62EC72E06967C016CE070E02B8381
:104E40003C8349835A830E94E1415C01FC01108646
:104E500085E0818713861286C486D5865A81568757
:104E6000498147873C812B81C801432F522F692FED
:104E7000702FF501408B518B628B738BC5010E94A3
:104E8000C241F501058114810E947B48A801485F59
:104E90005F4FB5010E947649B501C7010F900F9091
:104EA0000F900F90DF91CF911F910F91FF90EF9096
:104EB000DF90CF90BF90AF900C94F141AF92BF9232
:104EC000CF92DF92EF92FF920F931F93CF93DF93D6
:104ED00000D000D0CDB7DEB7D62EC72E06967C0107
:104EE0006CE070E02B833C8349835A830E94E1414C
:104EF0005C01FC01108686E0818713861286C486D9
:104F0000D5865A815687498147873C812B81C801C4
:104F1000432F522F692F702FF501408B518B628BDD
:104F2000738BC5010E94C241F501058114810E9465
:104F30007B48A801485F5F4FB5010E947649B501E3
:104F4000C7010F900F900F900F90DF91CF911F919D
:104F50000F91FF90EF90DF90CF90BF90AF900C94A7
:104F6000F141AF92BF92CF92DF92EF92FF920F93F7
:104F70001F93CF93DF9300D000D0CDB7DEB7D62EEE
:104F8000C72E06967C016CE070E02B833C8349833E
:104F90005A830E94E1415C01FC01108687E0818711
:104FA00013861286C486D5865A81568749814787DB
:104FB0003C812B81C801432F522F692F702FF5019F
:104FC000408B518B628B738BC5010E94C241F501EE
:104FD000058114810E947B48A801485F5F4FB5019D
:104FE0000E947649B501C7010F900F900F900F9066
:104FF000DF91CF911F910F91FF90EF90DF90CF90B5
:10500000BF90AF900C94F141EF92FF920F931F93DA
:10501000CF93DF9306967C0164E070E00E94E1414B
:10502000EC01188688E089871B861A86CE010E94CB
:10503000C2410D811C810E947B48A801485F5F4FDF
:10504000BE010E947649BE01C701DF91CF911F9139
:105050000F91FF90EF900C94F141CF92DF92EF927D
:10506000FF920F931F93CF93DF9300D0CDB7DEB79E
:10507000162F072F06967C0168E070E049835A835B
:105080000E94E1416C01FC01108689E08187138652
:1050900012865A81952F4981842F402F512F692FD5
:1050A000782F4487558766877787C6010E94C2415B
:1050B000F601058114810E947B48A801485F5F4F7B
:1050C000B6010E947649B601C7010F900F90DF919B
:1050D000CF911F910F91FF90EF90DF90CF900C94A4
:1050E000F141EF92FF920F931F93CF93DF93162F0F
:1050F000072F06967C0168E070E00E94E141EC0118
:1051000018868AE089871B861A860C871D871F866A
:105110001E86CE010E94C2410D811C810E947B48E7
:10512000A801485F5F4FBE010E947649BE01C701DA
:10513000DF91CF911F910F91FF90EF900C94F1416F
:10514000AF92BF92CF92DF92EF92FF920F931F9395
:10515000CF93DF9300D000D0CDB7DEB7D62EC72EC9
:1051600006967C016CE070E02B833C8349835A8374
:105170000E94E1415C01FC0110868BE0818713866F
:105180001286C486D5865A815687498147873C81D5
:105190002B81C801432F522F692F702FF501408BAF
:1051A000518B628B738BC5010E94C241F501058151
:1051B00014810E947B48A801485F5F4FB5010E949F
:1051C0007649B501C7010F900F900F900F90DF91B6
:1051D000CF911F910F91FF90EF90DF90CF90BF90F4
:1051E000AF900C94F141AF92BF92CF92DF92EF92C9
:1051F000FF920F931F93CF93DF9300D000D0CDB7D2
:10520000DEB7D62EC72E06967C016CE070E02B83AD
:105210003C8349835A830E94E1415C01FC01108672
:105220008CE0818713861286C486D5865A8156877C
:10523000498147873C812B81C801432F522F692F19
:10524000702FF501408B518B628B738BC5010E94CF
:10525000C241F501058114810E947B48A801485F85
:105260005F4FB5010E947649B501C7010F900F90BD
:105270000F900F90DF91CF911F910F91FF90EF90C2
:10528000DF90CF90BF90AF900C94F141AF92BF925E
:10529000CF92DF92EF92FF920F931F93CF93DF9302
:1052A00000D000D0CDB7DEB7D62EC72E06967C0133
:1052B0006CE070E02B833C8349835A830E94E14178
:1052C0005C01FC0110868DE0818713861286C486FE
:1052D000D5865A815687498147873C812B81C801F1
:1052E000432F522F692F702FF501408B518B628B0A
:1052F000738BC5010E94C241F501058114810E9492
:105300007B48A801485F5F4FB5010E947649B5010F
:10531000C7010F900F900F900F90DF91CF911F91C9
:105320000F91FF90EF90DF90CF90BF90AF900C94D3
:10533000F141EF92FF920F931F93CF93DF93069665
:105340007C0164E070E00E94E141EC0118868EE08F
:1053500089871B861A86CE010E94C2410D811C815D
:105360000E947B48A801485F5F4FBE010E947649BA
:10537000BE01C701DF91CF911F910F91FF90EF9078
:105380000C94F141CF92DF92EF92FF920F931F9313
:10539000CF93DF9300D0CDB7DEB7162F072F069639
:1053A0007C0168E070E049835A830E94E1416C010E
:1053B000FC0110868FE08187138612865A81952F13
:1053C0004981842F402F512F692F782F448755878B
:1053D00066877787C6010E94C241F6010581148164
:1053E0000E947B48A801485F5F4FB6010E94764942
:1053F000B601C7010F900F90DF91CF911F910F91D0
:10540000FF90EF90DF90CF900C94F141EF92FF92DC
:105410000F931F93CF93DF93162F072F06967C01D0
:1054200068E070E00E94E141EC01188680E1898724
:105430001B861A860C871D871F861E86CE010E943A
:10544000C2410D811C810E947B48A801485F5F4FCB
:10545000BE010E947649BE01C701DF91CF911F9125
:105460000F91FF90EF900C94F1418F929F92AF9229
:10547000BF92CF92DF92EF92FF920F931F93CF9341
:10548000DF9300D000D0CDB7DEB7B62EA72E06969C
:105490006C0160E170E029833A834B835C830E9456
:1054A000E1414C01FC01108681E18187138612865F
:1054B000A486B586178616865C81508B4B81418BFE
:1054C0003A81328B2981238B9801C701432F502FBA
:1054D000692F7E2D448B558B668B778BC4010E9480
:1054E000C241F401058114810E947B48A801485FF4
:1054F0005F4FB4010E947649B401C6010F900F902E
:105500000F900F90DF91CF911F910F91FF90EF902F
:10551000DF90CF90BF90AF909F908F900C94F1410F
:105520008F929F92AF92BF92CF92DF92EF92FF92B3
:105530000F931F93CF93DF9300D000D0CDB7DEB78A
:10554000B62EA72E06966C0160E170E029833A839F
:105550004B835C830E94E1414C01FC01108682E197
:10556000818713861286A486B586178616865C8187
:10557000508B4B81418B3A81328B2981238B98014F
:10558000C701432F502F692F7E2D448B558B668B7F
:10559000778BC4010E94C241F401058114810E94ED
:1055A0007B48A801485F5F4FB4010E947649B4016F
:1055B000C6010F900F900F900F90DF91CF911F9128
:1055C0000F91FF90EF90DF90CF90BF90AF909F90A2
:1055D0008F900C94F141EF92FF920F931F93CF9312
:1055E000DF9306967C0164E070E00E94E141EC01EB
:1055F000188683E189871B861A86CE010E94C241E4
:105600000D811C810E947B48A801485F5F4FBE014D
:105610000E947649BE01C701DF91CF911F910F9182
:10562000FF90EF900C94F141CF92DF92EF92FF92B6
:105630000F931F93CF93DF9300D0CDB7DEB7162F14
:10564000072F06967C0168E070E049835A830E9428
:10565000E1416C01FC01108684E18187138612868A
:105660005A81952F4981842F402F512F692F782FF0
:105670004487558766877787C6010E94C241F60135
:10568000058114810E947B48A801485F5F4FB601E5
:105690000E947649B601C7010F900F90DF91CF911C
:1056A0001F910F91FF90EF90DF90CF900C94F141FC
:1056B000EF92FF920F931F93CF93DF93162F072F35
:1056C00006967C0168E070E00E94E141EC011886DA
:1056D00085E189871B861A860C871D871F861E8693
:1056E000CE010E94C2410D811C810E947B48A8010D
:1056F000485F5F4FBE010E947649BE01C701DF913E
:10570000CF911F910F91FF90EF900C94F1418F92E8
:105710009F92AF92BF92CF92DF92EF92FF920F9340
:105720001F93CF93DF9300D000D0CDB7DEB7B62E56
:10573000A72E06966C0160E170E029833A834B83C3
:105740005C830E94E1414C01FC01108686E1818767
:1057500013861286A486B586178616865C81508BC2
:105760004B81418B3A81328B2981238B9801C70170
:10577000432F502F692F7E2D448B558B668B778B53
:10578000C4010E94C241F401058114810E947B483A
:10579000A801485F5F4FB4010E947649B401C60179
:1057A0000F900F900F900F90DF91CF911F910F915D
:1057B000FF90EF90DF90CF90BF90AF909F908F9031
:1057C0000C94F1418F929F92AF92BF92CF92DF9251
:1057D000EF92FF920F931F93CF93DF9300D000D0EF
:1057E000CDB7DEB7B62EA72E06966C0160E170E04D
:1057F00029833A834B835C830E94E1414C01FC0185
:10580000108687E1818713861286A486B58617865F
:1058100016865C81508B4B81418B3A81328B29817A
:10582000238B9801C701432F502F692F7E2D448B66
:10583000558B668B778BC4010E94C241F4010581B0
:1058400014810E947B48A801485F5F4FB4010E9409
:105850007649B401C6010F900F900F900F90DF9121
:10586000CF911F910F91FF90EF90DF90CF90BF905D
:10587000AF909F908F900C94F141EF92FF920F9315
:105880001F93CF93DF9306967C0164E070E00E9443
:10589000E141EC01188688E189871B861A86CE01D2
:1058A0000E94C2410D811C810E947B48A801485F73
:1058B0005F4FBE010E947649BE01C701DF91CF91C3
:1058C0001F910F91FF90EF900C94F141CF92DF92D6
:1058D000EF92FF920F931F93CF93DF9300D0CDB73A
:1058E000DEB7162F072F06967C0168E070E049832B
:1058F0005A830E94E1416C01FC01108689E1818795
:10590000138612865A81952F4981842F402F512F5B
:10591000692F782F4487558766877787C6010E944D
:10592000C241F601058114810E947B48A801485FAD
:105930005F4FB6010E947649B601C7010F900F90E4
:10594000DF91CF911F910F91FF90EF90DF90CF905B
:105950000C94F141EF92FF920F931F93CF93DF933B
:1059600006967C0164E070E00E94E141EC0118863B
:105970008AE189871B861A86CE010E94C2410D8169
:105980001C810E947B48A801485F5F4FBE010E94B6
:105990007649BE01C701DF91CF911F910F91FF9012
:1059A000EF900C94F141EF92FF920F931F93CF93DE
:1059B000DF9306967C0164E070E00E94E141EC0117
:1059C00018868BE189871B861A86CE010E94C24108
:1059D0000D811C810E947B48A801485F5F4FBE017A
:1059E0000E947649BE01C701DF91CF911F910F91AF
:1059F000FF90EF900C94F141EF92FF920F931F9361
:105A0000CF93DF9306967C0164E070E00E94E14151
:105A1000EC0118868CE189871B861A86CE010E94CC
:105A2000C2410D811C810E947B48A801485F5F4FE5
:105A3000BE010E947649BE01C701DF91CF911F913F
:105A40000F91FF90EF900C94F141EF92FF920F9322
:105A50001F93CF93DF9306967C0164E070E00E9471
:105A6000E141EC0118868DE189871B861A86CE01FB
:105A70000E94C2410D811C810E947B48A801485FA1
:105A80005F4FBE010E947649BE01C701DF91CF91F1
:105A90001F910F91FF90EF900C94F141CF92DF9204
:105AA000EF92FF920F931F93CF93DF9300D0CDB768
:105AB000DEB7162F072F06967C0168E070E0498359
:105AC0005A830E94E1416C01FC0110868EE18187BE
:105AD000138612865A81952F4981842F402F512F8A
