:100000000C94B6020C94DE020C94DE020C94DE0218
:100010000C94DE020C94DE020C94DE020C94DE02E0
:100020000C94DE020C94DE020C94DE020C94DE02D0
:100030000C94DE020C94DE020C94DE020C94DE02C0
:100040000C94A6470C94DE020C94DE020C94DE02A3
:100050000C947B480C94DE020C94DE020C94DE02BD
:100060000C94DE020C94DE020C94DE020C94DE0290
:10007000C70100007A4406C70100007A4405C701A1
:1000800000007A4404D4010000803F06D40100003F
:10009000803F05D4010000803F04DE010024744944
:1000A00005DE010024744904ED0100007A4406EDE8
:1000B0000100007A4405ED0100007A4404E00200EA
:1000C00000E102000046090000FB0900003A0300BD
:1000D00000A8030000DA030000110400000E0D0068
:1000E000006004000090040000AC040000DE040086
:1000F0000015050000980D00006405000071030064
:100100000094050000D8050000530D0000970A0078
:10011000002C060000480600008C060000C90C00F8
:1001200000880B0000E0060000E8060000F0060072
:1001300000F80600008C090000000700003A0700E4
:10014000008D070000950700000809000001080065
:100150000061080000790C0000CB0800004E080088
:10016000009D070000B9070000D8070000CA07007B
:10017000002F0A0000D0070000D4070000462F77A8
:10018000206465762000492D5620536F7572636593
:10019000204D6574657200ACC5273717B7D1386F2D
:1001A00012833A0AD7233CCDCCCC3D08040201008F
:1001B00000000100020003000400ACC5273717B798
:1001C000D1386F12833A0AD7233CCDCCCC3D0804FA
:1001D00002010000000100020003000400EF200003
:1001E00000F0200000D32300000F22000031220085
:1001F00000532200006622000005240000FA2000BF
:100200000025240000792200009B220000AE22007D
:1002100000412400000821000061240000C12200E8
:1002200000E32200007D24000016210000F62200D9
:1002300000092300002B2300009D2400002421003E
:10024000003E23000032210000402100004E21002A
:10025000005C21000051230000DD240000F0240098
:10026000006A210000782100006423000078230048
:1002700000BD240000862100008B23000094210093
:10028000009E230000A2210000EB230000B021000B
:1002900000C0230000BE210000CC210000000001AE
:1002A000000000000001000200030004000500003F
:1002B0000001000200030004000000010000000132
:1002C00000020003000400000001001E001E001ECA
:1002D000001E001E001E001E002800280028002806
:1002E00000280028002800280028002800280020D6
:1002F00000280013000C000D000E000F001000116C
:10030000000700080009000A000B000500060000B5
:100310000001000200030004006F12833A0AD72391
:100320003CCDCCCC3D0000803F000020410000C807
:100330004208040201003000000100000001000238
:100340000003000400050000002041000000002020
:10035000410000C842002000000100030003000229
:10036000000AD7233C0300030003000AD7233C0301
:1003700000030004000AD7233C0200020004006FBF
:1003800012833A01000100040017B7D138010001BF
:10039000000400ACC52737010001000400BD37860A
:1003A000350300030002000AD7233CCDCCCC3D032B
:1003B00000030003000AD7233C0000803F03000332
:1003C0000004000AD7233C00002041020002000480
:1003D000006F12833A000020410100010004001761
:1003E000B7D13800002041010001000400ACC5274E
:1003F0003700002041010001000400BD37863500B0
:100400000020410000010002000300040005000676
:100410000080C0BC400000BD400000C3400000C9D7
:1004200040000000FFFFFFFF000100FF0020001060
:100430000008000400010203C5490000CC49000087
:10044000EB490000774A00000A4A0000974A000082
:10045000114A0000184A00001F4A0000374A0000F5
:100460003E4A0000624A00006E616E00696E6600DE
:1004700000407A10F35A00A0724E18090010A5D45B
:10048000E80000E87648170000E40B54020000CAB8
:100490009A3B000000E1F5050000809698000000FE
:1004A00040420F000000A08601000000102700005D
:1004B0000000E803000000006400000000000A00E3
:1004C000000000000100000000002C76D888DC67E6
:1004D0004F0823DFC1DFAE59E1B1B796E5E3E4533E
:1004E000C63AE651997696E8E6C28426EB898C9B5B
:1004F00062ED407C6FFCEFBC9C9F40F2BAA56FA5FB
:10050000F490055A2AF75C936B6CF9676DC11BFC7C
:10051000E0E40D47FEF520E6B500D0ED902E030097
:10052000943577050080841E080000204E0A0000E4
:1005300000C80C333333330F986E12831141EF8DA3
:100540002114893BE65516CFFEE6DB18D1844B38E3
:100550001BF77C1D901DA4BBE424203284725E2214
:100560008100C9F124ECA1E53D27EE3B11241FBE1B
:10057000CFEFD0E1DEBFCDBF12E0A0E0B1E0E6EA10
:10058000FEEA02C005900D92A437B107D9F725E025
:10059000A4E7B2E001C01D92AA32B207E1F712E06F
:1005A000C6EBD2E004C02197FE010E949653C53BE2
:1005B000D107C9F70E94D4100C9451570C94000035
:1005C0000895CF92DF92EF92FF920F931F93CF93F4
:1005D000DF9300D000D0CDB7DEB70E94173BFC01FF
:1005E000C080D1800D2C000CEE08FF087601DD24C0
:1005F000CC240E94173BFC0182819381092E000CC0
:10060000AA0BBB0BBA2FA92F982F8827C82AD92A43
:10061000EA2AFB2A0E94173BFC0124813581C9018B
:10062000330FAA0BBB0BA7019601282B392B4A2BA2
:100630005B2B29833A834B835C830E94A0251DEFAB
:10064000E12EFF24FA940FEF1FEF29813A814B81AD
:100650005C8168E171E00E9400260F900F900F907E
:100660000F90DF91CF911F910F91FF90EF90DF904E
:10067000CF9008950F931F93CF93DF93EB018A815F
:100680009B810E94B01A8C010E94631BB8010E94DA
:10069000C01A0E94631BFC01808191810E946B251E
:1006A0008C010E94A025B8010E94182A8A819B8192
:1006B0000E943E1EEC010E943620BE010E940B1FCC
:1006C0000E943620FC01848195810E944B25EC011B
:1006D0000E94A025BE01DF91CF911F910F910C9434
:1006E000EE260F931F93CF93DF93EB018A819B81BB
:1006F0000E943E1E8C010E943620B8010E940B1FF2
:100700000E943620FC01848195810E944B258C013A
:100710000E94A025B8010E94EE268A819B810E943A
:10072000B01AEC010E94631BBE010E94C01A0E9415
:10073000631BFC01808191810E946B25EC010E946A
:10074000A025BE01DF91CF911F910F910C94182A23
:100750008F929F92AF92BF92EF92FF920F931F934F
:10076000CF93DF93FB01C281D3810E943620DD2726
:10077000FE01EE0FFF1FEC0FFD1FEE0FFF1FE80F36
:10078000F91F80849184A284B384E680F7800E945C
:10079000A02595018401A701BE010E941D27DF91BC
:1007A000CF911F910F91FF90EF90BF90AF909F90CE
:1007B0008F9008958F929F92AF92BF92EF92FF9287
:1007C0000F931F93CF93DF93FB01C281D381DD276A
:1007D0000E943620BE010E94B9200E943620FE01F0
:1007E000EE0FFF1FEC0FFD1FEE0FFF1FE80FF91FAD
:1007F00080849184A284B384E680F7800E94A0253F
:1008000095018401A701BE010E947027DF91CF915D
:100810001F910F91FF90EF90BF90AF909F908F909E
:1008200008958F929F92AF92BF92CF92DF92EF92F4
:10083000FF920F931F93CF93DF9300D000D0CDB7DB
:10084000DEB7FB012481358146815781C280D38088
:10085000DD2429833A834B835C830E9436202981DF
:100860003A814B815C81B6010E94C9200E943620EA
:10087000F601EE0FFF1FEC0DFD1DEE0FFF1FE80F41
:10088000F91F80849184A284B384E680F7800E945B
:10089000A02595018401A701B6010E94C3270F90EE
:1008A0000F900F900F90DF91CF911F910F91FF90BC
:1008B000EF90DF90CF90BF90AF909F908F90089572
:1008C000CF93DF9300D000D0CDB7DEB7FB014281DC
:1008D00053816481758149835A836B837C830E9431
:1008E000362049815A816B817C810E9444200E947C
:1008F0003620FC01408151816281738149835A8392
:100900006B837C830E94A02549815A816B817C8105
:100910000F900F900F900F90DF91CF910C943F2884
:10092000CF93DF93FB01828193810E943637EC01E4
:100930000E946238BE010E9449370E946238FC0161
:10094000848195810E945B25EC010E94A025BE0157
:10095000DF91CF910C9483288F929F92AF92BF9298
:10096000EF92FF920F931F93CF93DF93FB01C2810E
:10097000D3810E946238DD27FE01EE0FFF1FEC0FCE
:10098000FD1FEE0FFF1FE80FF91F80849184A284E2
:10099000B384E680F7800E94A02595018401A70119
:1009A000BE010E94B228DF91CF911F910F91FF905D
:1009B000EF90BF90AF909F908F9008958F929F92ED
:1009C000AF92BF92EF92FF920F931F93CF93DF935B
:1009D000FB01C281D381DD270E946238BE010E94E3
:1009E0001E390E946238FE01EE0FFF1FEC0FFD1F43
:1009F000EE0FFF1FE80FF91F80849184A284B38457
:100A0000E680F7800E94A02595018401A701BE0120
:100A10000E940529DF91CF911F910F91FF90EF90D8
:100A2000BF90AF909F908F9008958F929F92AF92BA
:100A3000BF92CF92DF92EF92FF920F931F93CF93CB
:100A4000DF9300D000D0CDB7DEB7FB012481358124
:100A500046815781C280D380DD2429833A834B832A
:100A60005C830E94623829813A814B815C81B601A6
:100A70000E942E390E946238F601EE0FFF1FEC0D26
:100A8000FD1DEE0FFF1FE80FF91F80849184A284E3
:100A9000B384E680F7800E94A02595018401A70118
:100AA000B6010E9458290F900F900F900F90DF9180
:100AB000CF911F910F91FF90EF90DF90CF90BF905B
:100AC000AF909F908F900895CF93DF9300D000D088
:100AD000CDB7DEB7FB0142815381648175814983C3
:100AE0005A836B837C830E94623849815A816B816F
:100AF0007C810E94A9380E946238FC0140815181AA
:100B00006281738149835A836B837C830E94A02511
:100B100049815A816B817C810F900F900F900F90CB
:100B2000DF91CF910C94D429AF92BF92CF92DF92F4
:100B3000EF92FF920F931F93CF93DF9300D000D0DB
:100B4000CDB7DEB7FB01E280F3800E94631B570143
:100B5000BB24F501EE0FFF1FEE0FFF1FEE0FFF1F6F
:100B6000E80FF91FC680D780E084F18422813381A9
:100B70004481558129833A834B835C830E94A0255D
:100B80008701760129813A814B815C81B5010E9400
:100B9000472A0F900F900F900F90DF91CF911F91E8
:100BA0000F91FF90EF90DF90CF90BF90AF9008959E
:100BB000AF92BF92CF92DF92EF92FF920F931F936B
:100BC000CF93DF9300D000D0CDB7DEB7FB012481F7
:100BD000358146815781A280B380BB2429833A8323
:100BE0004B835C830E94631B29813A814B815C812A
:100BF000B5010E94F51C0E94631BF501EE0FFF1F5B
:100C0000EE0FFF1FEE0FFF1FE80FF91FC680D78002
:100C1000E084F184228133814481558129833A83A0
:100C20004B835C830E94A0258701760129813A814C
:100C30004B815C81B5010E94A22A0F900F900F900A
:100C40000F90DF91CF911F910F91FF90EF90DF9068
:100C5000CF90BF90AF900895CF93DF93FB01828137
:100C600093810E94B731EC010E940833BE010E94BB
:100C7000D7310E940833FC01808191810E947B253D
:100C8000EC010E94A025BE01DF91CF910C946A2B4C
:100C9000AF92BF92CF92DF92EF92FF920F931F938A
:100CA000CF93DF9300D000D0CDB7DEB7FB01E28059
:100CB000F3800E9408335701BB24F501EE0FFF1F9C
:100CC000EE0FFF1FEE0FFF1FE80FF91FC680D78042
:100CD000E084F184228133814481558129833A83E0
:100CE0004B835C830E94A0258701760129813A818C
:100CF0004B815C81B5010E94992B0F900F900F9052
:100D00000F90DF91CF911F910F91FF90EF90DF90A7
:100D1000CF90BF90AF900895AF92BF92CF92DF92E5
:100D2000EF92FF920F931F93CF93DF9300D000D0E9
:100D3000CDB7DEB7FB012481358146815781A28082
:100D4000B380BB2429833A834B835C830E9408339E
:100D500029813A814B815C81B5010E94D8330E9480
:100D60000833F501EE0FFF1FEE0FFF1FEE0FFF1F01
:100D7000E80FF91FC680D780E084F1842281338197
:100D80004481558129833A834B835C830E94A0254B
:100D90008701760129813A814B815C81B5010E94EE
:100DA000F42B0F900F900F900F90DF91CF911F9128
:100DB0000F91FF90EF90DF90CF90BF90AF9008958C
:100DC0000E9436200E9468200E94A0250C94BC2C12
:100DD0000E9462380E94CD380E94A0250C94E52C18
:100DE0000E94631B0E948E1C0E94A0250C940E2D55
:100DF0000E9408330E9471330E94A0250C94372D65
:100E0000CF93DF93FB01828193818130910521F1A2
:100E10008230910599F0892B19F0DF91CF910895D7
:100E20000E94173BFC01C081D1810E94A025AE0128
:100E300060E070E0DF91CF910C94A42D0E94173BED
:100E4000FC01C481D5810E94A025AE0162E070E062
:100E5000DF91CF910C94A42D0E94173BFC01C2811D
:100E6000D3810E94A025AE0161E070E0DF91CF91B7
:100E70000C94A42DCF93DF93FB0182819381C481D5
:100E8000D58181309105B1F18230910501F1009752
:100E900059F08130910599F182309105E9F0892B63
:100EA00041F0DF91CF9108950E94173BFC01D1835F
:100EB000C0830E94173BFC01C081D1810E94A02504
:100EC000AE0160E070E0DF91CF910C94E22D0E94C2
:100ED000173BFC01D583C4830E94173BFC01C481EE
:100EE000D5810E94A025AE0162E070E0DF91CF9134
:100EF0000C94E22D0E94173BFC01D383C2830E9415
:100F0000173BFC01C281D3810E94A025AE0161E0A4
:100F100070E0DF91CF910C94E22D0E94173B0E946C
:100F2000713B0E94A0250C94202E0E94173B0E942A
:100F30007D3B0E94A0250C94492ECF93DF93FB01AB
:100F4000828193810E94C731EC010E940833BE0167
:100F50000E9481340E940833FC0183AD94AD0E944D
:100F60009025EC010E94A025BE01DF91CF910C9449
:100F7000ED2FCF93DF930E940833FC0183AD94AD36
:100F80000E949025EC010E94A025BE01DF91CF9127
:100F90000C941C300E94A02561E070E00C94893014
:100FA0000E94A0250C94FE300E94A0250C942731AD
:100FB000CF92DF92EF92FF92FB01C280D380E48058
:100FC000F5800E94A025B701A6010E94C8258111C5
:100FD00008C00E94A025FF90EF90DF90CF900C9466
:100FE0005A260E94A025B701A6010E944B300E94FC
:100FF000A025B701A601FF90EF90DF90CF900C9451
:10100000E025AF92BF92CF92DF92EF92FF920F93C3
:101010001F93CF93DF9300D000D0CDB7DEB7FB0195
:10102000E280F3808091B902811107C084E892E0E8
:101030000E94C23481E08093B9025701BB24F501BC
:10104000EE0FFF1FEE0FFF1FEE0FFF1FEC57FD4FC0
:10105000C184D284E384F48425813681478150851C
:1010600029833A834B835C830E94A0258701760104
:1010700029813A814B815C81B5010E94A12E0F909C
:101080000F900F900F90DF91CF911F910F91FF90D4
:10109000EF90DF90CF90BF90AF9008958091B9020C
:1010A000811107C084E892E00E94C23481E08093FD
:1010B000B90284E892E00E948D360E94A0250C942B
:1010C000C42FAF92BF92CF92DF92EF92FF920F9315
:1010D0001F93CF93DF9300D000D0CDB7DEB7FB01D5
:1010E0002481358146815781A280B380BB248091C1
:1010F000B902882309F43FC0B50184E892E00E9458
:1011000020368091B902811107C084E892E00E94E4
:10111000C23481E08093B902F501EE0FFF1FEE0F9C
:10112000FF1FEE0FFF1FEC57FD4FC184D284E384F5
:10113000F484258136814781508529833A834B8306
:101140005C830E94A0258701760129813A814B8129
:101150005C81B5010E94FC2E0F900F900F900F90B4
:10116000DF91CF911F910F91FF90EF90DF90CF9083
:10117000BF90AF90089584E892E029833A834B832F
:101180005C830E94C23481E08093B9025C814B8110
:101190003A812981B1CF0F931F93CF93DF9300D072
:1011A00000D0CDB7DEB78B010E9454390E946C3954
:1011B000F801628173818091B90281110BC084E8CA
:1011C00092E06B837C830E94C23481E08093B902F9
:1011D0007C816B8184E892E00E94F436AB01BC0113
:1011E00049835A836B837C830E94A02549815A815D
:1011F0006B817C810E94802F0E9454390F900F9048
:101200000F900F90DF91CF911F910F910C946E3939
:101210000F931F93CF93DF9300D0CDB7DEB7FB01C1
:10122000828193810E94BD34BC018091B9028823E0
:1012300009F184E892E00E948D358091B902811114
:1012400007C084E892E00E94C23481E08093B90232
:1012500080918702909188020E948B258C010E94C8
:10126000A025B8010F900F90DF91CF911F910F91A2
:101270000C94722E84E892E069837A830E94C234CF
:1012800081E08093B9027A816981D3CF8F929F9256
:10129000AF92BF92CF92DF92EF92FF920F931F9384
:1012A000CF93DF93EC01FB0182809380A480B58013
:1012B00081E08B870E94CB470E94ED476B017C0148
:1012C0000E94CB478C01C501B4010E9497512FE6C3
:1012D00032E143E85AE30E949C52AB01BC01C801D1
:1012E0000E94F947C60ED71EE81EF91ECC86DD8681
:1012F000EE86FF860E94A025B501A401DF91CF9163
:101300001F910F91FF90EF90DF90CF90BF90AF9023
:101310009F908F900C9481260F931F93CF93DF9310
:1013200000D000D0CDB7DEB78B010E9462380E949A
:1013300046370E9454390E946A390E9436200E9422
:101340004E1E0E9454390E946439F80102811381B3
:101350000E947039B8010E94C83AAB01BC014983B0
:101360005A836B837C830E94A02549815A816B81BB
:101370007C810F900F900F900F90DF91CF911F9174
:101380000F910C94602DCF92DF92EF92FF92DB01D0
:10139000ED91FC91E033F10548F5EE0FFF1FEE0FE4
:1013A000FF1FE354FF4FC590D590E590F490F601F0
:1013B000970135952795E0FE12C0DC01A20FB31FFF
:1013C0002D913C911197F901EC0DFD1D0190F081DB
:1013D000E02DCD01FF90EF90DF90CF900994820F28
:1013E000931FFF90EF90DF90CF900994FF90EF90C4
:1013F000DF90CF900895FB01828193810097C9F01F
:101400000197B1F40E9436200E94081F0E945439AF
:101410000E9466390E9462380E9470380E945439D6
:101420000E9468390E94A02561E070E00C94BF26FC
:1014300008950E9462380E9446370E9454390E94E3
:101440006A390E9436200E944E1E0E9454390E9422
:1014500064390E94A02560E070E00C94BF26CF9212
:10146000DF92EF92FF920F931F93CF93DF9300D001
:1014700000D0CDB7DEB78C01FB01E280F38081E0C4
:1014800090E0A0E0B0E089839A83AB83BC830E94A4
:10149000A025AE014F5F5F4FB7010E94B83081E0D9
:1014A000F80186830E94CB470E94ED476B017C01C7
:1014B0000E94CB4740E050E060E070E40E94F947B2
:1014C000C60ED71EE81EF91EF801C782D086E18637
:1014D000F2860E94F33B40E060E00E94D73C0E940D
:1014E000F33B63E271E00E94063D0E94F33B40E063
:1014F00061E00E94D73C0E94F33B64E371E00E94EC
:10150000063DFFEF2FE18CE1F15020408040E1F7F4
:1015100000C000000F900F900F900F90DF91CF91BF
:101520001F910F91FF90EF90DF90CF9008958F92D1
:101530009F92AF92BF92CF92DF92EF92FF920F9362
:101540001F93CF93DF93CDB7DEB72B970FB6F894E9
:10155000DEBF0FBECDBF8C017B010E9454390E94BB
:101560006C39F701E280F3800E94631BB7010E948F
:10157000F01B4B015C010E94A025B501A4010E9453
:10158000262B81E0F80186830E94CB470E94ED471D
:101590006B017C010E94CB4740E050E060E070E4CA
:1015A0000E94F947C60ED71EE81EF91EF801C78231
:1015B000D086E186F2860E9408330E94631BFC01FC
:1015C000E080F1800E94F33B0E94FB3CFC0196E02E
:1015D000DE01119601900D929A95E1F70E94F33B7E
:1015E00040E060E00E94D73C8701000F111F000F10
:1015F000111F000F111F0E191F09F801E656FF4FAA
:10160000E590F49082E00E9470408B8781E00E9418
:1016100070408A87F801E456FF4F25913591459136
:101620005491C501B4010E949C524B015C01F80128
:10163000E056FF4F84910E947140898789E00E94A3
:101640007040888784E00E9470408F830E94F33B43
:1016500069E270E40E94DF3FBE01695F7F4F0E9434
:10166000724065E471E00E94063D6DE470E40E9402
:10167000DF3F61EE7FE30E94DF3F65E070E40E94A0
:10168000DF3FBE01685F7F4F0E947240BE01675F0F
:101690007F4F0E949740B501A4010E94C53EBE0144
:1016A000665F7F4F0E9472406BE671E00E94063DCC
:1016B00069E270E40E94DF3FBE01655F7F4F0E94D8
:1016C0007240B7010E94063D0E94F33B40E061E09A
:1016D0000E94D73C0E94F33BBE016F5F7F4F0E9488
:1016E000FD3C0E9454390E946E392B960FB6F89437
:1016F000DEBF0FBECDBFDF91CF911F910F91FF9045
:10170000EF90DF90CF90BF90AF909F908F90089513
:101710008F929F92AF92BF92CF92DF92EF92FF9201
:101720000F931F93CF93DF93CDB7DEB72B970FB6F1
:10173000F894DEBF0FBECDBF8C017B010E945439EF
:101740000E946C39F701E280F3800E940833B701F0
:101750000E9416334B015C010E94A025B501A40133
:101760000E94782C81E0F80186830E94CB470E947A
:10177000ED476B017C010E94CB4740E050E060E008
:1017800070E40E94F947C60ED71EE81EF91EF80144
:10179000C782D086E186F2860E940833FC01E08091
:1017A000F1800E94631B0E94F33B0E94FB3CFC0102
:1017B00096E0DE01119601900D929A95E1F70E9454
:1017C000F33B40E060E00E94D73C0E94F33B40E0E6
:1017D00061E00E94D73C8701000F111F000F111F0D
:1017E000000F111F0E191F09F801E059FF4FE59076
:1017F000F49082E00E9470408B8781E00E947040EC
:101800008A87F801EE58FF4F259135914591549103
:10181000C501B4010E949C524B015C01F801EA58D9
:10182000FF4F84910E947140898789E00E94704037
:10183000888784E00E9470408F830E94F33B69E2B6
:1018400070E40E94DF3FBE01695F7F4F0E947240DB
:1018500068E471E00E94063D6DE470E40E94DF3FA1
:1018600061EE7FE30E94DF3F65E070E40E94DF3FAE
:10187000BE01685F7F4F0E947240BE01675F7F4F6D
:101880000E949740B501A4010E94C53EBE01665F5B
:101890007F4F0E9472406BE671E00E94063D69E254
:1018A00070E40E94DF3FBE01655F7F4F0E9472407F
:1018B000B7010E94063D0E94F33BBE016F5F7F4F60
:1018C0000E94FD3C0E9454390E946E392B960FB63F
:1018D000F894DEBF0FBECDBFDF91CF911F910F9166
:1018E000FF90EF90DF90CF90BF90AF909F908F9040
:1018F0000895CF92DF92EF92FF92CF93DF93EC01A6
:101900008091B902811107C084E892E00E94C2343C
:1019100081E08093B90284E892E00E9477360E94C9
:10192000A0250E94572F81E08E830E94CB470E9402
:10193000ED476B017C010E94CB4740E050E060E046
:1019400070E40E94F947C60ED71EE81EF91ECF822A
:10195000D886E986FA860E94F33B40E060E00E9468
:10196000D73C0E94F33B6BE471E00E94063D0E946D
:10197000F33B40E061E00E94D73C0E94F33B6CE502
:1019800071E0DF91CF91FF90EF90DF90CF900C94BA
:10199000063DCF92DF92EF92FF92CF93DF93EC015F
:1019A0000E9408330E9436340E94A0250E944F2CCA
:1019B00081E08E830E94CB470E94ED476B017C0142
:1019C0000E94CB4740E050E060E070E40E94F9479D
:1019D000C60ED71EE81EF91ECF82D886E986FA8683
:1019E0000E94F33B40E060E00E94D73C0E94F33B42
:1019F0006BE471E00E94063D0E94F33B40E061E031
:101A00000E94D73C0E94F33B6CE571E0DF91CF91DF
:101A1000FF90EF90DF90CF900C94063DCF92DF9235
:101A2000EF92FF92CF93DF93EC010E9436200E9449
:101A3000D9200E94A0250E94162881E08E830E9452
:101A4000CB470E94ED476B017C010E94CB4740E0F1
:101A500050E060E070E40E94F947C60ED71EE81E11
:101A6000F91ECF82D886E986FA860E94F33B40E0D1
:101A700060E00E94D73C0E94F33B6BE471E00E945F
:101A8000063D0E94F33B40E061E00E94D73C0E948B
:101A9000F33B6CE571E0DF91CF91FF90EF90DF9029
:101AA000CF900C94063DCF92DF92EF92FF92CF93AE
:101AB000DF93EC010E94631B0E94A41D0E94A025DD
:101AC0000E94FD2A81E08E830E94CB470E94ED4751
:101AD0006B017C010E94CB4740E050E060E070E485
:101AE0000E94F947C60ED71EE81EF91ECF82D8867F
:101AF000E986FA860E94F33B40E060E00E94D73C12
:101B00000E94F33B6BE471E00E94063D0E94F33BB0
:101B100040E061E00E94D73C0E94F33B6CE571E03D
:101B2000DF91CF91FF90EF90DF90CF900C94063D26
:101B3000CF92DF92EF92FF92CF93DF93EC010E945E
:101B400062380E943E390E94A0250E94AB2981E0A4
:101B50008E830E94CB470E94ED476B017C010E945F
:101B6000CB4740E050E060E070E40E94F947C60EC9
:101B7000D71EE81EF91ECF82D886E986FA860E9413
:101B8000F33B40E060E00E94D73C0E94F33B6BE4F3
:101B900071E00E94063D0E94F33B40E061E00E943C
:101BA000D73C0E94F33B6CE571E0DF91CF91FF9051
:101BB000EF90DF90CF900C94063D0F931F93CF933F
:101BC000DF93CDB7DEB7AB970FB6F894DEBF0FBE8D
:101BD000CDBF0E94F33B0E94FB3CFC0196E0DE017E
:101BE000919601900D929A95E1F70E94F33B40E0A7
:101BF00060E00E94D73C66E871E0CE0101960E9449
:101C00006B568C010E94F33BB8010E94063D0E9476
:101C1000F33B40E061E00E94D73C82E00E947040CC
:101C20008FA381E00E94704088A782E00E947040EC
:101C300089A781E00E9470408AA782E00E947040DC
:101C40008BA76DE771E0CE0101960E946B568C0167
:101C50000E94F33BB8010E94063DBE01655D7F4FC7
:101C60000E94724065E070E40E94DF3F4FEF50E059
:101C700060E070E00E94D03DBE01665D7F4F0E9433
:101C800072406DE671E00E94063DBE01675D7F4FC8
:101C90000E94724065E070E40E94DF3F4FEF50E029
:101CA00060E070E00E94D03DBE01685D7F4F0E9401
:101CB00072406DE671E00E94063DBE01695D7F4F96
:101CC0000E94724065E070E40E94DF3F4DEF50E0FB
:101CD00060E070E00E94D03D0E94F33BBE016F5D6A
:101CE0007F4F0E94FD3CAB960FB6F894DEBF0FBE4F
:101CF000CDBFDF91CF911F910F910895CF92DF92C9
:101D0000EF92FF92CF93DF93EC010E94C43B84EFEC
:101D100091E0998388831E821F82188619861A860D
:101D20001B861C861D861E861F860E94F33B0E9412
:101D300036200E9462380E94631B0E940833809103
:101D4000B902811107C084E892E00E94C23481E0A8
:101D50008093B9020E9470390E94A0250E9436200B
:101D60000E944E1E0E9454390E9464390E946238BB
:101D700040E050E0BA010E94A9380E94083360E0B8
:101D800070E00E9481340E94A025AE0163EC79E0EE
:101D90000E94DE3BCE010E94DD0D789481E08E83AF
:101DA0000E94CB470E94ED476B017C010E94CB470C
:101DB00040E050E060E070E40E94F947C60ED71E94
:101DC000E81EF91ECF82D886E986FA86DF91CF9188
:101DD000FF90EF90DF90CF9008952F923F924F9217
:101DE0005F926F927F928F929F92AF92BF92CF92AB
:101DF000DF92EF92FF920F931F93CF93DF93CDB7B4
:101E0000DEB72B970FB6F894DEBF0FBECDBFF62E10
:101E100029013A010E94F33B0E94FB3CFC0196E041
:101E2000DE01119601900D929A95E1F70E94F33B25
:101E300040E060E00E94D73CF11099C00E94F33B63
:101E400040E061E00E94D73CEE2009F470C08401BC
:101E5000000F111F000F111F000F111F0819190982
:101E6000F801E059FF4FE590F49082E00E94704045
:101E70008F8381E00E9470408887F801EE58FF4F01
:101E80002591359145915491C601B5010E949C520E
:101E90004B015C01F801EA58FF4F84910E947140A8
:101EA000898789E00E9470408A8784E00E947040A0
:101EB0008B870E94F33B69E270E40E94DF3FBE0122
:101EC000655F7F4F0E94724068E471E00E94063DAA
:101ED0006DE470E40E94DF3F61EE7FE30E94DF3F2C
:101EE00065E070E40E94DF3FBE01665F7F4F0E94A5
:101EF0007240BE01675F7F4F0E949740B501A40109
:101F00000E94C53EBE01685F7F4F0E9472406BE633
:101F100071E00E94063D69E270E40E94DF3FBE016D
:101F2000695F7F4F0E947240B7010E94063D0E9488
:101F3000F33BBE016F5F7F4F0E94FD3C2B960FB6B7
:101F4000F894DEBF0FBECDBFDF91CF911F910F91EF
:101F5000FF90EF90DF90CF90BF90AF909F908F90C9
:101F60007F906F905F904F903F902F900895F80171
:101F7000EE0FFF1FEE0FFF1FEE0FFF1FCF01801BA5
:101F8000910B8C01FC01E656FF4F2590349082E0C6
:101F90000E9470408F8381E00E9470408887F80122
:101FA000E456FF4F2591359145915491C301B201FB
:101FB0000E949C522B013C01F801E056FF4F849196
:101FC0000E947140898789E00E9470408A8784E07E
:101FD0000E9470408B870E94F33B69E270E40E948C
:101FE000DF3FBE01655F7F4F0E94724065E471E094
:101FF0000E94063D6DE470E40E94DF3F61EE7FE3E6
:102000000E94DF3F65E070E40E94DF3FBE01665F33
:102010007F4F0E947240BE01675F7F4F0E949740D2
:10202000B301A2010E94C53EBE01685F7F4F0E94BE
:1020300072406BE671E00E94063D69E270E40E9426
:10204000DF3FBE01695F7F4F0E947240B1010E9475
:10205000063DF4CE2F923F924F925F926F927F9205
:102060008F929F92AF92BF92CF92DF92EF920F9397
:102070001F93CF93DF9300D000D0CDB7DEB71C0104
:10208000FC018385811125C00E94631B0E94B81D3D
:102090000E9408330E944A340E94631BFC0180ADF9
:1020A00091AD892B59F10F900F900F900F90DF9108
:1020B000CF911F910F91EF90DF90CF90BF90AF9095
:1020C0009F908F907F906F905F904F903F902F9058
:1020D00008950E94CB470E94ED47F10104851585C4
:1020E00026853785601771078207930768F2F1012B
:1020F00013860E94A0250E94F825C6CF0E940833AF
:10210000FC0180AD91AD892B71F60E94631B0E948A
:10211000101E9B01AC0169833A834B835C830E9450
:1021200008330E9459345B016C01F10186812981D9
:102130003A814B815C81811119C029833A834B8399
:102140005C830E940833FC01808091800E94631BA5
:10215000FC0100811181EE24E39429813A814B81B5
:102160005C8161E0C1010E94ED0E9DCF29833A831D
:102170004B835C830E94CB470E94ED47F10147806F
:1021800050846184728429813A814B815C81641519
:1021900075058605970518F0F1011682CECFF1017D
:1021A0008681811180CFC9CF2FEF8FE398E3215033
:1021B00080409040E1F700C000008091B1028111A1
:1021C00007C084E792E00E947E0E81E08093B10216
:1021D0000E94A33B80E090E008952F923F924F929F
:1021E0005F926F927F928F929F92AF92BF92CF92A7
:1021F000DF92EF92FF920F931F93CF93DF938C01A7
:10220000EB01FC01E080F1806E157F050CF065C0EC
:1022100082809380A480B580A5019401608571853A
:10222000828593850E9477502B013C01F8016681DD
:1022300077816E197F09072E000C880B990B0E947D
:1022400099519B01AC01C301B2010E94E9502B01DD
:102250003C01CE19DF09BE01DD0F880B990B0E94EE
:1022600099519B01AC01C301B2010E949C529B0198
:10227000AC01C501B4010E9478508B01D82FC92F41
:102280002CE53FE842E85FE3C501B4010E949C529F
:102290006B017C019B01AC01B8018D2F9C2F0E942A
:1022A000E45087FDEDC0502F412F9E01652F742F04
:1022B000832F922FDF91CF911F910F91FF90EF907D
:1022C000DF90CF90BF90AF909F908F907F906F9056
:1022D0005F904F903F902F900895FC01208C318C9F
:1022E000261637060CF47EC0A4E0B0E00DC04C17F3
:1022F0005D070CF0CAC09C01CB01BF2DAC01421B95
:10230000530B42305105FCF02B2F30E06A2F70E068
:10231000C901860F971F95958795F82EFC01EE0F42
:10232000FF1FE80FF91FEE0FFF1FE00FF11F4081A5
:102330005181C417D507DCF6A82FAC01421B530B03
:10234000423051050CF7F901EE0FFF1FE20FF31FAA
:10235000EE0FFF1FE00FF11F82809380A480B580F5
:10236000E080F1809C01220F331F820F931F880FA2
:10237000991F080F191FA5019401F801628173814B
:10238000848195810E9477502B013C01F801608186
:1023900071816E197F09072E000C880B990B0E9422
:1023A00099519B01AC01C301B2010E94E9502B017C
:1023B0003C01CE19DF09BE01DD0F880B990B0E948D
:1023C00099519B01AC01C301B2010E949C529B0137
:1023D000AC01C501B4010E947850562F472F382F09
:1023E000292F64CFC28CD38CE48CF58C848895889B
:1023F000A688B78802891389A5019401C701B6018F
:102400000E9477502B013C01B101601B710B072E1C
:10241000000C880B990B0E9499519B01AC01C301E0
:10242000B2010E94E9502B013C01C01BD10BBE013F
:10243000DD0F880B990B0E9499519B01AC01C301E0
:10244000B2010E949C529B01AC01C501B4010E94E3
:1024500078508B01D82FC92F2CE53FE842E85FE385
:10246000C701B6010E949C526B017C019B01AC012B
:10247000B8018D2F9C2F0E94975218160CF013CF85
:102480005C2D4D2D3E2D2F2D11CF52814381348156
:1024900025810CCF2F923F924F925F926F927F9245
:1024A0008F929F92AF92BF92CF92DF92EF92FF9264
:1024B0000F931F93CF93DF93CDB7DEB728970FB657
:1024C000F894DEBF0FBECDBF8C016A017B01FC0119
:1024D00082809380A480B5809A01AB01C501B401CC
:1024E0000E949752F80118160CF079C06080718034
:1024F000B301072C000C880B990B0E94995169833A
:102500007A838B839C83F8016681778166197709CA
:10251000072E000C880B990B0E9499512B013C014E
:10252000A5019401F80160857185828593850E94DB
:1025300077509B01AC01C301B2010E94E9502B010D
:102540003C01A5019401C701B6010E9477509B018F
:10255000AC01C301B2010E949C5229813A814B8196
:102560005C810E9478508B015C012CE53FE842E8D9
:102570005FE369817A818B819C810E949C526B010F
:102580007C019B01AC01B801C5010E94E45087FDAC
:1025900023C1502F412F3A2D2B2D652F742F832FC0
:1025A000922F0E9409530E945B51CB0128960FB6CF
:1025B000F894DEBF0FBECDBFDF91CF911F910F9179
:1025C000FF90EF90DF90CF90BF90AF909F908F9053
:1025D0007F906F905F904F903F902F900895828CE6
:1025E000938CA48CB58CA7019601C501B4010E94FF
:1025F000E45087FD94C0F4E0F9831D8211C0A70167
:102600009601C301B2010E94E45087FFEAC0450170
:102610005101FE81FD83C50188199909029754F182
:102620002D81822E912C3981232E312C5401A20C24
:10263000B31CB594A794AE82C501880F991F8A0D6B
:102640009B1D880F991FFC01E00FF11FF887EF8396
:102650004280538064807580A7019601C301B20156
:102660000E94975218165CF6A982C501881999092B
:102670000297B4F6F401EE0FFF1FE80DF91DEE0FFF
:10268000FF1FE00FF11F2080318042805380648063
:102690007580C501880F991F8A0D9B1D880F991F92
:1026A000080F191FF8016081718162197309072EE3
:1026B000000C880B990B0E9499514B015C01A301FE
:1026C0009201F80162817381848195810E94775023
:1026D0009B01AC01C501B4010E94E9504B015C01B2
:1026E000A3019201C701B6010E9477509B01AC0182
:1026F000C501B4010E949C526B017C01B101330CF5
:10270000880B990B0E9499519B01AC01C701B6013E
:102710000E947850562F472F382F292F3ECFF8018F
:10272000208C318C2289338938872F8344885588BF
:1027300066887788B101621B730B072E000C880B2B
:10274000990B0E94995169837A838B839C83A3019F
:102750009201C501B4010E9477509B01AC016981CF
:102760007A818B819C810E94E9504B015C01A3011D
:102770009201C701B6010E9477509B01AC01C501CF
:10278000B4010E949C526B017C01EF81F885BF016E
:10279000FF0F880B990B0E9499519B01AC01C70157
:1027A000B6010E9478508B015C01B101330C880B9B
:1027B000990B0E9499512CE53FE842E85FE30E94A3
:1027C0009C526B017C019B01AC01B801C5010E94C8
:1027D000975218160CF0DDCE5C2D4D2D3E2D2F2D71
:1027E000DCCEEF81F88560817181072E000C880BAB
:1027F000990B0E949951562F472F382F292FCDCE54
:102800002F923F924F925F926F927F928F929F9200
:10281000AF92BF92CF92DF92EF92FF920F931F93EE
:10282000CF93DF938C01EB01FC01E080F1806E150A
:102830007F050CF065C082809380A480B580A501DF
:10284000940160857185828593850E9477502B0164
:102850003C01F801668177816E197F09072E000C13
:10286000880B990B0E9499519B01AC01C301B201E5
:102870000E94E9502B013C01CE19DF09BE01DD0F9A
:10288000880B990B0E9499519B01AC01C301B201C5
:102890000E949C529B01AC01C501B4010E9478507A
:1028A0008B01D82FC92F2CE53FE842E85FE3C50133
:1028B000B4010E949C526B017C019B01AC01B801E8
:1028C0008D2F9C2F0E94E45087FDEDC0502F412F8B
:1028D0009E01652F742F832F922FDF91CF911F912F
:1028E0000F91FF90EF90DF90CF90BF90AF909F90AF
:1028F0008F907F906F905F904F903F902F900895B2
:10290000FC01208C318C261637060CF47EC0A4E026
:10291000B0E00DC04C175D070CF0CAC09C01CB01A4
:10292000BF2DAC01421B530B42305105FCF02B2F45
:1029300030E06A2F70E0C901860F971F9595879543
:10294000F82EFC01EE0FFF1FE80FF91FEE0FFF1F1F
:10295000E00FF11F40815181C417D507DCF6A82F85
:10296000AC01421B530B423051050CF7F901EE0F3D
:10297000FF1FE20FF31FEE0FFF1FE00FF11F82801A
:102980009380A480B580E080F1809C01220F331FEA
:10299000820F931F880F991F080F191FA50194011B
:1029A000F80162817381848195810E9477502B01A7
:1029B0003C01F801608171816E197F09072E000CBE
:1029C000880B990B0E9499519B01AC01C301B20184
:1029D0000E94E9502B013C01CE19DF09BE01DD0F39
:1029E000880B990B0E9499519B01AC01C301B20164
:1029F0000E949C529B01AC01C501B4010E94785019
:102A0000562F472F382F292F64CFC28CD38CE48CBC
:102A1000F58C84889588A688B78802891389A501D2
:102A20009401C701B6010E9477502B013C01B1010E
:102A3000601B710B072E000C880B990B0E9499519B
:102A40009B01AC01C301B2010E94E9502B013C0182
:102A5000C01BD10BBE01DD0F880B990B0E94995151
:102A60009B01AC01C301B2010E949C529B01AC01CD
:102A7000C501B4010E9478508B01D82FC92F2CE5D5
:102A80003FE842E85FE3C701B6010E949C526B0138
:102A90007C019B01AC01B8018D2F9C2F0E949752A5
:102AA00018160CF013CF5C2D4D2D3E2D2F2D11CF70
:102AB00052814381348125810CCF2F923F924F92D6
:102AC0005F926F927F928F929F92AF92BF92CF92BE
:102AD000DF92EF92FF920F931F93CF93DF93CDB7C7
:102AE000DEB728970FB6F894DEBF0FBECDBF8C01BE
:102AF0006A017B01FC0182809380A480B5809A01E9
:102B0000AB01C501B4010E949752F80118160CF0F0
:102B100079C060807180B301072C000C880B990B81
:102B20000E94995169837A838B839C83F801668123
:102B3000778166197709072E000C880B990B0E9484
:102B400099512B013C01A5019401F8016085718523
:102B5000828593850E9477509B01AC01C301B2012D
:102B60000E94E9502B013C01A5019401C701B60167
:102B70000E9477509B01AC01C301B2010E949C529C
:102B800029813A814B815C810E9478508B015C01E4
:102B90002CE53FE842E85FE369817A818B819C8183
:102BA0000E949C526B017C019B01AC01B801C501E4
:102BB0000E94E45087FD23C1502F412F3A2D2B2D29
:102BC000652F742F832F922F0E9409530E945B510F
:102BD000CB0128960FB6F894DEBF0FBECDBFDF91B4
:102BE000CF911F910F91FF90EF90DF90CF90BF900A
:102BF000AF909F908F907F906F905F904F903F909D
:102C00002F900895828C938CA48CB58CA70196018B
:102C1000C501B4010E94E45087FD94C0F4E0F9833B
:102C20001D8211C0A7019601C301B2010E94E450A8
:102C300087FFEAC045015101FE81FD83C501881966
:102C40009909029754F12D81822E912C3981232EDE
:102C5000312C5401A20CB31CB594A794AE82C501CB
:102C6000880F991F8A0D9B1D880F991FFC01E00F8B
:102C7000F11FF887EF834280538064807580A7013D
:102C80009601C301B2010E94975218165CF6A98200
:102C9000C501881999090297B4F6F401EE0FFF1FD8
:102CA000E80DF91DEE0FFF1FE00FF11F20803180AE
:102CB0004280538064807580C501880F991F8A0DFA
:102CC0009B1D880F991F080F191FF80160817181E2
:102CD00062197309072E000C880B990B0E949951F9
:102CE0004B015C01A3019201F8016281738184812F
:102CF00095810E9477509B01AC01C501B4010E94EF
:102D0000E9504B015C01A3019201C701B6010E9489
:102D100077509B01AC01C501B4010E949C526B012C
:102D20007C01B101330C880B990B0E9499519B01D6
:102D3000AC01C701B6010E947850562F472F382F9B
:102D4000292F3ECFF801208C318C22893389388796
:102D50002F834488558866887788B101621B730B7E
:102D6000072E000C880B990B0E94995169837A8376
:102D70008B839C83A3019201C501B4010E9477500B
:102D80009B01AC0169817A818B819C810E94E95011
:102D90004B015C01A3019201C701B6010E9477506B
:102DA0009B01AC01C501B4010E949C526B017C01E6
:102DB000EF81F885BF01FF0F880B990B0E94995195
:102DC0009B01AC01C701B6010E9478508B015C01E8
:102DD000B101330C880B990B0E9499512CE53FE807
:102DE00042E85FE30E949C526B017C019B01AC01B5
:102DF000B801C5010E94975218160CF0DDCE5C2D6B
:102E00004D2D3E2D2F2DDCCEEF81F8856081718117
:102E1000072E000C880B990B0E949951562F472FB3
:102E2000382F292FCDCE2F923F924F925F926F92E3
:102E30007F928F929F92AF92BF92CF92DF92EF924A
:102E4000FF921F93CF93DF93CDB7DEB72C970FB6CA
:102E5000F894DEBF0FBECDBF1C016A017B01DC010F
:102E60008D909D90AD90BC901397481559056A05BB
:102E70007B050CF07DC014962D913D914D915C9198
:102E8000179729833A834B835C831C966D917D91C0
:102E90008D919C911F970E9477502B013C01F1016D
:102EA00080859185A285B385BC01CD01681979091A
:102EB0008A099B090E9499519B01AC01C301B2018F
:102EC0000E94E9502B013C01C701B601681979093C
:102ED0008A099B090E9499519B01AC01C301B2016F
:102EE0000E949C529B01AC0169817A818B819C81FB
:102EF0000E947850F62E172F982EA92E2CE53FE829
:102F000042E85FE369817A818B819C810E949C52B7
:102F1000B62EC72ED82EE92E262F372F482F592F01
:102F20006F2D712F892D9A2D0E94E45087FD37C196
:102F30005F2D412F392D2A2D652F742F832F922F2E
:102F40002C960FB6F894DEBF0FBECDBFDF91CF91A8
:102F50001F91FF90EF90DF90CF90BF90AF909F9028
:102F60008F907F906F905F904F903F902F9008953B
:102F7000DC0190964D905D906D907C9093974416F7
:102F80005506660677060CF495C014E0B12C0FC008
:102F90004C155D056E057F050CF006C19C01CD0149
:102FA000BA2CAC01421B530B423051051CF12B2DA6
:102FB00030E0A12FB0E0C9018A0F9B1F959587953E
:102FC000A82EFC01EE0FFF1FEE0FFF1FEE0FFF1FDD
:102FD000E20DF31D4081518162817381C416D506D3
:102FE000E606F706ACF6182FAC01421B530B423035
:102FF0005105ECF6220F331F220F331F220F331F10
:10300000F101E20FF31F84809580A680B7802081B4
:1030100031814281538129833A834B835C83880FBA
:10302000991F880F991F880F991F280E391EA50117
:103030009401D10114966D917D918D919C9117977A
:103040000E9477502B013C01F10180819181A28186
:10305000B381BC01CD0129813A814B815C81621B26
:10306000730B840B950B0E9499519B01AC01C3011A
:10307000B2010E94E9502B013C01C701B601298130
:103080003A814B815C81621B730B840B950B0E9410
:1030900099519B01AC01C301B2010E949C529B015A
:1030A000AC01C501B4010E947850562F472F382F2C
:1030B000292F42CF94968D909D90AD90BC9097977C
:1030C0005C962D913D914D915C915F9729833A8358
:1030D0004B835C8358962D913D914D915C915B970C
:1030E0002D833E834F83588729813A814B815C81B0
:1030F000C501B4010E94775069877A878B879C87C6
:10310000C301B2012D813E814F815885621B730B33
:10311000840B950B0E9499519B01AC0169857A85BE
:103120008B859C850E94E9502B013C01C701B601AB
:103130002D813E814F815885621B730B840B950B4B
:103140000E9499519B01AC01C301B2010E949C52A3
:103150009B01AC0169817A818B819C810E947850AE
:10316000F62E172F3C012CE53FE842E85FE3C5014E
:10317000B4010E949C52B62EC72ED82EE92E262FBF
:10318000372F482F592F6F2D712FC3010E9497524F
:1031900018162CF05F2D412F362D272DCDCE5B2D0F
:1031A0004C2D3D2D2E2DC8CE548145813681278151
:1031B000C3CE2F923F924F925F926F927F928F92E7
:1031C0009F92AF92BF92CF92DF92EF92FF921F93A6
:1031D000CF93DF93CDB7DEB72C970FB6F894DEBF51
:1031E0000FBECDBF1C016A017B01DC018D909D905B
:1031F000AD90BC901397481559056A057B050CF0F6
:103200007DC014962D913D914D915C911797298326
:103210003A834B835C831C966D917D918D919C913B
:103220001F970E9477502B013C01F1018085918509
:10323000A285B385BC01CD01681979098A099B096A
:103240000E9499519B01AC01C301B2010E94E95057
:103250002B013C01C701B601681979098A099B094C
:103260000E9499519B01AC01C301B2010E949C5282
:103270009B01AC0169817A818B819C810E9478508D
:10328000F62E172F982EA92E2CE53FE842E85FE393
:1032900069817A818B819C810E949C52B62EC72EB7
:1032A000D82EE92E262F372F482F592F6F2D712F0B
:1032B000892D9A2D0E94E45087FD37C15F2D412F43
:1032C000392D2A2D652F742F832F922F2C960FB610
:1032D000F894DEBF0FBECDBFDF91CF911F91FF905D
:1032E000EF90DF90CF90BF90AF909F908F907F90A6
:1032F0006F905F904F903F902F900895DC019096D3
:103300004D905D906D907C9093974416550666069F
:1033100077060CF495C014E0B12C0FC04C155D0578
:103320006E057F050CF006C19C01CD01BA2CAC01E5
:10333000421B530B423051051CF12B2D30E0A12FC5
:10334000B0E0C9018A0F9B1F95958795A82EFC01B7
:10335000EE0FFF1FEE0FFF1FEE0FFF1FE20DF31D1D
:103360004081518162817381C416D506E606F70655
:10337000ACF6182FAC01421B530B42305105ECF652
:10338000220F331F220F331F220F331FF101E20FD1
:10339000F31F84809580A680B7802081318142818F
:1033A000538129833A834B835C83880F991F880F4D
:1033B000991F880F991F280E391EA5019401D1016C
:1033C00014966D917D918D919C9117970E947750E5
:1033D0002B013C01F10180819181A281B381BC016B
:1033E000CD0129813A814B815C81621B730B840B77
:1033F000950B0E9499519B01AC01C301B2010E943F
:10340000E9502B013C01C701B60129813A814B816A
:103410005C81621B730B840B950B0E9499519B017D
:10342000AC01C301B2010E949C529B01AC01C501D9
:10343000B4010E947850562F472F382F292F42CFA2
:1034400094968D909D90AD90BC9097975C962D91A1
:103450003D914D915C915F9729833A834B835C83C7
:1034600058962D913D914D915C915B972D833E83B4
:103470004F83588729813A814B815C81C501B40112
:103480000E94775069877A878B879C87C301B20136
:103490002D813E814F815885621B730B840B950BE8
:1034A0000E9499519B01AC0169857A858B859C8529
:1034B0000E94E9502B013C01C701B6012D813E81DC
:1034C0004F815885621B730B840B950B0E94995199
:1034D0009B01AC01C301B2010E949C529B01AC0153
:1034E00069817A818B819C810E947850F62E172FFA
:1034F0003C012CE53FE842E85FE3C501B4010E94CE
:103500009C52B62EC72ED82EE92E262F372F482FA5
:10351000592F6F2D712FC3010E94975218162CF04E
:103520005F2D412F362D272DCDCE5B2D4C2D3D2DE2
:103530002E2DC8CE5481458136812781C3CE089572
:10354000549A559808955C9808955C9A0895089542
:10355000089589B185FB882780F991E0892708952E
:103560008530910540F4FC01EE0FFF1FE055FE4F42
:10357000859194910895E0EBF1E0859194910895FF
:103580004F925F926F927F928F929F92AF92BF9273
:10359000EF92FF920F931F93CF93DF93EC018B0178
:1035A000FC01619371937F01CB010E9470315C013A
:1035B0000E949531A701B5010E94E546889709F45C
:1035C00066C0F801EE0FFF1FEE0FFF1FE956FE4F1A
:1035D00085909590A590B490C501B401905823E3CF
:1035E000422E542C23EF622E77247A944A825B82F7
:1035F0006C827D826E837F838887998731EE432E2C
:103600003AE7532E34EF632E77247A944A865B860A
:103610006C867D8626E636E646E65FE30E949C528F
:103620006E877F87888B998B1A8A1B8A1C8A1D8AD2
:103630001E8A1F8A188E198E8FE195E8ABE0B0E0E4
:103640008A8F9B8FAC8FBD8F26E636E646E65FE31A
:10365000C501B4010E949C526E8F7F8F88A399A3ED
:103660008DEC9CECACE0B0E08AA39BA3ACA3BDA323
:103670008EA29FA2A8A6B9A6888199810E947031C6
:103680005C010E949531A701B5010E944F47AA969F
:10369000CE010E941643F801E555FE4F0491682FB4
:1036A000607F602BCE01DF91CF911F910F91FF9032
:1036B000EF90BF90AF909F908F907F906F905F90B2
:1036C0004F900C94F8428091FB02811186C01092B9
:1036D000C3021092C4021092C5021092C602109248
:1036E000C7021092C8021092C9021092CA02109228
:1036F000CB021092CC021092CD021092CE02109208
:10370000CF021092D0021092D1021092D2021092E7
:10371000D3021092D4021092D5021092D6021092C7
:10372000D7021092D8021092D9021092DA021092A7
:10373000DB021092DC021092DD021092DE02109287
:10374000DF021092E0021092E1021092E202109267
:10375000E3021092E4021092E5021092E602109247
:10376000E7021092E8021092E9021092EA0260E089
:103770008BEE92E00E94F5428CEE92E00E94704443
:103780008AEF91E09093ED028093EC028CEE92E050
:103790000E948B4460E170E08FEE92E00E94B54B96
:1037A0008BEE92E00E948C43682F607F8BEE92E05C
:1037B0000E94B8438BEE92E00E944243682F607FE4
:1037C0008BEE92E00E946E4362E070E081EC92E04A
:1037D0000E94C01A81E08093FB0281EC92E0089580
:1037E000AF92BF92CF92DF92EF92FF920F931F930F
:1037F000CF93DF93CDB7DEB727970FB6F894DEBF30
:103800000FBECDBF5C01613081E0780710F060E051
:1038100071E0CE0101960E94374C2B813C818D8155
:103820009E812817390709F452C08501055D1F4F95
:1038300016C00E9435456B017C0144275527BA010B
:103840004C195D096E097F09CE0101960E94514C09
:103850002B813C818D819E8128173907C1F10E94FF
:10386000173BFC01C080D1800D2C000CEE08FF0836
:103870007601DD24CC240E94173BFC0182819381D8
:10388000092E000CAA0BBB0BBA2FA92F982F882743
:10389000C82AD92AEA2AFB2A0E94173BFC01848104
:1038A0009581092E000CAA0BBB0BC82AD92AEA2A3B
:1038B000FB2A60E0C801C114D104F3E0EF06F10473
:1038C00008F0B7CF0E943545AB01BC01BDCFCE019A
:1038D00001960E94734C0E9409530E945B51AB01F8
:1038E000BC01C50102960E9413176B017C01CE0139
:1038F00001960E944C4CC701B60127960FB6F8946A
:10390000DEBF0FBECDBFDF91CF911F910F91FF9012
:10391000EF90DF90CF90BF90AF900895CF92DF925D
:10392000EF92FF920F931F93CF93DF93EC01E88107
:10393000F981EE0FFF1FEE0FFF1FE956FE4FC590F6
:10394000D590E590F490C701B601905803E313E3D6
:1039500023EF3FEF0A831B832C833D836E837F839A
:103960008887998701EE1AE724EF3FEF0A871B87C4
:103970002C873D8726E636E646E65FE30E949C52AA
:103980006E877F87888B998B1A8A1B8A1C8A1D8A6F
:103990001E8A1F8A188E198E8FE195E8ABE0B0E081
:1039A0008A8F9B8FAC8FBD8F26E636E646E65FE3B7
:1039B000C701B6010E949C526E8F7F8F88A399A386
:1039C0008DEC9CECACE0B0E08AA39BA3ACA3BDA3C0
:1039D000CEA2DFA2E8A6F9A6DF91CF911F910F91A9
:1039E000FF90EF90DF90CF9008954F925F926F928B
:1039F0007F928F929F92AF92BF92CF92DF92EF927F
:103A0000FF920F931F93CF93DF93CDB7DEB72C9721
:103A10000FB6F894DEBF0FBECDBF4C015B0129018C
:103A20003A0160E870E0CE0101960E94B54B8B85AB
:103A30009C85892B09F457C08401055D1F4F14C074
:103A40000E9435456B017C0144275527BA014C196A
:103A50005D096E097F09CE0101960E94D14B8B85CD
:103A60009C85892B09F43FC00E94173BFC01C08054
:103A7000D1800D2C000CEE08FF087601DD24CC244B
:103A80000E94173BFC0182819381092E000CAA0B36
:103A9000BB0BBA2FA92F982F8827C82AD92AEA2A20
:103AA000FB2A0E94173BFC0184819581092E000CA2
:103AB000AA0BBB0BC82AD92AEA2AFB2A60E0C80154
:103AC000C114D104F3E0EF06F10408F0B9CF0E946D
:103AD0003545AB01BC01CE0101960E94D14B8B85CF
:103AE0009C85892B09F6CE0101960E940C4C0E9400
:103AF0000953BB24AA0CBB1CAA0CBB1CAA0CBB1CE4
:103B00008A0C9B1C0E945B51F40162837383848343
:103B1000958346825782608671862C960FB6F894FC
:103B2000DEBF0FBECDBFDF91CF911F910F91FF90F0
:103B3000EF90DF90CF90BF90AF909F908F907F904D
:103B40006F905F904F9008950F931F93CF93DF93E3
:103B5000EC01899199910E9470318C010E949531FC
:103B6000AE01B801DF91CF911F910F910C944F4797
:103B7000CF92DF92EF92FF920F931F93CF93DF9339
:103B8000EC010E94173BFC01C080D1800D2C000C81
:103B9000EE08FF087601DD24CC240E94173BFC01CF
:103BA00082819381092E000CAA0BBB0BBA2FA92F7F
:103BB000982F8827C82AD92AEA2AFB2A0E94173B6D
:103BC000FC0184819581092E000CAA0BBB0BC82A2D
:103BD000D92AEA2AFB2A60E0CE018B96C114D104CF
:103BE000F3E0EF06F104B8F00E9435458B019C012B
:103BF00044275527BA01401B510B620B730BCE01B2
:103C00008E96DF91CF911F910F91FF90EF90DF90F3
:103C1000CF900C94D14B0E943545AB01BC01EFCF46
:103C2000CF92DF92EF92FF920F931F93CF93DF9388
:103C30008C01EC01AE96CE010E940C4C0E940953FF
:103C40000E945B51AB01BC01C80102960E94131790
:103C50006B017C01CE010E94C34BC701B601DF910D
:103C6000CF911F910F91FF90EF90DF90CF9008952B
:103C70005F9808955F9A0895579A08958530910541
:103C800040F4FC01EE0FFF1FED52FE4F8591949121
:103C90000895E3EDF1E08591949108958F929F92BC
:103CA000AF92BF92CF92DF92EF92FF920F931F934A
:103CB000CF93DF93EC0181E08AA77E0184E2E80ED6
:103CC000F11CC7010E941643682F6F7EC7010E9436
:103CD000F8420C811D816E0186E0C80ED11CC8011E
:103CE0000E9450315C010E949531A601B5010E94ED
:103CF000E5464E9709F44DC0F801EE0FFF1FEE0F99
:103D0000FF1FE654FE4F85909590A590B490C50195
:103D1000B40190582BEB33EF3F832E83688779876C
:103D20008A879B8725EF34EF3D872C8726E636E68A
:103D300046E65FE30E949C526E877F87888B998B53
:103D40001B8A1A8A1C8A1D8A1E8A1F8A8BE09BE0A6
:103D5000998F888F26E636E646E65FE3C501B40113
:103D60000E949C526A8F7B8F8C8F9D8F85E49CE094
:103D70009F8F8E8F88A299A2AAA2BBA28C819D81BF
:103D80000E9450315C010E949531A601B5010E944C
:103D90004F47C7010E941643F801E253FE4F0491BA
:103DA000682F607F602BC7010E94F8428AA58111AD
:103DB0000DC0DF91CF911F910F91FF90EF90DF9099
:103DC000CF90BF90AF909F908F9008954881598178
:103DD0006A817B81C6010E944A128C01BC01C60126
:103DE0000E94ED10688379838A839B83B8017058A1
:103DF000CE018596DF91CF911F910F91FF90EF90AB
:103E0000DF90CF90BF90AF909F908F900C941E4406
:103E1000FC0112A608958F929F92AF92BF92CF920B
:103E2000DF92EF92FF920F931F93CF93DF93EC01FA
:103E30008B017D836C837C0186E0E80EF11CCB0155
:103E40000E9450316C010E949531A701B6010E9479
:103E5000E5464E9709F44DC0F801EE0FFF1FEE0F37
:103E6000FF1FE654FE4F85909590A590B490C50134
:103E7000B40190582BEB33EF3F832E83688779870B
:103E80008A879B8725EF34EF3D872C8726E636E629
:103E900046E65FE30E949C526E877F87888B998BF2
:103EA0001B8A1A8A1C8A1D8A1E8A1F8A8BE09BE045
:103EB000998F888F26E636E646E65FE3C501B401B2
:103EC0000E949C526A8F7B8F8C8F9D8F85E49CE033
:103ED0009F8F8E8F88A299A2AAA2BBA28C819D815E
:103EE0000E9450316C010E949531A701B6010E94D9
:103EF0004F476E0184E2C80ED11CC6010E941643D2
:103F0000F801E253FE4F0491682F607F602BC601D9
:103F10000E94F8428AA581110DC0DF91CF911F91B7
:103F20000F91FF90EF90DF90CF90BF90AF909F9058
:103F30008F900895488159816A817B81C7010E94D1
:103F40004A128C01BC01C7010E94ED10688379837D
:103F50008A839B83B8017058CE018596DF91CF91FB
:103F60001F910F91FF90EF90DF90CF90BF90AF9097
:103F70009F908F900C941E44CF92DF92EF92FF920D
:103F80000F931F93CF93DF93EC01188219821A824B
:103F90001B8282E090E09D838C836E0186E0C80ED8
:103FA000D11C1F821E82188619861A861B861D86C2
:103FB0001C861E861F86188A198A1B8A1A8A1C8AE2
:103FC0001D8A1E8A1F8A198E188E1A8E1B8E1C8EB1
:103FD0001D8E1F8E1E8E18A219A21AA21BA28E0160
:103FE0000C5D1F4F60E0C8010E94F5427E0185E232
:103FF000E80EF11CC7010E94D9438CE092E09EA319
:104000008DA3C7010E94F6431AA6C8010E948C43E3
:10401000682F607CC8010E94B843C8010E944243D7
:10402000682F607CC8010E946E4362E070E0CE01A0
:104030000E940B1F40E050E0BA01C6010E944A12E4
:104040008C01BC01C6010E94ED10688379838A83CC
:104050009B83B8017058C701DF91CF911F910F91D9
:10406000FF90EF90DF90CF900C941E4480912E0330
:10407000811107C083E093E00E94BC1F81E0809320
:104080002E0383E093E00895EF92FF920F931F9326
:10409000CF93DF938C017C0186E0E80EF11CC70111
:1040A0000E944A12EC01BC01C7010E94ED10F80108
:1040B0006083718382839383BE017058C8018596A3
:1040C000DF91CF911F910F91FF90EF900C941E44C0
:1040D000CF92DF92EF92FF92CF93DF93EC01EC81CE
:1040E000FD81EE0FFF1FEE0FFF1FE654FE4FC59040
:1040F000D590E590F490C701B60190582BEB33EFC3
:104100003F832E83688779878A879B8725EF34EFE3
:104110003D872C8726E636E646E65FE30E949C5202
:104120006E877F87888B998B1B8A1A8A1C8A1D8AC7
:104130001E8A1F8A8BE09BE0998F888F26E636E6E1
:1041400046E65FE3C701B6010E949C526A8F7B8FEF
:104150008C8F9D8F85E49CE09F8F8E8FC8A2D9A203
:10416000EAA2FBA2DF91CF91FF90EF90DF90CF907A
:1041700008957727FB01EE0FFF1FE60FF71FEE0FE5
:10418000FF1FE80FF91F66817781705885960C94A0
:104190001E447727FB01EE0FFF1F6E0F7F1F660F78
:1041A000771F860F971FFC0120873187428753872F
:1041B00008950F931F93CF93DF93EC018C819D8122
:1041C0000E9450318C010E949531AE014A5F5F4FD1
:1041D000B801DF91CF911F910F910C944F47089533
:1041E00021E030E0FC0134AF23AFBC01655C7F4FC0
:1041F0000C94E43B4430510508F4089528E030E085
:10420000FC0134AF23AFBC01655C7F4F0C94E43BF1
:104210004430510508F408952EE030E0FC0134AF3D
:1042200023AFBC01655C7F4F0C94E43B44305105E7
:1042300008F4089523E130E0FC0134AF23AFBC0162
:10424000655C7F4F0C94E43B4430510508F40895BD
:1042500028E130E0FC0134AF23AFBC01655C7F4F47
:104260000C94E43B4430510508F408952AE130E011
:10427000FC0134AF23AFBC01655C7F4F0C94E43B81
:104280004430510508F408952BE130E0FC0134AFCF
:1042900023AFBC01655C7F4F0C94E43B4430510577
:1042A00008F408952CE130E0FC0134AF23AFBC01E9
:1042B000655C7F4F0C94E43B4430510508F408954D
:1042C0002DE130E0FC0134AF23AFBC01655C7F4FD2
:1042D0000C94E43B4430510508F4089521E230E0A9
:1042E000FC0134AF23AFBC01655C7F4F0C94E43B11
:1042F0004430510508F4089522E230E0FC0134AF67
:1043000023AFBC01655C7F4F0C94E43B4430510506
:1043100008F4089526E230E0FC0134AF23AFBC017D
:10432000655C7F4F0C94E43B4430510508F40895DC
:1043300028E230E0FC0134AF23AFBC01655C7F4F65
:104340000C94E43B4430510508F408952AE230E02F
:10435000FC0134AF23AFBC01655C7F4F0C94E43BA0
:104360004430510508F408952CE230E0FC0134AFEC
:1043700023AFBC01655C7F4F0C94E43B4430510596
:1043800008F408952EE230E0FC0134AF23AFBC0105
:10439000655C7F4F0C94E43B4430510508F408956C
:1043A0002FE230E0FC0134AF23AFBC01655C7F4FEE
:1043B0000C94E43B0F931F93FB01A081B1812B2F41
:1043C0003A2F2033310540F5EB2FFA2FEE0FFF1F68
:1043D000EE0FFF1FE352FE4F059115912591349189
:1043E000F80120FF12C0F901F595E795DC01AE0F49
:1043F000BF1FED91FC911197E00FF11F0190F0812B
:10440000E02DCD011F910F91099435952795820FCD
:10441000931F1F910F9109941F910F910895483098
:10442000510508F40895DB011596EC911597149643
:10443000FC91E230F10580F0E7ECF2E02591349157
:1044400043E050E0FC0154AF43AF36AF25AFBC01B1
:10445000655C7F4F0C94E43BEE0FFF1FE953FD4F6B
:10446000EDCF4830510508F40895DB011596EC9125
:1044700015971496FC91E530F10590F4EE0FFF1FAF
:10448000E354FD4F2591349144E050E0FC0154AFDA
:1044900043AF36AF25AFBC01655C7F4F0C94E43B66
:1044A000EDEBF2E0EFCF4830510578F0FB012481CD
:1044B000358145E050E0FC0154AF43AF35AF26AF46
:1044C000BC01655C7F4F0C94E43B08954830510576
:1044D00078F0FB012481358146E050E0FC0154AFC7
:1044E00043AF35AF26AFBC01655C7F4F0C94E43B16
:1044F00008954830510508F40895DB011596EC91B4
:1045000015971496FC91E230F10580F0E9EBF2E0AA
:10451000259134914AE050E0FC0154AF43AF36AFEF
:1045200025AFBC01655C7F4F0C94E43BEE0FFF1F91
:10453000E754FD4FEDCF4830510578F0FB01248161
:1045400035814BE050E0FC0154AF43AF35AF26AFAF
:10455000BC01655C7F4F0C94E43B089548305105E5
:1045600078F0FB01248135814CE050E0FC0154AF30
:1045700043AF35AF26AFBC01655C7F4F0C94E43B85
:1045800008954830510508F40895DB011596EC9123
:1045900015971496FC91E530F10590F4EE0FFF1F8E
:1045A000E155FD4F2591349140E150E0FC0154AFBD
:1045B00043AF36AF25AFBC01655C7F4F0C94E43B45
:1045C000EFEAF2E0EFCF4830510578F0FB012481AB
:1045D000358141E150E0FC0154AF43AF35AF26AF28
:1045E000BC01655C7F4F0C94E43B08954830510555
:1045F00078F0FB012481358144E150E0FC0154AFA7
:1046000043AF35AF26AFBC01655C7F4F0C94E43BF4
:1046100008954830510508F40895DB011596EC9192
:1046200015971496FC91E630F10590F4EE0FFF1FFC
:10463000ED55FD4F2591349145E150E0FC0154AF1B
:1046400043AF36AF25AFBC01655C7F4F0C94E43BB4
:10465000E3EAF2E0EFCF4830510578F0FB01248126
:10466000358146E150E0FC0154AF43AF35AF26AF92
:10467000BC01655C7F4F0C94E43B089548305105C4
:1046800078F0FB012481358149E150E0FC0154AF11
:1046900043AF35AF26AFBC01655C7F4F0C94E43B64
:1046A00008954830510578F0FB01248135814EE1B1
:1046B00050E0FC0154AF43AF35AF26AFBC01655CA1
:1046C0007F4F0C94E43B08954830510508F4089559
:1046D000E1EAF2E02591349143E250E0FC0154AF6D
:1046E00043AF36AF25AFBC01655C7F4F0C94E43B14
:1046F0004830510578F0FB012481358144E250E0D7
:10470000FC0154AF43AF35AF26AFBC01655C7F4FB2
:104710000C94E43B08954830510578F0FB01248166
:10472000358147E250E0FC0154AF43AF35AF26AFCF
:10473000BC01655C7F4F0C94E43B08954830510503
:1047400008F40895DB011596EC9115971496FC91E9
:10475000E230F10580F0EDE9F2E02591349149E293
:1047600050E0FC0154AF43AF36AF25AFBC01655CF0
:104770007F4F0C94E43BEE0FFF1FE356FD4FEDCF50
:104780004830510578F0FB01248135814DE250E03D
:10479000FC0154AF43AF35AF26AFBC01655C7F4F22
:1047A0000C94E43B0895FB014830510598F02481B6
:1047B00035814681578162E070E0FC0174AF63AFE0
:1047C000FD965083418332832383BC01655C7F4F18
:1047D0000C94E43B0895FB0148305105A8F0478153
:1047E0005681658174812BE230E0FC0134AF23AF48
:1047F000FD96662777274083518362837383BC01CC
:10480000655C7F4F0C94E43B0895FB014C305105EF
:10481000D8F044815581B385A2853185208567E034
:1048200070E0FC0174AF63AF55AF46AFFF964B2FFE
:104830005A2F632F722F4083518362837383BC018D
:10484000655C7F4F0C94E43B0895FB0148305105B3
:10485000B8F0B781A6813581248149E050E0FC01A0
:1048600054AF43AFFD964B2F5A2F632F722F4083C7
:10487000518362837383BC01655C7F4F0C94E43B7E
:104880000895FB014C305105D8F044815581B38522
:10489000A285318520856DE070E0FC0174AF63AFC7
:1048A00055AF46AFFF964B2F5A2F632F722F408381
:1048B000518362837383BC01655C7F4F0C94E43B3E
:1048C0000895FB0148305105B8F0B781A6813581C4
:1048D00024814FE050E0FC0154AF43AFFD964B2FD5
:1048E0005A2F632F722F4083518362837383BC01DD
:1048F000655C7F4F0C94E43B0895FB014C305105FF
:10490000D8F044815581B385A2853185208562E147
:1049100070E0FC0174AF63AF55AF46AFFF964B2F0D
:104920005A2F632F722F4083518362837383BC019C
:10493000655C7F4F0C94E43B0895FB014C305105BE
:10494000D8F044815581B385A2853185208567E102
:1049500070E0FC0174AF63AF55AF46AFFF964B2FCD
:104960005A2F632F722F4083518362837383BC015C
:10497000655C7F4F0C94E43B0895FB014C3051057E
:10498000D8F044815581B385A2853185208565E2C3
:1049900070E0FC0174AF63AF55AF46AFFF964B2F8D
:1049A0005A2F632F722F4083518362837383BC011C
:1049B000655C7F4F0C94E43B08954830510578F0D6
:1049C000FB01248135814FE150E0FC0154AF43AF3E
:1049D00035AF26AFBC01655C7F4F0C94E43B089576
:1049E000FB014830510598F044815581268137817B
:1049F00060E270E0FC0174AF63AF55AF46AFFF9665
:104A000030832183BC01655C7F4F0C94E43B0895A7
:104A1000AF92BF92CF92DF92EF92FF920F931F93CC
:104A2000CF93DF937C010E94B0480E9470495C01E3
:104A30000E94A648EC01892B59F4DF91CF911F9178
:104A40000F91FF90EF90DF90CF90BF90AF900895BF
:104A5000670186E0C80ED11C85015701EEE0AE0E5D
:104A6000B11C05C0C6010E943B42219731F3F801F9
:104A700061918F01C6010E944F42F70190A99923CD
:104A8000A1F3408551854430510560F3B501C7015C
:104A90000E94DA21E7CF8530910540F4FC01EE0F4A
:104AA000FF1FE354FD4F859194910895EDEBF2E0E3
:104AB0008591949108958230910528F0E9EBF2E018
:104AC000859194910895FC01EE0FFF1FE754FD4F6F
:104AD0008591949108958530910540F4FC01EE0F85
:104AE000FF1FE155FD4F859194910895EFEAF2E0A3
:104AF0008591949108958630910540F4FC01EE0F64
:104B0000FF1FED55FD4F859194910895E3EAF2E082
:104B1000859194910895E1EAF2E085919491089548
:104B20008230910528F0EDE9F2E0859194910895A5
:104B3000FC01EE0FFF1FE356FD4F85919491089500
:104B400080917903811121C086E393E00E94C43BE8
:104B500086E192E090933703809336038CE393E0F1
:104B60000E94274210926E0310926D031092700300
:104B700010926F030E94B04840E855E260E070E098
:104B80000E94164981E08093790386E393E00895BB
:104B9000CF93DF9300D000D0CDB7DEB749835A83DF
:104BA0006B837C830E94B04849815A816B817C81F0
:104BB0000F900F900F900F90DF91CF910C94F548CC
:104BC000CF93DF9300D000D0CDB7DEB749835A83AF
:104BD0006B837C830E94B04849815A816B817C81C0
:104BE0000F900F900F900F90DF91CF910C9416497A
:104BF0000E94B04840E855E260E070E00C9416492D
:104C00008F929F92AF92BF92CF92DF92EF92FF92DC
:104C10000F931F93CF93DF9300D000D0CDB7DEB7B3
:104C20005B01C7966C016CE270E029833A834B8389
:104C30005C830E94F3414C01FC01108681E0818776
:104C4000138612865C8154A74B8145A73A8136A70B
:104C5000298127A710AB01ABF2AAE3AAC4010C96E5
:104C600020E2FC0111922A95E9F7B5010E948656CF
:104C7000C4010E94D441F401058114810E94B0480E
:104C8000A801485F5F4FB4010E94AB49B401C6015F
:104C90000F900F900F900F90DF91CF911F910F9178
:104CA000FF90EF90DF90CF90BF90AF909F908F904C
:104CB0000C942642EF92FF920F931F93CF93DF93B2
:104CC000C7967C0164E070E00E94F341EC01188615
:104CD00019861B861A860E94D4410D811C810E9470
:104CE000B048A801485F5F4FBE010E94AB49BE01BA
:104CF000C701DF91CF911F910F91FF90EF900C941E
:104D00002642CF92DF92EF92FF920F931F93CF93A1
:104D1000DF9300D0CDB7DEB7162F072FC7967C01E3
:104D200068E070E049835A830E94F3416C01FC0102
:104D3000108682E0818713861286048715875A8140
:104D4000568749814787C6010E94D441F6010581F3
:104D500014810E94B048A801485F5F4FB6010E94CD
:104D6000AB49B601C7010F900F90DF91CF911F9112
:104D70000F91FF90EF90DF90CF900C942642EF922E
:104D8000FF920F931F93CF93DF93162F072FC79692
:104D90007C0168E070E00E94F341EC01188683E03A
:104DA00089871B861A860C871D871F861E86CE0163
:104DB0000E94D4410D811C810E94B048A801485F27
:104DC0005F4FBE010E94AB49BE01C701DF91CF9189
:104DD0001F910F91FF90EF900C942642EF92FF925B
:104DE0000F931F93CF93DF93162F072FC7967C0146
:104DF00068E070E00E94F341EC01188684E0898746
:104E00001B861A860C871D871F861E86CE010E9470
:104E1000D4410D811C810E94B048A801485F5F4FBA
:104E2000BE010E94AB49BE01C701DF91CF911F9126
:104E30000F91FF90EF900C942642AF92BF92CF92C9
:104E4000DF92EF92FF920F931F93CF93DF9300D0E7
:104E500000D0CDB7DEB7D62EC72EC7967C016CE04A
:104E600070E02B833C8349835A830E94F3415C01A9
:104E7000FC01108685E0818713861286C486D5865C
:104E80005A815687498147873C812B81C801432F2E
:104E9000522F692F702FF501408B518B628B738BD2
:104EA000C5010E94D441F501058114810E94B048DA
:104EB000A801485F5F4FB5010E94AB49B501C7012A
:104EC0000F900F900F900F90DF91CF911F910F9146
:104ED000FF90EF90DF90CF90BF90AF900C94264260
:104EE000AF92BF92CF92DF92EF92FF920F931F93F8
:104EF000CF93DF9300D000D0CDB7DEB7D62EC72E2C
:104F0000C7967C016CE070E02B833C8349835A8315
:104F10000E94F3415C01FC01108686E081871386C4
:104F20001286C486D5865A815687498147873C8137
:104F30002B81C801432F522F692F702FF501408B11
:104F4000518B628B738BC5010E94D441F5010581A1
:104F500014810E94B048A801485F5F4FB5010E94CC
:104F6000AB49B501C7010F900F900F900F90DF91E3
:104F7000CF911F910F91FF90EF90DF90CF90BF9056
:104F8000AF900C942642AF92BF92CF92DF92EF92F5
:104F9000FF920F931F93CF93DF9300D000D0CDB734
:104FA000DEB7D62EC72EC7967C016CE070E02B834F
:104FB0003C8349835A830E94F3415C01FC011086C3
:104FC00087E0818713861286C486D5865A815687E4
:104FD000498147873C812B81C801432F522F692F7C
:104FE000702FF501408B518B628B738BC5010E9432
:104FF000D441F501058114810E94B048A801485FA1
:105000005F4FB5010E94AB49B501C7010F900F90EA
:105010000F900F90DF91CF911F910F91FF90EF9024
:10502000DF90CF90BF90AF900C942642EF92FF920A
:105030000F931F93CF93DF93C7967C0164E070E0DA
:105040000E94F341EC01188688E089871B861A8646
:10505000CE010E94D4410D811C810E94B048A8015C
:10506000485F5F4FBE010E94AB49BE01C701DF919F
:10507000CF911F910F91FF90EF900C942642CF9209
:10508000DF92EF92FF920F931F93CF93DF9300D0A5
:10509000CDB7DEB7162F072FC7967C0168E070E00A
:1050A00049835A830E94F3416C01FC01108689E018
:1050B0008187138612865A81952F4981842F402F2C
:1050C000512F692F782F4487558766877787C601C8
:1050D0000E94D441F601058114810E94B048A801C4
:1050E000485F5F4FB6010E94AB49B601C7010F9000
:1050F0000F90DF91CF911F910F91FF90EF90DF9074
:10510000CF900C942642EF92FF920F931F93CF9370
:10511000DF93162F072FC7967C0168E070E00E948E
:10512000F341EC0118868AE089871B861A860C8772
:105130001D871F861E86CE010E94D4410D811C81D1
:105140000E94B048A801485F5F4FBE010E94AB4972
:10515000BE01C701DF91CF911F910F91FF90EF909A
:105160000C942642AF92BF92CF92DF92EF92FF92C1
:105170000F931F93CF93DF9300D000D0CDB7DEB74E
:10518000D62EC72EC7967C016CE070E02B833C8343
:1051900049835A830E94F3415C01FC0110868BE035
:1051A000818713861286C486D5865A81568749819F
:1051B00047873C812B81C801432F522F692F702FC5
:1051C000F501408B518B628B738BC5010E94D441DA
:1051D000F501058114810E94B048A801485F5F4F26
:1051E000B5010E94AB49B501C7010F900F900F9018
:1051F0000F90DF91CF911F910F91FF90EF90DF9073
:10520000CF90BF90AF900C942642AF92BF92CF92B6
:10521000DF92EF92FF920F931F93CF93DF9300D013
:1052200000D0CDB7DEB7D62EC72EC7967C016CE076
:1052300070E02B833C8349835A830E94F3415C01D5
:10524000FC0110868CE0818713861286C486D58681
:105250005A815687498147873C812B81C801432F5A
:10526000522F692F702FF501408B518B628B738BFE
:10527000C5010E94D441F501058114810E94B04806
:10528000A801485F5F4FB5010E94AB49B501C70156
:105290000F900F900F900F90DF91CF911F910F9172
:1052A000FF90EF90DF90CF90BF90AF900C9426428C
:1052B000AF92BF92CF92DF92EF92FF920F931F9324
:1052C000CF93DF9300D000D0CDB7DEB7D62EC72E58
:1052D000C7967C016CE070E02B833C8349835A8342
:1052E0000E94F3415C01FC0110868DE081871386EA
:1052F0001286C486D5865A815687498147873C8164
:105300002B81C801432F522F692F702FF501408B3D
:10531000518B628B738BC5010E94D441F5010581CD
:1053200014810E94B048A801485F5F4FB5010E94F8
:10533000AB49B501C7010F900F900F900F90DF910F
:10534000CF911F910F91FF90EF90DF90CF90BF9082
:10535000AF900C942642EF92FF920F931F93CF933E
:10536000DF93C7967C0164E070E00E94F341EC019A
:1053700018868EE089871B861A86CE010E94D4414A
:105380000D811C810E94B048A801485F5F4FBE019B
:105390000E94AB49BE01C701DF91CF911F910F91D0
:1053A000FF90EF900C942642CF92DF92EF92FF9203
:1053B0000F931F93CF93DF9300D0CDB7DEB7162F97
:1053C000072FC7967C0168E070E049835A830E94EA
:1053D000F3416C01FC0110868FE0818713861286F1
:1053E0005A81952F4981842F402F512F692F782F73
:1053F0004487558766877787C6010E94D441F601A6
:10540000058114810E94B048A801485F5F4FB60132
:105410000E94AB49B601C7010F900F90DF91CF9169
:105420001F910F91FF90EF90DF90CF900C94264248
:10543000EF92FF920F931F93CF93DF93162F072FB7
:10544000C7967C0168E070E00E94F341EC01188689
:1054500080E189871B861A860C871D871F861E861A
:10546000CE010E94D4410D811C810E94B048A80148
:10547000485F5F4FBE010E94AB49BE01C701DF918B
:10548000CF911F910F91FF90EF900C9426428F9235
:105490009F92AF92BF92CF92DF92EF92FF920F93C3
:1054A0001F93CF93DF9300D000D0CDB7DEB7B62ED9
:1054B000A72EC7966C0160E170E029833A834B8385
:1054C0005C830E94F3414C01FC01108681E18187DD
:1054D00013861286A486B586178616865C81508B45
:1054E0004B81418B3A81328B2981238B9801C701F3
:1054F000432F502F692F7E2D448B558B668B778BD6
:10550000C4010E94D441F401058114810E94B04875
:10551000A801485F5F4FB4010E94AB49B401C601C6
:105520000F900F900F900F90DF91CF911F910F91DF
:10553000FF90EF90DF90CF90BF90AF909F908F90B3
:105540000C9426428F929F92AF92BF92CF92DF929D
:10555000EF92FF920F931F93CF93DF9300D000D071
:10556000CDB7DEB7B62EA72EC7966C0160E170E00E
:1055700029833A834B835C830E94F3414C01FC01F5
:10558000108682E1818713861286A486B5861786E7
:1055900016865C81508B4B81418B3A81328B2981FD
:1055A000238B9801C701432F502F692F7E2D448BE9
:1055B000558B668B778BC4010E94D441F401058121
:1055C00014810E94B048A801485F5F4FB4010E9457
:1055D000AB49B401C6010F900F900F900F90DF916F
:1055E000CF911F910F91FF90EF90DF90CF90BF90E0
:1055F000AF909F908F900C942642EF92FF920F9362
:105600001F93CF93DF93C7967C0164E070E00E9404
:10561000F341EC01188683E189871B861A86CE0147
:105620000E94D4410D811C810E94B048A801485FAE
:105630005F4FBE010E94AB49BE01C701DF91CF9110
:105640001F910F91FF90EF900C942642CF92DF9222
:10565000EF92FF920F931F93CF93DF9300D0CDB7BC
:10566000DEB7162F072FC7967C0168E070E04983EC
:105670005A830E94F3416C01FC01108684E181870A
:10568000138612865A81952F4981842F402F512FDE
:10569000692F782F4487558766877787C6010E94D0
:1056A000D441F601058114810E94B048A801485FE9
:1056B0005F4FB6010E94AB49B601C7010F900F9032
:1056C000DF91CF911F910F91FF90EF90DF90CF90DE
:1056D0000C942642EF92FF920F931F93CF93DF9388
:1056E000162F072FC7967C0168E070E00E94F341F7
:1056F000EC01188685E189871B861A860C871D8731
:105700001F861E86CE010E94D4410D811C810E94FD
:10571000B048A801485F5F4FBE010E94AB49BE017F
:10572000C701DF91CF911F910F91FF90EF900C94E3
:1057300026428F929F92AF92BF92CF92DF92EF92CA
:10574000FF920F931F93CF93DF9300D000D0CDB77C
:10575000DEB7B62EA72EC7966C0160E170E02983F4
:105760003A834B835C830E94F3414C01FC01108619
:1057700086E1818713861286A486B58617861686EB
:105780005C81508B4B81418B3A81328B2981238BF9
:105790009801C701432F502F692F7E2D448B558BC5
:1057A000668B778BC4010E94D441F401058114817A
:1057B0000E94B048A801485F5F4FB4010E94AB4906
:1057C000B401C6010F900F900F900F90DF91CF9111
:1057D0001F910F91FF90EF90DF90CF90BF90AF900F
:1057E0009F908F900C9426428F929F92AF92BF927F
:1057F000CF92DF92EF92FF920F931F93CF93DF939D
:1058000000D000D0CDB7DEB7B62EA72EC7966C015C
:1058100060E170E029833A834B835C830E94F3410B
:105820004C01FC01108687E1818713861286A486CD
:10583000B586178616865C81508B4B81418B3A81E9
:10584000328B2981238B9801C701432F502F692F59
:105850007E2D448B558B668B778BC4010E94D4417F
:10586000F401058114810E94B048A801485F5F4F90
:10587000B4010E94AB49B401C6010F900F900F9084
:105880000F90DF91CF911F910F91FF90EF90DF90DC
:10589000CF90BF90AF909F908F900C942642EF9244
:1058A000FF920F931F93CF93DF93C7967C0164E021
:1058B00070E00E94F341EC01188688E189871B861D
:1058C0001A86CE010E94D4410D811C810E94B048ED
:1058D000A801485F5F4FBE010E94AB49BE01C701EE
:1058E000DF91CF911F910F91FF90EF900C94264282
:1058F000CF92DF92EF92FF920F931F93CF93DF939C
:1059000000D0CDB7DEB7162F072FC7967C0168E011
:1059100070E049835A830E94F3416C01FC011086B8
:1059200089E18187138612865A81952F4981842FB8
:10593000402F512F692F782F4487558766877787A7
:10594000C6010E94D441F601058114810E94B0482D
:10595000A801485F5F4FB6010E94AB49B601C7017D
:105960000F900F90DF91CF911F910F91FF90EF90CB
:10597000DF90CF900C942642EF92FF920F931F93EB
:10598000CF93DF93C7967C0164E070E00E94F341FF
:10599000EC0118868AE189871B861A86CE010E944F
:1059A000D4410D811C810E94B048A801485F5F4F1F
:1059B000BE010E94AB49BE01C701DF91CF911F918B
:1059C0000F91FF90EF900C942642EF92FF920F936D
:1059D0001F93CF93DF93C7967C0164E070E00E9431
:1059E000F341EC0118868BE189871B861A86CE016C
:1059F0000E94D4410D811C810E94B048A801485FDB
:105A00005F4FBE010E94AB49BE01C701DF91CF913C
:105A10001F910F91FF90EF900C942642EF92FF920E
:105A20000F931F93CF93DF93C7967C0164E070E0E0
:105A30000E94F341EC0118868CE189871B861A8647
:105A4000CE010E94D4410D811C810E94B048A80162
:105A5000485F5F4FBE010E94AB49BE01C701DF91A5
:105A6000CF911F910F91FF90EF900C942642EF92EF
:105A7000FF920F931F93CF93DF93C7967C0164E04F
:105A800070E00E94F341EC0118868DE189871B8646
:105A90001A86CE010E94D4410D811C810E94B0481B
:105AA000A801485F5F4FBE010E94AB49BE01C7011C
:105AB000DF91CF911F910F91FF90EF900C942642B0
:105AC000CF92DF92EF92FF920F931F93CF93DF93CA
:105AD00000D0CDB7DEB7162F072FC7967C0168E040
