:100000000C94A6020C94CE020C94CE020C94CE0258
:100010000C94CE020C94CE020C94CE020C94CE0220
:100020000C94CE020C94CE020C94CE020C94CE0210
:100030000C94CE020C94CE020C94CE020C94CE0200
:100040000C94FF440C94CE020C94CE020C94CE027D
:100050000C94D4450C94CE020C94CE020C94CE0297
:100060000C94CE020C94CE020C94CE020C94CE02D0
:10007000A50100007A4406A50100007A4405A50107
:1000800000007A4404B2010000803F06B201000083
:10009000803F05B2010000803F04BC010024744988
:1000A00005BC010024744904CB0100007A4406CB4E
:1000B0000100007A4405CB0100007A4404D002001C
:1000C00000D2020000D1020000910900002B0300C1
:1000D0000099030000CB03000002040000810C0023
:1000E0000051040000810400009D040000CF0400C2
:1000F0000006050000C60C00005505000062030064
:100100000085050000C90500003C0C0000C5090081
:10011000001D060000390600007D060000F70B00F8
:1001200000B60A0000D1060000D9060000E1060072
:1001300000E906000022090000F10600002B07007C
:10014000007E07000086070000E4080000DD0700CD
:10015000003D080000A70B0000A70800002A0800C7
:10016000008E070000AA070000BB070000462F779B
:10017000206465762000492D5620536F75726365A3
:10018000204D6574657200ACC5273717B7D1386F3D
:1001900012833A0AD7233CCDCCCC3D08040201009F
:1001A00000000100020003000400ACC5273717B7A8
:1001B000D1386F12833A0AD7233CCDCCCC3D08040A
:1001C00002010000000100020003000400FF1F0004
:1001D0000000200000FD230000F520000017210092
:1001E00000392100004C210000A62200000A200056
:1001F00000C52200005F2100008121000094210041
:1002000000E022000018200000FF220000A72100CB
:1002100000C92100001A23000026200000DC210074
:1002200000EF2100001122000039230000342000DB
:10023000002422000042200000502000005E200028
:10024000006C20000037220000772300008A230082
:10025000007A200000882000004A2200005E220070
:1002600000582300009620000071220000A4200006
:100270000084220000B2200000A123000000000141
:10028000000000000001000200030004000500005F
:100290000001000200030004000000010000000152
:1002A00000020003000400000001001E001E001EEA
:1002B000001E001E001E001E002800280028002826
:1002C00000280028002800280028002800280020F6
:1002D00000280013000C000D000E000F001000118C
:1002E000000700080009000A000B000500060000D6
:1002F0000001000200030004006F12833A0AD723B2
:100300003CCDCCCC3D0000803F000020410000C827
:100310004208040201003000000100000001000258
:100320000003000400050000002041000000002040
:10033000410000C842002000000100030003000249
:10034000000AD7233C0300030003000AD7233C0321
:1003500000030004000AD7233C0200020004006FDF
:1003600012833A01000100040017B7D138010001DF
:10037000000400ACC52737010001000400BD37862A
:10038000350300030002000AD7233CCDCCCC3D034B
:1003900000030003000AD7233C0000803F03000352
:1003A0000004000AD7233C000020410200020004A0
:1003B000006F12833A000020410100010004001781
:1003C000B7D13800002041010001000400ACC5276E
:1003D0003700002041010001000400BD37863500D0
:1003E0000020410000010002000300040005000697
:1003F0000080C0383E0000393E00003F3E0000450E
:100400003E000000FFFFFFFF000100FF0020001082
:100410000008000400010203C2460000C9460000B3
:10042000E8460000744700000747000094470000BA
:100430000E470000154700001C470000344700002D
:100440003B4700005F4700006E616E00696E66000A
:1004500000407A10F35A00A0724E18090010A5D47B
:10046000E80000E87648170000E40B54020000CAD8
:100470009A3B000000E1F50500008096980000001E
:1004800040420F000000A08601000000102700007D
:100490000000E803000000006400000000000A0003
:1004A000000000000100000000002C76D888DC6706
:1004B0004F0823DFC1DFAE59E1B1B796E5E3E4535E
:1004C000C63AE651997696E8E6C28426EB898C9B7B
:1004D00062ED407C6FFCEFBC9C9F40F2BAA56FA51B
:1004E000F490055A2AF75C936B6CF9676DC11BFC9D
:1004F000E0E40D47FEF520E6B500D0ED902E0300B8
:10050000943577050080841E080000204E0A000004
:1005100000C80C333333330F986E12831141EF8DC3
:100520002114893BE65516CFFEE6DB18D1844B3803
:100530001BF77C1D901DA4BBE424203284725E2234
:100540008100C9F124ECA1E53D276A3911241FBEC1
:10055000CFEFD0E1DEBFCDBF12E0A0E0B1E0EAEF27
:10056000F6EA02C005900D92A235B107D9F725E051
:10057000A2E5B2E001C01D92A334B207E1F712E098
:10058000C6EAD2E004C02197FE010E949350C53A0A
:10059000D107C9F70E94E40F0C947B530C94000020
:1005A00008950895CF92DF92EF92FF920F931F93D9
:1005B000CF93DF9300D000D0CDB7DEB70E94933841
:1005C000FC01C080D1800D2C000CEE08FF087601E4
:1005D000DD24CC240E949338FC0182819381092E72
:1005E000000CAA0BBB0BBA2FA92F982F8827C82A5B
:1005F000D92AEA2AFB2A0E949338FC0124813581FA
:10060000C901330FAA0BBB0BA7019601282B392B6D
:100610004A2B5B2B29833A834B835C830E9488247B
:100620001DEFE12EFF24FA940FEF1FEF29813A818D
:100630004B815C8168E171E00E94A8240F900F90CB
:100640000F900F90DF91CF911F910F91FF90EF903E
:10065000DF90CF9008950F931F93CF93DF93EB011B
:100660008A819B810E94C0198C010E94731AB80173
:100670000E94D0190E94731AFC01808191810E940E
:1006800053248C010E948824B8010E945B288A812F
:100690009B810E944E1DEC010E94461FBE010E94DC
:1006A0001B1E0E94461FFC01848195810E943324F9
:1006B000EC010E948824BE01DF91CF911F910F9120
:1006C0000C9431250F931F93CF93DF93EB018A8115
:1006D0009B810E944E1D8C010E94461FB8010E9402
:1006E0001B1E0E94461FFC01848195810E943324B9
:1006F0008C010E948824B8010E9431258A819B8147
:100700000E94C019EC010E94731ABE010E94D01908
:100710000E94731AFC01808191810E945324EC0194
:100720000E948824BE01DF91CF911F910F910C94FC
:100730005B288F929F92AF92BF92EF92FF920F939E
:100740001F93CF93DF93FB01C281D3810E94461F89
:10075000DD27FE01EE0FFF1FEC0FFD1FEE0FFF1F49
:10076000E80FF91F80849184A284B384E680F78027
:100770000E94882495018401A701BE010E94602582
:10078000DF91CF911F910F91FF90EF90BF90AF90AD
:100790009F908F9008958F929F92AF92BF92EF9209
:1007A000FF920F931F93CF93DF93FB01C281D381FD
:1007B000DD270E94461FBE010E94C91F0E94461FDE
:1007C000FE01EE0FFF1FEC0FFD1FEE0FFF1FE80FE6
:1007D000F91F80849184A284B384E680F7800E940C
:1007E000882495018401A701BE010E94B325DF91F1
:1007F000CF911F910F91FF90EF90BF90AF909F907E
:100800008F9008958F929F92AF92BF92CF92DF9276
:10081000EF92FF920F931F93CF93DF9300D000D0FE
:10082000CDB7DEB7FB012481358146815781C28077
:10083000D380DD2429833A834B835C830E94461F47
:1008400029813A814B815C81B6010E94D91F0E94A7
:10085000461FF601EE0FFF1FEC0DFD1DEE0FFF1FF3
:10086000E80FF91F80849184A284B384E680F78026
:100870000E94882495018401A701B6010E940626E2
:100880000F900F900F900F90DF91CF911F910F91CC
:10089000FF90EF90DF90CF90BF90AF909F908F90A0
:1008A0000895CF93DF9300D000D0CDB7DEB7FB0122
:1008B000428153816481758149835A836B837C8330
:1008C0000E94461F49815A816B817C810E94541F7E
:1008D0000E94461FFC0140815181628173814983DE
:1008E0005A836B837C830E94882449815A816B815F
:1008F0007C810F900F900F900F90DF91CF910C940F
:100900008226CF93DF93FB01828193810E94B234D0
:10091000EC010E94DE35BE010E94C5340E94DE3526
:10092000FC01848195810E944324EC010E9488246B
:10093000BE01DF91CF910C94C6268F929F92AF9209
:10094000BF92EF92FF920F931F93CF93DF93FB0120
:10095000C281D3810E94DE35DD27FE01EE0FFF1F2D
:10096000EC0FFD1FEE0FFF1FE80FF91F808491842D
:10097000A284B384E680F7800E94882495018401D4
:10098000A701BE010E94F526DF91CF911F910F9123
:10099000FF90EF90BF90AF909F908F9008958F92AF
:1009A0009F92AF92BF92EF92FF920F931F93CF93BC
:1009B000DF93FB01C281D381DD270E94DE35BE01BA
:1009C0000E949A360E94DE35FE01EE0FFF1FEC0FEB
:1009D000FD1FEE0FFF1FE80FF91F80849184A28492
:1009E000B384E680F7800E94882495018401A701E2
:1009F000BE010E944827DF91CF911F910F91FF9078
:100A0000EF90BF90AF909F908F9008958F929F929C
:100A1000AF92BF92CF92DF92EF92FF920F931F930C
:100A2000CF93DF9300D000D0CDB7DEB7FB01248198
:100A3000358146815781C280D380DD2429833A8362
:100A40004B835C830E94DE3529813A814B815C8136
:100A5000B6010E94AA360E94DE35F601EE0FFF1F96
:100A6000EC0DFD1DEE0FFF1FE80FF91F8084918430
:100A7000A284B384E680F7800E94882495018401D3
:100A8000A701B6010E949B270F900F900F900F9027
:100A9000DF91CF911F910F91FF90EF90DF90CF905A
:100AA000BF90AF909F908F900895CF93DF9300D029
:100AB00000D0CDB7DEB7FB014281538164817581DF
:100AC00049835A836B837C830E94DE3549815A8136
:100AD0006B817C810E9425360E94DE35FC014081BD
:100AE00051816281738149835A836B837C830E9425
:100AF000882449815A816B817C810F900F900F90DF
:100B00000F90DF91CF910C941728AF92BF92CF92A4
:100B1000DF92EF92FF920F931F93CF93DF9300D05A
:100B200000D0CDB7DEB7FB01E280F3800E94731ADC
:100B30005701BB24F501EE0FFF1FEE0FFF1FEE0F55
:100B4000FF1FE80FF91FC680D780E084F18422815F
:100B500033814481558129833A834B835C830E948E
:100B600088248701760129813A814B815C81B50116
:100B70000E948A280F900F900F900F90DF91CF91D5
:100B80001F910F91FF90EF90DF90CF90BF90AF90AB
:100B90000895AF92BF92CF92DF92EF92FF920F93A0
:100BA0001F93CF93DF9300D000D0CDB7DEB7FB010A
:100BB0002481358146815781A280B380BB2429835B
:100BC0003A834B835C830E94731A29813A814B815B
:100BD0005C81B5010E94051C0E94731AF501EE0F9D
:100BE000FF1FEE0FFF1FEE0FFF1FE80FF91FC6805C
:100BF000D780E084F1842281338144815581298327
:100C00003A834B835C830E94882487017601298183
:100C10003A814B815C81B5010E94E5280F900F90CD
:100C20000F900F90DF91CF911F910F91FF90EF9058
:100C3000DF90CF90BF90AF900895CF93DF93FB01EB
:100C4000828193810E94332FEC010E948430BE0187
:100C50000E94532F0E948430FC01808191810E9468
:100C60006324EC010E948824BE01DF91CF910C9493
:100C7000AD29AF92BF92CF92DF92EF92FF920F9386
:100C80001F93CF93DF9300D000D0CDB7DEB7FB0129
:100C9000E280F3800E9484305701BB24F501EE0FFF
:100CA000FF1FEE0FFF1FEE0FFF1FE80FF91FC6809B
:100CB000D780E084F1842281338144815581298366
:100CC0003A834B835C830E948824870176012981C3
:100CD0003A814B815C81B5010E94DC290F900F9015
:100CE0000F900F90DF91CF911F910F91FF90EF9098
:100CF000DF90CF90BF90AF900895AF92BF92CF9208
:100D0000DF92EF92FF920F931F93CF93DF9300D068
:100D100000D0CDB7DEB7FB012481358146815781F4
:100D2000A280B380BB2429833A834B835C830E94D7
:100D3000843029813A814B815C81B5010E94543114
:100D40000E948430F501EE0FFF1FEE0FFF1FEE0F24
:100D5000FF1FE80FF91FC680D780E084F18422814D
:100D600033814481558129833A834B835C830E947C
:100D700088248701760129813A814B815C81B50104
:100D80000E94372A0F900F900F900F90DF91CF9114
:100D90001F910F91FF90EF90DF90CF90BF90AF9099
:100DA00008950E94461F0E94781F0E9488240C9478
:100DB000FF2A0E94DE350E9449360E9488240C9446
:100DC000282B0E94731A0E949E1B0E9488240C9458
:100DD000512B0E9484300E94ED300E9488240C9494
:100DE0007A2BCF93DF93FB01828193818130910530
:100DF00021F18230910599F0892B19F0DF91CF9183
:100E000008950E949338FC01C081D1810E948824FA
:100E1000AE0160E070E0DF91CF910C94E72B0E946F
:100E20009338FC01C481D5810E948824AE0162E020
:100E300070E0DF91CF910C94E72B0E949338FC0176
:100E4000C281D3810E948824AE0161E070E0DF910D
:100E5000CF910C94E72BCF93DF93FB018281938199
:100E6000C481D58181309105B1F18230910501F1C4
:100E7000009759F08130910599F182309105E9F0A0
:100E8000892B41F0DF91CF9108950E949338FC01A6
:100E9000D183C0830E949338FC01C081D1810E941C
:100EA0008824AE0160E070E0DF91CF910C94252C96
:100EB0000E949338FC01D583C4830E949338FC01BF
:100EC000C481D5810E948824AE0162E070E0DF9188
:100ED000CF910C94252C0E949338FC01D383C283BC
:100EE0000E949338FC01C281D3810E948824AE0104
:100EF00061E070E0DF91CF910C94252C0E94933833
:100F00000E94ED380E9488240C94632C0E94933830
:100F10000E94F9380E9488240C948C2CCF93DF9384
:100F2000FB01828193810E94432FEC010E94843057
:100F3000BE010E94FD310E948430FC0183AD94AD5E
:100F40000E947824EC010E948824BE01DF91CF9199
:100F50000C94302ECF93DF930E948430FC0183AD3C
:100F600094AD0E947824EC010E948824BE01DF9198
:100F7000CF910C945F2ECF93DF9300D000D0CDB7EC
:100F8000DEB7FB014281538164817581FC01468398
:100F900057836087718749835A836B837C830E9460
:100FA000882449815A816B817C810F900F900F902A
:100FB0000F90DF91CF910C948E2EAF92BF92CF9273
:100FC000DF92EF92FF920F931F93CF93DF9300D0A6
:100FD00000D0CDB7DEB7FB01E280F38080919602AE
:100FE000811107C081E692E00E943E3281E0809349
:100FF00096025701BB24F501EE0FFF1FEE0FFF1FF6
:10100000EE0FFF1FEF59FD4FC184D284E384F484B7
:10101000258136814781508529833A834B835C83C0
:101020000E9488248701760129813A814B815C8165
:10103000B5010E94E42C0F900F900F900F90DF915C
:10104000CF911F910F91FF90EF90DF90CF90BF90C5
:10105000AF90089580919602811107C081E692E0D9
:101060000E943E3281E08093960281E692E00E94E7
:1010700009340E9488240C94072EAF92BF92CF921D
:10108000DF92EF92FF920F931F93CF93DF9300D0E5
:1010900000D0CDB7DEB7FB01248135814681578171
:1010A000A280B380BB2480919602882309F43FC0BC
:1010B000B50181E692E00E949C33809196028111F5
:1010C00007C081E692E00E943E3281E08093960262
:1010D000F501EE0FFF1FEE0FFF1FEE0FFF1FEF5981
:1010E000FD4FC184D284E384F48425813681478115
:1010F000508529833A834B835C830E94882487012F
:10110000760129813A814B815C81B5010E943F2D96
:101110000F900F900F900F90DF91CF911F910F9133
:10112000FF90EF90DF90CF90BF90AF90089581E651
:1011300092E029833A834B835C830E943E3281E0B4
:10114000809396025C814B813A812981B1CF0F93C4
:101150001F93CF93DF9300D000D0CDB7DEB78B01C4
:101160000E94D0360E94E836F80162817381809136
:10117000960281110BC081E692E06B837C830E9412
:101180003E3281E0809396027C816B8181E692E021
:101190000E947034AB01BC0149835A836B837C830A
:1011A0000E94882449815A816B817C810E94C32DD1
:1011B0000E94D0360F900F900F900F90DF91CF913B
:1011C0001F910F910C94EA360F931F93CF93DF93E7
:1011D00000D0CDB7DEB7FB01828193810E94393206
:1011E000BC0180919602882309F181E692E00E9479
:1011F000093380919602811107C081E692E00E9436
:101200003E3281E080939602809164029091650263
:101210000E9473248C010E948824B8010F900F90C3
:10122000DF91CF911F910F910C94B52C81E692E044
:1012300069837A830E943E3281E0809396027A81AC
:101240006981D3CF0F931F93CF93DF9300D000D04A
:10125000CDB7DEB78B010E94DE350E94C2340E94FA
:10126000D0360E94E6360E94461F0E945E1D0E94F4
:10127000D0360E94E036F801028113810E94EC36DC
:10128000B8010E944438AB01BC0149835A836B8387
:101290007C830E94882449815A816B817C810F90D4
:1012A0000F900F900F90DF91CF911F910F910C94A1
:1012B000A32BCF92DF92EF92FF92DB01ED91FC9195
:1012C000EC32F10548F5EE0FFF1FEE0FFF1FE35460
:1012D000FF4FC590D590E590F490F60197013595B4
:1012E0002795E0FE12C0DC01A20FB31F2D913C91A7
:1012F0001197F901EC0DFD1D0190F081E02DCD015C
:10130000FF90EF90DF90CF900994820F931FFF9092
:10131000EF90DF90CF900994FF90EF90DF90CF9007
:101320000895FB01828193810097C9F00197B1F480
:101330000E94461F0E94181E0E94D0360E94E2366C
:101340000E94DE350E94EC350E94D0360E94E436C1
:101350000E94882461E070E00C94022508950E94A8
:10136000DE350E94C2340E94D0360E94E6360E94CA
:10137000461F0E945E1D0E94D0360E94E0360E94E9
:10138000882460E070E00C9402258F929F92AF92C7
:10139000BF92CF92DF92EF92FF920F931F93CF9362
:1013A000DF93CDB7DEB72B970FB6F894DEBF0FBE35
:1013B000CDBF8C017B010E94D0360E94E836F70138
:1013C000E280F3800E94731AB7010E94001B4B0158
:1013D0005C010E948824B501A4010E94692981E072
:1013E000F80182870E9424450E9446456B017C01DA
:1013F0000E94244540E050E060E070E40E945245C5
:10140000C60ED71EE81EF91EF801C386D486E586EF
:10141000F6860E9484300E94731AFC01E080F180FD
:101420000E946F390E94773AFC0196E0DE01119626
:1014300001900D929A95E1F70E946F3940E060E0CB
:101440000E94533A8701000F111F000F111F000F58
:10145000111F0E191F09F801E656FF4FE590F49091
:1014600082E00E94EC3D8B8781E00E94EC3D8A8700
:10147000F801E456FF4F2591359145915491C501EE
:10148000B4010E94994F4B015C01F801E056FF4FF7
:1014900084910E94ED3D898789E00E94EC3D888718
:1014A00084E00E94EC3D8F830E946F3965EA7DE302
:1014B0000E945B3DBE01695F7F4F0E94EE3D63E28B
:1014C00071E00E94823A69EC7DE30E945B3D6DE52C
:1014D0007DE30E945B3D61E87DE30E945B3DBE01D0
:1014E000685F7F4F0E94EE3DBE01675F7F4F0E94A5
:1014F000133EB501A4010E94413CBE01665F7F4FCF
:101500000E94EE3D69E471E00E94823A65EA7DE363
:101510000E945B3DBE01655F7F4F0E94EE3DB701BB
:101520000E94823A0E946F3940E061E00E94533A83
:101530000E946F39BE016F5F7F4F0E94793A0E940F
:10154000D0360E94EA362B960FB6F894DEBF0FBE57
:10155000CDBFDF91CF911F910F91FF90EF90DF9062
:10156000CF90BF90AF909F908F9008958F929F9251
:10157000AF92BF92CF92DF92EF92FF920F931F93A1
:10158000CF93DF93CDB7DEB72B970FB6F894DEBFBE
:101590000FBECDBF8C017B010E94D0360E94E83681
:1015A000F701E280F3800E948430B7010E949230FC
:1015B0004B015C010E948824B501A4010E94BB2A52
:1015C00081E0F80182870E9424450E9446456B0114
:1015D0007C010E94244540E050E060E070E40E94FD
:1015E0005245C60ED71EE81EF91EF801C386D486E2
:1015F000E586F6860E948430FC01E080F1800E943E
:10160000731A0E946F390E94773AFC0196E0DE015E
:10161000119601900D929A95E1F70E946F3940E082
:1016200060E00E94533A0E946F3940E061E00E94FE
:10163000533A8701000F111F000F111F000F111FD8
:101640000E191F09F801E059FF4FE590F49082E070
:101650000E94EC3D8B8781E00E94EC3D8A87F80177
:10166000EE58FF4F2591359145915491C501B40134
:101670000E94994F4B015C01F801EA58FF4F849199
:101680000E94ED3D898789E00E94EC3D888784E0D7
:101690000E94EC3D8F830E946F3965EA7DE30E94D2
:1016A0005B3DBE01695F7F4F0E94EE3D66E271E0E7
:1016B0000E94823A69EC7DE30E945B3D6DE57DE32B
:1016C0000E945B3D61E87DE30E945B3DBE01685F77
:1016D0007F4F0E94EE3DBE01675F7F4F0E94133E29
:1016E000B501A4010E94413CBE01665F7F4F0E948C
:1016F000EE3D69E471E00E94823A65EA7DE30E9472
:101700005B3DBE01655F7F4F0E94EE3DB7010E94C9
:10171000823A0E946F39BE016F5F7F4F0E94793A13
:101720000E94D0360E94EA362B960FB6F894DEBFA0
:101730000FBECDBFDF91CF911F910F91FF90EF9022
:10174000DF90CF90BF90AF909F908F900895CF92F1
:10175000DF92EF92FF92CF93DF93EC01809196029C
:10176000811107C081E692E00E943E3281E08093C1
:10177000960281E692E00E94F3330E9488240E9440
:101780009A2D81E08A870E9424450E9446456B017C
:101790007C010E94244540E050E060E070E40E943B
:1017A0005245C60ED71EE81EF91ECB86DC86ED8696
:1017B000FE860E946F3940E060E00E94533A0E942A
:1017C0006F3969E271E00E94823A0E946F3940E00D
:1017D00061E00E94533A0E946F396AE371E0DF9141
:1017E000CF91FF90EF90DF90CF900C94823ACF9200
:1017F000DF92EF92FF92CF93DF93EC010E9484304F
:101800000E94B2310E9488240E94922A81E08A8735
:101810000E9424450E9446456B017C010E9424459C
:1018200040E050E060E070E40E945245C60ED71ED2
:10183000E81EF91ECB86DC86ED86FE860E946F3997
:1018400040E060E00E94533A0E946F3969E271E023
:101850000E94823A0E946F3940E061E00E94533A50
:101860000E946F396AE371E0DF91CF91FF90EF90B2
:10187000DF90CF900C94823ACF92DF92EF92FF925A
:10188000CF93DF93EC010E94731A0E94B41C0E9454
:1018900088240E94402981E08A870E9424450E9472
:1018A00046456B017C010E94244540E050E060E029
:1018B00070E40E945245C60ED71EE81EF91ECB8664
:1018C000DC86ED86FE860E946F3940E060E00E9473
:1018D000533A0E946F3969E271E00E94823A0E9495
:1018E0006F3940E061E00E94533A0E946F396AE329
:1018F00071E0DF91CF91FF90EF90DF90CF900C944B
:10190000823ACF92DF92EF92FF92CF93DF93EC0176
:101910000E94461F0E94E91F0E9488240E945926A7
:1019200081E08A870E9424450E9446456B017C0124
:101930000E94244540E050E060E070E40E9452457F
:10194000C60ED71EE81EF91ECB86DC86ED86FE8607
:101950000E946F3940E060E00E94533A0E946F3964
:1019600069E271E00E94823A0E946F3940E061E0D2
:101970000E94533A0E946F396AE371E0DF91CF9180
:10198000FF90EF90DF90CF900C94823ACF92DF924D
:10199000EF92FF92CF93DF93EC010E94DE350E941D
:1019A000BA360E9488240E94EE2781E08A870E942E
:1019B00024450E9446456B017C010E94244540E07D
:1019C00050E060E070E40E945245C60ED71EE81E4B
:1019D000F91ECB86DC86ED86FE860E946F3940E0DC
:1019E00060E00E94533A0E946F3969E271E00E9400
:1019F000823A0E946F3940E061E00E94533A0E94AF
:101A00006F396AE371E0DF91CF91FF90EF90DF9043
:101A1000CF900C94823A0F931F93CF93DF93CDB75F
:101A2000DEB7AB970FB6F894DEBF0FBECDBF0E94F6
:101A30006F390E94773AFC0196E0DE0191960190A1
:101A40000D929A95E1F70E946F3940E060E00E94A4
:101A5000533A66E771E0CE0101960E949E528C01D6
:101A60000E946F39B8010E94823A0E946F3940E0AB
:101A700061E00E94533A82E00E94EC3D8FA381E036
:101A80000E94EC3D88A782E00E94EC3D89A781E09E
:101A90000E94EC3D8AA782E00E94EC3D8BA76DE698
:101AA00071E0CE0101960E949E528C010E946F3916
:101AB000B8010E94823ABE01655D7F4F0E94EE3DF3
:101AC00061E87DE30E945B3D4FEF50E060E070E035
:101AD0000E944C3BBE01665D7F4F0E94EE3D6BE471
:101AE00071E00E94823ABE01675D7F4F0E94EE3D29
:101AF00061E87DE30E945B3D4FEF50E060E070E005
:101B00000E944C3BBE01685D7F4F0E94EE3D6BE43E
:101B100071E00E94823ABE01695D7F4F0E94EE3DF6
:101B200061E87DE30E945B3D4DEF50E060E070E0D6
:101B30000E944C3B0E946F39BE016F5D7F4F0E9437
:101B4000793AAB960FB6F894DEBF0FBECDBFDF91EA
:101B5000CF911F910F910895CF92DF92EF92FF9254
:101B6000CF93DF93EC010E94403982ED91E099839D
:101B700088831A861B861C861D861E860E946F39E6
:101B80000E94461F0E94DE350E94731A0E94843014
:101B900080919602811107C081E692E00E943E3258
:101BA00081E0809396020E94EC360E9488240E9475
:101BB000461F0E945E1D0E94D0360E94E0360E94A1
:101BC000DE3540E050E0BA010E9425360E948430A4
:101BD00060E070E00E94FD310E948824AE0169E55A
:101BE00079E00E945A39CE010E940B0D789481E071
:101BF0008A870E9424450E9446456B017C010E9411
:101C0000244540E050E060E070E40E945245C60E7A
:101C1000D71EE81EF91ECB86DC86ED86FE86DF9198
:101C2000CF91FF90EF90DF90CF9008952F923F9249
:101C30004F925F926F927F928F929F92AF92BF92DC
:101C4000CF92DF92EF92FF920F931F93CF93DF9388
:101C5000CDB7DEB72B970FB6F894DEBF0FBECDBF62
:101C6000F62E29013A010E946F390E94773AFC0151
:101C700096E0DE01119601900D929A95E1F70E948F
:101C80006F3940E060E00E94533AF11099C00E9421
:101C90006F3940E061E00E94533AEE2009F470C0D1
:101CA0008401000F111F000F111F000F111F0819D1
:101CB0001909F801E059FF4FE590F49082E00E9485
:101CC000EC3D8F8381E00E94EC3D8887F801EE585F
:101CD000FF4F2591359145915491C601B5010E9460
:101CE000994F4B015C01F801EA58FF4F84910E9423
:101CF000ED3D898789E00E94EC3D8A8784E00E945F
:101D0000EC3D8B870E946F3965EA7DE30E945B3D65
:101D1000BE01655F7F4F0E94EE3D66E271E00E946A
:101D2000823A69EC7DE30E945B3D6DE57DE30E94B4
:101D30005B3D61E87DE30E945B3DBE01665F7F4FD6
:101D40000E94EE3DBE01675F7F4F0E94133EB501CA
:101D5000A4010E94413CBE01685F7F4F0E94EE3D9E
:101D600069E471E00E94823A65EA7DE30E945B3D8E
:101D7000BE01695F7F4F0E94EE3DB7010E94823A2B
:101D80000E946F39BE016F5F7F4F0E94793A2B9698
:101D90000FB6F894DEBF0FBECDBFDF91CF911F917C
:101DA0000F91FF90EF90DF90CF90BF90AF909F90FA
:101DB0008F907F906F905F904F903F902F900895FD
:101DC000F801EE0FFF1FEE0FFF1FEE0FFF1FCF01F9
:101DD000801B910B8C01FC01E656FF4F259034903F
:101DE00082E00E94EC3D8F8381E00E94EC3D888779
:101DF000F801E456FF4F2591359145915491C30167
:101E0000B2010E94994F2B013C01F801E056FF4FAF
:101E100084910E94ED3D898789E00E94EC3D8A878C
:101E200084E00E94EC3D8B870E946F3965EA7DE378
:101E30000E945B3DBE01655F7F4F0E94EE3D63E205
:101E400071E00E94823A69EC7DE30E945B3D6DE5A2
:101E50007DE30E945B3D61E87DE30E945B3DBE0146
:101E6000665F7F4F0E94EE3DBE01675F7F4F0E941D
:101E7000133EB301A2010E94413CBE01685F7F4F47
:101E80000E94EE3D69E471E00E94823A65EA7DE3DA
:101E90000E945B3DBE01695F7F4F0E94EE3DB10134
:101EA0000E94823AF4CE2F923F924F925F926F92AD
:101EB0007F928F929F92AF92BF92CF92DF92EF92DA
:101EC0000F931F93CF93DF9300D000D0CDB7DEB731
:101ED0001C010E94731A0E94C81C0E9484300E9438
:101EE000C6310E94731AFC0120AD31AD232BB1F035
:101EF0000F900F900F900F90DF91CF911F910F9146
:101F0000EF90DF90CF90BF90AF909F908F907F9099
:101F10006F905F904F903F902F9008950E94843073
:101F2000FC0180AD91AD892B19F70E94731A0E94B4
:101F3000201D9B01AC0169833A834B835C830E9423
:101F400084300E94D5315B016C01F10182852981C9
:101F50003A814B815C81811119C029833A834B837B
:101F60005C830E948430FC01808091800E94731AFF
:101F7000FC0100811181EE24E39429813A814B8197
:101F80005C8161E0C1010E94160EB2CF29833A83C1
:101F90004B835C830E9424450E944645F1014384A3
:101FA00054846584768429813A814B815C816415EF
:101FB00075058605970518F0F1011286CECFF1015F
:101FC0008285811195CFC9CF2FEF8FE398E3215000
:101FD00080409040E1F700C0000080918E028111A6
:101FE00007C082E592E00E94AC0D81E080938E02F2
:101FF0000E941F3980E090E008952F923F924F9207
:102000005F926F927F928F929F92AF92BF92CF9288
:10201000DF92EF92FF920F931F93CF93DF938C0188
:10202000EB01FC01E080F1806E157F050CF065C0CE
:1020300082809380A480B580A5019401608571851C
:10204000828593850E94744D2B013C01F8016681C5
:1020500077816E197F09072E000C880B990B0E945F
:10206000964E9B01AC01C301B2010E94E64D2B01CB
:102070003C01CE19DF09BE01DD0F880B990B0E94D0
:10208000964E9B01AC01C301B2010E94994F9B0186
:10209000AC01C501B4010E94754D8B01D82FC92F29
:1020A0002CE53FE842E85FE3C501B4010E94994F87
:1020B0006B017C019B01AC01B8018D2F9C2F0E940C
:1020C000E14D87FDEDC0502F412F9E01652F742FEC
:1020D000832F922FDF91CF911F910F91FF90EF905F
:1020E000DF90CF90BF90AF909F908F907F906F9038
:1020F0005F904F903F902F900895FC01208C318C81
:10210000261637060CF47EC0A4E0B0E00DC04C17D4
:102110005D070CF0CAC09C01CB01BF2DAC01421B76
:10212000530B42305105FCF02B2F30E06A2F70E04A
:10213000C901860F971F95958795F82EFC01EE0F24
:10214000FF1FE80FF91FEE0FFF1FE00FF11F408187
:102150005181C417D507DCF6A82FAC01421B530BE5
:10216000423051050CF7F901EE0FFF1FE20FF31F8C
:10217000EE0FFF1FE00FF11F82809380A480B580D7
:10218000E080F1809C01220F331F820F931F880F84
:10219000991F080F191FA5019401F801628173812D
:1021A000848195810E94744D2B013C01F80160816E
:1021B00071816E197F09072E000C880B990B0E9404
:1021C000964E9B01AC01C301B2010E94E64D2B016A
:1021D0003C01CE19DF09BE01DD0F880B990B0E946F
:1021E000964E9B01AC01C301B2010E94994F9B0125
:1021F000AC01C501B4010E94754D562F472F382FF1
:10220000292F64CFC28CD38CE48CF58C848895887C
:10221000A688B78802891389A5019401C701B60170
:102220000E94744D2B013C01B101601B710B072E04
:10223000000C880B990B0E94964E9B01AC01C301C8
:10224000B2010E94E64D2B013C01C01BD10BBE0127
:10225000DD0F880B990B0E94964E9B01AC01C301C8
:10226000B2010E94994F9B01AC01C501B4010E94CB
:10227000754D8B01D82FC92F2CE53FE842E85FE36D
:10228000C701B6010E94994F6B017C019B01AC0113
:10229000B8018D2F9C2F0E94944F18160CF013CF6D
:1022A0005C2D4D2D3E2D2F2D11CF52814381348138
:1022B00025810CCF2F923F924F925F926F927F9227
:1022C0008F929F92AF92BF92CF92DF92EF92FF9246
:1022D0000F931F93CF93DF93CDB7DEB728970FB639
:1022E000F894DEBF0FBECDBF8C016A017B01FC01FB
:1022F00082809380A480B5809A01AB01C501B401AE
:102300000E94944FF80118160CF079C0608071801B
:10231000B301072C000C880B990B0E94964E698321
:102320007A838B839C83F8016681778166197709AC
:10233000072E000C880B990B0E94964E2B013C0136
:10234000A5019401F80160857185828593850E94BD
:10235000744D9B01AC01C301B2010E94E64D2B01FB
:102360003C01A5019401C701B6010E94744D9B0177
:10237000AC01C301B2010E94994F29813A814B817E
:102380005C810E94754D8B015C012CE53FE842E8C1
:102390005FE369817A818B819C810E94994F6B01F7
:1023A0007C019B01AC01B801C5010E94E14D87FD94
:1023B00023C1502F412F3A2D2B2D652F742F832FA2
:1023C000922F0E9406500E94584ECB0128960FB6BD
:1023D000F894DEBF0FBECDBFDF91CF911F910F915B
:1023E000FF90EF90DF90CF90BF90AF909F908F9035
:1023F0007F906F905F904F903F902F900895828CC8
:10240000938CA48CB58CA7019601C501B4010E94E0
:10241000E14D87FD94C0F4E0F9831D8211C0A7014E
:102420009601C301B2010E94E14D87FFEAC0450158
:102430005101FE81FD83C50188199909029754F164
:102440002D81822E912C3981232E312C5401A20C06
:10245000B31CB594A794AE82C501880F991F8A0D4D
:102460009B1D880F991FFC01E00FF11FF887EF8378
:102470004280538064807580A7019601C301B20138
:102480000E94944F18165CF6A982C5018819990913
:102490000297B4F6F401EE0FFF1FE80DF91DEE0FE1
:1024A000FF1FE00FF11F2080318042805380648045
:1024B0007580C501880F991F8A0D9B1D880F991F74
:1024C000080F191FF8016081718162197309072EC5
:1024D000000C880B990B0E94964E4B015C01A301E6
:1024E0009201F80162817381848195810E94744D0B
:1024F0009B01AC01C501B4010E94E64D4B015C019A
:10250000A3019201C701B6010E94744D9B01AC0169
:10251000C501B4010E94994F6B017C01B101330CDC
:10252000880B990B0E94964E9B01AC01C701B60126
:102530000E94754D562F472F382F292F3ECFF80177
:10254000208C318C2289338938872F8344885588A1
:1025500066887788B101621B730B072E000C880B0D
:10256000990B0E94964E69837A838B839C83A30187
:102570009201C501B4010E94744D9B01AC016981B7
:102580007A818B819C810E94E64D4B015C01A30105
:102590009201C701B6010E94744D9B01AC01C501B7
:1025A000B4010E94994F6B017C01EF81F885BF0156
:1025B000FF0F880B990B0E94964E9B01AC01C7013F
:1025C000B6010E94754D8B015C01B101330C880B83
:1025D000990B0E94964E2CE53FE842E85FE30E948B
:1025E000994F6B017C019B01AC01B801C5010E94B0
:1025F000944F18160CF0DDCE5C2D4D2D3E2D2F2D59
:10260000DCCEEF81F88560817181072E000C880B8C
:10261000990B0E94964E562F472F382F292FCDCE3B
:102620002F923F924F925F926F927F928F929F92E2
:10263000AF92BF92CF92DF92EF92FF920F931F93D0
:10264000CF93DF938C01EB01FC01E080F1806E15EC
:102650007F050CF065C082809380A480B580A501C1
:10266000940160857185828593850E94744D2B014C
:102670003C01F801668177816E197F09072E000CF5
:10268000880B990B0E94964E9B01AC01C301B201CD
:102690000E94E64D2B013C01CE19DF09BE01DD0F82
:1026A000880B990B0E94964E9B01AC01C301B201AD
:1026B0000E94994F9B01AC01C501B4010E94754D68
:1026C0008B01D82FC92F2CE53FE842E85FE3C50115
:1026D000B4010E94994F6B017C019B01AC01B801D0
:1026E0008D2F9C2F0E94E14D87FDEDC0502F412F73
:1026F0009E01652F742F832F922FDF91CF911F9111
:102700000F91FF90EF90DF90CF90BF90AF909F9090
:102710008F907F906F905F904F903F902F90089593
:10272000FC01208C318C261637060CF47EC0A4E008
:10273000B0E00DC04C175D070CF0CAC09C01CB0186
:10274000BF2DAC01421B530B42305105FCF02B2F27
:1027500030E06A2F70E0C901860F971F9595879525
:10276000F82EFC01EE0FFF1FE80FF91FEE0FFF1F01
:10277000E00FF11F40815181C417D507DCF6A82F67
:10278000AC01421B530B423051050CF7F901EE0F1F
:10279000FF1FE20FF31FEE0FFF1FE00FF11F8280FC
:1027A0009380A480B580E080F1809C01220F331FCC
:1027B000820F931F880F991F080F191FA5019401FD
:1027C000F80162817381848195810E94744D2B018F
:1027D0003C01F801608171816E197F09072E000CA0
:1027E000880B990B0E94964E9B01AC01C301B2016C
:1027F0000E94E64D2B013C01CE19DF09BE01DD0F21
:10280000880B990B0E94964E9B01AC01C301B2014B
:102810000E94994F9B01AC01C501B4010E94754D06
:10282000562F472F382F292F64CFC28CD38CE48C9E
:10283000F58C84889588A688B78802891389A501B4
:102840009401C701B6010E94744D2B013C01B101F6
:10285000601B710B072E000C880B990B0E94964E83
:102860009B01AC01C301B2010E94E64D2B013C016A
:10287000C01BD10BBE01DD0F880B990B0E94964E39
:102880009B01AC01C301B2010E94994F9B01AC01B5
:10289000C501B4010E94754D8B01D82FC92F2CE5BD
:1028A0003FE842E85FE3C701B6010E94994F6B0120
:1028B0007C019B01AC01B8018D2F9C2F0E94944F8D
:1028C00018160CF013CF5C2D4D2D3E2D2F2D11CF52
:1028D00052814381348125810CCF2F923F924F92B8
:1028E0005F926F927F928F929F92AF92BF92CF92A0
:1028F000DF92EF92FF920F931F93CF93DF93CDB7A9
:10290000DEB728970FB6F894DEBF0FBECDBF8C019F
:102910006A017B01FC0182809380A480B5809A01CA
:10292000AB01C501B4010E94944FF80118160CF0D8
:1029300079C060807180B301072C000C880B990B63
:102940000E94964E69837A838B839C83F80166810B
:10295000778166197709072E000C880B990B0E9466
:10296000964E2B013C01A5019401F801608571850B
:10297000828593850E94744D9B01AC01C301B20115
:102980000E94E64D2B013C01A5019401C701B6014F
:102990000E94744D9B01AC01C301B2010E94994F8A
:1029A00029813A814B815C810E94754D8B015C01CC
:1029B0002CE53FE842E85FE369817A818B819C8165
:1029C0000E94994F6B017C019B01AC01B801C501CC
:1029D0000E94E14D87FD23C1502F412F3A2D2B2D11
:1029E000652F742F832F922F0E9406500E94584EFD
:1029F000CB0128960FB6F894DEBF0FBECDBFDF9196
:102A0000CF911F910F91FF90EF90DF90CF90BF90EB
:102A1000AF909F908F907F906F905F904F903F907E
:102A20002F900895828C938CA48CB58CA70196016D
:102A3000C501B4010E94E14D87FD94C0F4E0F98323
:102A40001D8211C0A7019601C301B2010E94E14D90
:102A500087FFEAC045015101FE81FD83C501881948
:102A60009909029754F12D81822E912C3981232EC0
:102A7000312C5401A20CB31CB594A794AE82C501AD
:102A8000880F991F8A0D9B1D880F991FFC01E00F6D
:102A9000F11FF887EF834280538064807580A7011F
:102AA0009601C301B2010E94944F18165CF6A982E8
:102AB000C501881999090297B4F6F401EE0FFF1FBA
:102AC000E80DF91DEE0FFF1FE00FF11F2080318090
:102AD0004280538064807580C501880F991F8A0DDC
:102AE0009B1D880F991F080F191FF80160817181C4
:102AF00062197309072E000C880B990B0E94964EE1
:102B00004B015C01A3019201F80162817381848110
:102B100095810E94744D9B01AC01C501B4010E94D6
:102B2000E64D4B015C01A3019201C701B6010E9471
:102B3000744D9B01AC01C501B4010E94994F6B011A
:102B40007C01B101330C880B990B0E94964E9B01BE
:102B5000AC01C701B6010E94754D562F472F382F83
:102B6000292F3ECFF801208C318C22893389388778
:102B70002F834488558866887788B101621B730B60
:102B8000072E000C880B990B0E94964E69837A835E
:102B90008B839C83A3019201C501B4010E94744DF3
:102BA0009B01AC0169817A818B819C810E94E64DF9
:102BB0004B015C01A3019201C701B6010E94744D53
:102BC0009B01AC01C501B4010E94994F6B017C01CE
:102BD000EF81F885BF01FF0F880B990B0E94964E7D
:102BE0009B01AC01C701B6010E94754D8B015C01D0
:102BF000B101330C880B990B0E94964E2CE53FE8EF
:102C000042E85FE30E94994F6B017C019B01AC019C
:102C1000B801C5010E94944F18160CF0DDCE5C2D52
:102C20004D2D3E2D2F2DDCCEEF81F88560817181F9
:102C3000072E000C880B990B0E94964E562F472F9B
:102C4000382F292FCDCE2F923F924F925F926F92C5
:102C50007F928F929F92AF92BF92CF92DF92EF922C
:102C6000FF921F93CF93DF93CDB7DEB72C970FB6AC
:102C7000F894DEBF0FBECDBF1C016A017B01DC01F1
:102C80008D909D90AD90BC901397481559056A059D
:102C90007B050CF07DC014962D913D914D915C917A
:102CA000179729833A834B835C831C966D917D91A2
:102CB0008D919C911F970E94744D2B013C01F10155
:102CC00080859185A285B385BC01CD0168197909FC
:102CD0008A099B090E94964E9B01AC01C301B20177
:102CE0000E94E64D2B013C01C701B6016819790924
:102CF0008A099B090E94964E9B01AC01C301B20157
:102D00000E94994F9B01AC0169817A818B819C81E2
:102D10000E94754DF62E172F982EA92E2CE53FE810
:102D200042E85FE369817A818B819C810E94994F9F
:102D3000B62EC72ED82EE92E262F372F482F592FE3
:102D40006F2D712F892D9A2D0E94E14D87FD37C17E
:102D50005F2D412F392D2A2D652F742F832F922F10
:102D60002C960FB6F894DEBF0FBECDBFDF91CF918A
:102D70001F91FF90EF90DF90CF90BF90AF909F900A
:102D80008F907F906F905F904F903F902F9008951D
:102D9000DC0190964D905D906D907C9093974416D9
:102DA0005506660677060CF495C014E0B12C0FC0EA
:102DB0004C155D056E057F050CF006C19C01CD012B
:102DC000BA2CAC01421B530B423051051CF12B2D88
:102DD00030E0A12FB0E0C9018A0F9B1F9595879520
:102DE000A82EFC01EE0FFF1FEE0FFF1FEE0FFF1FBF
:102DF000E20DF31D4081518162817381C416D506B5
:102E0000E606F706ACF6182FAC01421B530B423016
:102E10005105ECF6220F331F220F331F220F331FF1
:102E2000F101E20FF31F84809580A680B780208196
:102E300031814281538129833A834B835C83880F9C
:102E4000991F880F991F880F991F280E391EA501F9
:102E50009401D10114966D917D918D919C9117975C
:102E60000E94744D2B013C01F10180819181A2816E
:102E7000B381BC01CD0129813A814B815C81621B08
:102E8000730B840B950B0E94964E9B01AC01C30102
:102E9000B2010E94E64D2B013C01C701B601298118
:102EA0003A814B815C81621B730B840B950B0E94F2
:102EB000964E9B01AC01C301B2010E94994F9B0148
:102EC000AC01C501B4010E94754D562F472F382F14
:102ED000292F42CF94968D909D90AD90BC9097975E
:102EE0005C962D913D914D915C915F9729833A833A
:102EF0004B835C8358962D913D914D915C915B97EE
:102F00002D833E834F83588729813A814B815C8191
:102F1000C501B4010E94744D69877A878B879C87AD
:102F2000C301B2012D813E814F815885621B730B15
:102F3000840B950B0E94964E9B01AC0169857A85A6
:102F40008B859C850E94E64D2B013C01C701B60193
:102F50002D813E814F815885621B730B840B950B2D
:102F60000E94964E9B01AC01C301B2010E94994F91
:102F70009B01AC0169817A818B819C810E94754D96
:102F8000F62E172F3C012CE53FE842E85FE3C50130
:102F9000B4010E94994FB62EC72ED82EE92E262FA7
:102FA000372F482F592F6F2D712FC3010E94944F37
:102FB00018162CF05F2D412F362D272DCDCE5B2DF1
:102FC0004C2D3D2D2E2DC8CE548145813681278133
:102FD000C3CE2F923F924F925F926F927F928F92C9
:102FE0009F92AF92BF92CF92DF92EF92FF921F9388
:102FF000CF93DF93CDB7DEB72C970FB6F894DEBF33
:103000000FBECDBF1C016A017B01DC018D909D903C
:10301000AD90BC901397481559056A057B050CF0D7
:103020007DC014962D913D914D915C911797298308
:103030003A834B835C831C966D917D918D919C911D
:103040001F970E94744D2B013C01F10180859185F1
:10305000A285B385BC01CD01681979098A099B094C
:103060000E94964E9B01AC01C301B2010E94E64D45
:103070002B013C01C701B601681979098A099B092E
:103080000E94964E9B01AC01C301B2010E94994F70
:103090009B01AC0169817A818B819C810E94754D75
:1030A000F62E172F982EA92E2CE53FE842E85FE375
:1030B00069817A818B819C810E94994FB62EC72E9F
:1030C000D82EE92E262F372F482F592F6F2D712FED
:1030D000892D9A2D0E94E14D87FD37C15F2D412F2B
:1030E000392D2A2D652F742F832F922F2C960FB6F2
:1030F000F894DEBF0FBECDBFDF91CF911F91FF903F
:10310000EF90DF90CF90BF90AF909F908F907F9087
:103110006F905F904F903F902F900895DC019096B4
:103120004D905D906D907C90939744165506660681
:1031300077060CF495C014E0B12C0FC04C155D055A
:103140006E057F050CF006C19C01CD01BA2CAC01C7
:10315000421B530B423051051CF12B2D30E0A12FA7
:10316000B0E0C9018A0F9B1F95958795A82EFC0199
:10317000EE0FFF1FEE0FFF1FEE0FFF1FE20DF31DFF
:103180004081518162817381C416D506E606F70637
:10319000ACF6182FAC01421B530B42305105ECF634
:1031A000220F331F220F331F220F331FF101E20FB3
:1031B000F31F84809580A680B78020813181428171
:1031C000538129833A834B835C83880F991F880F2F
:1031D000991F880F991F280E391EA5019401D1014E
:1031E00014966D917D918D919C9117970E94744DCD
:1031F0002B013C01F10180819181A281B381BC014D
:10320000CD0129813A814B815C81621B730B840B58
:10321000950B0E94964E9B01AC01C301B2010E9426
:10322000E64D2B013C01C701B60129813A814B8152
:103230005C81621B730B840B950B0E94964E9B0165
:10324000AC01C301B2010E94994F9B01AC01C501C1
:10325000B4010E94754D562F472F382F292F42CF8A
:1032600094968D909D90AD90BC9097975C962D9183
:103270003D914D915C915F9729833A834B835C83A9
:1032800058962D913D914D915C915B972D833E8396
:103290004F83588729813A814B815C81C501B401F4
:1032A0000E94744D69877A878B879C87C301B2011E
:1032B0002D813E814F815885621B730B840B950BCA
:1032C0000E94964E9B01AC0169857A858B859C8511
:1032D0000E94E64D2B013C01C701B6012D813E81C4
:1032E0004F815885621B730B840B950B0E94964E81
:1032F0009B01AC01C301B2010E94994F9B01AC013B
:1033000069817A818B819C810E94754DF62E172FE1
:103310003C012CE53FE842E85FE3C501B4010E94AF
:10332000994FB62EC72ED82EE92E262F372F482F8D
:10333000592F6F2D712FC3010E94944F18162CF036
:103340005F2D412F362D272DCDCE5B2D4C2D3D2DC4
:103350002E2DC8CE5481458136812781C3CE089554
:10336000549A559808955C9808955C9A0895089524
:10337000089589B185FB882780F991E08927089510
:103380008530910540F4FC01EE0FFF1FE056FE4F23
:10339000859194910895E0EAF1E0859194910895E2
:1033A0004F925F926F927F928F929F92AF92BF9255
:1033B000EF92FF920F931F93CF93DF93EC018B015A
:1033C000FC01619371937F01CB010E94EC2E5C01A3
:1033D0000E94112FA701B5010E943E44889709F46D
:1033E00066C0F801EE0FFF1FEE0FFF1FE957FE4FFB
:1033F00085909590A590B490C501B401905823E3B1
:10340000422E542C23EF622E77247A944A825B82D8
:103410006C827D826E837F838887998731EE432E0D
:103420003AE7532E34EF632E77247A944A865B86EC
:103430006C867D8626E636E646E65FE30E94994F77
:103440006E877F87888B998B1A8A1B8A1C8A1D8AB4
:103450001E8A1F8A188E198E8FE195E8ABE0B0E0C6
:103460008A8F9B8FAC8FBD8F26E636E646E65FE3FC
:10347000C501B4010E94994F6E8F7F8F88A399A3D5
:103480008DEC9CECACE0B0E08AA39BA3ACA3BDA305
:103490008EA29FA2A8A6B9A6888199810E94EC2E2F
:1034A0005C010E94112FA701B5010E94A844AA96B1
:1034B000CE010E946F40F801E556FE4F0491682F3F
:1034C000607F602BCE01DF91CF911F910F91FF9014
:1034D000EF90BF90AF909F908F907F906F905F9094
:1034E0004F900C9451408091D802811186C0109267
:1034F000A0021092A1021092A2021092A3021092B6
:10350000A4021092A5021092A6021092A702109295
:10351000A8021092A9021092AA021092AB02109275
:10352000AC021092AD021092AE021092AF02109255
:10353000B0021092B1021092B2021092B302109235
:10354000B4021092B5021092B6021092B702109215
:10355000B8021092B9021092BA021092BB021092F5
:10356000BC021092BD021092BE021092BF021092D5
:10357000C0021092C1021092C2021092C3021092B5
:10358000C4021092C5021092C6021092C70260E0F7
:1035900088EC92E00E944E4089EC92E00E94C94182
:1035A00088ED91E09093CA028093C90289EC92E081
:1035B0000E94E44160E170E08CEC92E00E94B2482D
:1035C00088EC92E00E94E540682F607F88EC92E0F2
:1035D0000E94114188EC92E00E949B40682F607F1E
:1035E00088EC92E00E94C74062E070E08EE992E0D1
:1035F0000E94D01981E08093D8028EE992E008956C
:10360000AF92BF92CF92DF92EF92FF920F931F93F0
:10361000CF93DF93CDB7DEB727970FB6F894DEBF11
:103620000FBECDBF5C01613081E0780710F060E033
:1036300071E0CE0101960E9434492B813C818D813D
:103640009E812817390709F452C08501055D1F4F77
:1036500016C00E948E426B017C0144275527BA0197
:103660004C195D096E097F09CE0101960E944E49F1
:103670002B813C818D819E8128173907C1F10E94E1
:103680009338FC01C080D1800D2C000CEE08FF089F
:103690007601DD24CC240E949338FC018281938141
:1036A000092E000CAA0BBB0BBA2FA92F982F882725
:1036B000C82AD92AEA2AFB2A0E949338FC0184816D
:1036C0009581092E000CAA0BBB0BC82AD92AEA2A1D
:1036D000FB2A60E0C801C114D104F3E0EF06F10455
:1036E00008F0B7CF0E948E42AB01BC01BDCFCE0126
:1036F00001960E9470490E9406500E94584EAB01EC
:10370000BC01C50102960E9423166B017C01CE010B
:1037100001960E944949C701B60127960FB6F89451
:10372000DEBF0FBECDBFDF91CF911F910F91FF90F4
:10373000EF90DF90CF90BF90AF900895CF92DF923F
:10374000EF92FF920F931F93CF93DF93EC01E881E9
:10375000F981EE0FFF1FEE0FFF1FE957FE4FC590D7
:10376000D590E590F490C701B601905803E313E3B8
:1037700023EF3FEF0A831B832C833D836E837F837C
:103780008887998701EE1AE724EF3FEF0A871B87A6
:103790002C873D8726E636E646E65FE30E94994F92
:1037A0006E877F87888B998B1A8A1B8A1C8A1D8A51
:1037B0001E8A1F8A188E198E8FE195E8ABE0B0E063
:1037C0008A8F9B8FAC8FBD8F26E636E646E65FE399
:1037D000C701B6010E94994F6E8F7F8F88A399A36E
:1037E0008DEC9CECACE0B0E08AA39BA3ACA3BDA3A2
:1037F000CEA2DFA2E8A6F9A6DF91CF911F910F918B
:10380000FF90EF90DF90CF9008954F925F926F926C
:103810007F928F929F92AF92BF92CF92DF92EF9260
:10382000FF920F931F93CF93DF93CDB7DEB72C9703
:103830000FB6F894DEBF0FBECDBF4C015B0129016E
:103840003A0160E870E0CE0101960E94B2488B8593
:103850009C85892B09F457C08401055D1F4F14C056
:103860000E948E426B017C0144275527BA014C19F6
:103870005D096E097F09CE0101960E94CE488B85B5
:103880009C85892B09F43FC00E949338FC01C080BD
:10389000D1800D2C000CEE08FF087601DD24CC242D
:1038A0000E949338FC0182819381092E000CAA0B9F
:1038B000BB0BBA2FA92F982F8827C82AD92AEA2A02
:1038C000FB2A0E949338FC0184819581092E000C0B
:1038D000AA0BBB0BC82AD92AEA2AFB2A60E0C80136
:1038E000C114D104F3E0EF06F10408F0B9CF0E944F
:1038F0008E42AB01BC01CE0101960E94CE488B8561
:103900009C85892B09F6CE0101960E9409490E94E7
:103910000650BB24AA0CBB1CAA0CBB1CAA0CBB1CCB
:103920008A0C9B1C0E94584EF4016283738384832B
:10393000958346825782608671862C960FB6F894DE
:10394000DEBF0FBECDBFDF91CF911F910F91FF90D2
:10395000EF90DF90CF90BF90AF909F908F907F902F
:103960006F905F904F9008950F931F93CF93DF93C5
:10397000EC01899199910E94EC2E8C010E94112FEB
:10398000AE01B801DF91CF911F910F910C94A84423
:10399000CF92DF92EF92FF920F931F93CF93DF931B
:1039A000EC010E949338FC01C080D1800D2C000CEA
:1039B000EE08FF087601DD24CC240E949338FC0138
:1039C00082819381092E000CAA0BBB0BBA2FA92F61
:1039D000982F8827C82AD92AEA2AFB2A0E949338D6
:1039E000FC0184819581092E000CAA0BBB0BC82A0F
:1039F000D92AEA2AFB2A60E0CE018B96C114D104B1
:103A0000F3E0EF06F104B8F00E948E428B019C01B6
:103A100044275527BA01401B510B620B730BCE0193
:103A20008E96DF91CF911F910F91FF90EF90DF90D5
:103A3000CF900C94CE480E948E42AB01BC01EFCFD8
:103A4000CF92DF92EF92FF920F931F93CF93DF936A
:103A50008C01EC01AE96CE010E9409490E940650ED
:103A60000E94584EAB01BC01C80102960E94231669
:103A70006B017C01CE010E94C048C701B601DF91F5
:103A8000CF911F910F91FF90EF90DF90CF9008950D
:103A90005F9808955F9A0895579A08958530910523
:103AA00040F4FC01EE0FFF1FED53FE4F8591949102
:103AB0000895E3ECF1E08591949108958F929F929F
:103AC000AF92BF92CF92DF92EF92FF920F931F932C
:103AD000CF93DF93EC0181E08AA77E0184E2E80EB8
:103AE000F11CC7010E946F40682F6F7EC7010E94C2
:103AF00051400C811D816E0186E0C80ED11CC801A9
:103B00000E94CC2E5C010E94112FA601B5010E94DB
:103B10003E444E9709F44DC0F801EE0FFF1FEE0F23
:103B2000FF1FE655FE4F85909590A590B490C50176
:103B3000B40190582BEB33EF3F832E83688779874E
:103B40008A879B8725EF34EF3D872C8726E636E66C
:103B500046E65FE30E94994F6E877F87888B998B3B
:103B60001B8A1A8A1C8A1D8A1E8A1F8A8BE09BE088
:103B7000998F888F26E636E646E65FE3C501B401F5
:103B80000E94994F6A8F7B8F8C8F9D8F85E49CE07C
:103B90009F8F8E8F88A299A2AAA2BBA28C819D81A1
:103BA0000E94CC2E5C010E94112FA601B5010E943B
:103BB000A844C7010E946F40F801E254FE4F0491EF
:103BC000682F607F602BC7010E9451408AA5811138
:103BD0000DC0DF91CF911F910F91FF90EF90DF907B
:103BE000CF90BF90AF909F908F900895488159815A
:103BF0006A817B81C6010E945A118C01BC01C601F9
:103C00000E94FD0F688379838A839B83B801705873
:103C1000CE018596DF91CF911F910F91FF90EF908C
:103C2000DF90CF90BF90AF909F908F900C94774192
:103C3000FC0112A608958F929F92AF92BF92CF92ED
:103C4000DF92EF92FF920F931F93CF93DF93EC01DC
:103C50008B017D836C837C0186E0E80EF11CCB0137
:103C60000E94CC2E6C010E94112FA701B6010E9468
:103C70003E444E9709F44DC0F801EE0FFF1FEE0FC2
:103C8000FF1FE655FE4F85909590A590B490C50115
:103C9000B40190582BEB33EF3F832E8368877987ED
:103CA0008A879B8725EF34EF3D872C8726E636E60B
:103CB00046E65FE30E94994F6E877F87888B998BDA
:103CC0001B8A1A8A1C8A1D8A1E8A1F8A8BE09BE027
:103CD000998F888F26E636E646E65FE3C501B40194
:103CE0000E94994F6A8F7B8F8C8F9D8F85E49CE01B
:103CF0009F8F8E8F88A299A2AAA2BBA28C819D8140
:103D00000E94CC2E6C010E94112FA701B6010E94C7
:103D1000A8446E0184E2C80ED11CC6010E946F4007
:103D2000F801E254FE4F0491682F607F602BC601BA
:103D30000E9451408AA581110DC0DF91CF911F9142
:103D40000F91FF90EF90DF90CF90BF90AF909F903A
:103D50008F900895488159816A817B81C7010E94B3
:103D60005A118C01BC01C7010E94FD0F6883798341
:103D70008A839B83B8017058CE018596DF91CF91DD
:103D80001F910F91FF90EF90DF90CF90BF90AF9079
:103D90009F908F900C947741CF92DF92EF92FF9299
:103DA0000F931F93CF93DF93EC01188219821A822D
:103DB0001B8282E090E09D838C836E0186E0C80EBA
:103DC000D11C1F821E82188619861A861B861D86A4
:103DD0001C861E861F86188A198A1B8A1A8A1C8AC4
:103DE0001D8A1E8A1F8A198E188E1A8E1B8E1C8E93
:103DF0001D8E1F8E1E8E18A219A21AA21BA28E0142
:103E00000C5D1F4F60E0C8010E944E407E0185E2BC
:103E1000E80EF11CC7010E9432418AEE91E09EA398
:103E20008DA3C7010E944F411AA6C8010E94E54018
:103E3000682F607CC8010E941141C8010E949B400C
:103E4000682F607CC8010E94C74062E070E0CE012C
:103E50000E941B1E40E050E0BA01C6010E945A11A8
:103E60008C01BC01C6010E94FD0F688379838A839F
:103E70009B83B8017058C701DF91CF911F910F91BB
:103E8000FF90EF90DF90CF900C94774180910B03DF
:103E9000811107C080EE92E00E94CC1E81E08093E9
:103EA0000B0380EE92E00895EF92FF920F931F9321
:103EB000CF93DF938C017C0186E0E80EF11CC701F3
:103EC0000E945A11EC01BC01C7010E94FD0FF801CC
:103ED0006083718382839383BE017058C801859685
:103EE000DF91CF911F910F91FF90EF900C9477414C
:103EF000CF92DF92EF92FF92CF93DF93EC01EC81B0
:103F0000FD81EE0FFF1FEE0FFF1FE655FE4FC59020
:103F1000D590E590F490C701B60190582BEB33EFA4
:103F20003F832E83688779878A879B8725EF34EFC5
:103F30003D872C8726E636E646E65FE30E94994FEA
:103F40006E877F87888B998B1B8A1A8A1C8A1D8AA9
:103F50001E8A1F8A8BE09BE0998F888F26E636E6C3
:103F600046E65FE3C701B6010E94994F6A8F7B8FD7
:103F70008C8F9D8F85E49CE09F8F8E8FC8A2D9A2E5
:103F8000EAA2FBA2DF91CF91FF90EF90DF90CF905C
:103F900008957727FB01EE0FFF1FE60FF71FEE0FC7
:103FA000FF1FE80FF91F66817781705885960C9482
:103FB00077417727FB01EE0FFF1F6E0F7F1F660F04
:103FC000771F860F971FFC01208731874287538711
:103FD00008950F931F93CF93DF93EC018C819D8104
:103FE0000E94CC2E8C010E94112FAE014A5F5F4FC0
:103FF000B801DF91CF911F910F910C94A8440895BF
:1040000021E030E0FC0130AF27ABBC01695C7F4FA1
:104010000C9460394430510508F4089528E030E0EC
:10402000FC0130AF27ABBC01695C7F4F0C94603959
:104030004430510508F408952EE030E0FC0130AF23
:1040400027ABBC01695C7F4F0C946039443051054B
:1040500008F4089523E130E0FC0130AF27ABBC0148
:10406000695C7F4F0C9460394430510508F4089521
:1040700028E130E0FC0130AF27ABBC01695C7F4F29
:104080000C9460394430510508F408952AE130E079
:10409000FC0130AF27ABBC01695C7F4F0C946039E9
:1040A0004430510508F408952BE130E0FC0130AFB5
:1040B00027ABBC01695C7F4F0C94603944305105DB
:1040C00008F408952CE130E0FC0130AF27ABBC01CF
:1040D000695C7F4F0C9460394430510508F40895B1
:1040E0002DE130E0FC0130AF27ABBC01695C7F4FB4
:1040F0000C9460394430510508F4089521E230E011
:10410000FC0130AF27ABBC01695C7F4F0C94603978
:104110004430510508F4089522E230E0FC0130AF4C
:1041200027ABBC01695C7F4F0C946039443051056A
:1041300008F4089526E230E0FC0130AF27ABBC0163
:10414000695C7F4F0C9460394430510508F4089540
:1041500028E230E0FC0130AF27ABBC01695C7F4F47
:104160000C9460394430510508F408952AE230E097
:10417000FC0130AF27ABBC01695C7F4F0C94603908
:104180000F931F93FB01A081B1812B2F3A2F2C326B
:10419000310540F5EB2FFA2FEE0FFF1FEE0FFF1F3B
:1041A000E353FE4F0591159125913491F80120FFBD
:1041B00012C0F901F595E795DC01AE0FBF1FED9137
:1041C000FC911197E00FF11F0190F081E02DCD01DE
:1041D0001F910F91099435952795820F931F1F9179
:1041E0000F9109941F910F9108954830510508F4DB
:1041F0000895DB011596EC9115971496FC91E23029
:10420000F10580F0E7EAF2E02591349143E050E0D7
:10421000FC0150AF47AB32AF21AFBC01695C7F4FAF
:104220000C946039EE0FFF1FE955FD4FEDCF48307C
:10423000510508F40895DB011596EC911597149635
:10424000FC91E530F10590F4EE0FFF1FE356FD4FB2
:104250002591349144E050E0FC0150AF47AB32AFC0
:1042600021AFBC01695C7F4F0C946039EDE9F2E04D
:10427000EFCF4830510578F0FB012481358145E0CE
:1042800050E0FC0150AF47AB31AF22AFBC01695CDD
:104290007F4F0C94603908954830510578F0FB0148
:1042A0002481358146E050E0FC0150AF47AB31AF8F
:1042B00022AFBC01695C7F4F0C946039089548308F
:1042C000510508F40895DB011596EC9115971496A5
:1042D000FC91E230F10580F0E9E9F2E025913491BA
:1042E0004AE050E0FC0150AF47AB32AF21AFBC0118
:1042F000695C7F4F0C946039EE0FFF1FE756FD4F4E
:10430000EDCF4830510578F0FB01248135814BE039
:1043100050E0FC0150AF47AB31AF22AFBC01695C4C
:104320007F4F0C94603908954830510578F0FB01B7
:10433000248135814CE050E0FC0150AF47AB31AFF8
:1043400022AFBC01695C7F4F0C94603908954830FE
:10435000510508F40895DB011596EC911597149614
:10436000FC91E530F10590F4EE0FFF1FE157FD4F92
:104370002591349140E150E0FC0150AF47AB32AFA2
:1043800021AFBC01695C7F4F0C946039EFE8F2E02B
:10439000EFCF4830510578F0FB012481358141E1B0
:1043A00050E0FC0150AF47AB31AF22AFBC01695CBC
:1043B0007F4F0C94603908954830510578F0FB0127
:1043C0002481358144E150E0FC0150AF47AB31AF6F
:1043D00022AFBC01695C7F4F0C946039089548306E
:1043E000510508F40895DB011596EC911597149684
:1043F000FC91E630F10590F4EE0FFF1FED57FD4FF5
:104400002591349145E150E0FC0150AF47AB32AF0C
:1044100021AFBC01695C7F4F0C946039E3E8F2E0A6
:10442000EFCF4830510578F0FB012481358146E11A
:1044300050E0FC0150AF47AB31AF22AFBC01695C2B
:104440007F4F0C94603908954830510578F0FB0196
:104450002481358149E150E0FC0150AF47AB31AFD9
:1044600022AFBC01695C7F4F0C94603908954830DD
:10447000510578F0FB01248135814EE150E0FC01CB
:1044800050AF47AB31AF22AFBC01695C7F4F0C949A
:10449000603908954830510508F40895E1E8F2E0E4
:1044A0002591349143E250E0FC0150AF47AB32AF6D
:1044B00021AFBC01695C7F4F0C94603948305105D5
:1044C00078F0FB012481358144E250E0FC0150AFDB
:1044D00047AB31AF22AFBC01695C7F4F0C946039B0
:1044E00008954830510578F0FB012481358147E279
:1044F00050E0FC0150AF47AB31AF22AFBC01695C6B
:104500007F4F0C94603908954830510508F40895A0
:10451000DB011596EC9115971496FC91E230F105AC
:1045200080F0EDE7F2E02591349149E250E0FC01A2
:1045300050AF47AB32AF21AFBC01695C7F4F0C94E9
:104540006039EE0FFF1FE358FD4FEDCFFB014C30FC
:104550005105D0F044815581B385A28531852085F0
:1045600067E070E0FC0170AF67AB51AF42AF4B2F1B
:104570005A2F632F722F43AF54AF65AF76AFBC0194
:10458000695C7F4F0C9460390895FB0148305105F8
:10459000B0F0B781A6813581248149E050E0FC016B
:1045A00050AF47AB4B2F5A2F632F722F41AF52AFF3
:1045B00063AF74AFBC01695C7F4F0C9460390895A0
:1045C000FB014C305105D0F044815581B385A28563
:1045D000318520856DE070E0FC0170AF67AB51AFB5
:1045E00042AF4B2F5A2F632F722F43AF54AF65AF9B
:1045F00076AFBC01695C7F4F0C9460390895FB0174
:1046000048305105B0F0B781A681358124814FE053
:1046100050E0FC0150AF47AB4B2F5A2F632F722F46
:1046200041AF52AF63AF74AFBC01695C7F4F0C9474
:1046300060390895FB014C305105D0F0448155811B
:10464000B385A2853185208562E170E0FC0170AF01
:1046500067AB51AF42AF4B2F5A2F632F722F43AF2F
:1046600054AF65AF76AFBC01695C7F4F0C94603985
:104670000895FB014C305105D0F044815581B3853C
:10468000A2853185208567E170E0FC0170AF67ABE2
:1046900051AF42AF4B2F5A2F632F722F43AF54AFFE
:1046A00065AF76AFBC01695C7F4F0C9460390895AB
:1046B000FB014C305105D0F044815581B385A28572
:1046C0003185208565E270E0FC0170AF67AB51AFCA
:1046D00042AF4B2F5A2F632F722F43AF54AF65AFAA
:1046E00076AFBC01695C7F4F0C9460390895483007
:1046F000510578F0FB01248135814FE150E0FC0148
:1047000050AF47AB31AF22AFBC01695C7F4F0C9417
:1047100060390895FB014830510590F0448155817E
:104720002681378160E270E0FC0170AF67AB51AF6A
:1047300042AF33AF24AFBC01695C7F4F0C9460394A
:104740000895FB0148305105A0F0478156816581ED
:1047500074812BE230E0FC0130AF27AB662777276E
:1047600041AF52AF63AF74AFBC01695C7F4F0C9433
:1047700060390895AF92BF92CF92DF92EF92FF928D
:104780000F931F93CF93DF937C010E9409460E94F1
:104790006D465C010E94FF45EC01892B59F4DF91C5
:1047A000CF911F910F91FF90EF90DF90CF90BF902E
:1047B000AF900895670186E0C80ED11C85015701AE
:1047C000EEE0AE0EB11C05C0C6010E94943F2197D9
:1047D00031F3F80161918F01C6010E94A83FF701F2
:1047E00090A99923A1F3408551854430510560F388
:1047F000B501C7010E94C020E7CFEF92FF920F934F
:104800001F93CF93DF93EC0182E090E098AF8FABE2
:10481000BE01695C7F4FCE010E9460398E010A5F44
:104820001F4F64E070E0C8010E946F3FEC011886E2
:1048300082E089871B861A86CE010E94503FED8058
:10484000FC800E940946A701485F5F4FBE010E949D
:10485000A846BE01C801DF91CF911F910F91FF9033
:10486000EF900C947F3F8530910540F4FC01EE0FF2
:10487000FF1FE356FD4F859194910895EDE9F2E015
:104880008591949108958230910528F0E9E9F2E04C
:10489000859194910895FC01EE0FFF1FE756FD4F9F
:1048A0008591949108958530910540F4FC01EE0FB7
:1048B000FF1FE157FD4F859194910895EFE8F2E0D5
:1048C0008591949108958630910540F4FC01EE0F96
:1048D000FF1FED57FD4F859194910895E3E8F2E0B5
:1048E000859194910895E1E8F2E08591949108957D
:1048F0008230910528F0EDE7F2E0859194910895DA
:10490000FC01EE0FFF1FE358FD4F85919491089530
:1049100080915203811119C083E193E00E944039D4
:1049200084EF91E0909314038093130389E193E063
:104930000E94803F0E94094640E855E260E070E036
:104940000E944E4681E08093520383E193E00895F4
:104950008F929F92AF92BF92CF92DF92EF92FF928F
:104960000F931F93CF93DF9300D000D0CDB7DEB766
:104970005B0106966C016CE270E029833A834B83FD
:104980005C830E946F3F4C01FC01108681E08187AF
:10499000138612865C8154A74B8145A73A8136A7BE
:1049A000298127A710AB01ABF2AAE3AAC4010C9698
:1049B00020E2FC0111922A95E9F7B5010E94B0525C
:1049C000C4010E94503FF401058114810E940946F0
:1049D000A801485F5F4FB4010E94A846B401C60118
:1049E0000F900F900F900F90DF91CF911F910F912B
:1049F000FF90EF90DF90CF90BF90AF909F908F90FF
:104A00000C947F3FEF92FF920F931F93CF93DF930E
:104A1000162F072F06967C0168E070E00E946F3F1A
:104A2000EC01188683E089871B861A860C871D8710
:104A30001F861E86CE010E94503F0D811C810E9460
:104A40000946A801485F5F4FBE010E94A846BE010B
:104A5000C701DF91CF911F910F91FF90EF900C94C0
:104A60007F3FEF92FF920F931F93CF93DF93162F09
:104A7000072F06967C0168E070E00E946F3FEC0112
:104A8000188684E089871B861A860C871D871F86F7
:104A90001E86CE010E94503F0D811C810E94094656
:104AA000A801485F5F4FBE010E94A846BE01C70132
:104AB000DF91CF911F910F91FF90EF900C947F3F6A
:104AC000AF92BF92CF92DF92EF92FF920F931F931C
:104AD000CF93DF9300D000D0CDB7DEB7D62EC72E50
:104AE00006967C016CE070E02B833C8349835A83FB
:104AF0000E946F3F5C01FC01108685E08187138670
:104B00001286C486D5865A815687498147873C815B
:104B10002B81C801432F522F692F702FF501408B35
:104B2000518B628B738BC5010E94503FF50105814B
:104B300014810E940946A801485F5F4FB5010E9499
:104B4000A846B501C7010F900F900F900F90DF910D
:104B5000CF911F910F91FF90EF90DF90CF90BF907A
:104B6000AF900C947F3FAF92BF92CF92DF92EF92C3
:104B7000FF920F931F93CF93DF9300D000D0CDB758
:104B8000DEB7D62EC72E06967C016CE070E02B8334
:104B90003C8349835A830E946F3F5C01FC0110866D
:104BA00086E0818713861286C486D5865A81568709
:104BB000498147873C812B81C801432F522F692FA0
:104BC000702FF501408B518B628B738BC5010E9456
:104BD000503FF501058114810E940946A801485FF4
:104BE0005F4FB5010E94A846B501C7010F900F9015
:104BF0000F900F90DF91CF911F910F91FF90EF9049
:104C0000DF90CF90BF90AF900C947F3FAF92BF9258
:104C1000CF92DF92EF92FF920F931F93CF93DF9388
:104C200000D000D0CDB7DEB7D62EC72E06967C01B9
:104C30006CE070E02B833C8349835A830E946F3F72
:104C40005C01FC01108687E0818713861286C4868A
:104C5000D5865A815687498147873C812B81C80177
:104C6000432F522F692F702FF501408B518B628B90
:104C7000738BC5010E94503FF501058114810E948C
:104C80000946A801485F5F4FB5010E94A846B501DB
:104C9000C7010F900F900F900F90DF91CF911F9150
:104CA0000F91FF90EF90DF90CF90BF90AF900C945A
:104CB0007F3FEF92FF920F931F93CF93DF93069660
:104CC0007C0164E070E00E946F3FEC01188688E090
:104CD00089871B861A86CE010E94503F0D811C8158
:104CE0000E940946A801485F5F4FBE010E94A84686
:104CF000BE01C701DF91CF911F910F91FF90EF90FF
:104D00000C947F3FCF92DF92EF92FF920F931F930D
:104D1000CF93DF9300D0CDB7DEB7162F072F0696BF
:104D20007C0168E070E049835A830E946F3F6C0108
:104D3000FC01108689E08187138612865A81952F9F
:104D40004981842F402F512F692F782F4487558711
:104D500066877787C6010E94503FF601058114815E
:104D60000E940946A801485F5F4FB6010E94A8460D
:104D7000B601C7010F900F90DF91CF911F910F9156
:104D8000FF90EF90DF90CF900C947F3FEF92FF92D7
:104D90000F931F93CF93DF93162F072F06967C0157
:104DA00068E070E00E946F3FEC0118868AE0898716
:104DB0001B861A860C871D871F861E86CE010E94C1
:104DC000503F0D811C810E940946A801485F5F4F3A
:104DD000BE010E94A846BE01C701DF91CF911F917D
:104DE0000F91FF90EF900C947F3FAF92BF92CF92C4
:104DF000DF92EF92FF920F931F93CF93DF9300D038
:104E000000D0CDB7DEB7D62EC72E06967C016CE05B
:104E100070E02B833C8349835A830E946F3F5C017F
:104E2000FC0110868BE0818713861286C486D586A6
:104E30005A815687498147873C812B81C801432F7E
:104E4000522F692F702FF501408B518B628B738B22
:104E5000C5010E94503FF501058114810E94094659
:104E6000A801485F5F4FB5010E94A846B501C70180
:104E70000F900F900F900F90DF91CF911F910F9196
:104E8000FF90EF90DF90CF90BF90AF900C947F3F5A
:104E9000AF92BF92CF92DF92EF92FF920F931F9348
:104EA000CF93DF9300D000D0CDB7DEB7D62EC72E7C
:104EB00006967C016CE070E02B833C8349835A8327
:104EC0000E946F3F5C01FC0110868CE08187138695
:104ED0001286C486D5865A815687498147873C8188
:104EE0002B81C801432F522F692F702FF501408B62
:104EF000518B628B738BC5010E94503FF501058178
:104F000014810E940946A801485F5F4FB5010E94C5
:104F1000A846B501C7010F900F900F900F90DF9139
:104F2000CF911F910F91FF90EF90DF90CF90BF90A6
:104F3000AF900C947F3FAF92BF92CF92DF92EF92EF
:104F4000FF920F931F93CF93DF9300D000D0CDB784
:104F5000DEB7D62EC72E06967C016CE070E02B8360
:104F60003C8349835A830E946F3F5C01FC01108699
:104F70008DE0818713861286C486D5865A8156872E
:104F8000498147873C812B81C801432F522F692FCC
:104F9000702FF501408B518B628B738BC5010E9482
:104FA000503FF501058114810E940946A801485F20
:104FB0005F4FB5010E94A846B501C7010F900F9041
:104FC0000F900F90DF91CF911F910F91FF90EF9075
:104FD000DF90CF90BF90AF900C947F3FEF92FF9205
:104FE0000F931F93CF93DF9306967C0164E070E0EC
:104FF0000E946F3FEC0118868EE089871B861A8617
:10500000CE010E94503F0D811C810E940946A801DB
:10501000485F5F4FBE010E94A846BE01C701DF91F5
:10502000CF911F910F91FF90EF900C947F3FCF9203
:10503000DF92EF92FF920F931F93CF93DF9300D0F5
:10504000CDB7DEB7162F072F06967C0168E070E01B
:1050500049835A830E946F3F6C01FC0110868FE0E8
:105060008187138612865A81952F4981842F402F7C
:10507000512F692F782F4487558766877787C60118
:105080000E94503FF601058114810E940946A80143
:10509000485F5F4FB6010E94A846B601C7010F9056
:1050A0000F90DF91CF911F910F91FF90EF90DF90C4
:1050B000CF900C947F3FEF92FF920F931F93CF936B
:1050C000DF93162F072F06967C0168E070E00E94A0
:1050D0006F3FEC01188680E189871B861A860C8752
:1050E0001D871F861E86CE010E94503F0D811C81A8
:1050F0000E940946A801485F5F4FBE010E94A84672
:10510000BE01C701DF91CF911F910F91FF90EF90EA
:105110000C947F3F8F929F92AF92BF92CF92DF927B
:10512000EF92FF920F931F93CF93DF9300D000D0A5
:10513000CDB7DEB7B62EA72E06966C0160E170E003
:1051400029833A834B835C830E946F3F4C01FC01AF
:10515000108681E1818713861286A486B58617861C
:1051600016865C81508B4B81418B3A81328B298131
:10517000238B9801C701432F502F692F7E2D448B1D
:10518000558B668B778BC4010E94503FF4010581DB
:1051900014810E940946A801485F5F4FB4010E9434
:1051A000A846B401C6010F900F900F900F90DF91A9
:1051B000CF911F910F91FF90EF90DF90CF90BF9014
:1051C000AF909F908F900C947F3F8F929F92AF9261
:1051D000BF92CF92DF92EF92FF920F931F93CF93E4
:1051E000DF9300D000D0CDB7DEB7B62EA72E06963F
:1051F0006C0160E170E029833A834B835C830E94F9
:105200006F3F4C01FC01108682E181871386128674
:10521000A486B586178616865C81508B4B81418BA0
:105220003A81328B2981238B9801C701432F502F5C
:10523000692F7E2D448B558B668B778BC4010E9422
:10524000503FF401058114810E940946A801485F7E
:105250005F4FB4010E94A846B401C6010F900F90A1
:105260000F900F90DF91CF911F910F91FF90EF90D2
:10527000DF90CF90BF90AF909F908F900C947F3F26
:10528000EF92FF920F931F93CF93DF9306967C01CB
:1052900064E070E00E946F3FEC01188683E189872B
:1052A0001B861A86CE010E94503F0D811C810E94F0
:1052B0000946A801485F5F4FBE010E94A846BE0193
:1052C000C701DF91CF911F910F91FF90EF900C9448
:1052D0007F3FCF92DF92EF92FF920F931F93CF9376
:1052E000DF9300D0CDB7DEB7162F072F06967C01CF
:1052F00068E070E049835A830E946F3F6C01FC01B3
:10530000108684E18187138612865A81952F498100
:10531000842F402F512F692F782F44875587668718
:105320007787C6010E94503FF601058114810E94D3
:105330000946A801485F5F4FB6010E94A846B60122
:10534000C7010F900F90DF91CF911F910F91FF90A8
:10535000EF90DF90CF900C947F3FEF92FF920F93EE
:105360001F93CF93DF93162F072F06967C0168E0DB
:1053700070E00E946F3FEC01188685E189871B86EB
:105380001A860C871D871F861E86CE010E94503FFD
:105390000D811C810E940946A801485F5F4FBE0134
:1053A0000E94A846BE01C701DF91CF911F910F91C6
:1053B000FF90EF900C947F3F8F929F92AF92BF929D
:1053C000CF92DF92EF92FF920F931F93CF93DF93D1
:1053D00000D000D0CDB7DEB7B62EA72E06966C0152
:1053E00060E170E029833A834B835C830E946F3FC6
:1053F0004C01FC01108686E1818713861286A48603
:10540000B586178616865C81508B4B81418B3A811D
:10541000328B2981238B9801C701432F502F692F8D
:105420007E2D448B558B668B778BC4010E94503F39
:10543000F401058114810E940946A801485F5F4F6D
:10544000B4010E94A846B401C6010F900F900F90BE
:105450000F90DF91CF911F910F91FF90EF90DF9010
:10546000CF90BF90AF909F908F900C947F3F8F9282
:105470009F92AF92BF92CF92DF92EF92FF920F93E3
:105480001F93CF93DF9300D000D0CDB7DEB7B62EF9
:10549000A72E06966C0160E170E029833A834B8366
:1054A0005C830E946F3F4C01FC01108687E181877D
:1054B00013861286A486B586178616865C81508B65
:1054C0004B81418B3A81328B2981238B9801C70113
:1054D000432F502F692F7E2D448B558B668B778BF6
:1054E000C4010E94503FF401058114810E940946C5
:1054F000A801485F5F4FB4010E94A846B401C601ED
:105500000F900F900F900F90DF91CF911F910F91FF
:10551000FF90EF90DF90CF90BF90AF909F908F90D3
:105520000C947F3FEF92FF920F931F93CF93DF93E3
:1055300006967C0164E070E00E946F3FEC011886E3
:1055400088E189871B861A86CE010E94503F0D8113
:105550001C810E940946A801485F5F4FBE010E945E
:10556000A846BE01C701DF91CF911F910F91FF9017
:10557000EF900C947F3FCF92DF92EF92FF920F93C8
:105580001F93CF93DF9300D0CDB7DEB7162F072F31
:1055900006967C0168E070E049835A830E946F3F61
:1055A0006C01FC01108689E18187138612865A817D
:1055B000952F4981842F402F512F692F782F4487B1
:1055C000558766877787C6010E94503FF60105819F
:1055D00014810E940946A801485F5F4FB6010E94EE
:1055E000A846B601C7010F900F90DF91CF911F9190
:1055F0000F91FF90EF90DF90CF900C947F3FEF9250
:10560000FF920F931F93CF93DF9306967C0164E084
:1056100070E00E946F3FEC0118868AE189871B8643
:105620001A86CE010E94503F0D811C810E940946BE
:10563000A801485F5F4FBE010E94A846BE01C70196
:10564000DF91CF911F910F91FF90EF900C947F3FCE
:10565000EF92FF920F931F93CF93DF9306967C01F7
:1056600064E070E00E946F3FEC0118868BE189874F
:105670001B861A86CE010E94503F0D811C810E941C
:105680000946A801485F5F4FBE010E94A846BE01BF
:10569000C701DF91CF911F910F91FF90EF900C9474
:1056A0007F3FEF92FF920F931F93CF93DF93069666
:1056B0007C0164E070E00E946F3FEC0118868CE191
:1056C00089871B861A86CE010E94503F0D811C815E
:1056D0000E940946A801485F5F4FBE010E94A8468C
:1056E000BE01C701DF91CF911F910F91FF90EF9005
:1056F0000C947F3FEF92FF920F931F93CF93DF9312
:1057000006967C0164E070E00E946F3FEC01188611
:105710008DE189871B861A86CE010E94503F0D813C
:105720001C810E940946A801485F5F4FBE010E948C
:10573000A846BE01C701DF91CF911F910F91FF9045
:10574000EF900C947F3FCF92DF92EF92FF920F93F6
:105750001F93CF93DF9300D0CDB7DEB7162F072F5F
:1057600006967C0168E070E049835A830E946F3F8F
:105770006C01FC0110868EE18187138612865A81A6
:10578000952F4981842F402F512F692F782F4487DF
:10579000558766877787C6010E94503FF6010581CD
:1057A00014810E940946A801485F5F4FB6010E941C
:1057B000A846B601C7010F900F90DF91CF911F91BE
:1057C0000F91FF90EF90DF90CF900C947F3FCF929E
:1057D000DF92EF92FF920F931F93CF93DF9300D04E
:1057E000CDB7DEB7162F072F06967C0168E070E074
:1057F00049835A830E946F3F6C01FC0110868FE140
:10580000818713861286048715875A8156874981B6
:105810004787C6010E94503FF601058114810E940E
:105820000946A801485F5F4FB6010E94A846B6012D
:10583000C7010F900F90DF91CF911F910F91FF90B3
:10584000EF90DF90CF900C947F3FCF92DF92EF925A
:10585000FF920F931F93CF93DF9300D0CDB7DEB7A6
:10586000162F072F06967C0168E070E049835A8363
:105870000E946F3F6C01FC01108680E281871386D5
:105880001286048715875A81568749814787C60142
:105890000E94503FF601058114810E940946A8012B
:1058A000485F5F4FB6010E94A846B601C7010F903E
:1058B0000F90DF91CF911F910F91FF90EF90DF90AC
:1058C000CF900C947F3FEF92FF920F931F93CF9353
:1058D000DF9306967C0164E070E00E946F3FEC016C
:1058E000188681E289871B861A86CE010E94503F66
:1058F0000D811C810E940946A801485F5F4FBE01CF
:105900000E94A846BE01C701DF91CF911F910F9160
:10591000FF90EF900C947F3FEF92FF920F931F93B5
:10592000CF93DF9306967C0164E070E00E946F3FA6
:10593000EC01188682E289871B861A86CE010E94B6
:10594000503F0D811C810E940946A801485F5F4FAE
:10595000BE010E94A846BE01C701DF91CF911F91F1
:105960000F91FF90EF900C947F3FEF92FF920F9377
:105970001F93CF93DF93162F072F06967C0168E0C5
:1059800070E00E946F3FEC01188683E289871B86D6
:105990001A860C871D871F861E86CE010E94503FE7
:1059A0000D811C810E940946A801485F5F4FBE011E
:1059B0000E94A846BE01C701DF91CF911F910F91B0
:1059C000FF90EF900C947F3F8F929F92AF92BF9287
:1059D000CF92DF92EF92FF920F931F93CF93DF93BB
:1059E00000D000D0CDB7DEB7B62EA72E06966C013C
:1059F00060E170E029833A834B835C830E946F3FB0
:105A00004C01FC01108684E2818713861286A486ED
:105A1000B586178616865C81508B4B81418B3A8107
:105A2000328B2981238B9801C701432F502F692F77
:105A30007E2D448B558B668B778BC4010E94503F23
:105A4000F401058114810E940946A801485F5F4F57
:105A5000B4010E94A846B401C6010F900F900F90A8
:105A60000F90DF91CF911F910F91FF90EF90DF90FA
:105A7000CF90BF90AF909F908F900C947F3F8F926C
:105A80009F92AF92BF92CF92DF92EF92FF920F93CD
:105A90001F93CF93DF9300D000D0CDB7DEB7B62EE3
:105AA000A72E06966C0160E170E029833A834B8350
:105AB0005C830E946F3F4C01FC01108685E2818768
:105AC00013861286A486B586178616865C81508B4F
:105AD0004B81418B3A81328B2981238B9801C701FD
