:100000000C94A6020C94CE020C94CE020C94CE0258
:100010000C94CE020C94CE020C94CE020C94CE0220
:100020000C94CE020C94CE020C94CE020C94CE0210
:100030000C94CE020C94CE020C94CE020C94CE0200
:100040000C9413460C94CE020C94CE020C94CE0267
:100050000C94E8460C94CE020C94CE020C94CE0282
:100060000C94CE020C94CE020C94CE020C94CE02D0
:100070000B0200007A44060B0200007A44050B02D2
:1000800000007A440418020000803F0618020000B5
:10009000803F0518020000803F04220200247449BA
:1000A0000522020024744904310200007A4406311A
:1000B0000200007A4405310200007A4404D00200B4
:1000C00000D2020000D10200003F0900002B030013
:1000D0000099030000CB03000002040000080A009E
:1000E0000051040000810400009D040000CF0400C2
:1000F00000060500004D0A0000740C0000620300B9
:10010000005505000099050000920A0000830B00CD
:1001100000ED050000090600004D060000C30900BF
:10012000002E0D0000A1060000A9060000B1060087
:1001300000B9060000D0080000C1060000FB060060
:10014000004E07000056070000920800008B0700D1
:1001500000EB0700007309000055080000D80700F5
:10016000005E0700007A070000D70A0000462F77DC
:10017000206465762000492D5620536F75726365A3
:10018000204D6574657200ACC5273717B7D1386F3D
:1001900012833A0AD7233CCDCCCC3D08040201009F
:1001A00000000100020003000400ACC5273717B7A8
:1001B000D1386F12833A0AD7233CCDCCCC3D08040A
:1001C00002010000000100020003000400132100EE
:1001D000001421000011250000092200002B22003C
:1001E000004D22000060220000BA2300001E210002
:1001F00000D92300007322000095220000A82200ED
:1002000000F42300002C21000013240000BB220076
:1002100000DD2200002E2400003A210000F0220020
:100220000003230000252300004D24000048210086
:1002300000382300005621000064210000722100D4
:1002400000802100004B2300008B2400009E24002E
:10025000008E2100009C2100005E2300007223001C
:10026000006C240000AA21000085230000B82100B2
:100270000098230000C6210000B524000000000102
:10028000000000000001000200030004000500005F
:100290000001000200030004000000010000000152
:1002A00000020003000400000001001E001E001EEA
:1002B000001E001E001E001E002800280028002826
:1002C00000280028002800280028002800280020F6
:1002D00000280013000C000D000E000F001000118C
:1002E000000700080009000A000B000500060000D6
:1002F0000001000200030004006F12833A0AD723B2
:100300003CCDCCCC3D0000803F000020410000C827
:100310004208040201003000000100000001000258
:100320000003000400050000002041000000002040
:10033000410000C842002000000100030003000249
:10034000000AD7233C0300030003000AD7233C0321
:1003500000030004000AD7233C0200020004006FDF
:1003600012833A01000100040017B7D138010001DF
:10037000000400ACC52737010001000400BD37862A
:10038000350300030002000AD7233CCDCCCC3D034B
:1003900000030003000AD7233C0000803F03000352
:1003A0000004000AD7233C000020410200020004A0
:1003B000006F12833A000020410100010004001781
:1003C000B7D13800002041010001000400ACC5276E
:1003D0003700002041010001000400BD37863500D0
:1003E0000020410000010002000300040005000697
:1003F0000080C04C3F00004D3F0000533F000059BB
:100400003F000000FFFFFFFF000100FF0020001081
:100410000008000400010203D6470000DD47000089
:10042000FC470000884800001B480000A848000066
:1004300022480000294800003048000048480000D9
:100440004F480000734800006E616E00696E6600E0
:1004500000407A10F35A00A0724E18090010A5D47B
:10046000E80000E87648170000E40B54020000CAD8
:100470009A3B000000E1F50500008096980000001E
:1004800040420F000000A08601000000102700007D
:100490000000E803000000006400000000000A0003
:1004A000000000000100000000002C76D888DC6706
:1004B0004F0823DFC1DFAE59E1B1B796E5E3E4535E
:1004C000C63AE651997696E8E6C28426EB898C9B7B
:1004D00062ED407C6FFCEFBC9C9F40F2BAA56FA51B
:1004E000F490055A2AF75C936B6CF9676DC11BFC9D
:1004F000E0E40D47FEF520E6B500D0ED902E0300B8
:10050000943577050080841E080000204E0A000004
:1005100000C80C333333330F986E12831141EF8DC3
:100520002114893BE65516CFFEE6DB18D1844B3803
:100530001BF77C1D901DA4BBE424203284725E2234
:100540008100C9F124ECA1E53D277E3A11241FBEAC
:10055000CFEFD0E1DEBFCDBF12E0A0E0B1E0E2E23C
:10056000F9EA02C005900D92A83BB107D9F725E042
:10057000A8EBB2E001C01D92A93AB207E1F712E080
:10058000C6EAD2E004C02197FE010E94A751C53AF5
:10059000D107C9F70E94F8100C948F540C940000F6
:1005A00008950895CF92DF92EF92FF920F931F93D9
:1005B000CF93DF9300D000D0CDB7DEB70E94A7392C
:1005C000FC01C080D1800D2C000CEE08FF087601E4
:1005D000DD24CC240E94A739FC0182819381092E5D
:1005E000000CAA0BBB0BBA2FA92F982F8827C82A5B
:1005F000D92AEA2AFB2A0E94A739FC0124813581E5
:10060000C901330FAA0BBB0BA7019601282B392B6D
:100610004A2B5B2B29833A834B835C830E949C2566
:100620001DEFE12EFF24FA940FEF1FEF29813A818D
:100630004B815C8168E171E00E94BC250F900F90B6
:100640000F900F90DF91CF911F910F91FF90EF903E
:10065000DF90CF9008950F931F93CF93DF93EB011B
:100660008A819B810E94D41A8C010E94871BB80149
:100670000E94E41A0E94871BFC01808191810E94E4
:1006800067258C010E949C25B8010E946F298A81F0
:100690009B810E94621EEC010E945A20BE010E94B2
:1006A0002F1F0E945A20FC01848195810E944725BA
:1006B000EC010E949C25BE01DF91CF911F910F910B
:1006C0000C9445260F931F93CF93DF93EB018A8100
:1006D0009B810E94621E8C010E945A20B8010E94D8
:1006E0002F1F0E945A20FC01848195810E9447257A
:1006F0008C010E949C25B8010E9445268A819B811D
:100700000E94D41AEC010E94871BBE010E94E41AC9
:100710000E94871BFC01808191810E946725EC016A
:100720000E949C25BE01DF91CF911F910F910C94E7
:100730006F298F929F92AF92BF92EF92FF920F9389
:100740001F93CF93DF93FB01C281D3810E945A2074
:10075000DD27FE01EE0FFF1FEC0FFD1FEE0FFF1F49
:10076000E80FF91F80849184A284B384E680F78027
:100770000E949C2595018401A701BE010E94742658
:10078000DF91CF911F910F91FF90EF90BF90AF90AD
:100790009F908F9008958F929F92AF92BF92EF9209
:1007A000FF920F931F93CF93DF93FB01C281D381FD
:1007B000DD270E945A20BE010E94DD200E945A209F
:1007C000FE01EE0FFF1FEC0FFD1FEE0FFF1FE80FE6
:1007D000F91F80849184A284B384E680F7800E940C
:1007E0009C2595018401A701BE010E94C726DF91C7
:1007F000CF911F910F91FF90EF90BF90AF909F907E
:100800008F9008958F929F92AF92BF92CF92DF9276
:10081000EF92FF920F931F93CF93DF9300D000D0FE
:10082000CDB7DEB7FB012481358146815781C28077
:10083000D380DD2429833A834B835C830E945A2032
:1008400029813A814B815C81B6010E94ED200E9492
:100850005A20F601EE0FFF1FEC0DFD1DEE0FFF1FDE
:10086000E80FF91F80849184A284B384E680F78026
:100870000E949C2595018401A701B6010E941A27B8
:100880000F900F900F900F90DF91CF911F910F91CC
:10089000FF90EF90DF90CF90BF90AF909F908F90A0
:1008A0000895CF93DF9300D000D0CDB7DEB7FB0122
:1008B000428153816481758149835A836B837C8330
:1008C0000E945A2049815A816B817C810E94682054
:1008D0000E945A20FC0140815181628173814983C9
:1008E0005A836B837C830E949C2549815A816B814A
:1008F0007C810F900F900F900F90DF91CF910C940F
:100900009627CF93DF93FB01828193810E94C635A6
:10091000EC010E94F236BE010E94D9350E94F236E7
:10092000FC01848195810E945725EC010E949C2541
:10093000BE01DF91CF910C94DA278F929F92AF92F4
:10094000BF92EF92FF920F931F93CF93DF93FB0120
:10095000C281D3810E94F236DD27FE01EE0FFF1F18
:10096000EC0FFD1FEE0FFF1FE80FF91F808491842D
:10097000A284B384E680F7800E949C2595018401BF
:10098000A701BE010E940928DF91CF911F910F910D
:10099000FF90EF90BF90AF909F908F9008958F92AF
:1009A0009F92AF92BF92EF92FF920F931F93CF93BC
:1009B000DF93FB01C281D381DD270E94F236BE01A5
:1009C0000E94AE370E94F236FE01EE0FFF1FEC0FC1
:1009D000FD1FEE0FFF1FE80FF91F80849184A28492
:1009E000B384E680F7800E949C2595018401A701CD
:1009F000BE010E945C28DF91CF911F910F91FF9063
:100A0000EF90BF90AF909F908F9008958F929F929C
:100A1000AF92BF92CF92DF92EF92FF920F931F930C
:100A2000CF93DF9300D000D0CDB7DEB7FB01248198
:100A3000358146815781C280D380DD2429833A8362
:100A40004B835C830E94F23629813A814B815C8121
:100A5000B6010E94BE370E94F236F601EE0FFF1F6C
:100A6000EC0DFD1DEE0FFF1FE80FF91F8084918430
:100A7000A284B384E680F7800E949C2595018401BE
:100A8000A701B6010E94AF280F900F900F900F9012
:100A9000DF91CF911F910F91FF90EF90DF90CF905A
:100AA000BF90AF909F908F900895AF92BF92CF92DA
:100AB000DF92EF92FF920F931F93CF93DF9300D0BB
:100AC00000D0CDB7DEB7FB01E280F3800E94871B28
:100AD0005701BB24F501EE0FFF1FEE0FFF1FEE0FB6
:100AE000FF1FE80FF91FC680D780E084F1842281C0
:100AF00033814481558129833A834B835C830E94EF
:100B00009C258701760129813A814B815C81B50161
:100B10000E949E290F900F900F900F90DF91CF9120
:100B20001F910F91FF90EF90DF90CF90BF90AF900B
:100B30000895AF92BF92CF92DF92EF92FF920F9300
:100B40001F93CF93DF9300D000D0CDB7DEB7FB016A
:100B50002481358146815781A280B380BB242983BB
:100B60003A834B835C830E94871B29813A814B81A6
:100B70005C81B5010E94191D0E94871BF501EE0FD3
:100B8000FF1FEE0FFF1FEE0FFF1FE80FF91FC680BC
:100B9000D780E084F1842281338144815581298387
:100BA0003A834B835C830E949C25870176012981CF
:100BB0003A814B815C81B5010E94F9290F900F9019
:100BC0000F900F90DF91CF911F910F91FF90EF90B9
:100BD000DF90CF90BF90AF900895CF93DF93FB014C
:100BE000828193810E944730EC010E949831BE01BE
:100BF0000E9467300E949831FC01808191810E949F
:100C00007725EC010E949C25BE01DF91CF910C94C9
:100C1000C12AAF92BF92CF92DF92EF92FF920F93D1
:100C20001F93CF93DF9300D000D0CDB7DEB7FB0189
:100C3000E280F3800E9498315701BB24F501EE0F4A
:100C4000FF1FEE0FFF1FEE0FFF1FE80FF91FC680FB
:100C5000D780E084F18422813381448155812983C6
:100C60003A834B835C830E949C258701760129810E
:100C70003A814B815C81B5010E94F02A0F900F9060
:100C80000F900F90DF91CF911F910F91FF90EF90F8
:100C9000DF90CF90BF90AF900895AF92BF92CF9268
:100CA000DF92EF92FF920F931F93CF93DF9300D0C9
:100CB00000D0CDB7DEB7FB01248135814681578155
:100CC000A280B380BB2429833A834B835C830E9438
:100CD000983129813A814B815C81B5010E9468324B
:100CE0000E949831F501EE0FFF1FEE0FFF1FEE0F70
:100CF000FF1FE80FF91FC680D780E084F1842281AE
:100D000033814481558129833A834B835C830E94DC
:100D10009C258701760129813A814B815C81B5014F
:100D20000E944B2B0F900F900F900F90DF91CF915F
:100D30001F910F91FF90EF90DF90CF90BF90AF90F9
:100D400008950E945A200E948C200E949C250C9499
:100D5000132C0E94F2360E945D370E949C250C9451
:100D60003C2C0E94871B0E94B21C0E949C250C9464
:100D7000652C0E9498310E9401320E949C250C949F
:100D80008E2CCF93DF93FB0182819381813091057B
:100D900021F18230910599F0892B19F0DF91CF91E3
:100DA00008950E94A739FC01C081D1810E949C2531
:100DB000AE0160E070E0DF91CF910C94FB2C0E94BB
:100DC000A739FC01C481D5810E949C25AE0162E057
:100DD00070E0DF91CF910C94FB2C0E94A739FC01AD
:100DE000C281D3810E949C25AE0161E070E0DF9159
:100DF000CF910C94FB2CCF93DF93FB0182819381E5
:100E0000C481D58181309105B1F18230910501F124
:100E1000009759F08130910599F182309105E9F000
:100E2000892B41F0DF91CF9108950E94A739FC01F1
:100E3000D183C0830E94A739FC01C081D1810E9467
:100E40009C25AE0160E070E0DF91CF910C94392DCC
:100E50000E94A739FC01D583C4830E94A739FC01F5
:100E6000C481D5810E949C25AE0162E070E0DF91D3
:100E7000CF910C94392D0E94A739FC01D383C283F2
:100E80000E94A739FC01C281D3810E949C25AE013A
:100E900061E070E0DF91CF910C94392D0E94A73969
:100EA0000E94013A0E949C250C94772D0E94A7393C
:100EB0000E940D3A0E949C250C94A02DCF93DF93A5
:100EC000FB01828193810E945730EC010E9498318E
:100ED000BE010E9411330E949831FC0183AD94AD94
:100EE0000E948C25EC010E949C25BE01DF91CF91D0
:100EF0000C94442FCF93DF930E949831FC0183AD73
:100F000094AD0E948C25EC010E949C25BE01DF91CE
:100F1000CF910C94732FAF92BF92CF92DF92EF924A
:100F2000FF920F931F93CF93DF9300D000D0CDB7E4
:100F3000DEB7FB01E280F3808091FC02811107C0E3
:100F400087EC92E00E94523381E08093FC025701CB
:100F5000BB24F501EE0FFF1FEE0FFF1FEE0FFF1F6B
:100F6000E953FD4FC184D284E384F4842581368122
:100F70004781508529833A834B835C830E949C255B
:100F80008701760129813A814B815C81B5010E94FC
:100F9000F82D0F900F900F900F90DF91CF911F9130
:100FA0000F91FF90EF90DF90CF90BF90AF9008959A
:100FB0008091FC02811107C087EC92E00E945233BD
:100FC00081E08093FC0287EC92E00E941D350E9434
:100FD0009C250C941B2FAF92BF92CF92DF92EF9281
:100FE000FF920F931F93CF93DF9300D000D0CDB724
:100FF000DEB7FB012481358146815781A280B38011
:10100000BB248091FC02882309F43FC0B50187EC22
:1010100092E00E94B0348091FC02811107C087ECFD
:1010200092E00E94523381E08093FC02F501EE0FC2
:10103000FF1FEE0FFF1FEE0FFF1FE953FD4FC1848F
:10104000D284E384F48425813681478150852983C5
:101050003A834B835C830E949C258701760129811A
:101060003A814B815C81B5010E94532E0F900F9005
:101070000F900F90DF91CF911F910F91FF90EF9004
:10108000DF90CF90BF90AF90089587EC92E02983D6
:101090003A834B835C830E94523381E08093FC024D
:1010A0005C814B813A812981B1CF0F931F93CF93FC
:1010B000DF9300D000D0CDB7DEB78B010E94E437BC
:1010C0000E94FC37F801628173818091FC028111DA
:1010D0000BC087EC92E06B837C830E94523381E0EB
:1010E0008093FC027C816B8187EC92E00E948435C6
:1010F000AB01BC0149835A836B837C830E949C258E
:1011000049815A816B817C810E94D72E0E94E437ED
:101110000F900F900F900F90DF91CF911F910F9133
:101120000C94FE370F931F93CF93DF9300D0CDB76E
:10113000DEB7FB01828193810E944D33BC01809117
:10114000FC02882309F187EC92E00E941D34809113
:10115000FC02811107C087EC92E00E94523381E0CB
:101160008093FC028091CA029091CB020E94872555
:101170008C010E949C25B8010F900F90DF91CF91B8
:101180001F910F910C94C92D87EC92E069837A83AB
:101190000E94523381E08093FC027A816981D3CF2F
:1011A0000F931F93CF93DF9300D000D0CDB7DEB75E
:1011B0008B010E94F2360E94D6350E94E4370E94CD
:1011C000FA370E945A200E94721E0E94E4370E9441
:1011D000F437F801028113810E940038B8010E949F
:1011E0005839AB01BC0149835A836B837C830E94CD
:1011F0009C2549815A816B817C810F900F900F90C3
:101200000F90DF91CF911F910F910C94B72CCF923B
:10121000DF92EF92FF92DB01ED91FC91EC32F10550
:1012200048F5EE0FFF1FEE0FFF1FE354FF4FC59071
:10123000D590E590F490F601970135952795E0FE5D
:1012400012C0DC01A20FB31F2D913C911197F9013F
:10125000EC0DFD1D0190F081E02DCD01FF90EF9090
:10126000DF90CF900994820F931FFF90EF90DF9053
:10127000CF900994FF90EF90DF90CF900895FB01FD
:10128000828193810097C9F00197B1F40E945A209E
:101290000E942C1F0E94E4370E94F6370E94F2360B
:1012A0000E9400370E94E4370E94F8370E949C2574
:1012B00061E070E00C94162608950E94F2360E94B8
:1012C000D6350E94E4370E94FA370E945A200E94C5
:1012D000721E0E94E4370E94F4370E949C2560E051
:1012E00070E00C941626CF92DF92EF92FF92CF938C
:1012F000DF93EC018091FC02811107C087EC92E042
:101300000E94523381E08093FC0287EC92E00E94BD
:1013100007350E949C250E94AE2E81E08A870E949C
:1013200038460E945A466B017C010E94384640E0D4
:1013300050E060E070E40E946646C60ED71EE81ECC
:10134000F91ECB86DC86ED86FE860E94833A40E05D
:1013500060E00E94673B0E94833A63E271E00E9472
:10136000963B0E94833A40E061E00E94673B0E9406
:10137000833A64E371E0DF91CF91FF90EF90DF90CB
:10138000CF900C94963BCF92DF92EF92FF92CF9347
:10139000DF93EC010E9498310E94C6320E949C2586
:1013A0000E94A62B81E08A870E9438460E945A46F6
:1013B0006B017C010E94384640E050E060E070E440
:1013C0000E946646C60ED71EE81EF91ECB86DC8636
:1013D000ED86FE860E94833A40E060E00E94673B13
:1013E0000E94833A63E271E00E94963B0E94833A36
:1013F00040E061E00E94673B0E94833A64E371E051
:10140000DF91CF91FF90EF90DF90CF900C94963BBF
:10141000CF92DF92EF92FF92CF93DF93EC010E9485
:101420005A200E94FD200E949C250E946D2781E089
:101430008A870E9438460E945A466B017C010E94AE
:10144000384640E050E060E070E40E946646C60E18
:10145000D71EE81EF91ECB86DC86ED86FE860E942E
:10146000833A40E060E00E94673B0E94833A63E277
:1014700071E00E94963B0E94833A40E061E00E9446
:10148000673B0E94833A64E371E0DF91CF91FF9064
:10149000EF90DF90CF900C94963BCF92DF92EF923B
:1014A000FF92CF93DF93EC010E94F2360E94CE3779
:1014B0000E949C250E94022981E08A870E9438466A
:1014C0000E945A466B017C010E94384640E050E081
:1014D00060E070E40E946646C60ED71EE81EF91E44
:1014E000CB86DC86ED86FE860E94833A40E060E093
:1014F0000E94673B0E94833A63E271E00E94963B40
:101500000E94833A40E061E00E94673B0E94833A78
:1015100064E371E0DF91CF91FF90EF90DF90CF9087
:101520000C94963BCF92DF92EF92FF92CF93DF9392
:10153000EC010E94871B0E94C81D0E949C250E94EE
:10154000542A81E08A870E9438460E945A466B01DD
:101550007C010E94384640E050E060E070E40E9468
:101560006646C60ED71EE81EF91ECB86DC86ED86C3
:10157000FE860E94833A40E060E00E94673B0E9442
:10158000833A63E271E00E94963B0E94833A40E016
:1015900061E00E94673B0E94833A64E371E0DF915F
:1015A000CF91FF90EF90DF90CF900C94963B8F926D
:1015B0009F92BF92CF92DF92EF92FF920F931F9371
:1015C000CF93DF9300D000D0CDB7DEB74C018B01B5
:1015D0002FEF8FE19CE1215080409040E1F700C067
:1015E0000000BB24B394F401B2860E9438460E94E6
:1015F0005A466B017C010E94384640E050E060E0B2
:1016000070E40E946646C60ED71EE81EF91EF4015D
:10161000C386D486E586F6860E94833A40E060E081
:101620000E94673B0E94833A65E471E00E94963B0A
:101630000E94833A40E061E00E94673B0E94833A47
:1016400066E571E00E94963BFFEF2FE388E3F150DF
:1016500020408040E1F700C00000F8014281538142
:1016600064817581F401468357836087718749835C
:101670005A836B837C830E949C2549815A816B81AC
:101680007C810E94A22FF401B2860E9438460E94FB
:101690005A466B017C010E94384640E050E060E011
:1016A00070E40E946646C60ED71EE81EF91EF401BD
:1016B000C386D486E586F6860E94833A40E060E0E1
:1016C0000E94673B0E94833A67E671E00E94963B66
:1016D0000E94833A40E061E00E94673B0E94833AA7
:1016E00068E771E00F900F900F900F90DF91CF910E
:1016F0001F910F91FF90EF90DF90CF90BF909F9040
:101700008F900C94963B8F929F92AF92BF92CF9204
:10171000DF92EF92FF920F931F93CF93DF93CDB79A
:10172000DEB72B970FB6F894DEBF0FBECDBF8C018E
:101730007B010E94E4370E94FC37F701E280F380CE
:101740000E94871BB7010E94141C4B015C010E9480
:101750009C25B501A4010E947D2A81E0F8018287C1
:101760000E9438460E945A466B017C010E9438460E
:1017700040E050E060E070E40E946646C60ED71E6E
:10178000E81EF91EF801C386D486E586F6860E9417
:1017900098310E94871BFC01E080F1800E94833A0F
:1017A0000E948B3BFC0196E0DE01119601900D92A8
:1017B0009A95E1F70E94833A40E060E00E94673B1F
:1017C0008701000F111F000F111F000F111F0E19AD
:1017D0001F09F801E656FF4FE590F49082E00E9461
:1017E000003F8B8781E00E94003F8A87F801E45622
:1017F000FF4F2591359145915491C501B4010E9447
:10180000AD504B015C01F801E056FF4F84910E94FE
:10181000013F898789E00E94003F888784E00E9419
:10182000003F8F830E94833A69EB7EE30E946F3E04
:10183000BE01695F7F4F0E94023F69E871E00E942C
:10184000963B6DED7EE30E946F3E61E77EE30E9472
:101850006F3E65E97EE30E946F3EBE01685F7F4F89
:101860000E94023FBE01675F7F4F0E94273FB50184
:10187000A4010E94553DBE01665F7F4F0E94023F5A
:1018800063E471E00E94963B69EB7EE30E946F3E49
:10189000BE01655F7F4F0E94023FB7010E94963BE9
:1018A0000E94833A40E061E00E94673B0E94833AD5
:1018B000BE016F5F7F4F0E948D3B0E94E4370E9404
:1018C000FE372B960FB6F894DEBF0FBECDBFDF916B
:1018D000CF911F910F91FF90EF90DF90CF90BF902D
:1018E000AF909F908F9008958F929F92BF92CF92CA
:1018F000DF92EF92FF920F931F93CF93DF9300D06D
:1019000000D0CDB7DEB74C018B012FEF8FE19CE10A
:10191000215080409040E1F700C00000BB24B39408
:10192000F401B2860E9438460E945A466B017C013F
:101930000E94384640E050E060E070E40E94664655
:10194000C60ED71EE81EF91EF401C386D486E586AE
:10195000F6860E94833A40E060E00E94673B0E9466
:10196000833A65E471E00E94963B0E94833A40E02E
:1019700061E00E94673B0E94833A6CE871E00E943C
:10198000963BFFEF2FE388E3F15020408040E1F7E2
:1019900000C00000F8014281538164817581498350
:1019A0005A836B837C830E94F23649815A816B8112
:1019B0007C810E9439370E94F236FC0140815181BE
:1019C0006281738149835A836B837C830E949C2547
:1019D00049815A816B817C810E942B29F401B28656
:1019E0000E9438460E945A466B017C010E9438468C
:1019F00040E050E060E070E40E946646C60ED71EEC
:101A0000E81EF91EF401C386D486E586F6860E9498
:101A1000833A40E060E00E94673B0E94833A67E6B9
:101A200071E00E94963B0E94833A40E061E00E9490
:101A3000673B0E94833A6DE971E00F900F900F9021
:101A40000F90DF91CF911F910F91FF90EF90DF905A
:101A5000CF90BF909F908F900C94963B8F929F92C7
:101A6000AF92BF92CF92DF92EF92FF920F931F93AC
:101A7000CF93DF93CDB7DEB72B970FB6F894DEBFC9
:101A80000FBECDBF8C017B010E94E4370E94FC3762
:101A9000F701E280F3800E949831B7010E94A631DD
:101AA0004B015C010E949C25B501A4010E94CF2B33
:101AB00081E0F80182870E9438460E945A466B01F5
:101AC0007C010E94384640E050E060E070E40E94F3
:101AD0006646C60ED71EE81EF91EF801C386D486D8
:101AE000E586F6860E949831FC01E080F1800E9434
:101AF000871B0E94833A0E948B3BFC0196E0DE012B
:101B0000119601900D929A95E1F70E94833A40E078
:101B100060E00E94673B0E94833A40E061E00E94DF
:101B2000673B8701000F111F000F111F000F111FCE
:101B30000E191F09F801E059FF4FE590F49082E07B
:101B40000E94003F8B8781E00E94003F8A87F80156
:101B5000EE58FF4F2591359145915491C501B4013F
:101B60000E94AD504B015C01F801EA58FF4F84918F
:101B70000E94013F898789E00E94003F888784E0B6
:101B80000E94003F8F830E94833A69EB7EE30E94AC
:101B90006F3EBE01695F7F4F0E94023F6EEA71E0B7
:101BA0000E94963B6DED7EE30E946F3E61E77EE30F
:101BB0000E946F3E65E97EE30E946F3EBE01685F52
:101BC0007F4F0E94023FBE01675F7F4F0E94273F09
:101BD000B501A4010E94553DBE01665F7F4F0E9482
:101BE000023F63E471E00E94963B69EB7EE30E9452
:101BF0006F3EBE01655F7F4F0E94023FB7010E94AA
:101C0000963B0E94833ABE016F5F7F4F0E948D3BDF
:101C10000E94E4370E94FE372B960FB6F894DEBF81
:101C20000FBECDBFDF91CF911F910F91FF90EF902D
:101C3000DF90CF90BF90AF909F908F9008950F93BB
:101C40001F93CF93DF93CDB7DEB7AB970FB6F89462
:101C5000DEBF0FBECDBF0E94833A0E948B3BFC01CA
:101C600096E0DE01919601900D929A95E1F70E941F
:101C7000833A40E060E00E94673B66E771E0CE0196
:101C800001960E94B2538C010E94833AB8010E94CF
:101C9000963B0E94833A40E061E00E94673B82E00D
:101CA0000E94003F8FA381E00E94003F88A782E04E
:101CB0000E94003F89A781E00E94003F8AA782E03E
:101CC0000E94003F8BA76DE671E0CE0101960E9455
:101CD000B2538C010E94833AB8010E94963BBE0128
:101CE000655D7F4F0E94023F65E97EE30E946F3E83
:101CF0004FEF50E060E070E00E94603CBE01665D26
:101D00007F4F0E94023F61EB71E00E94963BBE0153
:101D1000675D7F4F0E94023F65E97EE30E946F3E50
:101D20004FEF50E060E070E00E94603CBE01685DF3
:101D30007F4F0E94023F61EB71E00E94963BBE0123
:101D4000695D7F4F0E94023F65E97EE30E946F3E1E
:101D50004DEF50E060E070E00E94603C0E94833AEA
:101D6000BE016F5D7F4F0E948D3BAB960FB6F8941E
:101D7000DEBF0FBECDBFDF91CF911F910F910895B0
:101D8000CF92DF92EF92FF92CF93DF93EC010E940C
:101D9000543A88E392E0998388831A861B861C86CE
:101DA0001D861E860E94833A0E945A200E94F236A7
:101DB0000E94871B0E9498318091FC02811107C00C
:101DC00087EC92E00E94523381E08093FC020E94F3
:101DD00000380E949C250E945A200E94721E0E9478
:101DE000E4370E94F4370E94F23640E050E0BA0136
:101DF0000E9439370E94983160E070E00E941133F0
:101E00000E949C25AE0167E079E00E946E3ACE0107
:101E10000E941F0E789481E08A870E9438460E94B3
:101E20005A466B017C010E94384640E050E060E079
:101E300070E40E946646C60ED71EE81EF91ECB86C9
:101E4000DC86ED86FE86DF91CF91FF90EF90DF90EC
:101E5000CF9008952F923F924F925F926F927F9210
:101E60008F929F92AF92BF92CF92DF92EF92FF92AA
:101E70000F931F93CF93DF93CDB7DEB72B970FB69A
:101E8000F894DEBF0FBECDBFF62E29013A010E94A5
:101E9000833A0E948B3BFC0196E0DE011196019093
:101EA0000D929A95E1F70E94833A40E060E00E942B
:101EB000673BF11099C00E94833A40E061E00E94C4
:101EC000673BEE2009F470C08401000F111F000F62
:101ED000111F000F111F08191909F801E059FF4FD0
:101EE000E590F49082E00E94003F8F8381E00E94A1
:101EF000003F8887F801EE58FF4F259135914591B5
:101F00005491C601B5010E94AD504B015C01F8012E
:101F1000EA58FF4F84910E94013F898789E00E941F
:101F2000003F8A8784E00E94003F8B870E94833AAB
:101F300069EB7EE30E946F3EBE01655F7F4F0E94AA
:101F4000023F6EEA71E00E94963B6DED7EE30E94D7
:101F50006F3E61E77EE30E946F3E65E97EE30E948B
:101F60006F3EBE01665F7F4F0E94023FBE01675F0A
:101F70007F4F0E94273FB501A4010E94553DBE013D
:101F8000685F7F4F0E94023F63E471E00E94963BCE
:101F900069EB7EE30E946F3EBE01695F7F4F0E9446
:101FA000023FB7010E94963B0E94833ABE016F5FD9
:101FB0007F4F0E948D3B2B960FB6F894DEBF0FBE6D
:101FC000CDBFDF91CF911F910F91FF90EF90DF90E8
:101FD000CF90BF90AF909F908F907F906F905F90C9
:101FE0004F903F902F900895F801EE0FFF1FEE0FD6
:101FF000FF1FEE0FFF1FCF01801B910B8C01FC0117
:10200000E656FF4F2590349082E00E94003F8F8378
:1020100081E00E94003F8887F801E456FF4F259138
:10202000359145915491C301B2010E94AD502B01ED
:102030003C01F801E056FF4F84910E94013F8987DF
:1020400089E00E94003F8A8784E00E94003F8B87DE
:102050000E94833A69EB7EE30E946F3EBE01655F9A
:102060007F4F0E94023F69E871E00E94963B6DED50
:102070007EE30E946F3E61E77EE30E946F3E65E96A
:102080007EE30E946F3EBE01665F7F4F0E94023F6B
:10209000BE01675F7F4F0E94273FB301A2010E94EC
:1020A000553DBE01685F7F4F0E94023F63E471E0CF
:1020B0000E94963B69EB7EE30E946F3EBE01695F22
:1020C0007F4F0E94023FB1010E94963BF4CE2F92B7
:1020D0003F924F925F926F927F928F929F92AF92B8
:1020E000BF92CF92DF92EF920F931F93CF93DF9324
:1020F00000D000D0CDB7DEB71C010E94871B0E9424
:10210000DC1D0E9498310E94DA320E94871BFC017C
:1021100020AD31AD232BB1F00F900F900F900F90A9
:10212000DF91CF911F910F91EF90DF90CF90BF90F3
:10213000AF909F908F907F906F905F904F903F9067
:102140002F9008950E949831FC0180AD91AD892BAC
:1021500019F70E94871B0E94341E9B01AC01698302
:102160003A834B835C830E9498310E94E9325B0181
:102170006C01F101828529813A814B815C81811159
:1021800019C029833A834B835C830E949831FC01F8
:10219000808091800E94871BFC0100811181EE24C8
:1021A000E39429813A814B815C8161E0C1010E9405
:1021B0002A0FB2CF29833A834B835C830E9438462F
:1021C0000E945A46F10143845484658476842981AF
:1021D0003A814B815C81641575058605970518F079
:1021E000F1011286CECFF1018285811195CFC9CF41
:1021F0002FEF8FE398E3215080409040E1F700C03B
:1022000000008091F402811107C088EB92E00E94E7
:10221000C00E81E08093F4020E94333A80E090E0A7
:1022200008952F923F924F925F926F927F928F927A
:102230009F92AF92BF92CF92DF92EF92FF920F9355
:102240001F93CF93DF938C01EB01FC01E080F180C1
:102250006E157F050CF065C082809380A480B580E8
:10226000A501940160857185828593850E94884EC1
:102270002B013C01F801668177816E197F09072ED9
:10228000000C880B990B0E94AA4F9B01AC01C30163
:10229000B2010E94FA4E2B013C01CE19DF09BE01AA
:1022A000DD0F880B990B0E94AA4F9B01AC01C30163
:1022B000B2010E94AD509B01AC01C501B4010E9466
:1022C000894E8B01D82FC92F2CE53FE842E85FE308
:1022D000C501B4010E94AD506B017C019B01AC01B2
:1022E000B8018D2F9C2F0E94F54E87FDEDC0502F19
:1022F000412F9E01652F742F832F922FDF91CF9155
:102300001F910F91FF90EF90DF90CF90BF90AF9013
:102310009F908F907F906F905F904F903F902F9005
:102320000895FC01208C318C261637060CF47EC0F3
:10233000A4E0B0E00DC04C175D070CF0CAC09C01D2
:10234000CB01BF2DAC01421B530B42305105FCF0B9
:102350002B2F30E06A2F70E0C901860F971F9595EB
:102360008795F82EFC01EE0FFF1FE80FF91FEE0F07
:10237000FF1FE00FF11F40815181C417D507DCF624
:10238000A82FAC01421B530B423051050CF7F90149
:10239000EE0FFF1FE20FF31FEE0FFF1FE00FF11F05
:1023A00082809380A480B580E080F1809C01220F20
:1023B000331F820F931F880F991F080F191FA50144
:1023C0009401F80162817381848195810E94884E15
:1023D0002B013C01F801608171816E197F09072E84
:1023E000000C880B990B0E94AA4F9B01AC01C30102
:1023F000B2010E94FA4E2B013C01CE19DF09BE0149
:10240000DD0F880B990B0E94AA4F9B01AC01C30101
:10241000B2010E94AD509B01AC01C501B4010E9404
:10242000894E562F472F382F292F64CFC28CD38C3B
:10243000E48CF58C84889588A688B78802891389EE
:10244000A5019401C701B6010E94884E2B013C01F1
:10245000B101601B710B072E000C880B990B0E94B9
:10246000AA4F9B01AC01C301B2010E94FA4E2B019D
:102470003C01C01BD10BBE01DD0F880B990B0E94E4
:10248000AA4F9B01AC01C301B2010E94AD509B0158
:10249000AC01C501B4010E94894E8B01D82FC92F10
:1024A0002CE53FE842E85FE3C701B6010E94AD506A
:1024B0006B017C019B01AC01B8018D2F9C2F0E9408
:1024C000A85018160CF013CF5C2D4D2D3E2D2F2D3E
:1024D00011CF52814381348125810CCF2F923F92BD
:1024E0004F925F926F927F928F929F92AF92BF9224
:1024F000CF92DF92EF92FF920F931F93CF93DF93D0
:10250000CDB7DEB728970FB6F894DEBF0FBECDBFAC
:102510008C016A017B01FC0182809380A480B580DC
:102520009A01AB01C501B4010E94A850F801181628
:102530000CF079C060807180B301072C000C880B0F
:10254000990B0E94AA4F69837A838B839C83F8013D
:102550006681778166197709072E000C880B990B25
:102560000E94AA4F2B013C01A5019401F80160854E
:102570007185828593850E94884E9B01AC01C301C1
:10258000B2010E94FA4E2B013C01A5019401C70142
:10259000B6010E94884E9B01AC01C301B2010E94AA
:1025A000AD5029813A814B815C810E94894E8B011B
:1025B0005C012CE53FE842E85FE369817A818B8129
:1025C0009C810E94AD506B017C019B01AC01B80164
:1025D000C5010E94F54E87FD23C1502F412F3A2D92
:1025E0002B2D652F742F832F922F0E941A510E943A
:1025F0006C4FCB0128960FB6F894DEBF0FBECDBF4F
:10260000DF91CF911F910F91FF90EF90DF90CF90CE
:10261000BF90AF909F908F907F906F905F904F9002
:102620003F902F900895828C938CA48CB58CA70139
:102630009601C501B4010E94F54E87FD94C0F4E0F7
:10264000F9831D8211C0A7019601C301B2010E9446
:10265000F54E87FFEAC045015101FE81FD83C501AA
:1026600088199909029754F12D81822E912C398174
:10267000232E312C5401A20CB31CB594A794AE8226
:10268000C501880F991F8A0D9B1D880F991FFC019A
:10269000E00FF11FF887EF834280538064807580DC
:1026A000A7019601C301B2010E94A85018165CF65A
:1026B000A982C501881999090297B4F6F401EE0FB1
:1026C000FF1FE80DF91DEE0FFF1FE00FF11F208027
:1026D00031804280538064807580C501880F991FC6
:1026E0008A0D9B1D880F991F080F191FF801608123
:1026F000718162197309072E000C880B990B0E94D7
:10270000AA4F4B015C01A3019201F8016281738120
:10271000848195810E94884E9B01AC01C501B40162
:102720000E94FA4E4B015C01A3019201C701B60160
:102730000E94884E9B01AC01C501B4010E94AD50BE
:102740006B017C01B101330C880B990B0E94AA4FDD
:102750009B01AC01C701B6010E94894E562F472F3D
:10276000382F292F3ECFF801208C318C22893389D4
:1027700038872F834488558866887788B101621B23
:10278000730B072E000C880B990B0E94AA4F6983CC
:102790007A838B839C83A3019201C501B4010E94BB
:1027A000884E9B01AC0169817A818B819C810E945A
:1027B000FA4E4B015C01A3019201C701B6010E94D0
:1027C000884E9B01AC01C501B4010E94AD506B0164
:1027D0007C01EF81F885BF01FF0F880B990B0E94E8
:1027E000AA4F9B01AC01C701B6010E94894E8B0123
:1027F0005C01B101330C880B990B0E94AA4F2CE5A8
:102800003FE842E85FE30E94AD506B017C019B0111
:10281000AC01B801C5010E94A85018160CF0DDCE1D
:102820005C2D4D2D3E2D2F2DDCCEEF81F885608166
:102830007181072E000C880B990B0E94AA4F562F0E
:10284000472F382F292FCDCE2F923F924F925F9254
:102850006F927F928F929F92AF92BF92CF92DF92B0
:10286000EF92FF920F931F93CF93DF938C01EB01B5
:10287000FC01E080F1806E157F050CF065C0828060
:102880009380A480B580A5019401608571858285BF
:1028900093850E94884E2B013C01F8016681778167
:1028A0006E197F09072E000C880B990B0E94AA4F06
:1028B0009B01AC01C301B2010E94FA4E2B013C0105
:1028C000CE19DF09BE01DD0F880B990B0E94AA4FBC
:1028D0009B01AC01C301B2010E94AD509B01AC0150
:1028E000C501B4010E94894E8B01D82FC92F2CE558
:1028F0003FE842E85FE3C501B4010E94AD506B01BF
:102900007C019B01AC01B8018D2F9C2F0E94F54EDC
:1029100087FDEDC0502F412F9E01652F742F832F0F
:10292000922FDF91CF911F910F91FF90EF90DF9049
:10293000CF90BF90AF909F908F907F906F905F905F
:102940004F903F902F900895FC01208C318C2616DB
:1029500037060CF47EC0A4E0B0E00DC04C175D0754
:102960000CF0CAC09C01CB01BF2DAC01421B530B24
:1029700042305105FCF02B2F30E06A2F70E0C90186
:10298000860F971F95958795F82EFC01EE0FFF1F78
:10299000E80FF91FEE0FFF1FE00FF11F408151817B
:1029A000C417D507DCF6A82FAC01421B530B4230ED
:1029B00051050CF7F901EE0FFF1FE20FF31FEE0FA9
:1029C000FF1FE00FF11F82809380A480B580E0801C
:1029D000F1809C01220F331F820F931F880F991FD4
:1029E000080F191FA5019401F80162817381848188
:1029F00095810E94884E2B013C01F8016081718114
:102A00006E197F09072E000C880B990B0E94AA4FA4
:102A10009B01AC01C301B2010E94FA4E2B013C01A3
:102A2000CE19DF09BE01DD0F880B990B0E94AA4F5A
:102A30009B01AC01C301B2010E94AD509B01AC01EE
:102A4000C501B4010E94894E562F472F382F292FD8
:102A500064CFC28CD38CE48CF58C84889588A6884E
:102A6000B78802891389A5019401C701B6010E94A4
:102A7000884E2B013C01B101601B710B072E000C2D
:102A8000880B990B0E94AA4F9B01AC01C301B201B4
:102A90000E94FA4E2B013C01C01BD10BBE01DD0F81
:102AA000880B990B0E94AA4F9B01AC01C301B20194
:102AB0000E94AD509B01AC01C501B4010E94894E3A
:102AC0008B01D82FC92F2CE53FE842E85FE3C7010F
:102AD000B6010E94AD506B017C019B01AC01B801B5
:102AE0008D2F9C2F0E94A85018160CF013CF5C2D30
:102AF0004D2D3E2D2F2D11CF5281438134812581C3
:102B00000CCF2F923F924F925F926F927F928F9253
:102B10009F92AF92BF92CF92DF92EF92FF920F936C
:102B20001F93CF93DF93CDB7DEB728970FB6F894F6
:102B3000DEBF0FBECDBF8C016A017B01FC0182802C
:102B40009380A480B5809A01AB01C501B4010E94B5
:102B5000A850F80118160CF079C060807180B3019C
:102B6000072C000C880B990B0E94AA4F69837A836B
:102B70008B839C83F8016681778166197709072E1C
:102B8000000C880B990B0E94AA4F2B013C01A50158
:102B90009401F80160857185828593850E94884E35
:102BA0009B01AC01C301B2010E94FA4E2B013C0112
:102BB000A5019401C701B6010E94884E9B01AC019A
:102BC000C301B2010E94AD5029813A814B815C81E1
:102BD0000E94894E8B015C012CE53FE842E85FE3EF
:102BE00069817A818B819C810E94AD506B017C014F
:102BF0009B01AC01B801C5010E94F54E87FD23C1C0
:102C0000502F412F3A2D2B2D652F742F832F922F6C
:102C10000E941A510E946C4FCB0128960FB6F8946F
:102C2000DEBF0FBECDBFDF91CF911F910F91FF90FF
:102C3000EF90DF90CF90BF90AF909F908F907F905C
:102C40006F905F904F903F902F900895828C938C5F
:102C5000A48CB58CA7019601C501B4010E94F54E64
:102C600087FD94C0F4E0F9831D8211C0A70196018D
:102C7000C301B2010E94F54E87FFEAC04501510130
:102C8000FE81FD83C50188199909029754F12D81B0
:102C9000822E912C3981232E312C5401A20CB31C8D
:102CA000B594A794AE82C501880F991F8A0D9B1D0C
:102CB000880F991FFC01E00FF11FF887EF83428016
:102CC000538064807580A7019601C301B2010E9400
:102CD000A85018165CF6A982C501881999090297AF
:102CE000B4F6F401EE0FFF1FE80DF91DEE0FFF1F04
:102CF000E00FF11F20803180428053806480758016
:102D0000C501880F991F8A0D9B1D880F991F080FF9
:102D1000191FF8016081718162197309072E000C77
:102D2000880B990B0E94AA4F4B015C01A3019201F1
:102D3000F80162817381848195810E94884E9B0194
:102D4000AC01C501B4010E94FA4E4B015C01A30124
:102D50009201C701B6010E94884E9B01AC01C501DA
:102D6000B4010E94AD506B017C01B101330C880BA2
:102D7000990B0E94AA4F9B01AC01C701B6010E94AA
:102D8000894E562F472F382F292F3ECFF801208C00
:102D9000318C2289338938872F8344885588668807
:102DA0007788B101621B730B072E000C880B990BFF
:102DB0000E94AA4F69837A838B839C83A30192012B
:102DC000C501B4010E94884E9B01AC0169817A81E2
:102DD0008B819C810E94FA4E4B015C01A301920100
:102DE000C701B6010E94884E9B01AC01C501B40128
:102DF0000E94AD506B017C01EF81F885BF01FF0F90
:102E0000880B990B0E94AA4F9B01AC01C701B60128
:102E10000E94894E8B015C01B101330C880B990B28
:102E20000E94AA4F2CE53FE842E85FE30E94AD50C4
:102E30006B017C019B01AC01B801C5010E94A85047
:102E400018160CF0DDCE5C2D4D2D3E2D2F2DDCCE39
:102E5000EF81F88560817181072E000C880B990B3A
:102E60000E94AA4F562F472F382F292FCDCE2F92B1
:102E70003F924F925F926F927F928F929F92AF920A
:102E8000BF92CF92DF92EF92FF921F93CF93DF9387
:102E9000CDB7DEB72C970FB6F894DEBF0FBECDBF0F
:102EA0001C016A017B01DC018D909D90AD90BC906E
:102EB0001397481559056A057B050CF07DC01496DB
:102EC0002D913D914D915C91179729833A834B83C6
:102ED0005C831C966D917D918D919C911F970E94B2
:102EE000884E2B013C01F10180859185A285B38537
:102EF000BC01CD01681979098A099B090E94AA4F72
:102F00009B01AC01C301B2010E94FA4E2B013C01AE
:102F1000C701B601681979098A099B090E94AA4F5D
:102F20009B01AC01C301B2010E94AD509B01AC01F9
:102F300069817A818B819C810E94894EF62E172FA0
:102F4000982EA92E2CE53FE842E85FE369817A815B
:102F50008B819C810E94AD50B62EC72ED82EE92EB3
:102F6000262F372F482F592F6F2D712F892D9A2DEE
:102F70000E94F54E87FD37C15F2D412F392D2A2D37
:102F8000652F742F832F922F2C960FB6F894DEBFE7
:102F90000FBECDBFDF91CF911F91FF90EF90DF90DB
:102FA000CF90BF90AF909F908F907F906F905F90E9
:102FB0004F903F902F900895DC0190964D905D903A
:102FC0006D907C90939744165506660677060CF430
:102FD00095C014E0B12C0FC04C155D056E057F0542
:102FE0000CF006C19C01CD01BA2CAC01421B530B65
:102FF000423051051CF12B2D30E0A12FB0E0C9016A
:103000008A0F9B1F95958795A82EFC01EE0FFF1F39
:10301000EE0FFF1FEE0FFF1FE20DF31D40815181E8
:1030200062817381C416D506E606F706ACF6182F42
:10303000AC01421B530B42305105ECF6220F331FFB
:10304000220F331F220F331FF101E20FF31F848081
:103050009580A680B7802081318142815381298368
:103060003A834B835C83880F991F880F991F880FC1
:10307000991F280E391EA5019401D10114966D9156
:103080007D918D919C9117970E94884E2B013C0158
:10309000F10180819181A281B381BC01CD0129819F
:1030A0003A814B815C81621B730B840B950B0E94F0
:1030B000AA4F9B01AC01C301B2010E94FA4E2B0141
:1030C0003C01C701B60129813A814B815C81621BB9
:1030D000730B840B950B0E94AA4F9B01AC01C3019B
:1030E000B2010E94AD509B01AC01C501B4010E9428
:1030F000894E562F472F382F292F42CF94968D90E7
:103100009D90AD90BC9097975C962D913D914D917F
:103110005C915F9729833A834B835C8358962D910A
:103120003D914D915C915B972D833E834F835887F2
:1031300029813A814B815C81C501B4010E94884E8E
:1031400069877A878B879C87C301B2012D813E8175
:103150004F815885621B730B840B950B0E94AA4FFD
:103160009B01AC0169857A858B859C850E94FA4E0E
:103170002B013C01C701B6012D813E814F8158854D
:10318000621B730B840B950B0E94AA4F9B01AC0131
:10319000C301B2010E94AD509B01AC0169817A81EB
:1031A0008B819C810E94894EF62E172F3C012CE5C5
:1031B0003FE842E85FE3C501B4010E94AD50B62E7E
:1031C000C72ED82EE92E262F372F482F592F6F2D97
:1031D000712FC3010E94A85018162CF05F2D412FAB
:1031E000362D272DCDCE5B2D4C2D3D2D2E2DC8CE31
:1031F0005481458136812781C3CE2F923F924F92D1
:103200005F926F927F928F929F92AF92BF92CF9276
:10321000DF92EF92FF921F93CF93DF93CDB7DEB78C
:103220002C970FB6F894DEBF0FBECDBF1C016A010C
:103230007B01DC018D909D90AD90BC90139748155B
:1032400059056A057B050CF07DC014962D913D91C2
:103250004D915C91179729833A834B835C831C962D
:103260006D917D918D919C911F970E94884E2B01AD
:103270003C01F10180859185A285B385BC01CD011A
:10328000681979098A099B090E94AA4F9B01AC0120
:10329000C301B2010E94FA4E2B013C01C701B601E5
:1032A000681979098A099B090E94AA4F9B01AC0100
:1032B000C301B2010E94AD509B01AC0169817A81CA
:1032C0008B819C810E94894EF62E172F982EA92E55
:1032D0002CE53FE842E85FE369817A818B819C813C
:1032E0000E94AD50B62EC72ED82EE92E262F372F8E
:1032F000482F592F6F2D712F892D9A2D0E94F54E31
:1033000087FD37C15F2D412F392D2A2D652F742F51
:10331000832F922F2C960FB6F894DEBF0FBECDBF31
:10332000DF91CF911F91FF90EF90DF90CF90BF90F2
:10333000AF909F908F907F906F905F904F903F9055
:103340002F900895DC0190964D905D906D907C904B
:10335000939744165506660677060CF495C014E05C
:10336000B12C0FC04C155D056E057F050CF006C134
:103370009C01CD01BA2CAC01421B530B42305105CC
:103380001CF12B2D30E0A12FB0E0C9018A0F9B1F4B
:1033900095958795A82EFC01EE0FFF1FEE0FFF1FDE
:1033A000EE0FFF1FE20DF31D408151816281738199
:1033B000C416D506E606F706ACF6182FAC01421B7C
:1033C000530B42305105ECF6220F331F220F331FEF
:1033D000220F331FF101E20FF31F84809580A68036
:1033E000B780208131814281538129833A834B8385
:1033F0005C83880F991F880F991F880F991F280ECB
:10340000391EA5019401D10114966D917D918D9184
:103410009C9117970E94884E2B013C01F1018081FD
:103420009181A281B381BC01CD0129813A814B8177
:103430005C81621B730B840B950B0E94AA4F9B014E
:10344000AC01C301B2010E94FA4E2B013C01C7013D
:10345000B60129813A814B815C81621B730B840B1D
:10346000950B0E94AA4F9B01AC01C301B2010E94BF
:10347000AD509B01AC01C501B4010E94894E562F8D
:10348000472F382F292F42CF94968D909D90AD9045
:10349000BC9097975C962D913D914D915C915F9773
:1034A00029833A834B835C8358962D913D914D91AE
:1034B0005C915B972D833E834F83588729813A81A6
:1034C0004B815C81C501B4010E94884E69877A876F
:1034D0008B879C87C301B2012D813E814F81588526
:1034E000621B730B840B950B0E94AA4F9B01AC01CE
:1034F00069857A858B859C850E94FA4E2B013C015B
:10350000C701B6012D813E814F815885621B730B27
:10351000840B950B0E94AA4F9B01AC01C301B20121
:103520000E94AD509B01AC0169817A818B819C81A5
:103530000E94894EF62E172F3C012CE53FE842E809
:103540005FE3C501B4010E94AD50B62EC72ED82E40
:10355000E92E262F372F482F592F6F2D712FC3019A
:103560000E94A85018162CF05F2D412F362D272DC4
:10357000CDCE5B2D4C2D3D2D2E2DC8CE54814581B9
:1035800036812781C3CE0895549A559808955C9842
:1035900008955C9A08950895089589B185FB882758
:1035A00080F991E0892708958530910540F4FC0168
:1035B000EE0FFF1FE056FE4F859194910895E0EACB
:1035C000F1E08591949108954F925F926F927F926E
:1035D0008F929F92AF92BF92EF92FF920F931F93A1
:1035E000CF93DF93EC018B01FC01619371937F0119
:1035F000CB010E9400305C010E942530A701B5017B
:103600000E945245889709F466C0F801EE0FFF1F2B
:10361000EE0FFF1FE957FE4F85909590A590B4904F
:10362000C501B401905823E3422E542C23EF622E9F
:1036300077247A944A825B826C827D826E837F8358
:103640008887998731EE432E3AE7532E34EF632E65
:1036500077247A944A865B866C867D8626E636E6F3
:1036600046E65FE30E94AD506E877F87888B998B1B
:103670001A8A1B8A1C8A1D8A1E8A1F8A188E198E16
:103680008FE195E8ABE0B0E08A8F9B8FAC8FBD8F68
:1036900026E636E646E65FE3C501B4010E94AD507A
:1036A0006E8F7F8F88A399A38DEC9CECACE0B0E08B
:1036B0008AA39BA3ACA3BDA38EA29FA2A8A6B9A6D2
:1036C000888199810E9400305C010E942530A70109
:1036D000B5010E94BC45AA96CE010E948341F80123
:1036E000E556FE4F0491682F607F602BCE01DF917D
:1036F000CF911F910F91FF90EF90BF90AF909F904F
:103700008F907F906F905F904F900C946541809167
:103710003E03811186C01092060310920703109297
:1037200008031092090310920A0310920B031092DF
:103730000C0310920D0310920E0310920F031092BF
:10374000100310921103109212031092130310929F
:10375000140310921503109216031092170310927F
:1037600018031092190310921A0310921B0310925F
:103770001C0310921D0310921E0310921F0310923F
:10378000200310922103109222031092230310921F
:1037900024031092250310922603109227031092FF
:1037A00028031092290310922A0310922B031092DF
:1037B0002C0310922D0360E08EE293E00E946241A0
:1037C0008FE293E00E94DD428EE392E0909330031B
:1037D00080932F038FE293E00E94F84260E170E053
:1037E00082E393E00E94C6498EE293E00E94F94191
:1037F000682F607F8EE293E00E9425428EE293E084
:103800000E94AF41682F607F8EE293E00E94DB410F
:1038100062E070E084E093E00E94E41A81E080932B
:103820003E0384E093E00895AF92BF92CF92DF927F
:10383000EF92FF920F931F93CF93DF93CDB7DEB735
:1038400027970FB6F894DEBF0FBECDBF5C01613085
:1038500081E0780710F060E071E0CE0101960E94EF
:10386000484A2B813C818D819E812817390709F4B4
:1038700052C08501055D1F4F16C00E94A2436B0117
:103880007C0144275527BA014C195D096E097F094F
:10389000CE0101960E94624A2B813C818D819E81DE
:1038A00028173907C1F10E94A739FC01C080D180D7
:1038B0000D2C000CEE08FF087601DD24CC240E94BC
:1038C000A739FC0182819381092E000CAA0BBB0B46
:1038D000BA2FA92F982F8827C82AD92AEA2AFB2A83
:1038E0000E94A739FC0184819581092E000CAA0B46
:1038F000BB0BC82AD92AEA2AFB2A60E0C801C114F6
:10390000D104F3E0EF06F10408F0B7CF0E94A24320
:10391000AB01BC01BDCFCE0101960E94844A0E943A
:103920001A510E946C4FAB01BC01C50102960E9466
:1039300037176B017C01CE0101960E945D4AC701D9
:10394000B60127960FB6F894DEBF0FBECDBFDF914C
:10395000CF911F910F91FF90EF90DF90CF90BF908C
:10396000AF900895CF92DF92EF92FF920F931F9343
:10397000CF93DF93EC01E881F981EE0FFF1FEE0F8B
:10398000FF1FE957FE4FC590D590E590F490C70111
:10399000B601905803E313E323EF3FEF0A831B8341
:1039A0002C833D836E837F838887998701EE1AE796
:1039B00024EF3FEF0A871B872C873D8726E636E6F4
:1039C00046E65FE30E94AD506E877F87888B998BB8
:1039D0001A8A1B8A1C8A1D8A1E8A1F8A188E198EB3
:1039E0008FE195E8ABE0B0E08A8F9B8FAC8FBD8F05
:1039F00026E636E646E65FE3C701B6010E94AD5013
:103A00006E8F7F8F88A399A38DEC9CECACE0B0E027
:103A10008AA39BA3ACA3BDA3CEA2DFA2E8A6F9A66E
:103A2000DF91CF911F910F91FF90EF90DF90CF909A
:103A300008954F925F926F927F928F929F92AF9272
:103A4000BF92CF92DF92EF92FF920F931F93CF938B
:103A5000DF93CDB7DEB72C970FB6F894DEBF0FBE5D
:103A6000CDBF4C015B0129013A0160E870E0CE0155
:103A700001960E94C6498B859C85892B09F457C005
:103A80008401055D1F4F14C00E94A2436B017C019D
:103A900044275527BA014C195D096E097F09CE01EB
:103AA00001960E94E2498B859C85892B09F43FC0D1
:103AB0000E94A739FC01C080D1800D2C000CEE08BB
:103AC000FF087601DD24CC240E94A739FC01828105
:103AD0009381092E000CAA0BBB0BBA2FA92F982F8C
:103AE0008827C82AD92AEA2AFB2A0E94A739FC017A
:103AF00084819581092E000CAA0BBB0BC82AD92AF8
:103B0000EA2AFB2A60E0C801C114D104F3E0EF0601
:103B1000F10408F0B9CF0E94A243AB01BC01CE0171
:103B200001960E94E2498B859C85892B09F6CE017E
:103B300001960E941D4A0E941A51BB24AA0CBB1C6C
:103B4000AA0CBB1CAA0CBB1C8A0C9B1C0E946C4FB1
:103B5000F4016283738384839583468257826086EF
:103B600071862C960FB6F894DEBF0FBECDBFDF91E5
:103B7000CF911F910F91FF90EF90DF90CF90BF906A
:103B8000AF909F908F907F906F905F904F9008952F
:103B90000F931F93CF93DF93EC01899199910E942A
:103BA00000308C010E942530AE01B801DF91CF9129
:103BB0001F910F910C94BC45CF92DF92EF92FF9230
:103BC0000F931F93CF93DF93EC010E94A739FC0161
:103BD000C080D1800D2C000CEE08FF087601DD249A
:103BE000CC240E94A739FC0182819381092E000C0C
:103BF000AA0BBB0BBA2FA92F982F8827C82AD92A1E
:103C0000EA2AFB2A0E94A739FC0184819581092EAA
:103C1000000CAA0BBB0BC82AD92AEA2AFB2A60E0AF
:103C2000CE018B96C114D104F3E0EF06F104B8F095
:103C30000E94A2438B019C0144275527BA01401BD7
:103C4000510B620B730BCE018E96DF91CF911F91BA
:103C50000F91FF90EF90DF90CF900C94E2490E947B
:103C6000A243AB01BC01EFCFCF92DF92EF92FF9264
:103C70000F931F93CF93DF938C01EC01AE96CE018F
:103C80000E941D4A0E941A510E946C4FAB01BC0158
:103C9000C80102960E9437176B017C01CE010E9479
:103CA000D449C701B601DF91CF911F910F91FF90C9
:103CB000EF90DF90CF9008955F9808955F9A0895F0
:103CC000579A08958530910540F4FC01EE0FFF1FCF
:103CD000ED53FE4F859194910895E3ECF1E08591C9
:103CE000949108958F929F92AF92BF92CF92DF925C
:103CF000EF92FF920F931F93CF93DF93EC0181E03C
:103D00008AA77E0184E2E80EF11CC7010E9483416C
:103D1000682F6F7EC7010E9465410C811D816E0175
:103D200086E0C80ED11CC8010E94E02F5C010E94F1
:103D30002530A601B5010E9452454E9709F44DC0A9
:103D4000F801EE0FFF1FEE0FFF1FE655FE4F8590A7
:103D50009590A590B490C501B40190582BEB33EF2A
:103D60003F832E83688779878A879B8725EF34EF87
:103D70003D872C8726E636E646E65FE30E94AD5097
:103D80006E877F87888B998B1B8A1A8A1C8A1D8A6B
:103D90001E8A1F8A8BE09BE0998F888F26E636E685
:103DA00046E65FE3C501B4010E94AD506A8F7B8F88
:103DB0008C8F9D8F85E49CE09F8F8E8F88A299A227
:103DC000AAA2BBA28C819D810E94E02F5C010E946F
:103DD0002530A601B5010E94BC45C7010E94834160
:103DE000F801E254FE4F0491682F607F602BC701F9
:103DF0000E9465418AA581110DC0DF91CF911F916D
:103E00000F91FF90EF90DF90CF90BF90AF909F9079
:103E10008F900895488159816A817B81C6010E94F3
:103E20006E128C01BC01C6010E9411116883798356
:103E30008A839B83B8017058CE018596DF91CF911C
:103E40001F910F91FF90EF90DF90CF90BF90AF90B8
:103E50009F908F900C948B42FC0112A608958F9234
:103E60009F92AF92BF92CF92DF92EF92FF920F9309
:103E70001F93CF93DF93EC018B017D836C837C01D7
:103E800086E0E80EF11CCB010E94E02F6C010E943D
:103E90002530A701B6010E9452454E9709F44DC046
:103EA000F801EE0FFF1FEE0FFF1FE655FE4F859046
:103EB0009590A590B490C501B40190582BEB33EFC9
:103EC0003F832E83688779878A879B8725EF34EF26
:103ED0003D872C8726E636E646E65FE30E94AD5036
:103EE0006E877F87888B998B1B8A1A8A1C8A1D8A0A
:103EF0001E8A1F8A8BE09BE0998F888F26E636E624
:103F000046E65FE3C501B4010E94AD506A8F7B8F26
:103F10008C8F9D8F85E49CE09F8F8E8F88A299A2C5
:103F2000AAA2BBA28C819D810E94E02F6C010E94FD
:103F30002530A701B6010E94BC456E0184E2C80E7F
:103F4000D11CC6010E948341F801E254FE4F049146
:103F5000682F607F602BC6010E9465418AA5811190
:103F60000DC0DF91CF911F910F91FF90EF90DF90E7
:103F7000CF90BF90AF909F908F90089548815981C6
:103F80006A817B81C7010E946E128C01BC01C7014E
:103F90000E941111688379838A839B83B8017058CA
:103FA000CE018596DF91CF911F910F91FF90EF90F9
:103FB000DF90CF90BF90AF909F908F900C948B42EA
:103FC000CF92DF92EF92FF920F931F93CF93DF93E5
:103FD000EC01188219821A821B8282E090E09D8394
:103FE0008C836E0186E0C80ED11C1F821E8218864B
:103FF00019861A861B861D861C861E861F86188AB1
:10400000198A1B8A1A8A1C8A1D8A1E8A1F8A198E7F
:10401000188E1A8E1B8E1C8E1D8E1F8E1E8E18A241
:1040200019A21AA21BA28E010C5D1F4F60E0C801ED
:104030000E9462417E0185E2E80EF11CC7010E94E8
:10404000464280E592E09EA38DA3C7010E94634291
:104050001AA6C8010E94F941682F607CC8010E941D
:104060002542C8010E94AF41682F607CC8010E94B0
:10407000DB4162E070E0CE010E942F1F40E050E083
:10408000BA01C6010E946E128C01BC01C6010E94D9
:104090001111688379838A839B83B8017058C701A3
:1040A000DF91CF911F910F91FF90EF90DF90CF9014
:1040B0000C948B4280917103811107C086E493E0D8
:1040C0000E94E01F81E08093710386E493E00895ED
:1040D000EF92FF920F931F93CF93DF938C017C019C
:1040E00086E0E80EF11CC7010E946E12EC01BC01D3
:1040F000C7010E941111F801608371838283938349
:10410000BE017058C8018596DF91CF911F910F9124
:10411000FF90EF900C948B42CF92DF92EF92FF9240
:10412000CF93DF93EC01EC81FD81EE0FFF1FEE0FCB
:10413000FF1FE655FE4FC590D590E590F490C7015E
:10414000B60190582BEB33EF3F832E836887798736
:104150008A879B8725EF34EF3D872C8726E636E656
:1041600046E65FE30E94AD506E877F87888B998B10
:104170001B8A1A8A1C8A1D8A1E8A1F8A8BE09BE072
:10418000998F888F26E636E646E65FE3C701B601DB
:104190000E94AD506A8F7B8F8C8F9D8F85E49CE051
:1041A0009F8F8E8FC8A2D9A2EAA2FBA2DF91CF91E6
:1041B000FF90EF90DF90CF9008957727FB01EE0FEF
:1041C000FF1FE60FF71FEE0FFF1FE80FF91F6681B5
:1041D0007781705885960C948B427727FB01EE0F00
:1041E000FF1F6E0F7F1F660F771F860F971FFC0143
:1041F000208731874287538708950F931F93CF936A
:10420000DF93EC018C819D810E94E02F8C010E9444
:104210002530AE014A5F5F4FB801DF91CF911F910A
:104220000F910C94BC45089521E030E0FC0130AFC3
:1042300027ABBC01695C7F4F0C94743A4430510544
:1042400008F4089528E030E0FC0130AF27ABBC0152
:10425000695C7F4F0C94743A4430510508F408951A
:104260002EE030E0FC0130AF27ABBC01695C7F4F32
:104270000C94743A4430510508F4089523E130E079
:10428000FC0130AF27ABBC01695C7F4F0C94743AE2
:104290004430510508F4089528E130E0FC0130AFC6
:1042A00027ABBC01695C7F4F0C94743A44305105D4
:1042B00008F408952AE130E0FC0130AF27ABBC01DF
:1042C000695C7F4F0C94743A4430510508F40895AA
:1042D0002BE130E0FC0130AF27ABBC01695C7F4FC4
:1042E0000C94743A4430510508F408952CE130E000
:1042F000FC0130AF27ABBC01695C7F4F0C94743A72
:104300004430510508F408952DE130E0FC0130AF50
:1043100027ABBC01695C7F4F0C94743A4430510563
:1043200008F4089521E230E0FC0130AF27ABBC0176
:10433000695C7F4F0C94743A4430510508F4089539
:1043400022E230E0FC0130AF27ABBC01695C7F4F5B
:104350000C94743A4430510508F4089526E230E094
:10436000FC0130AF27ABBC01695C7F4F0C94743A01
:104370004430510508F4089528E230E0FC0130AFE4
:1043800027ABBC01695C7F4F0C94743A44305105F3
:1043900008F408952AE230E0FC0130AF27ABBC01FD
:1043A000695C7F4F0C94743A0F931F93FB01A081BB
:1043B000B1812B2F3A2F2C32310540F5EB2FFA2FFC
:1043C000EE0FFF1FEE0FFF1FE353FE4F05911591F8
:1043D00025913491F80120FF12C0F901F595E79578
:1043E000DC01AE0FBF1FED91FC911197E00FF11FA3
:1043F0000190F081E02DCD011F910F910994359529
:104400002795820F931F1F910F9109941F910F9170
:1044100008954830510508F40895DB011596EC9194
:1044200015971496FC91E230F10580F0E7EAF2E08E
:104430002591349143E050E0FC0150AF47AB32AFDF
:1044400021AFBC01695C7F4F0C94743AEE0FFF1FE3
:10445000E955FD4FEDCF4830510508F40895DB01D3
:104460001596EC9115971496FC91E530F10590F4B2
:10447000EE0FFF1FE356FD4F2591349144E050E0CD
:10448000FC0150AF47AB32AF21AFBC01695C7F4F3D
:104490000C94743AEDE9F2E0EFCF4830510578F032
:1044A000FB012481358145E050E0FC0150AF47AB72
:1044B00031AF22AFBC01695C7F4F0C94743A089510
:1044C0004830510578F0FB012481358146E050E009
:1044D000FC0150AF47AB31AF22AFBC01695C7F4FED
:1044E0000C94743A08954830510508F40895DB019E
:1044F0001596EC9115971496FC91E230F10580F039
:10450000E9E9F2E0259134914AE050E0FC0150AF36
:1045100047AB32AF21AFBC01695C7F4F0C94743A5A
:10452000EE0FFF1FE756FD4FEDCF4830510578F0F5
:10453000FB01248135814BE050E0FC0150AF47ABDB
:1045400031AF22AFBC01695C7F4F0C94743A08957F
:104550004830510578F0FB01248135814CE050E072
:10456000FC0150AF47AB31AF22AFBC01695C7F4F5C
:104570000C94743A08954830510508F40895DB010D
:104580001596EC9115971496FC91E530F10590F491
:10459000EE0FFF1FE157FD4F2591349140E150E0B0
:1045A000FC0150AF47AB32AF21AFBC01695C7F4F1C
:1045B0000C94743AEFE8F2E0EFCF4830510578F010
:1045C000FB012481358141E150E0FC0150AF47AB54
:1045D00031AF22AFBC01695C7F4F0C94743A0895EF
:1045E0004830510578F0FB012481358144E150E0E9
:1045F000FC0150AF47AB31AF22AFBC01695C7F4FCC
:104600000C94743A08954830510508F40895DB017C
:104610001596EC9115971496FC91E630F10590F4FF
:10462000EE0FFF1FED57FD4F2591349145E150E00E
:10463000FC0150AF47AB32AF21AFBC01695C7F4F8B
:104640000C94743AE3E8F2E0EFCF4830510578F08B
:10465000FB012481358146E150E0FC0150AF47ABBE
:1046600031AF22AFBC01695C7F4F0C94743A08955E
:104670004830510578F0FB012481358149E150E053
:10468000FC0150AF47AB31AF22AFBC01695C7F4F3B
:104690000C94743A08954830510578F0FB01248158
:1046A00035814EE150E0FC0150AF47AB31AF22AF56
:1046B000BC01695C7F4F0C94743A089548305105F1
:1046C00008F40895E1E8F2E02591349143E250E0E6
:1046D000FC0150AF47AB32AF21AFBC01695C7F4FEB
:1046E0000C94743A4830510578F0FB0124813581EF
:1046F00044E250E0FC0150AF47AB31AF22AFBC0108
:10470000695C7F4F0C94743A08954830510578F0F5
:10471000FB012481358147E250E0FC0150AF47ABFB
:1047200031AF22AFBC01695C7F4F0C94743A08959D
:104730004830510508F40895DB011596EC91159762
:104740001496FC91E230F10580F0EDE7F2E025915E
:10475000349149E250E0FC0150AF47AB32AF21AF9A
:10476000BC01695C7F4F0C94743AEE0FFF1FE35855
:10477000FD4FEDCFFB014C305105D0F04481558108
:10478000B385A2853185208567E070E0FC0170AFBC
:1047900067AB51AF42AF4B2F5A2F632F722F43AFEE
:1047A00054AF65AF76AFBC01695C7F4F0C94743A2F
:1047B0000895FB0148305105B0F0B781A6813581DD
:1047C000248149E050E0FC0150AF47AB4B2F5A2FFA
:1047D000632F722F41AF52AF63AF74AFBC01695CFE
:1047E0007F4F0C94743A0895FB014C305105D0F082
:1047F00044815581B385A285318520856DE070E0C7
:10480000FC0170AF67AB51AF42AF4B2F5A2F632FF4
:10481000722F43AF54AF65AF76AFBC01695C7F4F79
:104820000C94743A0895FB0148305105B0F0B781FB
:10483000A681358124814FE050E0FC0150AF47ABA9
:104840004B2F5A2F632F722F41AF52AF63AF74AF0C
:10485000BC01695C7F4F0C94743A0895FB014C30A5
:104860005105D0F044815581B385A28531852085DD
:1048700062E170E0FC0170AF67AB51AF42AF4B2F0C
:104880005A2F632F722F43AF54AF65AF76AFBC0181
:10489000695C7F4F0C94743A0895FB014C305105CC
:1048A000D0F044815581B385A2853185208567E1AB
:1048B00070E0FC0170AF67AB51AF42AF4B2F5A2F86
:1048C000632F722F43AF54AF65AF76AFBC01695C05
:1048D0007F4F0C94743A0895FB014C305105D0F091
:1048E00044815581B385A2853185208565E270E0DC
:1048F000FC0170AF67AB51AF42AF4B2F5A2F632F04
:10490000722F43AF54AF65AF76AFBC01695C7F4F88
:104910000C94743A08954830510578F0FB012481D5
:1049200035814FE150E0FC0150AF47AB31AF22AFD2
:10493000BC01695C7F4F0C94743A0895FB014830C8
:10494000510590F0448155812681378160E270E005
:10495000FC0170AF67AB51AF42AF33AF24AFBC01C6
:10496000695C7F4F0C94743A0895FB0148305105FF
:10497000A0F047815681658174812BE230E0FC0113
:1049800030AF27AB6627772741AF52AF63AF74AF25
:10499000BC01695C7F4F0C94743A0895AF92BF924A
:1049A000CF92DF92EF92FF920F931F93CF93DF93FB
:1049B0007C010E941D470E9481475C010E941347B1
:1049C000EC01892B59F4DF91CF911F910F91FF904A
:1049D000EF90DF90CF90BF90AF900895670186E091
:1049E000C80ED11C85015701EEE0AE0EB11C05C00A
:1049F000C6010E94A840219731F3F80161918F010F
:104A0000C6010E94BC40F70190A99923A1F34085FB
:104A100051854430510560F3B501C7010E94D4218E
:104A2000E7CFEF92FF920F931F93CF93DF93EC01A9
:104A300082E090E098AF8FABBE01695C7F4FCE0102
:104A40000E94743A8E010A5F1F4F64E070E0C80153
:104A50000E948340EC01188682E089871B861A86B3
:104A6000CE010E946440ED80FC800E941D47A7019A
:104A7000485F5F4FBE010E94BC47BE01C801DF9185
:104A8000CF911F910F91FF90EF900C949340853040
:104A9000910540F4FC01EE0FFF1FE356FD4F859199
:104AA00094910895EDE9F2E0859194910895823012
:104AB000910528F0E9E9F2E0859194910895FC01CF
:104AC000EE0FFF1FE756FD4F8591949108958530B5
:104AD000910540F4FC01EE0FFF1FE157FD4F85915A
:104AE00094910895EFE8F2E08591949108958630CD
:104AF000910540F4FC01EE0FFF1FED57FD4F85912E
:104B000094910895E3E8F2E0859194910895E1E8A5
:104B1000F2E08591949108958230910528F0EDE7B7
:104B2000F2E0859194910895FC01EE0FFF1FE35888
:104B3000FD4F8591949108958091B803811119C01A
:104B400089E793E00E94543A8AE592E090937A03D1
:104B5000809379038FE793E00E9494400E941D4761
:104B600040E855E260E070E00E94624781E0809397
:104B7000B80389E793E008958F929F92AF92BF9216
:104B8000CF92DF92EF92FF920F931F93CF93DF9319
:104B900000D000D0CDB7DEB75B0106966C016CE2A9
:104BA00070E029833A834B835C830E9483404C01ED
:104BB000FC01108681E08187138612865C8154A7F0
:104BC0004B8145A73A8136A7298127A710AB01ABB6
:104BD000F2AAE3AAC4010C9620E2FC0111922A95E4
:104BE000E9F7B5010E94C453C4010E946440F40176
:104BF000058114810E941D47A801485F5F4FB401E1
:104C00000E94BC47B401C6010F900F900F900F9007
:104C1000DF91CF911F910F91FF90EF90DF90CF9098
:104C2000BF90AF909F908F900C949340EF92FF9223
:104C30000F931F93CF93DF93162F072F06967C01B8
:104C400068E070E00E948340EC01188683E0898769
:104C50001B861A860C871D871F861E86CE010E9422
:104C600064400D811C810E941D47A801485F5F4F71
:104C7000BE010E94BC47BE01C701DF91CF911F91C9
:104C80000F91FF90EF900C949340EF92FF920F934F
:104C90001F93CF93DF93162F072F06967C0168E0B2
:104CA00070E00E948340EC01188684E089871B86AF
:104CB0001A860C871D871F861E86CE010E946440BF
:104CC0000D811C810E941D47A801485F5F4FBE01F6
:104CD0000E94BC47BE01C701DF91CF911F910F9188
:104CE000FF90EF900C949340AF92BF92CF92DF92DF
:104CF000EF92FF920F931F93CF93DF9300D000D0DA
:104D0000CDB7DEB7D62EC72E06967C016CE070E0DC
:104D10002B833C8349835A830E9483405C01FC01BE
:104D2000108685E0818713861286C486D5865A81CF
:104D30005687498147873C812B81C801432F522FD9
:104D4000692F702FF501408B518B628B738BC501DE
:104D50000E946440F501058114810E941D47A8014D
:104D6000485F5F4FB5010E94BC47B501C7010F9076
:104D70000F900F900F90DF91CF911F910F91FF90A7
:104D8000EF90DF90CF90BF90AF900C949340AF9294
:104D9000BF92CF92DF92EF92FF920F931F93CF9328
:104DA000DF9300D000D0CDB7DEB7D62EC72E069643
:104DB0007C016CE070E02B833C8349835A830E9422
:104DC00083405C01FC01108686E081871386128691
:104DD000C486D5865A815687498147873C812B8175
:104DE000C801432F522F692F702FF501408B518B33
:104DF000628B738BC5010E946440F50105811481AB
:104E00000E941D47A801485F5F4FB5010E94BC4743
:104E1000B501C7010F900F900F900F90DF91CF91C8
:104E20001F910F91FF90EF90DF90CF90BF90AF90C8
:104E30000C949340AF92BF92CF92DF92EF92FF9289
:104E40000F931F93CF93DF9300D000D0CDB7DEB781
:104E5000D62EC72E06967C016CE070E02B833C8337
:104E600049835A830E9483405C01FC01108687E0DD
:104E7000818713861286C486D5865A8156874981D2
:104E800047873C812B81C801432F522F692F702FF8
:104E9000F501408B518B628B738BC5010E9464407E
:104EA000F501058114810E941D47A801485F5F4FED
:104EB000B5010E94BC47B501C7010F900F900F903C
:104EC0000F90DF91CF911F910F91FF90EF90DF90A6
:104ED000CF90BF90AF900C949340EF92FF920F93BE
:104EE0001F93CF93DF9306967C0164E070E00E94ED
:104EF0008340EC01188688E089871B861A86CE01DC
:104F00000E9464400D811C810E941D47A801485FDA
:104F10005F4FBE010E94BC47BE01C701DF91CF9128
:104F20001F910F91FF90EF900C949340CF92DF92DE
:104F3000EF92FF920F931F93CF93DF9300D0CDB7E3
:104F4000DEB7162F072F06967C0168E070E04983D4
:104F50005A830E9483406C01FC01108689E081879E
:104F6000138612865A81952F4981842F402F512F05
:104F7000692F782F4487558766877787C6010E94F7
:104F80006440F601058114810E941D47A801485F15
:104F90005F4FB6010E94BC47B601C7010F900F904A
:104FA000DF91CF911F910F91FF90EF90DF90CF9005
:104FB0000C949340EF92FF920F931F93CF93DF9344
:104FC000162F072F06967C0168E070E00E94834050
:104FD000EC0118868AE089871B861A860C871D8754
:104FE0001F861E86CE010E9464400D811C810E9496
:104FF0001D47A801485F5F4FBE010E94BC47BE012C
:10500000C701DF91CF911F910F91FF90EF900C940A
:105010009340AF92BF92CF92DF92EF92FF920F93A5
:105020001F93CF93DF9300D000D0CDB7DEB7D62E3D
:10503000C72E06967C016CE070E02B833C8349838D
:105040005A830E9483405C01FC0110868BE08187BB
:1050500013861286C486D5865A815687498147872A
:105060003C812B81C801432F522F692F702FF501EE
:10507000408B518B628B738BC5010E946440F5019C
:10508000058114810E941D47A801485F5F4FB5014B
:105090000E94BC47B501C7010F900F900F900F9071
:1050A000DF91CF911F910F91FF90EF90DF90CF9004
:1050B000BF90AF900C949340AF92BF92CF92DF928B
:1050C000EF92FF920F931F93CF93DF9300D000D006
:1050D000CDB7DEB7D62EC72E06967C016CE070E009
:1050E0002B833C8349835A830E9483405C01FC01EB
:1050F00010868CE0818713861286C486D5865A81F5
:105100005687498147873C812B81C801432F522F05
:10511000692F702FF501408B518B628B738BC5010A
:105120000E946440F501058114810E941D47A80179
:10513000485F5F4FB5010E94BC47B501C7010F90A2
:105140000F900F900F90DF91CF911F910F91FF90D3
:10515000EF90DF90CF90BF90AF900C949340AF92C0
:10516000BF92CF92DF92EF92FF920F931F93CF9354
:10517000DF9300D000D0CDB7DEB7D62EC72E06966F
:105180007C016CE070E02B833C8349835A830E944E
:1051900083405C01FC0110868DE0818713861286B6
:1051A000C486D5865A815687498147873C812B81A1
:1051B000C801432F522F692F702FF501408B518B5F
:1051C000628B738BC5010E946440F50105811481D7
:1051D0000E941D47A801485F5F4FB5010E94BC4770
:1051E000B501C7010F900F900F900F90DF91CF91F5
:1051F0001F910F91FF90EF90DF90CF90BF90AF90F5
:105200000C949340EF92FF920F931F93CF93DF93F1
:1052100006967C0164E070E00E948340EC011886F1
:105220008EE089871B861A86CE010E9464400D811C
:105230001C810E941D47A801485F5F4FBE010E946C
:10524000BC47BE01C701DF91CF911F910F91FF9025
:10525000EF900C949340CF92DF92EF92FF920F93D6
:105260001F93CF93DF9300D0CDB7DEB7162F072F54
:1052700006967C0168E070E049835A830E9483406F
:105280006C01FC0110868FE08187138612865A819B
:10529000952F4981842F402F512F692F782F4487D4
:1052A000558766877787C6010E946440F6010581AD
:1052B00014810E941D47A801485F5F4FB6010E94FC
:1052C000BC47B601C7010F900F90DF91CF911F919E
:1052D0000F91FF90EF90DF90CF900C949340EF925E
:1052E000FF920F931F93CF93DF93162F072F0696EE
:1052F0007C0168E070E00E948340EC01188680E148
:1053000089871B861A860C871D871F861E86CE01FD
:105310000E9464400D811C810E941D47A801485FC6
:105320005F4FBE010E94BC47BE01C701DF91CF9114
:105330001F910F91FF90EF900C9493408F929F924A
:10534000AF92BF92CF92DF92EF92FF920F931F9393
:10535000CF93DF9300D000D0CDB7DEB7B62EA72E07
:1053600006966C0160E170E029833A834B835C838D
:105370000E9483404C01FC01108681E181871386E5
:105380001286A486B586178616865C81508B4B8163
:10539000418B3A81328B2981238B9801C701432F9E
:1053A000502F692F7E2D448B558B668B778BC401D4
:1053B0000E946440F401058114810E941D47A801E8
:1053C000485F5F4FB4010E94BC47B401C6010F9013
:1053D0000F900F900F90DF91CF911F910F91FF9041
:1053E000EF90DF90CF90BF90AF909F908F900C94F4
:1053F00093408F929F92AF92BF92CF92DF92EF92A3
:10540000FF920F931F93CF93DF9300D000D0CDB7BF
:10541000DEB7B62EA72E06966C0160E170E02983F8
:105420003A834B835C830E9483404C01FC011086CD
:1054300082E1818713861286A486B5861786168632
:105440005C81508B4B81418B3A81328B2981238B3C
:105450009801C701432F502F692F7E2D448B558B08
:10546000668B778BC4010E946440F401058114812E
:105470000E941D47A801485F5F4FB4010E94BC47CE
:10548000B401C6010F900F900F900F90DF91CF9154
:105490001F910F91FF90EF90DF90CF90BF90AF9052
:1054A0009F908F900C949340EF92FF920F931F93D5
:1054B000CF93DF9306967C0164E070E00E94834006
:1054C000EC01188683E189871B861A86CE010E942B
:1054D00064400D811C810E941D47A801485F5F4FF9
:1054E000BE010E94BC47BE01C701DF91CF911F9151
:1054F0000F91FF90EF900C949340CF92DF92EF9238
:10550000FF920F931F93CF93DF9300D0CDB7DEB7F9
:10551000162F072F06967C0168E070E049835A83B6
:105520000E9483406C01FC01108684E18187138610
:1055300012865A81952F4981842F402F512F692F30
:10554000782F4487558766877787C6010E94644015
:10555000F601058114810E941D47A801485F5F4F35
:10556000B6010E94BC47B601C7010F900F90DF91B2
:10557000CF911F910F91FF90EF90DF90CF900C94FF
:105580009340EF92FF920F931F93CF93DF93162FC9
:10559000072F06967C0168E070E00E948340EC01D2
:1055A000188685E189871B861A860C871D871F86CA
:1055B0001E86CE010E9464400D811C810E941D4701
:1055C000A801485F5F4FBE010E94BC47BE01C701F2
:1055D000DF91CF911F910F91FF90EF900C9493402A
:1055E0008F929F92AF92BF92CF92DF92EF92FF92F3
:1055F0000F931F93CF93DF9300D000D0CDB7DEB7CA
:10560000B62EA72E06966C0160E170E029833A83DE
:105610004B835C830E9483404C01FC01108686E131
:10562000818713861286A486B586178616865C81C6
:10563000508B4B81418B3A81328B2981238B98018E
:10564000C701432F502F692F7E2D448B558B668BBE
:10565000778BC4010E946440F401058114810E948B
:105660001D47A801485F5F4FB4010E94BC47B401C9
:10567000C6010F900F900F900F90DF91CF911F9167
:105680000F91FF90EF90DF90CF90BF90AF909F90E1
:105690008F900C9493408F929F92AF92BF92CF9233
:1056A000DF92EF92FF920F931F93CF93DF9300D07F
:1056B00000D0CDB7DEB7B62EA72E06966C0160E1FE
:1056C00070E029833A834B835C830E9483404C01C2
:1056D000FC01108687E1818713861286A486B58631
:1056E000178616865C81508B4B81418B3A81328BB9
:1056F0002981238B9801C701432F502F692F7E2DBD
:10570000448B558B668B778BC4010E946440F401F7
:10571000058114810E941D47A801485F5F4FB401B5
:105720000E94BC47B401C6010F900F900F900F90DC
:10573000DF91CF911F910F91FF90EF90DF90CF906D
:10574000BF90AF909F908F900C949340EF92FF92F8
:105750000F931F93CF93DF9306967C0164E070E074
:105760000E948340EC01188688E189871B861A868F
:10577000CE010E9464400D811C810E941D47A8013A
:10578000485F5F4FBE010E94BC47BE01C701DF9169
:10579000CF911F910F91FF90EF900C949340CF9277
:1057A000DF92EF92FF920F931F93CF93DF9300D07E
:1057B000CDB7DEB7162F072F06967C0168E070E0A4
:1057C00049835A830E9483406C01FC01108689E161
:1057D0008187138612865A81952F4981842F402F05
:1057E000512F692F782F4487558766877787C601A1
:1057F0000E946440F601058114810E941D47A801A2
:10580000485F5F4FB6010E94BC47B601C7010F90C9
:105810000F90DF91CF911F910F91FF90EF90DF904C
:10582000CF900C949340EF92FF920F931F93CF93DE
:10583000DF9306967C0164E070E00E948340EC01F7
:1058400018868AE189871B861A86CE010E946440E9
:105850000D811C810E941D47A801485F5F4FBE015A
:105860000E94BC47BE01C701DF91CF911F910F91EC
:10587000FF90EF900C949340EF92FF920F931F9341
:10588000CF93DF9306967C0164E070E00E94834032
:10589000EC0118868BE189871B861A86CE010E944F
:1058A00064400D811C810E941D47A801485F5F4F25
:1058B000BE010E94BC47BE01C701DF91CF911F917D
:1058C0000F91FF90EF900C949340EF92FF920F9303
:1058D0001F93CF93DF9306967C0164E070E00E94F3
:1058E0008340EC0118868CE189871B861A86CE01DD
:1058F0000E9464400D811C810E941D47A801485FE1
:105900005F4FBE010E94BC47BE01C701DF91CF912E
:105910001F910F91FF90EF900C949340EF92FF92A4
:105920000F931F93CF93DF9306967C0164E070E0A2
:105930000E948340EC0118868DE189871B861A86B8
:10594000CE010E9464400D811C810E941D47A80168
:10595000485F5F4FBE010E94BC47BE01C701DF9197
:10596000CF911F910F91FF90EF900C949340CF92A5
:10597000DF92EF92FF920F931F93CF93DF9300D0AC
:10598000CDB7DEB7162F072F06967C0168E070E0D2
:1059900049835A830E9483406C01FC0110868EE18A
:1059A0008187138612865A81952F4981842F402F33
:1059B000512F692F782F4487558766877787C601CF
:1059C0000E946440F601058114810E941D47A801D0
:1059D000485F5F4FB6010E94BC47B601C7010F90F8
:1059E0000F90DF91CF911F910F91FF90EF90DF907B
:1059F000CF900C949340CF92DF92EF92FF920F934F
:105A00001F93CF93DF9300D0CDB7DEB7162F072FAC
:105A100006967C0168E070E049835A830E948340C7
:105A20006C01FC0110868FE1818713861286048742
:105A300015875A81568749814787C6010E9464406D
:105A4000F601058114810E941D47A801485F5F4F40
:105A5000B6010E94BC47B601C7010F900F90DF91BD
:105A6000CF911F910F91FF90EF90DF90CF900C940A
:105A70009340CF92DF92EF92FF920F931F93CF93B9
:105A8000DF9300D0CDB7DEB7162F072F06967C0127
:105A900068E070E049835A830E9483406C01FC01F6
:105AA000108680E2818713861286048715875A81C3
:105AB000568749814787C6010E946440F6010581E7
:105AC00014810E941D47A801485F5F4FB6010E94E4
:105AD000BC47B601C7010F900F90DF91CF911F9186
