:100000000C94B5020C94D2020C94D2020C94D2023D
:100010000C94D2020C94D2020C94D2020C94D20210
:100020000C94D2020C94D2020C94D2020C94D20200
:100030000C94D2020C94D2020C94D2020C94D202F0
:100040000C947F4C0C94D2020C94D2020C94D202E9
:100050000C94674D0C94D2020C94D2020C94D202F0
:100060000C94D2020C94D2020C94D2020C94D202C0
:10007000FE0100007A4406FE0100007A4405FE01FC
:1000800000007A440408020000803F0608020000D5
:10009000803F0508020000803F04120200247449DA
:1000A0000512020024744904210200007A4406214A
:1000B0000200007A4405210200007A4404D40200C0
:1000C00000D5020000660800000F0800001A0300B7
:1000D0000082030000A2030000D2030000FA0A001D
:1000E00000060400001E040000380400005804004C
:1000F0000088040000700A0000BC0400004E0300E9
:1001000000D4040000FE040000B50A0000DE080070
:10011000003F05000059050000830500002B0A0080
:10012000003F0B0000C4050000D1050000DE050003
:1001300000EB050000E8070000F8050000330600AA
:1001400000900600009D060000AA060000C40600FC
:1001500000EE060000E60900002F0700004E070031
:10016000005B0700007707000089070000B907005F
:10017000001B0E00006E0E0000AE0E0000462F7732
:10018000206465762000492D5620536F7572636593
:10019000204D6574657200ACC5273717B7D1386F2D
:1001A00012833A0AD7233CCDCCCC3D08040201008F
:1001B00000000100020003000400ACC5273717B798
:1001C000D1386F12833A0AD7233CCDCCCC3D0804FA
:1001D00002010000000100020003000400B221003F
:1001E00000B3210000AC240000E82200000A230034
:1001F000002C2300003F230000DE240000D3210058
:1002000000FE240000522300007423000087230016
:10021000001A250000E12100003A2500009A230081
:1002200000BC23000056250000EF210000CF230072
:1002300000E22300000424000076250000FD2100D8
:1002400000172400000B22000019220000272200C2
:1002500000352200002A240000B6250000C9250030
:100260000043220000512200003D240000512400E0
:1002700000962500005F220000642400006D22002B
:1002800000772400007B220000C4240000892200A3
:10029000009924000097220000A522000000000120
:1002A000000000000001000200030004000500003F
:1002B0000001000200030004000000010000000132
:1002C00000020003000400000001001E001E001ECA
:1002D000001E001E001E001E002800280028002806
:1002E00000280028002800280028002800280022D4
:1002F00000280013000C000D000E000F001000116C
:10030000000700080009000A000B000500060000B5
:100310000001000200030004006F12833A0AD72391
:100320003CCDCCCC3D0000803F000020410000C807
:100330004208040201003000000100000001000238
:100340000003000400050000002041000000002020
:10035000410000C842002000000100030003000229
:10036000000AD7233C0300030003000AD7233C0301
:1003700000030004000AD7233C0200020004006FBF
:1003800012833A01000100040017B7D138010001BF
:10039000000400ACC52737010001000400BD37860A
:1003A000350300030002000AD7233CCDCCCC3D032B
:1003B00000030003000AD7233C0000803F03000332
:1003C0000004000AD7233C00002041020002000480
:1003D000006F12833A000020410100010004001761
:1003E000B7D13800002041010001000400ACC5274E
:1003F0003700002041010001000400BD37863500B0
:100400000020410000010002000300040005000676
:100410000080C087450000884500008E450000949C
:1004200045000000FFFFFFFF000100FF002000105B
:100430000008000400010203BC4E0000C34E00008F
:10044000E24E00006E4F0000014F00008E4F000092
:10045000084F00000F4F0000164F00002E4F000005
:10046000354F0000594F00006E616E00696E6600E6
:1004700000407A10F35A00A0724E18090010A5D45B
:10048000E80000E87648170000E40B54020000CAB8
:100490009A3B000000E1F5050000809698000000FE
:1004A00040420F000000A08601000000102700005D
:1004B0000000E803000000006400000000000A00E3
:1004C000000000000100000000002C76D888DC67E6
:1004D0004F0823DFC1DFAE59E1B1B796E5E3E4533E
:1004E000C63AE651997696E8E6C28426EB898C9B5B
:1004F00062ED407C6FFCEFBC9C9F40F2BAA56FA5FB
:10050000F490055A2AF75C936B6CF9676DC11BFC7C
:10051000E0E40D47FEF520E6B500D0ED902E030097
:10052000943577050080841E080000204E0A0000E4
:1005300000C80C333333330F986E12831141EF8DA3
:100540002114893BE65516CFFEE6DB18D1844B38E3
:100550001BF77C1D901DA4BBE424203284725E2214
:100560008100C9F124ECA1E53D2711241FBECFEF86
:10057000D0E1DEBFCDBF12E0A0E0B1E0EEE1F9EBEB
:1005800002C005900D92AE3BB107D9F723E0AEEB68
:10059000B2E001C01D92AA37B207E1F70E9419111B
:1005A0000C948D5C0C9400000895CF92DF92EF9232
:1005B000FF920F931F93DC019496ED91FC91959718
:1005C00040815181052E000C660B770B9A01112793
:1005D000002742815381052E000C660B770B762F86
:1005E000652F542F4427402B512B622B732B2481D2
:1005F00035818901330F220B330B6A017B01C02A3D
:10060000D12AE22AF32AA701960114E0E12E12E092
:10061000F12E02E010E068E171E090968D919C91DE
:1006200091970E94C2261F910F91FF90EF90DF904B
:10063000CF9008950F931F93CF93DF93EC018B011D
:10064000FB01828193810E94EC1ABC018A8D9B8DF3
:100650000E94141CEA8DFB8D808191810E944726A7
:10066000BC0188A199A10E94662BF8018281938127
:100670000E94F31EBC018E899F890E94BE1FEE89D5
:10068000FF89848195810E942726BC0188A199A1B8
:10069000DF91CF911F910F910C94D4270F931F934B
:1006A000CF93DF93EC018B01FB01828193810E9448
:1006B000F31EBC018E899F890E94BE1FEE89FF89AF
:1006C000848195810E942726BC0188A199A10E945E
:1006D000D427F801828193810E94EC1ABC018A8D93
:1006E0009B8D0E94141CEA8DFB8D808191810E945C
:1006F0004726BC0188A199A1DF91CF911F910F914D
:100700000C94662B0F931F93FC0126893789FB01FC
:10071000628173817727FB01EE0FFF1FE60FF71F42
:10072000EE0FFF1FE20FF31F008511852285338531
:1007300046815781FC0180A191A10E940D281F9143
:100740000F910895EF92FF920F931F93CF93DF9332
:100750007C01FB01C281D381DD27BE01FC018689BA
:1007600097890E948121F70186899789FE01EE0F02
:10077000FF1FEC0FFD1FEE0FFF1FE80FF91F008595
:1007800011852285338546815781BE01F70180A1FD
:1007900091A10E946928DF91CF911F910F91FF9045
:1007A000EF900895EF92FF920F931F93CF93DF93F3
:1007B0007C01FB01C281D381DD2724813581468103
:1007C0005781BE01FC01868997890E949121F7011A
:1007D00086899789FE01EE0FFF1FEC0FFD1FEE0FBC
:1007E000FF1FE80FF91F008511852285338546819B
:1007F0005781BE01F70180A191A10E94C528DF9118
:10080000CF911F910F91FF90EF900895CF93DF93B9
:10081000EC01FB0142815381648175818E899F893E
:100820000E940C21EE89FF89408151816281738190
:1008300088A199A1DF91CF910C945029CF93DF9398
:10084000EC01FB01828193810E948D3ABC01888D6D
:10085000998D0E94A03AE88DF98D848195810E943E
:100860003726BC0188A199A1DF91CF910C949D29D5
:100870000F931F93FC01208D318DFB0162817381E9
:100880007727FB01EE0FFF1FE60FF71FEE0FFF1F8D
:10089000E20FF31F0085118522853385468157813C
:1008A000FC0180A191A10E94D6291F910F9108956A
:1008B000EF92FF920F931F93CF93DF937C01FB0185
:1008C000C281D381DD27BE01FC01808D918D0E9404
:1008D0008A3CF701808D918DFE01EE0FFF1FEC0F1A
:1008E000FD1FEE0FFF1FE80FF91F00851185228500
:1008F000338546815781BE01F70180A191A10E94F5
:10090000322ADF91CF911F910F91FF90EF900895C0
:10091000EF92FF920F931F93CF93DF937C01FB0124
:10092000C281D381DD272481358146815781BE0173
:10093000FC01808D918D0E949A3CF701808D918DF4
:10094000FE01EE0FFF1FEC0FFD1FEE0FFF1FE80F64
:10095000F91F008511852285338546815781BE01A7
:10096000F70180A191A10E948E2ADF91CF911F9162
:100970000F91FF90EF900895CF93DF93EC01FB016F
:100980004281538164817581888D998D0E94153CC7
:10099000E88DF98D408151816281738188A199A18F
:1009A000DF91CF910C94192BEF92FF920F931F932D
:1009B000DC015A96ED91FC915B97DB0112966D91EB
:1009C0007C91139777279B01220F331F220F331F30
:1009D000220F331FE20FF31FE680F7800085118599
:1009E0002281338144815581FC0180A191A10E9423
:1009F0009F2B1F910F91FF90EF900895CF92DF9260
:100A0000EF92FF920F931F93CF93DF936C01DB0163
:100A10001296CD91DC911397DD2714962D913D917F
:100A20004D915C911797BE01FC01828D938D0E94C0
:100A3000B51DD6015A96ED91FC915B979E01220F50
:100A4000331F220F331F220F331FE20FF31FE680E5
:100A5000F780008511852281338144815581BE0153
:100A600090968D919C9191970E94042CDF91CF914B
:100A70001F910F91FF90EF90DF90CF900895CF934B
:100A8000DF93EC01FB01828193810E946334BC01FE
:100A90008C8D9D8D0E94C235EC8DFD8D8081918164
:100AA0000E945726BC0188A199A1DF91CF910C9497
:100AB000E52CEF92FF920F931F93DC015C96ED9172
:100AC000FC915D97DB0112966D917C9113977727CE
:100AD0009B01220F331F220F331F220F331FE20F00
:100AE000F31FE680F78000851185228133814481E0
:100AF0005581FC0180A191A10E941E2D1F910F9193
:100B0000FF90EF900895CF92DF92EF92FF920F93B4
:100B10001F93CF93DF936C01DB011296CD91DC9193
:100B20001397DD2714962D913D914D915C91179768
:100B3000BE01FC01848D958D0E942F37D6015C96F5
:100B4000ED91FC915D979E01220F331F220F331F01
:100B5000220F331FE20FF31FE680F7800085118517
:100B60002281338144815581BE0190968D919C9163
:100B700091970E94832DDF91CF911F910F91FF904C
:100B8000EF90DF90CF900895CF93DF93EC018E89A3
:100B90009F890E94302188A199A1DF91CF910C9467
:100BA000642ECF93DF93EC01888D998D0E94393CA0
:100BB00088A199A1DF91CF910C94932ECF93DF93CD
:100BC000EC018A8D9B8D0E944E1D88A199A1DF9119
:100BD000CF910C94C22ECF93DF93EC018C8D9D8D21
:100BE0000E94C83688A199A1DF91CF910C94F12E73
:100BF000DB0112962D913C9113972130310521F1A3
:100C00002230310591F0232B09F00895DC019496F0
:100C1000ED91FC9195974081518160E070E0909654
:100C20008D919C9191970C946D2FDC019496ED9190
:100C3000FC9195974481558162E070E090968D918A
:100C40009C9191970C946D2FDC019496ED91FC9101
:100C500095974281538161E070E090968D919C91CF
:100C600091970C946D2FDB0112962D913C91139767
:100C700014964D915C9115972130310559F1223030
:100C80003105D1F02115310549F02130310581F1CF
:100C900022303105A9F1232BD9F10895DC01949676
:100CA000ED91FC9195975183408360E070E0FC01E9
:100CB00080A191A10C94B52FDC019496ED91FC914B
:100CC00095975583448362E070E0FC0180A191A177
:100CD0000C94B52FDC019496ED91FC91959753837C
:100CE000428361E070E0FC0180A191A10C94B52FDA
:100CF000DC019496ED91FC91959742815381F1CF5F
:100D0000DC019496ED91FC91959744815581DBCF60
:100D1000DC019496ED91FC91959740815181C5CF6E
:100D2000CF93DF93EC018CA19DA10E94B93E88A1D5
:100D300099A1DF91CF910C94FD2FCF93DF93EC011C
:100D40008CA19DA10E94C13E88A199A1DF91CF9164
:100D50000C942C30CF93DF93EC01FB0182819381C3
:100D60000E941938BC018E8D9F8D0E94EB38EE8D4C
:100D7000FF8D858196810E946726BC0188A199A17B
:100D8000DF91CF910C945B30EF92FF920F931F9302
:100D9000DC015E96ED91FC915F97DB0112966D91FF
:100DA0007C91139777279B01220F331F220F331F4C
:100DB000220F331FE20FF31FE384F48405851685A9
:100DC0002781308541855285FC0180A191A10E9437
:100DD00094301F910F91FF90EF900895CF92DF9282
:100DE000EF92FF920F931F93CF93DF936C01DB0180
:100DF0001296CD91DC911397DD2714962D913D919C
:100E00004D915C911797BE01FC01868D978D0E94D4
:100E10007C39D6015E96ED91FC915F979E01220F81
:100E2000331F220F331F220F331FE20FF31FE38400
:100E3000F484058516852781308541855285BE015C
:100E400090968D919C9191970E94F930DF91CF916E
:100E50001F910F91FF90EF90DF90CF9008950F9327
:100E60001F93CF93DF93EC018B0188A599A50E9476
:100E7000DE3CF801628173818E8D9F8D0E944B3A1A
:100E8000AB01BC0188A199A10E948D3188A599A5CB
:100E9000DF91CF911F910F910C94E03CCF93DF93A2
:100EA000EC018E8D9F8D0E94E43988A199A1DF917C
:100EB000CF910C94DA31CF93DF93EC01FB01828167
:100EC00093810E947334BC018C8D9D8D0E94DB3711
:100ED000EC8DFD8DEF5BFF4F808191810E946C2630
:100EE000BC0188A199A1DF91CF910C940932CF93D5
:100EF000DF93EC01EC8DFD8DEF5BFF4F80819181E5
:100F00000E946C26BC0188A199A1DF91CF910C941D
:100F10004232CF92DF92EF92FF92CF93DF93EC01B8
:100F2000FB01C280D380E480F580B701A60188A1CF
:100F300099A10E94B42681110AC088A199A1DF91CC
:100F4000CF91FF90EF90DF90CF900C942627B701C0
:100F5000A60188A199A10E947B32B701A60188A1B0
:100F600099A1DF91CF91FF90EF90DF90CF900C94FB
:100F7000BB26CF93DF93EC0188899989009749F0CC
:100F80000E94933FBC0188A199A1DF91CF910C945D
:100F9000C33260E070E088A199A1DF91CF910C94F9
:100FA000C332CF93DF93EC0188E292E09983888388
:100FB00088899989009739F0DC01ED91FC910280D4
:100FC000F381E02D0995CE01DF91CF910C94CC3FB8
:100FD0000F931F93CF93DF93EC018B01888D998D35
:100FE0000E949D3A88A599A50E94DC3C8E899F8924
:100FF0000E94031F88A599A50E94D63CF801628132
:1010000073818AA19BA10E94B23DAB01BC0188A162
:1010100099A1DF91CF911F910F910C94202FCF9325
:10102000DF93EC01FB01828193810097E9F0019746
:10103000C1F48E899F890E94BB1F88A599A50E9433
:10104000D83C888D998D0E94DC3B88A599A50E948B
:10105000DA3C61E070E088A199A1DF91CF910C9416
:101060009B27DF91CF910895888D998D0E949D3A9D
:1010700088A599A50E94DC3C8E899F890E94031F48
:1010800088A599A50E94D63C60E070E088A199A14E
:10109000DF91CF910C949B27CF93DF93EC0188E2F3
:1010A00092E09983888388899989009739F0DC01D7
:1010B000ED91FC910280F381E02D0995CE010E9413
:1010C000CC3FCE01DF91CF910C9438598F929F92F3
:1010D000AF92BF92CF92DF92EF92FF92CF93DF93C6
:1010E000EC01FB0182809380A480B58081E08B8736
:1010F0008EA19FA10E94CE4C6B017C01C501B40161
:101100000E94A4562FE632E143E85AE30E94A95711
:10111000AB01BC018EA19FA10E94DA4CC60ED71E66
:10112000E81EF91ECC86DD86EE86FF86B501A40199
:1011300088A199A1DF91CF91FF90EF90DF90CF90A0
:10114000BF90AF909F908F900C945327CF92DF92D7
:10115000EF92FF92DB01ED91FC91E033F10548F550
:10116000EE0FFF1FEE0FFF1FE354FF4FC590D5900A
:10117000E590F490F601970135952795E0FE12C0B1
:10118000DC01A20FB31F2D913C911197F901EC0DD9
:10119000FD1D0190F081E02DCD01FF90EF90DF90DB
:1011A000CF900994820F931FFF90EF90DF90CF9024
:1011B0000994FF90EF90DF90CF9008958F929F92C7
:1011C000AF92BF92CF92DF92EF92FF920F931F9355
:1011D000CF93DF93CDB7DEB72B970FB6F894DEBF72
:1011E0000FBECDBF8C017B01DC0198968D919C9147
:1011F00099970E94DE3CF70162817381D8015A966B
:101200008D919C915B970E94B51C4B015C01AB01D9
:10121000BC01F80180A191A10E94982C81E0D80125
:1012200016968C93169796968D919C9197970E94FF
:10123000CE4C6B017C0140E050E060E070E4F801CE
:1012400086A197A10E94DA4CC60ED71EE81EF91E91
:10125000D8011796CD92DD92ED92FC921A975A968C
:10126000ED91FC915B97C080D18054968D919C91BB
:1012700055970E94C641FC0196E0DE01119601904F
:101280000D929A95E1F740E060E0F8018489958934
:101290000E94A2417601EE0CFF1CEE0CFF1CEE0C2E
:1012A000FF1CEC18FD08F701E656FF4FC590D490DF
:1012B00082E00E943B458B8781E00E943B458A8704
:1012C000F701E456FF4F2591359145915491C501A1
:1012D000B4010E94A9574B015C01F701E056FF4F92
:1012E00084910E943C45898789E00E943B4588871C
:1012F00084E00E943B458F8364EF74E4D8015496E8
:101300008D919C9155970E94AA44BE01695F7F4FC1
:101310000E943D4563E271E00E94D14168E175E4BD
:101320000E94AA446CEA74E40E94AA4460ED74E44A
:101330000E94AA44BE01685F7F4F0E943D45BE01E6
:10134000675F7F4F0E946245B501A4010E949043F0
:10135000BE01665F7F4F0E943D456FE871E00E94CD
:10136000D14164EF74E40E94AA44BE01655F7F4FDF
:101370000E943D45B6010E94D14140E061E0F80184
:10138000848995890E94A241BE016F5F7F4FD80179
:1013900054968D919C9155970E94C841F80180A563
:1013A00091A50E94E03C2B960FB6F894DEBF0FBECD
:1013B000CDBFDF91CF911F910F91FF90EF90DF9004
:1013C000CF90BF90AF909F908F900895CF92DF9273
:1013D000EF92FF92CF93DF93EC018E8D9F8D0E9451
:1013E000D33988A199A10E945E3181E08E838EA1BC
:1013F0009FA10E94CE4C6B017C0140E050E060E078
:1014000070E48EA19FA10E94DA4CC60ED71EE81E82
:10141000F91ECF82D886E986FA8640E060E08C89A2
:101420009D890E94A24166E271E08C899D890E949B
:10143000D14140E061E08C899D890E94A24167E32F
:1014400071E08C899D89DF91CF91FF90EF90DF90C3
:10145000CF900C94D141CF92DF92EF92FF92CF9335
:10146000DF93EC018C8D9D8D0E948D3788A199A111
:101470000E94E82D81E08E838EA19FA10E94CE4C18
:101480006B017C0140E050E060E070E48EA19FA120
:101490000E94DA4CC60ED71EE81EF91ECF82D886EF
:1014A000E986FA8640E060E08C899D890E94A2412D
:1014B00066E271E08C899D890E94D14140E061E043
:1014C0008C899D890E94A24167E371E08C899D8986
:1014D000DF91CF91FF90EF90DF90CF900C94D141AE
:1014E000CF92DF92EF92FF92CF93DF93EC01888D42
:1014F000998D0E94AA3C88A199A10E94EA2A81E0C4
:101500008E838EA19FA10E94CE4C6B017C0140E096
:1015100050E060E070E48EA19FA10E94DA4CC60EFC
:10152000D71EE81EF91ECF82D886E986FA8640E0EB
:1015300060E08C899D890E94A24166E271E08C89FD
:101540009D890E94D14140E061E08C899D890E9483
:10155000A24167E371E08C899D89DF91CF91FF9073
:10156000EF90DF90CF900C94D141CF92DF92EF9229
:10157000FF92CF93DF93EC018A8D9B8D0E945D1EBD
:1015800088A199A10E94692C81E08E838EA19FA1E0
:101590000E94CE4C6B017C0140E050E060E070E4C2
:1015A0008EA19FA10E94DA4CC60ED71EE81EF91E1E
:1015B000CF82D886E986FA8640E060E08C899D89F2
:1015C0000E94A24166E271E08C899D890E94D1410E
:1015D00040E061E08C899D890E94A24167E371E04F
:1015E0008C899D89DF91CF91FF90EF90DF90CF9014
:1015F0000C94D141CF92DF92EF92FF92CF93DF9381
:10160000EC018E899F890E94A12188A199A10E9445
:10161000212981E08E838EA19FA10E94CE4C6B0177
:101620007C0140E050E060E070E48EA19FA10E9448
:10163000DA4CC60ED71EE81EF91ECF82D886E98680
:10164000FA8640E060E08C899D890E94A24166E2B2
:1016500071E08C899D890E94D14140E061E08C89D4
:101660009D890E94A24167E371E08C899D89DF9189
:10167000CF91FF90EF90DF90CF900C94D1418F925B
:101680009F92AF92BF92CF92DF92EF92FF920F9311
:101690001F93CF93DF93CDB7DEB72B970FB6F89498
:1016A000DEBF0FBECDBF8C017B01DC0198968D9112
:1016B0009C9199970E94DE3CF70162817381D80169
:1016C0005C968D919C915D970E946D364B015C01FB
:1016D000AB01BC01F80180A191A10E94172E81E00D
:1016E000D80116968C93169796968D919C91979704
:1016F0000E94CE4C6B017C0140E050E060E070E461
:10170000F80186A197A10E94DA4CC60ED71EE81EEA
:10171000F91ED8011796CD92DD92ED92FC921A97A0
:101720005C96ED91FC915D97C080D18054968D912F
:101730009C9155970E94C641FC0196E0DE011196EE
:1017400001900D929A95E1F740E060E0F8018489FC
:1017500095890E94A24140E061E0D80154968D91A4
:101760009C9155970E94A2417601EE0CFF1CEE0C55
:10177000FF1CEE0CFF1CEC18FD08F701E059FF4FB1
:10178000C590D49082E00E943B458B8781E00E9407
:101790003B458A87F701EE58FF4F259135914591DA
:1017A0005491C501B4010E94A9574B015C01F70196
:1017B000EA58FF4F84910E943C45898789E00E9446
:1017C0003B45888784E00E943B458F8364EF74E447
:1017D000F801848995890E94AA44BE01695F7F4F00
:1017E0000E943D4568E471E00E94D14168E175E4E2
:1017F0000E94AA446CEA74E40E94AA4460ED74E476
:101800000E94AA44BE01685F7F4F0E943D45BE0111
:10181000675F7F4F0E946245B501A4010E9490431B
:10182000BE01665F7F4F0E943D456FE871E00E94F8
:10183000D14164EF74E40E94AA44BE01655F7F4F0A
:101840000E943D45B6010E94D141BE016F5F7F4FAE
:10185000D80154968D919C9155970E94C841F801EA
:1018600080A591A50E94E03C2B960FB6F894DEBFB0
:101870000FBECDBFDF91CF911F910F91FF90EF90E1
:10188000DF90CF90BF90AF909F908F9008950C9471
:10189000A3580C9438590F931F93CF93DF93CDB770
:1018A000DEB7AB970FB6F894DEBF0FBECDBF8C018D
:1018B000FC01848995890E94C641FC0196E0DE0105
:1018C000919601900D929A95E1F740E060E0F80161
:1018D000848995890E94A24166E871E0CE01019653
:1018E0000E94725BBC01F801848995890E94D141F4
:1018F00040E061E0F801848995890E94A24182E07C
:101900000E943B458FA381E00E943B4588A782E06F
:101910000E943B4589A781E00E943B458AA782E05F
:101920000E943B458BA76DE771E0CE0101960E94B6
:10193000725BBC01F801848995890E94D141BE0186
:10194000655D7F4F0E943D4560ED74E40E94AA44AE
:1019500042E050E060E070E00E949B42BE01665DA4
:101960007F4F0E943D456BE471E00E94D141BE0172
:10197000675D7F4F0E943D4560ED74E40E94AA447C
:1019800042E050E060E070E00E949B42BE01685D72
:101990007F4F0E943D456BE471E00E94D141BE0142
:1019A000695D7F4F0E943D4560ED74E40E94AA444A
:1019B00044E050E060E070E00E949B42BE016F5D39
:1019C0007F4FF801848995890E94C841AB960FB674
:1019D000F894DEBF0FBECDBFDF91CF911F910F9165
:1019E0000895CF92DF92EF92FF92CF93DF93EC01B5
:1019F0000E947B4088E292E0998388831E821F8246
:101A0000188619861A861B861C861D861E861F86CA
:101A1000198A188A1B8A0E94BD409D8B8C8B0E945C
:101A2000EB209F8B8E8B0E94BB3B998F888F0E94EF
:101A3000F31B9B8F8A8F0E94A1359D8F8C8F809185
:101A4000CA02882309F462C08091C0029091C10249
:101A50008E8F9F8F0E947C2699A388A30E94E23CD0
:101A60009BA38AA30E946F3E9DA38CA30E94A44CBB
:101A70009FA38EA30E94BB3C99A788A78E899F89AC
:101A80000E94031F88A599A50E94D63C40E050E023
:101A9000BA01888D998D0E94153C60E070E08C8DB4
:101AA0009D8D0E94DB37AE0166EA78E088A199A19E
:101AB0000E94AD40CE010E944B0C2FEF8FE19CE1C4
:101AC000215080409040E1F700C00000789481E010
:101AD0008E838EA19FA10E94CE4C6B017C0140E0C1
:101AE00050E060E070E48EA19FA10E94DA4CC60E27
:101AF000D71EE81EF91ECF82D886E986FA86DF91C6
:101B0000CF91FF90EF90DF90CF90089581E390E028
:101B10000E94A3587C010E941E38E092C002F092FD
:101B2000C10281E08093CA02C70192CFCF93DF93B5
:101B30008091C202882339F08091BE029091BF0249
:101B4000DF91CF9108958AE290E00E94A358D82FA8
:101B5000C92F0E94F10CD093BE02C093BF0281E056
:101B60008093C2028D2F9C2FDF91CF910895CF9249
:101B7000DF92EF92FF920F931F93CF93DF93CDB736
:101B8000DEB727970FB6F894DEBF0FBECDBF8C012E
:101B90006B017A0140E060E0FC01848995890E9434
:101BA000A241F801848995890E94C641FC0196E012
:101BB000DE01119601900D929A95E1F784E00E9462
:101BC0003B458F8368E175E4F801848995890E941B
:101BD000AA44BE01695F7F4F0E943D45B6010E9445
:101BE000D14184E00E943B458F8368E175E4F801B0
:101BF000848995890E94AA44BE01695F7F4F0E9433
:101C00003D45B7010E94D141BE016F5F7F4FF80192
:101C1000848995890E94C84127960FB6F894DEBF43
:101C20000FBECDBFDF91CF911F910F91FF90EF902D
:101C3000DF90CF900895EF92FF920F931F93CF9371
:101C4000DF93CDB7DEB762970FB6F894DEBF0FBE55
:101C5000CDBF8C01FB01628173816115710599F51E
:101C600040E050E0F80180A191A10E94FC327C018B
:101C7000BC01F801808991890E949B3F4AE0BE0126
:101C80006F5F7F4FC7010E949F5BAE014F5F5F4F49
:101C90006FE671E0C8010E94B70DFFEF2FE388E304
:101CA000F15020408040E1F700C0000062960FB67E
:101CB000F894DEBF0FBECDBFDF91CF911F910F9182
:101CC000FF90EF900895FC0180899189698B7A8B50
:101CD0000E948B3FAC0169897A89C4CF0F931F930F
:101CE000CF93DF93EC018FE090E00E94A3588C012A
:101CF0000E94403FA889B989A017B10769F1198BE3
:101D0000088B109739F1ED91FC9111970280F381C6
:101D1000E02DCD010995888999890E94843F81E051
:101D20008B8B88A199A10E948B3340E851E061E937
:101D300071E0CE010E94B70D2FEF8FE19CE12150A1
:101D400080409040E1F700C00000DF91CF911F91EB
:101D50000F910895C801E1CFCD01DFCFCF93DF937D
:101D6000EC0142EA51E063EB71E00E94B70D2FEF06
:101D70008FE19CE1215080409040E1F700C00000DD
:101D80001B8A888999890E94883F88899989009748
:101D900049F0198A188ADC01ED91FC910280F381E7
:101DA000E02D099588A199A1DF91CF910C94BA33C8
:101DB0002F923F924F925F926F927F928F929F925B
:101DC000AF92BF92CF92DF92EF92FF920F931F9349
:101DD000CF93DF93CDB7DEB72D970FB6F894DEBF64
:101DE0000FBECDBF3C01F62E19012A01FC018489EA
:101DF00095890E94C641FC0196E0DE011196019092
:101E00000D929A95E1F740E060E0F30184899589AD
:101E10000E94A241F1109CC040E061E0F30184897E
:101E200095890E94A241EE2009F471C08401000F3F
:101E3000111F000F111F000F111F08191909F801B8
:101E4000E059FF4FE590F49082E00E943B458F837C
:101E500081E00E943B458887F801EE58FF4F2591AD
:101E6000359145915491C601B5010E94A9574B0186
:101E70005C01F801EA58FF4F84910E943C45898734
:101E800089E00E943B458A8784E00E943B458B871E
:101E900064EF74E4F301848995890E94AA44BE0129
:101EA000655F7F4F0E943D4568E471E00E94D1412B
:101EB00068E175E40E94AA446CEA74E40E94AA44B2
:101EC00060ED74E40E94AA44BE01665F7F4F0E94E9
:101ED0003D45BE01675F7F4F0E946245B501A40189
:101EE0000E949043BE01685F7F4F0E943D456FE8AE
:101EF00071E00E94D14164EF74E40E94AA44BE01E3
:101F0000695F7F4F0E943D45B7010E94D141BE01EC
:101F10006F5F7F4FF301848995890E94C8412D9698
:101F20000FB6F894DEBF0FBECDBFDF91CF911F91EA
:101F30000F91FF90EF90DF90CF90BF90AF909F9068
:101F40008F907F906F905F904F903F902F9008956B
:101F5000F801EE0FFF1FEE0FFF1FEE0FFF1FCF0167
:101F6000801B910B8C01FC01E656FF4F85919491EB
:101F70009D878C8782E00E943B458F8381E00E9491
:101F80003B458887F801E456FF4F259135914591EF
:101F90005491C201B1010E94A9571B012C01F80103
:101FA000E056FF4F84910E943C45898789E00E945A
:101FB0003B458A8784E00E943B458B8764EF74E44D
:101FC000F301848995890E94AA44BE01655F7F4F11
:101FD0000E943D4563E271E00E94D14168E175E4F1
:101FE0000E94AA446CEA74E40E94AA4460ED74E47E
:101FF0000E94AA44BE01665F7F4F0E943D45BE011C
:10200000675F7F4F0E946245B201A1010E94904329
:10201000BE01685F7F4F0E943D456FE871E00E94FE
:10202000D14164EF74E40E94AA44BE01695F7F4F0E
:102030000E943D456C857D850E94D141EDCE2F9259
:102040003F924F925F926F927F928F929F92AF9248
:10205000BF92CF92DF92EF920F931F93CF93DF93B4
:1020600000D000D0CDB7DEB71C01DC011B968C91EF
:102070001B97811162C0F101828D938D0E94721EA7
:10208000D1015C968D919C915D970E94A437D101FE
:102090005A96ED91FC915B9784AD95AD892BB9F57E
:1020A0005C968D919C915D97DC01DC968D919C9165
:1020B000DD97892B61F5CF010E94C51E9B01AC0104
:1020C000F101848D958D29833A834B835C830E9433
:1020D000B3375B016C01D10116968C9129813A814D
:1020E0004B815C81811183C0D1015C96ED91FC91A3
:1020F0005D97808091805A96ED91FC915B9700816D
:102100001181EE24E39461E0C1010E94D80E0F908A
:102110000F900F900F90DF91CF911F910F91EF9043
:10212000DF90CF90BF90AF909F908F907F906F90F7
:102130005F904F903F902F90089596968D919C912F
:1021400097970E94CE4CF101048515852685378529
:10215000601771078207930798F5F101838588233B
:1021600009F489CFD10153968C915397882309F4B0
:1021700082CF50968D919C915197DC01ED91FC910D
:102180000480F581E02D09954CED51E06DEE71E094
:10219000C1010F900F900F900F90DF91CF911F9181
:1021A0000F91EF90DF90CF90BF90AF909F908F9066
:1021B0007F906F905F904F903F902F900C94B70D51
:1021C00013864DE451E06EE571E0C1010E94B70D48
:1021D000BFEFEFE3F8E3B150E040F040E1F700C0BB
:1021E0000000D1011B968C918111BCCF44CFF1012D
:1021F00086A197A129833A834B835C830E94CE4CAE
:10220000D10117964D905D906D907C901A97298121
:102210003A814B815C81641575058605970518F038
:10222000F101168261CFD10116968C9181116FCF89
:102230005BCF2FEF8FE398E3215080409040E1F790
:1022400000C000000E94960D0E942E4080E090E0A9
:1022500008952F923F924F925F926F927F928F924A
:102260009F92AF92BF92CF92DF92EF92FF920F9325
:102270001F93CF93DF938C01EB01FC01E080F18091
:102280006E157F050CF065C082809380A480B580B8
:10229000A501940160857185828593850E9484558E
:1022A0002B013C01F801668177816E197F09072EA9
:1022B000000C880B990B0E94A6569B01AC01C30130
:1022C000B2010E94F6552B013C01CE19DF09BE0177
:1022D000DD0F880B990B0E94A6569B01AC01C30130
:1022E000B2010E94A9579B01AC01C501B4010E9433
:1022F00085558B01D82FC92F2CE53FE842E85FE3D5
:10230000C501B4010E94A9576B017C019B01AC017E
:10231000B8018D2F9C2F0E94F15587FDEDC0502FE5
:10232000412F9E01652F742F832F922FDF91CF9124
:102330001F910F91FF90EF90DF90CF90BF90AF90E3
:102340009F908F907F906F905F904F903F902F90D5
:102350000895FC01208C318C261637060CF47EC0C3
:10236000A4E0B0E00DC04C175D070CF0CAC09C01A2
:10237000CB01BF2DAC01421B530B42305105FCF089
:102380002B2F30E06A2F70E0C901860F971F9595BB
:102390008795F82EFC01EE0FFF1FE80FF91FEE0FD7
:1023A000FF1FE00FF11F40815181C417D507DCF6F4
:1023B000A82FAC01421B530B423051050CF7F90119
:1023C000EE0FFF1FE20FF31FEE0FFF1FE00FF11FD5
:1023D00082809380A480B580E080F1809C01220FF0
:1023E000331F820F931F880F991F080F191FA50114
:1023F0009401F80162817381848195810E948455E2
:102400002B013C01F801608171816E197F09072E53
:10241000000C880B990B0E94A6569B01AC01C301CE
:10242000B2010E94F6552B013C01CE19DF09BE0115
:10243000DD0F880B990B0E94A6569B01AC01C301CE
:10244000B2010E94A9579B01AC01C501B4010E94D1
:102450008555562F472F382F292F64CFC28CD38C08
:10246000E48CF58C84889588A688B78802891389BE
:10247000A5019401C701B6010E9484552B013C01BE
:10248000B101601B710B072E000C880B990B0E9489
:10249000A6569B01AC01C301B2010E94F6552B0167
:1024A0003C01C01BD10BBE01DD0F880B990B0E94B4
:1024B000A6569B01AC01C301B2010E94A9579B0122
:1024C000AC01C501B4010E9485558B01D82FC92FDD
:1024D0002CE53FE842E85FE3C701B6010E94A95737
:1024E0006B017C019B01AC01B8018D2F9C2F0E94D8
:1024F000A45718160CF013CF5C2D4D2D3E2D2F2D0B
:1025000011CF52814381348125810CCF2F923F928C
:102510004F925F926F927F928F929F92AF92BF92F3
:10252000CF92DF92EF92FF920F931F93CF93DF939F
:10253000CDB7DEB728970FB6F894DEBF0FBECDBF7C
:102540008C016A017B01FC0182809380A480B580AC
:102550009A01AB01C501B4010E94A457F8011816F5
:102560000CF079C060807180B301072C000C880BDF
:10257000990B0E94A65669837A838B839C83F8010A
:102580006681778166197709072E000C880B990BF5
:102590000E94A6562B013C01A5019401F80160851B
:1025A0007185828593850E9484559B01AC01C3018E
:1025B000B2010E94F6552B013C01A5019401C7010F
:1025C000B6010E9484559B01AC01C301B2010E9477
:1025D000A95729813A814B815C810E9485558B01E5
:1025E0005C012CE53FE842E85FE369817A818B81F9
:1025F0009C810E94A9576B017C019B01AC01B80131
:10260000C5010E94F15587FD23C1502F412F3A2D5E
:102610002B2D652F742F832F922F0E9416580E9406
:102620006856CB0128960FB6F894DEBF0FBECDBF1B
:10263000DF91CF911F910F91FF90EF90DF90CF909E
:10264000BF90AF909F908F907F906F905F904F90D2
:102650003F902F900895828C938CA48CB58CA70109
:102660009601C501B4010E94F15587FD94C0F4E0C4
:10267000F9831D8211C0A7019601C301B2010E9416
:10268000F15587FFEAC045015101FE81FD83C50177
:1026900088199909029754F12D81822E912C398144
:1026A000232E312C5401A20CB31CB594A794AE82F6
:1026B000C501880F991F8A0D9B1D880F991FFC016A
:1026C000E00FF11FF887EF834280538064807580AC
:1026D000A7019601C301B2010E94A45718165CF627
:1026E000A982C501881999090297B4F6F401EE0F81
:1026F000FF1FE80DF91DEE0FFF1FE00FF11F2080F7
:1027000031804280538064807580C501880F991F95
:102710008A0D9B1D880F991F080F191FF8016081F2
:10272000718162197309072E000C880B990B0E94A6
:10273000A6564B015C01A3019201F80162817381ED
:10274000848195810E9484559B01AC01C501B4012F
:102750000E94F6554B015C01A3019201C701B6012D
:102760000E9484559B01AC01C501B4010E94A95788
:102770006B017C01B101330C880B990B0E94A656AA
:102780009B01AC01C701B6010E948555562F472F0A
:10279000382F292F3ECFF801208C318C22893389A4
:1027A00038872F834488558866887788B101621BF3
:1027B000730B072E000C880B990B0E94A656698399
:1027C0007A838B839C83A3019201C501B4010E948B
:1027D00084559B01AC0169817A818B819C810E9427
:1027E000F6554B015C01A3019201C701B6010E949D
:1027F00084559B01AC01C501B4010E94A9576B012E
:102800007C01EF81F885BF01FF0F880B990B0E94B7
:10281000A6569B01AC01C701B6010E9485558B01EC
:102820005C01B101330C880B990B0E94A6562CE574
:102830003FE842E85FE30E94A9576B017C019B01DE
:10284000AC01B801C5010E94A45718160CF0DDCEEA
:102850005C2D4D2D3E2D2F2DDCCEEF81F885608136
:102860007181072E000C880B990B0E94A656562FDB
:10287000472F382F292FCDCE2F923F924F925F9224
:102880006F927F928F929F92AF92BF92CF92DF9280
:10289000EF92FF920F931F93CF93DF938C01EB0185
:1028A000FC01E080F1806E157F050CF065C0828030
:1028B0009380A480B580A50194016085718582858F
:1028C00093850E9484552B013C01F8016681778134
:1028D0006E197F09072E000C880B990B0E94A656D3
:1028E0009B01AC01C301B2010E94F6552B013C01D2
:1028F000CE19DF09BE01DD0F880B990B0E94A65689
:102900009B01AC01C301B2010E94A9579B01AC011C
:10291000C501B4010E9485558B01D82FC92F2CE524
:102920003FE842E85FE3C501B4010E94A9576B018B
:102930007C019B01AC01B8018D2F9C2F0E94F155A9
:1029400087FDEDC0502F412F9E01652F742F832FDF
:10295000922FDF91CF911F910F91FF90EF90DF9019
:10296000CF90BF90AF909F908F907F906F905F902F
:102970004F903F902F900895FC01208C318C2616AB
:1029800037060CF47EC0A4E0B0E00DC04C175D0724
:102990000CF0CAC09C01CB01BF2DAC01421B530BF4
:1029A00042305105FCF02B2F30E06A2F70E0C90156
:1029B000860F971F95958795F82EFC01EE0FFF1F48
:1029C000E80FF91FEE0FFF1FE00FF11F408151814B
:1029D000C417D507DCF6A82FAC01421B530B4230BD
:1029E00051050CF7F901EE0FFF1FE20FF31FEE0F79
:1029F000FF1FE00FF11F82809380A480B580E080EC
:102A0000F1809C01220F331F820F931F880F991FA3
:102A1000080F191FA5019401F80162817381848157
:102A200095810E9484552B013C01F80160817181E0
:102A30006E197F09072E000C880B990B0E94A65671
:102A40009B01AC01C301B2010E94F6552B013C0170
:102A5000CE19DF09BE01DD0F880B990B0E94A65627
:102A60009B01AC01C301B2010E94A9579B01AC01BB
:102A7000C501B4010E948555562F472F382F292FA5
:102A800064CFC28CD38CE48CF58C84889588A6881E
:102A9000B78802891389A5019401C701B6010E9474
:102AA00084552B013C01B101601B710B072E000CFA
:102AB000880B990B0E94A6569B01AC01C301B20181
:102AC0000E94F6552B013C01C01BD10BBE01DD0F4E
:102AD000880B990B0E94A6569B01AC01C301B20161
:102AE0000E94A9579B01AC01C501B4010E94855504
:102AF0008B01D82FC92F2CE53FE842E85FE3C701DF
:102B0000B6010E94A9576B017C019B01AC01B80181
:102B10008D2F9C2F0E94A45718160CF013CF5C2DFC
:102B20004D2D3E2D2F2D11CF528143813481258192
:102B30000CCF2F923F924F925F926F927F928F9223
:102B40009F92AF92BF92CF92DF92EF92FF920F933C
:102B50001F93CF93DF93CDB7DEB728970FB6F894C6
:102B6000DEBF0FBECDBF8C016A017B01FC018280FC
:102B70009380A480B5809A01AB01C501B4010E9485
:102B8000A457F80118160CF079C060807180B30169
:102B9000072C000C880B990B0E94A65669837A8338
:102BA0008B839C83F8016681778166197709072EEC
:102BB000000C880B990B0E94A6562B013C01A50125
:102BC0009401F80160857185828593850E94845502
:102BD0009B01AC01C301B2010E94F6552B013C01DF
:102BE000A5019401C701B6010E9484559B01AC0167
:102BF000C301B2010E94A95729813A814B815C81AE
:102C00000E9485558B015C012CE53FE842E85FE3BB
:102C100069817A818B819C810E94A9576B017C011B
:102C20009B01AC01B801C5010E94F15587FD23C18C
:102C3000502F412F3A2D2B2D652F742F832F922F3C
:102C40000E9416580E946856CB0128960FB6F89439
:102C5000DEBF0FBECDBFDF91CF911F910F91FF90CF
:102C6000EF90DF90CF90BF90AF909F908F907F902C
:102C70006F905F904F903F902F900895828C938C2F
:102C8000A48CB58CA7019601C501B4010E94F15531
:102C900087FD94C0F4E0F9831D8211C0A70196015D
:102CA000C301B2010E94F15587FFEAC045015101FD
:102CB000FE81FD83C50188199909029754F12D8180
:102CC000822E912C3981232E312C5401A20CB31C5D
:102CD000B594A794AE82C501880F991F8A0D9B1DDC
:102CE000880F991FFC01E00FF11FF887EF834280E6
:102CF000538064807580A7019601C301B2010E94D0
:102D0000A45718165CF6A982C5018819990902977B
:102D1000B4F6F401EE0FFF1FE80DF91DEE0FFF1FD3
:102D2000E00FF11F208031804280538064807580E5
:102D3000C501880F991F8A0D9B1D880F991F080FC9
:102D4000191FF8016081718162197309072E000C47
:102D5000880B990B0E94A6564B015C01A3019201BE
:102D6000F80162817381848195810E9484559B0161
:102D7000AC01C501B4010E94F6554B015C01A301F1
:102D80009201C701B6010E9484559B01AC01C501A7
:102D9000B4010E94A9576B017C01B101330C880B6F
:102DA000990B0E94A6569B01AC01C701B6010E9477
:102DB0008555562F472F382F292F3ECFF801208CCD
:102DC000318C2289338938872F83448855886688D7
:102DD0007788B101621B730B072E000C880B990BCF
:102DE0000E94A65669837A838B839C83A3019201F8
:102DF000C501B4010E9484559B01AC0169817A81AF
:102E00008B819C810E94F6554B015C01A3019201CC
:102E1000C701B6010E9484559B01AC01C501B401F4
:102E20000E94A9576B017C01EF81F885BF01FF0F5C
:102E3000880B990B0E94A6569B01AC01C701B601F5
:102E40000E9485558B015C01B101330C880B990BF5
:102E50000E94A6562CE53FE842E85FE30E94A9578E
:102E60006B017C019B01AC01B801C5010E94A45714
:102E700018160CF0DDCE5C2D4D2D3E2D2F2DDCCE09
:102E8000EF81F88560817181072E000C880B990B0A
:102E90000E94A656562F472F382F292FCDCE2F927E
:102EA0003F924F925F926F927F928F929F92AF92DA
:102EB000BF92CF92DF92EF92FF921F93CF93DF9357
:102EC000CDB7DEB72C970FB6F894DEBF0FBECDBFDF
:102ED0001C016A017B01DC018D909D90AD90BC903E
:102EE0001397481559056A057B050CF07DC01496AB
:102EF0002D913D914D915C91179729833A834B8396
:102F00005C831C966D917D918D919C911F970E9481
:102F100084552B013C01F10180859185A285B38503
:102F2000BC01CD01681979098A099B090E94A6563E
:102F30009B01AC01C301B2010E94F6552B013C017B
:102F4000C701B601681979098A099B090E94A6562A
:102F50009B01AC01C301B2010E94A9579B01AC01C6
:102F600069817A818B819C810E948555F62E172F6D
:102F7000982EA92E2CE53FE842E85FE369817A812B
:102F80008B819C810E94A957B62EC72ED82EE92E80
:102F9000262F372F482F592F6F2D712F892D9A2DBE
:102FA0000E94F15587FD37C15F2D412F392D2A2D04
:102FB000652F742F832F922F2C960FB6F894DEBFB7
:102FC0000FBECDBFDF91CF911F91FF90EF90DF90AB
:102FD000CF90BF90AF909F908F907F906F905F90B9
:102FE0004F903F902F900895DC0190964D905D900A
:102FF0006D907C90939744165506660677060CF400
:1030000095C014E0B12C0FC04C155D056E057F0511
:103010000CF006C19C01CD01BA2CAC01421B530B34
:10302000423051051CF12B2D30E0A12FB0E0C90139
:103030008A0F9B1F95958795A82EFC01EE0FFF1F09
:10304000EE0FFF1FEE0FFF1FE20DF31D40815181B8
:1030500062817381C416D506E606F706ACF6182F12
:10306000AC01421B530B42305105ECF6220F331FCB
:10307000220F331F220F331FF101E20FF31F848051
:103080009580A680B7802081318142815381298338
:103090003A834B835C83880F991F880F991F880F91
:1030A000991F280E391EA5019401D10114966D9126
:1030B0007D918D919C9117970E9484552B013C0125
:1030C000F10180819181A281B381BC01CD0129816F
:1030D0003A814B815C81621B730B840B950B0E94C0
:1030E000A6569B01AC01C301B2010E94F6552B010B
:1030F0003C01C701B60129813A814B815C81621B89
:10310000730B840B950B0E94A6569B01AC01C30167
:10311000B2010E94A9579B01AC01C501B4010E94F4
:103120008555562F472F382F292F42CF94968D90B3
:103130009D90AD90BC9097975C962D913D914D914F
:103140005C915F9729833A834B835C8358962D91DA
:103150003D914D915C915B972D833E834F835887C2
:1031600029813A814B815C81C501B4010E9484555B
:1031700069877A878B879C87C301B2012D813E8145
:103180004F815885621B730B840B950B0E94A656CA
:103190009B01AC0169857A858B859C850E94F655DB
:1031A0002B013C01C701B6012D813E814F8158851D
:1031B000621B730B840B950B0E94A6569B01AC01FE
:1031C000C301B2010E94A9579B01AC0169817A81B8
:1031D0008B819C810E948555F62E172F3C012CE592
:1031E0003FE842E85FE3C501B4010E94A957B62E4B
:1031F000C72ED82EE92E262F372F482F592F6F2D67
:10320000712FC3010E94A45718162CF05F2D412F77
:10321000362D272DCDCE5B2D4C2D3D2D2E2DC8CE00
:103220005481458136812781C3CE2F923F924F92A0
:103230005F926F927F928F929F92AF92BF92CF9246
:10324000DF92EF92FF921F93CF93DF93CDB7DEB75C
:103250002C970FB6F894DEBF0FBECDBF1C016A01DC
:103260007B01DC018D909D90AD90BC90139748152B
:1032700059056A057B050CF07DC014962D913D9192
:103280004D915C91179729833A834B835C831C96FD
:103290006D917D918D919C911F970E9484552B017A
:1032A0003C01F10180859185A285B385BC01CD01EA
:1032B000681979098A099B090E94A6569B01AC01ED
:1032C000C301B2010E94F6552B013C01C701B601B2
:1032D000681979098A099B090E94A6569B01AC01CD
:1032E000C301B2010E94A9579B01AC0169817A8197
:1032F0008B819C810E948555F62E172F982EA92E22
:103300002CE53FE842E85FE369817A818B819C810B
:103310000E94A957B62EC72ED82EE92E262F372F5A
:10332000482F592F6F2D712F892D9A2D0E94F155FD
:1033300087FD37C15F2D412F392D2A2D652F742F21
:10334000832F922F2C960FB6F894DEBF0FBECDBF01
:10335000DF91CF911F91FF90EF90DF90CF90BF90C2
:10336000AF909F908F907F906F905F904F903F9025
:103370002F900895DC0190964D905D906D907C901B
:10338000939744165506660677060CF495C014E02C
:10339000B12C0FC04C155D056E057F050CF006C104
:1033A0009C01CD01BA2CAC01421B530B423051059C
:1033B0001CF12B2D30E0A12FB0E0C9018A0F9B1F1B
:1033C00095958795A82EFC01EE0FFF1FEE0FFF1FAE
:1033D000EE0FFF1FE20DF31D408151816281738169
:1033E000C416D506E606F706ACF6182FAC01421B4C
:1033F000530B42305105ECF6220F331F220F331FBF
:10340000220F331FF101E20FF31F84809580A68005
:10341000B780208131814281538129833A834B8354
:103420005C83880F991F880F991F880F991F280E9A
:10343000391EA5019401D10114966D917D918D9154
:103440009C9117970E9484552B013C01F1018081CA
:103450009181A281B381BC01CD0129813A814B8147
:103460005C81621B730B840B950B0E94A6569B011B
:10347000AC01C301B2010E94F6552B013C01C7010A
:10348000B60129813A814B815C81621B730B840BED
:10349000950B0E94A6569B01AC01C301B2010E948C
:1034A000A9579B01AC01C501B4010E948555562F57
:1034B000472F382F292F42CF94968D909D90AD9015
:1034C000BC9097975C962D913D914D915C915F9743
:1034D00029833A834B835C8358962D913D914D917E
:1034E0005C915B972D833E834F83588729813A8176
:1034F0004B815C81C501B4010E94845569877A873C
:103500008B879C87C301B2012D813E814F815885F5
:10351000621B730B840B950B0E94A6569B01AC019A
:1035200069857A858B859C850E94F6552B013C0127
:10353000C701B6012D813E814F815885621B730BF7
:10354000840B950B0E94A6569B01AC01C301B201EE
:103550000E94A9579B01AC0169817A818B819C8172
:103560000E948555F62E172F3C012CE53FE842E8D6
:103570005FE3C501B4010E94A957B62EC72ED82E0D
:10358000E92E262F372F482F592F6F2D712FC3016A
:103590000E94A45718162CF05F2D412F362D272D91
:1035A000CDCE5B2D4C2D3D2D2E2DC8CE5481458189
:1035B00036812781C3CE0895549A559808955C9812
:1035C00008955C9A08950895089589B185FB882728
:1035D00080F991E0892708958530910540F4FC0138
:1035E000EE0FFF1FE055FE4F859194910895E0EB9B
:1035F000F1E08591949108954F925F926F927F923E
:103600008F929F92AF92BF92CF92DF92EF92FF92F2
:103610000F931F93CF93DF93EC016C0182E0C80EF0
:10362000D11C1A821B821C821D821E821F82188658
:1036300019861A861B861C861D861E861F86188A7A
:10364000198A1A8A1B8A1C8A1D8A1E8A1F8A188E4A
:10365000198E1A8E1B8E1C8E1D8E1E8E1F8E18A20A
:1036600019A21AA21BA21CA21DA21EA21FA218A66A
:1036700019A68E01065D1F4F60E0C8010E94C04779
:103680007E018DE2E80EF11CC7010E942C4982E305
:1036900092E09EA78DA7C7010E944B4960E170E0B0
:1036A000CE01C2960E94C2500E942E349FAF8EAFB0
:1036B000C8010E944F48682F607FC8010E94774868
:1036C000C8010E940D48682F607FC8010E943548DC
:1036D00082E090E0998388830E940934A601BC01AE
:1036E0008EAD9FAD0E94BD4B889709F460C0EFE995
:1036F000F1E085909590A590B490C501B4019058E3
:1037000023E3422E542C23EF622E77247A944A82AC
:103710005B826C827D826E837F838887998731EE9E
:10372000432E3AE7532E34EF632E77247A944A8659
:103730005B866C867D8626E636E646E65FE30E947B
:10374000A9576E877F87888B998B1A8A1B8A1C8A58
:103750001D8A1E8A1F8A188E198E8FE195E8ABE0AC
:10376000B0E08A8F9B8FAC8FBD8F26E636E646E6AB
:103770005FE3C501B4010E94A9576E8F7F8F88A3B4
:1037800099A38DEC9CECACE0B0E08AA39BA3ACA326
:10379000BDA38EA29FA2A8A6B9A6888199810E94E6
:1037A0000934A601BC018EAD9FAD0E94244CC80116
:1037B0000E94E547EDEAF1E09491682F607F692B64
:1037C000C801DF91CF911F910F91FF90EF90DF9093
:1037D000CF90BF90AF909F908F907F906F905F90B1
:1037E0004F900C94CB47CF93DF938091D4028823E2
:1037F00039F08091D2029091D302DF91CF91089558
:1038000080E490E00E94470CD82FC92F0E94FC1A38
:10381000D093D202C093D30281E08093D4028D2F43
:103820009C2FDF91CF9108954F925F926F927F927C
:103830008F929F92AF92BF92EF92FF920F931F933E
:10384000CF93DF93EC018B01FC01619371937F01B6
:10385000CB010E940934A701BC018EAD9FAD0E942F
:10386000BD4B889709F465C0F801EE0FFF1FEE0FFE
:10387000FF1FE956FE4F85909590A590B490C50125
:10388000B401905823E3422E542C23EF622E772468
:103890007A944A825B826C827D826E837F83888782
:1038A000998731EE432E3AE7532E34EF632E772477
:1038B0007A944A865B866C867D8626E636E646E600
:1038C0005FE30E94A9576E877F87888B998B1A8A3E
:1038D0001B8A1C8A1D8A1E8A1F8A188E198E8FE1E8
:1038E00095E8ABE0B0E08A8F9B8FAC8FBD8F26E66A
:1038F00036E646E65FE3C501B4010E94A9576E8F24
:103900007F8F88A399A38DEC9CECACE0B0E08AA3F8
:103910009BA3ACA3BDA38EA29FA2A8A6B9A6888193
:1039200099810E940934A701BC018EAD9FAD0E9410
:10393000244CAA96CE010E94E547F801E555FE4FBA
:103940000491682F607F602BCE01DF91CF911F9192
:103950000F91FF90EF90BF90AF909F908F907F90CE
:103960006F905F904F900C94CB47AF92BF92CF92E5
:10397000DF92EF92FF920F931F93CF93DF93CDB718
:10398000DEB727970FB6F894DEBF0FBECDBF7C0120
:10399000613081E0780710F060E071E0CE010196BF
:1039A0000E9444512B813C818D819E8128173907CB
:1039B00009F44DC08701035D1F4F18C060E0C801C6
:1039C0000E94F9495B016C0144275527BA014A1945
:1039D0005B096C097D09CE0101960E945E512B8125
:1039E0003C818D819E812817390789F10E946F3EA5
:1039F000FC0140815181052E000C660B770BDA012A
:103A00009927882742815381052E000C660B770B7E
:103A1000762F652F542F4427482B592B6A2B7B2B4D
:103A200084819581092E000CAA0BBB0B482B592BC6
:103A30006A2B7B2B411551056340710508F0BECF01
:103A400060E0C8010E94F949AB01BC01C4CFCE01BE
:103A500001960E9480510E9416580E946856AB0140
:103A6000BC01C70102960E944F176B017C01CE0179
:103A700001960E945951C701B60127960FB6F894D6
:103A8000DEBF0FBECDBFDF91CF911F910F91FF9091
:103A9000EF90DF90CF90BF90AF900895CF92DF92DC
:103AA000EF92FF920F931F93CF93DF93EC01E88186
:103AB000F981EE0FFF1FEE0FFF1FE956FE4FC59075
:103AC000D590E590F490C701B601905803E313E355
:103AD00023EF3FEF0A831B832C833D836E837F8319
:103AE0008887998701EE1AE724EF3FEF0A871B8743
:103AF0002C873D8726E636E646E65FE30E94A95717
:103B00006E877F87888B998B1A8A1B8A1C8A1D8AED
:103B10001E8A1F8A188E198E8FE195E8ABE0B0E0FF
:103B20008A8F9B8FAC8FBD8F26E636E646E65FE335
:103B3000C701B6010E94A9576E8F7F8F88A399A3F2
:103B40008DEC9CECACE0B0E08AA39BA3ACA3BDA33E
:103B5000CEA2DFA2E8A6F9A6DF91CF911F910F9127
:103B6000FF90EF90DF90CF9008954F925F926F9209
:103B70007F928F929F92AF92BF92CF92DF92EF92FD
:103B8000FF920F931F93CF93DF93CDB7DEB72C97A0
:103B90000FB6F894DEBF0FBECDBF6C017B014901AB
:103BA0005A0160E870E0CE0101960E94C2508B85F8
:103BB0009C85892B09F450C08601035D1F4F15C0F9
:103BC00060E0C8010E94F9492B013C0144275527B8
:103BD000BA014419550966097709CE0101960E9478
:103BE000DE508B859C85892BB9F10E946F3EFC01CC
:103BF00040815181052E000C660B770BDA01992765
:103C0000882742815381052E000C660B770B762F97
:103C1000652F542F4427482B592B6A2B7B2B8481EB
:103C20009581092E000CAA0BBB0B482B592B6A2B34
:103C30007B2B411551056340710510F660E0C8010A
:103C40000E94F949AB01BC01CE0101960E94DE50F1
:103C50008B859C85892B49F6CE0101960E941951CE
:103C60000E941658FF24EE0CFF1CEE0CFF1CEE0CFD
:103C7000FF1CCE0CDF1C0E946856F6016283738322
:103C80008483958386829782A086B1862C960FB610
:103C9000F894DEBF0FBECDBFDF91CF911F910F9182
:103CA000FF90EF90DF90CF90BF90AF909F908F905C
:103CB0007F906F905F904F9008950F931F93CF93D5
:103CC000DF938C01EC01899199910E940934AE0136
:103CD000BC01F80186AD97ADDF91CF911F910F9197
:103CE0000C94244C0F931F93CF93DF93EC010E940D
:103CF0006F3EFC0140815181052E000C660B770B55
:103D0000DA019927882742815381052E000C660B22
:103D1000770B762F652F542F4427482B592B6A2B6E
:103D20007B2B84819581092E000CAA0BBB0B482BA1
:103D3000592B6A2B7B2B4115510563407105B0F05F
:103D400060E0CE018D960E94F9498B019C014427C9
:103D50005527BA01401B510B620B730BCE01C29663
:103D6000DF91CF911F910F910C94DE5060E0CE0156
:103D70008D960E94F949AB01BC01CE01C296DF913C
:103D8000CF911F910F910C94DE50CF92DF92EF9262
:103D9000FF920F931F93CF93DF938C01EC01E29678
:103DA000CE010E9419510E9416580E946856AB011C
:103DB000BC01C80102960E944F176B017C01CE0125
:103DC0000E94D050C701B601DF91CF911F910F9192
:103DD000FF90EF90DF90CF9008955F9808955F9ADD
:103DE0000895579A08958530910540F4FC01EE0F2F
:103DF000FF1FED52FE4F859194910895E3EDF1E0A0
:103E00008591949108958F929F92AF92BF92CF9295
:103E1000DF92EF92FF920F931F93CF93DF93EC010A
:103E200081E08EA77E0184E2E80EF11CC7010E94AA
:103E3000E547682F6F7EC7010E94CB470C811D812B
:103E40006E0186E0C80ED11CC8010E94E933A601AC
:103E5000BC018FA598A90E94BD4B4E9709F44CC098
:103E6000F801EE0FFF1FEE0FFF1FE654FE4F859087
:103E70009590A590B490C501B40190582BEB33EF09
:103E80003F832E83688779878A879B8725EF34EF66
:103E90003D872C8726E636E646E65FE30E94A95773
:103EA0006E877F87888B998B1B8A1A8A1C8A1D8A4A
:103EB0001E8A1F8A8BE09BE0998F888F26E636E664
:103EC00046E65FE3C501B4010E94A9576A8F7B8F64
:103ED0008C8F9D8F85E49CE09F8F8E8F88A299A206
:103EE000AAA2BBA28C819D810E94E933A601BC01DC
:103EF0008FA598A90E94244CC7010E94E547F801AC
:103F0000E253FE4F0491682F607F602BC7010E942F
:103F1000CB478EA581110DC0DF91CF911F910F91DD
:103F2000FF90EF90DF90CF90BF90AF909F908F90D9
:103F30000895488159816A817B81C6010E94861259
:103F40008C01BC01C6010E942911688379838A8390
:103F50009B83B8017058CE018796DF91CF911F9156
:103F60000F91FF90EF90DF90CF90BF90AF909F9018
:103F70008F900C94D948FC0116A608958F929F92B9
:103F8000AF92BF92CF92DF92EF92FF920F931F9367
:103F9000CF93DF93EC018B017D836C837C0186E002
:103FA000E80EF11CCB010E94E933A701BC018FA5EB
:103FB00098A90E94BD4B4E9709F44CC0F801EE0F32
:103FC000FF1FEE0FFF1FE654FE4F85909590A590C2
:103FD000B490C501B40190582BEB33EF3F832E838F
:103FE000688779878A879B8725EF34EF3D872C8701
:103FF00026E636E646E65FE30E94A9576E877F878E
:10400000888B998B1B8A1A8A1C8A1D8A1E8A1F8A92
:104010008BE09BE0998F888F26E636E646E65FE3E5
:10402000C501B4010E94A9576A8F7B8F8C8F9D8F29
:1040300085E49CE09F8F8E8F88A299A2AAA2BBA242
:104040008C819D810E94E933A701BC018FA598A9AD
:104050000E94244C6E0184E2C80ED11CC6010E944D
:10406000E547F801E253FE4F0491682F607F602B13
:10407000C6010E94CB478EA581110DC0DF91CF9163
:104080001F910F91FF90EF90DF90CF90BF90AF9076
:104090009F908F900895488159816A817B81C701E3
:1040A0000E9486128C01BC01C7010E9429116883FD
:1040B00079838A839B83B8017058CE018796DF91FC
:1040C000CF911F910F91FF90EF90DF90CF90BF9015
:1040D000AF909F908F900C94D948CF92DF92EF923F
:1040E000FF920F931F93CF93DF93EC0118821982F5
:1040F0001A821B8282E090E09D838C836E0186E0B1
:10410000C80ED11C1F821E82188619861A861B862D
:104110001D861C861E861F86188A198A1B8A1A8A83
:104120001C8A1D8A1E8A1F8A198E188E1A8E1B8E53
:104130001C8E1D8E1F8E1E8E18A219A21AA21BA2E3
:104140008E010C5D1F4F60E0C8010E94C0477E01D8
:1041500087E2E80EF11CC7010E94944884E492E0D3
:1041600098A78FA3C7010E94B1481EA60E942E34B3
:1041700098AB8FA7C8010E944F48682F607CC80188
:104180000E947748C8010E940D48682F607CC801D2
:104190000E94354862E070E0CE010E94BE1F40E000
:1041A00050E0BA01C6010E9486128C01BC01C60112
:1041B0000E942911688379838A839B83B801705890
:1041C000C701DF91CF911F910F91FF90EF90DF908A
:1041D000CF900C94D948CF93DF938091DE0288234F
:1041E00039F08091DC029091DD02DF91CF9108954A
:1041F00081E390E00E94470CD82FC92F0E946D20C8
:10420000D093DC02C093DD0281E08093DE028D2F2B
:104210009C2FDF91CF910895EF92FF920F931F9300
:10422000CF93DF938C017C0186E0E80EF11CC7017F
:104230000E948612EC01BC01C7010E942911F801FD
:104240006083718382839383BE017058C80187960F
:10425000DF91CF911F910F91FF90EF900C94D9486F
:10426000CF92DF92EF92FF92CF93DF93EC01EC813C
:10427000FD81EE0FFF1FEE0FFF1FE654FE4FC590AE
:10428000D590E590F490C701B60190582BEB33EF31
:104290003F832E83688779878A879B8725EF34EF52
:1042A0003D872C8726E636E646E65FE30E94A9575F
:1042B0006E877F87888B998B1B8A1A8A1C8A1D8A36
:1042C0001E8A1F8A8BE09BE0998F888F26E636E650
:1042D00046E65FE3C701B6010E94A9576A8F7B8F4C
:1042E0008C8F9D8F85E49CE09F8F8E8FC8A2D9A272
:1042F000EAA2FBA2DF91CF91FF90EF90DF90CF90E9
:1043000008957727FB01EE0FFF1FE60FF71FEE0F53
:10431000FF1FE80FF91F66817781705887960C940C
:10432000D9487727FB01EE0FFF1F6E0F7F1F660F27
:10433000771F860F971FFC0120873187428753879D
:104340000895CF93DF93EC018C819D810E94E93326
:10435000AE014A5F5F4FBC018FA598A9DF91CF9155
:104360000C94244C089521E030E0FC0134AF23AFDD
:10437000BC01655C7F4F0C94B3402EE432E0FC013D
:10438000318320830C94CC3FCF93DF93EC018EE4F8
:1043900092E099838883CE010E94CC3FCE01DF91C9
:1043A000CF910C94490C4430510508F4089528E04D
:1043B00030E0FC0134AF23AFBC01655C7F4F0C944F
:1043C000B3404430510508F408952EE030E0FC017C
:1043D00034AF23AFBC01655C7F4F0C94B3404430D5
:1043E000510508F4089523E130E0FC0134AF23AF18
:1043F000BC01655C7F4F0C94B3404430510508F418
:10440000089528E130E0FC0134AF23AFBC01655CC6
:104410007F4F0C94B3404430510508F408952AE1CD
:1044200030E0FC0134AF23AFBC01655C7F4F0C94DE
:10443000B3404430510508F408952BE130E0FC010D
:1044400034AF23AFBC01655C7F4F0C94B340443064
:10445000510508F408952CE130E0FC0134AF23AF9E
:10446000BC01655C7F4F0C94B3404430510508F4A7
:1044700008952DE130E0FC0134AF23AFBC01655C51
:104480007F4F0C94B3404430510508F4089521E265
:1044900030E0FC0134AF23AFBC01655C7F4F0C946E
:1044A000B3404430510508F4089522E230E0FC01A5
:1044B00034AF23AFBC01655C7F4F0C94B3404430F4
:1044C000510508F4089526E230E0FC0134AF23AF33
:1044D000BC01655C7F4F0C94B3404430510508F437
:1044E000089528E230E0FC0134AF23AFBC01655CE5
:1044F0007F4F0C94B3404430510508F408952AE2EC
:1045000030E0FC0134AF23AFBC01655C7F4F0C94FD
:10451000B3404430510508F408952CE230E0FC012A
:1045200034AF23AFBC01655C7F4F0C94B340443083
:10453000510508F408952EE230E0FC0134AF23AFBA
:10454000BC01655C7F4F0C94B3404430510508F4C6
:1045500008952FE230E0FC0134AF23AFBC01655C6D
:104560007F4F0C94B3400F931F93FB01A081B18147
:104570002B2F3A2F2033310540F5EB2FFA2FEE0F7A
:10458000FF1FEE0FFF1FE352FE4F0591159125917E
:104590003491F80120FF12C0F901F595E795DC018F
:1045A000AE0FBF1FED91FC911197E00FF11F01902D
:1045B000F081E02DCD011F910F910994359527953C
:1045C000820F931F1F910F9109941F910F910895CE
:1045D0004830510508F40895DB011596EC911597C4
:1045E0001496FC91E230F10580F0E7ECF2E02591C1
:1045F000349143E050E0FC0154AF43AF36AF25AFF8
:10460000BC01655C7F4F0C94B340EE0FFF1FE95374
:10461000FD4FEDCF4830510508F40895DB011596A4
:10462000EC9115971496FC91E530F10590F4EE0F9E
:10463000FF1FE354FD4F2591349144E050E0FC010D
:1046400054AF43AF36AF25AFBC01655C7F4F0C94D0
:10465000B340EDEBF2E0EFCF4830510578F0FB01CD
:104660002481358145E050E0FC0154AF43AF35AFC4
:1046700026AFBC01655C7F4F0C94B3400895483071
:10468000510578F0FB012481358146E050E0FC01C2
:1046900054AF43AF35AF26AFBC01655C7F4F0C9480
:1046A000B34008954830510508F40895DB0115968C
:1046B000EC9115971496FC91E230F10580F0E9EB4E
:1046C000F2E0259134914AE050E0FC0154AF43AF51
:1046D00036AF25AFBC01655C7F4F0C94B340EE0F45
:1046E000FF1FE754FD4FEDCF4830510578F0FB0137
:1046F000248135814BE050E0FC0154AF43AF35AF2E
:1047000026AFBC01655C7F4F0C94B34008954830E0
:10471000510578F0FB01248135814CE050E0FC012B
:1047200054AF43AF35AF26AFBC01655C7F4F0C94EF
:10473000B34008954830510508F40895DB011596FB
:10474000EC9115971496FC91E530F10590F4EE0F7D
:10475000FF1FE155FD4F2591349140E150E0FC01F0
:1047600054AF43AF36AF25AFBC01655C7F4F0C94AF
:10477000B340EFEAF2E0EFCF4830510578F0FB01AB
:104780002481358141E150E0FC0154AF43AF35AFA6
:1047900026AFBC01655C7F4F0C94B3400895483050
:1047A000510578F0FB012481358144E150E0FC01A2
:1047B00054AF43AF35AF26AFBC01655C7F4F0C945F
:1047C000B34008954830510508F40895DB0115966B
:1047D000EC9115971496FC91E630F10590F4EE0FEC
:1047E000FF1FED55FD4F2591349145E150E0FC014F
:1047F00054AF43AF36AF25AFBC01655C7F4F0C941F
:10480000B340E3EAF2E0EFCF4830510578F0FB0126
:104810002481358146E150E0FC0154AF43AF35AF10
:1048200026AFBC01655C7F4F0C94B34008954830BF
:10483000510578F0FB012481358149E150E0FC010C
:1048400054AF43AF35AF26AFBC01655C7F4F0C94CE
:10485000B34008954830510578F0FB01248135813B
:104860004EE150E0FC0154AF43AF35AF26AFBC0181
:10487000655C7F4F0C94B34008954830510508F4AF
:104880000895E1EAF2E02591349143E250E0FC0121
:1048900054AF43AF36AF25AFBC01655C7F4F0C947E
:1048A000B3404830510578F0FB012481358144E262
:1048B00050E0FC0154AF43AF35AF26AFBC01655C9F
:1048C0007F4F0C94B34008954830510578F0FB01B8
:1048D0002481358147E250E0FC0154AF43AF35AF4E
:1048E00026AFBC01655C7F4F0C94B34008954830FF
:1048F000510508F40895DB011596EC91159714966F
:10490000FC91E230F10580F0EDE9F2E0259134917F
:1049100049E250E0FC0154AF43AF36AF25AFBC01D4
:10492000655C7F4F0C94B340EE0FFF1FE356FD4FC5
:10493000EDCF4830510578F0FB01248135814DE2FF
:1049400050E0FC0154AF43AF35AF26AFBC01655C0E
:104950007F4F0C94B3400895FB014830510598F007
:10496000248135814681578162E070E0FC0174AF9B
:1049700063AFFD965083418332832383BC01655C22
:104980007F4F0C94B3400895FB0148305105A8F0C7
:1049900047815681658174812BE230E0FC0134AFA0
:1049A00023AFFD9666277727408351836283738305
:1049B000BC01655C7F4F0C94B3400895FB014C3003
:1049C0005105D8F044815581B385A2853185208574
:1049D00067E070E0FC0174AF63AF55AF46AFFF9680
:1049E0004B2F5A2F632F722F40835183628373831F
:1049F000BC01655C7F4F0C94B3400895FB014830C7
:104A00005105B8F0B781A6813581248149E050E095
:104A1000FC0154AF43AFFD964B2F5A2F632F722FDB
:104A20004083518362837383BC01655C7F4F0C9428
:104A3000B3400895FB014C305105D8F044815581B5
:104A4000B385A285318520856DE070E0FC0174AFEF
:104A500063AF55AF46AFFF964B2F5A2F632F722F80
:104A60004083518362837383BC01655C7F4F0C94E8
:104A7000B3400895FB0148305105B8F0B781A681D5
:104A8000358124814FE050E0FC0154AF43AFFD96E7
:104A90004B2F5A2F632F722F40835183628373836E
:104AA000BC01655C7F4F0C94B3400895FB014C3012
:104AB0005105D8F044815581B385A2853185208583
:104AC00062E170E0FC0174AF63AF55AF46AFFF9693
:104AD0004B2F5A2F632F722F40835183628373832E
:104AE000BC01655C7F4F0C94B3400895FB014C30D2
:104AF0005105D8F044815581B385A2853185208543
:104B000067E170E0FC0174AF63AF55AF46AFFF964D
:104B10004B2F5A2F632F722F4083518362837383ED
:104B2000BC01655C7F4F0C94B3400895FB014C3091
:104B30005105D8F044815581B385A2853185208502
:104B400065E270E0FC0174AF63AF55AF46AFFF960E
:104B50004B2F5A2F632F722F4083518362837383AD
:104B6000BC01655C7F4F0C94B340089548305105FB
:104B700078F0FB01248135814FE150E0FC0154AF16
:104B800043AF35AF26AFBC01655C7F4F0C94B3409B
:104B90000895FB014830510598F0448155812681E4
:104BA000378160E270E0FC0174AF63AF55AF46AF90
:104BB000FF9630832183BC01655C7F4F0C94B3402A
:104BC0000895AF92BF92CF92DF92EF92FF920F9330
:104BD0001F93CF93DF938C01FC01ED5BFF4F80812E
:104BE00091810E94674E5C010E94924DEC01892BDD
:104BF00059F4DF91CF911F910F91FF90EF90DF90CB
:104C0000CF90BF90AF900895680186E0C80ED11C88
:104C100075015801EEE0AE0EB11C05C0C6010E9440
:104C20000647219731F3F70161917F01C6010E9488
:104C30001A47F80190A99923A1F340855185443082
:104C4000510560F3B501C8010E94B322E7CF85305A
:104C5000910540F4FC01EE0FFF1FE354FD4F8591D9
:104C600094910895EDEBF2E085919491089582304E
:104C7000910528F0E9EBF2E0859194910895FC010B
:104C8000EE0FFF1FE754FD4F8591949108958530F5
:104C9000910540F4FC01EE0FFF1FE155FD4F85919A
:104CA00094910895EFEAF2E0859194910895863009
:104CB000910540F4FC01EE0FFF1FED55FD4F85916E
:104CC00094910895E3EAF2E0859194910895E1EAE0
:104CD000F2E08591949108958230910528F0EDE9F4
:104CE000F2E0859194910895FC01EE0FFF1FE356C9
:104CF000FD4F859194910895CF93DF938091E802C1
:104D0000882339F08091E6029091E702DF91CF91FC
:104D1000089585E490E00E94470CEC010E947B40DE
:104D20008EE492E099838883CE0106960E94F24633
:104D300018AE1FAA1AAE19AE0E949C4DFE01ED5B83
:104D4000FF4F9183808340E855E260E070E00E946D
:104D50000D4ED093E702C093E60281E08093E80213
:104D6000CE01DF91CF910895FC01ED5BFF4F808173
:104D700091810C94EC4DFC01ED5BFF4F80819181A2
:104D80000C940D4E6F927F928F929F92AF92BF9232
:104D9000CF92DF92EF92FF920F931F93CF93DF9307
:104DA00000D000D0CDB7DEB76C014B015C0187E3CA
:104DB000A80EB11C6CE270E0C50129833A834B83D5
:104DC0005C830E94BE463C01FC01108681E0818725
:104DD000138612865C8154A74B8145A73A8136A77A
:104DE000298127A710AB01ABF2AAE3AAC3010C9655
:104DF00020E2FC0111922A95E9F7B4010E948D5B33
:104E0000C3010E949F46F30145815481485F5F4F73
:104E1000F601ED5BFF4FB301808191810E94A24EAC
:104E2000B301C5010F900F900F900F90DF91CF91BC
:104E30001F910F91FF90EF90DF90CF90BF90AF90B8
:104E40009F908F907F906F900C94F146EF92FF921D
:104E50000F931F93CF93DF938C017C0187E3E80EC0
:104E6000F11C64E070E0C7010E94BE46EC011886A8
:104E700019861B861A860E949F464D815C81485F79
:104E80005F4FF801ED5BFF4FBE01808191810E9471
:104E9000A24EBE01C701DF91CF911F910F91FF90EC
:104EA000EF900C94F146AF92BF92CF92DF92EF92C7
:104EB000FF920F931F93CF93DF9300D0CDB7DEB750
:104EC0008C01D62EC72E7C0187E3E80EF11C68E02A
:104ED00070E0C70149835A830E94BE465C01FC0111
:104EE000108682E0818713861286C486D5865A8111
:104EF000568749814787C5010E949F46F501458134
:104F00005481485F5F4FF801ED5BFF4FB501808131
:104F100091810E94A24EB501C7010F900F90DF91C1
:104F2000CF911F910F91FF90EF90DF90CF90BF90A6
:104F3000AF900C94F146CF92DF92EF92FF920F93D5
:104F40001F93CF93DF938C01D62EC72E7C0187E36E
:104F5000E80EF11C68E070E0C7010E94BE46EC015B
:104F6000188683E089871B861A86CC86DD861F8695
:104F70001E86CE010E949F464D815C81485F5F4F37
:104F8000F801ED5BFF4FBE01808191810E94A24E2E
:104F9000BE01C701DF91CF911F910F91FF90EF905C
:104FA000DF90CF900C94F146CF92DF92EF92FF9278
:104FB0000F931F93CF93DF938C01D62EC72E7C01C6
:104FC00087E3E80EF11C68E070E0C7010E94BE466E
:104FD000EC01188684E089871B861A86CC86DD86DC
:104FE0001F861E86CE010E949F464D815C81485FD0
:104FF0005F4FF801ED5BFF4FBE01808191810E9400
:10500000A24EBE01C701DF91CF911F910F91FF907A
:10501000EF90DF90CF900C94F1468F929F92AF92D9
:10502000BF92CF92DF92EF92FF920F931F93CF9395
:10503000DF9300D000D0CDB7DEB77C01B62EA72E0F
:105040006C0187E3C80ED11C6CE070E0C6012B83B5
:105050003C8349835A830E94BE464C01FC01108662
:1050600085E0818713861286A486B5865A81568785
:10507000498147873C812B81A801832F922FA52F3F
:10508000B02F808B918BA28BB38BC4010E949F4663
:10509000F40145815481485F5F4FF701ED5BFF4F9D
:1050A000B401808191810E94A24EB401C6010F908B
:1050B0000F900F900F90DF91CF911F910F91FF9064
:1050C000EF90DF90CF90BF90AF909F908F900C9417
:1050D000F1468F929F92AF92BF92CF92DF92EF9262
:1050E000FF920F931F93CF93DF9300D000D0CDB7E3
:1050F000DEB77C01B62EA72E6C0187E3C80ED11C4B
:105100006CE070E0C6012B833C8349835A830E9484
:10511000BE464C01FC01108686E08187138612860C
:10512000A486B5865A815687498147873C812B8161
:10513000A801832F922FA52FB02F808B918BA28B4C
:10514000B38BC4010E949F46F40145815481485F9E
:105150005F4FF701ED5BFF4FB401808191810E94A9
:10516000A24EB401C6010F900F900F900F90DF91E7
:10517000CF911F910F91FF90EF90DF90CF90BF9054
:10518000AF909F908F900C94F1468F929F92AF9228
:10519000BF92CF92DF92EF92FF920F931F93CF9324
:1051A000DF9300D000D0CDB7DEB77C01B62EA72E9E
:1051B0006C0187E3C80ED11C6CE070E0C6012B8344
:1051C0003C8349835A830E94BE464C01FC011086F1
:1051D00087E0818713861286A486B5865A81568712
:1051E000498147873C812B81A801832F922FA52FCE
:1051F000B02F808B918BA28BB38BC4010E949F46F2
:10520000F40145815481485F5F4FF701ED5BFF4F2B
:10521000B401808191810E94A24EB401C6010F9019
:105220000F900F900F90DF91CF911F910F91FF90F2
:10523000EF90DF90CF90BF90AF909F908F900C94A5
:10524000F146EF92FF920F931F93CF93DF938C0160
:105250007C0187E3E80EF11C64E070E0C7010E9466
:10526000BE46EC01188688E089871B861A86CE0127
:105270000E949F464D815C81485F5F4FF801ED5B66
:10528000FF4FBE01808191810E94A24EBE01C701E5
:10529000DF91CF911F910F91FF90EF900C94F14609
:1052A000AF92BF92CF92DF92EF92FF920F931F9334
:1052B000CF93DF9300D0CDB7DEB78C01D62EC72EAB
:1052C0007C0187E3E80EF11C68E070E0C7014983C8
:1052D0005A830E94BE465C01FC01108689E08187EA
:1052E000138612865A8149818C2D9D2DA52FB42FAE
:1052F000F50184879587A687B787C5010E949F46D9
:10530000F50145815481485F5F4FF801ED5BFF4F28
:10531000B501808191810E94A24EB501C7010F9015
:105320000F90DF91CF911F910F91FF90EF90DF9041
:10533000CF90BF90AF900C94F146CF92DF92EF9256
:10534000FF920F931F93CF93DF938C01D62EC72E1E
:105350007C0187E3E80EF11C68E070E0C7010E9461
:10536000BE46EC0118868AE089871B861A86CC86A1
:10537000DD861F861E86CE010E949F464D815C8180
:10538000485F5F4FF801ED5BFF4FBE018081918167
:105390000E94A24EBE01C701DF91CF911F910F91D4
:1053A000FF90EF90DF90CF900C94F1468F929F92F8
:1053B000AF92BF92CF92DF92EF92FF920F931F9323
:1053C000CF93DF9300D000D0CDB7DEB77C01B62EEF
:1053D000A72E6C0187E3C80ED11C6CE070E0C601FB
:1053E0002B833C8349835A830E94BE464C01FC01B7
:1053F00010868BE0818713861286A486B5865A8133
:105400005687498147873C812B81A801832F922FA2
:10541000A52FB02F808B918BA28BB38BC4010E94E0
:105420009F46F40145815481485F5F4FF701ED5B72
:10543000FF4FB401808191810E94A24EB401C60148
:105440000F900F900F900F90DF91CF911F910F91C0
:10545000FF90EF90DF90CF90BF90AF909F908F9094
:105460000C94F1468F929F92AF92BF92CF92DF92AF
:10547000EF92FF920F931F93CF93DF9300D000D052
:10548000CDB7DEB77C01B62EA72E6C0187E3C80E20
:10549000D11C6CE070E0C6012B833C8349835A83A6
:1054A0000E94BE464C01FC0110868CE08187138669
:1054B0001286A486B5865A815687498147873C81E2
:1054C0002B81A801832F922FA52FB02F808B918B3A
:1054D000A28BB38BC4010E949F46F4014581548185
:1054E000485F5F4FF701ED5BFF4FB4018081918111
:1054F0000E94A24EB401C6010F900F900F900F9022
:10550000DF91CF911F910F91FF90EF90DF90CF909F
:10551000BF90AF909F908F900C94F1468F929F9286
:10552000AF92BF92CF92DF92EF92FF920F931F93B1
:10553000CF93DF9300D000D0CDB7DEB77C01B62E7D
:10554000A72E6C0187E3C80ED11C6CE070E0C60189
:105550002B833C8349835A830E94BE464C01FC0145
:1055600010868DE0818713861286A486B5865A81BF
:105570005687498147873C812B81A801832F922F31
:10558000A52FB02F808B918BA28BB38BC4010E946F
:105590009F46F40145815481485F5F4FF701ED5B01
:1055A000FF4FB401808191810E94A24EB401C601D7
:1055B0000F900F900F900F90DF91CF911F910F914F
:1055C000FF90EF90DF90CF90BF90AF909F908F9023
:1055D0000C94F146EF92FF920F931F93CF93DF93BA
:1055E0008C017C0187E3E80EF11C64E070E0C701E8
:1055F0000E94BE46EC0118868EE089871B861A86BB
:10560000CE010E949F464D815C81485F5F4FF8014B
:10561000ED5BFF4FBE01808191810E94A24EBE01D1
:10562000C701DF91CF911F910F91FF90EF900C94E4
:10563000F146AF92BF92CF92DF92EF92FF920F931B
:105640001F93CF93DF9300D0CDB7DEB78C01D62E5A
:10565000C72E7C0187E3E80EF11C68E070E0C7010B
:1056600049835A830E94BE465C01FC0110868FE08C
:105670008187138612865A8149818C2D9D2DA52FF5
:10568000B42FF50184879587A687B787C5010E9447
:105690009F46F50145815481485F5F4FF801ED5BFE
:1056A000FF4FB501808191810E94A24EB501C701D3
:1056B0000F900F90DF91CF911F910F91FF90EF907E
:1056C000DF90CF90BF90AF900C94F146CF92DF92D5
:1056D000EF92FF920F931F93CF93DF938C01D62EFF
:1056E000C72E7C0187E3E80EF11C68E070E0C7017B
:1056F0000E94BE46EC01188680E189871B861A86C7
:10570000CC86DD861F861E86CE010E949F464D8177
:105710005C81485F5F4FF801ED5BFF4FBE01808108
:1057200091810E94A24EBE01C701DF91CF911F91CE
:105730000F91FF90EF90DF90CF900C94F1466F9215
:105740007F928F929F92AF92BF92CF92DF92EF9211
:10575000FF920F931F93CF93DF9300D000D0CDB76C
:10576000DEB76C01962E872E5C0187E3A80EB11C74
:1057700060E170E0C50129833A834B835C830E941A
:10578000BE463C01FC01108681E1818713861286AA
:1057900084869586178616865C81508B4B81418B5B
:1057A0003A81328B2981238BA8019701852F902F75
:1057B000A32FBE2D848B958BA68BB78BC3010E9424
:1057C0009F46F30145815481485F5F4FF601ED5BD1
:1057D000FF4FB301808191810E94A24EB301C501A8
:1057E0000F900F900F900F90DF91CF911F910F911D
:1057F000FF90EF90DF90CF90BF90AF909F908F90F1
:105800007F906F900C94F1466F927F928F929F924F
:10581000AF92BF92CF92DF92EF92FF920F931F93BE
:10582000CF93DF9300D000D0CDB7DEB76C01962EBA
:10583000872E5C0187E3A80EB11C60E170E0C50112
:1058400029833A834B835C830E94BE463C01FC0162
:10585000108682E181871386128684869586178654
:1058600016865C81508B4B81418B3A81328B29812A
:10587000238BA8019701852F902FA32FBE2D848BFA
:10588000958BA68BB78BC3010E949F46F301458180
:105890005481485F5F4FF601ED5BFF4FB30180819C
:1058A00091810E94A24EB301C5010F900F900F90FD
:1058B0000F90DF91CF911F910F91FF90EF90DF90AC
:1058C000CF90BF90AF909F908F907F906F900C94EF
:1058D000F146EF92FF920F931F93CF93DF938C01CA
:1058E0007C0187E3E80EF11C64E070E0C7010E94D0
:1058F000BE46EC01188683E189871B861A86CE0195
:105900000E949F464D815C81485F5F4FF801ED5BCF
:10591000FF4FBE01808191810E94A24EBE01C7014E
:10592000DF91CF911F910F91FF90EF900C94F14672
:10593000AF92BF92CF92DF92EF92FF920F931F939D
:10594000CF93DF9300D0CDB7DEB78C01D62EC72E14
:105950007C0187E3E80EF11C68E070E0C701498331
:105960005A830E94BE465C01FC01108684E1818757
:10597000138612865A8149818C2D9D2DA52FB42F17
:10598000F50184879587A687B787C5010E949F4642
:10599000F50145815481485F5F4FF801ED5BFF4F92
:1059A000B501808191810E94A24EB501C7010F907F
:1059B0000F90DF91CF911F910F91FF90EF90DF90AB
:1059C000CF90BF90AF900C94F146CF92DF92EF92C0
:1059D000FF920F931F93CF93DF938C01D62EC72E88
:1059E0007C0187E3E80EF11C68E070E0C7010E94CB
:1059F000BE46EC01188685E189871B861A86CC860F
:105A0000DD861F861E86CE010E949F464D815C81E9
:105A1000485F5F4FF801ED5BFF4FBE0180819181D0
:105A20000E94A24EBE01C701DF91CF911F910F913D
:105A3000FF90EF90DF90CF900C94F1466F927F92A1
:105A40008F929F92AF92BF92CF92DF92EF92FF928E
:105A50000F931F93CF93DF9300D000D0CDB7DEB765
:105A60006C01962E872E5C0187E3A80EB11C60E1C5
:105A700070E0C50129833A834B835C830E94BE4654
:105A80003C01FC01108686E181871386128684869C
:105A90009586178616865C81508B4B81418B3A81A7
:105AA000328B2981238BA8019701852F902FA32F5B
:105AB000BE2D848B958BA68BB78BC3010E949F460E
:105AC000F30145815481485F5F4FF601ED5BFF4F65
:105AD000B301808191810E94A24EB301C5010F9054
