:100000000C94AE020C94D6020C94D6020C94D60238
:100010000C94D6020C94D6020C94D6020C94D60200
:100020000C94D6020C94D6020C94D6020C94D602F0
:100030000C94D6020C94D6020C94D6020C94D602E0
:100040000C941B470C94D6020C94D6020C94D60246
:100050000C94F0470C94D6020C94D6020C94D60261
:100060000C94D6020C94D6020C94D6020C94D602B0
:10007000D80100007A4406D80100007A4405D8016E
:1000800000007A4404E5010000803F06E50100001D
:10009000803F05E5010000803F04EF010024744922
:1000A00005EF010024744904FE0100007A4406FEB5
:1000B0000100007A4405FE0100007A4404D80200E1
:1000C00000D902000036090000EB090000320300ED
:1000D00000A0030000D2030000090400007A0C0015
:1000E000005804000088040000A4040000D60400A6
:1000F000000D050000F00B00005C05000069030026
:10010000008C050000D0050000350C0000FF0A003F
:1001100000240600004006000084060000BF0C001A
:1001200000040D0000D8060000E0060000E806000C
:1001300000F00600007C090000F80600003207000D
:1001400000850700008D070000F8080000F1070097
:100150000051080000AF0A0000BB0800003E080084
:100160000095070000B1070000C8070000C20700A3
:10017000001F0A0000462F77206465762000492D75
:100180005620536F75726365204D6574657200ACBF
:10019000C5273717B7D1386F12833A0AD7233CCD1A
:1001A000CCCC3D0804020100000001000200030065
:1001B0000400ACC5273717B7D1386F12833A0AD776
:1001C000233CCDCCCC3D080402010000000100021C
:1001D00000030004000721000008210000CF2300D5
:1001E000000B2200002D2200004F2200006222009E
:1001F00000FF230000122100001E240000752200D1
:100200000097220000AA22000039240000202100CB
:100210000058240000BD220000DF220000732400EB
:10022000002E210000F222000005230000272300F9
:1002300000922400003C2100003A2300004A2100E3
:10024000005821000066210000742100004D2300A9
:1002500000D0240000E3240000822100009021004F
:10026000006023000074230000B12400009E2100E0
:100270000087230000AC2100009A230000BA21006F
:1002800000E6230000C8210000BC2300000000019C
:10029000000000000001000200030004000500004F
:1002A0000001000200030004000000010000000142
:1002B00000020003000400000001001E001E001EDA
:1002C000001E001E001E001E002800280028002816
:1002D00000280028002800280028002800280020E6
:1002E00000280013000C000D000E000F001000117C
:1002F000000700080009000A000B000500060000C6
:100300000001000200030004006F12833A0AD723A1
:100310003CCDCCCC3D0000803F000020410000C817
:100320004208040201003000000100000001000248
:100330000003000400050000002041000000002030
:10034000410000C842002000000100030003000239
:10035000000AD7233C0300030003000AD7233C0311
:1003600000030004000AD7233C0200020004006FCF
:1003700012833A01000100040017B7D138010001CF
:10038000000400ACC52737010001000400BD37861A
:10039000350300030002000AD7233CCDCCCC3D033B
:1003A00000030003000AD7233C0000803F03000342
:1003B0000004000AD7233C00002041020002000490
:1003C000006F12833A000020410100010004001771
:1003D000B7D13800002041010001000400ACC5275E
:1003E0003700002041010001000400BD37863500C0
:1003F0000020410000010002000300040005000687
:100400000080C054400000554000005B4000006187
:1004100040000000FFFFFFFF000100FF0020001070
:1004200000080004000102033A49000041490000AD
:1004300060490000EC4900007F4900000C4A0000C0
:10044000864900008D49000094490000AC49000035
:10045000B3490000D74900006E616E00696E660006
:1004600000407A10F35A00A0724E18090010A5D46B
:10047000E80000E87648170000E40B54020000CAC8
:100480009A3B000000E1F50500008096980000000E
:1004900040420F000000A08601000000102700006D
:1004A0000000E803000000006400000000000A00F3
:1004B000000000000100000000002C76D888DC67F6
:1004C0004F0823DFC1DFAE59E1B1B796E5E3E4534E
:1004D000C63AE651997696E8E6C28426EB898C9B6B
:1004E00062ED407C6FFCEFBC9C9F40F2BAA56FA50B
:1004F000F490055A2AF75C936B6CF9676DC11BFC8D
:10050000E0E40D47FEF520E6B500D0ED902E0300A7
:10051000943577050080841E080000204E0A0000F4
:1005200000C80C333333330F986E12831141EF8DB3
:100530002114893BE65516CFFEE6DB18D1844B38F3
:100540001BF77C1D901DA4BBE424203284725E2224
:100550008100C9F124ECA1E53D27863B11241FBE93
:10056000CFEFD0E1DEBFCDBF12E0A0E0B1E0EAEE18
:10057000FBEA02C005900D92A638B107D9F725E035
:10058000A6E8B2E001C01D92A837B207E1F712E079
:10059000CEEAD2E004C02197FE010E940B53CD3A6F
:1005A000D107C9F70E94EC100C94F3550C9400008D
:1005B0000895CF92DF92EF92FF920F931F93CF9304
:1005C000DF9300D000D0CDB7DEB70E94AF3AFC0178
:1005D000C080D1800D2C000CEE08FF087601DD24D0
:1005E000CC240E94AF3AFC0182819381092E000C39
:1005F000AA0BBB0BBA2FA92F982F8827C82AD92A54
:10060000EA2AFB2A0E94AF3AFC0124813581C90104
:10061000330FAA0BBB0BA7019601282B392B4A2BB2
:100620005B2B29833A834B835C830E9492251DEFC9
:10063000E12EFF24FA940FEF1FEF29813A814B81BD
:100640005C8168E171E00E94EA250F900F900F90A5
:100650000F90DF91CF911F910F91FF90EF90DF905E
:10066000CF9008950F931F93CF93DF93EB018A816F
:100670009B810E94C81A8C010E947B1BB8010E94BA
:10068000D81A0E947B1BFC01808191810E945D250C
:100690008C010E949225B8010E94022A8A819B81C6
:1006A0000E94561EEC010E944E20BE010E94231F94
:1006B0000E944E20FC01848195810E943D25EC0121
:1006C0000E949225BE01DF91CF911F910F910C9452
:1006D000D8260F931F93CF93DF93EB018A819B81E1
:1006E0000E94561E8C010E944E20B8010E94231FBA
:1006F0000E944E20FC01848195810E943D258C0141
:100700000E949225B8010E94D8268A819B810E946E
:10071000C81AEC010E947B1BBE010E94D81A0E94DD
:100720007B1BFC01808191810E945D25EC010E9470
:100730009225BE01DF91CF911F910F910C94022A57
:100740008F929F92AF92BF92EF92FF920F931F935F
:10075000CF93DF93FB01C281D3810E944E20DD271E
:10076000FE01EE0FFF1FEC0FFD1FEE0FFF1FE80F46
:10077000F91F80849184A284B384E680F7800E946C
:10078000922595018401A701BE010E940727DF91F0
:10079000CF911F910F91FF90EF90BF90AF909F90DE
:1007A0008F9008958F929F92AF92BF92EF92FF9297
:1007B0000F931F93CF93DF93FB01C281D381DD277A
:1007C0000E944E20BE010E94D1200E944E20FE01B8
:1007D000EE0FFF1FEC0FFD1FEE0FFF1FE80FF91FBD
:1007E00080849184A284B384E680F7800E9492255D
:1007F00095018401A701BE010E945A27DF91CF9184
:100800001F910F91FF90EF90BF90AF909F908F90AE
:1008100008958F929F92AF92BF92CF92DF92EF9204
:10082000FF920F931F93CF93DF9300D000D0CDB7EB
:10083000DEB7FB012481358146815781C280D38098
:10084000DD2429833A834B835C830E944E202981D7
:100850003A814B815C81B6010E94E1200E944E20CA
:10086000F601EE0FFF1FEC0DFD1DEE0FFF1FE80F51
:10087000F91F80849184A284B384E680F7800E946B
:10088000922595018401A701B6010E94AD270F9022
:100890000F900F900F90DF91CF911F910F91FF90CC
:1008A000EF90DF90CF90BF90AF909F908F90089582
:1008B000CF93DF9300D000D0CDB7DEB7FB014281EC
:1008C00053816481758149835A836B837C830E9441
:1008D0004E2049815A816B817C810E945C200E945C
:1008E0004E20FC01408151816281738149835A838A
:1008F0006B837C830E94922549815A816B817C8124
:100900000F900F900F900F90DF91CF910C942928AA
:10091000CF93DF93FB01828193810E94CE36EC015D
:100920000E94FA37BE010E94E1360E94FA37FC01AC
:10093000848195810E944D25EC010E949225BE0183
:10094000DF91CF910C946D288F929F92AF92BF92BE
:10095000EF92FF920F931F93CF93DF93FB01C2811E
:10096000D3810E94FA37DD27FE01EE0FFF1FEC0F47
:10097000FD1FEE0FFF1FE80FF91F80849184A284F2
:10098000B384E680F7800E94922595018401A70137
:10099000BE010E949C28DF91CF911F910F91FF9083
:1009A000EF90BF90AF909F908F9008958F929F92FD
:1009B000AF92BF92EF92FF920F931F93CF93DF936B
:1009C000FB01C281D381DD270E94FA37BE010E945C
:1009D000B6380E94FA37FE01EE0FFF1FEC0FFD1F25
:1009E000EE0FFF1FE80FF91F80849184A284B38467
:1009F000E680F7800E94922595018401A701BE013F
:100A00000E94EF28DF91CF911F910F91FF90EF90FF
:100A1000BF90AF909F908F9008958F929F92AF92CA
:100A2000BF92CF92DF92EF92FF920F931F93CF93DB
:100A3000DF9300D000D0CDB7DEB7FB012481358134
:100A400046815781C280D380DD2429833A834B833A
:100A50005C830E94FA3729813A814B815C81B6011F
:100A60000E94C6380E94FA37F601EE0FFF1FEC0D08
:100A7000FD1DEE0FFF1FE80FF91F80849184A284F3
:100A8000B384E680F7800E94922595018401A70136
:100A9000B6010E9442290F900F900F900F90DF91A6
:100AA000CF911F910F91FF90EF90DF90CF90BF906B
:100AB000AF909F908F900895CF93DF9300D000D098
:100AC000CDB7DEB7FB0142815381648175814983D3
:100AD0005A836B837C830E94FA3749815A816B81E8
:100AE0007C810E9441380E94FA37FC01408151818B
:100AF0006281738149835A836B837C830E94922530
:100B000049815A816B817C810F900F900F900F90DB
:100B1000DF91CF910C94BE29AF92BF92CF92DF921A
:100B2000EF92FF920F931F93CF93DF9300D000D0EB
:100B3000CDB7DEB7FB01E280F3800E947B1B57013B
:100B4000BB24F501EE0FFF1FEE0FFF1FEE0FFF1F7F
:100B5000E80FF91FC680D780E084F18422813381B9
:100B60004481558129833A834B835C830E9492257B
:100B70008701760129813A814B815C81B5010E9410
:100B8000312A0F900F900F900F90DF91CF911F910E
:100B90000F91FF90EF90DF90CF90BF90AF900895AE
:100BA000AF92BF92CF92DF92EF92FF920F931F937B
:100BB000CF93DF9300D000D0CDB7DEB7FB01248107
:100BC000358146815781A280B380BB2429833A8333
:100BD0004B835C830E947B1B29813A814B815C8122
:100BE000B5010E940D1D0E947B1BF501EE0FFF1F3A
:100BF000EE0FFF1FEE0FFF1FE80FF91FC680D78013
:100C0000E084F184228133814481558129833A83B0
:100C10004B835C830E9492258701760129813A816A
:100C20004B815C81B5010E948C2A0F900F900F9030
:100C30000F90DF91CF911F910F91FF90EF90DF9078
:100C4000CF90BF90AF900895CF93DF93FB01828147
:100C500093810E944F31EC010E94A032BE010E949C
:100C60006F310E94A032FC01808191810E946D252C
:100C7000EC010E949225BE01DF91CF910C94542B80
:100C8000AF92BF92CF92DF92EF92FF920F931F939A
:100C9000CF93DF9300D000D0CDB7DEB7FB01E28069
:100CA000F3800E94A0325701BB24F501EE0FFF1F15
:100CB000EE0FFF1FEE0FFF1FE80FF91FC680D78052
:100CC000E084F184228133814481558129833A83F0
:100CD0004B835C830E9492258701760129813A81AA
:100CE0004B815C81B5010E94832B0F900F900F9078
:100CF0000F90DF91CF911F910F91FF90EF90DF90B8
:100D0000CF90BF90AF900895AF92BF92CF92DF92F5
:100D1000EF92FF920F931F93CF93DF9300D000D0F9
:100D2000CDB7DEB7FB012481358146815781A28092
:100D3000B380BB2429833A834B835C830E94A03217
:100D400029813A814B815C81B5010E9470330E94F8
:100D5000A032F501EE0FFF1FEE0FFF1FEE0FFF1F7A
:100D6000E80FF91FC680D780E084F18422813381A7
:100D70004481558129833A834B835C830E94922569
:100D80008701760129813A814B815C81B5010E94FE
:100D9000DE2B0F900F900F900F90DF91CF911F914E
:100DA0000F91FF90EF90DF90CF90BF90AF9008959C
:100DB0000E944E200E9480200E9492250C94A62C16
:100DC0000E94FA370E9465380E9492250C94CF2C1D
:100DD0000E947B1B0E94A61C0E9492250C94F82C5A
:100DE0000E94A0320E9409330E9492250C94212D6A
:100DF000CF93DF93FB01828193818130910521F1B3
:100E00008230910599F0892B19F0DF91CF910895E7
:100E10000E94AF3AFC01C081D1810E949225AE01AF
:100E200060E070E0DF91CF910C948E2D0E94AF3A7C
:100E3000FC01C481D5810E949225AE0162E070E080
:100E4000DF91CF910C948E2D0E94AF3AFC01C281AC
:100E5000D3810E949225AE0161E070E0DF91CF91D5
:100E60000C948E2DCF93DF93FB0182819381C481FB
:100E7000D58181309105B1F18230910501F1009762
:100E800059F08130910599F182309105E9F0892B73
:100E900041F0DF91CF9108950E94AF3AFC01D183D8
:100EA000C0830E94AF3AFC01C081D1810E9492258B
:100EB000AE0160E070E0DF91CF910C94CC2D0E94E8
:100EC000AF3AFC01D583C4830E94AF3AFC01C481D0
:100ED000D5810E949225AE0162E070E0DF91CF9152
:100EE0000C94CC2D0E94AF3AFC01D383C2830E94A4
:100EF000AF3AFC01C281D3810E949225AE0161E02C
:100F000070E0DF91CF910C94CC2D0E94AF3A0E94FB
:100F1000093B0E9492250C940A2E0E94AF3A0E942F
:100F2000153B0E9492250C94332ECF93DF93FB0147
:100F3000828193810E945F31EC010E94A032BE0148
:100F40000E9419340E94A032FC0183AD94AD0E942E
:100F50008225EC010E949225BE01DF91CF910C9475
:100F6000D72FCF93DF930E94A032FC0183AD94ADC5
:100F70000E948225EC010E949225BE01DF91CF9153
:100F80000C9406300E94922561E070E00C9473305E
:100F9000CF92DF92EF92FF92FB01C280D380E48078
:100FA000F5800E949225B701A6010E94B225811109
:100FB00008C00E949225FF90EF90DF90CF900C9494
:100FC00044260E949225B701A6010E9435300E9456
:100FD0009225B701A601FF90EF90DF90CF900C947F
:100FE000CA25AF92BF92CF92DF92EF92FF920F93FA
:100FF0001F93CF93DF9300D000D0CDB7DEB7FB01B6
:10100000E280F3808091CB02811107C086E992E0F3
:101010000E945A3481E08093CB025701BB24F50132
:10102000EE0FFF1FEE0FFF1FEE0FFF1FEA56FD4FE3
:10103000C184D284E384F48425813681478150853C
:1010400029833A834B835C830E9492258701760132
:1010500029813A814B815C81B5010E948B2E0F90D2
:101060000F900F900F90DF91CF911F910F91FF90F4
:10107000EF90DF90CF90BF90AF9008958091CB021A
:10108000811107C086E992E00E945A3481E0809382
:10109000CB0286E992E00E9425360E9492250C94AC
:1010A000AE2FAF92BF92CF92DF92EF92FF920F934B
:1010B0001F93CF93DF9300D000D0CDB7DEB7FB01F5
:1010C0002481358146815781A280B380BB248091E1
:1010D000CB02882309F43FC0B50186E992E00E9463
:1010E000B8358091CB02811107C086E992E00E9459
:1010F0005A3481E08093CB02F501EE0FFF1FEE0F13
:10110000FF1FEE0FFF1FEA56FD4FC184D284E38418
:10111000F484258136814781508529833A834B8326
:101120005C830E9492258701760129813A814B8157
:101130005C81B5010E94E62E0F900F900F900F90EA
:10114000DF91CF911F910F91FF90EF90DF90CF90A3
:10115000BF90AF90089586E992E029833A834B834C
:101160005C830E945A3481E08093CB025C814B8186
:101170003A812981B1CF0F931F93CF93DF9300D092
:1011800000D0CDB7DEB78B010E94EC380E94043945
:10119000F801628173818091CB0281110BC086E9D5
:1011A00092E06B837C830E945A3481E08093CB026F
:1011B0007C816B8186E992E00E948C36AB01BC0198
:1011C00049835A836B837C830E94922549815A818B
:1011D0006B817C810E946A2F0E94EC380F900F90E7
:1011E0000F900F90DF91CF911F910F910C940639C2
:1011F0000F931F93CF93DF9300D0CDB7DEB7FB01E2
:10120000828193810E945534BC018091CB02882356
:1012100009F186E992E00E9425358091CB02811187
:1012200007C086E992E00E945A3481E08093CB02A5
:101230008091990290919A020E947D258C010E94D2
:101240009225B8010F900F90DF91CF911F910F91D0
:101250000C945C2E86E992E069837A830E945A346A
:1012600081E08093CB027A816981D3CF8F929F9264
:10127000AF92BF92CF92DF92EF92FF920F931F93A4
:10128000CF93DF93EC01FB0182809380A480B58033
:1012900081E08B870E9440470E9462476B017C017E
:1012A0000E9440478C01C501B4010E940C512FE6F9
:1012B00032E143E85AE30E941152AB01BC01C8017C
:1012C0000E946E47C60ED71EE81EF91ECC86DD862C
:1012D000EE86FF860E949225B501A401DF91CF9191
:1012E0001F910F91FF90EF90DF90CF90BF90AF9044
:1012F0009F908F900C946B260F931F93CF93DF9347
:1013000000D000D0CDB7DEB78B010E94FA370E9423
:10131000DE360E94EC380E9402390E944E200E9464
:10132000661E0E94EC380E94FC38F801028113818D
:101330000E940839B8010E94603AAB01BC014983A0
:101340005A836B837C830E94922549815A816B81E9
:101350007C810F900F900F900F90DF91CF911F9194
:101360000F910C944A2DCF92DF92EF92FF92DB0106
:10137000ED91FC91EE32F10548F5EE0FFF1FEE0FF7
:10138000FF1FE354FF4FC590D590E590F490F60110
:10139000970135952795E0FE12C0DC01A20FB31F1F
:1013A0002D913C911197F901EC0DFD1D0190F081FB
:1013B000E02DCD01FF90EF90DF90CF900994820F48
:1013C000931FFF90EF90DF90CF900994FF90EF90E4
:1013D000DF90CF900895FB01828193810097C9F03F
:1013E0000197B1F40E944E200E94201F0E94EC3809
:1013F0000E94FE380E94FA370E9408380E94EC389A
:101400000E9400390E94922561E070E00C94A926A8
:1014100008950E94FA370E94DE360E94EC380E943E
:1014200002390E944E200E94661E0E94EC380E94E3
:10143000FC380E94922560E070E00C94A926BF92CF
:10144000CF92DF92EF92FF920F931F93CF93DF9390
:10145000EC018B012FEF8FE19CE121508040904007
:10146000E1F700C00000BB24B394BE820E94404755
:101470000E9462476B017C010E94404740E050E0BF
:1014800060E070E40E946E47C60ED71EE81EF91E8B
:10149000CF82D886E986FA860E948B3B40E060E0E6
:1014A0000E946F3C0E948B3B63E271E00E949E3C75
:1014B0000E948B3B40E061E00E946F3C0E948B3BAE
:1014C00064E371E00E949E3CEFEFFFE328E3E1500C
:1014D000F0402040E1F700C00000F80102811381D4
:1014E0000E94922540E050E0B8010E94A230BE82E6
:1014F0000E9440470E9462476B017C010E94404766
:1015000040E050E060E070E40E946E47C60ED71ED7
:10151000E81EF91ECF82D886E986FA860E948B3BA8
:1015200040E060E00E946F3C0E948B3B65E471E00C
:101530000E949E3C0E948B3B40E061E00E946F3C19
:101540000E948B3B64E371E0DF91CF911F910F917B
:10155000FF90EF90DF90CF90BF900C949E3CCF9285
:10156000DF92EF92FF92CF93DF93EC018091CB0259
:10157000811107C086E992E00E945A3481E080938D
:10158000CB0286E992E00E940F360E9492250E94CB
:10159000412F81E08E830E9440470E9462476B0189
:1015A0007C010E94404740E050E060E070E40E940F
:1015B0006E47C60ED71EE81EF91ECF82D886E98672
:1015C000FA860E948B3B40E060E00E946F3C0E94E4
:1015D0008B3B66E571E00E949E3C0E948B3B40E0A5
:1015E00061E00E946F3C0E948B3B67E671E0DF91F7
:1015F000CF91FF90EF90DF90CF900C949E3C8F9214
:101600009F92AF92BF92CF92DF92EF92FF920F9391
:101610001F93CF93DF93CDB7DEB72B970FB6F89418
:10162000DEBF0FBECDBF8C017B010E94EC380E9453
:101630000439F701E280F3800E947B1BB7010E940E
:10164000081C4B015C010E949225B501A4010E9477
:10165000102B81E0F80186830E9440470E94624778
:101660006B017C010E94404740E050E060E070E484
:101670000E946E47C60ED71EE81EF91EF801C782EB
:10168000D086E186F2860E94A0320E947B1BFC017C
:10169000E080F1800E948B3B0E94933CFC0196E02D
:1016A000DE01119601900D929A95E1F70E948B3B15
:1016B00040E060E00E946F3C8701000F111F000FA7
:1016C000111F000F111F0E191F09F801E656FF4FD9
:1016D000E590F49082E00E9408408B8781E00E94B0
:1016E00008408A87F801E456FF4F259135914591CE
:1016F0005491C501B4010E9411524B015C01F801E3
:10170000E056FF4F84910E940940898789E00E943A
:101710000840888784E00E9408408F830E948B3BAA
:1017200061EC7FE30E94773FBE01695F7F4F0E94BB
:101730000A4068E771E00E949E3C65EE7FE30E94EC
:10174000773F69E77FE30E94773F6DE97FE30E947F
:10175000773FBE01685F7F4F0E940A40BE01675F0E
:101760007F4F0E942F40B501A4010E945D3EBE0143
:10177000665F7F4F0E940A4066E771E00E949E3CD0
:1017800061EC7FE30E94773FBE01655F7F4F0E945F
:101790000A40B7010E949E3C0E948B3B40E061E002
:1017A0000E946F3C0E948B3BBE016F5F7F4F0E9487
:1017B000953C0E94EC380E9406392B960FB6F8949F
:1017C000DEBF0FBECDBFDF91CF911F910F91FF9074
:1017D000EF90DF90CF90BF90AF909F908F90089543
:1017E000CF92DF92EF92FF92CF93DF93EC010E94B2
:1017F000FA370E94D6380E9492250E94952981E0EE
:101800008E830E9440470E9462476B017C010E94C8
:10181000404740E050E060E070E40E946E47C60E32
:10182000D71EE81EF91ECF82D886E986FA860E9466
:101830008B3B40E060E00E946F3C0E948B3B66E582
:1018400071E00E949E3C0E948B3B40E061E00E9460
:101850006F3C0E948B3B67E671E0DF91CF91FF9078
:10186000EF90DF90CF900C949E3CCF92DF92EF925E
:10187000FF92CF93DF93EC010E947B1B0E94BC1D63
:101880000E9492250E94E72A81E08E830E944047B1
:101890000E9462476B017C010E94404740E050E09B
:1018A00060E070E40E946E47C60ED71EE81EF91E67
:1018B000CF82D886E986FA860E948B3B40E060E0C2
:1018C0000E946F3C0E948B3B66E571E00E949E3C4B
:1018D0000E948B3B40E061E00E946F3C0E948B3B8A
:1018E00067E671E0DF91CF91FF90EF90DF90CF90AE
:1018F0000C949E3CCF92DF92EF92FF92CF93DF93B6
:10190000EC010E944E200E94F1200E9492250E942C
:10191000002881E08E830E9440470E9462476B014D
:101920007C010E94404740E050E060E070E40E948B
:101930006E47C60ED71EE81EF91ECF82D886E986EE
:10194000FA860E948B3B40E060E00E946F3C0E9460
:101950008B3B66E571E00E949E3C0E948B3B40E021
:1019600061E00E946F3C0E948B3B67E671E0DF9173
:10197000CF91FF90EF90DF90CF900C949E3CCF9250
:10198000DF92EF92FF92CF93DF93EC010E94A0329F
:101990000E94CE330E9492250E94392C81E08E83D2
:1019A0000E9440470E9462476B017C010E944047B1
:1019B00040E050E060E070E40E946E47C60ED71E23
:1019C000E81EF91ECF82D886E986FA860E948B3BF4
:1019D00040E060E00E946F3C0E948B3B66E571E056
:1019E0000E949E3C0E948B3B40E061E00E946F3C65
:1019F0000E948B3B67E671E0DF91CF91FF90EF9003
:101A0000DF90CF900C949E3C8F929F92AF92BF92AA
:101A1000CF92DF92EF92FF920F931F93CF93DF93BA
:101A2000CDB7DEB72B970FB6F894DEBF0FBECDBF94
:101A30008C017B010E94EC380E940439F701E2809E
:101A4000F3800E94A032B7010E94AE324B015C01CC
:101A50000E949225B501A4010E94622C81E0F80148
:101A600086830E9440470E9462476B017C010E946E
:101A7000404740E050E060E070E40E946E47C60ED0
:101A8000D71EE81EF91EF801C782D086E186F286CD
:101A90000E94A032FC01E080F1800E947B1B0E942A
:101AA0008B3B0E94933CFC0196E0DE011196019075
:101AB0000D929A95E1F70E948B3B40E060E00E9416
:101AC0006F3C0E948B3B40E061E00E946F3C8701CD
:101AD000000F111F000F111F000F111F0E191F09FA
:101AE000F801E059FF4FE590F49082E00E94084031
:101AF0008B8781E00E9408408A87F801EE58FF4FEB
:101B00002591359145915491C501B4010E9411521E
:101B10004B015C01F801EA58FF4F84910E94094093
:101B2000898789E00E940840888784E00E940840F5
:101B30008F830E948B3B61EC7FE30E94773FBE0165
:101B4000695F7F4F0E940A406BE771E00E949E3CF4
:101B500065EE7FE30E94773F69E77FE30E94773F6E
:101B60006DE97FE30E94773FBE01685F7F4F0E946F
:101B70000A40BE01675F7F4F0E942F40B501A4015C
:101B80000E945D3EBE01665F7F4F0E940A4066E78D
:101B900071E00E949E3C61EC7FE30E94773FBE01B2
:101BA000655F7F4F0E940A40B7010E949E3C0E94E1
:101BB0008B3BBE016F5F7F4F0E94953C0E94EC38CB
:101BC0000E9406392B960FB6F894DEBF0FBECDBF2C
:101BD000DF91CF911F910F91FF90EF90DF90CF9009
:101BE000BF90AF909F908F9008950F931F93CF93C6
:101BF000DF93CDB7DEB7AB970FB6F894DEBF0FBE5D
:101C0000CDBF0E948B3B0E94933CFC0196E0DE011D
:101C1000919601900D929A95E1F70E948B3B40E0DE
:101C200060E00E946F3C6EE771E0CE0101960E9479
:101C300016558C010E948B3BB8010E949E3C0E946D
:101C40008B3B40E061E00E946F3C82E00E940840D4
:101C50008FA381E00E94084088A782E00E9408408C
:101C600089A781E00E9408408AA782E00E9408407C
:101C70008BA765E771E0CE0101960E9416558C0195
:101C80000E948B3BB8010E949E3CBE01655D7F4F68
:101C90000E940A406DE97FE30E94773F4FEF50E0DA
:101CA00060E070E00E94683DBE01665D7F4F0E946B
:101CB0000A406EE771E00E949E3CBE01675D7F4F67
:101CC0000E940A406DE97FE30E94773F4FEF50E0AA
:101CD00060E070E00E94683DBE01685D7F4F0E9439
:101CE0000A406EE771E00E949E3CBE01695D7F4F35
:101CF0000E940A406DE97FE30E94773F4DEF50E07C
:101D000060E070E00E94683D0E948B3BBE016F5D09
:101D10007F4F0E94953CAB960FB6F894DEBF0FBE86
:101D2000CDBFDF91CF911F910F910895CF92DF9298
:101D3000EF92FF92CF93DF93EC010E945C3B85E032
:101D400092E0998388831E821F82188619861A86DC
:101D50001B861C861D861E861F860E948B3B0E944A
:101D60004E200E94FA370E947B1B0E94A032809175
:101D7000CB02811107C086E992E00E945A3481E0CB
:101D80008093CB020E9408390E9492250E944E2027
:101D90000E94661E0E94EC380E94FC380E94FA37AE
:101DA00040E050E0BA010E9441380E94A03260E059
:101DB00070E00E9419340E949225AE0163EB79E035
:101DC0000E94763BCE010E94F50D789481E08E83CF
:101DD0000E9440470E9462476B017C010E9440477D
:101DE00040E050E060E070E40E946E47C60ED71EEF
:101DF000E81EF91ECF82D886E986FA86DF91CF9158
:101E0000FF90EF90DF90CF9008952F923F924F92E6
:101E10005F926F927F928F929F92AF92BF92CF927A
:101E2000DF92EF92FF920F931F93CF93DF93CDB783
:101E3000DEB72B970FB6F894DEBF0FBECDBFF62EE0
:101E400029013A010E948B3B0E94933CFC0196E0E1
:101E5000DE01119601900D929A95E1F70E948B3B5D
:101E600040E060E00E946F3CF11099C00E948B3B03
:101E700040E061E00E946F3CEE2009F470C08401F4
:101E8000000F111F000F111F000F111F0819190952
:101E9000F801E059FF4FE590F49082E00E9408407D
:101EA0008F8381E00E9408408887F801EE58FF4F39
:101EB0002591359145915491C601B5010E94115269
:101EC0004B015C01F801EA58FF4F84910E940940E0
:101ED000898789E00E9408408A8784E00E94084040
:101EE0008B870E948B3B61EC7FE30E94773FBE01B2
:101EF000655F7F4F0E940A406BE771E00E949E3C45
:101F000065EE7FE30E94773F69E77FE30E94773FBA
:101F10006DE97FE30E94773FBE01665F7F4F0E94BD
:101F20000A40BE01675F7F4F0E942F40B501A401A8
:101F30000E945D3EBE01685F7F4F0E940A4066E7D7
:101F400071E00E949E3C61EC7FE30E94773FBE01FE
:101F5000695F7F4F0E940A40B7010E949E3C0E9429
:101F60008B3BBE016F5F7F4F0E94953C2B960FB657
:101F7000F894DEBF0FBECDBFDF91CF911F910F91BF
:101F8000FF90EF90DF90CF90BF90AF909F908F9099
:101F90007F906F905F904F903F902F900895F80141
:101FA000EE0FFF1FEE0FFF1FEE0FFF1FCF01801B75
:101FB000910B8C01FC01E656FF4F2590349082E096
:101FC0000E9408408F8381E00E9408408887F801C2
:101FD000E456FF4F2591359145915491C301B201CB
:101FE0000E9411522B013C01F801E056FF4F8491F1
:101FF0000E940940898789E00E9408408A8784E01E
:102000000E9408408B870E948B3B61EC7FE30E941B
:10201000773FBE01655F7F4F0E940A4068E771E02D
:102020000E949E3C65EE7FE30E94773F69E77FE375
:102030000E94773F6DE97FE30E94773FBE01665FB4
:102040007F4F0E940A40BE01675F7F4F0E942F4072
:10205000B301A2010E945D3EBE01685F7F4F0E94F6
:102060000A4066E771E00E949E3C61EC7FE30E94BB
:10207000773FBE01695F7F4F0E940A40B1010E9415
:102080009E3CF4CE2F923F924F925F926F927F923E
:102090008F929F92AF92BF92CF92DF92EF920F9367
:1020A0001F93CF93DF9300D000D0CDB7DEB71C01D4
:1020B000FC018385811125C00E947B1B0E94D01DDD
:1020C0000E94A0320E94E2330E947B1BFC0180AD83
:1020D00091AD892B59F10F900F900F900F90DF91D8
:1020E000CF911F910F91EF90DF90CF90BF90AF9065
:1020F0009F908F907F906F905F904F903F902F9028
:1021000008950E9440470E946247F10104851585A9
:1021100026853785601771078207930768F2F101FA
:1021200013860E9492250E94E225C6CF0E94A0320B
:10213000FC0180AD91AD892B71F60E947B1B0E9442
:10214000281E9B01AC0169833A834B835C830E9408
:10215000A0320E94F1335B016C01F101868129817B
:102160003A814B815C81811119C029833A834B8369
:102170005C830E94A032FC01808091800E947B1BC6
:10218000FC0100811181EE24E39429813A814B8185
:102190005C8161E0C1010E94050F9DCF29833A83D4
:1021A0004B835C830E9440470E946247F101478055
:1021B00050846184728429813A814B815C816415E9
:1021C00075058605970518F0F1011682CECFF1014D
:1021D0008681811180CFC9CF2FEF8FE398E3215003
:1021E00080409040E1F700C000008091C30281115F
:1021F00007C086E892E00E94960E81E08093C302B9
:102200000E943B3B80E090E008952F923F924F92D6
:102210005F926F927F928F929F92AF92BF92CF9276
:10222000DF92EF92FF920F931F93CF93DF938C0176
:10223000EB01FC01E080F1806E157F050CF065C0BC
:1022400082809380A480B580A5019401608571850A
:10225000828593850E94EC4F2B013C01F801668139
:1022600077816E197F09072E000C880B990B0E944D
:102270000E519B01AC01C301B2010E945E502B01C3
:102280003C01CE19DF09BE01DD0F880B990B0E94BE
:102290000E519B01AC01C301B2010E9411529B017E
:1022A000AC01C501B4010E94ED4F8B01D82FC92F9D
:1022B0002CE53FE842E85FE3C501B4010E941152FA
:1022C0006B017C019B01AC01B8018D2F9C2F0E94FA
:1022D000595087FDEDC0502F412F9E01652F742F5F
:1022E000832F922FDF91CF911F910F91FF90EF904D
:1022F000DF90CF90BF90AF909F908F907F906F9026
:102300005F904F903F902F900895FC01208C318C6E
:10231000261637060CF47EC0A4E0B0E00DC04C17C2
:102320005D070CF0CAC09C01CB01BF2DAC01421B64
:10233000530B42305105FCF02B2F30E06A2F70E038
:10234000C901860F971F95958795F82EFC01EE0F12
:10235000FF1FE80FF91FEE0FFF1FE00FF11F408175
:102360005181C417D507DCF6A82FAC01421B530BD3
:10237000423051050CF7F901EE0FFF1FE20FF31F7A
:10238000EE0FFF1FE00FF11F82809380A480B580C5
:10239000E080F1809C01220F331F820F931F880F72
:1023A000991F080F191FA5019401F801628173811B
:1023B000848195810E94EC4F2B013C01F8016081E2
:1023C00071816E197F09072E000C880B990B0E94F2
:1023D0000E519B01AC01C301B2010E945E502B0162
:1023E0003C01CE19DF09BE01DD0F880B990B0E945D
:1023F0000E519B01AC01C301B2010E9411529B011D
:10240000AC01C501B4010E94ED4F562F472F382F64
:10241000292F64CFC28CD38CE48CF58C848895886A
:10242000A688B78802891389A5019401C701B6015E
:102430000E94EC4F2B013C01B101601B710B072E78
:10244000000C880B990B0E940E519B01AC01C3013B
:10245000B2010E945E502B013C01C01BD10BBE019A
:10246000DD0F880B990B0E940E519B01AC01C3013B
:10247000B2010E9411529B01AC01C501B4010E943E
:10248000ED4F8B01D82FC92F2CE53FE842E85FE3E1
:10249000C701B6010E9411526B017C019B01AC0186
:1024A000B8018D2F9C2F0E940C5218160CF013CFE0
:1024B0005C2D4D2D3E2D2F2D11CF52814381348126
:1024C00025810CCF2F923F924F925F926F927F9215
:1024D0008F929F92AF92BF92CF92DF92EF92FF9234
:1024E0000F931F93CF93DF93CDB7DEB728970FB627
:1024F000F894DEBF0FBECDBF8C016A017B01FC01E9
:1025000082809380A480B5809A01AB01C501B4019B
:102510000E940C52F80118160CF079C0608071808E
:10252000B301072C000C880B990B0E940E51698394
:102530007A838B839C83F80166817781661977099A
:10254000072E000C880B990B0E940E512B013C01A9
:10255000A5019401F80160857185828593850E94AB
:10256000EC4F9B01AC01C301B2010E945E502B01F4
:102570003C01A5019401C701B6010E94EC4F9B01EB
:10258000AC01C301B2010E94115229813A814B81F1
:102590005C810E94ED4F8B015C012CE53FE842E835
:1025A0005FE369817A818B819C810E9411526B016A
:1025B0007C019B01AC01B801C5010E94595087FD07
:1025C00023C1502F412F3A2D2B2D652F742F832F90
:1025D000922F0E947E520E94D050CB0128960FB6B7
:1025E000F894DEBF0FBECDBFDF91CF911F910F9149
:1025F000FF90EF90DF90CF90BF90AF909F908F9023
:102600007F906F905F904F903F902F900895828CB5
:10261000938CA48CB58CA7019601C501B4010E94CE
:10262000595087FD94C0F4E0F9831D8211C0A701C1
:102630009601C301B2010E94595087FFEAC04501CB
:102640005101FE81FD83C50188199909029754F152
:102650002D81822E912C3981232E312C5401A20CF4
:10266000B31CB594A794AE82C501880F991F8A0D3B
:102670009B1D880F991FFC01E00FF11FF887EF8366
:102680004280538064807580A7019601C301B20126
:102690000E940C5218165CF6A982C5018819990986
:1026A0000297B4F6F401EE0FFF1FE80DF91DEE0FCF
:1026B000FF1FE00FF11F2080318042805380648033
:1026C0007580C501880F991F8A0D9B1D880F991F62
:1026D000080F191FF8016081718162197309072EB3
:1026E000000C880B990B0E940E514B015C01A30159
:1026F0009201F80162817381848195810E94EC4F7F
:102700009B01AC01C501B4010E945E504B015C010C
:10271000A3019201C701B6010E94EC4F9B01AC01DD
:10272000C501B4010E9411526B017C01B101330C4F
:10273000880B990B0E940E519B01AC01C701B60199
:102740000E94ED4F562F472F382F292F3ECFF801EB
:10275000208C318C2289338938872F83448855888F
:1027600066887788B101621B730B072E000C880BFB
:10277000990B0E940E5169837A838B839C83A301FA
:102780009201C501B4010E94EC4F9B01AC0169812B
:102790007A818B819C810E945E504B015C01A30178
:1027A0009201C701B6010E94EC4F9B01AC01C5012B
:1027B000B4010E9411526B017C01EF81F885BF01C9
:1027C000FF0F880B990B0E940E519B01AC01C701B2
:1027D000B6010E94ED4F8B015C01B101330C880BF7
:1027E000990B0E940E512CE53FE842E85FE30E94FE
:1027F00011526B017C019B01AC01B801C5010E9423
:102800000C5218160CF0DDCE5C2D4D2D3E2D2F2DCB
:10281000DCCEEF81F88560817181072E000C880B7A
:10282000990B0E940E51562F472F382F292FCDCEAE
:102830002F923F924F925F926F927F928F929F92D0
:10284000AF92BF92CF92DF92EF92FF920F931F93BE
:10285000CF93DF938C01EB01FC01E080F1806E15DA
:102860007F050CF065C082809380A480B580A501AF
:10287000940160857185828593850E94EC4F2B01C0
:102880003C01F801668177816E197F09072E000CE3
:10289000880B990B0E940E519B01AC01C301B20140
:1028A0000E945E502B013C01CE19DF09BE01DD0FF5
:1028B000880B990B0E940E519B01AC01C301B20120
:1028C0000E9411529B01AC01C501B4010E94ED4F61
:1028D0008B01D82FC92F2CE53FE842E85FE3C50103
:1028E000B4010E9411526B017C019B01AC01B80143
:1028F0008D2F9C2F0E94595087FDEDC0502F412FE6
:102900009E01652F742F832F922FDF91CF911F91FE
:102910000F91FF90EF90DF90CF90BF90AF909F907E
:102920008F907F906F905F904F903F902F90089581
:10293000FC01208C318C261637060CF47EC0A4E0F6
:10294000B0E00DC04C175D070CF0CAC09C01CB0174
:10295000BF2DAC01421B530B42305105FCF02B2F15
:1029600030E06A2F70E0C901860F971F9595879513
:10297000F82EFC01EE0FFF1FE80FF91FEE0FFF1FEF
:10298000E00FF11F40815181C417D507DCF6A82F55
:10299000AC01421B530B423051050CF7F901EE0F0D
:1029A000FF1FE20FF31FEE0FFF1FE00FF11F8280EA
:1029B0009380A480B580E080F1809C01220F331FBA
:1029C000820F931F880F991F080F191FA5019401EB
:1029D000F80162817381848195810E94EC4F2B0103
:1029E0003C01F801608171816E197F09072E000C8E
:1029F000880B990B0E940E519B01AC01C301B201DF
:102A00000E945E502B013C01CE19DF09BE01DD0F93
:102A1000880B990B0E940E519B01AC01C301B201BE
:102A20000E9411529B01AC01C501B4010E94ED4FFF
:102A3000562F472F382F292F64CFC28CD38CE48C8C
:102A4000F58C84889588A688B78802891389A501A2
:102A50009401C701B6010E94EC4F2B013C01B1016A
:102A6000601B710B072E000C880B990B0E940E51F6
:102A70009B01AC01C301B2010E945E502B013C01DD
:102A8000C01BD10BBE01DD0F880B990B0E940E51AC
:102A90009B01AC01C301B2010E9411529B01AC0128
:102AA000C501B4010E94ED4F8B01D82FC92F2CE531
:102AB0003FE842E85FE3C701B6010E9411526B0193
:102AC0007C019B01AC01B8018D2F9C2F0E940C5200
:102AD00018160CF013CF5C2D4D2D3E2D2F2D11CF40
:102AE00052814381348125810CCF2F923F924F92A6
:102AF0005F926F927F928F929F92AF92BF92CF928E
:102B0000DF92EF92FF920F931F93CF93DF93CDB796
:102B1000DEB728970FB6F894DEBF0FBECDBF8C018D
:102B20006A017B01FC0182809380A480B5809A01B8
:102B3000AB01C501B4010E940C52F80118160CF04B
:102B400079C060807180B301072C000C880B990B51
:102B50000E940E5169837A838B839C83F80166817E
:102B6000778166197709072E000C880B990B0E9454
:102B70000E512B013C01A5019401F801608571857E
:102B8000828593850E94EC4F9B01AC01C301B20189
:102B90000E945E502B013C01A5019401C701B601C2
:102BA0000E94EC4F9B01AC01C301B2010E94115283
:102BB00029813A814B815C810E94ED4F8B015C0140
:102BC0002CE53FE842E85FE369817A818B819C8153
:102BD0000E9411526B017C019B01AC01B801C5013F
:102BE0000E94595087FD23C1502F412F3A2D2B2D84
:102BF000652F742F832F922F0E947E520E94D050F7
:102C0000CB0128960FB6F894DEBF0FBECDBFDF9183
:102C1000CF911F910F91FF90EF90DF90CF90BF90D9
:102C2000AF909F908F907F906F905F904F903F906C
:102C30002F900895828C938CA48CB58CA70196015B
:102C4000C501B4010E94595087FD94C0F4E0F98396
:102C50001D8211C0A7019601C301B2010E94595003
:102C600087FFEAC045015101FE81FD83C501881936
:102C70009909029754F12D81822E912C3981232EAE
:102C8000312C5401A20CB31CB594A794AE82C5019B
:102C9000880F991F8A0D9B1D880F991FFC01E00F5B
:102CA000F11FF887EF834280538064807580A7010D
:102CB0009601C301B2010E940C5218165CF6A9825B
:102CC000C501881999090297B4F6F401EE0FFF1FA8
:102CD000E80DF91DEE0FFF1FE00FF11F208031807E
:102CE0004280538064807580C501880F991F8A0DCA
:102CF0009B1D880F991F080F191FF80160817181B2
:102D000062197309072E000C880B990B0E940E5153
:102D10004B015C01A3019201F801628173818481FE
:102D200095810E94EC4F9B01AC01C501B4010E944A
:102D30005E504B015C01A3019201C701B6010E94E4
:102D4000EC4F9B01AC01C501B4010E9411526B0113
:102D50007C01B101330C880B990B0E940E519B0131
:102D6000AC01C701B6010E94ED4F562F472F382FF7
:102D7000292F3ECFF801208C318C22893389388766
:102D80002F834488558866887788B101621B730B4E
:102D9000072E000C880B990B0E940E5169837A83D1
:102DA0008B839C83A3019201C501B4010E94EC4F67
:102DB0009B01AC0169817A818B819C810E945E506C
:102DC0004B015C01A3019201C701B6010E94EC4FC7
:102DD0009B01AC01C501B4010E9411526B017C0141
:102DE000EF81F885BF01FF0F880B990B0E940E51F0
:102DF0009B01AC01C701B6010E94ED4F8B015C0144
:102E0000B101330C880B990B0E940E512CE53FE861
:102E100042E85FE30E9411526B017C019B01AC010F
:102E2000B801C5010E940C5218160CF0DDCE5C2DC5
:102E30004D2D3E2D2F2DDCCEEF81F88560817181E7
:102E4000072E000C880B990B0E940E51562F472F0E
:102E5000382F292FCDCE2F923F924F925F926F92B3
:102E60007F928F929F92AF92BF92CF92DF92EF921A
:102E7000FF921F93CF93DF93CDB7DEB72C970FB69A
:102E8000F894DEBF0FBECDBF1C016A017B01DC01DF
:102E90008D909D90AD90BC901397481559056A058B
:102EA0007B050CF07DC014962D913D914D915C9168
:102EB000179729833A834B835C831C966D917D9190
:102EC0008D919C911F970E94EC4F2B013C01F101C9
:102ED00080859185A285B385BC01CD0168197909EA
:102EE0008A099B090E940E519B01AC01C301B201EA
:102EF0000E945E502B013C01C701B6016819790997
:102F00008A099B090E940E519B01AC01C301B201C9
:102F10000E9411529B01AC0169817A818B819C8155
:102F20000E94ED4FF62E172F982EA92E2CE53FE884
:102F300042E85FE369817A818B819C810E94115212
:102F4000B62EC72ED82EE92E262F372F482F592FD1
:102F50006F2D712F892D9A2D0E94595087FD37C1F1
:102F60005F2D412F392D2A2D652F742F832F922FFE
:102F70002C960FB6F894DEBF0FBECDBFDF91CF9178
:102F80001F91FF90EF90DF90CF90BF90AF909F90F8
:102F90008F907F906F905F904F903F902F9008950B
:102FA000DC0190964D905D906D907C9093974416C7
:102FB0005506660677060CF495C014E0B12C0FC0D8
:102FC0004C155D056E057F050CF006C19C01CD0119
:102FD000BA2CAC01421B530B423051051CF12B2D76
:102FE00030E0A12FB0E0C9018A0F9B1F959587950E
:102FF000A82EFC01EE0FFF1FEE0FFF1FEE0FFF1FAD
:10300000E20DF31D4081518162817381C416D506A2
:10301000E606F706ACF6182FAC01421B530B423004
:103020005105ECF6220F331F220F331F220F331FDF
:10303000F101E20FF31F84809580A680B780208184
:1030400031814281538129833A834B835C83880F8A
:10305000991F880F991F880F991F280E391EA501E7
:103060009401D10114966D917D918D919C9117974A
:103070000E94EC4F2B013C01F10180819181A281E2
:10308000B381BC01CD0129813A814B815C81621BF6
:10309000730B840B950B0E940E519B01AC01C30175
:1030A000B2010E945E502B013C01C701B60129818B
:1030B0003A814B815C81621B730B840B950B0E94E0
:1030C0000E519B01AC01C301B2010E9411529B0140
:1030D000AC01C501B4010E94ED4F562F472F382F88
:1030E000292F42CF94968D909D90AD90BC9097974C
:1030F0005C962D913D914D915C915F9729833A8328
:103100004B835C8358962D913D914D915C915B97DB
:103110002D833E834F83588729813A814B815C817F
:10312000C501B4010E94EC4F69877A878B879C8721
:10313000C301B2012D813E814F815885621B730B03
:10314000840B950B0E940E519B01AC0169857A8519
:103150008B859C850E945E502B013C01C701B60106
:103160002D813E814F815885621B730B840B950B1B
:103170000E940E519B01AC01C301B2010E94115289
:103180009B01AC0169817A818B819C810E94ED4F0A
:10319000F62E172F3C012CE53FE842E85FE3C5011E
:1031A000B4010E941152B62EC72ED82EE92E262F1A
:1031B000372F482F592F6F2D712FC3010E940C52AA
:1031C00018162CF05F2D412F362D272DCDCE5B2DDF
:1031D0004C2D3D2D2E2DC8CE548145813681278121
:1031E000C3CE2F923F924F925F926F927F928F92B7
:1031F0009F92AF92BF92CF92DF92EF92FF921F9376
:10320000CF93DF93CDB7DEB72C970FB6F894DEBF20
:103210000FBECDBF1C016A017B01DC018D909D902A
:10322000AD90BC901397481559056A057B050CF0C5
:103230007DC014962D913D914D915C9117972983F6
:103240003A834B835C831C966D917D918D919C910B
:103250001F970E94EC4F2B013C01F1018085918565
:10326000A285B385BC01CD01681979098A099B093A
:103270000E940E519B01AC01C301B2010E945E503D
:103280002B013C01C701B601681979098A099B091C
:103290000E940E519B01AC01C301B2010E94115268
:1032A0009B01AC0169817A818B819C810E94ED4FE9
:1032B000F62E172F982EA92E2CE53FE842E85FE363
:1032C00069817A818B819C810E941152B62EC72E12
:1032D000D82EE92E262F372F482F592F6F2D712FDB
:1032E000892D9A2D0E94595087FD37C15F2D412F9E
:1032F000392D2A2D652F742F832F922F2C960FB6E0
:10330000F894DEBF0FBECDBFDF91CF911F91FF902C
:10331000EF90DF90CF90BF90AF909F908F907F9075
:103320006F905F904F903F902F900895DC019096A2
:103330004D905D906D907C9093974416550666066F
:1033400077060CF495C014E0B12C0FC04C155D0548
:103350006E057F050CF006C19C01CD01BA2CAC01B5
:10336000421B530B423051051CF12B2D30E0A12F95
:10337000B0E0C9018A0F9B1F95958795A82EFC0187
:10338000EE0FFF1FEE0FFF1FEE0FFF1FE20DF31DED
:103390004081518162817381C416D506E606F70625
:1033A000ACF6182FAC01421B530B42305105ECF622
:1033B000220F331F220F331F220F331FF101E20FA1
:1033C000F31F84809580A680B7802081318142815F
:1033D000538129833A834B835C83880F991F880F1D
:1033E000991F880F991F280E391EA5019401D1013C
:1033F00014966D917D918D919C9117970E94EC4F41
:103400002B013C01F10180819181A281B381BC013A
:10341000CD0129813A814B815C81621B730B840B46
:10342000950B0E940E519B01AC01C301B2010E9499
:103430005E502B013C01C701B60129813A814B81C5
:103440005C81621B730B840B950B0E940E519B01D8
:10345000AC01C301B2010E9411529B01AC01C50134
:10346000B4010E94ED4F562F472F382F292F42CFFE
:1034700094968D909D90AD90BC9097975C962D9171
:103480003D914D915C915F9729833A834B835C8397
:1034900058962D913D914D915C915B972D833E8384
:1034A0004F83588729813A814B815C81C501B401E2
:1034B0000E94EC4F69877A878B879C87C301B20192
:1034C0002D813E814F815885621B730B840B950BB8
:1034D0000E940E519B01AC0169857A858B859C8584
:1034E0000E945E502B013C01C701B6012D813E8137
:1034F0004F815885621B730B840B950B0E940E51F4
:103500009B01AC01C301B2010E9411529B01AC01AD
:1035100069817A818B819C810E94ED4FF62E172F55
:103520003C012CE53FE842E85FE3C501B4010E949D
:103530001152B62EC72ED82EE92E262F372F482F00
:10354000592F6F2D712FC3010E940C5218162CF0A9
:103550005F2D412F362D272DCDCE5B2D4C2D3D2DB2
:103560002E2DC8CE5481458136812781C3CE089542
:10357000549A559808955C9808955C9A0895089512
:10358000089589B185FB882780F991E089270895FE
:103590008530910540F4FC01EE0FFF1FE855FE4F0A
:1035A000859194910895E8EAF1E0859194910895C8
:1035B0004F925F926F927F928F929F92AF92BF9243
:1035C000EF92FF920F931F93CF93DF93EC018B0148
:1035D000FC01619371937F01CB010E9408315C0172
:1035E0000E942D31A701B5010E945A46889709F41F
:1035F00066C0F801EE0FFF1FEE0FFF1FE157FE4FF1
:1036000085909590A590B490C501B401905823E39E
:10361000422E542C23EF622E77247A944A825B82C6
:103620006C827D826E837F838887998731EE432EFB
:103630003AE7532E34EF632E77247A944A865B86DA
:103640006C867D8626E636E646E65FE30E941152EA
:103650006E877F87888B998B1A8A1B8A1C8A1D8AA2
:103660001E8A1F8A188E198E8FE195E8ABE0B0E0B4
:103670008A8F9B8FAC8FBD8F26E636E646E65FE3EA
:10368000C501B4010E9411526E8F7F8F88A399A348
:103690008DEC9CECACE0B0E08AA39BA3ACA3BDA3F3
:1036A0008EA29FA2A8A6B9A6888199810E940831FE
:1036B0005C010E942D31A701B5010E94C446AA9663
:1036C000CE010E948B42F801ED55FE4F0491682F08
:1036D000607F602BCE01DF91CF911F910F91FF9002
:1036E000EF90BF90AF909F908F907F906F905F9082
:1036F0004F900C946D4280910D03811186C0109201
:10370000D5021092D6021092D7021092D8021092CF
:10371000D9021092DA021092DB021092DC021092AF
:10372000DD021092DE021092DF021092E00210928F
:10373000E1021092E2021092E3021092E40210926F
:10374000E5021092E6021092E7021092E80210924F
:10375000E9021092EA021092EB021092EC0210922F
:10376000ED021092EE021092EF021092F00210920F
:10377000F1021092F2021092F3021092F4021092EF
:10378000F5021092F6021092F7021092F8021092CF
:10379000F9021092FA021092FB021092FC0260E011
:1037A0008DEF92E00E946A428EEF92E00E94E54324
:1037B0008BE092E09093FF028093FE028EEF92E006
:1037C0000E94004460E170E081E093E00E942A4B97
:1037D0008DEF92E00E940143682F607F8DEF92E0B1
:1037E0000E942D438DEF92E00E94B742682F607FC8
:1037F0008DEF92E00E94E34262E070E083ED92E0A0
:103800000E94D81A81E080930D0383ED92E0089521
:10381000AF92BF92CF92DF92EF92FF920F931F93DE
:10382000CF93DF93CDB7DEB727970FB6F894DEBFFF
:103830000FBECDBF5C01613081E0780710F060E021
:1038400071E0CE0101960E94AC4B2B813C818D81B1
:103850009E812817390709F452C08501055D1F4F65
:1038600016C00E94AA446B017C0144275527BA0167
:103870004C195D096E097F09CE0101960E94C64B65
:103880002B813C818D819E8128173907C1F10E94CF
:10389000AF3AFC01C080D1800D2C000CEE08FF086F
:1038A0007601DD24CC240E94AF3AFC018281938111
:1038B000092E000CAA0BBB0BBA2FA92F982F882713
:1038C000C82AD92AEA2AFB2A0E94AF3AFC0184813D
:1038D0009581092E000CAA0BBB0BC82AD92AEA2A0B
:1038E000FB2A60E0C801C114D104F3E0EF06F10443
:1038F00008F0B7CF0E94AA44AB01BC01BDCFCE01F6
:1039000001960E94E84B0E947E520E94D050AB016B
:10391000BC01C50102960E942B176B017C01CE01F0
:1039200001960E94C14BC701B60127960FB6F894C5
:10393000DEBF0FBECDBFDF91CF911F910F91FF90E2
:10394000EF90DF90CF90BF90AF900895CF92DF922D
:10395000EF92FF920F931F93CF93DF93EC01E881D7
:10396000F981EE0FFF1FEE0FFF1FE157FE4FC590CD
:10397000D590E590F490C701B601905803E313E3A6
:1039800023EF3FEF0A831B832C833D836E837F836A
:103990008887998701EE1AE724EF3FEF0A871B8794
:1039A0002C873D8726E636E646E65FE30E94115205
:1039B0006E877F87888B998B1A8A1B8A1C8A1D8A3F
:1039C0001E8A1F8A188E198E8FE195E8ABE0B0E051
:1039D0008A8F9B8FAC8FBD8F26E636E646E65FE387
:1039E000C701B6010E9411526E8F7F8F88A399A3E1
:1039F0008DEC9CECACE0B0E08AA39BA3ACA3BDA390
:103A0000CEA2DFA2E8A6F9A6DF91CF911F910F9178
:103A1000FF90EF90DF90CF9008954F925F926F925A
:103A20007F928F929F92AF92BF92CF92DF92EF924E
:103A3000FF920F931F93CF93DF93CDB7DEB72C97F1
:103A40000FB6F894DEBF0FBECDBF4C015B0129015C
:103A50003A0160E870E0CE0101960E942A4B8B8506
:103A60009C85892B09F457C08401055D1F4F14C044
:103A70000E94AA446B017C0144275527BA014C19C6
:103A80005D096E097F09CE0101960E94464B8B8528
:103A90009C85892B09F43FC00E94AF3AFC01C0808D
:103AA000D1800D2C000CEE08FF087601DD24CC241B
:103AB0000E94AF3AFC0182819381092E000CAA0B6F
:103AC000BB0BBA2FA92F982F8827C82AD92AEA2AF0
:103AD000FB2A0E94AF3AFC0184819581092E000CDB
:103AE000AA0BBB0BC82AD92AEA2AFB2A60E0C80124
:103AF000C114D104F3E0EF06F10408F0B9CF0E943D
:103B0000AA44AB01BC01CE0101960E94464B8B85B5
:103B10009C85892B09F6CE0101960E94814B0E945B
:103B20007E52BB24AA0CBB1CAA0CBB1CAA0CBB1C3F
:103B30008A0C9B1C0E94D050F4016283738384839F
:103B4000958346825782608671862C960FB6F894CC
:103B5000DEBF0FBECDBFDF91CF911F910F91FF90C0
:103B6000EF90DF90CF90BF90AF909F908F907F901D
:103B70006F905F904F9008950F931F93CF93DF93B3
:103B8000EC01899199910E9408318C010E942D319C
:103B9000AE01B801DF91CF911F910F910C94C446F3
:103BA000CF92DF92EF92FF920F931F93CF93DF9309
:103BB000EC010E94AF3AFC01C080D1800D2C000CBA
:103BC000EE08FF087601DD24CC240E94AF3AFC0108
:103BD00082819381092E000CAA0BBB0BBA2FA92F4F
:103BE000982F8827C82AD92AEA2AFB2A0E94AF3AA6
:103BF000FC0184819581092E000CAA0BBB0BC82AFD
:103C0000D92AEA2AFB2A60E0CE018B96C114D1049E
:103C1000F3E0EF06F104B8F00E94AA448B019C0186
:103C200044275527BA01401B510B620B730BCE0181
:103C30008E96DF91CF911F910F91FF90EF90DF90C3
:103C4000CF900C94464B0E94AA44AB01BC01EFCF2D
:103C5000CF92DF92EF92FF920F931F93CF93DF9358
:103C60008C01EC01AE96CE010E94814B0E947E52E7
:103C70000E94D050AB01BC01C80102960E942B17D4
:103C80006B017C01CE010E94384BC701B601DF9168
:103C9000CF911F910F91FF90EF90DF90CF900895FB
:103CA0005F9808955F9A0895579A08958530910511
:103CB00040F4FC01EE0FFF1FE553FE4F85919491F8
:103CC0000895EBECF1E08591949108958F929F9285
:103CD000AF92BF92CF92DF92EF92FF920F931F931A
:103CE000CF93DF93EC0181E08AA77E0184E2E80EA6
:103CF000F11CC7010E948B42682F6F7EC7010E9492
:103D00006D420C811D816E0186E0C80ED11CC80178
:103D10000E94E8305C010E942D31A601B5010E948D
:103D20005A464E9709F44DC0F801EE0FFF1FEE0FF3
:103D3000FF1FEE54FE4F85909590A590B490C5015D
:103D4000B40190582BEB33EF3F832E83688779873C
:103D50008A879B8725EF34EF3D872C8726E636E65A
:103D600046E65FE30E9411526E877F87888B998BAE
:103D70001B8A1A8A1C8A1D8A1E8A1F8A8BE09BE076
:103D8000998F888F26E636E646E65FE3C501B401E3
:103D90000E9411526A8F7B8F8C8F9D8F85E49CE0EF
:103DA0009F8F8E8F88A299A2AAA2BBA28C819D818F
:103DB0000E94E8305C010E942D31A601B5010E94ED
:103DC000C446C7010E948B42F801EA53FE4F04919A
:103DD000682F607F602BC7010E946D428AA5811108
:103DE0000DC0DF91CF911F910F91FF90EF90DF9069
:103DF000CF90BF90AF909F908F9008954881598148
:103E00006A817B81C6010E9462128C01BC01C601DD
:103E10000E940511688379838A839B83B801705857
:103E2000CE018596DF91CF911F910F91FF90EF907A
:103E3000DF90CF90BF90AF909F908F900C94934362
:103E4000FC0112A608958F929F92AF92BF92CF92DB
:103E5000DF92EF92FF920F931F93CF93DF93EC01CA
:103E60008B017D836C837C0186E0E80EF11CCB0125
:103E70000E94E8306C010E942D31A701B6010E941A
:103E80005A464E9709F44DC0F801EE0FFF1FEE0F92
:103E9000FF1FEE54FE4F85909590A590B490C501FC
:103EA000B40190582BEB33EF3F832E8368877987DB
:103EB0008A879B8725EF34EF3D872C8726E636E6F9
:103EC00046E65FE30E9411526E877F87888B998B4D
:103ED0001B8A1A8A1C8A1D8A1E8A1F8A8BE09BE015
:103EE000998F888F26E636E646E65FE3C501B40182
:103EF0000E9411526A8F7B8F8C8F9D8F85E49CE08E
:103F00009F8F8E8F88A299A2AAA2BBA28C819D812D
:103F10000E94E8306C010E942D31A701B6010E9479
:103F2000C4466E0184E2C80ED11CC6010E948B42B9
:103F3000F801EA53FE4F0491682F607F602BC601A1
:103F40000E946D428AA581110DC0DF91CF911F9112
:103F50000F91FF90EF90DF90CF90BF90AF909F9028
:103F60008F900895488159816A817B81C7010E94A1
:103F700062128C01BC01C7010E940511688379831C
:103F80008A839B83B8017058CE018596DF91CF91CB
:103F90001F910F91FF90EF90DF90CF90BF90AF9067
:103FA0009F908F900C949343CF92DF92EF92FF9269
:103FB0000F931F93CF93DF93EC01188219821A821B
:103FC0001B8282E090E09D838C836E0186E0C80EA8
:103FD000D11C1F821E82188619861A861B861D8692
:103FE0001C861E861F86188A198A1B8A1A8A1C8AB2
:103FF0001D8A1E8A1F8A198E188E1A8E1B8E1C8E81
:104000001D8E1F8E1E8E18A219A21AA21BA28E012F
:104010000C5D1F4F60E0C8010E946A427E0185E28C
:10402000E80EF11CC7010E944E438DE192E09EA371
:104030008DA3C7010E946B431AA6C8010E940143C9
:10404000682F607CC8010E942D43C8010E94B742BE
:10405000682F607CC8010E94E34262E070E0CE01FC
:104060000E94231F40E050E0BA01C6010E94621284
:104070008C01BC01C6010E940511688379838A8383
:104080009B83B8017058C701DF91CF911F910F91A9
:10409000FF90EF90DF90CF900C949343809140037A
:1040A000811107C085E193E00E94D41F81E08093D5
:1040B000400385E193E00895EF92FF920F931F93E1
:1040C000CF93DF938C017C0186E0E80EF11CC701E1
:1040D0000E946212EC01BC01C7010E940511F801A7
:1040E0006083718382839383BE017058C801859673
:1040F000DF91CF911F910F91FF90EF900C9493431C
:10410000CF92DF92EF92FF92CF93DF93EC01EC819D
:10411000FD81EE0FFF1FEE0FFF1FEE54FE4FC59007
:10412000D590E590F490C701B60190582BEB33EF92
:104130003F832E83688779878A879B8725EF34EFB3
:104140003D872C8726E636E646E65FE30E9411525D
:104150006E877F87888B998B1B8A1A8A1C8A1D8A97
:104160001E8A1F8A8BE09BE0998F888F26E636E6B1
:1041700046E65FE3C701B6010E9411526A8F7B8F4A
:104180008C8F9D8F85E49CE09F8F8E8FC8A2D9A2D3
:10419000EAA2FBA2DF91CF91FF90EF90DF90CF904A
:1041A00008957727FB01EE0FFF1FE60FF71FEE0FB5
:1041B000FF1FE80FF91F66817781705885960C9470
:1041C00093437727FB01EE0FFF1F6E0F7F1F660FD4
:1041D000771F860F971FFC012087318742875387FF
:1041E00008950F931F93CF93DF93EC018C819D81F2
:1041F0000E94E8308C010E942D31AE014A5F5F4F72
:10420000B801DF91CF911F910F910C94C44608958E
:1042100021E030E0FC0130AF27ABBC01695C7F4F8F
:104220000C947C3B4430510508F4089528E030E0BC
:10423000FC0130AF27ABBC01695C7F4F0C947C3B29
:104240004430510508F408952EE030E0FC0130AF11
:1042500027ABBC01695C7F4F0C947C3B443051051B
:1042600008F4089523E130E0FC0130AF27ABBC0136
:10427000695C7F4F0C947C3B4430510508F40895F1
:1042800028E130E0FC0130AF27ABBC01695C7F4F17
:104290000C947C3B4430510508F408952AE130E049
:1042A000FC0130AF27ABBC01695C7F4F0C947C3BB9
:1042B0004430510508F408952BE130E0FC0130AFA3
:1042C00027ABBC01695C7F4F0C947C3B44305105AB
:1042D00008F408952CE130E0FC0130AF27ABBC01BD
:1042E000695C7F4F0C947C3B4430510508F4089581
:1042F0002DE130E0FC0130AF27ABBC01695C7F4FA2
:104300000C947C3B4430510508F4089521E230E0E0
:10431000FC0130AF27ABBC01695C7F4F0C947C3B48
:104320004430510508F4089522E230E0FC0130AF3A
:1043300027ABBC01695C7F4F0C947C3B443051053A
:1043400008F4089526E230E0FC0130AF27ABBC0151
:10435000695C7F4F0C947C3B4430510508F4089510
:1043600028E230E0FC0130AF27ABBC01695C7F4F35
:104370000C947C3B4430510508F408952AE230E067
:10438000FC0130AF27ABBC01695C7F4F0C947C3BD8
:104390004430510508F408952CE230E0FC0130AFC0
:1043A00027ABBC01695C7F4F0C947C3B0F931F9340
:1043B000FB01A081B1812B2F3A2F2E32310540F520
:1043C000EB2FFA2FEE0FFF1FEE0FFF1FEB52FE4FEA
:1043D0000591159125913491F80120FF12C0F90142
:1043E000F595E795DC01AE0FBF1FED91FC9111979C
:1043F000E00FF11F0190F081E02DCD011F910F9191
:10440000099435952795820F931F1F910F91099459
:104410001F910F9108954830510508F40895DB016C
:104420001596EC9115971496FC91E230F10580F009
:10443000E7EBF2E02591349143E050E0FC0150AF0E
:1044400047AB32AF21AFBC01695C7F4F0C947C3B22
:10445000EE0FFF1FE954FD4FEDCF4830510508F432
:104460000895DB011596EC9115971496FC91E530B3
:10447000F10590F4EE0FFF1FE355FD4F25913491A8
:1044800044E050E0FC0150AF47AB32AF21AFBC017C
:10449000695C7F4F0C947C3BEDEAF2E0EFCF483053
:1044A000510578F0FB012481358145E050E0FC01A5
:1044B00050AF47AB31AF22AFBC01695C7F4F0C946A
:1044C0007C3B08954830510578F0FB01248135810B
:1044D00046E050E0FC0150AF47AB31AF22AFBC012A
:1044E000695C7F4F0C947C3B08954830510508F47B
:1044F0000895DB011596EC9115971496FC91E23026
:10450000F10580F0E9EAF2E0259134914AE050E0CB
:10451000FC0150AF47AB32AF21AFBC01695C7F4FAC
:104520000C947C3BEE0FFF1FE755FD4FEDCF48305D
:10453000510578F0FB01248135814BE050E0FC010E
:1045400050AF47AB31AF22AFBC01695C7F4F0C94D9
:104550007C3B08954830510578F0FB01248135817A
:104560004CE050E0FC0150AF47AB31AF22AFBC0193
:10457000695C7F4F0C947C3B08954830510508F4EA
:104580000895DB011596EC9115971496FC91E53092
:10459000F10590F4EE0FFF1FE156FD4F2591349188
:1045A00040E150E0FC0150AF47AB32AF21AFBC015E
:1045B000695C7F4F0C947C3BEFE9F2E0EFCF483031
:1045C000510578F0FB012481358141E150E0FC0187
:1045D00050AF47AB31AF22AFBC01695C7F4F0C9449
:1045E0007C3B08954830510578F0FB0124813581EA
:1045F00044E150E0FC0150AF47AB31AF22AFBC010A
:10460000695C7F4F0C947C3B08954830510508F459
:104610000895DB011596EC9115971496FC91E63000
:10462000F10590F4EE0FFF1FED56FD4F25913491EB
:1046300045E150E0FC0150AF47AB32AF21AFBC01C8
:10464000695C7F4F0C947C3BE3E9F2E0EFCF4830AC
:10465000510578F0FB012481358146E150E0FC01F1
:1046600050AF47AB31AF22AFBC01695C7F4F0C94B8
:104670007C3B08954830510578F0FB012481358159
:1046800049E150E0FC0150AF47AB31AF22AFBC0174
:10469000695C7F4F0C947C3B08954830510578F05D
:1046A000FB01248135814EE150E0FC0150AF47AB66
:1046B00031AF22AFBC01695C7F4F0C947C3B089505
:1046C0004830510508F40895E1E9F2E0259134916C
:1046D00043E250E0FC0150AF47AB32AF21AFBC0129
:1046E000695C7F4F0C947C3B4830510578F0FB01AE
:1046F0002481358144E250E0FC0150AF47AB31AF3B
:1047000022AFBC01695C7F4F0C947C3B089548301C
:10471000510578F0FB012481358147E250E0FC012E
:1047200050AF47AB31AF22AFBC01695C7F4F0C94F7
:104730007C3B08954830510508F40895DB01159637
:10474000EC9115971496FC91E230F10580F0EDE8BC
:10475000F2E02591349149E250E0FC0150AF47ABC3
:1047600032AF21AFBC01695C7F4F0C947C3BEE0FF4
:10477000FF1FE357FD4FEDCF4830510578F0FB01A7
:10478000248135814DE250E0FC0150AF47AB31AFA1
:1047900022AFBC01695C7F4F0C947C3B0895FB0108
:1047A0004830510590F0248135814681578162E07F
:1047B00070E0FC0170AF67AB51AF42AF33AF24AFD5
:1047C000BC01695C7F4F0C947C3B0895FB01483031
:1047D0005105A0F047815681658174812BE230E05C
:1047E000FC0130AF27AB6627772741AF52AF63AFED
:1047F00074AFBC01695C7F4F0C947C3B0895FB0156
:104800004C305105D0F044815581B385A285318566
:10481000208567E070E0FC0170AF67AB51AF42AF3D
:104820004B2F5A2F632F722F43AF54AF65AF76AF24
:10483000BC01695C7F4F0C947C3B0895FB014830C0
:104840005105B0F0B781A6813581248149E050E05F
:10485000FC0150AF47AB4B2F5A2F632F722F41AF44
:1048600052AF63AF74AFBC01695C7F4F0C947C3B6B
:104870000895FB014C305105D0F044815581B3853A
:10488000A285318520856DE070E0FC0170AF67ABDB
:1048900051AF42AF4B2F5A2F632F722F43AF54AFFC
:1048A00065AF76AFBC01695C7F4F0C947C3B08958B
:1048B000FB0148305105B0F0B781A68135812481D4
:1048C0004FE050E0FC0150AF47AB4B2F5A2F632F06
:1048D000722F41AF52AF63AF74AFBC01695C7F4FC1
:1048E0000C947C3B0895FB014C305105D0F0448181
:1048F0005581B385A2853185208562E170E0FC0198
:1049000070AF67AB51AF42AF4B2F5A2F632F722F4F
:1049100043AF54AF65AF76AFBC01695C7F4F0C9479
:104920007C3B0895FB014C305105D0F0448155810A
:10493000B385A2853185208567E170E0FC0170AF09
:1049400067AB51AF42AF4B2F5A2F632F722F43AF3C
:1049500054AF65AF76AFBC01695C7F4F0C947C3B74
:104960000895FB014C305105D0F044815581B38549
:10497000A2853185208565E270E0FC0170AF67ABF0
:1049800051AF42AF4B2F5A2F632F722F43AF54AF0B
:1049900065AF76AFBC01695C7F4F0C947C3B08959A
:1049A0004830510578F0FB01248135814FE150E01A
:1049B000FC0150AF47AB31AF22AFBC01695C7F4F08
:1049C0000C947C3B0895FB014830510590F04481E4
:1049D00055812681378160E270E0FC0170AF67ABE2
:1049E00051AF42AF33AF24AFBC01695C7F4F0C9431
:1049F0007C3B0895AF92BF92CF92DF92EF92FF92ED
:104A00000F931F93CF93DF937C010E9425480E9450
:104A1000E5485C010E941B48EC01892B59F4DF91A9
:104A2000CF911F910F91FF90EF90DF90CF90BF90AB
:104A3000AF900895670186E0C80ED11C850157012B
:104A4000EEE0AE0EB11C05C0C6010E94B041219738
:104A500031F3F80161918F01C6010E94C441F70151
:104A600090A99923A1F3408551854430510560F305
:104A7000B501C7010E94D621E7CF8530910540F4EA
:104A8000FC01EE0FFF1FE355FD4F859194910895B2
:104A9000EDEAF2E08591949108958230910528F035
:104AA000E9EAF2E0859194910895FC01EE0FFF1F71
:104AB000E755FD4F8591949108958530910540F417
:104AC000FC01EE0FFF1FE156FD4F85919491089573
:104AD000EFE9F2E08591949108958630910540F4D4
:104AE000FC01EE0FFF1FED56FD4F85919491089547
:104AF000E3E9F2E0859194910895E1E9F2E085918E
:104B0000949108958230910528F0EDE8F2E08591C6
:104B100094910895FC01EE0FFF1FE357FD4F85911F
:104B20009491089580918703811119C088E493E0DE
:104B30000E945C3B87E292E0909349038093480394
:104B40008EE493E00E949C410E94254840E855E293
:104B500060E070E00E948B4881E08093870388E4E6
:104B600093E00895CF93DF9300D000D0CDB7DEB7A8
:104B700049835A836B837C830E94254849815A81EB
:104B80006B817C810F900F900F900F90DF91CF91F0
:104B90000C946A48CF93DF9300D000D0CDB7DEB736
:104BA00049835A836B837C830E94254849815A81BB
:104BB0006B817C810F900F900F900F90DF91CF91C0
:104BC0000C948B480E94254840E855E260E070E074
:104BD0000C948B488F929F92AF92BF92CF92DF92AC
:104BE000EF92FF920F931F93CF93DF9300D000D0EB
:104BF000CDB7DEB75B0106966C016CE270E02983ED
:104C00003A834B835C830E948B414C01FC011086EC
:104C100081E08187138612865C8154A74B8145A76A
:104C20003A8136A7298127A710AB01ABF2AAE3AAE4
:104C3000C4010C9620E2FC0111922A95E9F7B50116
:104C40000E942855C4010E946C41F4010581148121
:104C50000E942548A801485F5F4FB4010E94204987
:104C6000B401C6010F900F900F900F90DF91CF917C
:104C70001F910F91FF90EF90DF90CF90BF90AF907A
:104C80009F908F900C949B41EF92FF920F931F93F4
:104C9000CF93DF9306967C0164E070E00E948B4125
:104CA000EC01188619861B861A860E946C410D81BC
:104CB0001C810E942548A801485F5F4FBE010E94E9
:104CC0002049BE01C701DF91CF911F910F91FF9045
:104CD000EF900C949B41CF92DF92EF92FF920F9353
:104CE0001F93CF93DF9300D0CDB7DEB7162F072FDA
:104CF00006967C0168E070E049835A830E948B41EC
:104D00006C01FC01108682E081871386128604877D
:104D100015875A81568749814787C6010E946C4191
:104D2000F601058114810E942548A801485F5F4F64
:104D3000B6010E942049B601C7010F900F90DF9184
:104D4000CF911F910F91FF90EF90DF90CF900C9437
:104D50009B41EF92FF920F931F93CF93DF93162FF8
:104D6000072F06967C0168E070E00E948B41EC0101
:104D7000188683E089871B861A860C871D871F8605
:104D80001E86CE010E946C410D811C810E94254827
:104D9000A801485F5F4FBE010E942049BE01C701C4
:104DA000DF91CF911F910F91FF90EF900C949B4159
:104DB000EF92FF920F931F93CF93DF93162F072F3E
:104DC00006967C0168E070E00E948B41EC01188639
:104DD00084E089871B861A860C871D871F861E869E
:104DE000CE010E946C410D811C810E942548A801C2
:104DF000485F5F4FBE010E942049BE01C701DF919D
:104E0000CF911F910F91FF90EF900C949B41AF9227
:104E1000BF92CF92DF92EF92FF920F931F93CF93A7
:104E2000DF9300D000D0CDB7DEB7D62EC72E0696C2
:104E30007C016CE070E02B833C8349835A830E94A1
:104E40008B415C01FC01108685E081871386128608
:104E5000C486D5865A815687498147873C812B81F4
:104E6000C801432F522F692F702FF501408B518BB2
:104E7000628B738BC5010E946C41F5010581148121
:104E80000E942548A801485F5F4FB5010E94204954
:104E9000B501C7010F900F900F900F90DF91CF9148
:104EA0001F910F91FF90EF90DF90CF90BF90AF9048
:104EB0000C949B41AF92BF92CF92DF92EF92FF9200
:104EC0000F931F93CF93DF9300D000D0CDB7DEB701
:104ED000D62EC72E06967C016CE070E02B833C83B7
:104EE00049835A830E948B415C01FC01108686E055
:104EF000818713861286C486D5865A815687498152
:104F000047873C812B81C801432F522F692F702F77
:104F1000F501408B518B628B738BC5010E946C41F4
:104F2000F501058114810E942548A801485F5F4F63
:104F3000B5010E942049B501C7010F900F900F9055
:104F40000F90DF91CF911F910F91FF90EF90DF9025
:104F5000CF90BF90AF900C949B41AF92BF92CF92F5
:104F6000DF92EF92FF920F931F93CF93DF9300D0C6
:104F700000D0CDB7DEB7D62EC72E06967C016CE0EA
:104F800070E02B833C8349835A830E948B415C01F0
:104F9000FC01108687E0818713861286C486D58639
:104FA0005A815687498147873C812B81C801432F0D
:104FB000522F692F702FF501408B518B628B738BB1
:104FC000C5010E946C41F501058114810E942548AC
:104FD000A801485F5F4FB5010E942049B501C70194
:104FE0000F900F900F900F90DF91CF911F910F9125
:104FF000FF90EF90DF90CF90BF90AF900C949B41CB
:10500000EF92FF920F931F93CF93DF9306967C014D
:1050100064E070E00E948B41EC01188688E089878B
:105020001B861A86CE010E946C410D811C810E9454
:105030002548A801485F5F4FBE010E942049BE017C
:10504000C701DF91CF911F910F91FF90EF900C94CA
:105050009B41CF92DF92EF92FF920F931F93CF93DA
:10506000DF9300D0CDB7DEB7162F072F06967C0151
:1050700068E070E049835A830E948B416C01FC0117
:10508000108689E08187138612865A81952F49817F
:10509000842F402F512F692F782F4487558766879B
:1050A0007787C6010E946C41F601058114810E9438
:1050B0002548A801485F5F4FB6010E942049B6010C
:1050C000C7010F900F90DF91CF911F910F91FF902B
:1050D000EF90DF90CF900C949B41EF92FF920F9353
:1050E0001F93CF93DF93162F072F06967C0168E05E
:1050F00070E00E948B41EC0118868AE089871B864C
:105100001A860C871D871F861E86CE010E946C4161
:105110000D811C810E942548A801485F5F4FBE0198
:105120000E942049BE01C701DF91CF911F910F91CD
:10513000FF90EF900C949B41AF92BF92CF92DF9281
:10514000EF92FF920F931F93CF93DF9300D000D085
:10515000CDB7DEB7D62EC72E06967C016CE070E088
:105160002B833C8349835A830E948B415C01FC0161
:1051700010868BE0818713861286C486D5865A8175
:105180005687498147873C812B81C801432F522F85
:10519000692F702FF501408B518B628B738BC5018A
:1051A0000E946C41F501058114810E942548A801E7
:1051B000485F5F4FB5010E942049B501C7010F90BC
:1051C0000F900F900F90DF91CF911F910F91FF9053
:1051D000EF90DF90CF90BF90AF900C949B41AF9237
:1051E000BF92CF92DF92EF92FF920F931F93CF93D4
:1051F000DF9300D000D0CDB7DEB7D62EC72E0696EF
:105200007C016CE070E02B833C8349835A830E94CD
:105210008B415C01FC0110868CE08187138612862D
:10522000C486D5865A815687498147873C812B8120
:10523000C801432F522F692F702FF501408B518BDE
:10524000628B738BC5010E946C41F501058114814D
:105250000E942548A801485F5F4FB5010E94204980
:10526000B501C7010F900F900F900F90DF91CF9174
:105270001F910F91FF90EF90DF90CF90BF90AF9074
:105280000C949B41AF92BF92CF92DF92EF92FF922C
:105290000F931F93CF93DF9300D000D0CDB7DEB72D
:1052A000D62EC72E06967C016CE070E02B833C83E3
:1052B00049835A830E948B415C01FC0110868DE07A
:1052C000818713861286C486D5865A81568749817E
:1052D00047873C812B81C801432F522F692F702FA4
:1052E000F501408B518B628B738BC5010E946C4121
:1052F000F501058114810E942548A801485F5F4F90
:10530000B5010E942049B501C7010F900F900F9081
:105310000F90DF91CF911F910F91FF90EF90DF9051
:10532000CF90BF90AF900C949B41EF92FF920F9360
:105330001F93CF93DF9306967C0164E070E00E9498
:105340008B41EC0118868EE089871B861A86CE0178
:105350000E946C410D811C810E942548A801485F74
:105360005F4FBE010E942049BE01C701DF91CF916E
:105370001F910F91FF90EF900C949B41CF92DF9281
:10538000EF92FF920F931F93CF93DF9300D0CDB78F
:10539000DEB7162F072F06967C0168E070E0498380
:1053A0005A830E948B416C01FC0110868FE081873B
:1053B000138612865A81952F4981842F402F512FB1
:1053C000692F782F4487558766877787C6010E94A3
:1053D0006C41F601058114810E942548A801485FAF
:1053E0005F4FB6010E942049B601C7010F900F9090
:1053F000DF91CF911F910F91FF90EF90DF90CF90B1
:105400000C949B41EF92FF920F931F93CF93DF93E6
:10541000162F072F06967C0168E070E00E948B41F2
:10542000EC01188680E189871B861A860C871D8708
:105430001F861E86CE010E946C410D811C810E9438
:105440002548A801485F5F4FBE010E942049BE0168
:10545000C701DF91CF911F910F91FF90EF900C94B6
:105460009B418F929F92AF92BF92CF92DF92EF9229
:10547000FF920F931F93CF93DF9300D000D0CDB74F
:10548000DEB7B62EA72E06966C0160E170E0298388
:105490003A834B835C830E948B414C01FC01108654
:1054A00081E1818713861286A486B58617861686C3
:1054B0005C81508B4B81418B3A81328B2981238BCC
:1054C0009801C701432F502F692F7E2D448B558B98
:1054D000668B778BC4010E946C41F40105811481B5
:1054E0000E942548A801485F5F4FB4010E942049EF
:1054F000B401C6010F900F900F900F90DF91CF91E4
:105500001F910F91FF90EF90DF90CF90BF90AF90E1
:105510009F908F900C949B418F929F92AF92BF92DD
:10552000CF92DF92EF92FF920F931F93CF93DF936F
:1055300000D000D0CDB7DEB7B62EA72E06966C01F0
:1055400060E170E029833A834B835C830E948B4146
:105550004C01FC01108682E1818713861286A486A5
:10556000B586178616865C81508B4B81418B3A81BC
:10557000328B2981238B9801C701432F502F692F2C
:105580007E2D448B558B668B778BC4010E946C41BA
:10559000F401058114810E942548A801485F5F4FEE
:1055A000B4010E942049B401C6010F900F900F90E2
:1055B0000F90DF91CF911F910F91FF90EF90DF90AF
:1055C000CF90BF90AF909F908F900C949B41EF92A3
:1055D000FF920F931F93CF93DF9306967C0164E0B5
:1055E00070E00E948B41EC01188683E189871B865D
:1055F0001A86CE010E946C410D811C810E942548B3
:10560000A801485F5F4FBE010E942049BE01C7014B
:10561000DF91CF911F910F91FF90EF900C949B41E0
:10562000CF92DF92EF92FF920F931F93CF93DF936E
:1056300000D0CDB7DEB7162F072F06967C0168E0A5
:1056400070E049835A830E948B416C01FC011086F3
:1056500084E18187138612865A81952F4981842F90
:10566000402F512F692F782F44875587668777877A
:10567000C6010E946C41F601058114810E942548F3
:10568000A801485F5F4FB6010E942049B601C701DB
:105690000F900F90DF91CF911F910F91FF90EF909E
:1056A000DF90CF900C949B41EF92FF920F931F934A
:1056B000CF93DF93162F072F06967C0168E070E0EA
:1056C0000E948B41EC01188685E189871B861A862A
:1056D0000C871D871F861E86CE010E946C410D819E
:1056E0001C810E942548A801485F5F4FBE010E94AF
:1056F0002049BE01C701DF91CF911F910F91FF900B
:10570000EF900C949B418F929F92AF92BF92CF9259
:10571000DF92EF92FF920F931F93CF93DF9300D00E
:1057200000D0CDB7DEB7B62EA72E06966C0160E18D
:1057300070E029833A834B835C830E948B414C0148
:10574000FC01108686E1818713861286A486B586C1
:10575000178616865C81508B4B81418B3A81328B48
:105760002981238B9801C701432F502F692F7E2D4C
:10577000448B558B668B778BC4010E946C41F4017E
:10578000058114810E942548A801485F5F4FB4013C
:105790000E942049B401C6010F900F900F900F9006
:1057A000DF91CF911F910F91FF90EF90DF90CF90FD
:1057B000BF90AF909F908F900C949B418F929F923F
:1057C000AF92BF92CF92DF92EF92FF920F931F930F
:1057D000CF93DF9300D000D0CDB7DEB7B62EA72E83
:1057E00006966C0160E170E029833A834B835C8309
:1057F0000E948B414C01FC01108687E18187138652
:105800001286A486B586178616865C81508B4B81DE
:10581000418B3A81328B2981238B9801C701432F19
:10582000502F692F7E2D448B558B668B778BC4014F
:105830000E946C41F401058114810E942548A80151
:10584000485F5F4FB4010E942049B401C6010F9028
:105850000F900F900F90DF91CF911F910F91FF90BC
:10586000EF90DF90CF90BF90AF909F908F900C946F
:105870009B41EF92FF920F931F93CF93DF93069676
:105880007C0164E070E00E948B41EC01188688E1A5
:1058900089871B861A86CE010E946C410D811C816E
:1058A0000E942548A801485F5F4FBE010E94204921
:1058B000BE01C701DF91CF911F910F91FF90EF9033
:1058C0000C949B41CF92DF92EF92FF920F931F9324
:1058D000CF93DF9300D0CDB7DEB7162F072F0696F4
:1058E0007C0168E070E049835A830E948B416C011F
:1058F000FC01108689E18187138612865A81952FD3
:105900004981842F402F512F692F782F4487558745
:1059100066877787C6010E946C41F6010581148174
:105920000E942548A801485F5F4FB6010E942049A8
:10593000B601C7010F900F90DF91CF911F910F918A
:10594000FF90EF90DF90CF900C949B41EF92FF92ED
:105950000F931F93CF93DF9306967C0164E070E072
:105960000E948B41EC0118868AE189871B861A8682
:10597000CE010E946C410D811C810E942548A80126
:10598000485F5F4FBE010E942049BE01C701DF9101
:10599000CF911F910F91FF90EF900C949B41EF924C
:1059A000FF920F931F93CF93DF9306967C0164E0E1
:1059B00070E00E948B41EC0118868BE189871B8681
:1059C0001A86CE010E946C410D811C810E942548DF
:1059D000A801485F5F4FBE010E942049BE01C70178
:1059E000DF91CF911F910F91FF90EF900C949B410D
:1059F000EF92FF920F931F93CF93DF9306967C0154
:105A000064E070E00E948B41EC0118868CE189878C
:105A10001B861A86CE010E946C410D811C810E945A
:105A20002548A801485F5F4FBE010E942049BE0182
:105A3000C701DF91CF911F910F91FF90EF900C94D0
:105A40009B41EF92FF920F931F93CF93DF930696A4
:105A50007C0164E070E00E948B41EC0118868DE1CE
:105A600089871B861A86CE010E946C410D811C819C
:105A70000E942548A801485F5F4FBE010E9420494F
:105A8000BE01C701DF91CF911F910F91FF90EF9061
:105A90000C949B41CF92DF92EF92FF920F931F9352
:105AA000CF93DF9300D0CDB7DEB7162F072F069622
:105AB0007C0168E070E049835A830E948B416C014D
:105AC000FC0110868EE18187138612865A81952FFC
:105AD0004981842F402F512F692F782F4487558774
