:100000000C94AE020C94D6020C94D6020C94D60238
:100010000C94D6020C94D6020C94D6020C94D60200
:100020000C94D6020C94D6020C94D6020C94D602F0
:100030000C94D6020C94D6020C94D6020C94D602E0
:100040000C9499460C94D6020C94D6020C94D602C9
:100050000C946E470C94D6020C94D6020C94D602E3
:100060000C94D6020C94D6020C94D6020C94D602B0
:10007000A50100007A4406A50100007A4405A50107
:1000800000007A4404B2010000803F06B201000083
:10009000803F05B2010000803F04BC010024744988
:1000A00005BC010024744904CB0100007A4406CB4E
:1000B0000100007A4405CB0100007A4404D8020014
:1000C00000D902000044090000F9090000320300D1
:1000D00000A0030000D2030000090400005F0C0030
:1000E000005804000088040000A4040000D60400A6
:1000F000000D050000E90C00005C0500006903002C
:10010000008C050000D00500002E0D00002D0A0017
:1001100000240600004006000084060000A40C0035
:10012000001E0B0000D8060000E0060000E80600F4
:1001300000F00600008A090000F8060000320700FF
:1001400000850700008D07000006090000FF07007A
:10015000005F0800000F0C0000C90800004C0800F8
:100160000095070000B1070000D6070000C2070095
:1001700000C8070000462F77206465762000492DCF
:100180005620536F75726365204D6574657200ACBF
:10019000C5273717B7D1386F12833A0AD7233CCD1A
:1001A000CCCC3D0804020100000001000200030065
:1001B0000400ACC5273717B7D1386F12833A0AD776
:1001C000233CCDCCCC3D080402010000000100021C
:1001D000000300040085200000862000004D23005D
:1001E0000089210000AB210000CD210000E02100AA
:1001F000007D230000902000009C230000F32100DC
:10020000001522000028220000B72300009E2000D5
:1002100000D62300003B2200005D220000F12300F5
:1002200000AC2000007022000083220000A5220004
:100230000010240000BA200000B8220000C82000EE
:1002400000D6200000E4200000F2200000CB2200B5
:10025000004E24000061240000002100000E210057
:1002600000DE220000F22200002F2400001C2100EA
:1002700000052300002A2100001823000038210077
:100280000064230000462100003A23000000000122
:10029000000000000001000200030004000500004F
:1002A0000001000200030004000000010000000142
:1002B00000020003000400000001001E001E001EDA
:1002C000001E001E001E001E002800280028002816
:1002D00000280028002800280028002800280020E6
:1002E00000280013000C000D000E000F001000117C
:1002F000000700080009000A000B000500060000C6
:100300000001000200030004006F12833A0AD723A1
:100310003CCDCCCC3D0000803F000020410000C817
:100320004208040201003000000100000001000248
:100330000003000400050000002041000000002030
:10034000410000C842002000000100030003000239
:10035000000AD7233C0300030003000AD7233C0311
:1003600000030004000AD7233C0200020004006FCF
:1003700012833A01000100040017B7D138010001CF
:10038000000400ACC52737010001000400BD37861A
:10039000350300030002000AD7233CCDCCCC3D033B
:1003A00000030003000AD7233C0000803F03000342
:1003B0000004000AD7233C00002041020002000490
:1003C000006F12833A000020410100010004001771
:1003D000B7D13800002041010001000400ACC5275E
:1003E0003700002041010001000400BD37863500C0
:1003F0000020410000010002000300040005000687
:100400000080C0D23F0000D33F0000D93F0000DF92
:100410003F000000FFFFFFFF000100FF0020001071
:100420000008000400010203B8480000BF480000B3
:10043000DE4800006A490000FD4800008A490000CB
:10044000044900000B490000124900002A4900003D
:1004500031490000554900006E616E00696E66000A
:1004600000407A10F35A00A0724E18090010A5D46B
:10047000E80000E87648170000E40B54020000CAC8
:100480009A3B000000E1F50500008096980000000E
:1004900040420F000000A08601000000102700006D
:1004A0000000E803000000006400000000000A00F3
:1004B000000000000100000000002C76D888DC67F6
:1004C0004F0823DFC1DFAE59E1B1B796E5E3E4534E
:1004D000C63AE651997696E8E6C28426EB898C9B6B
:1004E00062ED407C6FFCEFBC9C9F40F2BAA56FA50B
:1004F000F490055A2AF75C936B6CF9676DC11BFC8D
:10050000E0E40D47FEF520E6B500D0ED902E0300A7
:10051000943577050080841E080000204E0A0000F4
:1005200000C80C333333330F986E12831141EF8DB3
:100530002114893BE65516CFFEE6DB18D1844B38F3
:100540001BF77C1D901DA4BBE424203284725E2224
:100550008100C9F124ECA1E53D27043B11241FBE15
:10056000CFEFD0E1DEBFCDBF12E0A0E0B1E0E6EE1C
:10057000FAEA02C005900D92A235B107D9F725E03D
:10058000A2E5B2E001C01D92A434B207E1F712E087
:10059000CEEAD2E004C02197FE010E948952CD3AF2
:1005A000D107C9F70E946A100C9471550C94000091
:1005B0000895CF92DF92EF92FF920F931F93CF9304
:1005C000DF9300D000D0CDB7DEB70E942D3AFC01FA
:1005D000C080D1800D2C000CEE08FF087601DD24D0
:1005E000CC240E942D3AFC0182819381092E000CBB
:1005F000AA0BBB0BBA2FA92F982F8827C82AD92A54
:10060000EA2AFB2A0E942D3AFC0124813581C90186
:10061000330FAA0BBB0BA7019601282B392B4A2BB2
:100620005B2B29833A834B835C830E9410251DEF4B
:10063000E12EFF24FA940FEF1FEF29813A814B81BD
:100640005C8168E171E00E9468250F900F900F9027
:100650000F90DF91CF911F910F91FF90EF90DF905E
:10066000CF9008950F931F93CF93DF93EB018A816F
:100670009B810E94461A8C010E94F91AB8010E94BF
:10068000561A0E94F91AFC01808191810E94DB2494
:100690008C010E941025B8010E9480298A819B81CB
:1006A0000E94D41DEC010E94CC1FBE010E94A11E1D
:1006B0000E94CC1FFC01848195810E94BB24EC0127
:1006C0000E941025BE01DF91CF911F910F910C94D4
:1006D00056260F931F93CF93DF93EB018A819B8163
:1006E0000E94D41D8C010E94CC1FB8010E94A11E43
:1006F0000E94CC1FFC01848195810E94BB248C0147
:100700000E941025B8010E9456268A819B810E9472
:10071000461AEC010E94F91ABE010E94561A0E9464
:10072000F91AFC01808191810E94DB24EC010E9476
:100730001025BE01DF91CF911F910F910C9480295C
:100740008F929F92AF92BF92EF92FF920F931F935F
:10075000CF93DF93FB01C281D3810E94CC1FDD27A1
:10076000FE01EE0FFF1FEC0FFD1FEE0FFF1FE80F46
:10077000F91F80849184A284B384E680F7800E946C
:10078000102595018401A701BE010E948526DF91F5
:10079000CF911F910F91FF90EF90BF90AF909F90DE
:1007A0008F9008958F929F92AF92BF92EF92FF9297
:1007B0000F931F93CF93DF93FB01C281D381DD277A
:1007C0000E94CC1FBE010E944F200E94CC1FFE0140
:1007D000EE0FFF1FEC0FFD1FEE0FFF1FE80FF91FBD
:1007E00080849184A284B384E680F7800E941025DF
:1007F00095018401A701BE010E94D826DF91CF9107
:100800001F910F91FF90EF90BF90AF909F908F90AE
:1008100008958F929F92AF92BF92CF92DF92EF9204
:10082000FF920F931F93CF93DF9300D000D0CDB7EB
:10083000DEB7FB012481358146815781C280D38098
:10084000DD2429833A834B835C830E94CC1F29815A
:100850003A814B815C81B6010E945F200E94CC1FCF
:10086000F601EE0FFF1FEC0DFD1DEE0FFF1FE80F51
:10087000F91F80849184A284B384E680F7800E946B
:10088000102595018401A701B6010E942B270F9026
:100890000F900F900F90DF91CF911F910F91FF90CC
:1008A000EF90DF90CF90BF90AF909F908F90089582
:1008B000CF93DF9300D000D0CDB7DEB7FB014281EC
:1008C00053816481758149835A836B837C830E9441
:1008D000CC1F49815A816B817C810E94DA1F0E9462
:1008E000CC1FFC01408151816281738149835A830D
:1008F0006B837C830E94102549815A816B817C81A6
:100900000F900F900F900F90DF91CF910C94A7272D
:10091000CF93DF93FB01828193810E944C36EC01DF
:100920000E947837BE010E945F360E947837FC0132
:10093000848195810E94CB24EC010E941025BE0188
:10094000DF91CF910C94EB278F929F92AF92BF9241
:10095000EF92FF920F931F93CF93DF93FB01C2811E
:10096000D3810E947837DD27FE01EE0FFF1FEC0FC9
:10097000FD1FEE0FFF1FE80FF91F80849184A284F2
:10098000B384E680F7800E94102595018401A701B9
:10099000BE010E941A28DF91CF911F910F91FF9005
:1009A000EF90BF90AF909F908F9008958F929F92FD
:1009B000AF92BF92EF92FF920F931F93CF93DF936B
:1009C000FB01C281D381DD270E947837BE010E94DE
:1009D00034380E947837FE01EE0FFF1FEC0FFD1F29
:1009E000EE0FFF1FE80FF91F80849184A284B38467
:1009F000E680F7800E94102595018401A701BE01C1
:100A00000E946D28DF91CF911F910F91FF90EF9081
:100A1000BF90AF909F908F9008958F929F92AF92CA
:100A2000BF92CF92DF92EF92FF920F931F93CF93DB
:100A3000DF9300D000D0CDB7DEB7FB012481358134
:100A400046815781C280D380DD2429833A834B833A
:100A50005C830E94783729813A814B815C81B601A1
:100A60000E9444380E947837F601EE0FFF1FEC0D0C
:100A7000FD1DEE0FFF1FE80FF91F80849184A284F3
:100A8000B384E680F7800E94102595018401A701B8
:100A9000B6010E94C0280F900F900F900F90DF9129
:100AA000CF911F910F91FF90EF90DF90CF90BF906B
:100AB000AF909F908F900895CF93DF9300D000D098
:100AC000CDB7DEB7FB0142815381648175814983D3
:100AD0005A836B837C830E94783749815A816B816A
:100AE0007C810E94BF370E947837FC014081518190
:100AF0006281738149835A836B837C830E941025B2
:100B000049815A816B817C810F900F900F900F90DB
:100B1000DF91CF910C943C29AF92BF92CF92DF929C
:100B2000EF92FF920F931F93CF93DF9300D000D0EB
:100B3000CDB7DEB7FB01E280F3800E94F91A5701BE
:100B4000BB24F501EE0FFF1FEE0FFF1FEE0FFF1F7F
:100B5000E80FF91FC680D780E084F18422813381B9
:100B60004481558129833A834B835C830E941025FD
:100B70008701760129813A814B815C81B5010E9410
:100B8000AF290F900F900F900F90DF91CF911F9191
:100B90000F91FF90EF90DF90CF90BF90AF900895AE
:100BA000AF92BF92CF92DF92EF92FF920F931F937B
:100BB000CF93DF9300D000D0CDB7DEB7FB01248107
:100BC000358146815781A280B380BB2429833A8333
:100BD0004B835C830E94F91A29813A814B815C81A5
:100BE000B5010E948B1C0E94F91AF501EE0FFF1F40
:100BF000EE0FFF1FEE0FFF1FE80FF91FC680D78013
:100C0000E084F184228133814481558129833A83B0
:100C10004B835C830E9410258701760129813A81EC
:100C20004B815C81B5010E940A2A0F900F900F90B2
:100C30000F90DF91CF911F910F91FF90EF90DF9078
:100C4000CF90BF90AF900895CF93DF93FB01828147
:100C500093810E94CD30EC010E941E32BE010E94A1
:100C6000ED300E941E32FC01808191810E94EB24B4
:100C7000EC010E941025BE01DF91CF910C94D22A85
:100C8000AF92BF92CF92DF92EF92FF920F931F939A
:100C9000CF93DF9300D000D0CDB7DEB7FB01E28069
:100CA000F3800E941E325701BB24F501EE0FFF1F97
:100CB000EE0FFF1FEE0FFF1FE80FF91FC680D78052
:100CC000E084F184228133814481558129833A83F0
:100CD0004B835C830E9410258701760129813A812C
:100CE0004B815C81B5010E94012B0F900F900F90FA
:100CF0000F90DF91CF911F910F91FF90EF90DF90B8
:100D0000CF90BF90AF900895AF92BF92CF92DF92F5
:100D1000EF92FF920F931F93CF93DF9300D000D0F9
:100D2000CDB7DEB7FB012481358146815781A28092
:100D3000B380BB2429833A834B835C830E941E3299
:100D400029813A814B815C81B5010E94EE320E947B
:100D50001E32F501EE0FFF1FEE0FFF1FEE0FFF1FFC
:100D6000E80FF91FC680D780E084F18422813381A7
:100D70004481558129833A834B835C830E941025EB
:100D80008701760129813A814B815C81B5010E94FE
:100D90005C2B0F900F900F900F90DF91CF911F91D0
:100DA0000F91FF90EF90DF90CF90BF90AF9008959C
:100DB0000E94CC1F0E94FE1F0E9410250C94242C20
:100DC0000E9478370E94E3370E9410250C944D2C26
:100DD0000E94F91A0E94241C0E9410250C94762C63
:100DE0000E941E320E9487320E9410250C949F2C74
:100DF000CF93DF93FB01828193818130910521F1B3
:100E00008230910599F0892B19F0DF91CF910895E7
:100E10000E942D3AFC01C081D1810E941025AE01B3
:100E200060E070E0DF91CF910C940C2D0E942D3A80
:100E3000FC01C481D5810E941025AE0162E070E002
:100E4000DF91CF910C940C2D0E942D3AFC01C281B0
:100E5000D3810E941025AE0161E070E0DF91CF9157
:100E60000C940C2DCF93DF93FB0182819381C4817D
:100E7000D58181309105B1F18230910501F1009762
:100E800059F08130910599F182309105E9F0892B73
:100E900041F0DF91CF9108950E942D3AFC01D1835A
:100EA000C0830E942D3AFC01C081D1810E9410258F
:100EB000AE0160E070E0DF91CF910C944A2D0E946A
:100EC0002D3AFC01D583C4830E942D3AFC01C481D4
:100ED000D5810E941025AE0162E070E0DF91CF91D4
:100EE0000C944A2D0E942D3AFC01D383C2830E94A8
:100EF0002D3AFC01C281D3810E941025AE0161E030
:100F000070E0DF91CF910C944A2D0E942D3A0E94FF
:100F1000873A0E9410250C94882D0E942D3A0E9439
:100F2000933A0E9410250C94B12DCF93DF93FB01CF
:100F3000828193810E94DD30EC010E941E32BE014D
:100F40000E9497330E941E32FC0183AD94AD0E9433
:100F50000025EC010E941025BE01DF91CF910C9479
:100F6000552FCF93DF930E941E32FC0183AD94ADC9
:100F70000E940025EC010E941025BE01DF91CF9157
:100F80000C94842F0E94102561E070E00C94F12FE6
:100F9000CF93DF93FB01C281D3810E94102540E0F3
:100FA00050E0BE01DF91CF910C942030CF92DF92C0
:100FB000EF92FF92FB01C280D380E480F5800E9413
:100FC0001025B701A6010E943025811108C00E949A
:100FD0001025FF90EF90DF90CF900C94C2250E94D7
:100FE0001025B701A6010E94B32F0E941025B7015A
:100FF000A601FF90EF90DF90CF900C944825AF9220
:10100000BF92CF92DF92EF92FF920F931F93CF93F5
:10101000DF9300D000D0CDB7DEB7FB01E280F380D4
:1010200080919702811107C082E692E00E94D83336
:1010300081E0809397025701BB24F501EE0FFF1F5B
:10104000EE0FFF1FEE0FFF1FEE59FD4FC184D2843C
:10105000E384F484258136814781508529833A834E
:101060004B835C830E9410258701760129813A8198
:101070004B815C81B5010E94092E0F900F900F905B
:101080000F90DF91CF911F910F91FF90EF90DF9024
:10109000CF90BF90AF90089580919702811107C0C3
:1010A00082E692E00E94D83381E08093970282E644
:1010B00092E00E94A3350E9410250C942C2FAF9231
:1010C000BF92CF92DF92EF92FF920F931F93CF9335
:1010D000DF9300D000D0CDB7DEB7FB01248135818E
:1010E00046815781A280B380BB24809197028823D8
:1010F00009F43FC0B50182E692E00E943635809146
:101100009702811107C082E692E00E94D83381E005
:1011100080939702F501EE0FFF1FEE0FFF1FEE0FFA
:10112000FF1FEE59FD4FC184D284E384F4842581EE
:1011300036814781508529833A834B835C830E94A3
:1011400010258701760129813A814B815C81B501A7
:101150000E94642E0F900F900F900F90DF91CF910F
:101160001F910F91FF90EF90DF90CF90BF90AF90C5
:10117000089582E692E029833A834B835C830E9440
:10118000D83381E0809397025C814B813A81298139
:10119000B1CF0F931F93CF93DF9300D000D0CDB783
:1011A000DEB78B010E946A380E948238F8016281A2
:1011B00073818091970281110BC082E692E06B836C
:1011C0007C830E94D83381E0809397027C816B817D
:1011D00082E692E00E940A36AB01BC0149835A8341
:1011E0006B837C830E94102549815A816B817C81AD
:1011F0000E94E82E0E946A380F900F900F900F9077
:10120000DF91CF911F910F910C9484380F931F930E
:10121000CF93DF9300D0CDB7DEB7FB0182819381FE
:101220000E94D333BC0180919702882309F182E6A2
:1012300092E00E94A33480919702811107C082E658
:1012400092E00E94D83381E08093970280916502FA
:10125000909166020E94FB248C010E941025B80127
:101260000F900F90DF91CF911F910F910C94DA2D79
:1012700082E692E069837A830E94D83381E080938A
:1012800097027A816981D3CF8F929F92AF92BF925A
:10129000CF92DF92EF92FF920F931F93CF93DF9342
:1012A000EC01FB0182809380A480B58081E08B8774
:1012B0000E94BE460E94E0466B017C010E94BE4631
:1012C0008C01C501B4010E948A502FE632E143E847
:1012D0005AE30E948F51AB01BC01C8010E94EC4649
:1012E000C60ED71EE81EF91ECC86DD86EE86FF866A
:1012F0000E941025B501A401DF91CF911F910F919C
:10130000FF90EF90DF90CF90BF90AF909F908F9025
:101310000C94E9250F931F93CF93DF9300D000D057
:10132000CDB7DEB78B010E9478370E945C360E94F1
:101330006A380E9480380E94CC1F0E94E41D0E94DF
:101340006A380E947A38F801028113810E94863837
:10135000B8010E94DE39AB01BC0149835A836B831B
:101360007C830E94102549815A816B817C810F907A
:101370000F900F900F90DF91CF911F910F910C94D0
:10138000C82CCF92DF92EF92FF92DB01ED91FC919E
:10139000EE32F10548F5EE0FFF1FEE0FFF1FE3548D
:1013A000FF4FC590D590E590F490F60197013595E3
:1013B0002795E0FE12C0DC01A20FB31F2D913C91D6
:1013C0001197F901EC0DFD1D0190F081E02DCD018B
:1013D000FF90EF90DF90CF900994820F931FFF90C2
:1013E000EF90DF90CF900994FF90EF90DF90CF9037
:1013F0000895FB01828193810097C9F00197B1F4B0
:101400000E94CC1F0E949E1E0E946A380E947C3857
:101410000E9478370E9486370E946A380E947E3880
:101420000E94102561E070E00C94272608950E9428
:1014300078370E945C360E946A380E9480380E9489
:10144000CC1F0E94E41D0E946A380E947A380E94D4
:10145000102560E070E00C9427268F929F92AF9247
:10146000BF92CF92DF92EF92FF920F931F93CF9391
:10147000DF93CDB7DEB72B970FB6F894DEBF0FBE64
:10148000CDBF8C017B010E946A380E948238F7012F
:10149000E280F3800E94F91AB7010E94861B4B017B
:1014A0005C010E941025B501A4010E948E2A81E0F2
:1014B000F80186830E94BE460E94E0466B017C01D3
:1014C0000E94BE4640E050E060E070E40E94EC46BE
:1014D000C60ED71EE81EF91EF801C782D086E18627
:1014E000F2860E941E320E94F91AFC01E080F1800F
:1014F0000E94093B0E94113CFC0196E0DE0111961E
:1015000001900D929A95E1F70E94093B40E060E05E
:101510000E94ED3B8701000F111F000F111F000FEC
:10152000111F0E191F09F801E656FF4FE590F490C0
:1015300082E00E94863F8B8781E00E94863F8A87F7
:10154000F801E456FF4F2591359145915491C5011D
:10155000B4010E948F514B015C01F801E056FF4F2E
:1015600084910E94873F898789E00E94863F88870F
:1015700084E00E94863F8F830E94093B6FE37FE3F4
:101580000E94F53EBE01695F7F4F0E94883F63E283
:1015900071E00E941C3C63E67FE30E94F53E67EF2A
:1015A0007EE30E94F53E6BE17FE30E94F53EBE01C3
:1015B000685F7F4F0E94883FBE01675F7F4F0E9438
:1015C000AD3FB501A4010E94DB3DBE01665F7F4FC8
:1015D0000E94883F69E471E00E941C3C6FE37FE356
:1015E0000E94F53EBE01655F7F4F0E94883FB701B4
:1015F0000E941C3C0E94093B40E061E00E94ED3BE0
:101600000E94093BBE016F5F7F4F0E94133C0E9406
:101610006A380E9484382B960FB6F894DEBF0FBE4E
:10162000CDBFDF91CF911F910F91FF90EF90DF9091
:10163000CF90BF90AF909F908F9008958F929F9280
:10164000AF92BF92CF92DF92EF92FF920F931F93D0
:10165000CF93DF93CDB7DEB72B970FB6F894DEBFED
:101660000FBECDBF8C017B010E946A380E94823878
:10167000F701E280F3800E941E32B7010E942C32F3
:101680004B015C010E941025B501A4010E94E02BD2
:1016900081E0F80186830E94BE460E94E0466B010D
:1016A0007C010E94BE4640E050E060E070E40E9491
:1016B000EC46C60ED71EE81EF91EF801C782D0867A
:1016C000E186F2860E941E32FC01E080F1800E94D9
:1016D000F91A0E94093B0E94113CFC0196E0DE01D0
:1016E000119601900D929A95E1F70E94093B40E016
:1016F00060E00E94ED3B0E94093B40E061E00E94F7
:10170000ED3B8701000F111F000F111F000F111F6C
:101710000E191F09F801E059FF4FE590F49082E09F
:101720000E94863F8B8781E00E94863F8A87F8016E
:10173000EE58FF4F2591359145915491C501B40163
:101740000E948F514B015C01F801EA58FF4F8491D0
:101750000E94873F898789E00E94863F888784E0CE
:101760000E94863F8F830E94093B6FE37FE30E94C4
:10177000F53EBE01695F7F4F0E94883F66E271E0DF
:101780000E941C3C63E67FE30E94F53E67EF7EE328
:101790000E94F53E6BE17FE30E94F53EBE01685F6B
:1017A0007F4F0E94883FBE01675F7F4F0E94AD3F21
:1017B000B501A4010E94DB3DBE01665F7F4F0E9420
:1017C000883F69E471E00E941C3C6FE37FE30E9464
:1017D000F53EBE01655F7F4F0E94883FB7010E94C2
:1017E0001C3C0E94093BBE016F5F7F4F0E94133C6F
:1017F0000E946A380E9484382B960FB6F894DEBF98
:101800000FBECDBFDF91CF911F910F91FF90EF9051
:10181000DF90CF90BF90AF909F908F900895CF9220
:10182000DF92EF92FF92CF93DF93EC0180919702CA
:10183000811107C082E692E00E94D83381E0809354
:10184000970282E692E00E948D350E9410250E9448
:10185000BF2E81E08E830E94BE460E94E0466B014F
:101860007C010E94BE4640E050E060E070E40E94CF
:10187000EC46C60ED71EE81EF91ECF82D886E98632
:10188000FA860E94093B40E060E00E94ED3B0E9426
:10189000093B69E271E00E941C3C0E94093B40E068
:1018A00061E00E94ED3B0E94093B6AE371E0DF9139
:1018B000CF91FF90EF90DF90CF900C941C3CCF9293
:1018C000DF92EF92FF92CF93DF93EC010E94CC1F47
:1018D0000E946F200E9410250E947E2781E08E8347
:1018E0000E94BE460E94E0466B017C010E94BE46FB
:1018F00040E050E060E070E40E94EC46C60ED71E67
:10190000E81EF91ECF82D886E986FA860E94093B36
:1019100040E060E00E94ED3B0E94093B69E271E01B
:101920000E941C3C0E94093B40E061E00E94ED3BAC
:101930000E94093B6AE371E0DF91CF91FF90EF9045
:10194000DF90CF900C941C3CCF92DF92EF92FF92ED
:10195000CF93DF93EC010E941E320E944C330E9411
:1019600010250E94B72B81E08E830E94BE460E9404
:10197000E0466B017C010E94BE4640E050E060E022
:1019800070E40E94EC46C60ED71EE81EF91ECF82F8
:10199000D886E986FA860E94093B40E060E00E9412
:1019A000ED3B0E94093B69E271E00E941C3C0E94F1
:1019B000093B40E061E00E94ED3B0E94093B6AE385
:1019C00071E0DF91CF91FF90EF90DF90CF900C947A
:1019D0001C3CCF92DF92EF92FF92CF93DF93EC010A
:1019E0000E9478370E9454380E9410250E941329C3
:1019F00081E08E830E94BE460E94E0466B017C011E
:101A00000E94BE4640E050E060E070E40E94EC4678
:101A1000C60ED71EE81EF91ECF82D886E986FA8642
:101A20000E94093B40E060E00E94ED3B0E94093BC0
:101A300069E271E00E941C3C0E94093B40E061E0C9
:101A40000E94ED3B0E94093B6AE371E0DF91CF9178
:101A5000FF90EF90DF90CF900C941C3CCF92DF92E0
:101A6000EF92FF92CF93DF93EC010E94F91A0E944C
:101A70003A1D0E9410250E94652A81E08E830E94F3
:101A8000BE460E94E0466B017C010E94BE4640E0DB
:101A900050E060E070E40E94EC46C60ED71EE81EDF
:101AA000F91ECF82D886E986FA860E94093B40E07B
:101AB00060E00E94ED3B0E94093B69E271E00E94F8
:101AC0001C3C0E94093B40E061E00E94ED3B0E940B
:101AD000093B6AE371E0DF91CF91FF90EF90DF90D7
:101AE000CF900C941C3C0F931F93CF93DF93CDB7F3
:101AF000DEB7AB970FB6F894DEBF0FBECDBF0E9426
:101B0000093B0E94113CFC0196E0DE019196019098
:101B10000D929A95E1F70E94093B40E060E00E9437
:101B2000ED3B6EE771E0CE0101960E9494548C016A
:101B30000E94093BB8010E941C3C0E94093B40E006
:101B400061E00E94ED3B82E00E94863F8FA381E02E
:101B50000E94863F88A782E00E94863F89A781E095
:101B60000E94863F8AA782E00E94863F8BA765E796
:101B700071E0CE0101960E9494548C010E94093BB1
:101B8000B8010E941C3CBE01655D7F4F0E94883FEA
:101B90006BE17FE30E94F53E4FEF50E060E070E0C4
:101BA0000E94E63CBE01665D7F4F0E94883F6BE469
:101BB00071E00E941C3CBE01675D7F4F0E94883F20
:101BC0006BE17FE30E94F53E4FEF50E060E070E094
:101BD0000E94E63CBE01685D7F4F0E94883F6BE437
:101BE00071E00E941C3CBE01695D7F4F0E94883FEE
:101BF0006BE17FE30E94F53E4DEF50E060E070E066
:101C00000E94E63C0E94093BBE016F5D7F4F0E942F
:101C1000133CAB960FB6F894DEBF0FBECDBFDF917D
:101C2000CF911F910F910895CF92DF92EF92FF9283
:101C3000CF93DF93EC010E94DA3A82ED91E0998331
:101C400088831E821F82188619861A861B861C8628
:101C50001D861E861F860E94093B0E94CC1F0E9483
:101C600078370E94F91A0E941E32809197028111E2
:101C700007C082E692E00E94D83381E08093970209
:101C80000E9486380E9410250E94CC1F0E94E41DED
:101C90000E946A380E947A380E94783740E050E00B
:101CA000BA010E94BF370E941E3260E070E00E94BD
:101CB00097330E941025AE0161EC79E00E94F43A5E
:101CC000CE010E94730D789481E08E830E94BE46FF
:101CD0000E94E0466B017C010E94BE4640E050E05D
:101CE00060E070E40E94EC46C60ED71EE81EF91EA6
:101CF000CF82D886E986FA86DF91CF91FF90EF9068
:101D0000DF90CF9008952F923F924F925F926F9203
:101D10007F928F929F92AF92BF92CF92DF92EF927B
:101D2000FF920F931F93CF93DF93CDB7DEB72B971F
:101D30000FB6F894DEBF0FBECDBFF62E29013A01D3
:101D40000E94093B0E94113CFC0196E0DE011196C5
:101D500001900D929A95E1F70E94093B40E060E006
:101D60000E94ED3BF11099C00E94093B40E061E008
:101D70000E94ED3BEE2009F470C08401000F111F9A
:101D8000000F111F000F111F08191909F801E05960
:101D9000FF4FE590F49082E00E94863F8F8381E0C0
:101DA0000E94863F8887F801EE58FF4F25913591B4
:101DB00045915491C601B5010E948F514B015C01C0
:101DC000F801EA58FF4F84910E94873F898789E094
:101DD0000E94863F8A8784E00E94863F8B870E940C
:101DE000093B6FE37FE30E94F53EBE01655F7F4FD5
:101DF0000E94883F66E271E00E941C3C63E67FE33C
:101E00000E94F53E67EF7EE30E94F53E6BE17FE3C3
:101E10000E94F53EBE01665F7F4F0E94883FBE0173
:101E2000675F7F4F0E94AD3FB501A4010E94DB3D7B
:101E3000BE01685F7F4F0E94883F69E471E00E94A5
:101E40001C3C6FE37FE30E94F53EBE01695F7F4F5C
:101E50000E94883FB7010E941C3C0E94093BBE01C2
:101E60006F5F7F4F0E94133C2B960FB6F894DEBF36
:101E70000FBECDBFDF91CF911F910F91FF90EF90DB
:101E8000DF90CF90BF90AF909F908F907F906F909A
:101E90005F904F903F902F900895F801EE0FFF1F35
:101EA000EE0FFF1FEE0FFF1FCF01801B910B8C0168
:101EB000FC01E656FF4F2590349082E00E94863F59
:101EC0008F8381E00E94863F8887F801E456FF4FA8
:101ED0002591359145915491C301B2010E948F51D2
:101EE0002B013C01F801E056FF4F84910E94873F8F
:101EF000898789E00E94863F8A8784E00E94863F26
:101F00008B870E94093B6FE37FE30E94F53EBE0191
:101F1000655F7F4F0E94883F63E271E00E941C3C36
:101F200063E67FE30E94F53E67EF7EE30E94F53EA5
:101F30006BE17FE30E94F53EBE01665F7F4F0E942A
:101F4000883FBE01675F7F4F0E94AD3FB301A20192
:101F50000E94DB3DBE01685F7F4F0E94883F69E4BD
:101F600071E00E941C3C6FE37FE30E94F53EBE01DE
:101F7000695F7F4F0E94883FB1010E941C3CF4CEF4
:101F80002F923F924F925F926F927F928F929F9289
:101F9000AF92BF92CF92DF92EF920F931F93CF93A6
:101FA000DF9300D000D0CDB7DEB71C01FC018385E4
:101FB000811125C00E94F91A0E944E1D0E941E32F6
:101FC0000E9460330E94F91AFC0180AD91AD892B0B
:101FD00059F10F900F900F900F90DF91CF911F91BB
:101FE0000F91EF90DF90CF90BF90AF909F908F9028
:101FF0007F906F905F904F903F902F9008950E9438
:10200000BE460E94E046F101048515852685378588
:10201000601771078207930768F2F10113860E9427
:1020200010250E946025C6CF0E941E32FC0180ADA3
:1020300091AD892B71F60E94F91A0E94A61D9B0191
:10204000AC0169833A834B835C830E941E320E94F9
:102050006F335B016C01F101868129813A814B81EB
:102060005C81811119C029833A834B835C830E9470
:102070001E32FC01808091800E94F91AFC010081CF
:102080001181EE24E39429813A814B815C8161E0E6
:10209000C1010E94830E9DCF29833A834B835C83C9
:1020A0000E94BE460E94E046F10147805084618450
:1020B000728429813A814B815C816415750586059E
:1020C000970518F0F1011682CECFF10186818111BA
:1020D00080CFC9CF2FEF8FE398E32150804090400D
:1020E000E1F700C0000080918F02811107C082E5F6
:1020F00092E00E94140E81E080938F020E94B93A10
:1021000080E090E008952F923F924F925F926F92FD
:102110007F928F929F92AF92BF92CF92DF92EF9277
:10212000FF920F931F93CF93DF938C01EB01FC0180
:10213000E080F1806E157F050CF065C08280938091
:10214000A480B580A5019401608571858285938501
:102150000E946A4F2B013C01F801668177816E195C
:102160007F09072E000C880B990B0E948C509B0155
:10217000AC01C301B2010E94DC4F2B013C01CE191E
:10218000DF09BE01DD0F880B990B0E948C509B016B
:10219000AC01C301B2010E948F519B01AC01C5018A
:1021A000B4010E946B4F8B01D82FC92F2CE53FE85B
:1021B00042E85FE3C501B4010E948F516B017C01CD
:1021C0009B01AC01B8018D2F9C2F0E94D74F87FD3A
:1021D000EDC0502F412F9E01652F742F832F922F1A
:1021E000DF91CF911F910F91FF90EF90DF90CF90F3
:1021F000BF90AF909F908F907F906F905F904F9027
:102200003F902F900895FC01208C318C26163706C4
:102210000CF47EC0A4E0B0E00DC04C175D070CF0DC
:10222000CAC09C01CB01BF2DAC01421B530B4230F5
:102230005105FCF02B2F30E06A2F70E0C901860FAA
:10224000971F95958795F82EFC01EE0FFF1FE80F5D
:10225000F91FEE0FFF1FE00FF11F40815181C417DE
:10226000D507DCF6A82FAC01421B530B42305105B9
:102270000CF7F901EE0FFF1FE20FF31FEE0FFF1F28
:10228000E00FF11F82809380A480B580E080F18010
:102290009C01220F331F820F931F880F991F080F75
:1022A000191FA5019401F8016281738184819581D0
:1022B0000E946A4F2B013C01F801608171816E1907
:1022C0007F09072E000C880B990B0E948C509B01F4
:1022D000AC01C301B2010E94DC4F2B013C01CE19BD
:1022E000DF09BE01DD0F880B990B0E948C509B010A
:1022F000AC01C301B2010E948F519B01AC01C50129
:10230000B4010E946B4F562F472F382F292F64CFCF
:10231000C28CD38CE48CF58C84889588A688B78889
:1023200002891389A5019401C701B6010E946A4F71
:102330002B013C01B101601B710B072E000C880BB7
:10234000990B0E948C509B01AC01C301B2010E9409
:10235000DC4F2B013C01C01BD10BBE01DD0F880BF4
:10236000990B0E948C509B01AC01C301B2010E94E9
:102370008F519B01AC01C501B4010E946B4F8B01D1
:10238000D82FC92F2CE53FE842E85FE3C701B6012B
:102390000E948F516B017C019B01AC01B8018D2F14
:1023A0009C2F0E948A5118160CF013CF5C2D4D2DD6
:1023B0003E2D2F2D11CF52814381348125810CCFA9
:1023C0002F923F924F925F926F927F928F929F9245
:1023D000AF92BF92CF92DF92EF92FF920F931F9333
:1023E000CF93DF93CDB7DEB728970FB6F894DEBF53
:1023F0000FBECDBF8C016A017B01FC0182809380FE
:10240000A480B5809A01AB01C501B4010E948A5134
:10241000F80118160CF079C060807180B301072CA8
:10242000000C880B990B0E948C5069837A838B83F4
:102430009C83F8016681778166197709072E000C65
:10244000880B990B0E948C502B013C01A501940133
:10245000F80160857185828593850E946A4F9B0192
:10246000AC01C301B2010E94DC4F2B013C01A5016C
:102470009401C701B6010E946A4F9B01AC01C301E0
:10248000B2010E948F5129813A814B815C810E9467
:102490006B4F8B015C012CE53FE842E85FE369810B
:1024A0007A818B819C810E948F516B017C019B0101
:1024B000AC01B801C5010E94D74F87FD23C1502F41
:1024C000412F3A2D2B2D652F742F832F922F0E9491
:1024D000FC510E944E50CB0128960FB6F894DEBFF7
:1024E0000FBECDBFDF91CF911F910F91FF90EF9065
:1024F000DF90CF90BF90AF909F908F907F906F9024
:102500005F904F903F902F900895828C938CA48C75
:10251000B58CA7019601C501B4010E94D74F87FD74
:1025200094C0F4E0F9831D8211C0A7019601C30194
:10253000B2010E94D74F87FFEAC045015101FE81D9
:10254000FD83C50188199909029754F12D81822EC6
:10255000912C3981232E312C5401A20CB31CB5943B
:10256000A794AE82C501880F991F8A0D9B1D880F05
:10257000991FFC01E00FF11FF887EF834280538021
:1025800064807580A7019601C301B2010E948A513F
:1025900018165CF6A982C501881999090297B4F644
:1025A000F401EE0FFF1FE80DF91DEE0FFF1FE00F06
:1025B000F11F208031804280538064807580C50186
:1025C000880F991F8A0D9B1D880F991F080F191FCF
:1025D000F8016081718162197309072E000C880B64
:1025E000990B0E948C504B015C01A3019201F801F0
:1025F00062817381848195810E946A4F9B01AC0145
:10260000C501B4010E94DC4F4B015C01A3019201A2
:10261000C701B6010E946A4F9B01AC01C501B4011C
:102620000E948F516B017C01B101330C880B990B17
:102630000E948C509B01AC01C701B6010E946B4FF8
:10264000562F472F382F292F3ECFF801208C318C61
:102650002289338938872F8344885588668877880C
:10266000B101621B730B072E000C880B990B0E94A3
:102670008C5069837A838B839C83A3019201C5016B
:10268000B4010E946A4F9B01AC0169817A818B8100
:102690009C810E94DC4F4B015C01A3019201C701A8
:1026A000B6010E946A4F9B01AC01C501B4010E94B2
:1026B0008F516B017C01EF81F885BF01FF0F880B03
:1026C000990B0E948C509B01AC01C701B6010E947E
:1026D0006B4F8B015C01B101330C880B990B0E948D
:1026E0008C502CE53FE842E85FE30E948F516B017C
:1026F0007C019B01AC01B801C5010E948A511816EA
:102700000CF0DDCE5C2D4D2D3E2D2F2DDCCEEF813E
:10271000F88560817181072E000C880B990B0E944F
:102720008C50562F472F382F292FCDCE2F923F92E6
:102730004F925F926F927F928F929F92AF92BF92D1
:10274000CF92DF92EF92FF920F931F93CF93DF937D
:102750008C01EB01FC01E080F1806E157F050CF02F
:1027600065C082809380A480B580A50194016085B6
:102770007185828593850E946A4F2B013C01F80187
:10278000668177816E197F09072E000C880B990BE3
:102790000E948C509B01AC01C301B2010E94DC4F2E
:1027A0002B013C01CE19DF09BE01DD0F880B990B0F
:1027B0000E948C509B01AC01C301B2010E948F5159
:1027C0009B01AC01C501B4010E946B4F8B01D82F56
:1027D000C92F2CE53FE842E85FE3C501B4010E9440
:1027E0008F516B017C019B01AC01B8018D2F9C2F97
:1027F0000E94D74F87FDEDC0502F412F9E01652FBE
:10280000742F832F922FDF91CF911F910F91FF9003
:10281000EF90DF90CF90BF90AF909F908F907F9080
:102820006F905F904F903F902F900895FC01208C07
:10283000318C261637060CF47EC0A4E0B0E00DC043
:102840004C175D070CF0CAC09C01CB01BF2DAC0139
:10285000421B530B42305105FCF02B2F30E06A2F06
:1028600070E0C901860F971F95958795F82EFC019A
:10287000EE0FFF1FE80FF91FEE0FFF1FE00FF11F14
:1028800040815181C417D507DCF6A82FAC01421B4B
:10289000530B423051050CF7F901EE0FFF1FE20F09
:1028A000F31FEE0FFF1FE00FF11F82809380A480C3
:1028B000B580E080F1809C01220F331F820F931FAF
:1028C000880F991F080F191FA5019401F801628153
:1028D0007381848195810E946A4F2B013C01F8012C
:1028E000608171816E197F09072E000C880B990B8E
:1028F0000E948C509B01AC01C301B2010E94DC4FCD
:102900002B013C01CE19DF09BE01DD0F880B990BAD
:102910000E948C509B01AC01C301B2010E948F51F7
:102920009B01AC01C501B4010E946B4F562F472F8C
:10293000382F292F64CFC28CD38CE48CF58C8488FB
:102940009588A688B78802891389A5019401C701D3
:10295000B6010E946A4F2B013C01B101601B710B53
:10296000072E000C880B990B0E948C509B01AC0128
:10297000C301B2010E94DC4F2B013C01C01BD10BF3
:10298000BE01DD0F880B990B0E948C509B01AC019E
:10299000C301B2010E948F519B01AC01C501B4017A
:1029A0000E946B4F8B01D82FC92F2CE53FE842E8DE
:1029B0005FE3C701B6010E948F516B017C019B014F
:1029C000AC01B8018D2F9C2F0E948A5118160CF073
:1029D00013CF5C2D4D2D3E2D2F2D11CF52814381D4
:1029E000348125810CCF2F923F924F925F926F924C
:1029F0007F928F929F92AF92BF92CF92DF92EF928F
:102A0000FF920F931F93CF93DF93CDB7DEB7289735
:102A10000FB6F894DEBF0FBECDBF8C016A017B01FB
:102A2000FC0182809380A480B5809A01AB01C5012E
:102A3000B4010E948A51F80118160CF079C0608028
:102A40007180B301072C000C880B990B0E948C50ED
:102A500069837A838B839C83F80166817781661909
:102A60007709072E000C880B990B0E948C502B01C4
:102A70003C01A5019401F8016085718582859385EB
:102A80000E946A4F9B01AC01C301B2010E94DC4F5E
:102A90002B013C01A5019401C701B6010E946A4FB8
:102AA0009B01AC01C301B2010E948F5129813A817F
:102AB0004B815C810E946B4F8B015C012CE53FE8F0
:102AC00042E85FE369817A818B819C810E948F510A
:102AD0006B017C019B01AC01B801C5010E94D74F7D
:102AE00087FD23C1502F412F3A2D2B2D652F742F99
:102AF000832F922F0E94FC510E944E50CB012896AA
:102B00000FB6F894DEBF0FBECDBFDF91CF911F91FE
:102B10000F91FF90EF90DF90CF90BF90AF909F907C
:102B20008F907F906F905F904F903F902F9008957F
:102B3000828C938CA48CB58CA7019601C501B4013D
:102B40000E94D74F87FD94C0F4E0F9831D8211C025
:102B5000A7019601C301B2010E94D74F87FFEAC0C7
:102B600045015101FE81FD83C5018819990902972C
:102B700054F12D81822E912C3981232E312C540138
:102B8000A20CB31CB594A794AE82C501880F991FFF
:102B90008A0D9B1D880F991FFC01E00FF11FF8871C
:102BA000EF834280538064807580A7019601C30142
:102BB000B2010E948A5118165CF6A982C5018819D3
:102BC00099090297B4F6F401EE0FFF1FE80DF91D05
:102BD000EE0FFF1FE00FF11F2080318042805380F5
:102BE00064807580C501880F991F8A0D9B1D880F11
:102BF000991F080F191FF80160817181621973090B
:102C0000072E000C880B990B0E948C504B015C0125
:102C1000A3019201F80162817381848195810E94F0
:102C20006A4F9B01AC01C501B4010E94DC4F4B010E
:102C30005C01A3019201C701B6010E946A4F9B018A
:102C4000AC01C501B4010E948F516B017C01B1013F
:102C5000330C880B990B0E948C509B01AC01C7016F
:102C6000B6010E946B4F562F472F382F292F3ECF8A
:102C7000F801208C318C2289338938872F8344884E
:102C8000558866887788B101621B730B072E000C8C
:102C9000880B990B0E948C5069837A838B839C8369
:102CA000A3019201C501B4010E946A4F9B01AC01CE
:102CB00069817A818B819C810E94DC4F4B015C0190
:102CC000A3019201C701B6010E946A4F9B01AC01AA
:102CD000C501B4010E948F516B017C01EF81F88521
:102CE000BF01FF0F880B990B0E948C509B01AC0118
:102CF000C701B6010E946B4F8B015C01B101330C1F
:102D0000880B990B0E948C502CE53FE842E85FE36A
:102D10000E948F516B017C019B01AC01B801C50180
:102D20000E948A5118160CF0DDCE5C2D4D2D3E2DE3
:102D30002F2DDCCEEF81F88560817181072E000C8C
:102D4000880B990B0E948C50562F472F382F292F14
:102D5000CDCE2F923F924F925F926F927F928F9241
:102D60009F92AF92BF92CF92DF92EF92FF921F930A
:102D7000CF93DF93CDB7DEB72C970FB6F894DEBFB5
:102D80000FBECDBF1C016A017B01DC018D909D90BF
:102D9000AD90BC901397481559056A057B050CF05A
:102DA0007DC014962D913D914D915C91179729838B
:102DB0003A834B835C831C966D917D918D919C91A0
:102DC0001F970E946A4F2B013C01F101808591857C
:102DD000A285B385BC01CD01681979098A099B09CF
:102DE0000E948C509B01AC01C301B2010E94DC4FD8
:102DF0002B013C01C701B601681979098A099B09B1
:102E00000E948C509B01AC01C301B2010E948F5102
:102E10009B01AC0169817A818B819C810E946B4FFF
:102E2000F62E172F982EA92E2CE53FE842E85FE3F7
:102E300069817A818B819C810E948F51B62EC72E29
:102E4000D82EE92E262F372F482F592F6F2D712F6F
:102E5000892D9A2D0E94D74F87FD37C15F2D412FB5
:102E6000392D2A2D652F742F832F922F2C960FB674
:102E7000F894DEBF0FBECDBFDF91CF911F91FF90C1
:102E8000EF90DF90CF90BF90AF909F908F907F900A
:102E90006F905F904F903F902F900895DC01909637
:102EA0004D905D906D907C90939744165506660604
:102EB00077060CF495C014E0B12C0FC04C155D05DD
:102EC0006E057F050CF006C19C01CD01BA2CAC014A
:102ED000421B530B423051051CF12B2D30E0A12F2A
:102EE000B0E0C9018A0F9B1F95958795A82EFC011C
:102EF000EE0FFF1FEE0FFF1FEE0FFF1FE20DF31D82
:102F00004081518162817381C416D506E606F706B9
:102F1000ACF6182FAC01421B530B42305105ECF6B6
:102F2000220F331F220F331F220F331FF101E20F35
:102F3000F31F84809580A680B780208131814281F3
:102F4000538129833A834B835C83880F991F880FB1
:102F5000991F880F991F280E391EA5019401D101D0
:102F600014966D917D918D919C9117970E946A4F57
:102F70002B013C01F10180819181A281B381BC01CF
:102F8000CD0129813A814B815C81621B730B840BDB
:102F9000950B0E948C509B01AC01C301B2010E94B1
:102FA000DC4F2B013C01C701B60129813A814B81DD
:102FB0005C81621B730B840B950B0E948C509B01F0
:102FC000AC01C301B2010E948F519B01AC01C5014C
:102FD000B4010E946B4F562F472F382F292F42CF15
:102FE00094968D909D90AD90BC9097975C962D9106
:102FF0003D914D915C915F9729833A834B835C832C
:1030000058962D913D914D915C915B972D833E8318
:103010004F83588729813A814B815C81C501B40176
:103020000E946A4F69877A878B879C87C301B201A8
:103030002D813E814F815885621B730B840B950B4C
:103040000E948C509B01AC0169857A858B859C859B
:103050000E94DC4F2B013C01C701B6012D813E814E
:103060004F815885621B730B840B950B0E948C500B
:103070009B01AC01C301B2010E948F519B01AC01C5
:1030800069817A818B819C810E946B4FF62E172F6C
:103090003C012CE53FE842E85FE3C501B4010E9432
:1030A0008F51B62EC72ED82EE92E262F372F482F18
:1030B000592F6F2D712FC3010E948A5118162CF0C1
:1030C0005F2D412F362D272DCDCE5B2D4C2D3D2D47
:1030D0002E2DC8CE5481458136812781C3CE2F92B3
:1030E0003F924F925F926F927F928F929F92AF9298
:1030F000BF92CF92DF92EF92FF921F93CF93DF9315
:10310000CDB7DEB72C970FB6F894DEBF0FBECDBF9C
:103110001C016A017B01DC018D909D90AD90BC90FB
:103120001397481559056A057B050CF07DC0149668
:103130002D913D914D915C91179729833A834B8353
:103140005C831C966D917D918D919C911F970E943F
:103150006A4F2B013C01F10180859185A285B385E1
:10316000BC01CD01681979098A099B090E948C501C
:103170009B01AC01C301B2010E94DC4F2B013C0159
:10318000C701B601681979098A099B090E948C5008
:103190009B01AC01C301B2010E948F519B01AC01A4
:1031A00069817A818B819C810E946B4FF62E172F4B
:1031B000982EA92E2CE53FE842E85FE369817A81E9
:1031C0008B819C810E948F51B62EC72ED82EE92E5E
:1031D000262F372F482F592F6F2D712F892D9A2D7C
:1031E0000E94D74F87FD37C15F2D412F392D2A2DE2
:1031F000652F742F832F922F2C960FB6F894DEBF75
:103200000FBECDBFDF91CF911F91FF90EF90DF9068
:10321000CF90BF90AF909F908F907F906F905F9076
:103220004F903F902F900895DC0190964D905D90C7
:103230006D907C90939744165506660677060CF4BD
:1032400095C014E0B12C0FC04C155D056E057F05CF
:103250000CF006C19C01CD01BA2CAC01421B530BF2
:10326000423051051CF12B2D30E0A12FB0E0C901F7
:103270008A0F9B1F95958795A82EFC01EE0FFF1FC7
:10328000EE0FFF1FEE0FFF1FE20DF31D4081518176
:1032900062817381C416D506E606F706ACF6182FD0
:1032A000AC01421B530B42305105ECF6220F331F89
:1032B000220F331F220F331FF101E20FF31F84800F
:1032C0009580A680B78020813181428153812983F6
:1032D0003A834B835C83880F991F880F991F880F4F
:1032E000991F280E391EA5019401D10114966D91E4
:1032F0007D918D919C9117970E946A4F2B013C0103
:10330000F10180819181A281B381BC01CD0129812C
:103310003A814B815C81621B730B840B950B0E947D
:103320008C509B01AC01C301B2010E94DC4F2B0108
:103330003C01C701B60129813A814B815C81621B46
:10334000730B840B950B0E948C509B01AC01C30145
:10335000B2010E948F519B01AC01C501B4010E94D2
:103360006B4F562F472F382F292F42CF94968D9091
:103370009D90AD90BC9097975C962D913D914D910D
:103380005C915F9729833A834B835C8358962D9198
:103390003D914D915C915B972D833E834F83588780
:1033A00029813A814B815C81C501B4010E946A4F39
:1033B00069877A878B879C87C301B2012D813E8103
:1033C0004F815885621B730B840B950B0E948C50A8
:1033D0009B01AC0169857A858B859C850E94DC4FB9
:1033E0002B013C01C701B6012D813E814F815885DB
:1033F000621B730B840B950B0E948C509B01AC01DC
:10340000C301B2010E948F519B01AC0169817A8195
:103410008B819C810E946B4FF62E172F3C012CE56F
:103420003FE842E85FE3C501B4010E948F51B62E28
:10343000C72ED82EE92E262F372F482F592F6F2D24
:10344000712FC3010E948A5118162CF05F2D412F55
:10345000362D272DCDCE5B2D4C2D3D2D2E2DC8CEBE
:103460005481458136812781C3CE0895549A559859
:1034700008955C9808955C9A08950895089589B117
:1034800085FB882780F991E089270895853091058B
:1034900040F4FC01EE0FFF1FE855FE4F859194911B
:1034A0000895E8EAF1E08591949108954F925F9232
:1034B0006F927F928F929F92AF92BF92EF92FF9204
:1034C0000F931F93CF93DF93EC018B01FC0161936A
:1034D00071937F01CB010E9486305C010E94AB306A
:1034E000A701B5010E94D845889709F466C0F80184
:1034F000EE0FFF1FEE0FFF1FE157FE4F85909590D7
:10350000A590B490C501B401905823E3422E542CE9
:1035100023EF622E77247A944A825B826C827D82CA
:103520006E837F838887998731EE432E3AE7532E47
:1035300034EF632E77247A944A865B866C867D8688
:1035400026E636E646E65FE30E948F516E877F8768
:10355000888B998B1A8A1B8A1C8A1D8A1E8A1F8A4D
:10356000188E198E8FE195E8ABE0B0E08A8F9B8FC3
:10357000AC8FBD8F26E636E646E65FE3C501B401B3
:103580000E948F516E8F7F8F88A399A38DEC9CEC46
:10359000ACE0B0E08AA39BA3ACA3BDA38EA29FA284
:1035A000A8A6B9A6888199810E9486305C010E94F4
:1035B000AB30A701B5010E944246AA96CE010E94F7
:1035C0000942F801ED55FE4F0491682F607F602B92
:1035D000CE01DF91CF911F910F91FF90EF90BF909F
:1035E000AF909F908F907F906F905F904F900C94D2
:1035F000EB418091D902811186C01092A1021092F4
:10360000A2021092A3021092A4021092A50210929C
:10361000A6021092A7021092A8021092A90210927C
:10362000AA021092AB021092AC021092AD0210925C
:10363000AE021092AF021092B0021092B10210923C
:10364000B2021092B3021092B4021092B50210921C
:10365000B6021092B7021092B8021092B9021092FC
:10366000BA021092BB021092BC021092BD021092DC
:10367000BE021092BF021092C0021092C1021092BC
:10368000C2021092C3021092C4021092C50210929C
:10369000C6021092C7021092C80260E089EC92E064
:1036A0000E94E8418AEC92E00E94634388ED91E039
:1036B0009093CB028093CA028AEC92E00E947E43F0
:1036C00060E170E08DEC92E00E94A84A89EC92E003
:1036D0000E947F42682F607F89EC92E00E94AB429B
:1036E00089EC92E00E943542682F607F89EC92E07D
:1036F0000E94614262E070E08FE992E00E94561AF7
:1037000081E08093D9028FE992E00895AF92BF9251
:10371000CF92DF92EF92FF920F931F93CF93DF939D
:10372000CDB7DEB727970FB6F894DEBF0FBECDBF7B
:103730005C01613081E0780710F060E071E0CE015B
:1037400001960E942A4B2B813C818D819E812817F6
:10375000390709F452C08501055D1F4F16C00E944C
:1037600028446B017C0144275527BA014C195D0997
:103770006E097F09CE0101960E94444B2B813C814A
:103780008D819E8128173907C1F10E942D3AFC01D5
:10379000C080D1800D2C000CEE08FF087601DD24DE
:1037A000CC240E942D3AFC0182819381092E000CC9
:1037B000AA0BBB0BBA2FA92F982F8827C82AD92A62
:1037C000EA2AFB2A0E942D3AFC0184819581092E68
:1037D000000CAA0BBB0BC82AD92AEA2AFB2A60E0F4
:1037E000C801C114D104F3E0EF06F10408F0B7CF2B
:1037F0000E942844AB01BC01BDCFCE0101960E94BE
:10380000664B0E94FC510E944E50AB01BC01C501A9
:1038100002960E94A9166B017C01CE0101960E94BE
:103820003F4BC701B60127960FB6F894DEBF0FBE17
:10383000CDBFDF91CF911F910F91FF90EF90DF905F
:10384000CF90BF90AF900895CF92DF92EF92FF920A
:103850000F931F93CF93DF93EC01E881F981EE0F73
:10386000FF1FEE0FFF1FE157FE4FC590D590E5906B
:10387000F490C701B601905803E313E323EF3FEF41
:103880000A831B832C833D836E837F83888799877C
:1038900001EE1AE724EF3FEF0A871B872C873D874D
:1038A00026E636E646E65FE30E948F516E877F8705
:1038B000888B998B1A8A1B8A1C8A1D8A1E8A1F8AEA
:1038C000188E198E8FE195E8ABE0B0E08A8F9B8F60
:1038D000AC8FBD8F26E636E646E65FE3C701B6014C
:1038E0000E948F516E8F7F8F88A399A38DEC9CECE3
:1038F000ACE0B0E08AA39BA3ACA3BDA3CEA2DFA2A1
:10390000E8A6F9A6DF91CF911F910F91FF90EF905C
:10391000DF90CF9008954F925F926F927F928F9237
:103920009F92AF92BF92CF92DF92EF92FF920F934E
:103930001F93CF93DF93CDB7DEB72C970FB6F894D4
:10394000DEBF0FBECDBF4C015B0129013A0160E82B
:1039500070E0CE0101960E94A84A8B859C85892B38
:1039600009F457C08401055D1F4F14C00E9428440C
:103970006B017C0144275527BA014C195D096E097A
:103980007F09CE0101960E94C44A8B859C85892BB4
:1039900009F43FC00E942D3AFC01C080D1800D2C5B
:1039A000000CEE08FF087601DD24CC240E942D3A9D
:1039B000FC0182819381092E000CAA0BBB0BBA2F4C
:1039C000A92F982F8827C82AD92AEA2AFB2A0E94D9
:1039D0002D3AFC0184819581092E000CAA0BBB0BAA
:1039E000C82AD92AEA2AFB2A60E0C801C114D104F6
:1039F000F3E0EF06F10408F0B9CF0E942844AB01D0
:103A0000BC01CE0101960E94C44A8B859C85892BFE
:103A100009F6CE0101960E94FF4A0E94FC51BB2488
:103A2000AA0CBB1CAA0CBB1CAA0CBB1C8A0C9B1CA2
:103A30000E944E50F401628373838483958346828F
:103A40005782608671862C960FB6F894DEBF0FBE43
:103A5000CDBFDF91CF911F910F91FF90EF90DF903D
:103A6000CF90BF90AF909F908F907F906F905F901E
:103A70004F9008950F931F93CF93DF93EC0189919B
:103A800099910E9486308C010E94AB30AE01B80142
:103A9000DF91CF911F910F910C944246CF92DF920C
:103AA000EF92FF920F931F93CF93DF93EC010E944D
:103AB0002D3AFC01C080D1800D2C000CEE08FF08CF
:103AC0007601DD24CC240E942D3AFC018281938171
:103AD000092E000CAA0BBB0BBA2FA92F982F8827F1
:103AE000C82AD92AEA2AFB2A0E942D3AFC0184819D
:103AF0009581092E000CAA0BBB0BC82AD92AEA2AE9
:103B0000FB2A60E0CE018B96C114D104F3E0EF06EE
:103B1000F104B8F00E9428448B019C0144275527EA
:103B2000BA01401B510B620B730BCE018E96DF91D5
:103B3000CF911F910F91FF90EF90DF90CF900C9459
:103B4000C44A0E942844AB01BC01EFCFCF92DF9260
:103B5000EF92FF920F931F93CF93DF938C01EC01B1
:103B6000AE96CE010E94FF4A0E94FC510E944E5028
:103B7000AB01BC01C80102960E94A9166B017C0131
:103B8000CE010E94B64AC701B601DF91CF911F91C5
:103B90000F91FF90EF90DF90CF9008955F98089578
:103BA0005F9A0895579A08958530910540F4FC0175
:103BB000EE0FFF1FE553FE4F859194910895EBECB6
:103BC000F1E08591949108958F929F92AF92BF9268
:103BD000CF92DF92EF92FF920F931F93CF93DF93D9
:103BE000EC0181E08AA77E0184E2E80EF11CC701A6
:103BF0000E940942682F6F7EC7010E94EB410C8131
:103C00001D816E0186E0C80ED11CC8010E9466307D
:103C10005C010E94AB30A601B5010E94D8454E97C9
:103C200009F44DC0F801EE0FFF1FEE0FFF1FEE5419
:103C3000FE4F85909590A590B490C501B401905821
:103C40002BEB33EF3F832E83688779878A879B87A7
:103C500025EF34EF3D872C8726E636E646E65FE320
:103C60000E948F516E877F87888B998B1B8A1A8A57
:103C70001C8A1D8A1E8A1F8A8BE09BE0998F888F81
:103C800026E636E646E65FE3C501B4010E948F51A1
:103C90006A8F7B8F8C8F9D8F85E49CE09F8F8E8FAA
:103CA00088A299A2AAA2BBA28C819D810E946630A3
:103CB0005C010E94AB30A601B5010E944246C701DB
:103CC0000E940942F801EA53FE4F0491682F607F79
:103CD000602BC7010E94EB418AA581110DC0DF91C5
:103CE000CF911F910F91FF90EF90DF90CF90BF90F9
:103CF000AF909F908F900895488159816A817B8110
:103D0000C6010E94E0118C01BC01C6010E94831013
:103D1000688379838A839B83B8017058CE01859626
:103D2000DF91CF911F910F91FF90EF90DF90CF9097
:103D3000BF90AF909F908F900C941143FC0112A6FE
:103D400008958F929F92AF92BF92CF92DF92EF929F
:103D5000FF920F931F93CF93DF93EC018B017D8331
:103D60006C837C0186E0E80EF11CCB010E9466307A
:103D70006C010E94AB30A701B6010E94D8454E9756
:103D800009F44DC0F801EE0FFF1FEE0FFF1FEE54B8
:103D9000FE4F85909590A590B490C501B4019058C0
:103DA0002BEB33EF3F832E83688779878A879B8746
:103DB00025EF34EF3D872C8726E636E646E65FE3BF
:103DC0000E948F516E877F87888B998B1B8A1A8AF6
:103DD0001C8A1D8A1E8A1F8A8BE09BE0998F888F20
:103DE00026E636E646E65FE3C501B4010E948F5140
:103DF0006A8F7B8F8C8F9D8F85E49CE09F8F8E8F49
:103E000088A299A2AAA2BBA28C819D810E94663041
:103E10006C010E94AB30A701B6010E9442466E01C0
:103E200084E2C80ED11CC6010E940942F801EA537F
:103E3000FE4F0491682F607F602BC6010E94EB410A
:103E40008AA581110DC0DF91CF911F910F91FF9035
:103E5000EF90DF90CF90BF90AF909F908F9008959C
:103E6000488159816A817B81C7010E94E0118C01E0
:103E7000BC01C7010E948310688379838A839B8376
:103E8000B8017058CE018596DF91CF911F910F91A7
:103E9000FF90EF90DF90CF90BF90AF909F908F906A
:103EA0000C941143CF92DF92EF92FF920F931F93E6
:103EB000CF93DF93EC01188219821A821B8282E071
:103EC00090E09D838C836E0186E0C80ED11C1F821A
:103ED0001E82188619861A861B861D861C861E86DB
:103EE0001F86188A198A1B8A1A8A1C8A1D8A1E8AAA
:103EF0001F8A198E188E1A8E1B8E1C8E1D8E1F8E79
:103F00001E8E18A219A21AA21BA28E010C5D1F4FB1
:103F100060E0C8010E94E8417E0185E2E80EF11CE4
:103F2000C7010E94CC428AEE91E09EA38DA3C701F7
:103F30000E94E9421AA6C8010E947F42682F607C55
:103F4000C8010E94AB42C8010E943542682F607CC4
:103F5000C8010E94614262E070E0CE010E94A11E91
:103F600040E050E0BA01C6010E94E0118C01BC01A2
:103F7000C6010E948310688379838A839B83B8017A
:103F80007058C701DF91CF911F910F91FF90EF9073
:103F9000DF90CF900C94114380910C03811107C0E6
:103FA00081EE92E00E94521F81E080930C0381EE2B
:103FB00092E00895EF92FF920F931F93CF93DF93B8
:103FC0008C017C0186E0E80EF11CC7010E94E01123
:103FD000EC01BC01C7010E948310F801608371836A
:103FE00082839383BE017058C8018596DF91CF917B
:103FF0001F910F91FF90EF900C941143CF92DF929D
:10400000EF92FF92CF93DF93EC01EC81FD81EE0FF5
:10401000FF1FEE0FFF1FEE54FE4FC590D590E590A9
:10402000F490C701B60190582BEB33EF3F832E83FA
:10403000688779878A879B8725EF34EF3D872C87B0
:1040400026E636E646E65FE30E948F516E877F875D
:10405000888B998B1B8A1A8A1C8A1D8A1E8A1F8A42
:104060008BE09BE0998F888F26E636E646E65FE395
:10407000C701B6010E948F516A8F7B8F8C8F9D8FF5
:1040800085E49CE09F8F8E8FC8A2D9A2EAA2FBA2F2
:10409000DF91CF91FF90EF90DF90CF900895772739
:1040A000FB01EE0FFF1FE60FF71FEE0FFF1FE80FDC
:1040B000F91F66817781705885960C941143772794
:1040C000FB01EE0FFF1F6E0F7F1F660F771F860F1E
:1040D000971FFC01208731874287538708950F93EC
:1040E0001F93CF93DF93EC018C819D810E946630FA
:1040F0008C010E94AB30AE014A5F5F4FB801DF9187
:10410000CF911F910F910C944246089521E030E029
:10411000FC0130AF27ABBC01695C7F4F0C94FA3ACD
:104120004430510508F4089528E030E0FC0130AF38
:1041300027ABBC01695C7F4F0C94FA3A44305105BF
:1041400008F408952EE030E0FC0130AF27ABBC014D
:10415000695C7F4F0C94FA3A4430510508F4089595
:1041600023E130E0FC0130AF27ABBC01695C7F4F3D
:104170000C94FA3A4430510508F4089528E130E0EF
:10418000FC0130AF27ABBC01695C7F4F0C94FA3A5D
:104190004430510508F408952AE130E0FC0130AFC5
:1041A00027ABBC01695C7F4F0C94FA3A443051054F
:1041B00008F408952BE130E0FC0130AF27ABBC01DF
:1041C000695C7F4F0C94FA3A4430510508F4089525
:1041D0002CE130E0FC0130AF27ABBC01695C7F4FC4
:1041E0000C94FA3A4430510508F408952DE130E07A
:1041F000FC0130AF27ABBC01695C7F4F0C94FA3AED
:104200004430510508F4089521E230E0FC0130AF5C
:1042100027ABBC01695C7F4F0C94FA3A44305105DE
:1042200008F4089522E230E0FC0130AF27ABBC0176
:10423000695C7F4F0C94FA3A4430510508F40895B4
:1042400026E230E0FC0130AF27ABBC01695C7F4F58
:104250000C94FA3A4430510508F4089528E230E00D
:10426000FC0130AF27ABBC01695C7F4F0C94FA3A7C
:104270004430510508F408952AE230E0FC0130AFE3
:1042800027ABBC01695C7F4F0C94FA3A443051056E
:1042900008F408952CE230E0FC0130AF27ABBC01FC
:1042A000695C7F4F0C94FA3A0F931F93FB01A08136
:1042B000B1812B2F3A2F2E32310540F5EB2FFA2FFB
:1042C000EE0FFF1FEE0FFF1FEB52FE4F05911591F2
:1042D00025913491F80120FF12C0F901F595E79579
:1042E000DC01AE0FBF1FED91FC911197E00FF11FA4
:1042F0000190F081E02DCD011F910F91099435952A
:104300002795820F931F1F910F9109941F910F9171
:1043100008954830510508F40895DB011596EC9195
:1043200015971496FC91E230F10580F0E7EBF2E08E
:104330002591349143E050E0FC0150AF47AB32AFE0
:1043400021AFBC01695C7F4F0C94FA3AEE0FFF1F5E
:10435000E954FD4FEDCF4830510508F40895DB01D5
:104360001596EC9115971496FC91E530F10590F4B3
:10437000EE0FFF1FE355FD4F2591349144E050E0CF
:10438000FC0150AF47AB32AF21AFBC01695C7F4F3E
:104390000C94FA3AEDEAF2E0EFCF4830510578F0AC
:1043A000FB012481358145E050E0FC0150AF47AB73
:1043B00031AF22AFBC01695C7F4F0C94FA3A08958B
:1043C0004830510578F0FB012481358146E050E00A
:1043D000FC0150AF47AB31AF22AFBC01695C7F4FEE
:1043E0000C94FA3A08954830510508F40895DB0119
:1043F0001596EC9115971496FC91E230F10580F03A
:10440000E9EAF2E0259134914AE050E0FC0150AF36
:1044100047AB32AF21AFBC01695C7F4F0C94FA3AD5
:10442000EE0FFF1FE755FD4FEDCF4830510578F0F7
:10443000FB01248135814BE050E0FC0150AF47ABDC
:1044400031AF22AFBC01695C7F4F0C94FA3A0895FA
:104450004830510578F0FB01248135814CE050E073
:10446000FC0150AF47AB31AF22AFBC01695C7F4F5D
:104470000C94FA3A08954830510508F40895DB0188
:104480001596EC9115971496FC91E530F10590F492
:10449000EE0FFF1FE156FD4F2591349140E150E0B2
:1044A000FC0150AF47AB32AF21AFBC01695C7F4F1D
:1044B0000C94FA3AEFE9F2E0EFCF4830510578F08A
:1044C000FB012481358141E150E0FC0150AF47AB55
:1044D00031AF22AFBC01695C7F4F0C94FA3A08956A
:1044E0004830510578F0FB012481358144E150E0EA
:1044F000FC0150AF47AB31AF22AFBC01695C7F4FCD
:104500000C94FA3A08954830510508F40895DB01F7
:104510001596EC9115971496FC91E630F10590F400
:10452000EE0FFF1FED56FD4F2591349145E150E010
:10453000FC0150AF47AB32AF21AFBC01695C7F4F8C
:104540000C94FA3AE3E9F2E0EFCF4830510578F005
:10455000FB012481358146E150E0FC0150AF47ABBF
:1045600031AF22AFBC01695C7F4F0C94FA3A0895D9
:104570004830510578F0FB012481358149E150E054
:10458000FC0150AF47AB31AF22AFBC01695C7F4F3C
:104590000C94FA3A08954830510578F0FB012481D3
:1045A00035814EE150E0FC0150AF47AB31AF22AF57
:1045B000BC01695C7F4F0C94FA3A0895483051056C
:1045C00008F40895E1E9F2E02591349143E250E0E6
:1045D000FC0150AF47AB32AF21AFBC01695C7F4FEC
:1045E0000C94FA3A4830510578F0FB01248135816A
:1045F00044E250E0FC0150AF47AB31AF22AFBC0109
:10460000695C7F4F0C94FA3A08954830510578F070
:10461000FB012481358147E250E0FC0150AF47ABFC
:1046200031AF22AFBC01695C7F4F0C94FA3A089518
:104630004830510508F40895DB011596EC91159763
:104640001496FC91E230F10580F0EDE8F2E025915E
:10465000349149E250E0FC0150AF47AB32AF21AF9B
:10466000BC01695C7F4F0C94FA3AEE0FFF1FE357D1
:10467000FD4FEDCF4830510578F0FB0124813581A5
:104680004DE250E0FC0150AF47AB31AF22AFBC016F
:10469000695C7F4F0C94FA3A0895FB01483051054C
:1046A00090F0248135814681578162E070E0FC0101
:1046B00070AF67AB51AF42AF33AF24AFBC01695CA1
:1046C0007F4F0C94FA3A0895FB0148305105A0F051
:1046D00047815681658174812BE230E0FC0130AF67
:1046E00027AB6627772741AF52AF63AF74AFBC01EA
:1046F000695C7F4F0C94FA3A0895FB014C305105E8
:10470000D0F044815581B385A2853185208567E04D
:1047100070E0FC0170AF67AB51AF42AF4B2F5A2F27
:10472000632F722F43AF54AF65AF76AFBC01695CA6
:104730007F4F0C94FA3A0895FB0148305105B0F0D0
:10474000B781A6813581248149E050E0FC0150AF5A
:1047500047AB4B2F5A2F632F722F41AF52AF63AF2E
:1047600074AFBC01695C7F4F0C94FA3A0895FB0169
:104770004C305105D0F044815581B385A2853185F7
:1047800020856DE070E0FC0170AF67AB51AF42AFC8
:104790004B2F5A2F632F722F43AF54AF65AF76AFB5
:1047A000BC01695C7F4F0C94FA3A0895FB014830D4
:1047B0005105B0F0B781A681358124814FE050E0EA
:1047C000FC0150AF47AB4B2F5A2F632F722F41AFD5
:1047D00052AF63AF74AFBC01695C7F4F0C94FA3A7F
:1047E0000895FB014C305105D0F044815581B385CB
:1047F000A2853185208562E170E0FC0170AF67AB76
:1048000051AF42AF4B2F5A2F632F722F43AF54AF8C
:1048100065AF76AFBC01695C7F4F0C94FA3A08959E
:10482000FB014C305105D0F044815581B385A28500
:104830003185208567E170E0FC0170AF67AB51AF57
:1048400042AF4B2F5A2F632F722F43AF54AF65AF38
:1048500076AFBC01695C7F4F0C94FA3A0895FB0176
:104860004C305105D0F044815581B385A285318506
:10487000208565E270E0FC0170AF67AB51AF42AFDD
:104880004B2F5A2F632F722F43AF54AF65AF76AFC4
:10489000BC01695C7F4F0C94FA3A08954830510589
:1048A00078F0FB01248135814FE150E0FC0150AFED
:1048B00047AB31AF22AFBC01695C7F4F0C94FA3A31
:1048C0000895FB014830510590F0448155812681BF
:1048D000378160E270E0FC0170AF67AB51AF42AF6F
:1048E00033AF24AFBC01695C7F4F0C94FA3A089552
:1048F000AF92BF92CF92DF92EF92FF920F931F93EE
:10490000CF93DF937C010E94A3470E9463485C0120
:104910000E949947EC01892B59F4DF91CF911F91A7
:104920000F91FF90EF90DF90CF90BF90AF900895E0
:10493000670186E0C80ED11C85015701EEE0AE0E7E
:10494000B11C05C0C6010E942E41219731F3F80128
:1049500061918F01C6010E944241F70190A99923FC
:10496000A1F3408551854430510560F3B501C7017D
:104970000E945421E7CF8530910540F4FC01EE0FF1
:10498000FF1FE355FD4F859194910895EDEAF2E004
:104990008591949108958230910528F0E9EAF2E03A
:1049A000859194910895FC01EE0FFF1FE755FD4F8F
:1049B0008591949108958530910540F4FC01EE0FA6
:1049C000FF1FE156FD4F859194910895EFE9F2E0C4
:1049D0008591949108958630910540F4FC01EE0F85
:1049E000FF1FED56FD4F859194910895E3E9F2E0A4
:1049F000859194910895E1E9F2E08591949108956B
:104A00008230910528F0EDE8F2E0859194910895C7
:104A1000FC01EE0FFF1FE357FD4F85919491089520
:104A200080915303811119C084E193E00E94DA3A26
:104A300084EF91E090931503809314038AE193E04F
:104A40000E941A410E94A34740E855E260E070E0EE
:104A50000E94094881E08093530384E193E0089524
:104A6000CF93DF9300D000D0CDB7DEB749835A8310
:104A70006B837C830E94A34749815A816B817C812F
:104A80000F900F900F900F90DF91CF910C94E8470B
:104A9000CF93DF9300D000D0CDB7DEB749835A83E0
:104AA0006B837C830E94A34749815A816B817C81FF
:104AB0000F900F900F900F90DF91CF910C940948B9
:104AC0000E94A34740E855E260E070E00C9409487A
:104AD0008F929F92AF92BF92CF92DF92EF92FF920E
:104AE0000F931F93CF93DF9300D000D0CDB7DEB7E5
:104AF0005B0106966C016CE270E029833A834B837C
:104B00005C830E9409414C01FC01108681E0818791
:104B1000138612865C8154A74B8145A73A8136A73C
:104B2000298127A710AB01ABF2AAE3AAC4010C9616
:104B300020E2FC0111922A95E9F7B5010E94A654E2
:104B4000C4010E94EA40F401058114810E94A34738
:104B5000A801485F5F4FB4010E949E48B401C6019E
:104B60000F900F900F900F90DF91CF911F910F91A9
:104B7000FF90EF90DF90CF90BF90AF909F908F907D
:104B80000C941941EF92FF920F931F93CF93DF93F1
:104B900006967C0164E070E00E940941EC011886F1
:104BA00019861B861A860E94EA400D811C810E948C
:104BB000A347A801485F5F4FBE010E949E48BE0107
:104BC000C701DF91CF911F910F91FF90EF900C944F
:104BD0001941CF92DF92EF92FF920F931F93CF93E1
:104BE000DF9300D0CDB7DEB7162F072F06967C01D6
:104BF00068E070E049835A830E9409416C01FC011E
:104C0000108682E0818713861286048715875A8171
:104C1000568749814787C6010E94EA40F60105810F
:104C200014810E94A347A801485F5F4FB6010E940C
:104C30009E48B601C7010F900F90DF91CF911F9151
:104C40000F91FF90EF90DF90CF900C941941EF926D
:104C5000FF920F931F93CF93DF93162F072F069684
:104C60007C0168E070E00E940941EC01188683E055
:104C700089871B861A860C871D871F861E86CE0194
:104C80000E94EA400D811C810E94A347A801485F51
:104C90005F4FBE010E949E48BE01C701DF91CF91C8
:104CA0001F910F91FF90EF900C941941EF92FF929A
:104CB0000F931F93CF93DF93162F072F06967C0138
:104CC00068E070E00E940941EC01188684E0898761
:104CD0001B861A860C871D871F861E86CE010E94A2
:104CE000EA400D811C810E94A347A801485F5F4FE5
:104CF000BE010E949E48BE01C701DF91CF911F9166
:104D00000F91FF90EF900C941941AF92BF92CF9208
:104D1000DF92EF92FF920F931F93CF93DF9300D018
:104D200000D0CDB7DEB7D62EC72E06967C016CE03C
:104D300070E02B833C8349835A830E9409415C01C4
:104D4000FC01108685E0818713861286C486D5868D
:104D50005A815687498147873C812B81C801432F5F
:104D6000522F692F702FF501408B518B628B738B03
:104D7000C5010E94EA40F501058114810E94A34704
:104D8000A801485F5F4FB5010E949E48B501C70169
:104D90000F900F900F900F90DF91CF911F910F9177
:104DA000FF90EF90DF90CF90BF90AF900C9419419F
:104DB000AF92BF92CF92DF92EF92FF920F931F9329
:104DC000CF93DF9300D000D0CDB7DEB7D62EC72E5D
:104DD00006967C016CE070E02B833C8349835A8308
:104DE0000E9409415C01FC01108686E081871386E0
:104DF0001286C486D5865A815687498147873C8169
:104E00002B81C801432F522F692F702FF501408B42
:104E1000518B628B738BC5010E94EA40F5010581BD
:104E200014810E94A347A801485F5F4FB5010E940B
:104E30009E48B501C7010F900F900F900F90DF9122
:104E4000CF911F910F91FF90EF90DF90CF90BF9087
:104E5000AF900C941941AF92BF92CF92DF92EF9234
:104E6000FF920F931F93CF93DF9300D000D0CDB765
:104E7000DEB7D62EC72E06967C016CE070E02B8341
:104E80003C8349835A830E9409415C01FC011086DE
:104E900087E0818713861286C486D5865A81568715
:104EA000498147873C812B81C801432F522F692FAD
:104EB000702FF501408B518B628B738BC5010E9463
:104EC000EA40F501058114810E94A347A801485FCB
:104ED0005F4FB5010E949E48B501C7010F900F902A
:104EE0000F900F90DF91CF911F910F91FF90EF9056
:104EF000DF90CF90BF90AF900C941941EF92FF924A
:104F00000F931F93CF93DF9306967C0164E070E0CC
:104F10000E940941EC01188688E089871B861A8661
:104F2000CE010E94EA400D811C810E94A347A80186
:104F3000485F5F4FBE010E949E48BE01C701DF91DE
:104F4000CF911F910F91FF90EF900C941941CF9248
:104F5000DF92EF92FF920F931F93CF93DF9300D0D6
:104F6000CDB7DEB7162F072F06967C0168E070E0FC
:104F700049835A830E9409416C01FC01108689E033
:104F80008187138612865A81952F4981842F402F5D
:104F9000512F692F782F4487558766877787C601F9
:104FA0000E94EA40F601058114810E94A347A801EE
:104FB000485F5F4FB6010E949E48B601C7010F903F
:104FC0000F90DF91CF911F910F91FF90EF90DF90A5
:104FD000CF900C941941EF92FF920F931F93CF93B0
:104FE000DF93162F072F06967C0168E070E00E9481
:104FF0000941EC0118868AE089871B861A860C878E
:105000001D871F861E86CE010E94EA400D811C81ED
:105010000E94A347A801485F5F4FBE010E949E48BF
:10502000BE01C701DF91CF911F910F91FF90EF90CB
:105030000C941941AF92BF92CF92DF92EF92FF9200
:105040000F931F93CF93DF9300D000D0CDB7DEB77F
:10505000D62EC72E06967C016CE070E02B833C8335
:1050600049835A830E9409415C01FC0110868BE050
:10507000818713861286C486D5865A8156874981D0
:1050800047873C812B81C801432F522F692F702FF6
:10509000F501408B518B628B738BC5010E94EA40F6
:1050A000F501058114810E94A347A801485F5F4F65
:1050B000B5010E949E48B501C7010F900F900F9057
:1050C0000F90DF91CF911F910F91FF90EF90DF90A4
:1050D000CF90BF90AF900C941941AF92BF92CF92F6
:1050E000DF92EF92FF920F931F93CF93DF9300D045
:1050F00000D0CDB7DEB7D62EC72E06967C016CE069
:1051000070E02B833C8349835A830E9409415C01F0
:10511000FC0110868CE0818713861286C486D586B2
:105120005A815687498147873C812B81C801432F8B
:10513000522F692F702FF501408B518B628B738B2F
:10514000C5010E94EA40F501058114810E94A34730
:10515000A801485F5F4FB5010E949E48B501C70195
:105160000F900F900F900F90DF91CF911F910F91A3
:10517000FF90EF90DF90CF90BF90AF900C941941CB
:10518000AF92BF92CF92DF92EF92FF920F931F9355
:10519000CF93DF9300D000D0CDB7DEB7D62EC72E89
:1051A00006967C016CE070E02B833C8349835A8334
:1051B0000E9409415C01FC0110868DE08187138605
:1051C0001286C486D5865A815687498147873C8195
:1051D0002B81C801432F522F692F702FF501408B6F
:1051E000518B628B738BC5010E94EA40F5010581EA
:1051F00014810E94A347A801485F5F4FB5010E9438
:105200009E48B501C7010F900F900F900F90DF914E
:10521000CF911F910F91FF90EF90DF90CF90BF90B3
:10522000AF900C941941EF92FF920F931F93CF937D
:10523000DF9306967C0164E070E00E940941EC0176
:1052400018868EE089871B861A86CE010E94EA4066
:105250000D811C810E94A347A801485F5F4FBE01DA
:105260000E949E48BE01C701DF91CF911F910F910F
:10527000FF90EF900C941941CF92DF92EF92FF9242
:105280000F931F93CF93DF9300D0CDB7DEB7162FC8
:10529000072F06967C0168E070E049835A830E94DC
:1052A00009416C01FC0110868FE08187138612860C
:1052B0005A81952F4981842F402F512F692F782FA4
:1052C0004487558766877787C6010E94EA40F601C2
:1052D000058114810E94A347A801485F5F4FB60172
:1052E0000E949E48B601C7010F900F90DF91CF91A9
:1052F0001F910F91FF90EF90DF90CF900C94194188
:10530000EF92FF920F931F93CF93DF93162F072FE8
:1053100006967C0168E070E00E940941EC01188665
:1053200080E189871B861A860C871D871F861E864B
:10533000CE010E94EA400D811C810E94A347A80172
:10534000485F5F4FBE010E949E48BE01C701DF91CA
:10535000CF911F910F91FF90EF900C9419418F9274
:105360009F92AF92BF92CF92DF92EF92FF920F93F4
:105370001F93CF93DF9300D000D0CDB7DEB7B62E0A
:10538000A72E06966C0160E170E029833A834B8377
:105390005C830E9409414C01FC01108681E18187F8
:1053A00013861286A486B586178616865C81508B76
:1053B0004B81418B3A81328B2981238B9801C70124
:1053C000432F502F692F7E2D448B558B668B778B07
:1053D000C4010E94EA40F401058114810E94A347A0
:1053E000A801485F5F4FB4010E949E48B401C60106
:1053F0000F900F900F900F90DF91CF911F910F9111
:10540000FF90EF90DF90CF90BF90AF909F908F90E4
:105410000C9419418F929F92AF92BF92CF92DF92DC
:10542000EF92FF920F931F93CF93DF9300D000D0A2
:10543000CDB7DEB7B62EA72E06966C0160E170E000
:1054400029833A834B835C830E9409414C01FC0110
:10545000108682E1818713861286A486B586178618
:1054600016865C81508B4B81418B3A81328B29812E
:10547000238B9801C701432F502F692F7E2D448B1A
:10548000558B668B778BC4010E94EA40F40105813D
:1054900014810E94A347A801485F5F4FB4010E9496
:1054A0009E48B401C6010F900F900F900F90DF91AE
:1054B000CF911F910F91FF90EF90DF90CF90BF9011
:1054C000AF909F908F900C941941EF92FF920F93A1
:1054D0001F93CF93DF9306967C0164E070E00E94F7
:1054E0000941EC01188683E189871B861A86CE0163
:1054F0000E94EA400D811C810E94A347A801485FD9
:105500005F4FBE010E949E48BE01C701DF91CF914F
:105510001F910F91FF90EF900C941941CF92DF9261
:10552000EF92FF920F931F93CF93DF9300D0CDB7ED
:10553000DEB7162F072F06967C0168E070E04983DE
:105540005A830E9409416C01FC01108684E1818725
:10555000138612865A81952F4981842F402F512F0F
:10556000692F782F4487558766877787C6010E9401
:10557000EA40F601058114810E94A347A801485F13
:105580005F4FB6010E949E48B601C7010F900F9071
:10559000DF91CF911F910F91FF90EF90DF90CF900F
:1055A0000C941941EF92FF920F931F93CF93DF93C7
:1055B000162F072F06967C0168E070E00E940941D3
:1055C000EC01188685E189871B861A860C871D8762
:1055D0001F861E86CE010E94EA400D811C810E941A
:1055E000A347A801485F5F4FBE010E949E48BE01CD
:1055F000C701DF91CF911F910F91FF90EF900C9415
:1056000019418F929F92AF92BF92CF92DF92EF9209
:10561000FF920F931F93CF93DF9300D000D0CDB7AD
:10562000DEB7B62EA72E06966C0160E170E02983E6
:105630003A834B835C830E9409414C01FC01108634
:1056400086E1818713861286A486B586178616861C
:105650005C81508B4B81418B3A81328B2981238B2A
:105660009801C701432F502F692F7E2D448B558BF6
:10567000668B778BC4010E94EA40F4010581148196
:105680000E94A347A801485F5F4FB4010E949E4853
:10569000B401C6010F900F900F900F90DF91CF9142
:1056A0001F910F91FF90EF90DF90CF90BF90AF9040
:1056B0009F908F900C9419418F929F92AF92BF92BE
:1056C000CF92DF92EF92FF920F931F93CF93DF93CE
:1056D00000D000D0CDB7DEB7B62EA72E06966C014F
:1056E00060E170E029833A834B835C830E94094127
:1056F0004C01FC01108687E1818713861286A486FF
:10570000B586178616865C81508B4B81418B3A811A
:10571000328B2981238B9801C701432F502F692F8A
:105720007E2D448B558B668B778BC4010E94EA409B
:10573000F401058114810E94A347A801485F5F4FCF
:10574000B4010E949E48B401C6010F900F900F90C3
:105750000F90DF91CF911F910F91FF90EF90DF900D
:10576000CF90BF90AF909F908F900C941941EF9283
:10577000FF920F931F93CF93DF9306967C0164E013
:1057800070E00E940941EC01188688E189871B8638
:105790001A86CE010E94EA400D811C810E94A34717
:1057A000A801485F5F4FBE010E949E48BE01C7012D
:1057B000DF91CF911F910F91FF90EF900C941941C1
:1057C000CF92DF92EF92FF920F931F93CF93DF93CD
:1057D00000D0CDB7DEB7162F072F06967C0168E004
:1057E00070E049835A830E9409416C01FC011086D4
:1057F00089E18187138612865A81952F4981842FEA
:10580000402F512F692F782F4487558766877787D8
:10581000C6010E94EA40F601058114810E94A34757
:10582000A801485F5F4FB6010E949E48B601C701BC
:105830000F900F90DF91CF911F910F91FF90EF90FC
:10584000DF90CF900C941941EF92FF920F931F932A
:10585000CF93DF9306967C0164E070E00E940941DB
:10586000EC0118868AE189871B861A86CE010E9480
:10587000EA400D811C810E94A347A801485F5F4F49
:10588000BE010E949E48BE01C701DF91CF911F91CA
:105890000F91FF90EF900C941941EF92FF920F93AC
:1058A0001F93CF93DF9306967C0164E070E00E9423
:1058B0000941EC0118868BE189871B861A86CE0187
:1058C0000E94EA400D811C810E94A347A801485F05
:1058D0005F4FBE010E949E48BE01C701DF91CF917C
:1058E0001F910F91FF90EF900C941941EF92FF924E
:1058F0000F931F93CF93DF9306967C0164E070E0D3
:105900000E940941EC0118868CE189871B861A8662
:10591000CE010E94EA400D811C810E94A347A8018C
:10592000485F5F4FBE010E949E48BE01C701DF91E4
:10593000CF911F910F91FF90EF900C941941EF922E
:10594000FF920F931F93CF93DF9306967C0164E041
:1059500070E00E940941EC0118868DE189871B8661
:105960001A86CE010E94EA400D811C810E94A34745
:10597000A801485F5F4FBE010E949E48BE01C7015B
:10598000DF91CF911F910F91FF90EF900C941941EF
:10599000CF92DF92EF92FF920F931F93CF93DF93FB
:1059A00000D0CDB7DEB7162F072F06967C0168E032
:1059B00070E049835A830E9409416C01FC01108602
:1059C0008EE18187138612865A81952F4981842F13
:1059D000402F512F692F782F448755876687778707
:1059E000C6010E94EA40F601058114810E94A34786
:1059F000A801485F5F4FB6010E949E48B601C701EB
:105A00000F900F90DF91CF911F910F91FF90EF902A
:105A1000DF90CF900C941941CF92DF92EF92FF92DA
:105A20000F931F93CF93DF9300D0CDB7DEB7162F20
:105A3000072F06967C0168E070E049835A830E9434
:105A400009416C01FC0110868FE181871386128663
:105A5000048715875A81568749814787C6010E9466
:105A6000EA40F601058114810E94A347A801485F1E
:105A70005F4FB6010E949E48B601C7010F900F907C
:105A8000DF91CF911F910F91FF90EF90DF90CF901A
:105A90000C941941CF92DF92EF92FF920F931F93D4
:105AA000CF93DF9300D0CDB7DEB7162F072F069622
:105AB0007C0168E070E049835A830E9409416C01CF
:105AC000FC01108680E28187138612860487158781
:105AD0005A81568749814787C6010E94EA40F601EC
