:100000000C94AE020C94D6020C94D6020C94D60238
:100010000C94D6020C94D6020C94D6020C94D60200
:100020000C94D6020C94D6020C94D6020C94D602F0
:100030000C94D6020C94D6020C94D6020C94D602E0
:100040000C9493460C94D6020C94D6020C94D602CF
:100050000C9468470C94D6020C94D6020C94D602E9
:100060000C94D6020C94D6020C94D6020C94D602B0
:10007000A50100007A4406A50100007A4405A50107
:1000800000007A4404B2010000803F06B201000083
:10009000803F05B2010000803F04BC010024744988
:1000A00005BC010024744904CB0100007A4406CB4E
:1000B0000100007A4405CB0100007A4404D8020014
:1000C00000D90200003E090000F3090000320300DD
:1000D00000A0030000D203000009040000590C0036
:1000E000005804000088040000A4040000D60400A6
:1000F000000D050000E30C00005C05000069030032
:10010000008C050000D0050000280D0000270A0023
:10011000002406000040060000840600009E0C003B
:1001200000180B0000D8060000E0060000E80600FA
:1001300000F006000084090000F806000032070005
:1001400000850700008D07000000090000F9070086
:100150000059080000090C0000C308000046080010
:100160000095070000B1070000D0070000C207009B
:1001700000C8070000462F77206465762000492DCF
:100180005620536F75726365204D6574657200ACBF
:10019000C5273717B7D1386F12833A0AD7233CCD1A
:1001A000CCCC3D0804020100000001000200030065
:1001B0000400ACC5273717B7D1386F12833A0AD776
:1001C000233CCDCCCC3D080402010000000100021C
:1001D00000030004007F200000802000004723006F
:1001E0000083210000A5210000C7210000DA2100C2
:1001F00000772300008A20000096230000ED2100F4
:10020000000F22000022220000B1230000982000ED
:1002100000D02300003522000057220000EB23000D
:1002200000A62000006A2200007D2200009F22001C
:10023000000A240000B4200000B2220000C2200006
:1002400000D0200000DE200000EC200000C52200CD
:1002500000482400005B240000FA20000008210070
:1002600000D8220000EC2200002924000016210002
:1002700000FF220000242100001223000032210090
:10028000005E230000402100003423000000000134
:10029000000000000001000200030004000500004F
:1002A0000001000200030004000000010000000142
:1002B00000020003000400000001001E001E001EDA
:1002C000001E001E001E001E002800280028002816
:1002D00000280028002800280028002800280020E6
:1002E00000280013000C000D000E000F001000117C
:1002F000000700080009000A000B000500060000C6
:100300000001000200030004006F12833A0AD723A1
:100310003CCDCCCC3D0000803F000020410000C817
:100320004208040201003000000100000001000248
:100330000003000400050000002041000000002030
:10034000410000C842002000000100030003000239
:10035000000AD7233C0300030003000AD7233C0311
:1003600000030004000AD7233C0200020004006FCF
:1003700012833A01000100040017B7D138010001CF
:10038000000400ACC52737010001000400BD37861A
:10039000350300030002000AD7233CCDCCCC3D033B
:1003A00000030003000AD7233C0000803F03000342
:1003B0000004000AD7233C00002041020002000490
:1003C000006F12833A000020410100010004001771
:1003D000B7D13800002041010001000400ACC5275E
:1003E0003700002041010001000400BD37863500C0
:1003F0000020410000010002000300040005000687
:100400000080C0CC3F0000CD3F0000D33F0000D9AA
:100410003F000000FFFFFFFF000100FF0020001071
:100420000008000400010203B2480000B9480000BF
:10043000D848000064490000F748000084490000E3
:10044000FE480000054900000C4900002449000056
:100450002B4900004F4900006E616E00696E660016
:1004600000407A10F35A00A0724E18090010A5D46B
:10047000E80000E87648170000E40B54020000CAC8
:100480009A3B000000E1F50500008096980000000E
:1004900040420F000000A08601000000102700006D
:1004A0000000E803000000006400000000000A00F3
:1004B000000000000100000000002C76D888DC67F6
:1004C0004F0823DFC1DFAE59E1B1B796E5E3E4534E
:1004D000C63AE651997696E8E6C28426EB898C9B6B
:1004E00062ED407C6FFCEFBC9C9F40F2BAA56FA50B
:1004F000F490055A2AF75C936B6CF9676DC11BFC8D
:10050000E0E40D47FEF520E6B500D0ED902E0300A7
:10051000943577050080841E080000204E0A0000F4
:1005200000C80C333333330F986E12831141EF8DB3
:100530002114893BE65516CFFEE6DB18D1844B38F3
:100540001BF77C1D901DA4BBE424203284725E2224
:100550008100C9F124ECA1E53D27FE3A11241FBE1C
:10056000CFEFD0E1DEBFCDBF12E0A0E0B1E0EAED19
:10057000FAEA02C005900D92A235B107D9F725E03D
:10058000A2E5B2E001C01D92A434B207E1F712E087
:10059000CEEAD2E004C02197FE010E948352CD3AF8
:1005A000D107C9F70E9464100C946B550C9400009D
:1005B0000895CF92DF92EF92FF920F931F93CF9304
:1005C000DF9300D000D0CDB7DEB70E94273AFC0100
:1005D000C080D1800D2C000CEE08FF087601DD24D0
:1005E000CC240E94273AFC0182819381092E000CC1
:1005F000AA0BBB0BBA2FA92F982F8827C82AD92A54
:10060000EA2AFB2A0E94273AFC0124813581C9018C
:10061000330FAA0BBB0BA7019601282B392B4A2BB2
:100620005B2B29833A834B835C830E940A251DEF51
:10063000E12EFF24FA940FEF1FEF29813A814B81BD
:100640005C8168E171E00E9462250F900F900F902D
:100650000F90DF91CF911F910F91FF90EF90DF905E
:10066000CF9008950F931F93CF93DF93EB018A816F
:100670009B810E94401A8C010E94F31AB8010E94CB
:10068000501A0E94F31AFC01808191810E94D524A6
:100690008C010E940A25B8010E947A298A819B81D7
:1006A0000E94CE1DEC010E94C61FBE010E949B1E2F
:1006B0000E94C61FFC01848195810E94B524EC0133
:1006C0000E940A25BE01DF91CF911F910F910C94DA
:1006D00050260F931F93CF93DF93EB018A819B8169
:1006E0000E94CE1D8C010E94C61FB8010E949B1E55
:1006F0000E94C61FFC01848195810E94B5248C0153
:100700000E940A25B8010E9450268A819B810E947E
:10071000401AEC010E94F31ABE010E94501A0E9476
:10072000F31AFC01808191810E94D524EC010E9482
:100730000A25BE01DF91CF911F910F910C947A2968
:100740008F929F92AF92BF92EF92FF920F931F935F
:10075000CF93DF93FB01C281D3810E94C61FDD27A7
:10076000FE01EE0FFF1FEC0FFD1FEE0FFF1FE80F46
:10077000F91F80849184A284B384E680F7800E946C
:100780000A2595018401A701BE010E947F26DF9101
:10079000CF911F910F91FF90EF90BF90AF909F90DE
:1007A0008F9008958F929F92AF92BF92EF92FF9297
:1007B0000F931F93CF93DF93FB01C281D381DD277A
:1007C0000E94C61FBE010E9449200E94C61FFE0152
:1007D000EE0FFF1FEC0FFD1FEE0FFF1FE80FF91FBD
:1007E00080849184A284B384E680F7800E940A25E5
:1007F00095018401A701BE010E94D226DF91CF910D
:100800001F910F91FF90EF90BF90AF909F908F90AE
:1008100008958F929F92AF92BF92CF92DF92EF9204
:10082000FF920F931F93CF93DF9300D000D0CDB7EB
:10083000DEB7FB012481358146815781C280D38098
:10084000DD2429833A834B835C830E94C61F298160
:100850003A814B815C81B6010E9459200E94C61FDB
:10086000F601EE0FFF1FEC0DFD1DEE0FFF1FE80F51
:10087000F91F80849184A284B384E680F7800E946B
:100880000A2595018401A701B6010E9425270F9032
:100890000F900F900F90DF91CF911F910F91FF90CC
:1008A000EF90DF90CF90BF90AF909F908F90089582
:1008B000CF93DF9300D000D0CDB7DEB7FB014281EC
:1008C00053816481758149835A836B837C830E9441
:1008D000C61F49815A816B817C810E94D41F0E946E
:1008E000C61FFC01408151816281738149835A8313
:1008F0006B837C830E940A2549815A816B817C81AC
:100900000F900F900F900F90DF91CF910C94A12733
:10091000CF93DF93FB01828193810E944636EC01E5
:100920000E947237BE010E9459360E947237FC0144
:10093000848195810E94C524EC010E940A25BE0194
:10094000DF91CF910C94E5278F929F92AF92BF9247
:10095000EF92FF920F931F93CF93DF93FB01C2811E
:10096000D3810E947237DD27FE01EE0FFF1FEC0FCF
:10097000FD1FEE0FFF1FE80FF91F80849184A284F2
:10098000B384E680F7800E940A2595018401A701BF
:10099000BE010E941428DF91CF911F910F91FF900B
:1009A000EF90BF90AF909F908F9008958F929F92FD
:1009B000AF92BF92EF92FF920F931F93CF93DF936B
:1009C000FB01C281D381DD270E947237BE010E94E4
:1009D0002E380E947237FE01EE0FFF1FEC0FFD1F35
:1009E000EE0FFF1FE80FF91F80849184A284B38467
:1009F000E680F7800E940A2595018401A701BE01C7
:100A00000E946728DF91CF911F910F91FF90EF9087
:100A1000BF90AF909F908F9008958F929F92AF92CA
:100A2000BF92CF92DF92EF92FF920F931F93CF93DB
:100A3000DF9300D000D0CDB7DEB7FB012481358134
:100A400046815781C280D380DD2429833A834B833A
:100A50005C830E94723729813A814B815C81B601A7
:100A60000E943E380E947237F601EE0FFF1FEC0D18
:100A7000FD1DEE0FFF1FE80FF91F80849184A284F3
:100A8000B384E680F7800E940A2595018401A701BE
:100A9000B6010E94BA280F900F900F900F90DF912F
:100AA000CF911F910F91FF90EF90DF90CF90BF906B
:100AB000AF909F908F900895CF93DF9300D000D098
:100AC000CDB7DEB7FB0142815381648175814983D3
:100AD0005A836B837C830E94723749815A816B8170
:100AE0007C810E94B9370E947237FC01408151819C
:100AF0006281738149835A836B837C830E940A25B8
:100B000049815A816B817C810F900F900F900F90DB
:100B1000DF91CF910C943629AF92BF92CF92DF92A2
:100B2000EF92FF920F931F93CF93DF9300D000D0EB
:100B3000CDB7DEB7FB01E280F3800E94F31A5701C4
:100B4000BB24F501EE0FFF1FEE0FFF1FEE0FFF1F7F
:100B5000E80FF91FC680D780E084F18422813381B9
:100B60004481558129833A834B835C830E940A2503
:100B70008701760129813A814B815C81B5010E9410
:100B8000A9290F900F900F900F90DF91CF911F9197
:100B90000F91FF90EF90DF90CF90BF90AF900895AE
:100BA000AF92BF92CF92DF92EF92FF920F931F937B
:100BB000CF93DF9300D000D0CDB7DEB7FB01248107
:100BC000358146815781A280B380BB2429833A8333
:100BD0004B835C830E94F31A29813A814B815C81AB
:100BE000B5010E94851C0E94F31AF501EE0FFF1F4C
:100BF000EE0FFF1FEE0FFF1FE80FF91FC680D78013
:100C0000E084F184228133814481558129833A83B0
:100C10004B835C830E940A258701760129813A81F2
:100C20004B815C81B5010E94042A0F900F900F90B8
:100C30000F90DF91CF911F910F91FF90EF90DF9078
:100C4000CF90BF90AF900895CF93DF93FB01828147
:100C500093810E94C730EC010E941832BE010E94AD
:100C6000E7300E941832FC01808191810E94E524C6
:100C7000EC010E940A25BE01DF91CF910C94CC2A91
:100C8000AF92BF92CF92DF92EF92FF920F931F939A
:100C9000CF93DF9300D000D0CDB7DEB7FB01E28069
:100CA000F3800E9418325701BB24F501EE0FFF1F9D
:100CB000EE0FFF1FEE0FFF1FE80FF91FC680D78052
:100CC000E084F184228133814481558129833A83F0
:100CD0004B835C830E940A258701760129813A8132
:100CE0004B815C81B5010E94FB2A0F900F900F9001
:100CF0000F90DF91CF911F910F91FF90EF90DF90B8
:100D0000CF90BF90AF900895AF92BF92CF92DF92F5
:100D1000EF92FF920F931F93CF93DF9300D000D0F9
:100D2000CDB7DEB7FB012481358146815781A28092
:100D3000B380BB2429833A834B835C830E9418329F
:100D400029813A814B815C81B5010E94E8320E9481
:100D50001832F501EE0FFF1FEE0FFF1FEE0FFF1F02
:100D6000E80FF91FC680D780E084F18422813381A7
:100D70004481558129833A834B835C830E940A25F1
:100D80008701760129813A814B815C81B5010E94FE
:100D9000562B0F900F900F900F90DF91CF911F91D6
:100DA0000F91FF90EF90DF90CF90BF90AF9008959C
:100DB0000E94C61F0E94F81F0E940A250C941E2C38
:100DC0000E9472370E94DD370E940A250C94472C3E
:100DD0000E94F31A0E941E1C0E940A250C94702C7B
:100DE0000E9418320E9481320E940A250C94992C8C
:100DF000CF93DF93FB01828193818130910521F1B3
:100E00008230910599F0892B19F0DF91CF910895E7
:100E10000E94273AFC01C081D1810E940A25AE01BF
:100E200060E070E0DF91CF910C94062D0E94273A8C
:100E3000FC01C481D5810E940A25AE0162E070E008
:100E4000DF91CF910C94062D0E94273AFC01C281BC
:100E5000D3810E940A25AE0161E070E0DF91CF915D
:100E60000C94062DCF93DF93FB0182819381C48183
:100E7000D58181309105B1F18230910501F1009762
:100E800059F08130910599F182309105E9F0892B73
:100E900041F0DF91CF9108950E94273AFC01D18360
:100EA000C0830E94273AFC01C081D1810E940A259B
:100EB000AE0160E070E0DF91CF910C94442D0E9470
:100EC000273AFC01D583C4830E94273AFC01C481E0
:100ED000D5810E940A25AE0162E070E0DF91CF91DA
:100EE0000C94442D0E94273AFC01D383C2830E94B4
:100EF000273AFC01C281D3810E940A25AE0161E03C
:100F000070E0DF91CF910C94442D0E94273A0E940B
:100F1000813A0E940A250C94822D0E94273A0E9451
:100F20008D3A0E940A250C94AB2DCF93DF93FB01E1
:100F3000828193810E94D730EC010E941832BE0159
:100F40000E9491330E941832FC0183AD94AD0E943F
:100F5000FA24EC010E940A25BE01DF91CF910C9486
:100F60004F2FCF93DF930E941832FC0183AD94ADD5
:100F70000E94FA24EC010E940A25BE01DF91CF9164
:100F80000C947E2F0E940A2560E070E00C94EB2FF9
:100F90000E940A2540E050E060E070E00C941A30B6
:100FA000CF92DF92EF92FF92FB01C280D380E48068
:100FB000F5800E940A25B701A6010E942A25811109
:100FC00008C00E940A25FF90EF90DF90CF900C940C
:100FD000BC250E940A25B701A6010E94AD2F0E94E0
:100FE0000A25B701A601FF90EF90DF90CF900C94F7
:100FF0004225AF92BF92CF92DF92EF92FF920F9372
:101000001F93CF93DF9300D000D0CDB7DEB7FB01A5
:10101000E280F38080919702811107C082E692E01E
:101020000E94D23381E0809397025701BB24F501DF
:10103000EE0FFF1FEE0FFF1FEE0FFF1FEE59FD4FCC
:10104000C184D284E384F48425813681478150852C
:1010500029833A834B835C830E940A2587017601AA
:1010600029813A814B815C81B5010E94032E0F904A
:101070000F900F900F90DF91CF911F910F91FF90E4
:10108000EF90DF90CF90BF90AF900895809197023E
:10109000811107C082E692E00E94D23381E0809302
:1010A000970282E692E00E949D350E940A250C94E8
:1010B000262FAF92BF92CF92DF92EF92FF920F93C3
:1010C0001F93CF93DF9300D000D0CDB7DEB7FB01E5
:1010D0002481358146815781A280B380BB248091D1
:1010E0009702882309F43FC0B50182E692E00E948E
:1010F000303580919702811107C082E692E00E940C
:10110000D23381E080939702F501EE0FFF1FEE0FBF
:10111000FF1FEE0FFF1FEE59FD4FC184D284E38401
:10112000F484258136814781508529833A834B8316
:101130005C830E940A258701760129813A814B81CF
:101140005C81B5010E945E2E0F900F900F900F9062
:10115000DF91CF911F910F91FF90EF90DF90CF9093
:10116000BF90AF90089582E692E029833A834B8343
:101170005C830E94D23381E0809397025C814B8133
:101180003A812981B1CF0F931F93CF93DF9300D082
:1011900000D0CDB7DEB78B010E9464380E947C3846
:1011A000F801628173818091970281110BC082E600
:1011B00092E06B837C830E94D23381E0809397021C
:1011C0007C816B8182E692E00E940436AB01BC0117
:1011D00049835A836B837C830E940A2549815A8103
:1011E0006B817C810E94E22E0E9464380F900F90E8
:1011F0000F900F90DF91CF911F910F910C947E383B
:101200000F931F93CF93DF9300D0CDB7DEB7FB01D1
:10121000828193810E94CD33BC0180919702882303
:1012200009F182E692E00E949D348091970281113B
:1012300007C082E692E00E94D23381E08093970259
:1012400080916502909166020E94F5248C010E94B3
:101250000A25B8010F900F90DF91CF911F910F9148
:101260000C94D42D82E692E069837A830E94D23373
:1012700081E0809397027A816981D3CF8F929F9288
:10128000AF92BF92CF92DF92EF92FF920F931F9394
:10129000CF93DF93EC01FB0182809380A480B58023
:1012A00081E08B870E94B8460E94DA466B017C0180
:1012B0000E94B8468C01C501B4010E9484502FE6FB
:1012C00032E143E85AE30E948951AB01BC01C801F5
:1012D0000E94E646C60ED71EE81EF91ECC86DD86A5
:1012E000EE86FF860E940A25B501A401DF91CF9109
:1012F0001F910F91FF90EF90DF90CF90BF90AF9034
:101300009F908F900C94E3250F931F93CF93DF93BF
:1013100000D000D0CDB7DEB78B010E9472370E949B
:1013200056360E9464380E947A380E94C61F0E9476
:10133000DE1D0E9464380E947438F8010281138116
:101340000E948038B8010E94D839AB01BC014983A2
:101350005A836B837C830E940A2549815A816B8161
:101360007C810F900F900F900F90DF91CF911F9184
:101370000F910C94C22CCF92DF92EF92FF92DB017F
:10138000ED91FC91EE32F10548F5EE0FFF1FEE0FE7
:10139000FF1FE354FF4FC590D590E590F490F60100
:1013A000970135952795E0FE12C0DC01A20FB31F0F
:1013B0002D913C911197F901EC0DFD1D0190F081EB
:1013C000E02DCD01FF90EF90DF90CF900994820F38
:1013D000931FFF90EF90DF90CF900994FF90EF90D4
:1013E000DF90CF900895FB01828193810097C9F02F
:1013F0000197B1F40E94C61F0E94981E0E94643893
:101400000E9476380E9472370E9480370E946438AA
:101410000E9478380E940A2561E070E00C94212631
:1014200008950E9472370E9456360E9464380E94C6
:101430007A380E94C61F0E94DE1D0E9464380E94F6
:1014400074380E940A2560E070E00C9421268F9287
:101450009F92AF92BF92CF92DF92EF92FF920F9343
:101460001F93CF93DF93CDB7DEB72B970FB6F894CA
:10147000DEBF0FBECDBF8C017B010E9464380E948D
:101480007C38F701E280F3800E94F31AB7010E94D2
:10149000801B4B015C010E940A25B501A4010E943A
:1014A000882A81E0F80186830E94B8460E94DA46C5
:1014B0006B017C010E94B84640E050E060E070E4BF
:1014C0000E94E646C60ED71EE81EF91EF801C78226
:1014D000D086E186F2860E9418320E94F31AFC013F
:1014E000E080F1800E94033B0E940B3CFC0196E0EF
:1014F000DE01119601900D929A95E1F70E94033B4F
:1015000040E060E00E94E73B8701000F111F000FE1
:10151000111F000F111F0E191F09F801E656FF4F8A
:10152000E590F49082E00E94803F8B8781E00E94EA
:10153000803F8A87F801E456FF4F25913591459108
:101540005491C501B4010E9489514B015C01F8011D
:10155000E056FF4F84910E94813F898789E00E9475
:10156000803F888784E00E94803F8F830E94033BF6
:1015700069E37FE30E94EF3EBE01695F7F4F0E94F7
:10158000823F63E271E00E94163C6DE57FE30E94BA
:10159000EF3E61EF7EE30E94EF3E65E17FE30E9454
:1015A000EF3EBE01685F7F4F0E94823FBE01675FD2
:1015B0007F4F0E94A73FB501A4010E94D53DBE0107
:1015C000665F7F4F0E94823F69E471E00E94163C93
:1015D00069E37FE30E94EF3EBE01655F7F4F0E949B
:1015E000823FB7010E94163C0E94033B40E061E04D
:1015F0000E94E73B0E94033BBE016F5F7F4F0E944A
:101600000D3C0E9464380E947E382B960FB6F894E9
:10161000DEBF0FBECDBFDF91CF911F910F91FF9025
:10162000EF90DF90CF90BF90AF909F908F900895F4
:101630008F929F92AF92BF92CF92DF92EF92FF92E2
:101640000F931F93CF93DF93CDB7DEB72B970FB6D2
:10165000F894DEBF0FBECDBF8C017B010E946438C1
:101660000E947C38F701E280F3800E941832B701B3
:101670000E9426324B015C010E940A25B501A4019B
:101680000E94DA2B81E0F80186830E94B8460E940E
:10169000DA466B017C010E94B84640E050E060E011
:1016A00070E40E94E646C60ED71EE81EF91EF80139
:1016B000C782D086E186F2860E941832FC01E08063
:1016C000F1800E94F31A0E94033B0E940B3CFC0134
:1016D00096E0DE01119601900D929A95E1F70E9435
:1016E000033B40E060E00E94E73B0E94033B40E098
:1016F00061E00E94E73B8701000F111F000F111FDF
:10170000000F111F0E191F09F801E059FF4FE59056
:10171000F49082E00E94803F8B8781E00E94803FAE
:101720008A87F801EE58FF4F2591359145915491E4
:10173000C501B4010E9489514B015C01F801EA58CE
:10174000FF4F84910E94813F898789E00E94803FFA
:10175000888784E00E94803F8F830E94033B69E377
:101760007FE30E94EF3EBE01695F7F4F0E94823F90
:1017700066E271E00E94163C6DE57FE30E94EF3E59
:1017800061EF7EE30E94EF3E65E17FE30E94EF3E62
:10179000BE01685F7F4F0E94823FBE01675F7F4F3F
:1017A0000E94A73FB501A4010E94D53DBE01665F1E
:1017B0007F4F0E94823F69E471E00E94163C69E31A
:1017C0007FE30E94EF3EBE01655F7F4F0E94823F34
:1017D000B7010E94163C0E94033BBE016F5F7F4F22
:1017E0000E940D3C0E9464380E947E382B960FB6F2
:1017F000F894DEBF0FBECDBFDF91CF911F910F9147
:10180000FF90EF90DF90CF90BF90AF909F908F9020
:101810000895CF92DF92EF92FF92CF93DF93EC0186
:1018200080919702811107C082E692E00E94D23334
:1018300081E08093970282E692E00E9487350E94C1
:101840000A250E94B92E81E08E830E94B8460E942C
:10185000DA466B017C010E94B84640E050E060E04F
:1018600070E40E94E646C60ED71EE81EF91ECF821F
:10187000D886E986FA860E94033B40E060E00E9439
:10188000E73B0E94033B69E271E00E94163C0E9424
:10189000033B40E061E00E94E73B0E94033B6AE3B8
:1018A00071E0DF91CF91FF90EF90DF90CF900C949B
:1018B000163CCF92DF92EF92FF92CF93DF93EC0131
:1018C0000E94C61F0E9469200E940A250E94782754
:1018D00081E08E830E94B8460E94DA466B017C014B
:1018E0000E94B84640E050E060E070E40E94E646A6
:1018F000C60ED71EE81EF91ECF82D886E986FA8664
:101900000E94033B40E060E00E94E73B0E94033BF3
:1019100069E271E00E94163C0E94033B40E061E0F6
:101920000E94E73B0E94033B6AE371E0DF91CF91A5
:10193000FF90EF90DF90CF900C94163CCF92DF9207
:10194000EF92FF92CF93DF93EC010E9418320E9436
:1019500046330E940A250E94B12B81E08E830E94AB
:10196000B8460E94DA466B017C010E94B84640E00E
:1019700050E060E070E40E94E646C60ED71EE81E06
:10198000F91ECF82D886E986FA860E94033B40E0A2
:1019900060E00E94E73B0E94033B69E271E00E9425
:1019A000163C0E94033B40E061E00E94E73B0E943E
:1019B000033B6AE371E0DF91CF91FF90EF90DF90FE
:1019C000CF900C94163CCF92DF92EF92FF92CF9380
:1019D000DF93EC010E9472370E944E380E940A2564
:1019E0000E940D2981E08E830E94B8460E94DA464B
:1019F0006B017C010E94B84640E050E060E070E47A
:101A00000E94E646C60ED71EE81EF91ECF82D88673
:101A1000E986FA860E94033B40E060E00E94E73BD3
:101A20000E94033B69E271E00E94163C0E94033B66
:101A300040E061E00E94E73B0E94033B6AE371E003
:101A4000DF91CF91FF90EF90DF90CF900C94163CF8
:101A5000CF92DF92EF92FF92CF93DF93EC010E943F
:101A6000F31A0E94341D0E940A250E945F2A81E019
:101A70008E830E94B8460E94DA466B017C010E9468
:101A8000B84640E050E060E070E40E94E646C60ED2
:101A9000D71EE81EF91ECF82D886E986FA860E94F4
:101AA000033B40E060E00E94E73B0E94033B69E2A9
:101AB00071E00E94163C0E94033B40E061E00E94FE
:101AC000E73B0E94033B6AE371E0DF91CF91FF9017
:101AD000EF90DF90CF900C94163C0F931F93CF9311
:101AE000DF93CDB7DEB7AB970FB6F894DEBF0FBE6E
:101AF000CDBF0E94033B0E940B3CFC0196E0DE013F
:101B0000919601900D929A95E1F70E94033B40E077
:101B100060E00E94E73B6EE771E0CE0101960E9413
:101B20008E548C010E94033BB8010E94163C0E9417
:101B3000033B40E061E00E94E73B82E00E94803F7F
:101B40008FA381E00E94803F88A782E00E94803FAF
:101B500089A781E00E94803F8AA782E00E94803F9F
:101B60008BA765E771E0CE0101960E948E548C012F
:101B70000E94033BB8010E94163CBE01655D7F4F89
:101B80000E94823F65E17FE30E94EF3E4FEF50E00D
:101B900060E070E00E94E03CBE01665D7F4F0E9405
:101BA000823F6BE471E00E94163CBE01675D7F4F8F
:101BB0000E94823F65E17FE30E94EF3E4FEF50E0DD
:101BC00060E070E00E94E03CBE01685D7F4F0E94D3
:101BD000823F6BE471E00E94163CBE01695D7F4F5D
:101BE0000E94823F65E17FE30E94EF3E4DEF50E0AF
:101BF00060E070E00E94E03C0E94033BBE016F5D2C
:101C00007F4F0E940D3CAB960FB6F894DEBF0FBE1F
:101C1000CDBFDF91CF911F910F910895CF92DF92A9
:101C2000EF92FF92CF93DF93EC010E94D43A82EDC2
:101C300091E0998388831E821F82188619861A86EE
:101C40001B861C861D861E861F860E94033B0E94E3
:101C5000C61F0E9472370E94F31A0E9418328091A8
:101C60009702811107C082E692E00E94D23381E0A0
:101C7000809397020E9480380E940A250E94C61F06
:101C80000E94DE1D0E9464380E9474380E947237E0
:101C900040E050E0BA010E94B9370E94183260E07B
:101CA00070E00E9491330E940A25AE016BEB79E04F
:101CB0000E94EE3ACE010E946D0D789481E08E83F1
:101CC0000E94B8460E94DA466B017C010E94B84629
:101CD00040E050E060E070E40E94E646C60ED71E89
:101CE000E81EF91ECF82D886E986FA86DF91CF9169
:101CF000FF90EF90DF90CF9008952F923F924F92F8
:101D00005F926F927F928F929F92AF92BF92CF928B
:101D1000DF92EF92FF920F931F93CF93DF93CDB794
:101D2000DEB72B970FB6F894DEBF0FBECDBFF62EF1
:101D300029013A010E94033B0E940B3CFC0196E002
:101D4000DE01119601900D929A95E1F70E94033BF6
:101D500040E060E00E94E73BF11099C00E94033B25
:101D600040E061E00E94E73BEE2009F470C084018E
:101D7000000F111F000F111F000F111F0819190963
:101D8000F801E059FF4FE590F49082E00E94803F17
:101D90008F8381E00E94803F8887F801EE58FF4FD3
:101DA0002591359145915491C601B5010E94895103
:101DB0004B015C01F801EA58FF4F84910E94813F7A
:101DC000898789E00E94803F8A8784E00E94803F63
:101DD0008B870E94033B69E37FE30E94EF3EBE01D5
:101DE000655F7F4F0E94823F66E271E00E94163C71
:101DF0006DE57FE30E94EF3E61EF7EE30E94EF3EE0
:101E000065E17FE30E94EF3EBE01665F7F4F0E9467
:101E1000823FBE01675F7F4F0E94A73FB501A401CB
:101E20000E94D53DBE01685F7F4F0E94823F69E4FA
:101E300071E00E94163C69E37FE30E94EF3EBE0121
:101E4000695F7F4F0E94823FB7010E94163C0E944B
:101E5000033BBE016F5F7F4F0E940D3C2B960FB678
:101E6000F894DEBF0FBECDBFDF91CF911F910F91D0
:101E7000FF90EF90DF90CF90BF90AF909F908F90AA
:101E80007F906F905F904F903F902F900895F80152
:101E9000EE0FFF1FEE0FFF1FEE0FFF1FCF01801B86
:101EA000910B8C01FC01E656FF4F2590349082E0A7
:101EB0000E94803F8F8381E00E94803F8887F801E5
:101EC000E456FF4F2591359145915491C301B201DC
:101ED0000E9489512B013C01F801E056FF4F84918B
:101EE0000E94813F898789E00E94803F8A8784E041
:101EF0000E94803F8B870E94033B69E37FE30E943F
:101F0000EF3EBE01655F7F4F0E94823F63E271E05A
:101F10000E94163C6DE57FE30E94EF3E61EF7EE399
:101F20000E94EF3E65E17FE30E94EF3EBE01665FE7
:101F30007F4F0E94823FBE01675F7F4F0E94A73F95
:101F4000B301A2010E94D53DBE01685F7F4F0E9490
:101F5000823F69E471E00E94163C69E37FE30E94DE
:101F6000EF3EBE01695F7F4F0E94823FB1010E9438
:101F7000163CF4CE2F923F924F925F926F927F92D7
:101F80008F929F92AF92BF92CF92DF92EF920F9378
:101F90001F93CF93DF9300D000D0CDB7DEB71C01E5
:101FA000FC018385811125C00E94F31A0E94481DFF
:101FB0000E9418320E945A330E94F31AFC0180AD2D
:101FC00091AD892B59F10F900F900F900F90DF91E9
:101FD000CF911F910F91EF90DF90CF90BF90AF9076
:101FE0009F908F907F906F905F904F903F902F9039
:101FF00008950E94B8460E94DA46F10104851585CD
:1020000026853785601771078207930768F2F1010B
:1020100013860E940A250E945A25C6CF0E941832B4
:10202000FC0180AD91AD892B71F60E94F31A0E94DC
:10203000A01D9B01AC0169833A834B835C830E94A2
:1020400018320E9469335B016C01F101868129819C
:102050003A814B815C81811119C029833A834B837A
:102060005C830E941832FC01808091800E94F31AE8
:10207000FC0100811181EE24E39429813A814B8196
:102080005C8161E0C1010E947D0E9DCF29833A836E
:102090004B835C830E94B8460E94DA46F101478078
:1020A00050846184728429813A814B815C816415FA
:1020B00075058605970518F0F1011682CECFF1015E
:1020C0008681811180CFC9CF2FEF8FE398E3215014
:1020D00080409040E1F700C0000080918F028111A4
:1020E00007C082E592E00E940E0E81E080938F028D
:1020F0000E94B33A80E090E008952F923F924F9271
:102100005F926F927F928F929F92AF92BF92CF9287
:10211000DF92EF92FF920F931F93CF93DF938C0187
:10212000EB01FC01E080F1806E157F050CF065C0CD
:1021300082809380A480B580A5019401608571851B
:10214000828593850E94644F2B013C01F8016681D2
:1021500077816E197F09072E000C880B990B0E945E
:1021600086509B01AC01C301B2010E94D64F2B01E6
:102170003C01CE19DF09BE01DD0F880B990B0E94CF
:1021800086509B01AC01C301B2010E9489519B01A1
:10219000AC01C501B4010E94654F8B01D82FC92F36
:1021A0002CE53FE842E85FE3C501B4010E94895194
:1021B0006B017C019B01AC01B8018D2F9C2F0E940B
:1021C000D14F87FDEDC0502F412F9E01652F742FF9
:1021D000832F922FDF91CF911F910F91FF90EF905E
:1021E000DF90CF90BF90AF909F908F907F906F9037
:1021F0005F904F903F902F900895FC01208C318C80
:10220000261637060CF47EC0A4E0B0E00DC04C17D3
:102210005D070CF0CAC09C01CB01BF2DAC01421B75
:10222000530B42305105FCF02B2F30E06A2F70E049
:10223000C901860F971F95958795F82EFC01EE0F23
:10224000FF1FE80FF91FEE0FFF1FE00FF11F408186
:102250005181C417D507DCF6A82FAC01421B530BE4
:10226000423051050CF7F901EE0FFF1FE20FF31F8B
:10227000EE0FFF1FE00FF11F82809380A480B580D6
:10228000E080F1809C01220F331F820F931F880F83
:10229000991F080F191FA5019401F801628173812C
:1022A000848195810E94644F2B013C01F80160817B
:1022B00071816E197F09072E000C880B990B0E9403
:1022C00086509B01AC01C301B2010E94D64F2B0185
:1022D0003C01CE19DF09BE01DD0F880B990B0E946E
:1022E00086509B01AC01C301B2010E9489519B0140
:1022F000AC01C501B4010E94654F562F472F382FFE
:10230000292F64CFC28CD38CE48CF58C848895887B
:10231000A688B78802891389A5019401C701B6016F
:102320000E94644F2B013C01B101601B710B072E11
:10233000000C880B990B0E9486509B01AC01C301D5
:10234000B2010E94D64F2B013C01C01BD10BBE0134
:10235000DD0F880B990B0E9486509B01AC01C301D5
:10236000B2010E9489519B01AC01C501B4010E94D8
:10237000654F8B01D82FC92F2CE53FE842E85FE37A
:10238000C701B6010E9489516B017C019B01AC0120
:10239000B8018D2F9C2F0E94845118160CF013CF7A
:1023A0005C2D4D2D3E2D2F2D11CF52814381348137
:1023B00025810CCF2F923F924F925F926F927F9226
:1023C0008F929F92AF92BF92CF92DF92EF92FF9245
:1023D0000F931F93CF93DF93CDB7DEB728970FB638
:1023E000F894DEBF0FBECDBF8C016A017B01FC01FA
:1023F00082809380A480B5809A01AB01C501B401AD
:102400000E948451F80118160CF079C06080718028
:10241000B301072C000C880B990B0E94865069832E
:102420007A838B839C83F8016681778166197709AB
:10243000072E000C880B990B0E9486502B013C0143
:10244000A5019401F80160857185828593850E94BC
:10245000644F9B01AC01C301B2010E94D64F2B0116
:102460003C01A5019401C701B6010E94644F9B0184
:10247000AC01C301B2010E94895129813A814B818B
:102480005C810E94654F8B015C012CE53FE842E8CE
:102490005FE369817A818B819C810E9489516B0104
:1024A0007C019B01AC01B801C5010E94D14F87FDA1
:1024B00023C1502F412F3A2D2B2D652F742F832FA1
:1024C000922F0E94F6510E944850CB0128960FB6D9
:1024D000F894DEBF0FBECDBFDF91CF911F910F915A
:1024E000FF90EF90DF90CF90BF90AF909F908F9034
:1024F0007F906F905F904F903F902F900895828CC7
:10250000938CA48CB58CA7019601C501B4010E94DF
:10251000D14F87FD94C0F4E0F9831D8211C0A7015B
:102520009601C301B2010E94D14F87FFEAC0450165
:102530005101FE81FD83C50188199909029754F163
:102540002D81822E912C3981232E312C5401A20C05
:10255000B31CB594A794AE82C501880F991F8A0D4C
:102560009B1D880F991FFC01E00FF11FF887EF8377
:102570004280538064807580A7019601C301B20137
:102580000E94845118165CF6A982C5018819990920
:102590000297B4F6F401EE0FFF1FE80DF91DEE0FE0
:1025A000FF1FE00FF11F2080318042805380648044
:1025B0007580C501880F991F8A0D9B1D880F991F73
:1025C000080F191FF8016081718162197309072EC4
:1025D000000C880B990B0E9486504B015C01A301F3
:1025E0009201F80162817381848195810E94644F18
:1025F0009B01AC01C501B4010E94D64F4B015C01A7
:10260000A3019201C701B6010E94644F9B01AC0176
:10261000C501B4010E9489516B017C01B101330CE9
:10262000880B990B0E9486509B01AC01C701B60133
:102630000E94654F562F472F382F292F3ECFF80184
:10264000208C318C2289338938872F8344885588A0
:1026500066887788B101621B730B072E000C880B0C
:10266000990B0E94865069837A838B839C83A30194
:102670009201C501B4010E94644F9B01AC016981C4
:102680007A818B819C810E94D64F4B015C01A30112
:102690009201C701B6010E94644F9B01AC01C501C4
:1026A000B4010E9489516B017C01EF81F885BF0163
:1026B000FF0F880B990B0E9486509B01AC01C7014C
:1026C000B6010E94654F8B015C01B101330C880B90
:1026D000990B0E9486502CE53FE842E85FE30E9498
:1026E00089516B017C019B01AC01B801C5010E94BD
:1026F000845118160CF0DDCE5C2D4D2D3E2D2F2D66
:10270000DCCEEF81F88560817181072E000C880B8B
:10271000990B0E948650562F472F382F292FCDCE48
:102720002F923F924F925F926F927F928F929F92E1
:10273000AF92BF92CF92DF92EF92FF920F931F93CF
:10274000CF93DF938C01EB01FC01E080F1806E15EB
:102750007F050CF065C082809380A480B580A501C0
:10276000940160857185828593850E94644F2B0159
:102770003C01F801668177816E197F09072E000CF4
:10278000880B990B0E9486509B01AC01C301B201DA
:102790000E94D64F2B013C01CE19DF09BE01DD0F8F
:1027A000880B990B0E9486509B01AC01C301B201BA
:1027B0000E9489519B01AC01C501B4010E94654F83
:1027C0008B01D82FC92F2CE53FE842E85FE3C50114
:1027D000B4010E9489516B017C019B01AC01B801DD
:1027E0008D2F9C2F0E94D14F87FDEDC0502F412F80
:1027F0009E01652F742F832F922FDF91CF911F9110
:102800000F91FF90EF90DF90CF90BF90AF909F908F
:102810008F907F906F905F904F903F902F90089592
:10282000FC01208C318C261637060CF47EC0A4E007
:10283000B0E00DC04C175D070CF0CAC09C01CB0185
:10284000BF2DAC01421B530B42305105FCF02B2F26
:1028500030E06A2F70E0C901860F971F9595879524
:10286000F82EFC01EE0FFF1FE80FF91FEE0FFF1F00
:10287000E00FF11F40815181C417D507DCF6A82F66
:10288000AC01421B530B423051050CF7F901EE0F1E
:10289000FF1FE20FF31FEE0FFF1FE00FF11F8280FB
:1028A0009380A480B580E080F1809C01220F331FCB
:1028B000820F931F880F991F080F191FA5019401FC
:1028C000F80162817381848195810E94644F2B019C
:1028D0003C01F801608171816E197F09072E000C9F
:1028E000880B990B0E9486509B01AC01C301B20179
:1028F0000E94D64F2B013C01CE19DF09BE01DD0F2E
:10290000880B990B0E9486509B01AC01C301B20158
:102910000E9489519B01AC01C501B4010E94654F21
:10292000562F472F382F292F64CFC28CD38CE48C9D
:10293000F58C84889588A688B78802891389A501B3
:102940009401C701B6010E94644F2B013C01B10103
:10295000601B710B072E000C880B990B0E94865090
:102960009B01AC01C301B2010E94D64F2B013C0177
:10297000C01BD10BBE01DD0F880B990B0E94865046
:102980009B01AC01C301B2010E9489519B01AC01C2
:10299000C501B4010E94654F8B01D82FC92F2CE5CA
:1029A0003FE842E85FE3C701B6010E9489516B012D
:1029B0007C019B01AC01B8018D2F9C2F0E9484519A
:1029C00018160CF013CF5C2D4D2D3E2D2F2D11CF51
:1029D00052814381348125810CCF2F923F924F92B7
:1029E0005F926F927F928F929F92AF92BF92CF929F
:1029F000DF92EF92FF920F931F93CF93DF93CDB7A8
:102A0000DEB728970FB6F894DEBF0FBECDBF8C019E
:102A10006A017B01FC0182809380A480B5809A01C9
:102A2000AB01C501B4010E948451F80118160CF0E5
:102A300079C060807180B301072C000C880B990B62
:102A40000E94865069837A838B839C83F801668118
:102A5000778166197709072E000C880B990B0E9465
:102A600086502B013C01A5019401F8016085718518
:102A7000828593850E94644F9B01AC01C301B20122
:102A80000E94D64F2B013C01A5019401C701B6015C
:102A90000E94644F9B01AC01C301B2010E948951A5
:102AA00029813A814B815C810E94654F8B015C01D9
:102AB0002CE53FE842E85FE369817A818B819C8164
:102AC0000E9489516B017C019B01AC01B801C501D9
:102AD0000E94D14F87FD23C1502F412F3A2D2B2D1E
:102AE000652F742F832F922F0E94F6510E94485019
:102AF000CB0128960FB6F894DEBF0FBECDBFDF9195
:102B0000CF911F910F91FF90EF90DF90CF90BF90EA
:102B1000AF909F908F907F906F905F904F903F907D
:102B20002F900895828C938CA48CB58CA70196016C
:102B3000C501B4010E94D14F87FD94C0F4E0F98330
:102B40001D8211C0A7019601C301B2010E94D14F9D
:102B500087FFEAC045015101FE81FD83C501881947
:102B60009909029754F12D81822E912C3981232EBF
:102B7000312C5401A20CB31CB594A794AE82C501AC
:102B8000880F991F8A0D9B1D880F991FFC01E00F6C
:102B9000F11FF887EF834280538064807580A7011E
:102BA0009601C301B2010E94845118165CF6A982F5
:102BB000C501881999090297B4F6F401EE0FFF1FB9
:102BC000E80DF91DEE0FFF1FE00FF11F208031808F
:102BD0004280538064807580C501880F991F8A0DDB
:102BE0009B1D880F991F080F191FF80160817181C3
:102BF00062197309072E000C880B990B0E948650EE
:102C00004B015C01A3019201F8016281738184810F
:102C100095810E94644F9B01AC01C501B4010E94E3
:102C2000D64F4B015C01A3019201C701B6010E947E
:102C3000644F9B01AC01C501B4010E9489516B0135
:102C40007C01B101330C880B990B0E9486509B01CB
:102C5000AC01C701B6010E94654F562F472F382F90
:102C6000292F3ECFF801208C318C22893389388777
:102C70002F834488558866887788B101621B730B5F
:102C8000072E000C880B990B0E94865069837A836B
:102C90008B839C83A3019201C501B4010E94644F00
:102CA0009B01AC0169817A818B819C810E94D64F06
:102CB0004B015C01A3019201C701B6010E94644F60
:102CC0009B01AC01C501B4010E9489516B017C01DB
:102CD000EF81F885BF01FF0F880B990B0E9486508A
:102CE0009B01AC01C701B6010E94654F8B015C01DD
:102CF000B101330C880B990B0E9486502CE53FE8FC
:102D000042E85FE30E9489516B017C019B01AC01A9
:102D1000B801C5010E94845118160CF0DDCE5C2D5F
:102D20004D2D3E2D2F2DDCCEEF81F88560817181F8
:102D3000072E000C880B990B0E948650562F472FA8
:102D4000382F292FCDCE2F923F924F925F926F92C4
:102D50007F928F929F92AF92BF92CF92DF92EF922B
:102D6000FF921F93CF93DF93CDB7DEB72C970FB6AB
:102D7000F894DEBF0FBECDBF1C016A017B01DC01F0
:102D80008D909D90AD90BC901397481559056A059C
:102D90007B050CF07DC014962D913D914D915C9179
:102DA000179729833A834B835C831C966D917D91A1
:102DB0008D919C911F970E94644F2B013C01F10162
:102DC00080859185A285B385BC01CD0168197909FB
:102DD0008A099B090E9486509B01AC01C301B20184
:102DE0000E94D64F2B013C01C701B6016819790931
:102DF0008A099B090E9486509B01AC01C301B20164
:102E00000E9489519B01AC0169817A818B819C81EF
:102E10000E94654FF62E172F982EA92E2CE53FE81D
:102E200042E85FE369817A818B819C810E948951AC
:102E3000B62EC72ED82EE92E262F372F482F592FE2
:102E40006F2D712F892D9A2D0E94D14F87FD37C18B
:102E50005F2D412F392D2A2D652F742F832F922F0F
:102E60002C960FB6F894DEBF0FBECDBFDF91CF9189
:102E70001F91FF90EF90DF90CF90BF90AF909F9009
:102E80008F907F906F905F904F903F902F9008951C
:102E9000DC0190964D905D906D907C9093974416D8
:102EA0005506660677060CF495C014E0B12C0FC0E9
:102EB0004C155D056E057F050CF006C19C01CD012A
:102EC000BA2CAC01421B530B423051051CF12B2D87
:102ED00030E0A12FB0E0C9018A0F9B1F959587951F
:102EE000A82EFC01EE0FFF1FEE0FFF1FEE0FFF1FBE
:102EF000E20DF31D4081518162817381C416D506B4
:102F0000E606F706ACF6182FAC01421B530B423015
:102F10005105ECF6220F331F220F331F220F331FF0
:102F2000F101E20FF31F84809580A680B780208195
:102F300031814281538129833A834B835C83880F9B
:102F4000991F880F991F880F991F280E391EA501F8
:102F50009401D10114966D917D918D919C9117975B
:102F60000E94644F2B013C01F10180819181A2817B
:102F7000B381BC01CD0129813A814B815C81621B07
:102F8000730B840B950B0E9486509B01AC01C3010F
:102F9000B2010E94D64F2B013C01C701B601298125
:102FA0003A814B815C81621B730B840B950B0E94F1
:102FB00086509B01AC01C301B2010E9489519B0163
:102FC000AC01C501B4010E94654F562F472F382F21
:102FD000292F42CF94968D909D90AD90BC9097975D
:102FE0005C962D913D914D915C915F9729833A8339
:102FF0004B835C8358962D913D914D915C915B97ED
:103000002D833E834F83588729813A814B815C8190
:10301000C501B4010E94644F69877A878B879C87BA
:10302000C301B2012D813E814F815885621B730B14
:10303000840B950B0E9486509B01AC0169857A85B3
:103040008B859C850E94D64F2B013C01C701B601A0
:103050002D813E814F815885621B730B840B950B2C
:103060000E9486509B01AC01C301B2010E948951AC
:103070009B01AC0169817A818B819C810E94654FA3
:10308000F62E172F3C012CE53FE842E85FE3C5012F
:10309000B4010E948951B62EC72ED82EE92E262FB4
:1030A000372F482F592F6F2D712FC3010E94845144
:1030B00018162CF05F2D412F362D272DCDCE5B2DF0
:1030C0004C2D3D2D2E2DC8CE548145813681278132
:1030D000C3CE2F923F924F925F926F927F928F92C8
:1030E0009F92AF92BF92CF92DF92EF92FF921F9387
:1030F000CF93DF93CDB7DEB72C970FB6F894DEBF32
:103100000FBECDBF1C016A017B01DC018D909D903B
:10311000AD90BC901397481559056A057B050CF0D6
:103120007DC014962D913D914D915C911797298307
:103130003A834B835C831C966D917D918D919C911C
:103140001F970E94644F2B013C01F10180859185FE
:10315000A285B385BC01CD01681979098A099B094B
:103160000E9486509B01AC01C301B2010E94D64F60
:103170002B013C01C701B601681979098A099B092D
:103180000E9486509B01AC01C301B2010E9489518B
:103190009B01AC0169817A818B819C810E94654F82
:1031A000F62E172F982EA92E2CE53FE842E85FE374
:1031B00069817A818B819C810E948951B62EC72EAC
:1031C000D82EE92E262F372F482F592F6F2D712FEC
:1031D000892D9A2D0E94D14F87FD37C15F2D412F38
:1031E000392D2A2D652F742F832F922F2C960FB6F1
:1031F000F894DEBF0FBECDBFDF91CF911F91FF903E
:10320000EF90DF90CF90BF90AF909F908F907F9086
:103210006F905F904F903F902F900895DC019096B3
:103220004D905D906D907C90939744165506660680
:1032300077060CF495C014E0B12C0FC04C155D0559
:103240006E057F050CF006C19C01CD01BA2CAC01C6
:10325000421B530B423051051CF12B2D30E0A12FA6
:10326000B0E0C9018A0F9B1F95958795A82EFC0198
:10327000EE0FFF1FEE0FFF1FEE0FFF1FE20DF31DFE
:103280004081518162817381C416D506E606F70636
:10329000ACF6182FAC01421B530B42305105ECF633
:1032A000220F331F220F331F220F331FF101E20FB2
:1032B000F31F84809580A680B78020813181428170
:1032C000538129833A834B835C83880F991F880F2E
:1032D000991F880F991F280E391EA5019401D1014D
:1032E00014966D917D918D919C9117970E94644FDA
:1032F0002B013C01F10180819181A281B381BC014C
:10330000CD0129813A814B815C81621B730B840B57
:10331000950B0E9486509B01AC01C301B2010E9433
:10332000D64F2B013C01C701B60129813A814B815F
:103330005C81621B730B840B950B0E9486509B0172
:10334000AC01C301B2010E9489519B01AC01C501CE
:10335000B4010E94654F562F472F382F292F42CF97
:1033600094968D909D90AD90BC9097975C962D9182
:103370003D914D915C915F9729833A834B835C83A8
:1033800058962D913D914D915C915B972D833E8395
:103390004F83588729813A814B815C81C501B401F3
:1033A0000E94644F69877A878B879C87C301B2012B
:1033B0002D813E814F815885621B730B840B950BC9
:1033C0000E9486509B01AC0169857A858B859C851E
:1033D0000E94D64F2B013C01C701B6012D813E81D1
:1033E0004F815885621B730B840B950B0E9486508E
:1033F0009B01AC01C301B2010E9489519B01AC0148
:1034000069817A818B819C810E94654FF62E172FEE
:103410003C012CE53FE842E85FE3C501B4010E94AE
:103420008951B62EC72ED82EE92E262F372F482F9A
:10343000592F6F2D712FC3010E94845118162CF043
:103440005F2D412F362D272DCDCE5B2D4C2D3D2DC3
:103450002E2DC8CE5481458136812781C3CE089553
:10346000549A559808955C9808955C9A0895089523
:10347000089589B185FB882780F991E0892708950F
:103480008530910540F4FC01EE0FFF1FE855FE4F1B
:10349000859194910895E8EAF1E0859194910895D9
:1034A0004F925F926F927F928F929F92AF92BF9254
:1034B000EF92FF920F931F93CF93DF93EC018B0159
:1034C000FC01619371937F01CB010E9480305C010C
:1034D0000E94A530A701B5010E94D245889709F442
:1034E00066C0F801EE0FFF1FEE0FFF1FE157FE4F02
:1034F00085909590A590B490C501B401905823E3B0
:10350000422E542C23EF622E77247A944A825B82D7
:103510006C827D826E837F838887998731EE432E0C
:103520003AE7532E34EF632E77247A944A865B86EB
:103530006C867D8626E636E646E65FE30E94895184
:103540006E877F87888B998B1A8A1B8A1C8A1D8AB3
:103550001E8A1F8A188E198E8FE195E8ABE0B0E0C5
:103560008A8F9B8FAC8FBD8F26E636E646E65FE3FB
:10357000C501B4010E9489516E8F7F8F88A399A3E2
:103580008DEC9CECACE0B0E08AA39BA3ACA3BDA304
:103590008EA29FA2A8A6B9A6888199810E94803098
:1035A0005C010E94A530A701B5010E943C46AA9685
:1035B000CE010E940342F801ED55FE4F0491682FA1
:1035C000607F602BCE01DF91CF911F910F91FF9013
:1035D000EF90BF90AF909F908F907F906F905F9093
:1035E0004F900C94E5418091D902811186C01092D0
:1035F000A1021092A2021092A3021092A4021092B1
:10360000A5021092A6021092A7021092A802109290
:10361000A9021092AA021092AB021092AC02109270
:10362000AD021092AE021092AF021092B002109250
:10363000B1021092B2021092B3021092B402109230
:10364000B5021092B6021092B7021092B802109210
:10365000B9021092BA021092BB021092BC021092F0
:10366000BD021092BE021092BF021092C0021092D0
:10367000C1021092C2021092C3021092C4021092B0
:10368000C5021092C6021092C7021092C80260E0F2
:1036900089EC92E00E94E2418AEC92E00E945D4354
:1036A00088ED91E09093CB028093CA028AEC92E07D
:1036B0000E94784360E170E08DEC92E00E94A24AA3
:1036C00089EC92E00E947942682F607F89EC92E059
:1036D0000E94A54289EC92E00E942F42682F607FF1
:1036E00089EC92E00E945B4262E070E08FE992E038
:1036F0000E94501A81E08093D9028FE992E00895E8
:10370000AF92BF92CF92DF92EF92FF920F931F93EF
:10371000CF93DF93CDB7DEB727970FB6F894DEBF10
:103720000FBECDBF5C01613081E0780710F060E032
:1037300071E0CE0101960E94244B2B813C818D814A
:103740009E812817390709F452C08501055D1F4F76
:1037500016C00E9422446B017C0144275527BA0100
:103760004C195D096E097F09CE0101960E943E4BFE
:103770002B813C818D819E8128173907C1F10E94E0
:10378000273AFC01C080D1800D2C000CEE08FF0808
:103790007601DD24CC240E94273AFC0182819381AA
:1037A000092E000CAA0BBB0BBA2FA92F982F882724
:1037B000C82AD92AEA2AFB2A0E94273AFC018481D6
:1037C0009581092E000CAA0BBB0BC82AD92AEA2A1C
:1037D000FB2A60E0C801C114D104F3E0EF06F10454
:1037E00008F0B7CF0E942244AB01BC01BDCFCE018F
:1037F00001960E94604B0E94F6510E944850AB0116
:10380000BC01C50102960E94A3166B017C01CE018A
:1038100001960E94394BC701B60127960FB6F8945E
:10382000DEBF0FBECDBFDF91CF911F910F91FF90F3
:10383000EF90DF90CF90BF90AF900895CF92DF923E
:10384000EF92FF920F931F93CF93DF93EC01E881E8
:10385000F981EE0FFF1FEE0FFF1FE157FE4FC590DE
:10386000D590E590F490C701B601905803E313E3B7
:1038700023EF3FEF0A831B832C833D836E837F837B
:103880008887998701EE1AE724EF3FEF0A871B87A5
:103890002C873D8726E636E646E65FE30E9489519F
:1038A0006E877F87888B998B1A8A1B8A1C8A1D8A50
:1038B0001E8A1F8A188E198E8FE195E8ABE0B0E062
:1038C0008A8F9B8FAC8FBD8F26E636E646E65FE398
:1038D000C701B6010E9489516E8F7F8F88A399A37B
:1038E0008DEC9CECACE0B0E08AA39BA3ACA3BDA3A1
:1038F000CEA2DFA2E8A6F9A6DF91CF911F910F918A
:10390000FF90EF90DF90CF9008954F925F926F926B
:103910007F928F929F92AF92BF92CF92DF92EF925F
:10392000FF920F931F93CF93DF93CDB7DEB72C9702
:103930000FB6F894DEBF0FBECDBF4C015B0129016D
:103940003A0160E870E0CE0101960E94A24A8B85A0
:103950009C85892B09F457C08401055D1F4F14C055
:103960000E9422446B017C0144275527BA014C195F
:103970005D096E097F09CE0101960E94BE4A8B85C2
:103980009C85892B09F43FC00E94273AFC01C08026
:10399000D1800D2C000CEE08FF087601DD24CC242C
:1039A0000E94273AFC0182819381092E000CAA0B08
:1039B000BB0BBA2FA92F982F8827C82AD92AEA2A01
:1039C000FB2A0E94273AFC0184819581092E000C74
:1039D000AA0BBB0BC82AD92AEA2AFB2A60E0C80135
:1039E000C114D104F3E0EF06F10408F0B9CF0E944E
:1039F0002244AB01BC01CE0101960E94BE4A8B85D8
:103A00009C85892B09F6CE0101960E94F94A0E94F5
:103A1000F651BB24AA0CBB1CAA0CBB1CAA0CBB1CD9
:103A20008A0C9B1C0E944850F40162837383848338
:103A3000958346825782608671862C960FB6F894DD
:103A4000DEBF0FBECDBFDF91CF911F910F91FF90D1
:103A5000EF90DF90CF90BF90AF909F908F907F902E
:103A60006F905F904F9008950F931F93CF93DF93C4
:103A7000EC01899199910E9480308C010E94A530BF
:103A8000AE01B801DF91CF911F910F910C943C468C
:103A9000CF92DF92EF92FF920F931F93CF93DF931A
:103AA000EC010E94273AFC01C080D1800D2C000C53
:103AB000EE08FF087601DD24CC240E94273AFC01A1
:103AC00082819381092E000CAA0BBB0BBA2FA92F60
:103AD000982F8827C82AD92AEA2AFB2A0E94273A3F
:103AE000FC0184819581092E000CAA0BBB0BC82A0E
:103AF000D92AEA2AFB2A60E0CE018B96C114D104B0
:103B0000F3E0EF06F104B8F00E9422448B019C011F
:103B100044275527BA01401B510B620B730BCE0192
:103B20008E96DF91CF911F910F91FF90EF90DF90D4
:103B3000CF900C94BE4A0E942244AB01BC01EFCF4F
:103B4000CF92DF92EF92FF920F931F93CF93DF9369
:103B50008C01EC01AE96CE010E94F94A0E94F6510A
:103B60000E944850AB01BC01C80102960E94A316F6
:103B70006B017C01CE010E94B04AC701B601DF9102
:103B8000CF911F910F91FF90EF90DF90CF9008950C
:103B90005F9808955F9A0895579A08958530910522
:103BA00040F4FC01EE0FFF1FE553FE4F8591949109
:103BB0000895EBECF1E08591949108958F929F9296
:103BC000AF92BF92CF92DF92EF92FF920F931F932B
:103BD000CF93DF93EC0181E08AA77E0184E2E80EB7
:103BE000F11CC7010E940342682F6F7EC7010E942B
:103BF000E5410C811D816E0186E0C80ED11CC80113
:103C00000E9460305C010E94A530A601B5010E94AF
:103C1000D2454E9709F44DC0F801EE0FFF1FEE0F8D
:103C2000FF1FEE54FE4F85909590A590B490C5016E
:103C3000B40190582BEB33EF3F832E83688779874D
:103C40008A879B8725EF34EF3D872C8726E636E66B
:103C500046E65FE30E9489516E877F87888B998B48
:103C60001B8A1A8A1C8A1D8A1E8A1F8A8BE09BE087
:103C7000998F888F26E636E646E65FE3C501B401F4
:103C80000E9489516A8F7B8F8C8F9D8F85E49CE089
:103C90009F8F8E8F88A299A2AAA2BBA28C819D81A0
:103CA0000E9460305C010E94A530A601B5010E940F
:103CB0003C46C7010E940342F801EA53FE4F0491BB
:103CC000682F607F602BC7010E94E5418AA58111A2
:103CD0000DC0DF91CF911F910F91FF90EF90DF907A
:103CE000CF90BF90AF909F908F9008954881598159
:103CF0006A817B81C6010E94DA118C01BC01C60178
:103D00000E947D10688379838A839B83B8017058F1
:103D1000CE018596DF91CF911F910F91FF90EF908B
:103D2000DF90CF90BF90AF909F908F900C940B43FB
:103D3000FC0112A608958F929F92AF92BF92CF92EC
:103D4000DF92EF92FF920F931F93CF93DF93EC01DB
:103D50008B017D836C837C0186E0E80EF11CCB0136
:103D60000E9460306C010E94A530A701B6010E943C
:103D7000D2454E9709F44DC0F801EE0FFF1FEE0F2C
:103D8000FF1FEE54FE4F85909590A590B490C5010D
:103D9000B40190582BEB33EF3F832E8368877987EC
:103DA0008A879B8725EF34EF3D872C8726E636E60A
:103DB00046E65FE30E9489516E877F87888B998BE7
:103DC0001B8A1A8A1C8A1D8A1E8A1F8A8BE09BE026
:103DD000998F888F26E636E646E65FE3C501B40193
:103DE0000E9489516A8F7B8F8C8F9D8F85E49CE028
:103DF0009F8F8E8F88A299A2AAA2BBA28C819D813F
:103E00000E9460306C010E94A530A701B6010E949B
:103E10003C466E0184E2C80ED11CC6010E940342DA
:103E2000F801EA53FE4F0491682F607F602BC601B2
:103E30000E94E5418AA581110DC0DF91CF911F91AC
:103E40000F91FF90EF90DF90CF90BF90AF909F9039
:103E50008F900895488159816A817B81C7010E94B2
:103E6000DA118C01BC01C7010E947D10688379833F
:103E70008A839B83B8017058CE018596DF91CF91DC
:103E80001F910F91FF90EF90DF90CF90BF90AF9078
:103E90009F908F900C940B43CF92DF92EF92FF9202
:103EA0000F931F93CF93DF93EC01188219821A822C
:103EB0001B8282E090E09D838C836E0186E0C80EB9
:103EC000D11C1F821E82188619861A861B861D86A3
:103ED0001C861E861F86188A198A1B8A1A8A1C8AC3
:103EE0001D8A1E8A1F8A198E188E1A8E1B8E1C8E92
:103EF0001D8E1F8E1E8E18A219A21AA21BA28E0141
:103F00000C5D1F4F60E0C8010E94E2417E0185E226
:103F1000E80EF11CC7010E94C6428AEE91E09EA302
:103F20008DA3C7010E94E3421AA6C8010E947942EC
:103F3000682F607CC8010E94A542C8010E942F42E0
:103F4000682F607CC8010E945B4262E070E0CE0195
:103F50000E949B1E40E050E0BA01C6010E94DA11A7
:103F60008C01BC01C6010E947D10688379838A831D
:103F70009B83B8017058C701DF91CF911F910F91BA
:103F8000FF90EF90DF90CF900C940B4380910C0347
:103F9000811107C081EE92E00E944C1F81E0809366
:103FA0000C0381EE92E00895EF92FF920F931F931E
:103FB000CF93DF938C017C0186E0E80EF11CC701F2
:103FC0000E94DA11EC01BC01C7010E947D10F801CA
:103FD0006083718382839383BE017058C801859684
:103FE000DF91CF911F910F91FF90EF900C940B43B5
:103FF000CF92DF92EF92FF92CF93DF93EC01EC81AF
:10400000FD81EE0FFF1FEE0FFF1FEE54FE4FC59018
:10401000D590E590F490C701B60190582BEB33EFA3
:104020003F832E83688779878A879B8725EF34EFC4
:104030003D872C8726E636E646E65FE30E948951F7
:104040006E877F87888B998B1B8A1A8A1C8A1D8AA8
:104050001E8A1F8A8BE09BE0998F888F26E636E6C2
:1040600046E65FE3C701B6010E9489516A8F7B8FE4
:104070008C8F9D8F85E49CE09F8F8E8FC8A2D9A2E4
:10408000EAA2FBA2DF91CF91FF90EF90DF90CF905B
:1040900008957727FB01EE0FFF1FE60FF71FEE0FC6
:1040A000FF1FE80FF91F66817781705885960C9481
:1040B0000B437727FB01EE0FFF1F6E0F7F1F660F6D
:1040C000771F860F971FFC01208731874287538710
:1040D00008950F931F93CF93DF93EC018C819D8103
:1040E0000E9460308C010E94A530AE014A5F5F4F94
:1040F000B801DF91CF911F910F910C943C46089528
:1041000021E030E0FC0130AF27ABBC01695C7F4FA0
:104110000C94F43A4430510508F4089528E030E056
:10412000FC0130AF27ABBC01695C7F4F0C94F43AC3
:104130004430510508F408952EE030E0FC0130AF22
:1041400027ABBC01695C7F4F0C94F43A44305105B5
:1041500008F4089523E130E0FC0130AF27ABBC0147
:10416000695C7F4F0C94F43A4430510508F408958B
:1041700028E130E0FC0130AF27ABBC01695C7F4F28
:104180000C94F43A4430510508F408952AE130E0E3
:10419000FC0130AF27ABBC01695C7F4F0C94F43A53
:1041A0004430510508F408952BE130E0FC0130AFB4
:1041B00027ABBC01695C7F4F0C94F43A4430510545
:1041C00008F408952CE130E0FC0130AF27ABBC01CE
:1041D000695C7F4F0C94F43A4430510508F408951B
:1041E0002DE130E0FC0130AF27ABBC01695C7F4FB3
:1041F0000C94F43A4430510508F4089521E230E07B
:10420000FC0130AF27ABBC01695C7F4F0C94F43AE2
:104210004430510508F4089522E230E0FC0130AF4B
:1042200027ABBC01695C7F4F0C94F43A44305105D4
:1042300008F4089526E230E0FC0130AF27ABBC0162
:10424000695C7F4F0C94F43A4430510508F40895AA
:1042500028E230E0FC0130AF27ABBC01695C7F4F46
:104260000C94F43A4430510508F408952AE230E001
:10427000FC0130AF27ABBC01695C7F4F0C94F43A72
:104280004430510508F408952CE230E0FC0130AFD1
:1042900027ABBC01695C7F4F0C94F43A0F931F93DA
:1042A000FB01A081B1812B2F3A2F2E32310540F531
:1042B000EB2FFA2FEE0FFF1FEE0FFF1FEB52FE4FFB
:1042C0000591159125913491F80120FF12C0F90153
:1042D000F595E795DC01AE0FBF1FED91FC911197AD
:1042E000E00FF11F0190F081E02DCD011F910F91A2
:1042F000099435952795820F931F1F910F9109946B
:104300001F910F9108954830510508F40895DB017D
:104310001596EC9115971496FC91E230F10580F01A
:10432000E7EBF2E02591349143E050E0FC0150AF1F
:1043300047AB32AF21AFBC01695C7F4F0C94F43ABC
:10434000EE0FFF1FE954FD4FEDCF4830510508F443
:104350000895DB011596EC9115971496FC91E530C4
:10436000F10590F4EE0FFF1FE355FD4F25913491B9
:1043700044E050E0FC0150AF47AB32AF21AFBC018D
:10438000695C7F4F0C94F43AEDEAF2E0EFCF4830ED
:10439000510578F0FB012481358145E050E0FC01B6
:1043A00050AF47AB31AF22AFBC01695C7F4F0C947B
:1043B000F43A08954830510578F0FB0124813581A5
:1043C00046E050E0FC0150AF47AB31AF22AFBC013B
:1043D000695C7F4F0C94F43A08954830510508F415
:1043E0000895DB011596EC9115971496FC91E23037
:1043F000F10580F0E9EAF2E0259134914AE050E0DD
:10440000FC0150AF47AB32AF21AFBC01695C7F4FBD
:104410000C94F43AEE0FFF1FE755FD4FEDCF4830F7
:10442000510578F0FB01248135814BE050E0FC011F
:1044300050AF47AB31AF22AFBC01695C7F4F0C94EA
:10444000F43A08954830510578F0FB012481358114
:104450004CE050E0FC0150AF47AB31AF22AFBC01A4
:10446000695C7F4F0C94F43A08954830510508F484
:104470000895DB011596EC9115971496FC91E530A3
:10448000F10590F4EE0FFF1FE156FD4F2591349199
:1044900040E150E0FC0150AF47AB32AF21AFBC016F
:1044A000695C7F4F0C94F43AEFE9F2E0EFCF4830CB
:1044B000510578F0FB012481358141E150E0FC0198
:1044C00050AF47AB31AF22AFBC01695C7F4F0C945A
:1044D000F43A08954830510578F0FB012481358184
:1044E00044E150E0FC0150AF47AB31AF22AFBC011B
:1044F000695C7F4F0C94F43A08954830510508F4F4
:104500000895DB011596EC9115971496FC91E63011
:10451000F10590F4EE0FFF1FED56FD4F25913491FC
:1045200045E150E0FC0150AF47AB32AF21AFBC01D9
:10453000695C7F4F0C94F43AE3E9F2E0EFCF483046
:10454000510578F0FB012481358146E150E0FC0102
:1045500050AF47AB31AF22AFBC01695C7F4F0C94C9
:10456000F43A08954830510578F0FB0124813581F3
:1045700049E150E0FC0150AF47AB31AF22AFBC0185
:10458000695C7F4F0C94F43A08954830510578F0F7
:10459000FB01248135814EE150E0FC0150AF47AB77
:1045A00031AF22AFBC01695C7F4F0C94F43A08959F
:1045B0004830510508F40895E1E9F2E0259134917D
:1045C00043E250E0FC0150AF47AB32AF21AFBC013A
:1045D000695C7F4F0C94F43A4830510578F0FB0148
:1045E0002481358144E250E0FC0150AF47AB31AF4C
:1045F00022AFBC01695C7F4F0C94F43A08954830B7
:10460000510578F0FB012481358147E250E0FC013F
:1046100050AF47AB31AF22AFBC01695C7F4F0C9408
:10462000F43A08954830510508F40895DB011596D1
:10463000EC9115971496FC91E230F10580F0EDE8CD
:10464000F2E02591349149E250E0FC0150AF47ABD4
:1046500032AF21AFBC01695C7F4F0C94F43AEE0F8E
:10466000FF1FE357FD4FEDCF4830510578F0FB01B8
:10467000248135814DE250E0FC0150AF47AB31AFB2
:1046800022AFBC01695C7F4F0C94F43A0895FB01A2
:104690004830510590F0248135814681578162E090
:1046A00070E0FC0170AF67AB51AF42AF33AF24AFE6
:1046B000BC01695C7F4F0C94F43A0895FB014830CB
:1046C0005105A0F047815681658174812BE230E06D
:1046D000FC0130AF27AB6627772741AF52AF63AFFE
:1046E00074AFBC01695C7F4F0C94F43A0895FB01F0
:1046F0004C305105D0F044815581B385A285318578
:10470000208567E070E0FC0170AF67AB51AF42AF4E
:104710004B2F5A2F632F722F43AF54AF65AF76AF35
:10472000BC01695C7F4F0C94F43A0895FB0148305A
:104730005105B0F0B781A6813581248149E050E070
:10474000FC0150AF47AB4B2F5A2F632F722F41AF55
:1047500052AF63AF74AFBC01695C7F4F0C94F43A05
:104760000895FB014C305105D0F044815581B3854B
:10477000A285318520856DE070E0FC0170AF67ABEC
:1047800051AF42AF4B2F5A2F632F722F43AF54AF0D
:1047900065AF76AFBC01695C7F4F0C94F43A089525
:1047A000FB0148305105B0F0B781A68135812481E5
:1047B0004FE050E0FC0150AF47AB4B2F5A2F632F17
:1047C000722F41AF52AF63AF74AFBC01695C7F4FD2
:1047D0000C94F43A0895FB014C305105D0F044811B
:1047E0005581B385A2853185208562E170E0FC01A9
:1047F00070AF67AB51AF42AF4B2F5A2F632F722F61
:1048000043AF54AF65AF76AFBC01695C7F4F0C948A
:10481000F43A0895FB014C305105D0F044815581A4
:10482000B385A2853185208567E170E0FC0170AF1A
:1048300067AB51AF42AF4B2F5A2F632F722F43AF4D
:1048400054AF65AF76AFBC01695C7F4F0C94F43A0E
:104850000895FB014C305105D0F044815581B3855A
:10486000A2853185208565E270E0FC0170AF67AB01
:1048700051AF42AF4B2F5A2F632F722F43AF54AF1C
:1048800065AF76AFBC01695C7F4F0C94F43A089534
:104890004830510578F0FB01248135814FE150E02B
:1048A000FC0150AF47AB31AF22AFBC01695C7F4F19
:1048B0000C94F43A0895FB014830510590F044817E
:1048C00055812681378160E270E0FC0170AF67ABF3
:1048D00051AF42AF33AF24AFBC01695C7F4F0C9442
:1048E000F43A0895AF92BF92CF92DF92EF92FF9287
:1048F0000F931F93CF93DF937C010E949D470E94EB
:104900005D485C010E949347EC01892B59F4DF91CB
:10491000CF911F910F91FF90EF90DF90CF90BF90BC
:10492000AF900895670186E0C80ED11C850157013C
:10493000EEE0AE0EB11C05C0C6010E9428412197D1
:1049400031F3F80161918F01C6010E943C41F701EA
:1049500090A99923A1F3408551854430510560F316
:10496000B501C7010E944E21E7CF8530910540F483
:10497000FC01EE0FFF1FE355FD4F859194910895C3
:10498000EDEAF2E08591949108958230910528F046
:10499000E9EAF2E0859194910895FC01EE0FFF1F82
:1049A000E755FD4F8591949108958530910540F428
:1049B000FC01EE0FFF1FE156FD4F85919491089584
:1049C000EFE9F2E08591949108958630910540F4E5
:1049D000FC01EE0FFF1FED56FD4F85919491089558
:1049E000E3E9F2E0859194910895E1E9F2E085919F
:1049F000949108958230910528F0EDE8F2E08591D8
:104A000094910895FC01EE0FFF1FE357FD4F859130
:104A10009491089580915303811119C084E193E02A
:104A20000E94D43A84EF91E090931503809314038D
:104A30008AE193E00E9414410E949D4740E855E2BC
:104A400060E070E00E94034881E08093530384E1BA
:104A500093E00895CF93DF9300D000D0CDB7DEB7B9
:104A600049835A836B837C830E949D4749815A8185
:104A70006B817C810F900F900F900F90DF91CF9101
:104A80000C94E247CF93DF9300D000D0CDB7DEB7D0
:104A900049835A836B837C830E949D4749815A8155
:104AA0006B817C810F900F900F900F90DF91CF91D1
:104AB0000C9403480E949D4740E855E260E070E096
:104AC0000C9403488F929F92AF92BF92CF92DF9245
:104AD000EF92FF920F931F93CF93DF9300D000D0FC
:104AE000CDB7DEB75B0106966C016CE270E02983FE
:104AF0003A834B835C830E9403414C01FC01108686
:104B000081E08187138612865C8154A74B8145A77B
:104B10003A8136A7298127A710AB01ABF2AAE3AAF5
:104B2000C4010C9620E2FC0111922A95E9F7B50127
:104B30000E94A054C4010E94E440F4010581148144
:104B40000E949D47A801485F5F4FB4010E949848AA
:104B5000B401C6010F900F900F900F90DF91CF918D
:104B60001F910F91FF90EF90DF90CF90BF90AF908B
:104B70009F908F900C941341EF92FF920F931F938D
:104B8000CF93DF9306967C0164E070E00E940341BE
:104B9000EC01188619861B861A860E94E4400D8156
:104BA0001C810E949D47A801485F5F4FBE010E9483
:104BB0009848BE01C701DF91CF911F910F91FF90DF
:104BC000EF900C941341CF92DF92EF92FF920F93EC
:104BD0001F93CF93DF9300D0CDB7DEB7162F072FEB
:104BE00006967C0168E070E049835A830E94034185
:104BF0006C01FC01108682E081871386128604878F
:104C000015875A81568749814787C6010E94E4402B
:104C1000F601058114810E949D47A801485F5F4FFE
:104C2000B6010E949848B601C7010F900F90DF911E
:104C3000CF911F910F91FF90EF90DF90CF900C9448
:104C40001341EF92FF920F931F93CF93DF93162F91
:104C5000072F06967C0168E070E00E940341EC019A
:104C6000188683E089871B861A860C871D871F8616
:104C70001E86CE010E94E4400D811C810E949D474A
:104C8000A801485F5F4FBE010E949848BE01C7015E
:104C9000DF91CF911F910F91FF90EF900C941341F2
:104CA000EF92FF920F931F93CF93DF93162F072F4F
:104CB00006967C0168E070E00E940341EC011886D2
:104CC00084E089871B861A860C871D871F861E86AF
:104CD000CE010E94E4400D811C810E949D47A801E5
:104CE000485F5F4FBE010E949848BE01C701DF9137
:104CF000CF911F910F91FF90EF900C941341AF92C1
:104D0000BF92CF92DF92EF92FF920F931F93CF93B8
:104D1000DF9300D000D0CDB7DEB7D62EC72E0696D3
:104D20007C016CE070E02B833C8349835A830E94B2
:104D300003415C01FC01108685E0818713861286A1
:104D4000C486D5865A815687498147873C812B8105
:104D5000C801432F522F692F702FF501408B518BC3
:104D6000628B738BC5010E94E440F50105811481BB
:104D70000E949D47A801485F5F4FB5010E94984877
:104D8000B501C7010F900F900F900F90DF91CF9159
:104D90001F910F91FF90EF90DF90CF90BF90AF9059
:104DA0000C941341AF92BF92CF92DF92EF92FF9299
:104DB0000F931F93CF93DF9300D000D0CDB7DEB712
:104DC000D62EC72E06967C016CE070E02B833C83C8
:104DD00049835A830E9403415C01FC01108686E0EE
:104DE000818713861286C486D5865A815687498163
:104DF00047873C812B81C801432F522F692F702F89
:104E0000F501408B518B628B738BC5010E94E4408E
:104E1000F501058114810E949D47A801485F5F4FFD
:104E2000B5010E949848B501C7010F900F900F90EF
:104E30000F90DF91CF911F910F91FF90EF90DF9036
:104E4000CF90BF90AF900C941341AF92BF92CF928E
:104E5000DF92EF92FF920F931F93CF93DF9300D0D7
:104E600000D0CDB7DEB7D62EC72E06967C016CE0FB
:104E700070E02B833C8349835A830E9403415C0189
:104E8000FC01108687E0818713861286C486D5864A
:104E90005A815687498147873C812B81C801432F1E
:104EA000522F692F702FF501408B518B628B738BC2
:104EB000C5010E94E440F501058114810E949D47CF
:104EC000A801485F5F4FB5010E949848B501C7012E
:104ED0000F900F900F900F90DF91CF911F910F9136
:104EE000FF90EF90DF90CF90BF90AF900C94134164
:104EF000EF92FF920F931F93CF93DF9306967C015F
:104F000064E070E00E940341EC01188688E0898724
:104F10001B861A86CE010E94E4400D811C810E94EE
:104F20009D47A801485F5F4FBE010E949848BE019F
:104F3000C701DF91CF911F910F91FF90EF900C94DB
:104F40001341CF92DF92EF92FF920F931F93CF9373
:104F5000DF9300D0CDB7DEB7162F072F06967C0162
:104F600068E070E049835A830E9403416C01FC01B0
:104F7000108689E08187138612865A81952F498190
:104F8000842F402F512F692F782F448755876687AC
:104F90007787C6010E94E440F601058114810E94D2
:104FA0009D47A801485F5F4FB6010E949848B6012F
:104FB000C7010F900F90DF91CF911F910F91FF903C
:104FC000EF90DF90CF900C941341EF92FF920F93EC
:104FD0001F93CF93DF93162F072F06967C0168E06F
:104FE00070E00E940341EC0118868AE089871B86E5
:104FF0001A860C871D871F861E86CE010E94E440FC
:105000000D811C810E949D47A801485F5F4FBE0132
:105010000E949848BE01C701DF91CF911F910F9167
:10502000FF90EF900C941341AF92BF92CF92DF921A
:10503000EF92FF920F931F93CF93DF9300D000D096
:10504000CDB7DEB7D62EC72E06967C016CE070E099
:105050002B833C8349835A830E9403415C01FC01FA
:1050600010868BE0818713861286C486D5865A8186
:105070005687498147873C812B81C801432F522F96
:10508000692F702FF501408B518B628B738BC5019B
:105090000E94E440F501058114810E949D47A8010A
:1050A000485F5F4FB5010E949848B501C7010F9056
:1050B0000F900F900F90DF91CF911F910F91FF9064
:1050C000EF90DF90CF90BF90AF900C941341AF92D0
:1050D000BF92CF92DF92EF92FF920F931F93CF93E5
:1050E000DF9300D000D0CDB7DEB7D62EC72E069600
:1050F0007C016CE070E02B833C8349835A830E94DF
:1051000003415C01FC0110868CE0818713861286C6
:10511000C486D5865A815687498147873C812B8131
:10512000C801432F522F692F702FF501408B518BEF
:10513000628B738BC5010E94E440F50105811481E7
:105140000E949D47A801485F5F4FB5010E949848A3
:10515000B501C7010F900F900F900F90DF91CF9185
:105160001F910F91FF90EF90DF90CF90BF90AF9085
:105170000C941341AF92BF92CF92DF92EF92FF92C5
:105180000F931F93CF93DF9300D000D0CDB7DEB73E
:10519000D62EC72E06967C016CE070E02B833C83F4
:1051A00049835A830E9403415C01FC0110868DE013
:1051B000818713861286C486D5865A81568749818F
:1051C00047873C812B81C801432F522F692F702FB5
:1051D000F501408B518B628B738BC5010E94E440BB
:1051E000F501058114810E949D47A801485F5F4F2A
:1051F000B5010E949848B501C7010F900F900F901C
:105200000F90DF91CF911F910F91FF90EF90DF9062
:10521000CF90BF90AF900C941341EF92FF920F93F9
:105220001F93CF93DF9306967C0164E070E00E94A9
:105230000341EC0118868EE089871B861A86CE0111
:105240000E94E4400D811C810E949D47A801485F97
:105250005F4FBE010E949848BE01C701DF91CF9108
:105260001F910F91FF90EF900C941341CF92DF921A
:10527000EF92FF920F931F93CF93DF9300D0CDB7A0
:10528000DEB7162F072F06967C0168E070E0498391
:105290005A830E9403416C01FC0110868FE08187D4
:1052A000138612865A81952F4981842F402F512FC2
:1052B000692F782F4487558766877787C6010E94B4
:1052C000E440F601058114810E949D47A801485FD2
:1052D0005F4FB6010E949848B601C7010F900F902A
:1052E000DF91CF911F910F91FF90EF90DF90CF90C2
:1052F0000C941341EF92FF920F931F93CF93DF9380
:10530000162F072F06967C0168E070E00E9403418B
:10531000EC01188680E189871B861A860C871D8719
:105320001F861E86CE010E94E4400D811C810E94D2
:105330009D47A801485F5F4FBE010E949848BE018B
:10534000C701DF91CF911F910F91FF90EF900C94C7
:1053500013418F929F92AF92BF92CF92DF92EF92C2
:10536000FF920F931F93CF93DF9300D000D0CDB760
:10537000DEB7B62EA72E06966C0160E170E0298399
:105380003A834B835C830E9403414C01FC011086ED
:1053900081E1818713861286A486B58617861686D4
:1053A0005C81508B4B81418B3A81328B2981238BDD
:1053B0009801C701432F502F692F7E2D448B558BA9
:1053C000668B778BC4010E94E440F401058114814F
:1053D0000E949D47A801485F5F4FB4010E94984812
:1053E000B401C6010F900F900F900F90DF91CF91F5
:1053F0001F910F91FF90EF90DF90CF90BF90AF90F3
:105400009F908F900C9413418F929F92AF92BF9276
:10541000CF92DF92EF92FF920F931F93CF93DF9380
:1054200000D000D0CDB7DEB7B62EA72E06966C0101
:1054300060E170E029833A834B835C830E940341DF
:105440004C01FC01108682E1818713861286A486B6
:10545000B586178616865C81508B4B81418B3A81CD
:10546000328B2981238B9801C701432F502F692F3D
:105470007E2D448B558B668B778BC4010E94E44054
:10548000F401058114810E949D47A801485F5F4F88
:10549000B4010E949848B401C6010F900F900F907C
:1054A0000F90DF91CF911F910F91FF90EF90DF90C0
:1054B000CF90BF90AF909F908F900C941341EF923C
:1054C000FF920F931F93CF93DF9306967C0164E0C6
:1054D00070E00E940341EC01188683E189871B86F6
:1054E0001A86CE010E94E4400D811C810E949D47D6
:1054F000A801485F5F4FBE010E949848BE01C701E6
:10550000DF91CF911F910F91FF90EF900C94134179
:10551000CF92DF92EF92FF920F931F93CF93DF937F
:1055200000D0CDB7DEB7162F072F06967C0168E0B6
:1055300070E049835A830E9403416C01FC0110868C
:1055400084E18187138612865A81952F4981842FA1
:10555000402F512F692F782F44875587668777878B
:10556000C6010E94E440F601058114810E949D4716
:10557000A801485F5F4FB6010E949848B601C70175
:105580000F900F90DF91CF911F910F91FF90EF90AF
:10559000DF90CF900C941341EF92FF920F931F93E3
:1055A000CF93DF93162F072F06967C0168E070E0FB
:1055B0000E940341EC01188685E189871B861A86C3
:1055C0000C871D871F861E86CE010E94E4400D8138
:1055D0001C810E949D47A801485F5F4FBE010E9449
:1055E0009848BE01C701DF91CF911F910F91FF90A5
:1055F000EF900C9413418F929F92AF92BF92CF92F3
:10560000DF92EF92FF920F931F93CF93DF9300D01F
:1056100000D0CDB7DEB7B62EA72E06966C0160E19E
:1056200070E029833A834B835C830E9403414C01E1
:10563000FC01108686E1818713861286A486B586D2
:10564000178616865C81508B4B81418B3A81328B59
:105650002981238B9801C701432F502F692F7E2D5D
:10566000448B558B668B778BC4010E94E440F40118
:10567000058114810E949D47A801485F5F4FB401D6
:105680000E949848B401C6010F900F900F900F90A0
:10569000DF91CF911F910F91FF90EF90DF90CF900E
:1056A000BF90AF909F908F900C9413418F929F92D8
:1056B000AF92BF92CF92DF92EF92FF920F931F9320
:1056C000CF93DF9300D000D0CDB7DEB7B62EA72E94
:1056D00006966C0160E170E029833A834B835C831A
:1056E0000E9403414C01FC01108687E181871386EB
:1056F0001286A486B586178616865C81508B4B81F0
:10570000418B3A81328B2981238B9801C701432F2A
:10571000502F692F7E2D448B558B668B778BC40160
:105720000E94E440F401058114810E949D47A80174
:10573000485F5F4FB4010E949848B401C6010F90C2
:105740000F900F900F90DF91CF911F910F91FF90CD
:10575000EF90DF90CF90BF90AF909F908F900C9480
:105760001341EF92FF920F931F93CF93DF9306960F
:105770007C0164E070E00E940341EC01188688E13E
:1057800089871B861A86CE010E94E4400D811C8108
:105790000E949D47A801485F5F4FBE010E94984844
:1057A000BE01C701DF91CF911F910F91FF90EF9044
:1057B0000C941341CF92DF92EF92FF920F931F93BD
:1057C000CF93DF9300D0CDB7DEB7162F072F069605
:1057D0007C0168E070E049835A830E9403416C01B8
:1057E000FC01108689E18187138612865A81952FE4
:1057F0004981842F402F512F692F782F4487558757
:1058000066877787C6010E94E440F601058114810E
:105810000E949D47A801485F5F4FB6010E949848CB
:10582000B601C7010F900F90DF91CF911F910F919B
:10583000FF90EF90DF90CF900C941341EF92FF9286
:105840000F931F93CF93DF9306967C0164E070E083
:105850000E940341EC0118868AE189871B861A861B
:10586000CE010E94E4400D811C810E949D47A80149
:10587000485F5F4FBE010E949848BE01C701DF919B
:10588000CF911F910F91FF90EF900C941341EF92E5
:10589000FF920F931F93CF93DF9306967C0164E0F2
:1058A00070E00E940341EC0118868BE189871B861A
:1058B0001A86CE010E94E4400D811C810E949D4702
:1058C000A801485F5F4FBE010E949848BE01C70112
:1058D000DF91CF911F910F91FF90EF900C941341A6
:1058E000EF92FF920F931F93CF93DF9306967C0165
:1058F00064E070E00E940341EC0118868CE1898726
:105900001B861A86CE010E94E4400D811C810E94F4
:105910009D47A801485F5F4FBE010E949848BE01A5
:10592000C701DF91CF911F910F91FF90EF900C94E1
:105930001341EF92FF920F931F93CF93DF9306963D
:105940007C0164E070E00E940341EC0118868DE167
:1059500089871B861A86CE010E94E4400D811C8136
:105960000E949D47A801485F5F4FBE010E94984872
:10597000BE01C701DF91CF911F910F91FF90EF9072
:105980000C941341CF92DF92EF92FF920F931F93EB
:10599000CF93DF9300D0CDB7DEB7162F072F069633
:1059A0007C0168E070E049835A830E9403416C01E6
:1059B000FC0110868EE18187138612865A81952F0D
:1059C0004981842F402F512F692F782F4487558785
:1059D00066877787C6010E94E440F601058114813D
:1059E0000E949D47A801485F5F4FB6010E949848FA
:1059F000B601C7010F900F90DF91CF911F910F91CA
:105A0000FF90EF90DF90CF900C941341CF92DF92F4
:105A1000EF92FF920F931F93CF93DF9300D0CDB7F8
:105A2000DEB7162F072F06967C0168E070E04983E9
:105A30005A830E9403416C01FC0110868FE181872B
:105A400013861286048715875A81568749814787AE
:105A5000C6010E94E440F601058114810E949D4721
:105A6000A801485F5F4FB6010E949848B601C70180
:105A70000F900F90DF91CF911F910F91FF90EF90BA
:105A8000DF90CF900C941341CF92DF92EF92FF9270
:105A90000F931F93CF93DF9300D0CDB7DEB7162FB0
:105AA000072F06967C0168E070E049835A830E94C4
:105AB00003416C01FC01108680E281871386128607
:105AC000048715875A81568749814787C6010E94F6
:105AD000E440F601058114810E949D47A801485FBA
