:100000000C94A6020C94CE020C94CE020C94CE0258
:100010000C94CE020C94CE020C94CE020C94CE0220
:100020000C94CE020C94CE020C94CE020C94CE0210
:100030000C94CE020C94CE020C94CE020C94CE0200
:100040000C94DB450C94CE020C94CE020C94CE02A0
:100050000C94B0460C94CE020C94CE020C94CE02BA
:100060000C94CE020C94CE020C94CE020C94CE02D0
:10007000A50100007A4406A50100007A4405A50107
:1000800000007A4404B2010000803F06B201000083
:10009000803F05B2010000803F04BC010024744988
:1000A00005BC010024744904CB0100007A4406CB4E
:1000B0000100007A4405CB0100007A4404D002001C
:1000C00000D102000028090000DD0900002A030019
:1000D0000098030000CA03000001040000CD0C00DA
:1000E0000050040000800400009C040000CE0400C6
:1000F0000005050000120D0000540500006103001A
:100100000084050000C8050000880C0000110A00EA
:10011000001C060000380600007C060000430C00AE
:1001200000020B0000D0060000D8060000E0060028
:1001300000E80600006E090000F00600002A070033
:10014000007D07000085070000EA080000E30700C3
:100150000043080000F30B0000AD08000030080069
:10016000008D070000A9070000BA070000462F779E
:10017000206465762000492D5620536F75726365A3
:10018000204D6574657200ACC5273717B7D1386F3D
:1001900012833A0AD7233CCDCCCC3D08040201009F
:1001A00000000100020003000400ACC5273717B7A8
:1001B000D1386F12833A0AD7233CCDCCCC3D08040A
:1001C000020100000001000200030004006520009D
:1001D00000662000000C2300005B2100007D210050
:1001E000009F210000B22100003C2300007020008D
:1001F000005B230000C5210000E7210000FA210078
:1002000000762300007E200000952300000D2200D0
:10021000002F220000B02300008C200000422200AA
:10022000005522000077220000CF2300009A200012
:10023000008A220000A8200000B6200000C4200090
:1002400000D22000009D2200000D24000020240088
:1002500000E0200000EE200000B0220000C42200D8
:1002600000EE230000FC200000D72200000A21003D
:1002700000EA2200001821000023230000000001F2
:10028000000000000001000200030004000500005F
:100290000001000200030004000000010000000152
:1002A00000020003000400000001001E001E001EEA
:1002B000001E001E001E001E002800280028002826
:1002C00000280028002800280028002800280020F6
:1002D00000280013000C000D000E000F001000118C
:1002E000000700080009000A000B000500060000D6
:1002F0000001000200030004006F12833A0AD723B2
:100300003CCDCCCC3D0000803F000020410000C827
:100310004208040201003000000100000001000258
:100320000003000400050000002041000000002040
:10033000410000C842002000000100030003000249
:10034000000AD7233C0300030003000AD7233C0321
:1003500000030004000AD7233C0200020004006FDF
:1003600012833A01000100040017B7D138010001DF
:10037000000400ACC52737010001000400BD37862A
:10038000350300030002000AD7233CCDCCCC3D034B
:1003900000030003000AD7233C0000803F03000352
:1003A0000004000AD7233C000020410200020004A0
:1003B000006F12833A000020410100010004001781
:1003C000B7D13800002041010001000400ACC5276E
:1003D0003700002041010001000400BD37863500D0
:1003E0000020410000010002000300040005000697
:1003F0000080C0143F0000153F00001B3F0000219B
:100400003F000000FFFFFFFF000100FF0020001081
:100410000008000400010203FA4700000148000040
:1004200020480000AC4800003F480000CC480000D5
:10043000464800004D480000544800006C48000049
:1004400073480000974800006E616E00696E660098
:1004500000407A10F35A00A0724E18090010A5D47B
:10046000E80000E87648170000E40B54020000CAD8
:100470009A3B000000E1F50500008096980000001E
:1004800040420F000000A08601000000102700007D
:100490000000E803000000006400000000000A0003
:1004A000000000000100000000002C76D888DC6706
:1004B0004F0823DFC1DFAE59E1B1B796E5E3E4535E
:1004C000C63AE651997696E8E6C28426EB898C9B7B
:1004D00062ED407C6FFCEFBC9C9F40F2BAA56FA51B
:1004E000F490055A2AF75C936B6CF9676DC11BFC9D
:1004F000E0E40D47FEF520E6B500D0ED902E0300B8
:10050000943577050080841E080000204E0A000004
:1005100000C80C333333330F986E12831141EF8DC3
:100520002114893BE65516CFFEE6DB18D1844B3803
:100530001BF77C1D901DA4BBE424203284725E2234
:100540008100C9F124ECA1E53D27463A11241FBEE4
:10055000CFEFD0E1DEBFCDBF12E0A0E0B1E0EAE630
:10056000F9EA02C005900D92A235B107D9F725E04E
:10057000A2E5B2E001C01D92A434B207E1F712E097
:10058000C6EAD2E004C02197FE010E94CB51C53AD1
:10059000D107C9F70E944A100C94B3540C94000080
:1005A0000895CF92DF92EF92FF920F931F93CF9314
:1005B000DF9300D000D0CDB7DEB70E946F39FC01C9
:1005C000C080D1800D2C000CEE08FF087601DD24E0
:1005D000CC240E946F39FC0182819381092E000C8A
:1005E000AA0BBB0BBA2FA92F982F8827C82AD92A64
:1005F000EA2AFB2A0E946F39FC0124813581C90156
:10060000330FAA0BBB0BA7019601282B392B4A2BC2
:100610005B2B29833A834B835C830E94CF241DEF9D
:10062000E12EFF24FA940FEF1FEF29813A814B81CD
:100630005C8168E171E00E941F250F900F900F9080
:100640000F90DF91CF911F910F91FF90EF90DF906E
:10065000CF9008950F931F93CF93DF93EB018A817F
:100660009B810E94261A8C010E94D91AB8010E940F
:10067000361A0E94D91AFC01808191810E949A2425
:100680008C010E94CF24B8010E9437298A819B8166
:100690000E94B41DEC010E94AC1FBE010E94811E8D
:1006A0000E94AC1FFC01848195810E947A24EC0198
:1006B0000E94CF24BE01DF91CF911F910F910C9426
:1006C0000D260F931F93CF93DF93EB018A819B81BC
:1006D0000E94B41D8C010E94AC1FB8010E94811EB3
:1006E0000E94AC1FFC01848195810E947A248C01B8
:1006F0000E94CF24B8010E940D268A819B810E940E
:10070000261AEC010E94D91ABE010E94361A0E94D4
:10071000D91AFC01808191810E949A24EC010E94E7
:10072000CF24BE01DF91CF911F910F910C943729F7
:100730008F929F92AF92BF92EF92FF920F931F936F
:10074000CF93DF93FB01C281D3810E94AC1FDD27D1
:10075000FE01EE0FFF1FEC0FFD1FEE0FFF1FE80F56
:10076000F91F80849184A284B384E680F7800E947C
:10077000CF2495018401A701BE010E943C26DF9190
:10078000CF911F910F91FF90EF90BF90AF909F90EE
:100790008F9008958F929F92AF92BF92EF92FF92A7
:1007A0000F931F93CF93DF93FB01C281D381DD278A
:1007B0000E94AC1FBE010E942F200E94AC1FFE01B0
:1007C000EE0FFF1FEC0FFD1FEE0FFF1FE80FF91FCD
:1007D00080849184A284B384E680F7800E94CF2431
:1007E00095018401A701BE010E948F26DF91CF9160
:1007F0001F910F91FF90EF90BF90AF909F908F90BF
:1008000008958F929F92AF92BF92CF92DF92EF9214
:10081000FF920F931F93CF93DF9300D000D0CDB7FB
:10082000DEB7FB012481358146815781C280D380A8
:10083000DD2429833A834B835C830E94AC1F29818A
:100840003A814B815C81B6010E943F200E94AC1F1F
:10085000F601EE0FFF1FEC0DFD1DEE0FFF1FE80F61
:10086000F91F80849184A284B384E680F7800E947B
:10087000CF2495018401A701B6010E94E2260F90C2
:100880000F900F900F90DF91CF911F910F91FF90DC
:10089000EF90DF90CF90BF90AF909F908F90089592
:1008A000CF93DF9300D000D0CDB7DEB7FB014281FC
:1008B00053816481758149835A836B837C830E9451
:1008C000AC1F49815A816B817C810E94BA1F0E94B2
:1008D000AC1FFC01408151816281738149835A833D
:1008E0006B837C830E94CF2449815A816B817C81F8
:1008F0000F900F900F900F90DF91CF910C945E2787
:10090000CF93DF93FB01828193810E948E35EC01AE
:100910000E94BA36BE010E94A1350E94BA36FC017F
:10092000848195810E948A24EC010E94CF24BE011B
:10093000DF91CF910C94A2278F929F92AF92BF929A
:10094000EF92FF920F931F93CF93DF93FB01C2812E
:10095000D3810E94BA36DD27FE01EE0FFF1FEC0F98
:10096000FD1FEE0FFF1FE80FF91F80849184A28402
:10097000B384E680F7800E94CF2495018401A7010B
:10098000BE010E94D127DF91CF911F910F91FF905F
:10099000EF90BF90AF909F908F9008958F929F920D
:1009A000AF92BF92EF92FF920F931F93CF93DF937B
:1009B000FB01C281D381DD270E94BA36BE010E94AD
:1009C00076370E94BA36FE01EE0FFF1FEC0FFD1FB7
:1009D000EE0FFF1FE80FF91F80849184A284B38477
:1009E000E680F7800E94CF2495018401A701BE0113
:1009F0000E942428DF91CF911F910F91FF90EF90DB
:100A0000BF90AF909F908F9008958F929F92AF92DA
:100A1000BF92CF92DF92EF92FF920F931F93CF93EB
:100A2000DF9300D000D0CDB7DEB7FB012481358144
:100A300046815781C280D380DD2429833A834B834A
:100A40005C830E94BA3629813A814B815C81B60170
:100A50000E9486370E94BA36F601EE0FFF1FEC0D9A
:100A6000FD1DEE0FFF1FE80FF91F80849184A28403
:100A7000B384E680F7800E94CF2495018401A7010A
:100A8000B6010E9477280F900F900F900F90DF9182
:100A9000CF911F910F91FF90EF90DF90CF90BF907B
:100AA000AF909F908F900895CF93DF9300D000D0A8
:100AB000CDB7DEB7FB0142815381648175814983E3
:100AC0005A836B837C830E94BA3649815A816B8139
:100AD0007C810E9401370E94BA36FC01408151811D
:100AE0006281738149835A836B837C830E94CF2404
:100AF00049815A816B817C810F900F900F900F90EC
:100B0000DF91CF910C94F328AF92BF92CF92DF92F6
:100B1000EF92FF920F931F93CF93DF9300D000D0FB
:100B2000CDB7DEB7FB01E280F3800E94D91A5701EE
:100B3000BB24F501EE0FFF1FEE0FFF1FEE0FFF1F8F
:100B4000E80FF91FC680D780E084F18422813381C9
:100B50004481558129833A834B835C830E94CF244F
:100B60008701760129813A814B815C81B5010E9420
:100B700066290F900F900F900F90DF91CF911F91EA
:100B80000F91FF90EF90DF90CF90BF90AF900895BE
:100B9000AF92BF92CF92DF92EF92FF920F931F938B
:100BA000CF93DF9300D000D0CDB7DEB7FB01248117
:100BB000358146815781A280B380BB2429833A8343
:100BC0004B835C830E94D91A29813A814B815C81D5
:100BD000B5010E946B1C0E94D91AF501EE0FFF1F90
:100BE000EE0FFF1FEE0FFF1FE80FF91FC680D78023
:100BF000E084F184228133814481558129833A83C1
:100C00004B835C830E94CF248701760129813A813E
:100C10004B815C81B5010E94C1290F900F900F900C
:100C20000F90DF91CF911F910F91FF90EF90DF9088
:100C3000CF90BF90AF900895CF93DF93FB01828157
:100C400093810E940F30EC010E946031BE010E942E
:100C50002F300E946031FC01808191810E94AA2482
:100C6000EC010E94CF24BE01DF91CF910C94892A20
:100C7000AF92BF92CF92DF92EF92FF920F931F93AA
:100C8000CF93DF9300D000D0CDB7DEB7FB01E28079
:100C9000F3800E9460315701BB24F501EE0FFF1F66
:100CA000EE0FFF1FEE0FFF1FE80FF91FC680D78062
:100CB000E084F184228133814481558129833A8300
:100CC0004B835C830E94CF248701760129813A817E
:100CD0004B815C81B5010E94B82A0F900F900F9054
:100CE0000F90DF91CF911F910F91FF90EF90DF90C8
:100CF000CF90BF90AF900895AF92BF92CF92DF9206
:100D0000EF92FF920F931F93CF93DF9300D000D009
:100D1000CDB7DEB7FB012481358146815781A280A2
:100D2000B380BB2429833A834B835C830E94603168
:100D300029813A814B815C81B5010E9430320E9449
:100D40006031F501EE0FFF1FEE0FFF1FEE0FFF1FCB
:100D5000E80FF91FC680D780E084F18422813381B7
:100D60004481558129833A834B835C830E94CF243D
:100D70008701760129813A814B815C81B5010E940E
:100D8000132B0F900F900F900F90DF91CF911F9129
:100D90000F91FF90EF90DF90CF90BF90AF900895AC
:100DA0000E94AC1F0E94DE1F0E94CF240C94DB2BFC
:100DB0000E94BA360E9425370E94CF240C94042C3E
:100DC0000E94D91A0E94041C0E94CF240C942D2C3E
:100DD0000E9460310E94C9310E94CF240C94562C8D
:100DE000CF93DF93FB01828193818130910521F1C3
:100DF0008230910599F0892B19F0DF91CF910895F8
:100E00000E946F39FC01C081D1810E94CF24AE01C4
:100E100060E070E0DF91CF910C94C32C0E946F3999
:100E2000FC01C481D5810E94CF24AE0162E070E054
:100E3000DF91CF910C94C32C0E946F39FC01C281C9
:100E4000D3810E94CF24AE0161E070E0DF91CF91A9
:100E50000C94C32CCF93DF93FB0182819381C481D7
:100E6000D58181309105B1F18230910501F1009772
:100E700059F08130910599F182309105E9F0892B83
:100E800041F0DF91CF9108950E946F39FC01D18329
:100E9000C0830E946F39FC01C081D1810E94CF24A0
:100EA000AE0160E070E0DF91CF910C94012D0E94C3
:100EB0006F39FC01D583C4830E946F39FC01C48162
:100EC000D5810E94CF24AE0162E070E0DF91CF9126
:100ED0000C94012D0E946F39FC01D383C2830E94C0
:100EE0006F39FC01C281D3810E94CF24AE0161E041
:100EF00070E0DF91CF910C94012D0E946F390E9418
:100F0000C9390E94CF240C943F2D0E946F390E9452
:100F1000D5390E94CF240C94682DCF93DF93FB0129
:100F2000828193810E941F30EC010E946031BE01DA
:100F30000E94D9320E946031FC0183AD94AD0E94C1
:100F4000BF24EC010E94CF24BE01DF91CF910C940D
:100F50000C2FCF93DF930E946031FC0183AD94ADE1
:100F60000E94BF24EC010E94CF24BE01DF91CF91EB
:100F70000C943B2FCF92DF92EF92FF92FB01C28045
:100F8000D380E480F5800E94CF24B701A6010E949F
:100F9000EF24811108C00E94CF24FF90EF90DF90D2
:100FA000CF900C9479250E94CF24B701A6010E940E
:100FB0006A2F0E94CF24B701A601FF90EF90DF9027
:100FC000CF900C940725AF92BF92CF92DF92EF9211
:100FD000FF920F931F93CF93DF9300D000D0CDB734
:100FE000DEB7FB01E280F38080919702811107C098
:100FF00082E692E00E941A3381E0809397025701C3
:10100000BB24F501EE0FFF1FEE0FFF1FEE0FFF1FBA
:10101000EE59FD4FC184D284E384F4842581368166
:101020004781508529833A834B835C830E94CF2478
:101030008701760129813A814B815C81B5010E944B
:10104000C02D0F900F900F900F90DF91CF911F91B7
:101050000F91FF90EF90DF90CF90BF90AF900895E9
:1010600080919702811107C082E692E00E941A33B4
:1010700081E08093970282E692E00E94E5340E942C
:10108000CF240C94E32EAF92BF92CF92DF92EF92D7
:10109000FF920F931F93CF93DF9300D000D0CDB773
:1010A000DEB7FB012481358146815781A280B38060
:1010B000BB2480919702882309F43FC0B50182E6E2
:1010C00092E00E94783480919702811107C082E6F5
:1010D00092E00E941A3381E080939702F501EE0FAF
:1010E000FF1FEE0FFF1FEE0FFF1FEE59FD4FC184D4
:1010F000D284E384F4842581368147815085298315
:101100003A834B835C830E94CF2487017601298137
:101110003A814B815C81B5010E941B2E0F900F908C
:101120000F900F90DF91CF911F910F91FF90EF9053
:10113000DF90CF90BF90AF90089582E692E0298330
:101140003A834B835C830E941A3381E08093970239
:101150005C814B813A812981B1CF0F931F93CF934B
:10116000DF9300D000D0CDB7DEB78B010E94AC3743
:101170000E94C437F80162817381809197028111C6
:101180000BC082E692E06B837C830E941A3381E07D
:10119000809397027C816B8182E692E00E944C35BD
:1011A000AB01BC0149835A836B837C830E94CF24AB
:1011B00049815A816B817C810E949F2E0E94AC37AD
:1011C0000F900F900F900F90DF91CF911F910F9183
:1011D0000C94C6370F931F93CF93DF9300D0CDB7F6
:1011E000DEB7FB01828193810E941533BC0180919F
:1011F0009702882309F182E692E00E94E53380910C
:101200009702811107C082E692E00E941A3381E0C2
:101210008093970280916502909166020E94BA24A1
:101220008C010E94CF24B8010F900F90DF91CF91D5
:101230001F910F910C94912D82E692E069837A833D
:101240000E941A3381E0809397027A816981D3CF1B
:101250008F929F92AF92BF92CF92DF92EF92FF92C6
:101260000F931F93CF93DF93EC01FB018280938058
:10127000A480B58081E08B870E9400460E942246B0
:101280006B017C010E9400468C01C501B4010E94E3
:10129000CC4F2FE632E143E85AE30E94D150AB0134
:1012A000BC01C8010E942E46C60ED71EE81EF91EBC
:1012B000CC86DD86EE86FF860E94CF24B501A40190
:1012C000DF91CF911F910F91FF90EF90DF90CF9022
:1012D000BF90AF909F908F900C94A0250F931F9379
:1012E000CF93DF9300D000D0CDB7DEB78B010E9443
:1012F000BA360E949E350E94AC370E94C2370E94C7
:10130000AC1F0E94C41D0E94AC370E94BC37F8017C
:10131000028113810E94C837B8010E942039AB01B5
:10132000BC0149835A836B837C830E94CF2449810B
:101330005A816B817C810F900F900F900F90DF91FD
:10134000CF911F910F910C947F2CCF92DF92EF924F
:10135000FF92DB01ED91FC91EC32F10548F5EE0FC7
:10136000FF1FEE0FFF1FE354FF4FC590D590E59090
:10137000F490F601970135952795E0FE12C0DC0147
:10138000A20FB31F2D913C911197F901EC0DFD1D9A
:101390000190F081E02DCD01FF90EF90DF90CF9094
:1013A0000994820F931FFF90EF90DF90CF900994E4
:1013B000FF90EF90DF90CF900895FB0182819381A1
:1013C0000097C9F00197B1F40E94AC1F0E947E1EE5
:1013D0000E94AC370E94BE370E94BA360E94C836BF
:1013E0000E94AC370E94C0370E94CF2461E070E0B9
:1013F0000C94DE2508950E94BA360E949E350E9404
:10140000AC370E94C2370E94AC1F0E94C41D0E94CC
:10141000AC370E94BC370E94CF2460E070E00C948F
:10142000DE258F929F92AF92BF92CF92DF92EF9282
:10143000FF920F931F93CF93DF93CDB7DEB72B9718
:101440000FB6F894DEBF0FBECDBF8C017B010E94AA
:10145000AC370E94C437F701E280F3800E94D91AAA
:10146000B7010E94661B4B015C010E94CF24B501AD
:10147000A4010E94452A81E0F80186830E9400466B
:101480000E9422466B017C010E94004640E050E031
:1014900060E070E40E942E46C60ED71EE81EF91EBC
:1014A000F801C782D086E186F2860E9460310E94F0
:1014B000D91AFC01E080F1800E944B3A0E94533B14
:1014C000FC0196E0DE01119601900D929A95E1F7EC
:1014D0000E944B3A40E060E00E942F3B8701000FE2
:1014E000111F000F111F000F111F0E191F09F80106
:1014F000E656FF4FE590F49082E00E94C83E8B874D
:1015000081E00E94C83E8A87F801E456FF4F25918A
:10151000359145915491C501B4010E94D1504B01C0
:101520005C01F801E056FF4F84910E94C93E898713
:1015300089E00E94C83E888784E00E94C83E8F836D
:101540000E944B3A61E87EE30E94373EBE01695F2C
:101550007F4F0E94CA3E63E271E00E945E3B65EAF3
:101560007EE30E94373E69E37EE30E94373E6DE5ED
:101570007EE30E94373EBE01685F7F4F0E94CA3EF5
:10158000BE01675F7F4F0E94EF3EB501A4010E943C
:101590001D3DBE01665F7F4F0E94CA3E69E471E057
:1015A0000E945E3B61E87EE30E94373EBE01655FBC
:1015B0007F4F0E94CA3EB7010E945E3B0E944B3A99
:1015C00040E061E00E942F3B0E944B3ABE016F5FFA
:1015D0007F4F0E94553B0E94AC370E94C6372B9626
:1015E0000FB6F894DEBF0FBECDBFDF91CF911F9134
:1015F0000F91FF90EF90DF90CF90BF90AF909F90B2
:101600008F9008958F929F92AF92BF92CF92DF9268
:10161000EF92FF920F931F93CF93DF93CDB7DEB777
:101620002B970FB6F894DEBF0FBECDBF8C017B01A8
:101630000E94AC370E94C437F701E280F3800E9419
:101640006031B7010E946E314B015C010E94CF24D2
:10165000B501A4010E94972B81E0F80186830E94C6
:1016600000460E9422466B017C010E94004640E039
:1016700050E060E070E40E942E46C60ED71EE81EC1
:10168000F91EF801C782D086E186F2860E94603199
:10169000FC01E080F1800E94D91A0E944B3A0E941E
:1016A000533BFC0196E0DE01119601900D929A9554
:1016B000E1F70E944B3A40E060E00E942F3B0E941D
:1016C0004B3A40E061E00E942F3B8701000F111F61
:1016D000000F111F000F111F0E191F09F801E0590B
:1016E000FF4FE590F49082E00E94C83E8B8781E036
:1016F0000E94C83E8A87F801EE58FF4F2591359128
:1017000045915491C501B4010E94D1504B015C0137
:10171000F801EA58FF4F84910E94C93E898789E009
:101720000E94C83E888784E00E94C83E8F830E9442
:101730004B3A61E87EE30E94373EBE01695F7F4F0E
:101740000E94CA3E66E271E00E945E3B65EA7EE36B
:101750000E94373E69E37EE30E94373E6DE57EE3FB
:101760000E94373EBE01685F7F4F0E94CA3EBE01A5
:10177000675F7F4F0E94EF3EB501A4010E941D3DAF
:10178000BE01665F7F4F0E94CA3E69E471E00E941D
:101790005E3B61E87EE30E94373EBE01655F7F4F9E
:1017A0000E94CA3EB7010E945E3B0E944B3ABE01B6
:1017B0006F5F7F4F0E94553B0E94AC370E94C63737
:1017C0002B960FB6F894DEBF0FBECDBFDF91CF9141
:1017D0001F910F91FF90EF90DF90CF90BF90AF904F
:1017E0009F908F900895CF92DF92EF92FF92CF93C8
:1017F000DF93EC0180919702811107C082E692E0AD
:101800000E941A3381E08093970282E692E00E9460
:10181000CF340E94CF240E94762E81E08E830E94D6
:1018200000460E9422466B017C010E94004640E077
:1018300050E060E070E40E942E46C60ED71EE81EFF
:10184000F91ECF82D886E986FA860E944B3A40E09C
:1018500060E00E942F3B0E944B3A69E271E00E94D7
:101860005E3B0E944B3A40E061E00E942F3B0E94A9
:101870004B3A6AE371E0DF91CF91FF90EF90DF90F8
:10188000CF900C945E3BCF92DF92EF92FF92CF937A
:10189000DF93EC010E9460310E948E320E94CF24BF
:1018A0000E946E2B81E08E830E9400460E94224699
:1018B0006B017C010E94004640E050E060E070E473
:1018C0000E942E46C60ED71EE81EF91ECF82D8866D
:1018D000E986FA860E944B3A40E060E00E942F3B86
:1018E0000E944B3A69E271E00E945E3B0E944B3AD3
:1018F00040E061E00E942F3B0E944B3A6AE371E0B6
:10190000DF91CF91FF90EF90DF90CF900C945E3BF2
:10191000CF92DF92EF92FF92CF93DF93EC010E9480
:10192000D91A0E941A1D0E94CF240E941C2A81E00D
:101930008E830E9400460E9422466B017C010E9419
:10194000004640E050E060E070E40E942E46C60E83
:10195000D71EE81EF91ECF82D886E986FA860E9435
:101960004B3A40E060E00E942F3B0E944B3A69E214
:1019700071E00E945E3B0E944B3A40E061E00E94B1
:101980002F3B0E944B3A6AE371E0DF91CF91FF90C9
:10199000EF90DF90CF900C945E3BCF92DF92EF926E
:1019A000FF92CF93DF93EC010E94AC1F0E944F2067
:1019B0000E94CF240E94352781E08E830E9400463A
:1019C0000E9422466B017C010E94004640E050E0EC
:1019D00060E070E40E942E46C60ED71EE81EF91E77
:1019E000CF82D886E986FA860E944B3A40E060E0D2
:1019F0000E942F3B0E944B3A69E271E00E945E3BDD
:101A00000E944B3A40E061E00E942F3B0E944B3A1B
:101A10006AE371E0DF91CF91FF90EF90DF90CF907C
:101A20000C945E3BCF92DF92EF92FF92CF93DF93C5
:101A3000EC010E94BA360E9496370E94CF240E9481
:101A4000CA2881E08E830E9400460E9422466B01D4
:101A50007C010E94004640E050E060E070E40E949B
:101A60002E46C60ED71EE81EF91ECF82D886E986FE
:101A7000FA860E944B3A40E060E00E942F3B0E94B1
:101A80004B3A69E271E00E945E3B0E944B3A40E0B3
:101A900061E00E942F3B0E944B3A6AE371E0DF91C4
:101AA000CF91FF90EF90DF90CF900C945E3B0F931F
:101AB0001F93CF93DF93CDB7DEB7AB970FB6F894F4
:101AC000DEBF0FBECDBF0E944B3A0E94533BFC01CC
:101AD00096E0DE01919601900D929A95E1F70E94B1
:101AE0004B3A40E060E00E942F3B66E771E0CE0198
:101AF00001960E94D6538C010E944B3AB8010E9475
:101B00005E3B0E944B3A40E061E00E942F3B82E046
:101B10000E94C83E8FA381E00E94C83E88A782E051
:101B20000E94C83E89A781E00E94C83E8AA782E041
:101B30000E94C83E8BA76DE671E0CE0101960E941F
:101B4000D6538C010E944B3AB8010E945E3BBE0105
:101B5000655D7F4F0E94CA3E6DE57EE30E94373E81
:101B60004FEF50E060E070E00E94283CBE01665DEF
:101B70007F4F0E94CA3E6BE471E00E945E3BBE0153
:101B8000675D7F4F0E94CA3E6DE57EE30E94373E4F
:101B90004FEF50E060E070E00E94283CBE01685DBD
:101BA0007F4F0E94CA3E6BE471E00E945E3BBE0123
:101BB000695D7F4F0E94CA3E6DE57EE30E94373E1D
:101BC0004DEF50E060E070E00E94283C0E944B3AEC
:101BD000BE016F5D7F4F0E94553BAB960FB6F894E8
:101BE000DEBF0FBECDBFDF91CF911F910F91089542
:101BF000CF92DF92EF92FF92CF93DF93EC010E949E
:101C00001C3A82ED91E0998388831E821F82188698
:101C100019861A861B861C861D861E861F860E94B4
:101C20004B3A0E94AC1F0E94BA360E94D91A0E94F9
:101C3000603180919702811107C082E692E00E9494
:101C40001A3381E0809397020E94C8370E94CF2404
:101C50000E94AC1F0E94C41D0E94AC370E94BC377A
:101C60000E94BA3640E050E0BA010E9401370E945B
:101C7000603160E070E00E94D9320E94CF24AE0152
:101C800065EA79E00E94363ACE010E94570D7894B9
:101C900081E08E830E9400460E9422466B017C01F7
:101CA0000E94004640E050E060E070E40E942E4652
:101CB000C60ED71EE81EF91ECF82D886E986FA86A0
:101CC000DF91CF91FF90EF90DF90CF9008952F920A
:101CD0003F924F925F926F927F928F929F92AF92BC
:101CE000BF92CF92DF92EF92FF920F931F93CF9309
:101CF000DF93CDB7DEB72B970FB6F894DEBF0FBEDC
:101D0000CDBFF62E29013A010E944B3A0E94533B67
:101D1000FC0196E0DE01119601900D929A95E1F793
:101D20000E944B3A40E060E00E942F3BF11099C0C6
:101D30000E944B3A40E061E00E942F3BEE2009F404
:101D400070C08401000F111F000F111F000F111F21
:101D500008191909F801E059FF4FE590F49082E065
:101D60000E94C83E8F8381E00E94C83E8887F801A8
:101D7000EE58FF4F2591359145915491C601B5011B
:101D80000E94D1504B015C01F801EA58FF4F849149
:101D90000E94C93E898789E00E94C83E8A8784E004
:101DA0000E94C83E8B870E944B3A61E87EE30E9406
:101DB000373EBE01655F7F4F0E94CA3E66E271E01A
:101DC0000E945E3B65EA7EE30E94373E69E37EE364
:101DD0000E94373E6DE57EE30E94373EBE01665F9E
:101DE0007F4F0E94CA3EBE01675F7F4F0E94EF3E59
:101DF000B501A4010E941D3DBE01685F7F4F0E9496
:101E0000CA3E69E471E00E945E3B61E87EE30E94A5
:101E1000373EBE01695F7F4F0E94CA3EB7010E94F4
:101E20005E3B0E944B3ABE016F5F7F4F0E94553B65
:101E30002B960FB6F894DEBF0FBECDBFDF91CF91CA
:101E40001F910F91FF90EF90DF90CF90BF90AF90D8
:101E50009F908F907F906F905F904F903F902F90CA
:101E60000895F801EE0FFF1FEE0FFF1FEE0FFF1F8B
:101E7000CF01801B910B8C01FC01E656FF4F259092
:101E8000349082E00E94C83E8F8381E00E94C83E69
:101E90008887F801E456FF4F25913591459154917B
:101EA000C301B2010E94D1502B013C01F801E05660
:101EB000FF4F84910E94C93E898789E00E94C83EF5
:101EC0008A8784E00E94C83E8B870E944B3A61E873
:101ED0007EE30E94373EBE01655F7F4F0E94CA3E8F
:101EE00063E271E00E945E3B65EA7EE30E94373E5A
:101EF00069E37EE30E94373E6DE57EE30E94373E54
:101F0000BE01665F7F4F0E94CA3EBE01675F7F4F82
:101F10000E94EF3EB301A2010E941D3DBE01685F19
:101F20007F4F0E94CA3E69E471E00E945E3B61E817
:101F30007EE30E94373EBE01695F7F4F0E94CA3E2A
:101F4000B1010E945E3BF4CE2F923F924F925F927E
:101F50006F927F928F929F92AF92BF92CF92DF92B9
:101F6000EF920F931F93CF93DF9300D000D0CDB7A4
:101F7000DEB71C01FC018385811125C00E94D91A9E
:101F80000E942E1D0E9460310E94A2320E94D91A26
:101F9000FC0180AD91AD892B39F10F900F900F901E
:101FA0000F90DF91CF911F910F91EF90DF90CF9025
:101FB000BF90AF909F908F907F906F905F904F9069
:101FC0003F902F9008950E9400460E942246F10102
:101FD0000485158526853785601771078207930765
:101FE00068F2F1011386CACF0E946031FC0180AD16
:101FF00091AD892B91F60E94D91A0E94861D9B01F2
:10200000AC0169833A834B835C830E9460310E94F8
:10201000B1325B016C01F101868129813A814B81EA
:102020005C81811119C029833A834B835C830E94B0
:102030006031FC01808091800E94D91AFC010081EE
:102040001181EE24E39429813A814B815C8161E026
:10205000C1010E94670EA1CF29833A834B835C8321
:102060000E9400460E942246F1014780508461840C
:10207000728429813A814B815C81641575058605DE
:10208000970518F0F1011682CECFF10186818111FA
:1020900084CFC9CF2FEF8FE398E321508040904049
:1020A000E1F700C0000080918F02811107C082E536
:1020B00092E00E94F80D81E080938F020E94FB392C
:1020C00080E090E008952F923F924F925F926F923E
:1020D0007F928F929F92AF92BF92CF92DF92EF92B8
:1020E000FF920F931F93CF93DF938C01EB01FC01C1
:1020F000E080F1806E157F050CF065C082809380D2
:10210000A480B580A5019401608571858285938541
:102110000E94AC4E2B013C01F801668177816E195B
:102120007F09072E000C880B990B0E94CE4F9B0154
:10213000AC01C301B2010E941E4F2B013C01CE191C
:10214000DF09BE01DD0F880B990B0E94CE4F9B016A
:10215000AC01C301B2010E94D1509B01AC01C50189
:10216000B4010E94AD4E8B01D82FC92F2CE53FE85A
:1021700042E85FE3C501B4010E94D1506B017C01CC
:102180009B01AC01B8018D2F9C2F0E94194F87FD38
:10219000EDC0502F412F9E01652F742F832F922F5A
:1021A000DF91CF911F910F91FF90EF90DF90CF9033
:1021B000BF90AF909F908F907F906F905F904F9067
:1021C0003F902F900895FC01208C318C2616370605
:1021D0000CF47EC0A4E0B0E00DC04C175D070CF01D
:1021E000CAC09C01CB01BF2DAC01421B530B423036
:1021F0005105FCF02B2F30E06A2F70E0C901860FEB
:10220000971F95958795F82EFC01EE0FFF1FE80F9D
:10221000F91FEE0FFF1FE00FF11F40815181C4171E
:10222000D507DCF6A82FAC01421B530B42305105F9
:102230000CF7F901EE0FFF1FE20FF31FEE0FFF1F68
:10224000E00FF11F82809380A480B580E080F18050
:102250009C01220F331F820F931F880F991F080FB5
:10226000191FA5019401F801628173818481958110
:102270000E94AC4E2B013C01F801608171816E1906
:102280007F09072E000C880B990B0E94CE4F9B01F3
:10229000AC01C301B2010E941E4F2B013C01CE19BB
:1022A000DF09BE01DD0F880B990B0E94CE4F9B0109
:1022B000AC01C301B2010E94D1509B01AC01C50128
:1022C000B4010E94AD4E562F472F382F292F64CFCF
:1022D000C28CD38CE48CF58C84889588A688B788CA
:1022E00002891389A5019401C701B6010E94AC4E71
:1022F0002B013C01B101601B710B072E000C880BF8
:10230000990B0E94CE4F9B01AC01C301B2010E9408
:102310001E4F2B013C01C01BD10BBE01DD0F880BF2
:10232000990B0E94CE4F9B01AC01C301B2010E94E8
:10233000D1509B01AC01C501B4010E94AD4E8B018F
:10234000D82FC92F2CE53FE842E85FE3C701B6016B
:102350000E94D1506B017C019B01AC01B8018D2F13
:102360009C2F0E94CC5018160CF013CF5C2D4D2DD5
:102370003E2D2F2D11CF52814381348125810CCFE9
:102380002F923F924F925F926F927F928F929F9285
:10239000AF92BF92CF92DF92EF92FF920F931F9373
:1023A000CF93DF93CDB7DEB728970FB6F894DEBF93
:1023B0000FBECDBF8C016A017B01FC01828093803E
:1023C000A480B5809A01AB01C501B4010E94CC5034
:1023D000F80118160CF079C060807180B301072CE9
:1023E000000C880B990B0E94CE4F69837A838B83F4
:1023F0009C83F8016681778166197709072E000CA6
:10240000880B990B0E94CE4F2B013C01A501940132
:10241000F80160857185828593850E94AC4E9B0191
:10242000AC01C301B2010E941E4F2B013C01A5016A
:102430009401C701B6010E94AC4E9B01AC01C301DF
:10244000B2010E94D15029813A814B815C810E9466
:10245000AD4E8B015C012CE53FE842E85FE369810A
:102460007A818B819C810E94D1506B017C019B0100
:10247000AC01B801C5010E94194F87FD23C1502F3F
:10248000412F3A2D2B2D652F742F832F922F0E94D1
:102490003E510E94904FCB0128960FB6F894DEBFB4
:1024A0000FBECDBFDF91CF911F910F91FF90EF90A5
:1024B000DF90CF90BF90AF909F908F907F906F9064
:1024C0005F904F903F902F900895828C938CA48CB6
:1024D000B58CA7019601C501B4010E94194F87FD73
:1024E00094C0F4E0F9831D8211C0A7019601C301D5
:1024F000B2010E94194F87FFEAC045015101FE81D8
:10250000FD83C50188199909029754F12D81822E06
:10251000912C3981232E312C5401A20CB31CB5947B
:10252000A794AE82C501880F991F8A0D9B1D880F45
:10253000991FFC01E00FF11FF887EF834280538061
:1025400064807580A7019601C301B2010E94CC503E
:1025500018165CF6A982C501881999090297B4F684
:10256000F401EE0FFF1FE80DF91DEE0FFF1FE00F46
:10257000F11F208031804280538064807580C501C6
:10258000880F991F8A0D9B1D880F991F080F191F0F
:10259000F8016081718162197309072E000C880BA4
:1025A000990B0E94CE4F4B015C01A3019201F801EF
:1025B00062817381848195810E94AC4E9B01AC0144
:1025C000C501B4010E941E4F4B015C01A3019201A1
:1025D000C701B6010E94AC4E9B01AC01C501B4011C
:1025E0000E94D1506B017C01B101330C880B990B17
:1025F0000E94CE4F9B01AC01C701B6010E94AD4EB7
:10260000562F472F382F292F3ECFF801208C318CA1
:102610002289338938872F8344885588668877884C
:10262000B101621B730B072E000C880B990B0E94E3
:10263000CE4F69837A838B839C83A3019201C5016A
:10264000B4010E94AC4E9B01AC0169817A818B81FF
:102650009C810E941E4F4B015C01A3019201C701A6
:10266000B6010E94AC4E9B01AC01C501B4010E94B1
:10267000D1506B017C01EF81F885BF01FF0F880B02
:10268000990B0E94CE4F9B01AC01C701B6010E947D
:10269000AD4E8B015C01B101330C880B990B0E948C
:1026A000CE4F2CE53FE842E85FE30E94D1506B013A
:1026B0007C019B01AC01B801C5010E94CC501816E9
:1026C0000CF0DDCE5C2D4D2D3E2D2F2DDCCEEF817F
:1026D000F88560817181072E000C880B990B0E9490
:1026E000CE4F562F472F382F292FCDCE2F923F92E6
:1026F0004F925F926F927F928F929F92AF92BF9212
:10270000CF92DF92EF92FF920F931F93CF93DF93BD
:102710008C01EB01FC01E080F1806E157F050CF06F
:1027200065C082809380A480B580A50194016085F6
:102730007185828593850E94AC4E2B013C01F80186
:10274000668177816E197F09072E000C880B990B23
:102750000E94CE4F9B01AC01C301B2010E941E4FEB
:102760002B013C01CE19DF09BE01DD0F880B990B4F
:102770000E94CE4F9B01AC01C301B2010E94D15017
:102780009B01AC01C501B4010E94AD4E8B01D82F55
:10279000C92F2CE53FE842E85FE3C501B4010E9480
:1027A000D1506B017C019B01AC01B8018D2F9C2F96
:1027B0000E94194F87FDEDC0502F412F9E01652FBC
:1027C000742F832F922FDF91CF911F910F91FF9044
:1027D000EF90DF90CF90BF90AF909F908F907F90C1
:1027E0006F905F904F903F902F900895FC01208C48
:1027F000318C261637060CF47EC0A4E0B0E00DC084
:102800004C175D070CF0CAC09C01CB01BF2DAC0179
:10281000421B530B42305105FCF02B2F30E06A2F46
:1028200070E0C901860F971F95958795F82EFC01DA
:10283000EE0FFF1FE80FF91FEE0FFF1FE00FF11F54
:1028400040815181C417D507DCF6A82FAC01421B8B
:10285000530B423051050CF7F901EE0FFF1FE20F49
:10286000F31FEE0FFF1FE00FF11F82809380A48003
:10287000B580E080F1809C01220F331F820F931FEF
:10288000880F991F080F191FA5019401F801628193
:102890007381848195810E94AC4E2B013C01F8012B
:1028A000608171816E197F09072E000C880B990BCE
:1028B0000E94CE4F9B01AC01C301B2010E941E4F8A
:1028C0002B013C01CE19DF09BE01DD0F880B990BEE
:1028D0000E94CE4F9B01AC01C301B2010E94D150B6
:1028E0009B01AC01C501B4010E94AD4E562F472F8C
:1028F000382F292F64CFC28CD38CE48CF58C84883C
:102900009588A688B78802891389A5019401C70113
:10291000B6010E94AC4E2B013C01B101601B710B52
:10292000072E000C880B990B0E94CE4F9B01AC0127
:10293000C301B2010E941E4F2B013C01C01BD10BF1
:10294000BE01DD0F880B990B0E94CE4F9B01AC019D
:10295000C301B2010E94D1509B01AC01C501B40179
:102960000E94AD4E8B01D82FC92F2CE53FE842E8DD
:102970005FE3C701B6010E94D1506B017C019B014E
:10298000AC01B8018D2F9C2F0E94CC5018160CF072
:1029900013CF5C2D4D2D3E2D2F2D11CF5281438114
:1029A000348125810CCF2F923F924F925F926F928C
:1029B0007F928F929F92AF92BF92CF92DF92EF92CF
:1029C000FF920F931F93CF93DF93CDB7DEB7289776
:1029D0000FB6F894DEBF0FBECDBF8C016A017B013C
:1029E000FC0182809380A480B5809A01AB01C5016F
:1029F000B4010E94CC50F80118160CF079C0608028
:102A00007180B301072C000C880B990B0E94CE4FEC
:102A100069837A838B839C83F80166817781661949
:102A20007709072E000C880B990B0E94CE4F2B01C3
:102A30003C01A5019401F80160857185828593852B
:102A40000E94AC4E9B01AC01C301B2010E941E4F1B
:102A50002B013C01A5019401C701B6010E94AC4EB7
:102A60009B01AC01C301B2010E94D15029813A817E
:102A70004B815C810E94AD4E8B015C012CE53FE8EF
:102A800042E85FE369817A818B819C810E94D15009
:102A90006B017C019B01AC01B801C5010E94194F7B
:102AA00087FD23C1502F412F3A2D2B2D652F742FD9
:102AB000832F922F0E943E510E94904FCB01289667
:102AC0000FB6F894DEBF0FBECDBFDF91CF911F913F
:102AD0000F91FF90EF90DF90CF90BF90AF909F90BD
:102AE0008F907F906F905F904F903F902F900895C0
:102AF000828C938CA48CB58CA7019601C501B4017E
:102B00000E94194F87FD94C0F4E0F9831D8211C023
:102B1000A7019601C301B2010E94194F87FFEAC0C5
:102B200045015101FE81FD83C5018819990902976C
:102B300054F12D81822E912C3981232E312C540178
:102B4000A20CB31CB594A794AE82C501880F991F3F
:102B50008A0D9B1D880F991FFC01E00FF11FF8875C
:102B6000EF834280538064807580A7019601C30182
:102B7000B2010E94CC5018165CF6A982C5018819D2
:102B800099090297B4F6F401EE0FFF1FE80DF91D45
:102B9000EE0FFF1FE00FF11F208031804280538035
:102BA00064807580C501880F991F8A0D9B1D880F51
:102BB000991F080F191FF80160817181621973094B
:102BC000072E000C880B990B0E94CE4F4B015C0125
:102BD000A3019201F80162817381848195810E9431
:102BE000AC4E9B01AC01C501B4010E941E4F4B01CC
:102BF0005C01A3019201C701B6010E94AC4E9B018A
:102C0000AC01C501B4010E94D1506B017C01B1013E
:102C1000330C880B990B0E94CE4F9B01AC01C7016E
:102C2000B6010E94AD4E562F472F382F292F3ECF89
:102C3000F801208C318C2289338938872F8344888E
:102C4000558866887788B101621B730B072E000CCC
:102C5000880B990B0E94CE4F69837A838B839C8368
:102C6000A3019201C501B4010E94AC4E9B01AC01CD
:102C700069817A818B819C810E941E4F4B015C018E
:102C8000A3019201C701B6010E94AC4E9B01AC01A9
:102C9000C501B4010E94D1506B017C01EF81F88520
:102CA000BF01FF0F880B990B0E94CE4F9B01AC0117
:102CB000C701B6010E94AD4E8B015C01B101330C1E
:102CC000880B990B0E94CE4F2CE53FE842E85FE36A
:102CD0000E94D1506B017C019B01AC01B801C50180
:102CE0000E94CC5018160CF0DDCE5C2D4D2D3E2DE3
:102CF0002F2DDCCEEF81F88560817181072E000CCD
:102D0000880B990B0E94CE4F562F472F382F292F13
:102D1000CDCE2F923F924F925F926F927F928F9281
:102D20009F92AF92BF92CF92DF92EF92FF921F934A
:102D3000CF93DF93CDB7DEB72C970FB6F894DEBFF5
:102D40000FBECDBF1C016A017B01DC018D909D90FF
:102D5000AD90BC901397481559056A057B050CF09A
:102D60007DC014962D913D914D915C9117972983CB
:102D70003A834B835C831C966D917D918D919C91E0
:102D80001F970E94AC4E2B013C01F101808591857B
:102D9000A285B385BC01CD01681979098A099B090F
:102DA0000E94CE4F9B01AC01C301B2010E941E4F95
:102DB0002B013C01C701B601681979098A099B09F1
:102DC0000E94CE4F9B01AC01C301B2010E94D150C1
:102DD0009B01AC0169817A818B819C810E94AD4EFF
:102DE000F62E172F982EA92E2CE53FE842E85FE338
:102DF00069817A818B819C810E94D150B62EC72E29
:102E0000D82EE92E262F372F482F592F6F2D712FAF
:102E1000892D9A2D0E94194F87FD37C15F2D412FB3
:102E2000392D2A2D652F742F832F922F2C960FB6B4
:102E3000F894DEBF0FBECDBFDF91CF911F91FF9001
:102E4000EF90DF90CF90BF90AF909F908F907F904A
:102E50006F905F904F903F902F900895DC01909677
:102E60004D905D906D907C90939744165506660644
:102E700077060CF495C014E0B12C0FC04C155D051D
:102E80006E057F050CF006C19C01CD01BA2CAC018A
:102E9000421B530B423051051CF12B2D30E0A12F6A
:102EA000B0E0C9018A0F9B1F95958795A82EFC015C
:102EB000EE0FFF1FEE0FFF1FEE0FFF1FE20DF31DC2
:102EC0004081518162817381C416D506E606F706FA
:102ED000ACF6182FAC01421B530B42305105ECF6F7
:102EE000220F331F220F331F220F331FF101E20F76
:102EF000F31F84809580A680B78020813181428134
:102F0000538129833A834B835C83880F991F880FF1
:102F1000991F880F991F280E391EA5019401D10110
:102F200014966D917D918D919C9117970E94AC4E56
:102F30002B013C01F10180819181A281B381BC010F
:102F4000CD0129813A814B815C81621B730B840B1B
:102F5000950B0E94CE4F9B01AC01C301B2010E94B0
:102F60001E4F2B013C01C701B60129813A814B81DB
:102F70005C81621B730B840B950B0E94CE4F9B01EF
:102F8000AC01C301B2010E94D1509B01AC01C5014B
:102F9000B4010E94AD4E562F472F382F292F42CF14
:102FA00094968D909D90AD90BC9097975C962D9146
:102FB0003D914D915C915F9729833A834B835C836C
:102FC00058962D913D914D915C915B972D833E8359
:102FD0004F83588729813A814B815C81C501B401B7
:102FE0000E94AC4E69877A878B879C87C301B201A8
:102FF0002D813E814F815885621B730B840B950B8D
:103000000E94CE4F9B01AC0169857A858B859C859A
:103010000E941E4F2B013C01C701B6012D813E814C
:103020004F815885621B730B840B950B0E94CE4F0A
:103030009B01AC01C301B2010E94D1509B01AC01C4
:1030400069817A818B819C810E94AD4EF62E172F6B
:103050003C012CE53FE842E85FE3C501B4010E9472
:10306000D150B62EC72ED82EE92E262F372F482F17
:10307000592F6F2D712FC3010E94CC5018162CF0C0
:103080005F2D412F362D272DCDCE5B2D4C2D3D2D87
:103090002E2DC8CE5481458136812781C3CE2F92F3
:1030A0003F924F925F926F927F928F929F92AF92D8
:1030B000BF92CF92DF92EF92FF921F93CF93DF9355
:1030C000CDB7DEB72C970FB6F894DEBF0FBECDBFDD
:1030D0001C016A017B01DC018D909D90AD90BC903C
:1030E0001397481559056A057B050CF07DC01496A9
:1030F0002D913D914D915C91179729833A834B8394
:103100005C831C966D917D918D919C911F970E947F
:10311000AC4E2B013C01F10180859185A285B385E0
:10312000BC01CD01681979098A099B090E94CE4F1B
:103130009B01AC01C301B2010E941E4F2B013C0157
:10314000C701B601681979098A099B090E94CE4F07
:103150009B01AC01C301B2010E94D1509B01AC01A3
:1031600069817A818B819C810E94AD4EF62E172F4A
:10317000982EA92E2CE53FE842E85FE369817A8129
:103180008B819C810E94D150B62EC72ED82EE92E5D
:10319000262F372F482F592F6F2D712F892D9A2DBC
:1031A0000E94194F87FD37C15F2D412F392D2A2DE0
:1031B000652F742F832F922F2C960FB6F894DEBFB5
:1031C0000FBECDBFDF91CF911F91FF90EF90DF90A9
:1031D000CF90BF90AF909F908F907F906F905F90B7
:1031E0004F903F902F900895DC0190964D905D9008
:1031F0006D907C90939744165506660677060CF4FE
:1032000095C014E0B12C0FC04C155D056E057F050F
:103210000CF006C19C01CD01BA2CAC01421B530B32
:10322000423051051CF12B2D30E0A12FB0E0C90137
:103230008A0F9B1F95958795A82EFC01EE0FFF1F07
:10324000EE0FFF1FEE0FFF1FE20DF31D40815181B6
:1032500062817381C416D506E606F706ACF6182F10
:10326000AC01421B530B42305105ECF6220F331FC9
:10327000220F331F220F331FF101E20FF31F84804F
:103280009580A680B7802081318142815381298336
:103290003A834B835C83880F991F880F991F880F8F
:1032A000991F280E391EA5019401D10114966D9124
:1032B0007D918D919C9117970E94AC4E2B013C0102
:1032C000F10180819181A281B381BC01CD0129816D
:1032D0003A814B815C81621B730B840B950B0E94BE
:1032E000CE4F9B01AC01C301B2010E941E4F2B01C6
:1032F0003C01C701B60129813A814B815C81621B87
:10330000730B840B950B0E94CE4F9B01AC01C30144
:10331000B2010E94D1509B01AC01C501B4010E94D1
:10332000AD4E562F472F382F292F42CF94968D9090
:103330009D90AD90BC9097975C962D913D914D914D
:103340005C915F9729833A834B835C8358962D91D8
:103350003D914D915C915B972D833E834F835887C0
:1033600029813A814B815C81C501B4010E94AC4E38
:1033700069877A878B879C87C301B2012D813E8143
:103380004F815885621B730B840B950B0E94CE4FA7
:103390009B01AC0169857A858B859C850E941E4FB7
:1033A0002B013C01C701B6012D813E814F8158851B
:1033B000621B730B840B950B0E94CE4F9B01AC01DB
:1033C000C301B2010E94D1509B01AC0169817A8195
:1033D0008B819C810E94AD4EF62E172F3C012CE56F
:1033E0003FE842E85FE3C501B4010E94D150B62E28
:1033F000C72ED82EE92E262F372F482F592F6F2D65
:10340000712FC3010E94CC5018162CF05F2D412F54
:10341000362D272DCDCE5B2D4C2D3D2D2E2DC8CEFE
:103420005481458136812781C3CE0895549A559899
:1034300008955C9808955C9A08950895089589B157
:1034400085FB882780F991E08927089585309105CB
:1034500040F4FC01EE0FFF1FE056FE4F8591949162
:103460000895E0EAF1E08591949108954F925F927A
:103470006F927F928F929F92AF92BF92EF92FF9244
:103480000F931F93CF93DF93EC018B01FC016193AA
:1034900071937F01CB010E94C82F5C010E94ED2F28
:1034A000A701B5010E941A45889709F466C0F80182
:1034B000EE0FFF1FEE0FFF1FE957FE4F859095900F
:1034C000A590B490C501B401905823E3422E542C2A
:1034D00023EF622E77247A944A825B826C827D820B
:1034E0006E837F838887998731EE432E3AE7532E88
:1034F00034EF632E77247A944A865B866C867D86C9
:1035000026E636E646E65FE30E94D1506E877F8767
:10351000888B998B1A8A1B8A1C8A1D8A1E8A1F8A8D
:10352000188E198E8FE195E8ABE0B0E08A8F9B8F03
:10353000AC8FBD8F26E636E646E65FE3C501B401F3
:103540000E94D1506E8F7F8F88A399A38DEC9CEC45
:10355000ACE0B0E08AA39BA3ACA3BDA38EA29FA2C4
:10356000A8A6B9A6888199810E94C82F5C010E94F3
:10357000ED2FA701B5010E948445AA96CE010E94B5
:103580004B41F801E556FE4F0491682F607F602B98
:10359000CE01DF91CF911F910F91FF90EF90BF90DF
:1035A000AF909F908F907F906F905F904F900C9412
:1035B0002D418091D902811186C01092A1021092F2
:1035C000A2021092A3021092A4021092A5021092DD
:1035D000A6021092A7021092A8021092A9021092BD
:1035E000AA021092AB021092AC021092AD0210929D
:1035F000AE021092AF021092B0021092B10210927D
:10360000B2021092B3021092B4021092B50210925C
:10361000B6021092B7021092B8021092B90210923C
:10362000BA021092BB021092BC021092BD0210921C
:10363000BE021092BF021092C0021092C1021092FC
:10364000C2021092C3021092C4021092C5021092DC
:10365000C6021092C7021092C80260E089EC92E0A4
:103660000E942A418AEC92E00E94A54288ED91E0F6
:103670009093CB028093CA028AEC92E00E94C042EF
:1036800060E170E08DEC92E00E94EA4989EC92E002
:103690000E94C141682F607F89EC92E00E94ED4159
:1036A00089EC92E00E947741682F607F89EC92E07C
:1036B0000E94A34162E070E08FE992E00E94361A16
:1036C00081E08093D9028FE992E00895AF92BF9292
:1036D000CF92DF92EF92FF920F931F93CF93DF93DE
:1036E000CDB7DEB727970FB6F894DEBF0FBECDBFBC
:1036F0005C01613081E0780710F060E071E0CE019C
:1037000001960E946C4A2B813C818D819E812817F5
:10371000390709F452C08501055D1F4F16C00E948C
:103720006A436B017C0144275527BA014C195D0996
:103730006E097F09CE0101960E94864A2B813C8149
:103740008D819E8128173907C1F10E946F39FC01D4
:10375000C080D1800D2C000CEE08FF087601DD241E
:10376000CC240E946F39FC0182819381092E000CC8
:10377000AA0BBB0BBA2FA92F982F8827C82AD92AA2
:10378000EA2AFB2A0E946F39FC0184819581092E67
:10379000000CAA0BBB0BC82AD92AEA2AFB2A60E034
:1037A000C801C114D104F3E0EF06F10408F0B7CF6B
:1037B0000E946A43AB01BC01BDCFCE0101960E94BD
:1037C000A84A0E943E510E94904FAB01BC01C50126
:1037D00002960E9489166B017C01CE0101960E941F
:1037E000814AC701B60127960FB6F894DEBF0FBE17
:1037F000CDBFDF91CF911F910F91FF90EF90DF90A0
:10380000CF90BF90AF900895CF92DF92EF92FF924A
:103810000F931F93CF93DF93EC01E881F981EE0FB3
:10382000FF1FEE0FFF1FE957FE4FC590D590E590A3
:10383000F490C701B601905803E313E323EF3FEF81
:103840000A831B832C833D836E837F8388879987BC
:1038500001EE1AE724EF3FEF0A871B872C873D878D
:1038600026E636E646E65FE30E94D1506E877F8704
:10387000888B998B1A8A1B8A1C8A1D8A1E8A1F8A2A
:10388000188E198E8FE195E8ABE0B0E08A8F9B8FA0
:10389000AC8FBD8F26E636E646E65FE3C701B6018C
:1038A0000E94D1506E8F7F8F88A399A38DEC9CECE2
:1038B000ACE0B0E08AA39BA3ACA3BDA3CEA2DFA2E1
:1038C000E8A6F9A6DF91CF911F910F91FF90EF909D
:1038D000DF90CF9008954F925F926F927F928F9278
:1038E0009F92AF92BF92CF92DF92EF92FF920F938F
:1038F0001F93CF93DF93CDB7DEB72C970FB6F89415
:10390000DEBF0FBECDBF4C015B0129013A0160E86B
:1039100070E0CE0101960E94EA498B859C85892B37
:1039200009F457C08401055D1F4F14C00E946A430B
:103930006B017C0144275527BA014C195D096E09BA
:103940007F09CE0101960E94064A8B859C85892BB2
:1039500009F43FC00E946F39FC01C080D1800D2C5A
:10396000000CEE08FF087601DD24CC240E946F399C
:10397000FC0182819381092E000CAA0BBB0BBA2F8C
:10398000A92F982F8827C82AD92AEA2AFB2A0E9419
:103990006F39FC0184819581092E000CAA0BBB0BA9
:1039A000C82AD92AEA2AFB2A60E0C801C114D10436
:1039B000F3E0EF06F10408F0B9CF0E946A43AB01CF
:1039C000BC01CE0101960E94064A8B859C85892BFD
:1039D00009F6CE0101960E94414A0E943E51BB2445
:1039E000AA0CBB1CAA0CBB1CAA0CBB1C8A0C9B1CE3
:1039F0000E94904FF401628373838483958346828F
:103A00005782608671862C960FB6F894DEBF0FBE83
:103A1000CDBFDF91CF911F910F91FF90EF90DF907D
:103A2000CF90BF90AF909F908F907F906F905F905E
:103A30004F9008950F931F93CF93DF93EC018991DB
:103A400099910E94C82F8C010E94ED2FAE01B80100
:103A5000DF91CF911F910F910C948445CF92DF920B
:103A6000EF92FF920F931F93CF93DF93EC010E948D
:103A70006F39FC01C080D1800D2C000CEE08FF08CE
:103A80007601DD24CC240E946F39FC018281938170
:103A9000092E000CAA0BBB0BBA2FA92F982F882731
:103AA000C82AD92AEA2AFB2A0E946F39FC0184819C
:103AB0009581092E000CAA0BBB0BC82AD92AEA2A29
:103AC000FB2A60E0CE018B96C114D104F3E0EF062F
:103AD000F104B8F00E946A438B019C0144275527EA
:103AE000BA01401B510B620B730BCE018E96DF9116
:103AF000CF911F910F91FF90EF90DF90CF900C949A
:103B0000064A0E946A43AB01BC01EFCFCF92DF921D
:103B1000EF92FF920F931F93CF93DF938C01EC01F1
:103B2000AE96CE010E94414A0E943E510E94904FA3
:103B3000AB01BC01C80102960E9489166B017C0191
:103B4000CE010E94F849C701B601DF91CF911F91C4
:103B50000F91FF90EF90DF90CF9008955F980895B8
:103B60005F9A0895579A08958530910540F4FC01B5
:103B7000EE0FFF1FED53FE4F859194910895E3ECF6
:103B8000F1E08591949108958F929F92AF92BF92A8
:103B9000CF92DF92EF92FF920F931F93CF93DF9319
:103BA000EC0181E08AA77E0184E2E80EF11CC701E6
:103BB0000E944B41682F6F7EC7010E942D410C81EE
:103BC0001D816E0186E0C80ED11CC8010E94A82F7D
:103BD0005C010E94ED2FA601B5010E941A454E9787
:103BE00009F44DC0F801EE0FFF1FEE0FFF1FE65561
:103BF000FE4F85909590A590B490C501B401905862
:103C00002BEB33EF3F832E83688779878A879B87E7
:103C100025EF34EF3D872C8726E636E646E65FE360
:103C20000E94D1506E877F87888B998B1B8A1A8A56
:103C30001C8A1D8A1E8A1F8A8BE09BE0998F888FC1
:103C400026E636E646E65FE3C501B4010E94D150A0
:103C50006A8F7B8F8C8F9D8F85E49CE09F8F8E8FEA
:103C600088A299A2AAA2BBA28C819D810E94A82FA2
:103C70005C010E94ED2FA601B5010E948445C70199
:103C80000E944B41F801E254FE4F0491682F607F7F
:103C9000602BC7010E942D418AA581110DC0DF91C3
:103CA000CF911F910F91FF90EF90DF90CF90BF9039
:103CB000AF909F908F900895488159816A817B8150
:103CC000C6010E94C0118C01BC01C6010E94631094
:103CD000688379838A839B83B8017058CE01859667
:103CE000DF91CF911F910F91FF90EF90DF90CF90D8
:103CF000BF90AF909F908F900C945342FC0112A6FE
:103D000008958F929F92AF92BF92CF92DF92EF92DF
:103D1000FF920F931F93CF93DF93EC018B017D8371
:103D20006C837C0186E0E80EF11CCB010E94A82F79
:103D30006C010E94ED2FA701B6010E941A454E9713
:103D400009F44DC0F801EE0FFF1FEE0FFF1FE655FF
:103D5000FE4F85909590A590B490C501B401905800
:103D60002BEB33EF3F832E83688779878A879B8786
:103D700025EF34EF3D872C8726E636E646E65FE3FF
:103D80000E94D1506E877F87888B998B1B8A1A8AF5
:103D90001C8A1D8A1E8A1F8A8BE09BE0998F888F60
:103DA00026E636E646E65FE3C501B4010E94D1503F
:103DB0006A8F7B8F8C8F9D8F85E49CE09F8F8E8F89
:103DC00088A299A2AAA2BBA28C819D810E94A82F41
:103DD0006C010E94ED2FA701B6010E9484456E017F
:103DE00084E2C80ED11CC6010E944B41F801E25486
:103DF000FE4F0491682F607F602BC6010E942D4109
:103E00008AA581110DC0DF91CF911F910F91FF9075
:103E1000EF90DF90CF90BF90AF909F908F900895DC
:103E2000488159816A817B81C7010E94C0118C0140
:103E3000BC01C7010E946310688379838A839B83D6
:103E4000B8017058CE018596DF91CF911F910F91E7
:103E5000FF90EF90DF90CF90BF90AF909F908F90AA
:103E60000C945342CF92DF92EF92FF920F931F93E5
:103E7000CF93DF93EC01188219821A821B8282E0B1
:103E800090E09D838C836E0186E0C80ED11C1F825A
:103E90001E82188619861A861B861D861C861E861B
:103EA0001F86188A198A1B8A1A8A1C8A1D8A1E8AEA
:103EB0001F8A198E188E1A8E1B8E1C8E1D8E1F8EB9
:103EC0001E8E18A219A21AA21BA28E010C5D1F4FF2
:103ED00060E0C8010E942A417E0185E2E80EF11CE3
:103EE000C7010E940E428AEE91E09EA38DA3C701F6
:103EF0000E942B421AA6C8010E94C141682F607C13
:103F0000C8010E94ED41C8010E947741682F607C82
:103F1000C8010E94A34162E070E0CE010E94811EB0
:103F200040E050E0BA01C6010E94C0118C01BC0102
:103F3000C6010E946310688379838A839B83B801DA
:103F40007058C701DF91CF911F910F91FF90EF90B3
:103F5000DF90CF900C94534280910C03811107C0E5
:103F600081EE92E00E94321F81E080930C0381EE8B
:103F700092E00895EF92FF920F931F93CF93DF93F8
:103F80008C017C0186E0E80EF11CC7010E94C01183
:103F9000EC01BC01C7010E946310F80160837183CA
:103FA00082839383BE017058C8018596DF91CF91BB
:103FB0001F910F91FF90EF900C945342CF92DF929C
:103FC000EF92FF92CF93DF93EC01EC81FD81EE0F36
:103FD000FF1FEE0FFF1FE655FE4FC590D590E590F1
:103FE000F490C701B60190582BEB33EF3F832E833B
:103FF000688779878A879B8725EF34EF3D872C87F1
:1040000026E636E646E65FE30E94D1506E877F875C
:10401000888B998B1B8A1A8A1C8A1D8A1E8A1F8A82
:104020008BE09BE0998F888F26E636E646E65FE3D5
:10403000C701B6010E94D1506A8F7B8F8C8F9D8FF4
:1040400085E49CE09F8F8E8FC8A2D9A2EAA2FBA232
:10405000DF91CF91FF90EF90DF90CF900895772779
:10406000FB01EE0FFF1FE60FF71FEE0FFF1FE80F1C
:10407000F91F66817781705885960C945342772793
:10408000FB01EE0FFF1F6E0F7F1F660F771F860F5E
:10409000971FFC01208731874287538708950F932C
:1040A0001F93CF93DF93EC018C819D810E94A82FF9
:1040B0008C010E94ED2FAE014A5F5F4FB801DF9186
:1040C000CF911F910F910C948445089521E030E029
:1040D000FC0130AF27ABBC01695C7F4F0C943C3ACC
:1040E0004430510508F4089528E030E0FC0130AF79
:1040F00027ABBC01695C7F4F0C943C3A44305105BE
:1041000008F408952EE030E0FC0130AF27ABBC018D
:10411000695C7F4F0C943C3A4430510508F4089593
:1041200023E130E0FC0130AF27ABBC01695C7F4F7D
:104130000C943C3A4430510508F4089528E130E0ED
:10414000FC0130AF27ABBC01695C7F4F0C943C3A5B
:104150004430510508F408952AE130E0FC0130AF05
:1041600027ABBC01695C7F4F0C943C3A443051054D
:1041700008F408952BE130E0FC0130AF27ABBC011F
:10418000695C7F4F0C943C3A4430510508F4089523
:104190002CE130E0FC0130AF27ABBC01695C7F4F04
:1041A0000C943C3A4430510508F408952DE130E078
:1041B000FC0130AF27ABBC01695C7F4F0C943C3AEB
:1041C0004430510508F4089521E230E0FC0130AF9D
:1041D00027ABBC01695C7F4F0C943C3A44305105DD
:1041E00008F4089522E230E0FC0130AF27ABBC01B7
:1041F000695C7F4F0C943C3A4430510508F40895B3
:1042000026E230E0FC0130AF27ABBC01695C7F4F98
:104210000C943C3A4430510508F4089528E230E00B
:10422000FC0130AF27ABBC01695C7F4F0C943C3A7A
:104230004430510508F408952AE230E0FC0130AF23
:1042400027ABBC01695C7F4F0C943C3A0F931F93E2
:10425000FB01A081B1812B2F3A2F2C32310540F583
:10426000EB2FFA2FEE0FFF1FEE0FFF1FE353FE4F52
:104270000591159125913491F80120FF12C0F901A3
:10428000F595E795DC01AE0FBF1FED91FC911197FD
:10429000E00FF11F0190F081E02DCD011F910F91F2
:1042A000099435952795820F931F1F910F910994BB
:1042B0001F910F9108954830510508F40895DB01CE
:1042C0001596EC9115971496FC91E230F10580F06B
:1042D000E7EAF2E02591349143E050E0FC0150AF71
:1042E00047AB32AF21AFBC01695C7F4F0C943C3AC5
:1042F000EE0FFF1FE955FD4FEDCF4830510508F493
:104300000895DB011596EC9115971496FC91E53014
:10431000F10590F4EE0FFF1FE356FD4F2591349108
:1043200044E050E0FC0150AF47AB32AF21AFBC01DD
:10433000695C7F4F0C943C3AEDE9F2E0EFCF4830F6
:10434000510578F0FB012481358145E050E0FC0106
:1043500050AF47AB31AF22AFBC01695C7F4F0C94CB
:104360003C3A08954830510578F0FB0124813581AD
:1043700046E050E0FC0150AF47AB31AF22AFBC018B
:10438000695C7F4F0C943C3A08954830510508F41D
:104390000895DB011596EC9115971496FC91E23087
:1043A000F10580F0E9E9F2E0259134914AE050E02E
:1043B000FC0150AF47AB32AF21AFBC01695C7F4F0E
:1043C0000C943C3AEE0FFF1FE756FD4FEDCF4830FF
:1043D000510578F0FB01248135814BE050E0FC0170
:1043E00050AF47AB31AF22AFBC01695C7F4F0C943B
:1043F0003C3A08954830510578F0FB01248135811D
:104400004CE050E0FC0150AF47AB31AF22AFBC01F4
:10441000695C7F4F0C943C3A08954830510508F48C
:104420000895DB011596EC9115971496FC91E530F3
:10443000F10590F4EE0FFF1FE157FD4F25913491E8
:1044400040E150E0FC0150AF47AB32AF21AFBC01BF
:10445000695C7F4F0C943C3AEFE8F2E0EFCF4830D4
:10446000510578F0FB012481358141E150E0FC01E8
:1044700050AF47AB31AF22AFBC01695C7F4F0C94AA
:104480003C3A08954830510578F0FB01248135818C
:1044900044E150E0FC0150AF47AB31AF22AFBC016B
:1044A000695C7F4F0C943C3A08954830510508F4FC
:1044B0000895DB011596EC9115971496FC91E63062
:1044C000F10590F4EE0FFF1FED57FD4F259134914C
:1044D00045E150E0FC0150AF47AB32AF21AFBC012A
:1044E000695C7F4F0C943C3AE3E8F2E0EFCF483050
:1044F000510578F0FB012481358146E150E0FC0153
:1045000050AF47AB31AF22AFBC01695C7F4F0C9419
:104510003C3A08954830510578F0FB0124813581FB
:1045200049E150E0FC0150AF47AB31AF22AFBC01D5
:10453000695C7F4F0C943C3A08954830510578F0FF
:10454000FB01248135814EE150E0FC0150AF47ABC7
:1045500031AF22AFBC01695C7F4F0C943C3A0895A7
:104560004830510508F40895E1E8F2E025913491CE
:1045700043E250E0FC0150AF47AB32AF21AFBC018A
:10458000695C7F4F0C943C3A4830510578F0FB0150
:104590002481358144E250E0FC0150AF47AB31AF9C
:1045A00022AFBC01695C7F4F0C943C3A08954830BF
:1045B000510578F0FB012481358147E250E0FC0190
:1045C00050AF47AB31AF22AFBC01695C7F4F0C9459
:1045D0003C3A08954830510508F40895DB011596DA
:1045E000EC9115971496FC91E230F10580F0EDE71F
:1045F000F2E02591349149E250E0FC0150AF47AB25
:1046000032AF21AFBC01695C7F4F0C943C3AEE0F96
:10461000FF1FE358FD4FEDCFFB014830510590F0EF
:10462000248135814681578162E070E0FC0170AFE2
:1046300067AB51AF42AF33AF24AFBC01695C7F4F72
:104640000C943C3A0895FB0148305105A0F0478195
:104650005681658174812BE230E0FC0130AF27ABDD
:104660006627772741AF52AF63AF74AFBC01695C77
:104670007F4F0C943C3A0895FB014C305105D0F02B
:1046800044815581B385A2853185208567E070E03E
:10469000FC0170AF67AB51AF42AF4B2F5A2F632F66
:1046A000722F43AF54AF65AF76AFBC01695C7F4FEB
:1046B0000C943C3A0895FB0148305105B0F0B781A5
:1046C000A6813581248149E050E0FC0150AF47AB21
:1046D0004B2F5A2F632F722F41AF52AF63AF74AF7E
:1046E000BC01695C7F4F0C943C3A0895FB014C304F
:1046F0005105D0F044815581B385A285318520854F
:104700006DE070E0FC0170AF67AB51AF42AF4B2F73
:104710005A2F632F722F43AF54AF65AF76AFBC01F2
:10472000695C7F4F0C943C3A0895FB014830510579
:10473000B0F0B781A681358124814FE050E0FC01C3
:1047400050AF47AB4B2F5A2F632F722F41AF52AF51
:1047500063AF74AFBC01695C7F4F0C943C3A089521
:10476000FB014C305105D0F044815581B385A285C1
:104770003185208562E170E0FC0170AF67AB51AF1D
:1047800042AF4B2F5A2F632F722F43AF54AF65AFF9
:1047900076AFBC01695C7F4F0C943C3A0895FB01F5
:1047A0004C305105D0F044815581B385A2853185C7
:1047B000208567E170E0FC0170AF67AB51AF42AF9D
:1047C0004B2F5A2F632F722F43AF54AF65AF76AF85
:1047D000BC01695C7F4F0C943C3A0895FB014C305E
:1047E0005105D0F044815581B385A285318520855E
:1047F00065E270E0FC0170AF67AB51AF42AF4B2F89
:104800005A2F632F722F43AF54AF65AF76AFBC0101
:10481000695C7F4F0C943C3A08954830510578F01C
:10482000FB01248135814FE150E0FC0150AF47ABE3
:1048300031AF22AFBC01695C7F4F0C943C3A0895C4
:10484000FB014830510590F0448155812681378124
:1048500060E270E0FC0170AF67AB51AF42AF33AFC5
:1048600024AFBC01695C7F4F0C943C3A0895AF9231
:10487000BF92CF92DF92EF92FF920F931F93CF934D
:10488000DF937C010E94E5460E94A5475C010E94DF
:10489000DB46EC01892B59F4DF91CF911F910F91E9
:1048A000FF90EF90DF90CF90BF90AF900895670199
:1048B00086E0C80ED11C85015701EEE0AE0EB11C9A
:1048C00005C0C6010E947040219731F3F801619143
:1048D0008F01C6010E948440F70190A99923A1F39A
:1048E000408551854430510560F3B501C7010E94F0
:1048F0002621E7CF8530910540F4FC01EE0FFF1F24
:10490000E356FD4F859194910895EDE9F2E085918C
:10491000949108958230910528F0E9E9F2E08591BB
:1049200094910895FC01EE0FFF1FE756FD4F85910E
:10493000949108958530910540F4FC01EE0FFF1F1E
:10494000E157FD4F859194910895EFE8F2E085914C
:10495000949108958630910540F4FC01EE0FFF1FFD
:10496000ED57FD4F859194910895E3E8F2E085912C
:1049700094910895E1E8F2E0859194910895823050
:10498000910528F0EDE7F2E0859194910895FC01FE
:10499000EE0FFF1FE358FD4F85919491089580918C
:1049A0005303811119C084E193E00E941C3A84EF03
:1049B00091E090931503809314038AE193E00E94A1
:1049C0005C400E94E54640E855E260E070E00E94ED
:1049D0004B4781E08093530384E193E00895CF93A4
:1049E000DF9300D000D0CDB7DEB749835A836B8305
:1049F0007C830E94E54649815A816B817C810F90BE
:104A00000F900F900F90DF91CF910C942A47CF9386
:104A1000DF9300D000D0CDB7DEB749835A836B83D4
:104A20007C830E94E54649815A816B817C810F908D
:104A30000F900F900F90DF91CF910C944B478F9276
:104A40009F92AF92BF92CF92DF92EF92FF920F931D
:104A50001F93CF93DF9300D000D0CDB7DEB75B01BB
:104A600006966C016CE270E029833A834B835C8389
:104A70000E944B404C01FC01108681E08187138627
:104A800012865C8154A74B8145A73A8136A72981BC
:104A900027A710AB01ABF2AAE3AAC4010C9620E24F
:104AA000FC0111922A95E9F7B5010E94E853C4016F
:104AB0000E942C40F401058114810E94E546A80162
:104AC000485F5F4FB4010E94E047B401C6010F90F8
:104AD0000F900F900F90DF91CF911F910F91FF904A
:104AE000EF90DF90CF90BF90AF909F908F900C94FD
:104AF0005B40EF92FF920F931F93CF93DF93069645
:104B00007C0164E070E00E944B40EC01188619863D
:104B10001B861A860E942C400D811C810E94E5464E
:104B2000A801485F5F4FBE010E94E047BE01C70178
:104B3000DF91CF911F910F91FF90EF900C945B400C
:104B4000CF92DF92EF92FF920F931F93CF93DF9359
:104B500000D0CDB7DEB7162F072F06967C0168E090
:104B600070E049835A830E944B406C01FC0110861F
:104B700082E0818713861286048715875A815687BB
:104B800049814787C6010E942C40F60105811481A6
:104B90000E94E546A801485F5F4FB6010E94E047CA
:104BA000B601C7010F900F90DF91CF911F910F9128
:104BB000FF90EF90DF90CF900C945B40EF92FF92CC
:104BC0000F931F93CF93DF93162F072F06967C0129
:104BD00068E070E00E944B40EC01188683E0898712
:104BE0001B861A860C871D871F861E86CE010E9493
:104BF0002C400D811C810E94E546A801485F5F4F53
:104C0000BE010E94E047BE01C701DF91CF911F9115
:104C10000F91FF90EF900C945B40EF92FF920F93F7
:104C20001F93CF93DF93162F072F06967C0168E022
:104C300070E00E944B40EC01188684E089871B8657
:104C40001A860C871D871F861E86CE010E942C4067
:104C50000D811C810E94E546A801485F5F4FBE019F
:104C60000E94E047BE01C701DF91CF911F910F91D4
:104C7000FF90EF900C945B40AF92BF92CF92DF9287
:104C8000EF92FF920F931F93CF93DF9300D000D04A
:104C9000CDB7DEB7D62EC72E06967C016CE070E04D
:104CA0002B833C8349835A830E944B405C01FC0167
:104CB000108685E0818713861286C486D5865A8140
:104CC0005687498147873C812B81C801432F522F4A
:104CD000692F702FF501408B518B628B738BC5014F
:104CE0000E942C40F501058114810E94E546A8012F
:104CF000485F5F4FB5010E94E047B501C7010F90C3
:104D00000F900F900F90DF91CF911F910F91FF9017
:104D1000EF90DF90CF90BF90AF900C945B40AF923C
:104D2000BF92CF92DF92EF92FF920F931F93CF9398
:104D3000DF9300D000D0CDB7DEB7D62EC72E0696B3
:104D40007C016CE070E02B833C8349835A830E9492
:104D50004B405C01FC01108686E081871386128639
:104D6000C486D5865A815687498147873C812B81E5
:104D7000C801432F522F692F702FF501408B518BA3
:104D8000628B738BC5010E942C40F5010581148153
:104D90000E94E546A801485F5F4FB5010E94E047C9
:104DA000B501C7010F900F900F900F90DF91CF9139
:104DB0001F910F91FF90EF90DF90CF90BF90AF9039
:104DC0000C945B40AF92BF92CF92DF92EF92FF9232
:104DD0000F931F93CF93DF9300D000D0CDB7DEB7F2
:104DE000D62EC72E06967C016CE070E02B833C83A8
:104DF00049835A830E944B405C01FC01108687E086
:104E0000818713861286C486D5865A815687498142
:104E100047873C812B81C801432F522F692F702F68
:104E2000F501408B518B628B738BC5010E942C4026
:104E3000F501058114810E94E546A801485F5F4F96
:104E4000B5010E94E047B501C7010F900F900F9088
:104E50000F90DF91CF911F910F91FF90EF90DF9016
:104E6000CF90BF90AF900C945B40EF92FF920F9366
:104E70001F93CF93DF9306967C0164E070E00E945D
:104E80004B40EC01188688E089871B861A86CE0184
:104E90000E942C400D811C810E94E546A801485FBC
:104EA0005F4FBE010E94E047BE01C701DF91CF9175
:104EB0001F910F91FF90EF900C945B40CF92DF9287
:104EC000EF92FF920F931F93CF93DF9300D0CDB754
:104ED000DEB7162F072F06967C0168E070E0498345
:104EE0005A830E944B406C01FC01108689E0818747
:104EF000138612865A81952F4981842F402F512F76
:104F0000692F782F4487558766877787C6010E9467
:104F10002C40F601058114810E94E546A801485FF6
:104F20005F4FB6010E94E047B601C7010F900F9096
:104F3000DF91CF911F910F91FF90EF90DF90CF9075
:104F40000C945B40EF92FF920F931F93CF93DF93EC
:104F5000162F072F06967C0168E070E00E944B40F8
:104F6000EC0118868AE089871B861A860C871D87C4
:104F70001F861E86CE010E942C400D811C810E943E
:104F8000E546A801485F5F4FBE010E94E047BE01B1
:104F9000C701DF91CF911F910F91FF90EF900C947B
:104FA0005B40AF92BF92CF92DF92EF92FF920F934E
:104FB0001F93CF93DF9300D000D0CDB7DEB7D62EAE
:104FC000C72E06967C016CE070E02B833C834983FE
:104FD0005A830E944B405C01FC0110868BE0818764
:104FE00013861286C486D5865A815687498147879B
:104FF0003C812B81C801432F522F692F702FF5015F
:10500000408B518B628B738BC5010E942C40F50144
:10501000058114810E94E546A801485F5F4FB501F4
:105020000E94E047B501C7010F900F900F900F90BD
:10503000DF91CF911F910F91FF90EF90DF90CF9074
:10504000BF90AF900C945B40AF92BF92CF92DF9233
:10505000EF92FF920F931F93CF93DF9300D000D076
:10506000CDB7DEB7D62EC72E06967C016CE070E079
:105070002B833C8349835A830E944B405C01FC0193
:1050800010868CE0818713861286C486D5865A8165
:105090005687498147873C812B81C801432F522F76
:1050A000692F702FF501408B518B628B738BC5017B
:1050B0000E942C40F501058114810E94E546A8015B
:1050C000485F5F4FB5010E94E047B501C7010F90EF
:1050D0000F900F900F90DF91CF911F910F91FF9044
:1050E000EF90DF90CF90BF90AF900C945B40AF9269
:1050F000BF92CF92DF92EF92FF920F931F93CF93C5
:10510000DF9300D000D0CDB7DEB7D62EC72E0696DF
:105110007C016CE070E02B833C8349835A830E94BE
:105120004B405C01FC0110868DE08187138612865E
:10513000C486D5865A815687498147873C812B8111
:10514000C801432F522F692F702FF501408B518BCF
:10515000628B738BC5010E942C40F501058114817F
:105160000E94E546A801485F5F4FB5010E94E047F5
:10517000B501C7010F900F900F900F90DF91CF9165
:105180001F910F91FF90EF90DF90CF90BF90AF9065
:105190000C945B40EF92FF920F931F93CF93DF939A
:1051A00006967C0164E070E00E944B40EC0118869A
:1051B0008EE089871B861A86CE010E942C400D81C5
:1051C0001C810E94E546A801485F5F4FBE010E9416
:1051D000E047BE01C701DF91CF911F910F91FF9072
:1051E000EF900C945B40CF92DF92EF92FF920F937F
:1051F0001F93CF93DF9300D0CDB7DEB7162F072FC5
:1052000006967C0168E070E049835A830E944B4017
:105210006C01FC0110868FE08187138612865A810B
:10522000952F4981842F402F512F692F782F448744
:10523000558766877787C6010E942C40F601058155
:1052400014810E94E546A801485F5F4FB6010E94A5
:10525000E047B601C7010F900F90DF91CF911F91EA
:105260000F91FF90EF90DF90CF900C945B40EF9206
:10527000FF920F931F93CF93DF93162F072F06965E
:105280007C0168E070E00E944B40EC01188680E1F0
:1052900089871B861A860C871D871F861E86CE016E
:1052A0000E942C400D811C810E94E546A801485FA8
:1052B0005F4FBE010E94E047BE01C701DF91CF9161
:1052C0001F910F91FF90EF900C945B408F929F92F3
:1052D000AF92BF92CF92DF92EF92FF920F931F9304
:1052E000CF93DF9300D000D0CDB7DEB7B62EA72E78
:1052F00006966C0160E170E029833A834B835C83FE
:105300000E944B404C01FC01108681E1818713868D
:105310001286A486B586178616865C81508B4B81D3
:10532000418B3A81328B2981238B9801C701432F0E
:10533000502F692F7E2D448B558B668B778BC40144
:105340000E942C40F401058114810E94E546A801C9
:10535000485F5F4FB4010E94E047B401C6010F905F
:105360000F900F900F90DF91CF911F910F91FF90B1
:10537000EF90DF90CF90BF90AF909F908F900C9464
:105380005B408F929F92AF92BF92CF92DF92EF924B
:10539000FF920F931F93CF93DF9300D000D0CDB730
:1053A000DEB7B62EA72E06966C0160E170E0298369
:1053B0003A834B835C830E944B404C01FC01108676
:1053C00082E1818713861286A486B58617861686A3
:1053D0005C81508B4B81418B3A81328B2981238BAD
:1053E0009801C701432F502F692F7E2D448B558B79
:1053F000668B778BC4010E942C40F40105811481D7
:105400000E94E546A801485F5F4FB4010E94E04753
:10541000B401C6010F900F900F900F90DF91CF91C4
:105420001F910F91FF90EF90DF90CF90BF90AF90C2
:105430009F908F900C945B40EF92FF920F931F937D
:10544000CF93DF9306967C0164E070E00E944B40AE
:10545000EC01188683E189871B861A86CE010E949B
:105460002C400D811C810E94E546A801485F5F4FDA
:10547000BE010E94E047BE01C701DF91CF911F919D
:105480000F91FF90EF900C945B40CF92DF92EF92E0
:10549000FF920F931F93CF93DF9300D0CDB7DEB76A
:1054A000162F072F06967C0168E070E049835A8327
:1054B0000E944B406C01FC01108684E181871386B9
:1054C00012865A81952F4981842F402F512F692FA1
:1054D000782F4487558766877787C6010E942C40BE
:1054E000F601058114810E94E546A801485F5F4FDF
:1054F000B6010E94E047B601C7010F900F90DF91FF
:10550000CF911F910F91FF90EF90DF90CF900C946F
:105510005B40EF92FF920F931F93CF93DF93162F71
:10552000072F06967C0168E070E00E944B40EC017A
:10553000188685E189871B861A860C871D871F863A
:105540001E86CE010E942C400D811C810E94E546E2
:10555000A801485F5F4FBE010E94E047BE01C7013E
:10556000DF91CF911F910F91FF90EF900C945B40D2
:105570008F929F92AF92BF92CF92DF92EF92FF9263
:105580000F931F93CF93DF9300D000D0CDB7DEB73A
:10559000B62EA72E06966C0160E170E029833A834F
:1055A0004B835C830E944B404C01FC01108686E1DA
:1055B000818713861286A486B586178616865C8137
:1055C000508B4B81418B3A81328B2981238B9801FF
:1055D000C701432F502F692F7E2D448B558B668B2F
:1055E000778BC4010E942C40F401058114810E9434
:1055F000E546A801485F5F4FB4010E94E047B4014F
:10560000C6010F900F900F900F90DF91CF911F91D7
:105610000F91FF90EF90DF90CF90BF90AF909F9051
:105620008F900C945B408F929F92AF92BF92CF92DB
:10563000DF92EF92FF920F931F93CF93DF9300D0EF
:1056400000D0CDB7DEB7B62EA72E06966C0160E16E
:1056500070E029833A834B835C830E944B404C016A
:10566000FC01108687E1818713861286A486B586A1
:10567000178616865C81508B4B81418B3A81328B29
:105680002981238B9801C701432F502F692F7E2D2D
:10569000448B558B668B778BC4010E942C40F401A0
:1056A000058114810E94E546A801485F5F4FB4015F
:1056B0000E94E047B401C6010F900F900F900F9029
:1056C000DF91CF911F910F91FF90EF90DF90CF90DE
:1056D000BF90AF909F908F900C945B40EF92FF92A1
:1056E0000F931F93CF93DF9306967C0164E070E0E5
:1056F0000E944B40EC01188688E189871B861A8638
:10570000CE010E942C400D811C810E94E546A8011B
:10571000485F5F4FBE010E94E047BE01C701DF91B5
:10572000CF911F910F91FF90EF900C945B40CF921F
:10573000DF92EF92FF920F931F93CF93DF9300D0EE
:10574000CDB7DEB7162F072F06967C0168E070E014
:1057500049835A830E944B406C01FC01108689E109
:105760008187138612865A81952F4981842F402F75
:10577000512F692F782F4487558766877787C60111
:105780000E942C40F601058114810E94E546A80183
:10579000485F5F4FB6010E94E047B601C7010F9016
:1057A0000F90DF91CF911F910F91FF90EF90DF90BD
:1057B000CF900C945B40EF92FF920F931F93CF9387
:1057C000DF9306967C0164E070E00E944B40EC01A0
:1057D00018868AE189871B861A86CE010E942C4092
:1057E0000D811C810E94E546A801485F5F4FBE0104
:1057F0000E94E047BE01C701DF91CF911F910F9139
:10580000FF90EF900C945B40EF92FF920F931F93E9
:10581000CF93DF9306967C0164E070E00E944B40DA
:10582000EC0118868BE189871B861A86CE010E94BF
:105830002C400D811C810E94E546A801485F5F4F06
:10584000BE010E94E047BE01C701DF91CF911F91C9
:105850000F91FF90EF900C945B40EF92FF920F93AB
:105860001F93CF93DF9306967C0164E070E00E9463
:105870004B40EC0118868CE189871B861A86CE0185
:105880000E942C400D811C810E94E546A801485FC2
:105890005F4FBE010E94E047BE01C701DF91CF917B
:1058A0001F910F91FF90EF900C945B40EF92FF924D
:1058B0000F931F93CF93DF9306967C0164E070E013
:1058C0000E944B40EC0118868DE189871B861A8661
:1058D000CE010E942C400D811C810E94E546A8014A
:1058E000485F5F4FBE010E94E047BE01C701DF91E4
:1058F000CF911F910F91FF90EF900C945B40CF924E
:10590000DF92EF92FF920F931F93CF93DF9300D01C
:10591000CDB7DEB7162F072F06967C0168E070E042
:1059200049835A830E944B406C01FC0110868EE132
:105930008187138612865A81952F4981842F402FA3
:10594000512F692F782F4487558766877787C6013F
:105950000E942C40F601058114810E94E546A801B1
:10596000485F5F4FB6010E94E047B601C7010F9044
:105970000F90DF91CF911F910F91FF90EF90DF90EB
:10598000CF900C945B40CF92DF92EF92FF920F93F7
:105990001F93CF93DF9300D0CDB7DEB7162F072F1D
:1059A00006967C0168E070E049835A830E944B4070
:1059B0006C01FC0110868FE18187138612860487B3
:1059C00015875A81568749814787C6010E942C4016
:1059D000F601058114810E94E546A801485F5F4FEA
:1059E000B6010E94E047B601C7010F900F90DF910A
:1059F000CF911F910F91FF90EF90DF90CF900C947B
:105A00005B40CF92DF92EF92FF920F931F93CF9361
:105A1000DF9300D0CDB7DEB7162F072F06967C0197
:105A200068E070E049835A830E944B406C01FC019E
:105A3000108680E2818713861286048715875A8133
:105A4000568749814787C6010E942C40F60105818F
:105A500014810E94E546A801485F5F4FB6010E948D
:105A6000E047B601C7010F900F90DF91CF911F91D2
:105A70000F91FF90EF90DF90CF900C945B40EF92EE
:105A8000FF920F931F93CF93DF9306967C0164E000
:105A900070E00E944B40EC01188681E289871B86EA
:105AA0001A86CE010E942C400D811C810E94E54681
:105AB000A801485F5F4FBE010E94E047BE01C701D9
:105AC000DF91CF911F910F91FF90EF900C945B406D
:105AD000EF92FF920F931F93CF93DF9306967C0173
