:100000000C94B5020C94D2020C94D2020C94D2023D
:100010000C94D2020C94D2020C94D2020C94D20210
:100020000C94D2020C94D2020C94D2020C94D20200
:100030000C94D2020C94D2020C94D2020C94D202F0
:100040000C945C4E0C94D2020C94D2020C94D2020A
:100050000C94444F0C94D2020C94D2020C94D20211
:100060000C94D2020C94D2020C94D2020C94D202C0
:10007000ED0100007A4406ED0100007A4405ED012F
:1000800000007A4404F7010000803F06F7010000F9
:10009000803F05F7010000803F04010200247449FD
:1000A0000501020024744904100200007A4406107D
:1000B0000200007A4405100200007A4404D40200D1
:1000C00000D502000098080000410800001A030053
:1000D0000082030000A2030000D20300002C0B00EA
:1000E00000060400001E040000380400005804004C
:1000F0000088040000A20A0000BC0400004E0300B7
:1001000000D4040000FE040000E70A00001009000B
:10011000003F05000059050000830500005D0A004E
:1001200000710B0000C4050000D1050000DE0500D1
:1001300000EB0500001A080000F805000033060077
:1001400000900600009D060000AA060000C40600FC
:1001500000EE060000180A00002F0700004E0700FE
:10016000005B0700007707000089070000B907005F
:1001700000D70700004D0E00008D0E0000462F77BF
:10018000206465762000492D5620536F7572636593
:10019000204D6574657200ACC5273717B7D1386F2D
:1001A00012833A0AD7233CCDCCCC3D08040201008F
:1001B00000000100020003000400ACC5273717B798
:1001C000D1386F12833A0AD7233CCDCCCC3D0804FA
:1001D0000201000000010002000300040091210060
:1001E00000922100008B240000C7220000E92200B9
:1001F000000B2300001E230000BD240000B22100DC
:1002000000DD24000031230000532300006623009A
:1002100000F9240000C02100001925000079230006
:10022000009B23000035250000CE210000AE2300F6
:1002300000C1230000E323000055250000DC21005D
:1002400000F6230000EA210000F821000006220049
:1002500000142200000924000095250000A82500B4
:100260000022220000302200001C24000030240064
:1002700000752500003E220000432400004C2200AF
:1002800000562400005A220000A324000068220027
:100290000078240000762200008422000000000183
:1002A000000000000001000200030004000500003F
:1002B0000001000200030004000000010000000132
:1002C00000020003000400000001001E001E001ECA
:1002D000001E001E001E001E002800280028002806
:1002E00000280028002800280028002800280022D4
:1002F00000280013000C000D000E000F001000116C
:10030000000700080009000A000B000500060000B5
:100310000001000200030004006F12833A0AD72391
:100320003CCDCCCC3D0000803F000020410000C807
:100330004208040201003000000100000001000238
:100340000003000400050000002041000000002020
:10035000410000C842002000000100030003000229
:10036000000AD7233C0300030003000AD7233C0301
:1003700000030004000AD7233C0200020004006FBF
:1003800012833A01000100040017B7D138010001BF
:10039000000400ACC52737010001000400BD37860A
:1003A000350300030002000AD7233CCDCCCC3D032B
:1003B00000030003000AD7233C0000803F03000332
:1003C0000004000AD7233C00002041020002000480
:1003D000006F12833A000020410100010004001761
:1003E000B7D13800002041010001000400ACC5274E
:1003F0003700002041010001000400BD37863500B0
:100400000020410000010002000300040005000676
:100410000080C04046000041460000474600004DB5
:1004200046000000FFFFFFFF000100FF002000105A
:10043000000800040001020399500000A0500000D1
:10044000BF5000004B510000DE5000006B51000017
:10045000E5500000EC500000F35000000B5100008C
:1004600012510000365100006E616E00696E660028
:1004700000407A10F35A00A0724E18090010A5D45B
:10048000E80000E87648170000E40B54020000CAB8
:100490009A3B000000E1F5050000809698000000FE
:1004A00040420F000000A08601000000102700005D
:1004B0000000E803000000006400000000000A00E3
:1004C000000000000100000000002C76D888DC67E6
:1004D0004F0823DFC1DFAE59E1B1B796E5E3E4533E
:1004E000C63AE651997696E8E6C28426EB898C9B5B
:1004F00062ED407C6FFCEFBC9C9F40F2BAA56FA5FB
:10050000F490055A2AF75C936B6CF9676DC11BFC7C
:10051000E0E40D47FEF520E6B500D0ED902E030097
:10052000943577050080841E080000204E0A0000E4
:1005300000C80C333333330F986E12831141EF8DA3
:100540002114893BE65516CFFEE6DB18D1844B38E3
:100550001BF77C1D901DA4BBE424203284725E2214
:100560008100C9F124ECA1E53D2711241FBECFEF86
:10057000D0E1DEBFCDBF12E0A0E0B1E0EEE6FCEBE3
:1005800002C005900D92A03CB107D9F723E0A0EC82
:10059000B2E001C01D92AC37B207E1F70E94F8103B
:1005A0000C94355E0C9400000895CF92DF92EF9288
:1005B000FF920F931F93DC019496ED91FC91959718
:1005C00040815181052E000C660B770B9A01112793
:1005D000002742815381052E000C660B770B762F86
:1005E000652F542F4427402B512B622B732B2481D2
:1005F00035818901330F220B330B6A017B01C02A3D
:10060000D12AE22AF32AA701960114E0E12E12E092
:10061000F12E02E010E068E171E090968D919C91DE
:1006200091970E94A1261F910F91FF90EF90DF906C
:10063000CF9008950F931F93CF93DF93EC018B011D
:10064000FB01828193810E94CB1ABC018A8D9B8D14
:100650000E94F31BEA8DFB8D808191810E942626EA
:10066000BC0188A199A10E94452BF8018281938148
:100670000E94D21EBC018E899F890E949D1FEE8917
:10068000FF89848195810E940626BC0188A199A1D9
:10069000DF91CF911F910F910C94B3270F931F936C
:1006A000CF93DF93EC018B01FB01828193810E9448
:1006B000D21EBC018E899F890E949D1FEE89FF89F1
:1006C000848195810E940626BC0188A199A10E947F
:1006D000B327F801828193810E94CB1ABC018A8DD5
:1006E0009B8D0E94F31BEA8DFB8D808191810E947E
:1006F0002626BC0188A199A1DF91CF911F910F916E
:100700000C94452B0F931F93FC0126893789FB011D
:10071000628173817727FB01EE0FFF1FE60FF71F42
:10072000EE0FFF1FE20FF31F008511852285338531
:1007300046815781FC0180A191A10E94EC271F9165
:100740000F910895EF92FF920F931F93CF93DF9332
:100750007C01FB01C281D381DD27BE01FC018689BA
:1007600097890E946021F70186899789FE01EE0F23
:10077000FF1FEC0FFD1FEE0FFF1FE80FF91F008595
:1007800011852285338546815781BE01F70180A1FD
:1007900091A10E944828DF91CF911F910F91FF9066
:1007A000EF900895EF92FF920F931F93CF93DF93F3
:1007B0007C01FB01C281D381DD2724813581468103
:1007C0005781BE01FC01868997890E947021F7013B
:1007D00086899789FE01EE0FFF1FEC0FFD1FEE0FBC
:1007E000FF1FE80FF91F008511852285338546819B
:1007F0005781BE01F70180A191A10E94A428DF9139
:10080000CF911F910F91FF90EF900895CF93DF93B9
:10081000EC01FB0142815381648175818E899F893E
:100820000E94EB20EE89FF894081518162817381B2
:1008300088A199A1DF91CF910C942F29CF93DF93B9
:10084000EC01FB01828193810E946C3ABC01888D8E
:10085000998D0E947F3AE88DF98D848195810E945F
:100860001626BC0188A199A1DF91CF910C947C2917
:100870000F931F93FC01208D318DFB0162817381E9
:100880007727FB01EE0FFF1FE60FF71FEE0FFF1F8D
:10089000E20FF31F0085118522853385468157813C
:1008A000FC0180A191A10E94B5291F910F9108958B
:1008B000EF92FF920F931F93CF93DF937C01FB0185
:1008C000C281D381DD27BE01FC01808D918D0E9404
:1008D000693CF701808D918DFE01EE0FFF1FEC0F3B
:1008E000FD1FEE0FFF1FE80FF91F00851185228500
:1008F000338546815781BE01F70180A191A10E94F5
:10090000112ADF91CF911F910F91FF90EF900895E1
:10091000EF92FF920F931F93CF93DF937C01FB0124
:10092000C281D381DD272481358146815781BE0173
:10093000FC01808D918D0E94793CF701808D918D15
:10094000FE01EE0FFF1FEC0FFD1FEE0FFF1FE80F64
:10095000F91F008511852285338546815781BE01A7
:10096000F70180A191A10E946D2ADF91CF911F9183
:100970000F91FF90EF900895CF93DF93EC01FB016F
:100980004281538164817581888D998D0E94F43BE9
:10099000E88DF98D408151816281738188A199A18F
:1009A000DF91CF910C94F82AEF92FF920F931F934F
:1009B000DC015A96ED91FC915B97DB0112966D91EB
:1009C0007C91139777279B01220F331F220F331F30
:1009D000220F331FE20FF31FE680F7800085118599
:1009E0002281338144815581FC0180A191A10E9423
:1009F0007E2B1F910F91FF90EF900895CF92DF9281
:100A0000EF92FF920F931F93CF93DF936C01DB0163
:100A10001296CD91DC911397DD2714962D913D917F
:100A20004D915C911797BE01FC01828D938D0E94C0
:100A3000941DD6015A96ED91FC915B979E01220F71
:100A4000331F220F331F220F331FE20FF31FE680E5
:100A5000F780008511852281338144815581BE0153
:100A600090968D919C9191970E94E32BDF91CF916D
:100A70001F910F91FF90EF90DF90CF900895CF934B
:100A8000DF93EC01FB01828193810E944234BC011F
:100A90008C8D9D8D0E94A135EC8DFD8D8081918185
:100AA0000E943626BC0188A199A1DF91CF910C94B8
:100AB000C42CEF92FF920F931F93DC015C96ED9193
:100AC000FC915D97DB0112966D917C9113977727CE
:100AD0009B01220F331F220F331F220F331FE20F00
:100AE000F31FE680F78000851185228133814481E0
:100AF0005581FC0180A191A10E94FD2C1F910F91B5
:100B0000FF90EF900895CF92DF92EF92FF920F93B4
:100B10001F93CF93DF936C01DB011296CD91DC9193
:100B20001397DD2714962D913D914D915C91179768
:100B3000BE01FC01848D958D0E940E37D6015C9616
:100B4000ED91FC915D979E01220F331F220F331F01
:100B5000220F331FE20FF31FE680F7800085118517
:100B60002281338144815581BE0190968D919C9163
:100B700091970E94622DDF91CF911F910F91FF906D
:100B8000EF90DF90CF900895CF93DF93EC018E89A3
:100B90009F890E940F2188A199A1DF91CF910C9488
:100BA000432ECF93DF93EC01888D998D0E94183CE2
:100BB00088A199A1DF91CF910C94722ECF93DF93EE
:100BC000EC018A8D9B8D0E942D1D88A199A1DF913A
:100BD000CF910C94A12ECF93DF93EC018C8D9D8D42
:100BE0000E94A73688A199A1DF91CF910C94D02EB5
:100BF000DB0112962D913C9113972130310521F1A3
:100C00002230310591F0232B09F00895DC019496F0
:100C1000ED91FC9195974081518160E070E0909654
:100C20008D919C9191970C944C2FDC019496ED91B1
:100C3000FC9195974481558162E070E090968D918A
:100C40009C9191970C944C2FDC019496ED91FC9122
:100C500095974281538161E070E090968D919C91CF
:100C600091970C944C2FDB0112962D913C91139788
:100C700014964D915C9115972130310559F1223030
:100C80003105D1F02115310549F02130310581F1CF
:100C900022303105A9F1232BD9F10895DC01949676
:100CA000ED91FC9195975183408360E070E0FC01E9
:100CB00080A191A10C94942FDC019496ED91FC916C
:100CC00095975583448362E070E0FC0180A191A177
:100CD0000C94942FDC019496ED91FC91959753839D
:100CE000428361E070E0FC0180A191A10C94942FFB
:100CF000DC019496ED91FC91959742815381F1CF5F
:100D0000DC019496ED91FC91959744815581DBCF60
:100D1000DC019496ED91FC91959740815181C5CF6E
:100D2000CF93DF93EC018CA19DA10E94983E88A1F6
:100D300099A1DF91CF910C94DC2FCF93DF93EC013D
:100D40008CA19DA10E94A03E88A199A1DF91CF9185
:100D50000C940B30CF93DF93EC01FB0182819381E4
:100D60000E94F837BC018E8D9F8D0E94CA38EE8D8F
:100D7000FF8D858196810E944626BC0188A199A19C
:100D8000DF91CF910C943A30EF92FF920F931F9323
:100D9000DC015E96ED91FC915F97DB0112966D91FF
:100DA0007C91139777279B01220F331F220F331F4C
:100DB000220F331FE20FF31FE384F48405851685A9
:100DC0002781308541855285FC0180A191A10E9437
:100DD00073301F910F91FF90EF900895CF92DF92A3
:100DE000EF92FF920F931F93CF93DF936C01DB0180
:100DF0001296CD91DC911397DD2714962D913D919C
:100E00004D915C911797BE01FC01868D978D0E94D4
:100E10005B39D6015E96ED91FC915F979E01220FA2
:100E2000331F220F331F220F331FE20FF31FE38400
:100E3000F484058516852781308541855285BE015C
:100E400090968D919C9191970E94D830DF91CF918F
:100E50001F910F91FF90EF90DF90CF9008950F9327
:100E60001F93CF93DF93EC018B0188A599A50E9476
:100E7000BD3CF801628173818E8D9F8D0E942A3A5C
:100E8000AB01BC0188A199A10E946C3188A599A5EC
:100E9000DF91CF911F910F910C94BF3CCF93DF93C3
:100EA000EC018E8D9F8D0E94C33988A199A1DF919D
:100EB000CF910C94B931CF93DF93EC01FB01828188
:100EC00093810E945234BC018C8D9D8D0E94BA3753
:100ED000EC8DFD8DEF5BFF4F808191810E944B2651
:100EE000BC0188A199A1DF91CF910C94E831CF93F7
:100EF000DF93EC01EC8DFD8DEF5BFF4F80819181E5
:100F00000E944B26BC0188A199A1DF91CF910C943E
:100F10002132CF92DF92EF92FF92CF93DF93EC01D9
:100F2000FB01C280D380E480F580B701A60188A1CF
:100F300099A10E94932681110AC088A199A1DF91ED
:100F4000CF91FF90EF90DF90CF900C940527B701E1
:100F5000A60188A199A10E945A32B701A60188A1D1
:100F600099A1DF91CF91FF90EF90DF90CF900C94FB
:100F70009A26CF93DF93EC0188899989009721F015
:100F80000E941B40811108C060E070E088A199A117
:100F9000DF91CF910C94A232888999890E94E43F15
:100FA000BC0188A199A1DF91CF910C94A2320F933B
:100FB0001F93CF93DF9300D0CDB7DEB78C01FB0139
:100FC000628173816115710599F440E050E0F80188
:100FD00080A191A10E94DB32BC01F8018089918936
:100FE0000F900F90DF91CF911F910F910C94EC3FD8
:100FF000FC018089918969837A830E94DC3FAC017E
:1010000069817A81E4CFCF93DF93EC0187E192E0AD
:101010009983888388899989009739F0DC01ED915B
:10102000FC910280F381E02D0995CE01DF91CF91F3
:101030000C9485400F931F93CF93DF93EC018B01AA
:10104000888D998D0E947C3A88A599A50E94BB3C09
:101050008E899F890E94E21E88A599A50E94B53CB1
:10106000F801628173818AA19BA10E94913DAB012D
:10107000BC0188A199A1DF91CF911F910F910C9490
:10108000FF2ECF93DF93EC01FB01828193810097C8
:10109000E9F00197C1F48E899F890E949A1F88A563
:1010A00099A50E94B73C888D998D0E94BB3B88A56D
:1010B00099A50E94B93C61E070E088A199A1DF91F7
:1010C000CF910C947A27DF91CF910895888D998DD7
:1010D0000E947C3A88A599A50E94BB3C8E899F8975
:1010E0000E94E21E88A599A50E94B53C60E070E0D0
:1010F00088A199A1DF91CF910C947A27CF93DF93A8
:10110000EC0187E192E09983888388899989009727
:1011100039F0DC01ED91FC910280F381E02D09951D
:10112000CE010E948540CE01DF91CF910C94155BDA
:101130008F929F92AF92BF92CF92DF92EF92FF92E7
:10114000CF93DF93EC01FB0182809380A480B58074
:1011500081E08B878EA19FA10E94AB4E6B017C0129
:10116000C501B4010E9481582FE632E143E85AE3F9
:101170000E948659AB01BC018EA19FA10E94B74E6F
:10118000C60ED71EE81EF91ECC86DD86EE86FF86CB
:10119000B501A40188A199A1DF91CF91FF90EF90B3
:1011A000DF90CF90BF90AF909F908F900C9432279C
:1011B000CF92DF92EF92FF92DB01ED91FC91E03351
:1011C000F10548F5EE0FFF1FEE0FFF1FE354FF4F31
:1011D000C590D590E590F490F60197013595279547
:1011E000E0FE12C0DC01A20FB31F2D913C911197BC
:1011F000F901EC0DFD1D0190F081E02DCD01FF9076
:10120000EF90DF90CF900994820F931FFF90EF90A3
:10121000DF90CF900994FF90EF90DF90CF900895EA
:101220008F929F92AF92BF92CF92DF92EF92FF92F6
:101230000F931F93CF93DF93CDB7DEB72B970FB6E6
:10124000F894DEBF0FBECDBF8C017B01DC01989608
:101250008D919C9199970E94BD3CF70162817381A9
:10126000D8015A968D919C915B970E94941C4B01DA
:101270005C01AB01BC01F80180A191A10E94772C17
:1012800081E0D80116968C93169796968D919C9135
:1012900097970E94AB4E6B017C0140E050E060E00C
:1012A00070E4F80186A197A10E94B74EC60ED71E22
:1012B000E81EF91ED8011796CD92DD92ED92FC92B0
:1012C0001A975A96ED91FC915B97C080D180549605
:1012D0008D919C9155970E947F42FC0196E0DE0122
:1012E000119601900D929A95E1F740E060E0F801C7
:1012F000848995890E945B427601EE0CFF1CEE0CFE
:10130000FF1CEE0CFF1CEC18FD08F701E656FF4F22
:10131000C590D49082E00E94F4458B8781E00E94C2
:10132000F4458A87F701E456FF4F259135914591A1
:101330005491C501B4010E9486594B015C01F7012B
:10134000E056FF4F84910E94F545898789E00E940D
:10135000F445888784E00E94F4458F836DEA75E444
:10136000D80154968D919C9155970E946345BE017A
:10137000695F7F4F0E94F64563E271E00E948A42F6
:1013800061ED75E40E94634565E675E40E9463457E
:1013900069E875E40E946345BE01685F7F4F0E9463
:1013A000F645BE01675F7F4F0E941B46B501A40151
:1013B0000E944944BE01665F7F4F0E94F6456EE77A
:1013C00071E00E948A426DEA75E40E946345BE01A5
:1013D000655F7F4F0E94F645B6010E948A4240E059
:1013E00061E0F801848995890E945B42BE016F5FCC
:1013F0007F4FD80154968D919C9155970E948142C0
:10140000F80180A591A50E94BF3C2B960FB6F894D9
:10141000DEBF0FBECDBFDF91CF911F910F91FF9027
:10142000EF90DF90CF90BF90AF909F908F900895F6
:10143000CF92DF92EF92FF92CF93DF93EC018E8DEC
:101440009F8D0E94B23988A199A10E943D3181E00F
:101450008E838EA19FA10E94AB4E6B017C0140E068
:1014600050E060E070E48EA19FA10E94B74EC60ECE
:10147000D71EE81EF91ECF82D886E986FA8640E09C
:1014800060E08C899D890E945B4266E271E08C89F4
:101490009D890E948A4240E061E08C899D890E947A
:1014A0005B4267E371E08C899D89DF91CF91FF906A
:1014B000EF90DF90CF900C948A42CF92DF92EF9220
:1014C000FF92CF93DF93EC018C8D9D8D0E946C3742
:1014D00088A199A10E94C72D81E08E838EA19FA132
:1014E0000E94AB4E6B017C0140E050E060E070E494
:1014F0008EA19FA10E94B74EC60ED71EE81EF91EF0
:10150000CF82D886E986FA8640E060E08C899D89A2
:101510000E945B4266E271E08C899D890E948A424A
:1015200040E061E08C899D890E945B4267E371E045
:101530008C899D89DF91CF91FF90EF90DF90CF90C4
:101540000C948A42CF92DF92EF92FF92CF93DF9377
:10155000EC01888D998D0E94893C88A199A10E94F7
:10156000C92A81E08E838EA19FA10E94AB4E6B01A0
:101570007C0140E050E060E070E48EA19FA10E94F9
:10158000B74EC60ED71EE81EF91ECF82D886E98652
:10159000FA8640E060E08C899D890E945B4266E2A9
:1015A00071E08C899D890E948A4240E061E08C89CB
:1015B0009D890E945B4267E371E08C899D89DF9180
:1015C000CF91FF90EF90DF90CF900C948A42CF9212
:1015D000DF92EF92FF92CF93DF93EC018A8D9B8D88
:1015E0000E943C1E88A199A10E94482C81E08E8314
:1015F0008EA19FA10E94AB4E6B017C0140E050E0A8
:1016000060E070E48EA19FA10E94B74EC60ED71E67
:10161000E81EF91ECF82D886E986FA8640E060E0AF
:101620008C899D890E945B4266E271E08C899D896C
:101630000E948A4240E061E08C899D890E945B4261
:1016400067E371E08C899D89DF91CF91FF90EF90E6
:10165000DF90CF900C948A42CF92DF92EF92FF926C
:10166000CF93DF93EC018E899F890E94802188A10E
:1016700099A10E94002981E08E838EA19FA10E94E2
:10168000AB4E6B017C0140E050E060E070E48EA165
:101690009FA10E94B74EC60ED71EE81EF91ECF822C
:1016A000D886E986FA8640E060E08C899D890E94B0
:1016B0005B4266E271E08C899D890E948A4240E02B
:1016C00061E08C899D890E945B4267E371E08C89AF
:1016D0009D89DF91CF91FF90EF90DF90CF900C9498
:1016E0008A428F929F92AF92BF92CF92DF92EF92F7
:1016F000FF920F931F93CF93DF93CDB7DEB72B9756
:101700000FB6F894DEBF0FBECDBF8C017B01DC01AC
:1017100098968D919C9199970E94BD3CF7016281AA
:101720007381D8015C968D919C915D970E944C3697
:101730004B015C01AB01BC01F80180A191A10E94A9
:10174000F62D81E0D80116968C93169796968D917A
:101750009C9197970E94AB4E6B017C0140E050E05A
:1017600060E070E4F80186A197A10E94B74EC60E12
:10177000D71EE81EF91ED8011796CD92DD92ED9284
:10178000FC921A975C96ED91FC915D97C080D18098
:1017900054968D919C9155970E947F42FC0196E052
:1017A000DE01119601900D929A95E1F740E060E01C
:1017B000F801848995890E945B4240E061E0D8018C
:1017C00054968D919C9155970E945B427601EE0C48
:1017D000FF1CEE0CFF1CEE0CFF1CEC18FD08F701C3
:1017E000E059FF4FC590D49082E00E94F4458B876A
:1017F00081E00E94F4458A87F701EE58FF4F25915A
:10180000359145915491C501B4010E9486594B010F
:101810005C01F701EA58FF4F84910E94F5458987E2
:1018200089E00E94F445888784E00E94F4458F8314
:101830006DEA75E4F801848995890E946345BE01CB
:10184000695F7F4F0E94F64568E471E00E948A421A
:1018500061ED75E40E94634565E675E40E946345A9
:1018600069E875E40E946345BE01685F7F4F0E948E
:10187000F645BE01675F7F4F0E941B46B501A4017C
:101880000E944944BE01665F7F4F0E94F6456EE7A5
:1018900071E00E948A426DEA75E40E946345BE01D0
:1018A000655F7F4F0E94F645B6010E948A42BE01E5
:1018B0006F5F7F4FD80154968D919C9155970E94F0
:1018C0008142F80180A591A50E94BF3C2B960FB6DE
:1018D000F894DEBF0FBECDBFDF91CF911F910F9166
:1018E000FF90EF90DF90CF90BF90AF909F908F9040
:1018F00008950C94805A0C94155B0F931F93CF930B
:10190000DF93CDB7DEB7AB970FB6F894DEBF0FBE4F
:10191000CDBF8C01FC01848995890E947F42FC0126
:1019200096E0DE01919601900D929A95E1F740E0E4
:1019300060E0F801848995890E945B4266E871E065
:10194000CE0101960E944F5DBC01F8018489958902
:101950000E948A4240E061E0F801848995890E94F2
:101960005B4282E00E94F4458FA381E00E94F4452F
:1019700088A782E00E94F44589A781E00E94F4458F
:101980008AA782E00E94F4458BA76DE771E0CE0143
:1019900001960E944F5DBC01F801848995890E94DF
:1019A0008A42BE01655D7F4F0E94F64569E875E495
:1019B0000E94634542E050E060E070E00E945443C2
:1019C000BE01665D7F4F0E94F6456BE471E00E94A8
:1019D0008A42BE01675D7F4F0E94F64569E875E463
:1019E0000E94634542E050E060E070E00E94544392
:1019F000BE01685D7F4F0E94F6456BE471E00E9476
:101A00008A42BE01695D7F4F0E94F64569E875E430
:101A10000E94634544E050E060E070E00E9454435F
:101A2000BE016F5D7F4FF801848995890E948142D4
:101A3000AB960FB6F894DEBF0FBECDBFDF91CF914E
:101A40001F910F910895CF92DF92EF92FF92CF9363
:101A5000DF93EC010E94344187E192E0998388830F
:101A60001E821F82188619861A861B861C861D8672
:101A70001E861F86198A188A1B8A0E9476419D8BB2
:101A80008C8B0E94CA209F8B8E8B0E949A3B998FD1
:101A9000888F0E94D21B9B8F8A8F0E9480359D8FDA
:101AA0008C8F8091CC02882309F462C08091C2029D
:101AB0009091C3028E8F9F8F0E945B2699A388A36B
:101AC0000E94C13C9BA38AA30E944E3E9DA38CA36F
:101AD0000E94814E9FA38EA30E949A3C99A788A73B
:101AE0008E899F890E94E21E88A599A50E94B53C17
:101AF00040E050E0BA01888D998D0E94F43B60E08F
:101B000070E08C8D9D8D0E94BA37AE0168ED78E053
:101B100088A199A10E946641CE010E947D0C2FEF01
:101B20008FE19CE1215080409040E1F700C000002F
:101B3000789481E08E838EA19FA10E94AB4E6B01B1
:101B40007C0140E050E060E070E48EA19FA10E9423
:101B5000B74EC60ED71EE81EF91ECF82D886E9867C
:101B6000FA86DF91CF91FF90EF90DF90CF900895AC
:101B700081E390E00E94805A7C010E94FD37E09250
:101B8000C202F092C30281E08093CC02C70192CFDF
:101B9000CF93DF938091C402882339F08091C002F3
:101BA0009091C102DF91CF9108958AE290E00E9466
:101BB000805AD82FC92F0E94230DD093C002C09302
:101BC000C10281E08093C4028D2F9C2FDF91CF91C1
:101BD0000895CF92DF92EF92FF920F931F93CF93CE
:101BE000DF93CDB7DEB727970FB6F894DEBF0FBEF1
:101BF000CDBF8C016B017A0140E060E0FC0184897B
:101C000095890E945B42F801848995890E947F42F0
:101C1000FC0196E0DE01119601900D929A95E1F794
:101C200084E00E94F4458F8361ED75E4F8018489B6
:101C300095890E946345BE01695F7F4F0E94F6450A
:101C4000B6010E948A4284E00E94F4458F8361EDD0
:101C500075E4F801848995890E946345BE01695F36
:101C60007F4F0E94F645B7010E948A42BE016F5F16
:101C70007F4FF801848995890E94814227960FB68B
:101C8000F894DEBF0FBECDBFDF91CF911F910F91B2
:101C9000FF90EF90DF90CF9008950F931F93CF9315
:101CA000DF93EC018FE090E00E94805A8C010E944B
:101CB0006F3FA889B989A017B10769F1198B088B03
:101CC000109739F1ED91FC9111970280F381E02D8D
:101CD000CD010995888999890E94C43F81E08B8B49
:101CE00088A199A10E946A334FE651E060E871E053
:101CF000CE010E94E90D2FEF8FE19CE12150804041
:101D00009040E1F700C00000DF91CF911F910F914B
:101D10000895C801E1CFCD01DFCFCF93DF93EC0170
:101D200041E951E062EA71E00E94E90D2FEF8FE195
:101D30009CE1215080409040E1F700C000001B8AE8
:101D4000888999890E94D13F88899989009749F0AB
:101D5000198A188ADC01ED91FC910280F381E02D53
:101D6000099588A199A1DF91CF910C9499332F9275
:101D70003F924F925F926F927F928F929F92AF921B
:101D8000BF92CF92DF92EF92FF920F931F93CF9368
:101D9000DF93CDB7DEB72D970FB6F894DEBF0FBE39
:101DA000CDBF3C01F62E19012A01FC0184899589D9
:101DB0000E947F42FC0196E0DE01119601900D9297
:101DC0009A95E1F740E060E0F301848995890E94EB
:101DD0005B42F1109CC040E061E0F3018489958989
:101DE0000E945B42EE2009F471C08401000F111FB4
:101DF000000F111F000F111F08191909F801E059F0
:101E0000FF4FE590F49082E00E94F4458F8381E0DB
:101E10000E94F4458887F801EE58FF4F25913591CF
:101E200045915491C601B5010E9486594B015C0150
:101E3000F801EA58FF4F84910E94F545898789E0AF
:101E40000E94F4458A8784E00E94F4458B876DEAFE
:101E500075E4F301848995890E946345BE01655F3D
:101E60007F4F0E94F64568E471E00E948A4261ED6E
:101E700075E40E94634565E675E40E94634569E880
:101E800075E40E946345BE01665F7F4F0E94F64580
:101E9000BE01675F7F4F0E941B46B501A4010E94EF
:101EA0004944BE01685F7F4F0E94F6456EE771E0CE
:101EB0000E948A426DEA75E40E946345BE01695F33
:101EC0007F4F0E94F645B7010E948A42BE016F5FB4
:101ED0007F4FF301848995890E9481422D960FB628
:101EE000F894DEBF0FBECDBFDF91CF911F910F9150
:101EF000FF90EF90DF90CF90BF90AF909F908F902A
:101F00007F906F905F904F903F902F900895F801D1
:101F1000EE0FFF1FEE0FFF1FEE0FFF1FCF01801B05
:101F2000910B8C01FC01E656FF4F859194919D87A2
:101F30008C8782E00E94F4458F8381E00E94F44503
:101F40008887F801E456FF4F2591359145915491CA
:101F5000C201B1010E9486591B012C01F801E05613
:101F6000FF4F84910E94F545898789E00E94F445DE
:101F70008A8784E00E94F4458B876DEA75E4F3015B
:101F8000848995890E946345BE01655F7F4F0E94E9
:101F9000F64563E271E00E948A4261ED75E40E94B9
:101FA000634565E675E40E94634569E875E40E944F
:101FB0006345BE01665F7F4F0E94F645BE01675FC5
:101FC0007F4F0E941B46B201A1010E944944BE01FD
:101FD000685F7F4F0E94F6456EE771E00E948A427B
:101FE0006DEA75E40E946345BE01695F7F4F0E9400
:101FF000F6456C857D850E948A42EDCE2F923F92F8
:102000004F925F926F927F928F929F92AF92BF9208
:10201000CF92DF92EF920F931F93CF93DF9300D075
:1020200000D0CDB7DEB71C01DC011B968C911B974D
:10203000811162C0F101828D938D0E94511ED101E8
:102040005C968D919C915D970E948337D1015A9641
:10205000ED91FC915B9784AD95AD892BB9F55C96BC
:102060008D919C915D97DC01DC968D919C91DD9723
:10207000892B61F5CF010E94A41E9B01AC01F101E7
:10208000848D958D29833A834B835C830E9492379C
:102090005B016C01D10116968C9129813A814B81AB
:1020A0005C81811183C0D1015C96ED91FC915D97BB
:1020B000808091805A96ED91FC915B97008111810F
:1020C000EE24E39461E0C1010E94B70E0F900F90DF
:1020D0000F900F90DF91CF911F910F91EF90DF90B4
:1020E000CF90BF90AF909F908F907F906F905F90B8
:1020F0004F903F902F90089596968D919C91979731
:102100000E94AB4EF1010485158526853785601741
:1021100071078207930798F5F1018385882309F4F5
:1021200089CFD10153968C915397882309F482CF9C
:1021300050968D919C915197DC01ED91FC9104801A
:10214000F581E02D09954BEC51E06CED71E0C1019A
:102150000F900F900F900F90DF91CF911F910F91E3
:10216000EF90DF90CF90BF90AF909F908F907F9037
:102170006F905F904F903F902F900C94E90D1386D5
:102180004DE451E06EE571E0C1010E94E90DBFEF41
:10219000EFE3F8E3B150E040F040E1F700C00000A9
:1021A000D1011B968C918111BCCF44CFF10186A146
:1021B00097A129833A834B835C830E94AB4ED10164
:1021C00017964D905D906D907C901A9729813A8179
:1021D0004B815C81641575058605970518F0F10142
:1021E000168261CFD10116968C9181116FCF5BCF92
:1021F0002FEF8FE398E3215080409040E1F700C03B
:1022000000000E94C80D0E94E74080E090E0089521
:102210002F923F924F925F926F927F928F929F92F6
:10222000AF92BF92CF92DF92EF92FF920F931F93E4
:10223000CF93DF938C01EB01FC01E080F1806E1500
:102240007F050CF065C082809380A480B580A501D5
:10225000940160857185828593850E9461572B0169
:102260003C01F801668177816E197F09072E000C09
:10227000880B990B0E9483589B01AC01C301B201EA
:102280000E94D3572B013C01CE19DF09BE01DD0F9F
:10229000880B990B0E9483589B01AC01C301B201CA
:1022A0000E9486599B01AC01C501B4010E9462578E
:1022B0008B01D82FC92F2CE53FE842E85FE3C50129
:1022C000B4010E9486596B017C019B01AC01B801ED
:1022D0008D2F9C2F0E94CE5787FDEDC0502F412F90
:1022E0009E01652F742F832F922FDF91CF911F9125
:1022F0000F91FF90EF90DF90CF90BF90AF909F90A5
:102300008F907F906F905F904F903F902F900895A7
:10231000FC01208C318C261637060CF47EC0A4E01C
:10232000B0E00DC04C175D070CF0CAC09C01CB019A
:10233000BF2DAC01421B530B42305105FCF02B2F3B
:1023400030E06A2F70E0C901860F971F9595879539
:10235000F82EFC01EE0FFF1FE80FF91FEE0FFF1F15
:10236000E00FF11F40815181C417D507DCF6A82F7B
:10237000AC01421B530B423051050CF7F901EE0F33
:10238000FF1FE20FF31FEE0FFF1FE00FF11F828010
:102390009380A480B580E080F1809C01220F331FE0
:1023A000820F931F880F991F080F191FA501940111
:1023B000F80162817381848195810E9461572B01AC
:1023C0003C01F801608171816E197F09072E000CB4
:1023D000880B990B0E9483589B01AC01C301B20189
:1023E0000E94D3572B013C01CE19DF09BE01DD0F3E
:1023F000880B990B0E9483589B01AC01C301B20169
:102400000E9486599B01AC01C501B4010E9462572C
:10241000562F472F382F292F64CFC28CD38CE48CB2
:10242000F58C84889588A688B78802891389A501C8
:102430009401C701B6010E9461572B013C01B10113
:10244000601B710B072E000C880B990B0E948358A0
:102450009B01AC01C301B2010E94D3572B013C0187
:10246000C01BD10BBE01DD0F880B990B0E94835856
:102470009B01AC01C301B2010E9486599B01AC01D2
:10248000C501B4010E9462578B01D82FC92F2CE5DA
:102490003FE842E85FE3C701B6010E9486596B013D
:1024A0007C019B01AC01B8018D2F9C2F0E948159AA
:1024B00018160CF013CF5C2D4D2D3E2D2F2D11CF66
:1024C00052814381348125810CCF2F923F924F92CC
:1024D0005F926F927F928F929F92AF92BF92CF92B4
:1024E000DF92EF92FF920F931F93CF93DF93CDB7BD
:1024F000DEB728970FB6F894DEBF0FBECDBF8C01B4
:102500006A017B01FC0182809380A480B5809A01DE
:10251000AB01C501B4010E948159F80118160CF0F5
:1025200079C060807180B301072C000C880B990B77
:102530000E94835869837A838B839C83F801668128
:10254000778166197709072E000C880B990B0E947A
:1025500083582B013C01A5019401F8016085718528
:10256000828593850E9461579B01AC01C301B20132
:102570000E94D3572B013C01A5019401C701B6016C
:102580000E9461579B01AC01C301B2010E948659B0
:1025900029813A814B815C810E9462578B015C01E9
:1025A0002CE53FE842E85FE369817A818B819C8179
:1025B0000E9486596B017C019B01AC01B801C501E9
:1025C0000E94CE5787FD23C1502F412F3A2D2B2D2E
:1025D000652F742F832F922F0E94F3590E94455824
:1025E000CB0128960FB6F894DEBF0FBECDBFDF91AA
:1025F000CF911F910F91FF90EF90DF90CF90BF9000
:10260000AF909F908F907F906F905F904F903F9092
:102610002F900895828C938CA48CB58CA701960181
:10262000C501B4010E94CE5787FD94C0F4E0F98340
:102630001D8211C0A7019601C301B2010E94CE57AD
:1026400087FFEAC045015101FE81FD83C50188195C
:102650009909029754F12D81822E912C3981232ED4
:10266000312C5401A20CB31CB594A794AE82C501C1
:10267000880F991F8A0D9B1D880F991FFC01E00F81
:10268000F11FF887EF834280538064807580A70133
:102690009601C301B2010E94815918165CF6A98205
:1026A000C501881999090297B4F6F401EE0FFF1FCE
:1026B000E80DF91DEE0FFF1FE00FF11F20803180A4
:1026C0004280538064807580C501880F991F8A0DF0
:1026D0009B1D880F991F080F191FF80160817181D8
:1026E00062197309072E000C880B990B0E948358FE
:1026F0004B015C01A3019201F80162817381848125
:1027000095810E9461579B01AC01C501B4010E94F3
:10271000D3574B015C01A3019201C701B6010E948E
:1027200061579B01AC01C501B4010E9486596B0140
:102730007C01B101330C880B990B0E9483589B01DB
:10274000AC01C701B6010E946257562F472F382FA0
:10275000292F3ECFF801208C318C2289338938878C
:102760002F834488558866887788B101621B730B74
:10277000072E000C880B990B0E94835869837A837B
:102780008B839C83A3019201C501B4010E94615710
:102790009B01AC0169817A818B819C810E94D35716
:1027A0004B015C01A3019201C701B6010E94615770
:1027B0009B01AC01C501B4010E9486596B017C01EB
:1027C000EF81F885BF01FF0F880B990B0E9483589A
:1027D0009B01AC01C701B6010E9462578B015C01ED
:1027E000B101330C880B990B0E9483582CE53FE80C
:1027F00042E85FE30E9486596B017C019B01AC01BA
:10280000B801C5010E94815918160CF0DDCE5C2D6F
:102810004D2D3E2D2F2DDCCEEF81F885608171810D
:10282000072E000C880B990B0E948358562F472FB8
:10283000382F292FCDCE2F923F924F925F926F92D9
:102840007F928F929F92AF92BF92CF92DF92EF9240
:10285000FF920F931F93CF93DF938C01EB01FC0149
:10286000E080F1806E157F050CF065C0828093805A
:10287000A480B580A50194016085718582859385CA
:102880000E9461572B013C01F801668177816E1926
:102890007F09072E000C880B990B0E9483589B011F
:1028A000AC01C301B2010E94D3572B013C01CE19E8
:1028B000DF09BE01DD0F880B990B0E9483589B0135
:1028C000AC01C301B2010E9486599B01AC01C50154
:1028D000B4010E9462578B01D82FC92F2CE53FE825
:1028E00042E85FE3C501B4010E9486596B017C0197
:1028F0009B01AC01B8018D2F9C2F0E94CE5787FD04
:10290000EDC0502F412F9E01652F742F832F922FE2
:10291000DF91CF911F910F91FF90EF90DF90CF90BB
:10292000BF90AF909F908F907F906F905F904F90EF
:102930003F902F900895FC01208C318C261637068D
:102940000CF47EC0A4E0B0E00DC04C175D070CF0A5
:10295000CAC09C01CB01BF2DAC01421B530B4230BE
:102960005105FCF02B2F30E06A2F70E0C901860F73
:10297000971F95958795F82EFC01EE0FFF1FE80F26
:10298000F91FEE0FFF1FE00FF11F40815181C417A7
:10299000D507DCF6A82FAC01421B530B4230510582
:1029A0000CF7F901EE0FFF1FE20FF31FEE0FFF1FF1
:1029B000E00FF11F82809380A480B580E080F180D9
:1029C0009C01220F331F820F931F880F991F080F3E
:1029D000191FA5019401F801628173818481958199
:1029E0000E9461572B013C01F801608171816E19D1
:1029F0007F09072E000C880B990B0E9483589B01BE
:102A0000AC01C301B2010E94D3572B013C01CE1986
:102A1000DF09BE01DD0F880B990B0E9483589B01D3
:102A2000AC01C301B2010E9486599B01AC01C501F2
:102A3000B4010E946257562F472F382F292F64CF99
:102A4000C28CD38CE48CF58C84889588A688B78852
:102A500002891389A5019401C701B6010E9461573B
:102A60002B013C01B101601B710B072E000C880B80
:102A7000990B0E9483589B01AC01C301B2010E94D3
:102A8000D3572B013C01C01BD10BBE01DD0F880BBE
:102A9000990B0E9483589B01AC01C301B2010E94B3
:102AA00086599B01AC01C501B4010E9462578B019C
:102AB000D82FC92F2CE53FE842E85FE3C701B601F4
:102AC0000E9486596B017C019B01AC01B8018D2FDE
:102AD0009C2F0E94815918160CF013CF5C2D4D2DA0
:102AE0003E2D2F2D11CF52814381348125810CCF72
:102AF0002F923F924F925F926F927F928F929F920E
:102B0000AF92BF92CF92DF92EF92FF920F931F93FB
:102B1000CF93DF93CDB7DEB728970FB6F894DEBF1B
:102B20000FBECDBF8C016A017B01FC0182809380C6
:102B3000A480B5809A01AB01C501B4010E948159FE
:102B4000F80118160CF079C060807180B301072C71
:102B5000000C880B990B0E94835869837A838B83BE
:102B60009C83F8016681778166197709072E000C2E
:102B7000880B990B0E9483582B013C01A5019401FD
:102B8000F80160857185828593850E9461579B015C
:102B9000AC01C301B2010E94D3572B013C01A50136
:102BA0009401C701B6010E9461579B01AC01C301AA
:102BB000B2010E94865929813A814B815C810E9431
:102BC00062578B015C012CE53FE842E85FE36981D5
:102BD0007A818B819C810E9486596B017C019B01CB
:102BE000AC01B801C5010E94CE5787FD23C1502F0B
:102BF000412F3A2D2B2D652F742F832F922F0E945A
:102C0000F3590E944558CB0128960FB6F894DEBFC1
:102C10000FBECDBFDF91CF911F910F91FF90EF902D
:102C2000DF90CF90BF90AF909F908F907F906F90EC
:102C30005F904F903F902F900895828C938CA48C3E
:102C4000B58CA7019601C501B4010E94CE5787FD3E
:102C500094C0F4E0F9831D8211C0A7019601C3015D
:102C6000B2010E94CE5787FFEAC045015101FE81A3
:102C7000FD83C50188199909029754F12D81822E8F
:102C8000912C3981232E312C5401A20CB31CB59404
:102C9000A794AE82C501880F991F8A0D9B1D880FCE
:102CA000991FFC01E00FF11FF887EF8342805380EA
:102CB00064807580A7019601C301B2010E94815909
:102CC00018165CF6A982C501881999090297B4F60D
:102CD000F401EE0FFF1FE80DF91DEE0FFF1FE00FCF
:102CE000F11F208031804280538064807580C5014F
:102CF000880F991F8A0D9B1D880F991F080F191F98
:102D0000F8016081718162197309072E000C880B2C
:102D1000990B0E9483584B015C01A3019201F801B9
:102D200062817381848195810E9461579B01AC010E
:102D3000C501B4010E94D3574B015C01A30192016C
:102D4000C701B6010E9461579B01AC01C501B401E6
:102D50000E9486596B017C01B101330C880B990BE1
:102D60000E9483589B01AC01C701B6010E946257C3
:102D7000562F472F382F292F3ECFF801208C318C2A
:102D80002289338938872F834488558866887788D5
:102D9000B101621B730B072E000C880B990B0E946C
:102DA000835869837A838B839C83A3019201C50135
:102DB000B4010E9461579B01AC0169817A818B81CA
:102DC0009C810E94D3574B015C01A3019201C70172
:102DD000B6010E9461579B01AC01C501B4010E947C
:102DE00086596B017C01EF81F885BF01FF0F880BCD
:102DF000990B0E9483589B01AC01C701B6010E9448
:102E000062578B015C01B101330C880B990B0E9456
:102E100083582CE53FE842E85FE30E9486596B0146
:102E20007C019B01AC01B801C5010E9481591816B3
:102E30000CF0DDCE5C2D4D2D3E2D2F2DDCCEEF8107
:102E4000F88560817181072E000C880B990B0E9418
:102E50008358562F472F382F292FCDCE2F923F92B0
:102E60004F925F926F927F928F929F92AF92BF929A
:102E7000CF92DF92EF92FF921F93CF93DF93CDB764
:102E8000DEB72C970FB6F894DEBF0FBECDBF1C0186
:102E90006A017B01DC018D909D90AD90BC901397F1
:102EA000481559056A057B050CF07DC014962D91D7
:102EB0003D914D915C91179729833A834B835C83B5
:102EC0001C966D917D918D919C911F970E946157E9
:102ED0002B013C01F10180859185A285B385BC0160
:102EE000CD01681979098A099B090E9483589B01C1
:102EF000AC01C301B2010E94D3572B013C01C701B1
:102F0000B601681979098A099B090E9483589B01B7
:102F1000AC01C301B2010E9486599B01AC016981D9
:102F20007A818B819C810E946257F62E172F982EF2
:102F3000A92E2CE53FE842E85FE369817A818B8125
:102F40009C810E948659B62EC72ED82EE92E262F98
:102F5000372F482F592F6F2D712F892D9A2D0E94B1
:102F6000CE5787FD37C15F2D412F392D2A2D652F73
:102F7000742F832F922F2C960FB6F894DEBF0FBEBE
:102F8000CDBFDF91CF911F91FF90EF90DF90CF9059
:102F9000BF90AF909F908F907F906F905F904F9079
:102FA0003F902F900895DC0190964D905D906D902C
:102FB0007C90939744165506660677060CF495C0E8
:102FC00014E0B12C0FC04C155D056E057F050CF0AB
:102FD00006C19C01CD01BA2CAC01421B530B4230FF
:102FE00051051CF12B2D30E0A12FB0E0C9018A0F53
:102FF0009B1F95958795A82EFC01EE0FFF1FEE0FE6
:10300000FF1FEE0FFF1FE20DF31D40815181628112
:103010007381C416D506E606F706ACF6182FAC0188
:10302000421B530B42305105ECF6220F331F220F87
:10303000331F220F331FF101E20FF31F84809580AD
:10304000A680B780208131814281538129833A83D0
:103050004B835C83880F991F880F991F880F991FD6
:10306000280E391EA5019401D10114966D917D9110
:103070008D919C9117970E9461572B013C01F101A2
:1030800080819181A281B381BC01CD0129813A81E6
:103090004B815C81621B730B840B950B0E948358E0
:1030A0009B01AC01C301B2010E94D3572B013C012B
:1030B000C701B60129813A814B815C81621B730B88
:1030C000840B950B0E9483589B01AC01C301B20194
:1030D0000E9486599B01AC01C501B4010E94625750
:1030E000562F472F382F292F42CF94968D909D90A1
:1030F000AD90BC9097975C962D913D914D915C91D0
:103100005F9729833A834B835C8358962D913D9139
:103110004D915C915B972D833E834F835887298126
:103120003A814B815C81C501B4010E946157698776
:103130007A878B879C87C301B2012D813E814F81A5
:103140005885621B730B840B950B0E9483589B015F
:10315000AC0169857A858B859C850E94D3572B01AC
:103160003C01C701B6012D813E814F815885621B0C
:10317000730B840B950B0E9483589B01AC01C30118
:10318000B2010E9486599B01AC0169817A818B81D1
:103190009C810E946257F62E172F3C012CE53FE8D8
:1031A00042E85FE3C501B4010E948659B62EC72EDE
:1031B000D82EE92E262F372F482F592F6F2D712FFC
:1031C000C3010E94815918162CF05F2D412F362D16
:1031D000272DCDCE5B2D4C2D3D2D2E2DC8CE5481CF
:1031E000458136812781C3CE2F923F924F925F92C5
:1031F0006F927F928F929F92AF92BF92CF92DF9207
:10320000EF92FF921F93CF93DF93CDB7DEB72C974A
:103210000FB6F894DEBF0FBECDBF1C016A017B0163
:10322000DC018D909D90AD90BC9013974815590589
:103230006A057B050CF07DC014962D913D914D9152
:103240005C91179729833A834B835C831C966D911D
:103250007D918D919C911F970E9461572B013C019C
:10326000F10180859185A285B385BC01CD016819E6
:1032700079098A099B090E9483589B01AC01C3010B
:10328000B2010E94D3572B013C01C701B601681956
:1032900079098A099B090E9483589B01AC01C301EB
:1032A000B2010E9486599B01AC0169817A818B81B0
:1032B0009C810E946257F62E172F982EA92E2CE57E
:1032C0003FE842E85FE369817A818B819C810E94BB
:1032D0008659B62EC72ED82EE92E262F372F482FE7
:1032E000592F6F2D712F892D9A2D0E94CE5787FD52
:1032F00037C15F2D412F392D2A2D652F742F832F34
:10330000922F2C960FB6F894DEBF0FBECDBFDF9183
:10331000CF911F91FF90EF90DF90CF90BF90AF9033
:103320009F908F907F906F905F904F903F902F90E5
:103330000895DC0190964D905D906D907C909397F0
:1033400044165506660677060CF495C014E0B12CB9
:103350000FC04C155D056E057F050CF006C19C0184
:10336000CD01BA2CAC01421B530B423051051CF16C
:103370002B2D30E0A12FB0E0C9018A0F9B1F95953E
:103380008795A82EFC01EE0FFF1FEE0FFF1FEE0F1B
:10339000FF1FE20DF31D4081518162817381C416CC
:1033A000D506E606F706ACF6182FAC01421B530B08
:1033B00042305105ECF6220F331F220F331F220F2C
:1033C000331FF101E20FF31F84809580A680B78040
:1033D000208131814281538129833A834B835C83ED
:1033E000880F991F880F991F880F991F280E391E63
:1033F000A5019401D10114966D917D918D919C91BF
:1034000017970E9461572B013C01F1018081918146
:10341000A281B381BC01CD0129813A814B815C81BC
:10342000621B730B840B950B0E9483589B01AC01AC
:10343000C301B2010E94D3572B013C01C701B60161
:1034400029813A814B815C81621B730B840B950B44
:103450000E9483589B01AC01C301B2010E948659AE
:103460009B01AC01C501B4010E946257562F472F42
:10347000382F292F42CF94968D909D90AD90BC907F
:1034800097975C962D913D914D915C915F97298323
:103490003A834B835C8358962D913D914D915C917D
:1034A0005B972D833E834F83588729813A814B81D7
:1034B0005C81C501B4010E94615769877A878B8757
:1034C0009C87C301B2012D813E814F815885621BCB
:1034D000730B840B950B0E9483589B01AC0169858B
:1034E0007A858B859C850E94D3572B013C01C701AF
:1034F000B6012D813E814F815885621B730B840B71
:10350000950B0E9483589B01AC01C301B2010E943C
:1035100086599B01AC0169817A818B819C810E94D3
:103520006257F62E172F3C012CE53FE842E85FE397
:10353000C501B4010E948659B62EC72ED82EE92E99
:10354000262F372F482F592F6F2D712FC3010E941F
:10355000815918162CF05F2D412F362D272DCDCEF9
:103560005B2D4C2D3D2D2E2DC8CE548145813681AD
:103570002781C3CE0895549A559808955C9808956C
:103580005C9A08950895089589B185FB882780F98C
:1035900091E0892708958530910540F4FC01EE0FF4
:1035A000FF1FE055FE4F859194910895E0EBF1E007
:1035B0008591949108954F925F926F927F928F922E
:1035C0009F92AF92BF92CF92DF92EF92FF920F93B2
:1035D0001F93CF93DF93EC016C0182E0C80ED11CE6
:1035E0001A821B821C821D821E821F8218861986E7
:1035F0001A861B861C861D861E861F86188A198AB7
:103600001A8A1B8A1C8A1D8A1E8A1F8A188E198E86
:103610001A8E1B8E1C8E1D8E1E8E1F8E18A219A236
:103620001AA21BA21CA21DA21EA21FA218A619A6A6
:103630008E01065D1F4F60E0C8010E9479487E013F
:103640008DE2E80EF11CC7010E94E54981E292E09B
:103650009EA78DA7C7010E94044A60E170E0CE01D9
:10366000C2960E949F520E940D349FAF8EAFC80138
:103670000E940849682F607FC8010E943049C80134
:103680000E94C648682F607FC8010E94EE4882E011
:1036900090E0998388830E94E833A601BC018EAD37
:1036A0009FAD0E949A4D889709F460C0EFE9F1E060
:1036B00085909590A590B490C501B401905823E3EE
:1036C000422E542C23EF622E77247A944A825B8216
:1036D0006C827D826E837F838887998731EE432E4B
:1036E0003AE7532E34EF632E77247A944A865B862A
:1036F0006C867D8626E636E646E65FE30E948659BE
:103700006E877F87888B998B1A8A1B8A1C8A1D8AF1
:103710001E8A1F8A188E198E8FE195E8ABE0B0E003
:103720008A8F9B8FAC8FBD8F26E636E646E65FE339
:10373000C501B4010E9486596E8F7F8F88A399A31B
:103740008DEC9CECACE0B0E08AA39BA3ACA3BDA342
:103750008EA29FA2A8A6B9A6888199810E94E8336B
:10376000A601BC018EAD9FAD0E94014EC8010E9412
:103770009E48EDEAF1E09491682F607F692BC801C3
:10378000DF91CF911F910F91FF90EF90DF90CF903D
:10379000BF90AF909F908F907F906F905F904F9071
:1037A0000C948448CF93DF938091D602882339F01C
:1037B0008091D4029091D502DF91CF91089580E459
:1037C00090E00E94790CD82FC92F0E94DB1AD09369
:1037D000D402C093D50281E08093D6028D2F9C2F16
:1037E000DF91CF9108954F925F926F927F928F9267
:1037F0009F92AF92BF92EF92FF920F931F93CF933E
:10380000DF93EC018B01FC01619371937F01CB018C
:103810000E94E833A701BC018EAD9FAD0E949A4D76
:10382000889709F465C0F801EE0FFF1FEE0FFF1F28
:10383000E956FE4F85909590A590B490C501B401CE
:10384000905823E3422E542C23EF622E77247A944F
:103850004A825B826C827D826E837F8388879987B0
:1038600031EE432E3AE7532E34EF632E77247A94C9
:103870004A865B866C867D8626E636E646E65FE30C
:103880000E9486596E877F87888B998B1A8A1B8A3C
:103890001C8A1D8A1E8A1F8A188E198E8FE195E850
:1038A000ABE0B0E08A8F9B8FAC8FBD8F26E636E60B
:1038B00046E65FE3C501B4010E9486596E8F7F8F93
:1038C00088A399A38DEC9CECACE0B0E08AA39BA309
:1038D000ACA3BDA38EA29FA2A8A6B9A688819981F8
:1038E0000E94E833A701BC018EAD9FAD0E94014E3E
:1038F000AA96CE010E949E48F801E555FE4F04911C
:10390000682F607F602BCE01DF91CF911F910F91C7
:10391000FF90EF90BF90AF909F908F907F906F90AF
:103920005F904F900C948448AF92BF92CF92DF92F9
:10393000EF92FF920F931F93CF93DF93CDB7DEB734
:1039400027970FB6F894DEBF0FBECDBF7C01613064
:1039500081E0780710F060E071E0CE0101960E94EE
:1039600021532B813C818D819E812817390709F4D1
:103970004DC08701035D1F4F18C060E0C8010E9461
:10398000B24A5B016C0144275527BA014A195B0909
:103990006C097D09CE0101960E943B532B813C812D
:1039A0008D819E812817390789F10E944E3EFC01C6
:1039B00040815181052E000C660B770BDA019927A7
:1039C000882742815381052E000C660B770B762FDA
:1039D000652F542F4427482B592B6A2B7B2B84812E
:1039E0009581092E000CAA0BBB0B482B592B6A2B77
:1039F0007B2B411551056340710508F0BECF60E097
:103A0000C8010E94B24AAB01BC01C4CFCE010196ED
:103A10000E945D530E94F3590E944558AB01BC01BE
:103A2000C70102960E942E176B017C01CE01019600
:103A30000E943653C701B60127960FB6F894DEBF31
:103A40000FBECDBFDF91CF911F910F91FF90EF90EF
:103A5000DF90CF90BF90AF900895CF92DF92EF921A
:103A6000FF920F931F93CF93DF93EC01E881F981CD
:103A7000EE0FFF1FEE0FFF1FE956FE4FC590D590CA
:103A8000E590F490C701B601905803E313E323EFE8
:103A90003FEF0A831B832C833D836E837F8388875C
:103AA000998701EE1AE724EF3FEF0A871B872C87DF
:103AB0003D8726E636E646E65FE30E9486596E8736
:103AC0007F87888B998B1A8A1B8A1C8A1D8A1E8A7B
:103AD0001F8A188E198E8FE195E8ABE0B0E08A8FCF
:103AE0009B8FAC8FBD8F26E636E646E65FE3C701C7
:103AF000B6010E9486596E8F7F8F88A399A38DECA3
:103B00009CECACE0B0E08AA39BA3ACA3BDA3CEA287
:103B1000DFA2E8A6F9A6DF91CF911F910F91FF9048
:103B2000EF90DF90CF9008954F925F926F927F92C7
:103B30008F929F92AF92BF92CF92DF92EF92FF92BD
:103B40000F931F93CF93DF93CDB7DEB72C970FB6AC
:103B5000F894DEBF0FBECDBF6C017B0149015A0155
:103B600060E870E0CE0101960E949F528B859C8593
:103B7000892B09F450C08601035D1F4F15C060E01A
:103B8000C8010E94B24A2B013C0144275527BA01C3
:103B90004419550966097709CE0101960E94BB5266
:103BA0008B859C85892BB9F10E944E3EFC0140819A
:103BB0005181052E000C660B770BDA0199278827B7
:103BC00042815381052E000C660B770B762F652FF3
:103BD000542F4427482B592B6A2B7B2B84819581AA
:103BE000092E000CAA0BBB0B482B592B6A2B7B2BE5
:103BF000411551056340710510F660E0C8010E944F
:103C0000B24AAB01BC01CE0101960E94BB528B852A
:103C10009C85892B49F6CE0101960E94F6520E949E
:103C2000F359FF24EE0CFF1CEE0CFF1CEE0CFF1CE6
:103C3000CE0CDF1C0E944558F60162837383848397
:103C4000958386829782A086B1862C960FB6F894CB
:103C5000DEBF0FBECDBFDF91CF911F910F91FF90BF
:103C6000EF90DF90CF90BF90AF909F908F907F901C
:103C70006F905F904F9008950F931F93CF93DF93B2
:103C80008C01EC01899199910E94E833AE01BC014D
:103C9000F80186AD97ADDF91CF911F910F910C94F4
:103CA000014E0F931F93CF93DF93EC010E944E3E82
:103CB000FC0140815181052E000C660B770BDA0167
:103CC0009927882742815381052E000C660B770BBC
:103CD000762F652F542F4427482B592B6A2B7B2B8B
:103CE00084819581092E000CAA0BBB0B482B592B04
:103CF0006A2B7B2B4115510563407105B0F060E0E4
:103D0000CE018D960E94B24A8B019C014427552713
:103D1000BA01401B510B620B730BCE01C296DF91AF
:103D2000CF911F910F910C94BB5260E0CE018D9604
:103D30000E94B24AAB01BC01CE01C296DF91CF9185
:103D40001F910F910C94BB52CF92DF92EF92FF9292
:103D50000F931F93CF93DF938C01EC01E296CE017A
:103D60000E94F6520E94F3590E944558AB01BC01D3
:103D7000C80102960E942E176B017C01CE010E94A1
:103D8000AD52C701B601DF91CF911F910F91FF9006
:103D9000EF90DF90CF9008955F9808955F9A08950F
:103DA000579A08958530910540F4FC01EE0FFF1FEE
:103DB000ED52FE4F859194910895E3EDF1E08591E8
:103DC000949108958F929F92AF92BF92CF92DF927B
:103DD000EF92FF920F931F93CF93DF93EC0181E05B
:103DE0008EA77E0184E2E80EF11CC7010E949E4866
:103DF000682F6F7EC7010E9484480C811D816E016F
:103E000086E0C80ED11CC8010E94C833A601BC01BF
:103E10008FA598A90E949A4D4E9709F44CC0F801BD
:103E2000EE0FFF1FEE0FFF1FE654FE4F859095909B
:103E3000A590B490C501B40190582BEB33EF3F83AC
:103E40002E83688779878A879B8725EF34EF3D87A4
:103E50002C8726E636E646E65FE30E9486596E87A3
:103E60007F87888B998B1B8A1A8A1C8A1D8A1E8AD7
:103E70001F8A8BE09BE0998F888F26E636E646E620
:103E80005FE3C501B4010E9486596A8F7B8F8C8FD6
:103E90009D8F85E49CE09F8F8E8F88A299A2AAA215
:103EA000BBA28C819D810E94C833A601BC018FA555
:103EB00098A90E94014EC7010E949E48F801E25352
:103EC000FE4F0491682F607F602BC7010E948448D9
:103ED0008EA581110DC0DF91CF911F910F91FF90A1
:103EE000EF90DF90CF90BF90AF909F908F9008950C
:103EF000488159816A817B81C6010E9465128C01CB
:103F0000BC01C6010E940811688379838A839B8360
:103F1000B8017058CE018796DF91CF911F910F9114
:103F2000FF90EF90DF90CF90BF90AF909F908F90D9
:103F30000C949249FC0116A608958F929F92AF921D
:103F4000BF92CF92DF92EF92FF920F931F93CF9386
:103F5000DF93EC018B017D836C837C0186E0E80EAE
:103F6000F11CCB010E94C833A701BC018FA598A901
:103F70000E949A4D4E9709F44CC0F801EE0FFF1FB6
:103F8000EE0FFF1FE654FE4F85909590A590B490DC
:103F9000C501B40190582BEB33EF3F832E83688724
:103FA00079878A879B8725EF34EF3D872C8726E624
:103FB00036E646E65FE30E9486596E877F87888BE8
:103FC000998B1B8A1A8A1C8A1D8A1E8A1F8A8BE07B
:103FD0009BE0998F888F26E636E646E65FE3C501CB
:103FE000B4010E9486596A8F7B8F8C8F9D8F85E4E8
:103FF0009CE09F8F8E8F88A299A2AAA2BBA28C81DF
:104000009D810E94C833A701BC018FA598A90E9479
:10401000014E6E0184E2C80ED11CC6010E949E486A
:10402000F801E253FE4F0491682F607F602BC601B8
:104030000E9484488EA581110DC0DF91CF911F9100
:104040000F91FF90EF90DF90CF90BF90AF909F9037
:104050008F900895488159816A817B81C7010E94B0
:1040600065128C01BC01C7010E9408116883798325
:104070008A839B83B8017058CE018796DF91CF91D8
:104080001F910F91FF90EF90DF90CF90BF90AF9076
:104090009F908F900C949249CF92DF92EF92FF9273
:1040A0000F931F93CF93DF93EC01188219821A822A
:1040B0001B8282E090E09D838C836E0186E0C80EB7
:1040C000D11C1F821E82188619861A861B861D86A1
:1040D0001C861E861F86188A198A1B8A1A8A1C8AC1
:1040E0001D8A1E8A1F8A198E188E1A8E1B8E1C8E90
:1040F0001D8E1F8E1E8E18A219A21AA21BA28E013F
:104100000C5D1F4F60E0C8010E9479487E0187E284
:10411000E80EF11CC7010E944D4983E392E098A785
:104120008FA3C7010E946A491EA60E940D3498AB56
:104130008FA7C8010E940849682F607CC8010E94AF
:104140003049C8010E94C648682F607CC8010E949F
:10415000EE4862E070E0CE010E949D1F40E050E01A
:10416000BA01C6010E9465128C01BC01C6010E9401
:104170000811688379838A839B83B8017058C701CB
:10418000DF91CF911F910F91FF90EF90DF90CF9033
:104190000C949249CF93DF938091E002882339F009
:1041A0008091DE029091DF02DF91CF91089581E34B
:1041B00090E00E94790CD82FC92F0E944C20D093F8
:1041C000DE02C093DF0281E08093E0028D2F9C2FFE
:1041D000DF91CF910895EF92FF920F931F93CF93AA
:1041E000DF938C017C0186E0E80EF11CC7010E9480
:1041F0006512EC01BC01C7010E940811F80160833F
:10420000718382839383BE017058C8018796DF91C2
:10421000CF911F910F91FF90EF900C949249CF9204
:10422000DF92EF92FF92CF93DF93EC01EC81FD815F
:10423000EE0FFF1FEE0FFF1FE654FE4FC590D59007
:10424000E590F490C701B60190582BEB33EF3F8314
:104250002E83688779878A879B8725EF34EF3D8790
:104260002C8726E636E646E65FE30E9486596E878F
:104270007F87888B998B1B8A1A8A1C8A1D8A1E8AC3
:104280001F8A8BE09BE0998F888F26E636E646E60C
:104290005FE3C701B6010E9486596A8F7B8F8C8FBE
:1042A0009D8F85E49CE09F8F8E8FC8A2D9A2EAA241
:1042B000FBA2DF91CF91FF90EF90DF90CF90089518
:1042C0007727FB01EE0FFF1FE60FF71FEE0FFF1F13
:1042D000E80FF91F66817781705887960C94924990
:1042E0007727FB01EE0FFF1F6E0F7F1F660F771FF3
:1042F000860F971FFC0120873187428753870895D7
:10430000CF93DF93EC018C819D810E94C833AE0175
:104310004A5F5F4FBC018FA598A9DF91CF910C94A4
:10432000014E089521E030E0FC0134AF23AFBC0121
:10433000655C7F4F0C946C412DE332E0FC013183CE
:1043400020830C948540CF93DF93EC018DE392E0C2
:1043500099838883CE010E948540CE01DF91CF9161
:104360000C947B0C4430510508F4089528E030E0AB
:10437000FC0134AF23AFBC01655C7F4F0C946C41F2
:104380004430510508F408952EE030E0FC0134AFCC
:1043900023AFBC01655C7F4F0C946C4144305105E8
:1043A00008F4089523E130E0FC0134AF23AFBC01F1
:1043B000655C7F4F0C946C414430510508F40895BE
:1043C00028E130E0FC0134AF23AFBC01655C7F4FD6
:1043D0000C946C414430510508F408952AE130E012
:1043E000FC0134AF23AFBC01655C7F4F0C946C4182
:1043F0004430510508F408952BE130E0FC0134AF5E
:1044000023AFBC01655C7F4F0C946C414430510577
:1044100008F408952CE130E0FC0134AF23AFBC0177
:10442000655C7F4F0C946C414430510508F408954D
:104430002DE130E0FC0134AF23AFBC01655C7F4F60
:104440000C946C414430510508F4089521E230E0A9
:10445000FC0134AF23AFBC01655C7F4F0C946C4111
:104460004430510508F4089522E230E0FC0134AFF5
:1044700023AFBC01655C7F4F0C946C414430510507
:1044800008F4089526E230E0FC0134AF23AFBC010C
:10449000655C7F4F0C946C414430510508F40895DD
:1044A00028E230E0FC0134AF23AFBC01655C7F4FF4
:1044B0000C946C414430510508F408952AE230E030
:1044C000FC0134AF23AFBC01655C7F4F0C946C41A1
:1044D0004430510508F408952CE230E0FC0134AF7B
:1044E00023AFBC01655C7F4F0C946C414430510597
:1044F00008F408952EE230E0FC0134AF23AFBC0194
:10450000655C7F4F0C946C414430510508F408956C
:104510002FE230E0FC0134AF23AFBC01655C7F4F7C
:104520000C946C410F931F93FB01A081B1812B2F41
:104530003A2F2033310540F5EB2FFA2FEE0FFF1FF6
:10454000EE0FFF1FE352FE4F059115912591349117
:10455000F80120FF12C0F901F595E795DC01AE0FD7
:10456000BF1FED91FC911197E00FF11F0190F081B9
:10457000E02DCD011F910F91099435952795820F5C
:10458000931F1F910F9109941F910F910895483027
:10459000510508F40895DB011596EC9115971496D2
:1045A000FC91E230F10580F0E7ECF2E025913491E6
:1045B00043E050E0FC0154AF43AF36AF25AFBC0140
:1045C000655C7F4F0C946C41EE0FFF1FE953FD4F6C
:1045D000EDCF4830510508F40895DB011596EC91B4
:1045E00015971496FC91E530F10590F4EE0FFF1F3E
:1045F000E354FD4F2591349144E050E0FC0154AF69
:1046000043AF36AF25AFBC01655C7F4F0C946C4166
:10461000EDEBF2E0EFCF4830510578F0FB0124815B
:10462000358145E050E0FC0154AF43AF35AF26AFD4
:10463000BC01655C7F4F0C946C4108954830510576
:1046400078F0FB012481358146E050E0FC0154AF55
:1046500043AF35AF26AFBC01655C7F4F0C946C4116
:1046600008954830510508F40895DB011596EC9142
:1046700015971496FC91E230F10580F0E9EBF2E039
:10468000259134914AE050E0FC0154AF43AF36AF7E
:1046900025AFBC01655C7F4F0C946C41EE0FFF1F92
:1046A000E754FD4FEDCF4830510578F0FB012481F0
:1046B00035814BE050E0FC0154AF43AF35AF26AF3E
:1046C000BC01655C7F4F0C946C41089548305105E6
:1046D00078F0FB01248135814CE050E0FC0154AFBF
:1046E00043AF35AF26AFBC01655C7F4F0C946C4186
:1046F00008954830510508F40895DB011596EC91B2
:1047000015971496FC91E530F10590F4EE0FFF1F1C
:10471000E155FD4F2591349140E150E0FC0154AF4B
:1047200043AF36AF25AFBC01655C7F4F0C946C4145
:10473000EFEAF2E0EFCF4830510578F0FB01248139
:10474000358141E150E0FC0154AF43AF35AF26AFB6
:10475000BC01655C7F4F0C946C4108954830510555
:1047600078F0FB012481358144E150E0FC0154AF35
:1047700043AF35AF26AFBC01655C7F4F0C946C41F5
:1047800008954830510508F40895DB011596EC9121
:1047900015971496FC91E630F10590F4EE0FFF1F8B
:1047A000ED55FD4F2591349145E150E0FC0154AFAA
:1047B00043AF36AF25AFBC01655C7F4F0C946C41B5
:1047C000E3EAF2E0EFCF4830510578F0FB012481B5
:1047D000358146E150E0FC0154AF43AF35AF26AF21
:1047E000BC01655C7F4F0C946C41089548305105C5
:1047F00078F0FB012481358149E150E0FC0154AFA0
:1048000043AF35AF26AFBC01655C7F4F0C946C4164
:1048100008954830510578F0FB01248135814EE13F
:1048200050E0FC0154AF43AF35AF26AFBC01655C2F
:104830007F4F0C946C4108954830510508F4089559
:10484000E1EAF2E02591349143E250E0FC0154AFFB
:1048500043AF36AF25AFBC01655C7F4F0C946C4114
:104860004830510578F0FB012481358144E250E065
:10487000FC0154AF43AF35AF26AFBC01655C7F4F41
:104880000C946C4108954830510578F0FB01248167
:10489000358147E250E0FC0154AF43AF35AF26AF5E
:1048A000BC01655C7F4F0C946C4108954830510504
:1048B00008F40895DB011596EC9115971496FC9178
:1048C000E230F10580F0EDE9F2E02591349149E222
:1048D00050E0FC0154AF43AF36AF25AFBC01655C7F
:1048E0007F4F0C946C41EE0FFF1FE356FD4FEDCF51
:1048F0004830510578F0FB01248135814DE250E0CC
:10490000FC0154AF43AF35AF26AFBC01655C7F4FB0
:104910000C946C410895FB014830510598F02481B6
:1049200035814681578162E070E0FC0174AF63AF6E
:10493000FD965083418332832383BC01655C7F4FA6
:104940000C946C410895FB0148305105A8F0478153
:104950005681658174812BE230E0FC0134AF23AFD6
:10496000FD96662777274083518362837383BC015A
:10497000655C7F4F0C946C410895FB014C305105F0
:10498000D8F044815581B385A2853185208567E0C3
:1049900070E0FC0174AF63AF55AF46AFFF964B2F8D
:1049A0005A2F632F722F4083518362837383BC011C
:1049B000655C7F4F0C946C410895FB0148305105B4
:1049C000B8F0B781A6813581248149E050E0FC012F
:1049D00054AF43AFFD964B2F5A2F632F722F408356
:1049E000518362837383BC01655C7F4F0C946C417F
:1049F0000895FB014C305105D8F044815581B385B1
:104A0000A285318520856DE070E0FC0174AF63AF55
:104A100055AF46AFFF964B2F5A2F632F722F40830F
:104A2000518362837383BC01655C7F4F0C946C413E
:104A30000895FB0148305105B8F0B781A681358152
:104A400024814FE050E0FC0154AF43AFFD964B2F63
:104A50005A2F632F722F4083518362837383BC016B
:104A6000655C7F4F0C946C410895FB014C305105FF
:104A7000D8F044815581B385A2853185208562E1D6
:104A800070E0FC0174AF63AF55AF46AFFF964B2F9C
:104A90005A2F632F722F4083518362837383BC012B
:104AA000655C7F4F0C946C410895FB014C305105BF
:104AB000D8F044815581B385A2853185208567E191
:104AC00070E0FC0174AF63AF55AF46AFFF964B2F5C
:104AD0005A2F632F722F4083518362837383BC01EB
:104AE000655C7F4F0C946C410895FB014C3051057F
:104AF000D8F044815581B385A2853185208565E252
:104B000070E0FC0174AF63AF55AF46AFFF964B2F1B
:104B10005A2F632F722F4083518362837383BC01AA
:104B2000655C7F4F0C946C4108954830510578F0D6
:104B3000FB01248135814FE150E0FC0154AF43AFCC
:104B400035AF26AFBC01655C7F4F0C946C41089576
:104B5000FB014830510598F0448155812681378109
:104B600060E270E0FC0174AF63AF55AF46AFFF96F3
:104B700030832183BC01655C7F4F0C946C410895A8
:104B8000AF92BF92CF92DF92EF92FF920F931F935B
:104B9000CF93DF938C01FC01ED5BFF4F808191810E
:104BA0000E9444505C010E946F4FEC01892B59F424
:104BB000DF91CF911F910F91FF90EF90DF90CF90F9
:104BC000BF90AF900895680186E0C80ED11C7501B2
:104BD0005801EEE0AE0EB11C05C0C6010E94BF47F1
:104BE000219731F3F70161917F01C6010E94D347FC
:104BF000F80190A99923A1F34085518544305105CE
:104C000060F3B501C8010E949222E7CF853091057B
:104C100040F4FC01EE0FFF1FE354FD4F859194918A
:104C20000895EDEBF2E0859194910895823091051D
:104C300028F0E9EBF2E0859194910895FC01EE0FE4
:104C4000FF1FE754FD4F859194910895853091059C
:104C500040F4FC01EE0FFF1FE155FD4F859194914B
:104C60000895EFEAF2E085919491089586309105D8
:104C700040F4FC01EE0FFF1FED55FD4F859194911F
:104C80000895E3EAF2E0859194910895E1EAF2E073
:104C90008591949108958230910528F0EDE9F2E034
:104CA000859194910895FC01EE0FFF1FE356FD4F8F
:104CB000859194910895CF93DF938091EA028823A0
:104CC00039F08091E8029091E902DF91CF91089547
:104CD00085E490E00E94790CEC010E9434418DE360
:104CE00092E099838883CE0106960E94AB4718AE66
:104CF0001FAA1AAE19AE0E94794FFE01ED5BFF4F5D
:104D00009183808340E855E260E070E00E94EA4FC2
:104D1000D093E902C093E80281E08093EA02CE01D9
:104D2000DF91CF910895FC01ED5BFF4F8081918170
:104D30000C94C94FFC01ED5BFF4F808191810C9475
:104D4000EA4F6F927F928F929F92AF92BF92CF92D3
:104D5000DF92EF92FF920F931F93CF93DF9300D0D8
:104D600000D0CDB7DEB76C014B015C0187E3A80E24
:104D7000B11C6CE270E0C50129833A834B835C83EC
:104D80000E9477473C01FC01108681E081871386F1
:104D900012865C8154A74B8145A73A8136A72981A9
:104DA00027A710AB01ABF2AAE3AAC3010C9620E23D
:104DB000FC0111922A95E9F7B4010E946A5DC301D2
:104DC0000E945847F30145815481485F5F4FF601C7
:104DD000ED5BFF4FB301808191810E947F50B30151
:104DE000C5010F900F900F900F90DF91CF911F9101
:104DF0000F91FF90EF90DF90CF90BF90AF909F907A
:104E00008F907F906F900C94AA47EF92FF920F9330
:104E10001F93CF93DF938C017C0187E3E80EF11C95
:104E200064E070E0C7010E947747EC01188619869C
:104E30001B861A860E9458474D815C81485F5F4FF0
:104E4000F801ED5BFF4FBE01808191810E947F5090
:104E5000BE01C701DF91CF911F910F91FF90EF909D
:104E60000C94AA47AF92BF92CF92DF92EF92FF923B
:104E70000F931F93CF93DF9300D0CDB7DEB78C0194
:104E8000D62EC72E7C0187E3E80EF11C68E070E0A7
:104E9000C70149835A830E9477475C01FC01108651
:104EA00082E0818713861286C486D5865A8156870A
:104EB00049814787C5010E945847F50145815481C2
:104EC000485F5F4FF801ED5BFF4FB5018081918135
:104ED0000E947F50B501C7010F900F90DF91CF91D5
:104EE0001F910F91FF90EF90DF90CF90BF90AF9008
:104EF0000C94AA47CF92DF92EF92FF920F931F93E9
:104F0000CF93DF938C01D62EC72E7C0187E3E80E6A
:104F1000F11C68E070E0C7010E947747EC01188639
:104F200083E089871B861A86CC86DD861F861E86CF
:104F3000CE010E9458474D815C81485F5F4FF80168
:104F4000ED5BFF4FBE01808191810E947F50BE01C9
:104F5000C701DF91CF911F910F91FF90EF90DF90EC
:104F6000CF900C94AA47CF92DF92EF92FF920F93CB
:104F70001F93CF93DF938C01D62EC72E7C0187E33E
:104F8000E80EF11C68E070E0C7010E947747EC0171
:104F9000188684E089871B861A86CC86DD861F8664
:104FA0001E86CE010E9458474D815C81485F5F4F4D
:104FB000F801ED5BFF4FBE01808191810E947F501F
:104FC000BE01C701DF91CF911F910F91FF90EF902C
:104FD000DF90CF900C94AA478F929F92AF92BF928E
:104FE000CF92DF92EF92FF920F931F93CF93DF93B5
:104FF00000D000D0CDB7DEB77C01B62EA72E6C0155
:1050000087E3C80ED11C6CE070E0C6012B833C83A3
:1050100049835A830E9477474C01FC01108685E042
:10502000818713861286A486B5865A815687498160
:1050300047873C812B81A801832F922FA52FB02F6A
:10504000808B918BA28BB38BC4010E945847F401D3
:1050500045815481485F5F4FF701ED5BFF4FB4011D
:10506000808191810E947F50B401C6010F900F9002
:105070000F900F90DF91CF911F910F91FF90EF90C4
:10508000DF90CF90BF90AF909F908F900C94AA47E5
:105090008F929F92AF92BF92CF92DF92EF92FF9248
:1050A0000F931F93CF93DF9300D000D0CDB7DEB71F
:1050B0007C01B62EA72E6C0187E3C80ED11C6CE0D4
:1050C00070E0C6012B833C8349835A830E94774753
:1050D0004C01FC01108686E0818713861286A48627
:1050E000B5865A815687498147873C812B81A80123
:1050F000832F922FA52FB02F808B918BA28BB38BF8
:10510000C4010E945847F40145815481485F5F4FB4
:10511000F701ED5BFF4FB401808191810E947F50C8
:10512000B401C6010F900F900F900F90DF91CF91B7
:105130001F910F91FF90EF90DF90CF90BF90AF90B5
:105140009F908F900C94AA478F929F92AF92BF929C
:10515000CF92DF92EF92FF920F931F93CF93DF9343
:1051600000D000D0CDB7DEB77C01B62EA72E6C01E3
:1051700087E3C80ED11C6CE070E0C6012B833C8332
:1051800049835A830E9477474C01FC01108687E0CF
:10519000818713861286A486B5865A8156874981EF
:1051A00047873C812B81A801832F922FA52FB02FF9
:1051B000808B918BA28BB38BC4010E945847F40162
:1051C00045815481485F5F4FF701ED5BFF4FB401AC
:1051D000808191810E947F50B401C6010F900F9091
:1051E0000F900F90DF91CF911F910F91FF90EF9053
:1051F000DF90CF90BF90AF909F908F900C94AA4774
:10520000EF92FF920F931F93CF93DF938C017C015A
:1052100087E3E80EF11C64E070E0C7010E94774765
:10522000EC01188688E089871B861A86CE010E94C9
:1052300058474D815C81485F5F4FF801ED5BFF4F40
:10524000BE01808191810E947F50BE01C701DF9124
:10525000CF911F910F91FF90EF900C94AA47AF92BE
:10526000BF92CF92DF92EF92FF920F931F93CF9353
:10527000DF9300D0CDB7DEB78C01D62EC72E7C01D0
:1052800087E3E80EF11C68E070E0C70149835A83A8
:105290000E9477475C01FC01108689E081871386B4
:1052A00012865A8149818C2D9D2DA52FB42FF50191
:1052B00084879587A687B787C5010E945847F5015F
:1052C00045815481485F5F4FF801ED5BFF4FB501A9
:1052D000808191810E947F50B501C7010F900F908E
:1052E000DF91CF911F910F91FF90EF90DF90CF90C2
:1052F000BF90AF900C94AA47CF92DF92EF92FF92AB
:105300000F931F93CF93DF938C01D62EC72E7C0172
:1053100087E3E80EF11C68E070E0C7010E94774760
:10532000EC0118868AE089871B861A86CC86DD8682
:105330001F861E86CE010E9458474D815C81485FC2
:105340005F4FF801ED5BFF4FBE01808191810E94AC
:105350007F50BE01C701DF91CF911F910F91FF9048
:10536000EF90DF90CF900C94AA478F929F92AF92CC
:10537000BF92CF92DF92EF92FF920F931F93CF9342
:10538000DF9300D000D0CDB7DEB77C01B62EA72EBC
:105390006C0187E3C80ED11C6CE070E0C6012B8362
:1053A0003C8349835A830E9477474C01FC01108655
:1053B0008BE0818713861286A486B5865A8156872C
:1053C000498147873C812B81A801832F922FA52FEC
:1053D000B02F808B918BA28BB38BC4010E94584756
:1053E000F40145815481485F5F4FF701ED5BFF4F4A
:1053F000B401808191810E947F50B401C6010F9059
:105400000F900F900F90DF91CF911F910F91FF9010
:10541000EF90DF90CF90BF90AF909F908F900C94C3
:10542000AA478F929F92AF92BF92CF92DF92EF9254
:10543000FF920F931F93CF93DF9300D000D0CDB78F
:10544000DEB77C01B62EA72E6C0187E3C80ED11CF7
:105450006CE070E0C6012B833C8349835A830E9431
:1054600077474C01FC0110868CE0818713861286F9
:10547000A486B5865A815687498147873C812B810E
:10548000A801832F922FA52FB02F808B918BA28BF9
:10549000B38BC4010E945847F40145815481485F91
:1054A0005F4FF701ED5BFF4FB401808191810E9456
:1054B0007F50B401C6010F900F900F900F90DF91B5
:1054C000CF911F910F91FF90EF90DF90CF90BF9001
:1054D000AF909F908F900C94AA478F929F92AF921B
:1054E000BF92CF92DF92EF92FF920F931F93CF93D1
:1054F000DF9300D000D0CDB7DEB77C01B62EA72E4B
:105500006C0187E3C80ED11C6CE070E0C6012B83F0
:105510003C8349835A830E9477474C01FC011086E3
:105520008DE0818713861286A486B5865A815687B8
:10553000498147873C812B81A801832F922FA52F7A
:10554000B02F808B918BA28BB38BC4010E945847E4
:10555000F40145815481485F5F4FF701ED5BFF4FD8
:10556000B401808191810E947F50B401C6010F90E7
:105570000F900F900F90DF91CF911F910F91FF909F
:10558000EF90DF90CF90BF90AF909F908F900C9452
:10559000AA47EF92FF920F931F93CF93DF938C0153
:1055A0007C0187E3E80EF11C64E070E0C7010E9413
:1055B0007747EC0118868EE089871B861A86CE0114
:1055C0000E9458474D815C81485F5F4FF801ED5B59
:1055D000FF4FBE01808191810E947F50BE01C701B3
:1055E000DF91CF911F910F91FF90EF900C94AA47FC
:1055F000AF92BF92CF92DF92EF92FF920F931F93E1
:10560000CF93DF9300D0CDB7DEB78C01D62EC72E57
:105610007C0187E3E80EF11C68E070E0C701498374
:105620005A830E9477475C01FC0110868FE08187D6
:10563000138612865A8149818C2D9D2DA52FB42F5A
:10564000F50184879587A687B787C5010E945847CB
:10565000F50145815481485F5F4FF801ED5BFF4FD5
:10566000B501808191810E947F50B501C7010F90E3
:105670000F90DF91CF911F910F91FF90EF90DF90EE
:10568000CF90BF90AF900C94AA47CF92DF92EF9249
:10569000FF920F931F93CF93DF938C01D62EC72ECB
:1056A0007C0187E3E80EF11C68E070E0C7010E940E
:1056B0007747EC01188680E189871B861A86CC869D
:1056C000DD861F861E86CE010E9458474D815C8173
:1056D000485F5F4FF801ED5BFF4FBE018081918114
:1056E0000E947F50BE01C701DF91CF911F910F91A2
:1056F000FF90EF90DF90CF900C94AA476F927F922B
:105700008F929F92AF92BF92CF92DF92EF92FF92D1
:105710000F931F93CF93DF9300D000D0CDB7DEB7A8
:105720006C01962E872E5C0187E3A80EB11C60E108
:1057300070E0C50129833A834B835C830E947747DD
:105740003C01FC01108681E18187138612868486E4
:105750009586178616865C81508B4B81418B3A81EA
:10576000328B2981238BA8019701852F902FA32F9E
:10577000BE2D848B958BA68BB78BC3010E94584797
:10578000F30145815481485F5F4FF601ED5BFF4FA8
:10579000B301808191810E947F50B301C5010F90B8
:1057A0000F900F900F90DF91CF911F910F91FF906D
:1057B000EF90DF90CF90BF90AF909F908F907F90B1
:1057C0006F900C94AA476F927F928F929F92AF92A4
:1057D000BF92CF92DF92EF92FF920F931F93CF93DE
:1057E000DF9300D000D0CDB7DEB76C01962E872EA8
:1057F0005C0187E3A80EB11C60E170E0C50129835C
:105800003A834B835C830E9477473C01FC011086FE
:1058100082E181871386128684869586178616868E
:105820005C81508B4B81418B3A81328B2981238B58
:10583000A8019701852F902FA32FBE2D848B958BC8
:10584000A68BB78BC3010E945847F3014581548151
:10585000485F5F4FF601ED5BFF4FB301808191819F
:105860000E947F50B301C5010F900F900F900F90D1
:10587000DF91CF911F910F91FF90EF90DF90CF902C
:10588000BF90AF909F908F907F906F900C94AA479D
:10589000EF92FF920F931F93CF93DF938C017C01C4
:1058A00087E3E80EF11C64E070E0C7010E947747CF
:1058B000EC01188683E189871B861A86CE010E9437
:1058C00058474D815C81485F5F4FF801ED5BFF4FAA
:1058D000BE01808191810E947F50BE01C701DF918E
:1058E000CF911F910F91FF90EF900C94AA47AF9228
:1058F000BF92CF92DF92EF92FF920F931F93CF93BD
:10590000DF9300D0CDB7DEB78C01D62EC72E7C0139
:1059100087E3E80EF11C68E070E0C70149835A8311
:105920000E9477475C01FC01108684E18187138621
:1059300012865A8149818C2D9D2DA52FB42FF501FA
:1059400084879587A687B787C5010E945847F501C8
:1059500045815481485F5F4FF801ED5BFF4FB50112
:10596000808191810E947F50B501C7010F900F90F7
:10597000DF91CF911F910F91FF90EF90DF90CF902B
:10598000BF90AF900C94AA47CF92DF92EF92FF9214
:105990000F931F93CF93DF938C01D62EC72E7C01DC
:1059A00087E3E80EF11C68E070E0C7010E947747CA
:1059B000EC01188685E189871B861A86CC86DD86F0
:1059C0001F861E86CE010E9458474D815C81485F2C
:1059D0005F4FF801ED5BFF4FBE01808191810E9416
:1059E0007F50BE01C701DF91CF911F910F91FF90B2
:1059F000EF90DF90CF900C94AA476F927F928F9296
:105A00009F92AF92BF92CF92DF92EF92FF920F934D
:105A10001F93CF93DF9300D000D0CDB7DEB76C01DA
:105A2000962E872E5C0187E3A80EB11C60E170E022
:105A3000C50129833A834B835C830E9477473C01ED
:105A4000FC01108686E181871386128684869586FE
:105A5000178616865C81508B4B81418B3A81328B45
:105A60002981238BA8019701852F902FA32FBE2D6D
:105A7000848B958BA68BB78BC3010E945847F3018B
:105A800045815481485F5F4FF601ED5BFF4FB301E5
:105A9000808191810E947F50B301C5010F900F90CA
:105AA0000F900F90DF91CF911F910F91FF90EF908A
:105AB000DF90CF90BF90AF909F908F907F906F902E
:105AC0000C94AA476F927F928F929F92AF92BF924F
:105AD000CF92DF92EF92FF920F931F93CF93DF93BA
