:100000000C94A6020C94CE020C94CE020C94CE0258
:100010000C94CE020C94CE020C94CE020C94CE0220
:100020000C94CE020C94CE020C94CE020C94CE0210
:100030000C94CE020C94CE020C94CE020C94CE0200
:100040000C9425430C94CE020C94CE020C94CE0258
:100050000C94F9430C94CE020C94CE020C94CE0274
:100060000C94CE020C94CE020C94CE020C94CE02D0
:100070006E616E00696E660000407A10F35A00A04F
:10008000724E18090010A5D4E80000E87648170061
:1000900000E40B54020000CA9A3B000000E1F505A1
:1000A000000080969800000040420F000000A086EB
:1000B00001000000102700000000E803000000001D
:1000C0006400000000000A000000000001000000C1
:1000D00000002C76D888DC674F0823DFC1DFAE59DB
:1000E000E1B1B796E5E3E453C63AE651997696E86E
:1000F000E6C28426EB898C9B62ED407C6FFCEFBCF2
:100100009C9F40F2BAA56FA5F490055A2AF75C931C
:100110006B6CF9676DC11BFCE0E40D47FEF520E652
:10012000B500D0ED902E0300943577050080841E35
:10013000080000204E0A000000C80C333333330F90
:10014000986E12831141EF8D2114893BE65516CF2D
:10015000FEE6DB18D1844B381BF77C1D901DA4BB39
:10016000E424203284725E228100C9F124ECA1E5EE
:100170003D275F0100007A44065F0100007A4405D4
:100180005F0100007A44046C010000803F066C01AE
:100190000000803F056C010000803F0476010024D0
:1001A00074490576010024744904850100007A44ED
:1001B00006850100007A4405850100007A4404D0D8
:1001C000020000D102000090080000D60800001EC6
:1001D0000300008C030000BE030000F5030000C311
:1001E00009000032040000520400006E040000A068
:1001F000040000D704000039090000140500005570
:10020000030000340500006D0500007E0900009D1C
:100210000A0000B1050000CD050000060600000838
:100220000A00008E0B00004A060000520600005A29
:1002300006000062060000640800006A060000A4D0
:10024000060000F7060000FF06000007070000395F
:100250000700007B0700004D0A0000D407000003E0
:10026000080000160800003208000043080000469D
:100270002F77206465762000492D5620536F7572C4
:100280006365204D6574657200ACC5273717B7D11B
:10029000386F12833A0AD7233CCDCCCC3D080402F8
:1002A000010000000100020003000400ACC5273774
:1002B00017B7D1386F12833A0AD7233CCDCCCC3D47
:1002C00008040201000000010002000300040038DD
:1002D0001F0000391F0000DD2100002C2000004E0F
:1002E00020000070200000832000000D2200004349
:1002F0001F00002C22000096200000B8200000CB38
:1003000020000047220000511F000066220000DE8E
:1003100020000000210000812200005F1F00001368
:100320002100002621000048210000A02200006DCD
:100330001F00005B2100007B1F0000891F00009749
:100340001F0000A51F00006E210000DE220000F14A
:10035000220000B31F0000C11F0000812100009592
:10036000210000BF220000CF1F0000A8210000DDF7
:100370001F0000BB210000EB1F0000F42100000063
:10038000000100000000000100020003000400055D
:100390000000000100020003000400000001000052
:1003A000000100020003000400000001001E001E06
:1003B000001E001E001E001E001E0028002800282F
:1003C00000280028002800280028002800280028ED
:1003D000002000280013000C000D000E000F00107C
:1003E0000011000700080009000A000B00050006C4
:1003F00000000001000200030004006F12833A0AAB
:10040000D7233CCDCCCC3D0000803F0000204100F4
:1004100000C8420804020100300000010000000191
:10042000000200030004000500000020410000005D
:100430000020410000C8420020000001000300032A
:100440000002000AD7233C0300030003000AD7235D
:100450003C0300030004000AD7233C02000200040E
:10046000006F12833A01000100040017B7D1380170
:100470000001000400ACC52737010001000400BDE5
:100480003786350300030002000AD7233CCDCCCCCD
:100490003D0300030003000AD7233C0000803F0314
:1004A00000030004000AD7233C00002041020002A0
:1004B0000004006F12833A00002041010001000493
:1004C0000017B7D13800002041010001000400AC42
:1004D000C5273700002041010001000400BD378618
:1004E0003500002041000001000200030004000567
:1004F00000060080C0753C0000833C0000763C0094
:10050000007C3C000000FFFFFFFF000100FF002017
:1005100000100008000400010203D84500001E4539
:1005200000003D450000F4450000DF450000B445F3
:100530000000E6450000ED4500005C450000744504
:1005400000007B4500009F450000A83711241FBE16
:10055000CFEFD0E1DEBFCDBF12E0A0E0B1E0EEE52D
:10056000F3EA02C005900D92A630B107D9F724E056
:10057000A6E0B2E001C01D92A83FB207E1F712E089
:10058000C6EAD2E004C02197FE010E94D64EC53AC9
:10059000D107C9F70E94490F0C94AD510C9400008B
:1005A00008958F929F92AF92BF92CF92DF92EF9277
:1005B000FF920F931F930E94D136FC01C080D1801F
:1005C0000D2C000CEE08FF085601992488240E9487
:1005D000D136FC01C280D3800D2C000CEE08FF0840
:1005E000FE2CED2CDC2CCC24C828D928EA28FB28AA
:1005F0000E94D136FC0184809580092C000CAA0849
:10060000BB088C289D28AE28BF280E94A0231DEF80
:10061000E12EFF24FA940FEF1FEFA501940168E18A
:1006200071E00E94D0231F910F91FF90EF90DF9017
:10063000CF90BF90AF909F908F9008950F931F938E
:10064000CF93DF93EB018A819B810E94E2188C019A
:100650000E949419B8010E94F2180E949419FC019A
:10066000808191810E946B238C010E94A023B8019C
:100670000E9456278A819B810E94881CEC010E945F
:100680007E1EBE010E94541D0E947E1EFC018481BC
:1006900095810E944B23EC010E94A023BE01DF91B3
:1006A000CF911F910F910C9484240F931F93CF939C
:1006B000DF93EB018A819B810E94881C8C010E9440
:1006C0007E1EB8010E94541D0E947E1EFC01848182
:1006D00095810E944B238C010E94A023B8010E94A7
:1006E00084248A819B810E94E218EC010E94941963
:1006F000BE010E94F2180E949419FC018081918130
:100700000E946B23EC010E94A023BE01DF91CF91D8
:100710001F910F910C9456278F929F92AF92BF9288
:10072000EF92FF920F931F93CF93DF93FB01C28150
:10073000D3810E947E1EDD27FE01EE0FFF1FEC0F0E
:10074000FD1FEE0FFF1FE80FF91F80849184A28424
:10075000B384E680F7800E94A02395018401A7015D
:10076000BE010E94B324DF91CF911F910F91FF90A2
:10077000EF90BF90AF909F908F9008958F929F922F
:10078000AF92BF92EF92FF920F931F93CF93DF939D
:10079000FB01C281D381DD270E947E1EBE010E9423
:1007A000011F0E947E1EFE01EE0FFF1FEC0FFD1FBA
:1007B000EE0FFF1FE80FF91F80849184A284B38499
:1007C000E680F7800E94A02395018401A701BE0165
:1007D0000E94FB24DF91CF911F910F91FF90EF902A
:1007E000BF90AF909F908F9008958F929F92AF92FD
:1007F000BF92EF92FF920F931F93CF93DF93FB0172
:1008000084809580A680B780C281D381DD270E9435
:100810007E1EA5019401BE010E94111F0E947E1E32
:10082000FE01EE0FFF1FEC0FFD1FEE0FFF1FE80F85
:10083000F91F80849184A284B384E680F7800E94AB
:10084000A02395018401A701BE010E944325DF91E9
:10085000CF911F910F91FF90EF90BF90AF909F901D
:100860008F900895CF92DF92EF92FF92FB01C280AA
:10087000D380E480F5800E947E1EB701A6010E940D
:100880008C1E0E947E1EFC01C080D180E280F3801D
:100890000E94A023B701A601FF90EF90DF90CF90B8
:1008A0000C94B425CF93DF93FB01828193810E9446
:1008B0001E33EC010E944934BE010E9431330E9474
:1008C0004934FC01848195810E945B23EC010E94E4
:1008D000A023BE01DF91CF910C94ED258F929F92C2
:1008E000AF92BF92EF92FF920F931F93CF93DF933C
:1008F000FB01C281D3810E944934DD27FE01EE0F46
:10090000FF1FEC0FFD1FEE0FFF1FE80FF91F808484
:100910009184A284B384E680F7800E94A02395018D
:100920008401A701BE010E941C26DF91CF911F9177
:100930000F91FF90EF90BF90AF909F908F90089590
:100940008F929F92AF92BF92EF92FF920F931F935D
:10095000CF93DF93FB01C281D381DD270E9449340D
:10096000BE010E9405350E944934FE01EE0FFF1FB3
:10097000EC0FFD1FEE0FFF1FE80FF91F808491841D
:10098000A284B384E680F7800E94A02395018401AD
:10099000A701BE010E946426DF91CF911F910F91A4
:1009A000FF90EF90BF90AF909F908F9008958F929F
:1009B0009F92AF92BF92EF92FF920F931F93CF93AC
:1009C000DF93FB0184809580A680B780C281D381AC
:1009D000DD270E944934A5019401BE010E9415350E
:1009E0000E944934FE01EE0FFF1FEC0FFD1FEE0FBA
:1009F000FF1FE80FF91F80849184A284B384E680EE
:100A0000F7800E94A02395018401A701BE010E94E6
:100A1000AC26DF91CF911F910F91FF90EF90BF9087
:100A2000AF909F908F900895CF92DF92EF92FF92B8
:100A3000FB01C280D380E480F5800E944934B70175
:100A4000A6010E9490340E944934FC01C080D180EC
:100A5000E280F3800E94A023B701A601FF90EF90EF
:100A6000DF90CF900C941D278F929F92AF92BF92F0
:100A7000CF92DF92EF92FF920F931F93CF93DF936A
:100A8000FB01C281D3810E949419DD27FE01EE0F84
:100A9000FF1FEE0FFF1FEE0FFF1FE80FF91FC680AD
:100AA000D780E084F18482809380A480B5800E9406
:100AB000A02387017601A5019401BE010E9485272C
:100AC000DF91CF911F910F91FF90EF90DF90CF902A
:100AD000BF90AF909F908F9008958F929F92AF920A
:100AE000BF92CF92DF92EF92FF920F931F93CF931B
:100AF000DF93FB01C480D580E680F780C281D3817B
:100B0000DD270E949419A7019601BE010E94391B9E
:100B10000E949419FE01EE0FFF1FEE0FFF1FEE0F54
:100B2000FF1FE80FF91FC680D780E084F184828020
:100B30009380A480B5800E94A02387017601A5013F
:100B40009401BE010E94D627DF91CF911F910F9192
:100B5000FF90EF90DF90CF90BF90AF909F908F90DD
:100B60000895CF93DF93FB01828193810E94AA2D88
:100B7000EC010E94FA2EBE010E94CA2D0E94FA2E9C
:100B8000FC01808191810E947B23EC010E94A023C3
:100B9000BE01DF91CF910C9489288F929F92AF92E2
:100BA000BF92CF92DF92EF92FF920F931F93CF935A
:100BB000DF93FB01C281D3810E94FA2EDD27FE0163
:100BC000EE0FFF1FEE0FFF1FEE0FFF1FE80FF91FC5
:100BD000C680D780E084F18482809380A480B58031
:100BE0000E94A02387017601A5019401BE010E9405
:100BF000B828DF91CF911F910F91FF90EF90DF9078
:100C0000CF90BF90AF909F908F9008958F929F92BA
:100C1000AF92BF92CF92DF92EF92FF920F931F930A
:100C2000CF93DF93FB01C480D580E680F780C2813B
:100C3000D381DD270E94FA2EA7019601BE010E94F2
:100C4000CA2F0E94FA2EFE01EE0FFF1FEE0FFF1FAC
:100C5000EE0FFF1FE80FF91FC680D780E084F184F4
:100C600082809380A480B5800E94A02387017601B2
:100C7000A5019401BE010E940929DF91CF911F9126
:100C80000F91FF90EF90DF90CF90BF90AF909F902B
:100C90008F9008950E947E1E0E94B01E0E94A02385
:100CA0000C94BC290E9449340E94B4340E94A023B1
:100CB0000C94E5290E9494190E94D21A0E94A02344
:100CC0000C940E2A0E94FA2E0E94632F0E94A023E9
:100CD0000C94372ACF93DF93FB018281938181307B
:100CE000910521F18230910599F0892B19F0DF915E
:100CF000CF9108950E94D136FC01C081D1810E941C
:100D0000A023AE0160E070E0DF91CF910C94992AAE
:100D10000E94D136FC01C481D5810E94A023AE017E
:100D200062E070E0DF91CF910C94992A0E94D13655
:100D3000FC01C281D3810E94A023AE0161E070E07A
:100D4000DF91CF910C94992ACF93DF93FB0182819D
:100D50009381C481D58181309105B1F182309105B3
:100D600001F1009759F08130910599F18230910598
:100D7000E9F0892B41F0DF91CF9108950E94D1369F
:100D8000FC01D183C0830E94D136FC01C081D18196
:100D90000E94A023AE0160E070E0DF91CF910C943F
:100DA000CE2A0E94D136FC01D583C4830E94D1365D
:100DB000FC01C481D5810E94A023AE0162E070E0F5
:100DC000DF91CF910C94CE2A0E94D136FC01D383BF
:100DD000C2830E94D136FC01C281D3810E94A0232C
:100DE000AE0161E070E0DF91CF910C94CE2A0E94B9
:100DF000D1360E942B370E94A0230C94032B0E9413
:100E0000D1360E9437370E94A0230C942C2BCF930D
:100E1000DF93FB01828193810E94A530EC018091D8
:100E20001E028823F1F0BE0186E292E00E94753135
:100E300080911E02811107C086E292E00E94AA30D2
:100E400081E080931E028091290290912A020E94E3
:100E50008B23EC010E94A023BE01DF91CF910C9463
:100E6000552B86E292E00E94AA3081E080931E0218
:100E7000DACF8F929F92AF92BF92CF92DF92EF9292
:100E8000FF920F931F93CF93DF93FB01C281D38116
:100E900080911E02811107C086E292E00E94AA3072
:100EA00081E080931E02DD27FE01EE0FFF1FEE0F93
:100EB000FF1FEE0FFF1FEA5DFD4FC184D284E38464
:100EC000F48485809680A780B0840E94A023870147
:100ED0007601A5019401BE010E94842BDF91CF9180
:100EE0001F910F91FF90EF90DF90CF90BF90AF9048
:100EF0009F908F9008958F929F92AF92BF92CF92C2
:100F0000DF92EF92FF920F931F93CF93DF93FB013A
:100F1000C480D580E680F780C281D381DD278091AF
:100F20001E028823C9F1A7019601BE0186E292E064
:100F30000E94083280911E02811107C086E292E071
:100F40000E94AA3081E080931E02FE01EE0FFF1F77
:100F5000EE0FFF1FEE0FFF1FEA5DFD4FC184D2842D
:100F6000E384F48485809680A780B0840E94A023C7
:100F700087017601A5019401BE010E94D52BDF9166
:100F8000CF911F910F91FF90EF90DF90CF90BF9086
:100F9000AF909F908F90089586E292E00E94AA30D1
:100FA00081E080931E02BFCFCF92DF92EF92FF923B
:100FB000CF93DF93EB010E943C350E945435EA80C9
:100FC000FB8080911E02811107C086E292E00E94A0
:100FD000AA3081E080931E02B70186E292E00E946F
:100FE000DC326B017C010E94A023B701A6010E94A4
:100FF0004F2C0E943C35DF91CF91FF90EF90DF9016
:10100000CF900C94563580911E02811107C086E264
:1010100092E00E94AA3081E080931E0286E292E074
:101020000E9475320E94A0230C94882CCF93DF93EA
:10103000FB01828193810E94BA2DEC010E94FA2E5D
:10104000BE010E9473300E94FA2EFC0183AD94AD64
:101050000E949023EC010E94A023BE01DF91CF915A
:101060000C94B12CCF93DF930E94FA2EFC0183AD38
:1010700094AD0E949023EC010E94A023BE01DF9159
:10108000CF910C94E02CCF92DF92EF92FF92CF930E
:10109000DF93EB01CA80DB80EC80FD800E94A023FF
:1010A000B701A6010E940F2DCA80DB80EC80FD8075
:1010B0000E94A023B701A601DF91CF91FF90EF908E
:1010C000DF90CF900C94C023CF92DF92EF92FF92EB
:1010D000CF93DF93EB010E9449340E942E330E948C
:1010E0003C350E9452350E947E1E0E94981C0E9430
:1010F0003C350E944C35EA80FB800E945835B70190
:101100000E9489366B017C010E94A023B701A601D1
:10111000DF91CF91FF90EF90DF90CF900C94602AF9
:101120008F929F92AF92BF92CF92DF92EF92FF92F7
:101130000F931F93CF93DF93EC01FB018280938089
:10114000A480B58081E08B870E944A430E946C4353
:101150006B017C010E944A438C01C501B4010E94CD
:10116000D74C2FE632E143E85AE30E94DC4DAB0155
:10117000BC01C8010E947843C60ED71EE81EF91EA6
:10118000CC86DD86EE86FF860E94A023B501A401F1
:10119000DF91CF911F910F91FF90EF90DF90CF9053
:1011A000BF90AF909F908F900C942024FB01828180
:1011B00093810097C9F00197B1F40E947E1E0E94AE
:1011C000511D0E943C350E944E350E9449340E94B8
:1011D00057340E943C350E9450350E94A02361E0A4
:1011E00070E00C94552408950E9449340E942E33D7
:1011F0000E943C350E9452350E947E1E0E94981C1F
:101200000E943C350E944C350E94A02360E070E0B3
:101210000C9455240F931F93DB01ED91FC91EC325C
:10122000F10520F5EE0FFF1FEE0FFF1FE154FE4FFB
:101230000591159125913491F80120FF10C0A90165
:1012400055954795840F951FFC0140815181040FEE
:10125000151FD801ED91FC911F910F9109943595BF
:101260002795820F931F1F910F9109941F910F9142
:101270000895CF92DF92EF92FF92CF93DF93EC012C
:101280000E9449340E9426350E94A0230E94F42621
:1012900081E08E830E944A430E946C436B017C0173
:1012A0000E944A4340E050E060E070E40E947843CE
:1012B000C60ED71EE81EF91ECF82D886E986FA86AA
:1012C0000E94AD3740E060E00E9491380E94AD3747
:1012D00063E271E00E94C0380E94AD3740E061E0F7
:1012E0000E9491380E94AD3764E371E0DF91CF91A5
:1012F000FF90EF90DF90CF900C94C038CF92DF92A8
:10130000EF92FF92CF93DF93EC010E9494190E9419
:10131000E61B0E94A0230E94272881E08E830E9462
:101320004A430E946C436B017C010E944A4340E0A7
:1013300050E060E070E40E947843C60ED71EE81EBD
:10134000F91ECF82D886E986FA860E94AD3740E042
:1013500060E00E9491380E94AD3763E271E00E9424
:10136000C0380E94AD3740E061E00E9491380E9491
:10137000AD3764E371E0DF91CF91FF90EF90DF90A4
:10138000CF900C94C038CF92DF92EF92FF92CF9320
:10139000DF93EC010E947E1E0E94221F0E94A02368
:1013A0000E948B2581E08E830E944A430E946C43F9
:1013B0006B017C010E944A4340E050E060E070E431
:1013C0000E947843C60ED71EE81EF91ECF82D8862B
:1013D000E986FA860E94AD3740E060E00E949138CD
:1013E0000E94AD3763E271E00E94C0380E94AD37C1
:1013F00040E061E00E9491380E94AD3764E371E003
:10140000DF91CF91FF90EF90DF90CF900C94C03898
:10141000CF92DF92EF92FF92CF93DF93EC010E9485
:10142000FA2E0E9428300E94A0230E945A2981E0AF
:101430008E830E944A430E946C436B017C010E9490
:101440004A4340E050E060E070E40E947843C60EFA
:10145000D71EE81EF91ECF82D886E986FA860E943A
:10146000AD3740E060E00E9491380E94AD3763E202
:1014700071E00E94C0380E94AD3740E061E00E94F8
:1014800091380E94AD3764E371E0DF91CF91FF9016
:10149000EF90DF90CF900C94C038CF92DF92EF9214
:1014A000FF92CF93DF93EC0180911E02811107C060
:1014B00086E292E00E94AA3081E080931E0286E2DA
:1014C00092E00E945F320E94A0230E94262C81E0BD
:1014D0008E830E944A430E946C436B017C010E94F0
:1014E0004A4340E050E060E070E40E947843C60E5A
:1014F000D71EE81EF91ECF82D886E986FA860E949A
:10150000AD3740E060E00E9491380E94AD3763E261
:1015100071E00E94C0380E94AD3740E061E00E9457
:1015200091380E94AD3764E371E0DF91CF91FF9075
:10153000EF90DF90CF900C94C0388F929F92AF9233
:10154000BF92CF92DF92EF92FF920F931F93CF93B0
:10155000DF93CDB7DEB72B970FB6F894DEBF0FBE83
:10156000CDBF8C017B010E943C350E945435F701B0
:10157000E280F3800E949419B7010E94211A4B0166
:101580005C010E94A023B501A4010E94502881E0C3
:10159000F80186830E944A430E946C436B017C01E0
:1015A0000E944A4340E050E060E070E40E947843CB
:1015B000C60ED71EE81EF91EF801C782D086E18646
:1015C000F2860E94FA2E0E949419FC01E080F180BC
:1015D0000E94AD370E94B538FC0196E0DE011196FD
:1015E00001900D929A95E1F70E94AD3740E060E0DE
:1015F0000E9491388701000F111F000F111F000F6B
:10160000111F0E191F09F801E456FE4FE590F490E2
:1016100082E00E94293C8B8781E00E94293C8A87D6
:10162000F801E256FE4F2591359145915491C5013F
:10163000B4010E94DC4D4B015C01F801EE55FE4FF8
:1016400084910E942A3C898789E00E94293C8887EE
:1016500084E00E94293C8F830E94AD3762EE7BE3D9
:101660000E94983BBE01695F7F4F0E942B3C65E45E
:1016700071E00E94C03866E07CE30E94983B6AE912
:101680007BE30E94983B6EEB7BE30E94983BBE019C
:10169000685F7F4F0E942B3CBE01675F7F4F0E94B7
:1016A000503CB501A4010E947E3ABE01665F7F4FA7
:1016B0000E942B3C63E471E00E94C03862EE7BE341
:1016C0000E94983BBE01655F7F4F0E942B3CB70193
:1016D0000E94C0380E94AD3740E061E00E9491381E
:1016E0000E94AD37BE016F5F7F4F0E94B7380E94E6
:1016F0003C350E9456352B960FB6F894DEBF0FBED0
:10170000CDBFDF91CF911F910F91FF90EF90DF90B0
:10171000CF90BF90AF909F908F9008958F929F929F
:10172000AF92BF92CF92DF92EF92FF920F931F93EF
:10173000CF93DF93CDB7DEB72B970FB6F894DEBF0C
:101740000FBECDBF8C017B010E943C350E945435F9
:10175000F701E280F3800E94FA2EB7010E94082F61
:101760004B015C010E94A023B501A4010E948329C2
:1017700081E0F80186830E944A430E946C436B011A
:101780007C010E944A4340E050E060E070E40E9427
:101790007843C60ED71EE81EF91EF801C782D08610
:1017A000E186F2860E94FA2EFC01E080F1800E9420
:1017B00094190E94AD370E94B538FC0196E0DE0115
:1017C000119601900D929A95E1F70E94AD3740E095
:1017D00060E00E9491380E94AD3740E061E00E94D5
:1017E00091388701000F111F000F111F000F111FEB
:1017F0000E191F09F801EE58FE4FE590F49082E0B3
:101800000E94293C8B8781E00E94293C8A87F8014D
:10181000EC58FE4F2591359145915491C501B40185
:101820000E94DC4D4B015C01F801E858FE4F8491A9
:101830000E942A3C898789E00E94293C888784E0AD
:101840000E94293C8F830E94AD3762EE7BE30E94A9
:10185000983BBE01695F7F4F0E942B3C68E471E0BA
:101860000E94C03866E07CE30E94983B6AE97BE313
:101870000E94983B6EEB7BE30E94983BBE01685F41
:101880007F4F0E942B3CBE01675F7F4F0E94503C00
:10189000B501A4010E947E3ABE01665F7F4F0E949F
:1018A0002B3C63E471E00E94C03862EE7BE30E944F
:1018B000983BBE01655F7F4F0E942B3CB7010E94A1
:1018C000C0380E94AD37BE016F5F7F4F0E94B738AE
:1018D0000E943C350E9456352B960FB6F894DEBF19
:1018E0000FBECDBFDF91CF911F910F91FF90EF9071
:1018F000DF90CF90BF90AF909F908F9008950F93FF
:101900001F93CF93DF93CDB7DEB7AB970FB6F894A5
:10191000DEBF0FBECDBF0E94AD370E94B538FC01BF
:1019200096E0DE01919601900D929A95E1F70E9462
:10193000AD3740E060E00E94913868E772E0CE0188
:1019400001960E94D8508C010E94AD37B8010E94C8
:10195000C0380E94AD3740E061E00E94913882E0DB
:101960000E94293C8FA381E00E94293C88A782E045
:101970000E94293C89A781E00E94293C8AA782E035
:101980000E94293C8BA76FE672E0CE0101960E946F
:10199000D8508C010E94AD37B8010E94C038BE01FA
:1019A000655D7F4F0E942B3C6EEB7BE30E94983B72
:1019B0004FEF50E060E070E00E948A39BE01665D42
:1019C0007F4F0E942B3C6BE471E00E94C038BE0147
:1019D000675D7F4F0E942B3C6EEB7BE30E94983B40
:1019E0004FEF50E060E070E00E948A39BE01685D10
:1019F0007F4F0E942B3C6BE471E00E94C038BE0117
:101A0000695D7F4F0E942B3C6EEB7BE30E94983B0D
:101A10004DEF50E060E070E00E948A390E94AD37DF
:101A2000BE016F5D7F4F0E94B738AB960FB6F8943A
:101A3000DEBF0FBECDBFDF91CF911F910F910895F3
:101A4000CF92DF92EF92FF92CF93DF93EC010E944F
:101A50007E3781E591E0998388831E821F821886F4
:101A600019861A861B861C861D861E861F860E9466
:101A7000AD370E947E1E0E9449340E9494190E9434
:101A8000FA2E80911E02811107C086E292E00E9428
:101A9000AA3081E080931E020E9458350E94A02344
:101AA0000E947E1E0E94981C0E943C350E944C356C
:101AB0000E94493440E050E0BA010E9490340E94F4
:101AC000FA2E60E070E00E9473300E94A023AE0105
:101AD0006AE079E00E949837CE010E947F0C7894EA
:101AE00081E08E830E944A430E946C436B017C011B
:101AF0000E944A4340E050E060E070E40E94784376
:101B0000C60ED71EE81EF91ECF82D886E986FA8651
:101B1000DF91CF91FF90EF90DF90CF9008952F92BB
:101B20003F924F925F926F927F928F929F92AF926D
:101B3000BF92CF92DF92EF92FF920F931F93CF93BA
:101B4000DF93CDB7DEB72B970FB6F894DEBF0FBE8D
:101B5000CDBFF62E29013A010E94AD370E94B5385B
:101B6000FC0196E0DE01119601900D929A95E1F745
:101B70000E94AD3740E060E00E949138F11099C0BA
:101B80000E94AD3740E061E00E949138EE2009F4F8
:101B900070C08401000F111F000F111F000F111FD3
:101BA00008191909F801EE58FE4FE590F49082E00B
:101BB0000E94293C8F8381E00E94293C8887F8019C
:101BC000EC58FE4F2591359145915491C601B501D0
:101BD0000E94DC4D4B015C01F801E858FE4F8491F6
:101BE0000E942A3C898789E00E94293C8A8784E0F8
:101BF0000E94293C8B870E94AD3762EE7BE30E94F6
:101C0000983BBE01655F7F4F0E942B3C68E471E00A
:101C10000E94C03866E07CE30E94983B6AE97BE35F
:101C20000E94983B6EEB7BE30E94983BBE01665F8F
:101C30007F4F0E942B3CBE01675F7F4F0E94503C4C
:101C4000B501A4010E947E3ABE01685F7F4F0E94E9
:101C50002B3C63E471E00E94C03862EE7BE30E949B
:101C6000983BBE01695F7F4F0E942B3CB7010E94E9
:101C7000C0380E94AD37BE016F5F7F4F0E94B738FA
:101C80002B960FB6F894DEBF0FBECDBFDF91CF917C
:101C90001F910F91FF90EF90DF90CF90BF90AF908A
:101CA0009F908F907F906F905F904F903F902F907C
:101CB0000895F801EE0FFF1FEE0FFF1FEE0FFF1F3D
:101CC000CF01801B910B8C01FC01E456FE4F259047
:101CD000349082E00E94293C8F8381E00E94293C5D
:101CE0008887F801E256FE4F259135914591549130
:101CF000C301B2010E94DC4D2B013C01F801EE55FD
:101D0000FE4F84910E942A3C898789E00E94293CE9
:101D10008A8784E00E94293C8B870E94AD3762EE5F
:101D20007BE30E94983BBE01655F7F4F0E942B3C86
:101D300065E471E00E94C03866E07CE30E94983B55
:101D40006AE97BE30E94983B6EEB7BE30E94983B41
:101D5000BE01665F7F4F0E942B3CBE01675F7F4FD5
:101D60000E94503CB301A2010E947E3ABE01685F0E
:101D70007F4F0E942B3C63E471E00E94C03862EE0A
:101D80007BE30E94983BBE01695F7F4F0E942B3C22
:101D9000B1010E94C038F4CE4F925F926F927F9251
:101DA0008F929F92AF92BF92CF92DF92EF920F935A
:101DB0001F93CF93DF93EC018B8581111FC00E948D
:101DC00094190E94FA1B0E94FA2E0E943C300E9435
:101DD0009419FC0180AD91AD892BF9F0DF91CF9181
:101DE0001F910F91EF90DF90CF90BF90AF909F9099
:101DF0008F907F906F905F904F9008950E944A431C
:101E00000E946C430C851D852E853F8560177107E8
:101E100082079307A0F21B86D2CF0E94FA2EFC0104
:101E200080AD91AD892BD1F60E9494190E945A1C65
:101E30002B013C010E94FA2E0E944B305B016C0189
:101E40008E81811113C00E94FA2EFC018080918046
:101E50000E949419FC0100811181EE24E394A301F6
:101E6000920161E0CE010E948F0DB8CF0E944A43DB
:101E70000E946C430F81188529853A856017710788
:101E80008207930720F48E818111A8CFDCCF1E82B8
:101E9000DACF2FEF8FE398E3215080409040E1F7B5
:101EA00000C0000080910602811107C08EE092E020
:101EB0000E94200D81E0809306020E945D3780E041
:101EC00090E008952F923F924F925F926F927F928F
:101ED0008F929F92AF92BF92CF92DF92EF92FF923A
:101EE0000F931F93CF93DF938C01EB01FC01E080F4
:101EF000F1806E157F050CF05FC082809380A48016
:101F0000B580A501940160857185828593850E94C5
:101F1000B74B2B013C01F801668177816E197F096F
:101F2000072E000C880B990B0E94D94C9B01AC0129
:101F3000C301B2010E94294C2B013C01CE19DF09DB
:101F4000BE01DD0F880B990B0E94D94C9B01AC019F
:101F5000C301B2010E94DC4DA50194010E94B84B5F
:101F60006B017C012CE53FE842E85FE3C501B40169
:101F70000E94DC4D8B01D82FC92F9B01482F592F70
:101F8000B601C7010E94244C87FFE8C0B8018D2F1D
:101F90009C2FDF91CF911F910F91FF90EF90DF90D9
:101FA000CF90BF90AF909F908F907F906F905F90F9
:101FB0004F903F902F900895FC01208C318C261675
:101FC00037060CF47BC0A4E0B0E00DC04C175D07F1
:101FD0000CF0C8C09C01CB01BF2DAC01421B530BC0
:101FE00042305105FCF02B2F30E06A2F70E0C90120
:101FF000860F971F95958795F82EFC01EE0FFF1F12
:10200000E80FF91FEE0FFF1FE00FF11F4081518114
:10201000C417D507DCF6A82FAC01421B530B423086
:1020200051050CF7F901EE0FFF1FE20FF31FEE0F42
:10203000FF1FE00FF11F82809380A480B580E080B5
:10204000F1809C01220F331F820F931F880F991F6D
:10205000080F191FA5019401F80162817381848121
:1020600095810E94B74B2B013C01F8016081718181
:102070006E197F09072E000C880B990B0E94D94C12
:102080009B01AC01C301B2010E94294C2B013C0110
:10209000CE19DF09BE01DD0F880B990B0E94D94CC8
:1020A0009B01AC01C301B2010E94DC4DA50194016A
:1020B0000E94B84B8B01D82FC92F68CFC28CD38C0C
:1020C000E48CF58C84889588A688B7880289138962
:1020D000A5019401C701B6010E94B74B2B013C0139
:1020E000B101601B710B072E000C880B990B0E942D
:1020F000D94C9B01AC01C301B2010E94294C2B01B8
:102100003C01C01BD10BBE01DD0F880B990B0E9457
:10211000D94C9B01AC01C301B2010E94DC4DA50169
:1021200094010E94B84B4B015C012CE53FE842E86A
:102130005FE3C701B6010E94DC4D8B01D82FC92F88
:102140009B01482F592FB401C5010E94D74D181685
:102150000CF41CCF8401DA2DCB2D18CF8601DE2D97
:10216000CF2D14CF02811381D481C5810FCF2F923F
:102170003F924F925F926F927F928F929F92AF9217
:10218000BF92CF92DF92EF92FF920F931F93CF9364
:10219000DF93CDB7DEB728970FB6F894DEBF0FBE3A
:1021A000CDBF8C016A017B01FC0182809380A480F9
:1021B000B5809A01AB01C501B4010E94D74DF80169
:1021C00018160CF074C060807180B301072C000CED
:1021D000880B990B0E94D94C69837A838B839C83EB
:1021E000F8016681778166197709072E000C880B44
:1021F000990B0E94D94C2B013C01A5019401F801D7
:1022000060857185828593850E94B74B9B01AC01E7
:10221000C301B2010E94294C2B013C01A50194018C
:10222000C701B6010E94B74B9B01AC01C301B201CB
:102230000E94DC4D29813A814B815C810E94B84B20
:102240006B017C012CE53FE842E85FE369817A811C
:102250008B819C810E94DC4D8B015C019B01AC0158
:10226000B601C7010E94244C87FD1CC18601B8013C
:10227000C7010E94494E0E949B4CCB0128960FB685
:10228000F894DEBF0FBECDBFDF91CF911F910F91AC
:10229000FF90EF90DF90CF90BF90AF909F908F9086
:1022A0007F906F905F904F903F902F900895828C19
:1022B000938CA48CB58CA7019601C501B4010E9432
:1022C000244C87FD92C0F4E0F9831D8211C0A70160
:1022D0009601C301B2010E94244C87FFE5C0FA2D8C
:1022E00045015101FD83C50188199909029754F1EF
:1022F0002D81822E912C3981232E312C5401A20C58
:10230000B31CB594A794AE82C501880F991F8A0D9E
:102310009B1D880F991FFC01E00FF11FF887EF83C9
:102320004280538064807580A7019601C301B20189
:102330000E94D74D18165CF6A982C5018819990923
:102340000297B4F6F401EE0FFF1FE80DF91DEE0F32
:10235000FF1FE00FF11F2080318042805380648096
:102360007580C501880F991F8A0D9B1D880F991FC5
:10237000080F191FF8016081718162197309072E16
:10238000000C880B990B0E94D94C4B015C01A301F6
:102390009201F80162817381848195810E94B74B1B
:1023A0009B01AC01C501B4010E94294C4B015C01A9
:1023B000A3019201C701B6010E94B74B9B01AC017A
:1023C000C501B4010E94DC4D6B017C01B101330CED
:1023D000880B990B0E94D94C9B01AC01C701B60137
:1023E0000E94B84B8B017C0142CFF801208C318CCC
:1023F0002289338938872F8344885588668877886F
:10240000B101621B730B072E000C880B990B0E9405
:10241000D94C69837A838B839C83A3019201C50184
:10242000B4010E94B74B9B01AC0169817A818B8119
:102430009C810E94294C4B015C01A3019201C701C0
:10244000B6010E94B74B9B01AC01C501B4010E94CB
:10245000DC4D6B017C01EF81F885BF01FF0F880B1C
:10246000990B0E94D94C9B01AC01C701B6010E9497
:10247000B84B6B017C01B101330C880B990B0E94A6
:10248000D94C2CE53FE842E85FE30E94DC4D8B012C
:102490005C019B01AC01B601C7010E94D74D181623
:1024A0000CF0E4CE7501E3CEEF81F8856081718197
:1024B000072E000C880B990B0E94D94C8B017C01D4
:1024C000D6CE2F923F924F925F926F927F928F92D1
:1024D0009F92AF92BF92CF92DF92EF92FF920F93B3
:1024E0001F93CF93DF938C01EB01FC01E080F1801F
:1024F0006E157F050CF05FC082809380A480B5804C
:10250000A501940160857185828593850E94B74BF2
:102510002B013C01F801668177816E197F09072E36
:10252000000C880B990B0E94D94C9B01AC01C30194
:10253000B2010E94294C2B013C01CE19DF09BE01DA
:10254000DD0F880B990B0E94D94C9B01AC01C30194
:10255000B2010E94DC4DA50194010E94B84B6B01B1
:102560007C012CE53FE842E85FE3C501B4010E942D
:10257000DC4D8B01D82FC92F9B01482F592FB60155
:10258000C7010E94244C87FFE8C0B8018D2F9C2F03
:10259000DF91CF911F910F91FF90EF90DF90CF903F
:1025A000BF90AF909F908F907F906F905F904F9073
:1025B0003F902F900895FC01208C318C2616370611
:1025C0000CF47BC0A4E0B0E00DC04C175D070CF02C
:1025D000C8C09C01CB01BF2DAC01421B530B423044
:1025E0005105FCF02B2F30E06A2F70E0C901860FF7
:1025F000971F95958795F82EFC01EE0FFF1FE80FAA
:10260000F91FEE0FFF1FE00FF11F40815181C4172A
:10261000D507DCF6A82FAC01421B530B4230510505
:102620000CF7F901EE0FFF1FE20FF31FEE0FFF1F74
:10263000E00FF11F82809380A480B580E080F1805C
:102640009C01220F331F820F931F880F991F080FC1
:10265000191FA5019401F80162817381848195811C
:102660000E94B74B2B013C01F801608171816E190A
:102670007F09072E000C880B990B0E94D94C9B01F7
:10268000AC01C301B2010E94294C2B013C01CE19BF
:10269000DF09BE01DD0F880B990B0E94D94C9B010D
:1026A000AC01C301B2010E94DC4DA50194010E945E
:1026B000B84B8B01D82FC92F68CFC28CD38CE48C38
:1026C000F58C84889588A688B78802891389A50126
:1026D0009401C701B6010E94B74B2B013C01B10127
:1026E000601B710B072E000C880B990B0E94D94CB4
:1026F0009B01AC01C301B2010E94294C2B013C019A
:10270000C01BD10BBE01DD0F880B990B0E94D94C69
:102710009B01AC01C301B2010E94DC4DA5019401F3
:102720000E94B84B4B015C012CE53FE842E85FE3B7
:10273000C701B6010E94DC4D8B01D82FC92F9B0128
:10274000482F592FB401C5010E94D74D18160CF41B
:102750001CCF8401DA2DCB2D18CF8601DE2DCF2D95
:1027600014CF02811381D481C5810FCF2F923F9264
:102770004F925F926F927F928F929F92AF92BF9291
:10278000CF92DF92EF92FF920F931F93CF93DF933D
:10279000CDB7DEB728970FB6F894DEBF0FBECDBF1A
:1027A0008C016A017B01FC0182809380A480B5804A
:1027B0009A01AB01C501B4010E94D74DF80118166A
:1027C0000CF074C060807180B301072C000C880B82
:1027D000990B0E94D94C69837A838B839C83F8017F
:1027E0006681778166197709072E000C880B990B93
:1027F0000E94D94C2B013C01A5019401F801608590
:102800007185828593850E94B74B9B01AC01C30102
:10281000B2010E94294C2B013C01A5019401C70182
:10282000B6010E94B74B9B01AC01C301B2010E94EB
:10283000DC4D29813A814B815C810E94B84B6B0150
:102840007C012CE53FE842E85FE369817A818B8176
:102850009C810E94DC4D8B015C019B01AC01B601A7
:10286000C7010E94244C87FD1CC18601B801C70125
:102870000E94494E0E949B4CCB0128960FB6F894BB
:10288000DEBF0FBECDBFDF91CF911F910F91FF90A3
:10289000EF90DF90CF90BF90AF909F908F907F9000
:1028A0006F905F904F903F902F900895828C938C03
:1028B000A48CB58CA7019601C501B4010E94244CDB
:1028C00087FD92C0F4E0F9831D8211C0A701960133
:1028D000C301B2010E94244C87FFE5C0FA2D4501D7
:1028E0005101FD83C50188199909029754F12D8181
:1028F000822E912C3981232E312C5401A20CB31C31
:10290000B594A794AE82C501880F991F8A0D9B1DAF
:10291000880F991FFC01E00FF11FF887EF834280B9
:10292000538064807580A7019601C301B2010E94A3
:10293000D74D18165CF6A982C50188199909029726
:10294000B4F6F401EE0FFF1FE80DF91DEE0FFF1FA7
:10295000E00FF11F208031804280538064807580B9
:10296000C501880F991F8A0D9B1D880F991F080F9D
:10297000191FF8016081718162197309072E000C1B
:10298000880B990B0E94D94C4B015C01A301920169
:10299000F80162817381848195810E94B74B9B010C
:1029A000AC01C501B4010E94294C4B015C01A3019B
:1029B0009201C701B6010E94B74B9B01AC01C50152
:1029C000B4010E94DC4D6B017C01B101330C880B1A
:1029D000990B0E94D94C9B01AC01C701B6010E9422
:1029E000B84B8B017C0142CFF801208C318C2289BD
:1029F000338938872F834488558866887788B10162
:102A0000621B730B072E000C880B990B0E94D94C8C
:102A100069837A838B839C83A3019201C501B401EE
:102A20000E94B74B9B01AC0169817A818B819C81AB
:102A30000E94294C4B015C01A3019201C701B60120
:102A40000E94B74B9B01AC01C501B4010E94DC4D53
:102A50006B017C01EF81F885BF01FF0F880B990B9B
:102A60000E94D94C9B01AC01C701B6010E94B84B32
:102A70006B017C01B101330C880B990B0E94D94C7E
:102A80002CE53FE842E85FE30E94DC4D8B015C01EE
:102A90009B01AC01B601C7010E94D74D18160CF07E
:102AA000E4CE7501E3CEEF81F88560817181072E58
:102AB000000C880B990B0E94D94C8B017C01D6CE5F
:102AC0002F923F924F925F926F927F928F929F923E
:102AD000AF92BF92CF92DF92EF92FF921F93CF936C
:102AE000DF93CDB7DEB72C970FB6F894DEBF0FBEDD
:102AF000CDBF1C016A017B01DC018D909D90AD90E2
:102B0000BC901397481559056A057B050CF075C0F4
:102B100014962D913D914D915C91179729833A839D
:102B20004B835C831C966D917D918D919C911F9739
:102B30000E94B74B2B013C01F101608571858285B4
:102B40009385681979098A099B090E94D94C9B01D0
:102B5000AC01C301B2010E94294C2B013C01C70109
:102B6000B601681979098A099B090E94D94C9B0111
:102B7000AC01C301B2010E94DC4D29813A814B8135
:102B80005C810E94B84B762EC72ED82EE92E2CE5FC
:102B90003FE842E85FE369817A818B819C810E94F2
:102BA000DC4DF62E172F5C01262F372FAC01672D39
:102BB0007C2D8D2D9E2D0E94244C87FD2FC1F72C3E
:102BC0001C2D6F2D712F8D2D9E2D2C960FB6F894E8
:102BD000DEBF0FBECDBFDF91CF911F91FF90EF9071
:102BE000DF90CF90BF90AF909F908F907F906F902D
:102BF0005F904F903F902F900895DC0190964D90FC
:102C00005D906D907C909397441655066606770606
:102C10000CF491C014E0B12C0FC04C155D056E058D
:102C20007F050CF001C19C01CD01BA2CAC01421B07
:102C3000530B423051051CF12B2D30E0A12FB0E099
:102C4000C9018A0F9B1F95958795A82EFC01EE0F51
:102C5000FF1FEE0FFF1FEE0FFF1FE20DF31D408160
:102C6000518162817381C416D506E606F706ACF67B
:102C7000182FAC01421B530B42305105ECF6220FCA
:102C8000331F220F331F220F331FF101E20FF31FF7
:102C900084809580A680B7802081318142815381D4
:102CA00029833A834B835C83880F991F880F991F70
:102CB000880F991F280E391EA5019401D101149681
:102CC0006D917D918D919C9117970E94B74B2B012F
:102CD0003C01F101608171818281938129813A8176
:102CE0004B815C81621B730B840B950B0E94D94C4A
:102CF0009B01AC01C301B2010E94294C2B013C0194
:102D0000C701B60129813A814B815C81621B730B3B
:102D1000840B950B0E94D94C9B01AC01C301B201FD
:102D20000E94DC4DA50194010E94B84BF62E172F8E
:102D3000D82EE92E46CF94962D913D914D915C91E0
:102D4000979729833A834B835C835C968D909D9003
:102D5000AD90BC905F9758962D913D914D915C91AF
:102D60005B972D833E834F835887A501940169812A
:102D70007A818B819C810E94B74B69877A878B8788
:102D80009C87C301B2012D813E814F815885621B12
:102D9000730B840B950B0E94D94C9B01AC01698588
:102DA0007A858B859C850E94294C2B013C01C701AB
:102DB000B6012D813E814F815885621B730B840BB8
:102DC000950B0E94D94C9B01AC01C301B2010E943A
:102DD000DC4DA50194010E94B84BB62EC72ED82E0B
:102DE000E92E2CE53FE842E85FE369817A818B8137
:102DF0009C810E94DC4DF62E172F982EA92E262F8F
:102E0000372F482F592F6B2D7C2D8D2D9E2D0E94F5
:102E1000D74D181634F4D92CEA2CD3CEDA2CEB2C5F
:102E2000D0CEFB2C1C2DCDCEF4801581D680E78032
:102E3000C8CE2F923F924F925F926F927F928F9265
:102E40009F92AF92BF92CF92DF92EF92FF921F9329
:102E5000CF93DF93CDB7DEB72C970FB6F894DEBFD4
:102E60000FBECDBF1C016A017B01DC018D909D90DE
:102E7000AD90BC901397481559056A057B050CF079
:102E800075C014962D913D914D915C9117972983B2
:102E90003A834B835C831C966D917D918D919C91BF
:102EA0001F970E94B74B2B013C01F1016085718592
:102EB00082859385681979098A099B090E94D94CF2
:102EC0009B01AC01C301B2010E94294C2B013C01C2
:102ED000C701B601681979098A099B090E94D94C72
:102EE0009B01AC01C301B2010E94DC4D29813A81F2
:102EF0004B815C810E94B84B762EC72ED82EE92ECE
:102F00002CE53FE842E85FE369817A818B819C810F
:102F10000E94DC4DF62E172F5C01262F372FAC01B7
:102F2000672D7C2D8D2D9E2D0E94244C87FD2FC159
:102F3000F72C1C2D6F2D712F8D2D9E2D2C960FB6DD
:102F4000F894DEBF0FBECDBFDF91CF911F91FF90F0
:102F5000EF90DF90CF90BF90AF909F908F907F9039
:102F60006F905F904F903F902F900895DC01909666
:102F70004D905D906D907C90939744165506660633
:102F800077060CF491C014E0B12C0FC04C155D0510
:102F90006E057F050CF001C19C01CD01BA2CAC017E
:102FA000421B530B423051051CF12B2D30E0A12F59
:102FB000B0E0C9018A0F9B1F95958795A82EFC014B
:102FC000EE0FFF1FEE0FFF1FEE0FFF1FE20DF31DB1
:102FD0004081518162817381C416D506E606F706E9
:102FE000ACF6182FAC01421B530B42305105ECF6E6
:102FF000220F331F220F331F220F331FF101E20F65
:10300000F31F84809580A680B78020813181428122
:10301000538129833A834B835C83880F991F880FE0
:10302000991F880F991F280E391EA5019401D101FF
:1030300014966D917D918D919C9117970E94B74B3D
:103040002B013C01F1016081718182819381298191
:103050003A814B815C81621B730B840B950B0E9440
:10306000D94C9B01AC01C301B2010E94294C2B0138
:103070003C01C701B60129813A814B815C81621B09
:10308000730B840B950B0E94D94C9B01AC01C301BF
:10309000B2010E94DC4DA50194010E94B84BF62EAE
:1030A000172FD82EE92E46CF94962D913D914D9114
:1030B0005C91979729833A834B835C835C968D90D0
:1030C0009D90AD90BC905F9758962D913D914D91FC
:1030D0005C915B972D833E834F835887A5019401B4
:1030E00069817A818B819C810E94B74B69877A873D
:1030F0008B879C87C301B2012D813E814F8158850A
:10310000621B730B840B950B0E94D94C9B01AC0185
:1031100069857A858B859C850E94294C2B013C0111
:10312000C701B6012D813E814F815885621B730B0B
:10313000840B950B0E94D94C9B01AC01C301B201D9
:103140000E94DC4DA50194010E94B84BB62EC72EFB
:10315000D82EE92E2CE53FE842E85FE369817A81C9
:103160008B819C810E94DC4DF62E172F982EA92E64
:10317000262F372F482F592F6B2D7C2D8D2D9E2DCF
:103180000E94D74D181634F4D92CEA2CD3CEDA2C61
:10319000EB2CD0CEFB2C1C2DCDCEF4801581D6800F
:1031A000E780C8CE0895549A559808955C9808957C
:1031B0005C9A0895089589B185FB882780F991E08C
:1031C000892708958530910540F4FC01EE0FFF1F1B
:1031D000EE55FD4F859194910895E2EAF2E08591D4
:1031E000949108954F925F926F927F928F929F92E7
:1031F000AF92BF92EF92FF920F931F93CF93DF9303
:10320000EC018B01FC01619371937F01CB010E9462
:10321000642D5C010E94892DA701B5010E946642C0
:10322000889709F466C0F801EE0FFF1FEE0FFF1F2D
:10323000E757FD4F85909590A590B490C501B401D6
:10324000905823E3422E542C23EF622E77247A9455
:103250004A825B826C827D826E837F8388879987B6
:1032600031EE432E3AE7532E34EF632E77247A94CF
:103270004A865B866C867D8626E636E646E65FE312
:103280000E94DC4D6E877F87888B998B1A8A1B8AF8
:103290001C8A1D8A1E8A1F8A188E198E8FE195E856
:1032A000ABE0B0E08A8F9B8FAC8FBD8F26E636E611
:1032B00046E65FE3C501B4010E94DC4D6E8F7F8F4F
:1032C00088A399A38DEC9CECACE0B0E08AA39BA30F
:1032D000ACA3BDA38EA29FA2A8A6B9A688819981FE
:1032E0000E94642D5C010E94892DA701B5010E94F6
:1032F000CE42AA96CE010E94A93EF801E356FD4FA8
:103300006491807F682BCE01DF91CF911F910F9147
:10331000FF90EF90BF90AF909F908F907F906F90B5
:103320005F904F900C948C3E80915302811186C027
:1033300010925D0210925E0210925F021092600283
:103340001092610210926202109263021092640263
:103350001092650210926602109267021092680243
:103360001092690210926A0210926B0210926C0223
:1033700010926D0210926E0210926F021092700203
:1033800010927102109272021092730210927402E3
:1033900010927502109276021092770210927802C3
:1033A0001092790210927A0210927B0210927C02A3
:1033B00010927D0210927E0210927F021092800283
:1033C0001092810210928202109283021092840263
:1033D00060E085E892E00E94893E86E892E00E94E3
:1033E00000408CE891E0909387028093860286E803
:1033F00092E00E941B4060E170E089E892E00E9448
:10340000074785E892E00E941E3F682F607F85E8AD
:1034100092E00E944A3F85E892E00E94D53E682FE4
:10342000607F85E892E00E94013F62E070E08BE5FA
:1034300092E00E94F21881E0809353028BE592E0C3
:1034400008954F925F926F927F92AF92BF92CF9208
:10345000DF92EF92FF920F931F93CF93DF93CDB73D
:10346000DEB727970FB6F894DEBF0FBECDBF5C0165
:10347000613021E0720710F060E071E0CE0101964A
:103480000E9488472D813E818B819C8128173907B6
:1034900009F44BC08501055D1F4F0E94D136FC0128
:1034A000C080D1800D2C000CEE08FF083601552499
:1034B00044240E94D136FC01C280D3800D2C000C24
:1034C000EE08FF08FE2CED2CDC2CCC24C428D528DB
:1034D000E628F7280E94D136FC0184819581092EC7
:1034E000000CAA0BBB0B8C299D29AE29BF2960E0DB
:1034F0000097A340B10508F443C0C8010E94C3402F
:103500006B017C0144275527BA014C195D096E09EE
:103510007F09CE0101960E94A2472B813C818D81BB
:103520009E812817390709F0B8CFCE0101960E9475
:10353000BE470E94494E0E949B4CAB01BC01C50195
:1035400002960E9460156B017C01CE0101960E94DB
:103550009D47C701B60127960FB6F894DEBF0FBE90
:10356000CDBFDF91CF911F910F91FF90EF90DF9032
:10357000CF90BF90AF907F906F905F904F900895E5
:10358000C8010E94C340AB01BC01CE0101960E945C
:10359000A2472D813E818B819C812817390709F034
:1035A0007CCFC3CFCF92DF92EF92FF920F931F9306
:1035B000CF93DF93EC01E881F981EE0FFF1FEE0F4F
:1035C000FF1FE757FD4FC590D590E590F490C701D8
:1035D000B601905803E313E323EF3FEF0A831B8305
:1035E0002C833D836E837F838887998701EE1AE75A
:1035F00024EF3FEF0A871B872C873D8726E636E6B8
:1036000046E65FE30E94DC4D6E877F87888B998B4F
:103610001A8A1B8A1C8A1D8A1E8A1F8A188E198E76
:103620008FE195E8ABE0B0E08A8F9B8FAC8FBD8FC8
:1036300026E636E646E65FE3C701B6010E94DC4DAA
:103640006E8F7F8F88A399A38DEC9CECACE0B0E0EB
:103650008AA39BA3ACA3BDA3CEA2DFA2E8A6F9A632
:10366000DF91CF911F910F91FF90EF90DF90CF905E
:1036700008954F925F926F927F928F929F92AF9236
:10368000BF92CF92DF92EF92FF920F931F93CF934F
:10369000DF93CDB7DEB72C970FB6F894DEBF0FBE21
:1036A000CDBF5C014B0129013A0160E870E0CE0119
:1036B00001960E9407478B859C85892B09F455C08C
:1036C0008501055D1F4F14C0C8010E94C3406B01F6
:1036D0007C0144275527BA014C195D096E097F0901
:1036E000CE0101960E9423478B859C85892BE9F1A9
:1036F0000E94D136FC01C080D1800D2C000CEE0858
:10370000FF087601DD24CC240E94D136FC018281A1
:103710009381092E000CAA0BBB0BBA2FA92F982F4F
:103720008827C82AD92AEA2AFB2A0E94D136FC0116
:1037300084819581092E000CAA0BBB0B8C299D2935
:10374000AE29BF2960E00097A340B10508F0BCCFC7
:10375000C8010E94C340AB01BC01CE0101960E948A
:1037600023478B859C85892B19F6CE0101960E94F3
:103770005E470E94494E9924880C991C880C991C1C
:10378000880C991CA80CB91C0E949B4CF501628303
:1037900073838483958346825782608671862C96D4
:1037A0000FB6F894DEBF0FBECDBFDF91CF911F9152
:1037B0000F91FF90EF90DF90CF90BF90AF909F90D0
:1037C0008F907F906F905F904F9008950F931F930D
:1037D000CF93DF93EC01899199910E94642D8C0124
:1037E0000E94892DAE01B801DF91CF911F910F91F9
:1037F0000C94CE428F929F92AF92BF92CF92DF9263
:10380000EF92FF920F931F93CF93DF93EC010E94EF
:10381000D136FC01C080D1800D2C000CEE08FF08D1
:103820005601992488240E94D136FC01C280D3809D
:103830000D2C000CEE08FF08FE2CED2CDC2CCC240B
:10384000C828D928EA28FB280E94D136FC018481A7
:103850009581092E000CAA0BBB0B8C299D29AE2942
:10386000BF2960E00097A340B105E8F0CE018B9638
:103870000E94C3408B019C0144275527BA01401B7D
:10388000510B620B730BCE018E96DF91CF911F917E
:103890000F91FF90EF90DF90CF90BF90AF909F90EF
:1038A0008F900C942347CE018B960E94C340AB01AE
:1038B000BC01E9CFCF92DF92EF92FF920F931F935B
:1038C000CF93DF938C01EC01AE96CE010E945E4750
:1038D0000E94494E0E949B4CAB01BC01C80102965C
:1038E0000E9460156B017C01CE010E941547C70143
:1038F000B601DF91CF911F910F91FF90EF90DF9074
:10390000CF9008955F9808955F9A0895579A089503
:103910008530910540F4FC01EE0FFF1FEB53FD4F86
:10392000859194910895E5ECF2E085919491089544
:103930008F929F92AF92BF92CF92DF92EF92FF92BF
:103940000F931F93CF93DF93EC0181E08AA77E0151
:1039500084E2E80EF11CC7010E94A93E682F6F7E29
:10396000C7010E948C3E0C811D816E0186E0C80E4D
:10397000D11CC8010E94442D5C010E94892DA60122
:10398000B5010E9466424E9709F44DC0F801EE0F52
:10399000FF1FEE0FFF1FE455FD4F85909590A590FA
:1039A000B490C501B40190582BEB33EF3F832E83C5
:1039B000688779878A879B8725EF34EF3D872C8737
:1039C00026E636E646E65FE30E94DC4D6E877F879B
:1039D000888B998B1B8A1A8A1C8A1D8A1E8A1F8AC9
:1039E0008BE09BE0998F888F26E636E646E65FE31C
:1039F000C501B4010E94DC4D6A8F7B8F8C8F9D8F37
:103A000085E49CE09F8F8E8F88A299A2AAA2BBA278
:103A10008C819D810E94442D5C010E94892DA6010C
:103A2000B5010E94CE42C7010E94A93EF801E054B0
:103A3000FD4F6491807F682BC7010E948C3E8AA550
:103A400081110DC0DF91CF911F910F91FF90EF90E9
:103A5000DF90CF90BF90AF909F908F900895488156
:103A600059816A817B81C6010E94B7108C01BC011B
:103A7000C6010E94620F688379838A839B83B801A1
:103A80007058CE018596DF91CF911F910F91FF90D5
:103A9000EF90DF90CF90BF90AF909F908F900C945D
:103AA000AF3FFC0112A608958F929F92AF92BF92F2
:103AB000CF92DF92EF92FF920F931F93CF93DF93FA
:103AC000EC018B017D836C837C0186E0E80EF11CA8
:103AD000CB010E94442D6C010E94892DA701B601E3
:103AE0000E9466424E9709F44DC0F801EE0FFF1F89
:103AF000EE0FFF1FE455FD4F85909590A590B49073
:103B0000C501B40190582BEB33EF3F832E836887B8
:103B100079878A879B8725EF34EF3D872C8726E6B8
:103B200036E646E65FE30E94DC4D6E877F87888B32
:103B3000998B1B8A1A8A1C8A1D8A1E8A1F8A8BE00F
:103B40009BE0998F888F26E636E646E65FE3C5015F
:103B5000B4010E94DC4D6A8F7B8F8C8F9D8F85E432
:103B60009CE09F8F8E8F88A299A2AAA2BBA28C8173
:103B70009D810E94442D6C010E94892DA701B601F0
:103B80000E94CE426E0184E2C80ED11CC6010E9482
:103B9000A93EF801E054FD4F6491807F682BC60177
:103BA0000E948C3E8AA581110DC0DF91CF911F919B
:103BB0000F91FF90EF90DF90CF90BF90AF909F90CC
:103BC0008F900895488159816A817B81C7010E9445
:103BD000B7108C01BC01C7010E94620F6883798312
:103BE0008A839B83B8017058CE018596DF91CF916F
:103BF0001F910F91FF90EF90DF90CF90BF90AF900B
:103C00009F908F900C94AF3FCF92DF92EF92FF92F4
:103C10000F931F93CF93DF93EC01188219821A82BE
:103C20001B8282E090E09D838C836E0186E0C80E4B
:103C3000D11C1F821E82188619861A861B861D8635
:103C40001C861E861F86188A198A1B8A1A8A1C8A55
:103C50001D8A1E8A1F8A198E188E1A8E1B8E1C8E24
:103C60001D8E1F8E1E8E18A219A21AA21BA28E01D3
:103C70000C5D1F4F60E0C8010E94893E7E0185E215
:103C8000E80EF11CC7010E946A3F8EE991E09EA3F5
:103C90008DA3C7010E94873F1AA6C8010E941E3F3C
:103CA000682F607CC8010E944A3FC8010E94D53E2F
:103CB000682F607CC8010E94013F62E070E0CE0185
:103CC0000E94541D40E050E0BA01C6010E94B710A6
:103CD0008C01BC01C6010E94620F688379838A83CC
:103CE0009B83B8017058C701DF91CF911F910F914D
:103CF000FF90EF90DF90CF900C94AF3F80919502B2
:103D0000811107C08DE992E00E94041E81E080933A
:103D100095028DE992E00895EF92FF920F931F9321
:103D2000CF93DF938C017C0186E0E80EF11CC70184
:103D30000E94B710EC01BC01C7010E94620FF8019C
:103D40006083718382839383BE017058C801859616
:103D5000DF91CF911F910F91FF90EF900C94AF3FA7
:103D6000CF92DF92EF92FF92CF93DF93EC01EC8141
:103D7000FD81EE0FFF1FEE0FFF1FE455FD4FC590B5
:103D8000D590E590F490C701B60190582BEB33EF36
:103D90003F832E83688779878A879B8725EF34EF57
:103DA0003D872C8726E636E646E65FE30E94DC4D3B
:103DB0006E877F87888B998B1B8A1A8A1C8A1D8A3B
:103DC0001E8A1F8A8BE09BE0998F888F26E636E655
:103DD00046E65FE3C701B6010E94DC4D6A8F7B8F28
:103DE0008C8F9D8F85E49CE09F8F8E8FC8A2D9A277
:103DF000EAA2FBA2DF91CF91FF90EF90DF90CF90EE
:103E000008957727FB01EE0FFF1FE60FF71FEE0F58
:103E1000FF1FE80FF91F66817781705885960C9413
:103E2000AF3FFB01FF27BF01660F771F6E0F7F1F9C
:103E3000660F771F860F971FFC0120873187428707
:103E4000538708950F931F93CF93DF93EC018C81D9
:103E50009D810E94442D8C010E94892DAE014A5FF4
:103E60005F4FB801DF91CF911F910F910C94CE421B
:103E7000089521E030E0FC0130AF27ABBC01695C64
:103E80007F4F0C949E374430510508F4089528E084
:103E900030E0FC0130AF27ABBC01695C7F4F0C9474
:103EA0009E374430510508F408952EE030E0FC01BF
:103EB00030AF27ABBC01695C7F4F0C949E37443018
:103EC000510508F4089523E130E0FC0130AF27AB41
:103ED000BC01695C7F4F0C949E374430510508F457
:103EE000089528E130E0FC0130AF27ABBC01695CEC
:103EF0007F4F0C949E374430510508F408952AE111
:103F000030E0FC0130AF27ABBC01695C7F4F0C9403
:103F10009E374430510508F408952BE130E0FC0150
:103F200030AF27ABBC01695C7F4F0C949E374430A7
:103F3000510508F408952CE130E0FC0130AF27ABC7
:103F4000BC01695C7F4F0C949E374430510508F4E6
:103F500008952DE130E0FC0130AF27ABBC01695C76
:103F60007F4F0C949E374430510508F4089521E2A8
:103F700030E0FC0130AF27ABBC01695C7F4F0C9493
:103F80009E374430510508F4089522E230E0FC01E8
:103F900030AF27ABBC01695C7F4F0C949E37443037
:103FA000510508F4089526E230E0FC0130AF27AB5C
:103FB000BC01695C7F4F0C949E374430510508F476
:103FC000089528E230E0FC0130AF27ABBC01695C0A
:103FD0007F4F0C949E374430510508F408952AE22F
:103FE00030E0FC0130AF27ABBC01695C7F4F0C9423
:103FF0009E370F931F93FB01A081B1812B2F3A2F86
:104000002C32310530F5EB2FFA2FEE0FFF1FEE0F9C
:10401000FF1FE153FD4F0591159125913491F80152
:1040200020FF10C0F901F595E7958E0F9F1FDC0169
:10403000ED91FC91E00FF11F0190F081E02D1F91B7
:104040000F91099435952795820F931F1F910F911A
:1040500009941F910F91089548305105C8F0DB0174
:104060001596EC9115971496FC91E230F10588F0C5
:10407000E9EAF3E02591349143E050E0FC0150AFD0
:1040800047AB32AF21AFBC01695C7F4F0C949E37C8
:104090000895EE0FFF1FE755FC4FECCF4830510558
:1040A000F0F0DB011596EC9115971496FC91E53034
:1040B000F10580F0EFE9F3E02591349144E050E020
:1040C000FC0150AF47AB32AF21AFBC01695C7F4F01
:1040D0000C949E37EE0FFF1FE156FC4FEDCF089575
:1040E0004830510578F0FB012481358145E050E0EE
:1040F000FC0150AF47AB31AF22AFBC01695C7F4FD1
:104100000C949E3708954830510578F0FB012481C6
:10411000358146E050E0FC0150AF47AB31AF22AFF4
:10412000BC01695C7F4F0C949E370895483051055F
:10413000C8F0DB011596EC9115971496FC91E230CE
:10414000F10588F0EBE9F3E0259134914AE050E085
:10415000FC0150AF47AB32AF21AFBC01695C7F4F70
:104160000C949E370895EE0FFF1FE556FC4FECCFE1
:104170004830510578F0FB01248135814BE050E057
:10418000FC0150AF47AB31AF22AFBC01695C7F4F40
:104190000C949E3708954830510578F0FB01248136
:1041A00035814CE050E0FC0150AF47AB31AF22AF5E
:1041B000BC01695C7F4F0C949E37089548305105CF
:1041C000F0F0DB011596EC9115971496FC91E53013
:1041D000F10580F0E1E9F3E02591349140E150E010
:1041E000FC0150AF47AB32AF21AFBC01695C7F4FE0
:1041F0000C949E37EE0FFF1FEF56FC4FEDCF089546
:104200004830510578F0FB012481358141E150E0CF
:10421000FC0150AF47AB31AF22AFBC01695C7F4FAF
:104220000C949E3708954830510578F0FB012481A5
:10423000358144E150E0FC0150AF47AB31AF22AFD4
:10424000BC01695C7F4F0C949E370895483051053E
:10425000F0F0DB011596EC9115971496FC91E63081
:10426000F10580F0E5E8F3E02591349145E150E077
:10427000FC0150AF47AB32AF21AFBC01695C7F4F4F
:104280000C949E37EE0FFF1FEB57FC4FEDCF0895B8
:104290004830510578F0FB012481358146E150E03A
:1042A000FC0150AF47AB31AF22AFBC01695C7F4F1F
:1042B0000C949E3708954830510578F0FB01248115
:1042C000358149E150E0FC0150AF47AB31AF22AF3F
:1042D000BC01695C7F4F0C949E37089548305105AE
:1042E00078F0FB01248135814EE150E0FC0150AFB4
:1042F00047AB31AF22AFBC01695C7F4F0C949E3756
:1043000008954830510580F0E3E8F3E025913491B9
:1043100043E250E0FC0150AF47AB32AF21AFBC01EC
:10432000695C7F4F0C949E3708954830510578F0B2
:10433000FB012481358144E250E0FC0150AF47ABE2
:1043400031AF22AFBC01695C7F4F0C949E3708955A
:104350004830510578F0FB012481358147E250E077
:10436000FC0150AF47AB31AF22AFBC01695C7F4F5E
:104370000C949E37089548305105C8F0DB0115961E
:10438000EC9115971496FC91E230F10588F0EFE777
:10439000F3E02591349149E250E0FC0150AF47AB86
:1043A00032AF21AFBC01695C7F4F0C949E370895FA
:1043B000EE0FFF1FE158FC4FECCFFB0148305105D9
:1043C00090F0248135814681578162E070E0FC01E4
:1043D00070AF67AB51AF42AF33AF24AFBC01695C84
:1043E0007F4F0C949E370895FB0148305105A0F093
:1043F00047815681658174812BE230E0FC0130AF4A
:1044000027AB6627772741AF52AF63AF74AFBC01CC
:10441000695C7F4F0C949E370895FB014C30510529
:10442000D0F044815581B385A2853185208567E030
:1044300070E0FC0170AF67AB51AF42AF4B2F5A2F0A
:10444000632F722F43AF54AF65AF76AFBC01695C89
:104450007F4F0C949E370895FB0148305105B0F012
:10446000B781A6813581248149E050E0FC0150AF3D
:1044700047AB4B2F5A2F632F722F41AF52AF63AF11
:1044800074AFBC01695C7F4F0C949E370895FB01AB
:104490004C305105D0F044815581B385A2853185DA
:1044A00020856DE070E0FC0170AF67AB51AF42AFAB
:1044B0004B2F5A2F632F722F43AF54AF65AF76AF98
:1044C000BC01695C7F4F0C949E370895FB01483016
:1044D0005105B0F0B781A681358124814FE050E0CD
:1044E000FC0150AF47AB4B2F5A2F632F722F41AFB8
:1044F00052AF63AF74AFBC01695C7F4F0C949E37C1
:104500000895FB014C305105D0F044815581B385AD
:10451000A2853185208562E170E0FC0170AF67AB58
:1045200051AF42AF4B2F5A2F632F722F43AF54AF6F
:1045300065AF76AFBC01695C7F4F0C949E370895E0
:10454000FB014C305105D0F044815581B385A285E3
:104550003185208567E170E0FC0170AF67AB51AF3A
:1045600042AF4B2F5A2F632F722F43AF54AF65AF1B
:1045700076AFBC01695C7F4F0C949E370895FB01B8
:104580004C305105D0F044815581B385A2853185E9
:10459000208565E270E0FC0170AF67AB51AF42AFC0
:1045A0004B2F5A2F632F722F43AF54AF65AF76AFA7
:1045B000BC01695C7F4F0C949E37089548305105CB
:1045C00078F0FB01248135814FE150E0FC0150AFD0
:1045D00047AB31AF22AFBC01695C7F4F0C949E3773
:1045E0000895FB014830510590F0448155812681A2
:1045F000378160E270E0FC0170AF67AB51AF42AF52
:1046000033AF24AFBC01695C7F4F0C949E37089593
:10461000AF92BF92CF92DF92EF92FF920F931F93D0
:10462000CF93DF937C010E942E440E94CD445C0115
:104630000E942444EC01892B59F4DF91CF911F9102
:104640000F91FF90EF90DF90CF90BF90AF900895C3
:10465000670186E0C80ED11C85015701EEE0AE0E61
:10466000B11C05C0C6010E94D73D219731F3F80166
:1046700061918F01C6010E94EB3DF70180A988235B
:10468000A1F3408551854430510560F3B501C70160
:104690000E94F91FE7CF8530910540F4FC01EE0F31
:1046A000FF1FE156FC4F859194910895EFE9F3E0E7
:1046B0008591949108958230910528F0EBE9F3E01B
:1046C000859194910895FC01EE0FFF1FE556FC4F74
:1046D0008591949108958530910540F4FC01EE0F89
:1046E000FF1FEF56FC4F859194910895E1E9F3E0A7
:1046F0008591949108958630910540F4FC01EE0F68
:10470000FF1FEB57FC4F859194910895E5E8F3E086
:10471000859194910895E3E8F3E08591949108954B
:104720008230910528F0EFE7F3E0859194910895A8
:10473000FC01EE0FFF1FE158FC4F85919491089505
:104740008091C802811119C080ED92E00E947E37ED
:1047500088EA91E09093D1028093D00286ED92E0B6
:104760000E94C33D0E942E4440E855E260E070E0A4
:104770000E94734481E08093C80280ED92E0089526
:10478000CF92DF92EF92FF926A017B010E942E444A
:10479000B701A601FF90EF90DF90CF900C94734487
:1047A0006F927F928F929F92AF92BF92CF92DF9241
:1047B000EF92FF920F931F93CF93DF935B01922EA3
:1047C000832E742E652E06966C016CE270E00E94BA
:1047D000B23DEC01188681E089871B861A866CA69B
:1047E0007DA68EA69FA618AB09ABFAAAEBAACE01AE
:1047F0000C9620E2FC0111922A95E9F7B5010E947E
:10480000EA50CE010E94933D0D811C810E942E44EE
:10481000A801485F5F4FBE010E940445BE01C6016A
:10482000DF91CF911F910F91FF90EF90DF90CF908C
:10483000BF90AF909F908F907F906F900C94C23DEF
:10484000CF92DF92EF92FF920F931F93CF93DF935C
:10485000142F052FD62EC72E06967C0168E070E037
:104860000E94B23DEC01188682E089871B861A8679
:10487000CC86DD860E871F87CE010E94933D0D8179
:104880001C810E942E44A801485F5F4FBE010E9418
:104890000445BE01C701DF91CF911F910F91FF9099
:1048A000EF90DF90CF900C94C23DEF92FF920F9368
:1048B0001F93CF93DF93162F072F06967C0168E096
:1048C00070E00E94B23DEC01188683E089871B8668
:1048D0001A860C871D871F861E86CE010E94933D77
:1048E0000D811C810E942E44A801485F5F4FBE01CC
:1048F0000E940445BE01C701DF91CF911F910F9126
:10490000FF90EF900C94C23DEF92FF920F931F9394
:10491000CF93DF93162F072F06967C0168E070E097
:104920000E94B23DEC01188684E089871B861A86B6
:104930000C871D871F861E86CE010E94933D0D8128
:104940001C810E942E44A801485F5F4FBE010E9457
:104950000445BE01C701DF91CF911F910F91FF90D8
:10496000EF900C94C23D8F929F92AF92BF92CF92E4
:10497000DF92EF92FF920F931F93CF93DF93962EC8
:10498000872EB42EA52ED22EC32E06967C016CE067
:1049900070E00E94B23DEC01188685E089871B8695
:1049A0001A868C869D86AE86BF8698018C2D9D2D9D
:1049B000A32FB02F888B998BAA8BBB8BCE010E9423
:1049C000933D0D811C810E942E44A801485F5F4FDA
:1049D000BE010E940445BE01C701DF91CF911F9126
:1049E0000F91FF90EF90DF90CF90BF90AF909F908E
:1049F0008F900C94C23D8F929F92AF92BF92CF92B4
:104A0000DF92EF92FF920F931F93CF93DF93962E37
:104A1000872EB42EA52ED22EC32E06967C016CE0D6
:104A200070E00E94B23DEC01188686E089871B8603
:104A30001A868C869D86AE86BF8698018C2D9D2D0C
:104A4000A32FB02F888B998BAA8BBB8BCE010E9492
:104A5000933D0D811C810E942E44A801485F5F4F49
:104A6000BE010E940445BE01C701DF91CF911F9195
:104A70000F91FF90EF90DF90CF90BF90AF909F90FD
:104A80008F900C94C23D8F929F92AF92BF92CF9223
:104A9000DF92EF92FF920F931F93CF93DF93962EA7
:104AA000872EB42EA52ED22EC32E06967C016CE046
:104AB00070E00E94B23DEC01188687E089871B8672
:104AC0001A868C869D86AE86BF8698018C2D9D2D7C
:104AD000A32FB02F888B998BAA8BBB8BCE010E9402
:104AE000933D0D811C810E942E44A801485F5F4FB9
:104AF000BE010E940445BE01C701DF91CF911F9105
:104B00000F91FF90EF90DF90CF90BF90AF909F906C
:104B10008F900C94C23DEF92FF920F931F93CF930F
:104B2000DF9306967C0164E070E00E94B23DEC01E8
:104B3000188688E089871B861A86CE010E94933DDD
:104B40000D811C810E942E44A801485F5F4FBE0169
:104B50000E940445BE01C701DF91CF911F910F91C3
:104B6000FF90EF900C94C23DCF92DF92EF92FF92B4
:104B70000F931F93CF93DF93142F052FD62EC72E9D
:104B800006967C0168E070E00E94B23DEC01188658
:104B900089E089871B861A868C2D9D2DA02FB12F29
:104BA0008C879D87AE87BF87CE010E94933D0D8184
:104BB0001C810E942E44A801485F5F4FBE010E94E5
:104BC0000445BE01C701DF91CF911F910F91FF9066
:104BD000EF90DF90CF900C94C23DEF92FF920F9335
:104BE0001F93CF93DF93162F072F06967C0168E063
:104BF00070E00E94B23DEC0118868AE089871B862E
:104C00001A860C871D871F861E86CE010E94933D43
:104C10000D811C810E942E44A801485F5F4FBE0198
:104C20000E940445BE01C701DF91CF911F910F91F2
:104C3000FF90EF900C94C23D8F929F92AF92BF92E3
:104C4000CF92DF92EF92FF920F931F93CF93DF9358
:104C5000962E872EB42EA52ED22EC32E06967C011C
:104C60006CE070E00E94B23DEC0118868BE0898711
:104C70001B861A868C869D86AE86BF8698018C2DF3
:104C80009D2DA32FB02F888B998BAA8BBB8BCE0128
:104C90000E94933D0D811C810E942E44A801485F13
:104CA0005F4FBE010E940445BE01C701DF91CF9155
:104CB0001F910F91FF90EF90DF90CF90BF90AF903A
:104CC0009F908F900C94C23D8F929F92AF92BF9213
:104CD000CF92DF92EF92FF920F931F93CF93DF93C8
:104CE000962E872EB42EA52ED22EC32E06967C018C
:104CF0006CE070E00E94B23DEC0118868CE0898780
:104D00001B861A868C869D86AE86BF8698018C2D62
:104D10009D2DA32FB02F888B998BAA8BBB8BCE0197
:104D20000E94933D0D811C810E942E44A801485F82
:104D30005F4FBE010E940445BE01C701DF91CF91C4
:104D40001F910F91FF90EF90DF90CF90BF90AF90A9
:104D50009F908F900C94C23D8F929F92AF92BF9282
:104D6000CF92DF92EF92FF920F931F93CF93DF9337
:104D7000962E872EB42EA52ED22EC32E06967C01FB
:104D80006CE070E00E94B23DEC0118868DE08987EE
:104D90001B861A868C869D86AE86BF8698018C2DD2
:104DA0009D2DA32FB02F888B998BAA8BBB8BCE0107
:104DB0000E94933D0D811C810E942E44A801485FF2
:104DC0005F4FBE010E940445BE01C701DF91CF9134
:104DD0001F910F91FF90EF90DF90CF90BF90AF9019
:104DE0009F908F900C94C23DEF92FF920F931F9370
:104DF000CF93DF9306967C0164E070E00E94B23DA1
:104E0000EC0118868EE089871B861A86CE010E94E7
:104E1000933D0D811C810E942E44A801485F5F4F85
:104E2000BE010E940445BE01C701DF91CF911F91D1
:104E30000F91FF90EF900C94C23DCF92DF92EF92D2
:104E4000FF920F931F93CF93DF93142F052FD62E2E
:104E5000C72E06967C0168E070E00E94B23DEC012E
:104E600018868FE089871B861A868C2D9D2DA02F92
:104E7000B12F8C879D87AE87BF87CE010E94933D5F
:104E80000D811C810E942E44A801485F5F4FBE0126
:104E90000E940445BE01C701DF91CF911F910F9180
:104EA000FF90EF90DF90CF900C94C23DEF92FF9275
:104EB0000F931F93CF93DF93162F072F06967C0136
:104EC00068E070E00E94B23DEC01188680E18987BD
:104ED0001B861A860C871D871F861E86CE010E94A0
:104EE000933D0D811C810E942E44A801485F5F4FB5
:104EF000BE010E940445BE01C701DF91CF911F9101
:104F00000F91FF90EF900C94C23D6F927F928F9221
:104F10009F92AF92BF92CF92DF92EF92FF920F9348
:104F20001F93CF93DF93762E672EB22EA32E942E4F
:104F3000852E06966C0160E170E00E94B23DEC01A6
:104F4000188681E189871B861A866C867D861F8676
:104F50001E86888A998AAA8ABB8AA8019701852F0A
:104F6000902FA32FBE2D8C8B9D8BAE8BBF8BCE0134
:104F70000E94933D0D811C810E942E44A801485F30
:104F80005F4FBE010E940445BE01C601DF91CF9173
:104F90001F910F91FF90EF90DF90CF90BF90AF9057
:104FA0009F908F907F906F900C94C23D6F927F92F4
:104FB0008F929F92AF92BF92CF92DF92EF92FF9229
:104FC0000F931F93CF93DF93762E672EB22EA32ECF
:104FD000942E852E06966C0160E170E00E94B23D31
:104FE000EC01188682E189871B861A866C867D868D
:104FF0001F861E86888A998AAA8ABB8AA801970179
:10500000852F902FA32FBE2D8C8B9D8BAE8BBF8BAE
:10501000CE010E94933D0D811C810E942E44A80167
:10502000485F5F4FBE010E940445BE01C601DF918B
:10503000CF911F910F91FF90EF90DF90CF90BF9095
:10504000AF909F908F907F906F900C94C23DEF92A5
:10505000FF920F931F93CF93DF9306967C0164E03A
:1050600070E00E94B23DEC01188683E189871B86BF
:105070001A86CE010E94933D0D811C810E942E4410
:10508000A801485F5F4FBE010E940445BE01C701F1
:10509000DF91CF911F910F91FF90EF900C94C23D43
:1050A000CF92DF92EF92FF920F931F93CF93DF93F4
:1050B000142F052FD62EC72E06967C0168E070E0CF
:1050C0000E94B23DEC01188684E189871B861A860E
:1050D0008C2D9D2DA02FB12F8C879D87AE87BF87EC
:1050E000CE010E94933D0D811C810E942E44A80197
:1050F000485F5F4FBE010E940445BE01C701DF91BA
:10510000CF911F910F91FF90EF90DF90CF900C9473
:10511000C23DEF92FF920F931F93CF93DF93162F11
:10512000072F06967C0168E070E00E94B23DEC011A
:10513000188685E189871B861A860C871D871F863E
:105140001E86CE010E94933D0D811C810E942E443B
:10515000A801485F5F4FBE010E940445BE01C70120
:10516000DF91CF911F910F91FF90EF900C94C23D72
:105170006F927F928F929F92AF92BF92CF92DF9267
:10518000EF92FF920F931F93CF93DF93762E672EAC
:10519000B22EA32E942E852E06966C0160E170E04F
:1051A0000E94B23DEC01188686E189871B861A862B
:1051B0006C867D861F861E86888A998AAA8ABB8A03
:1051C000A8019701852F902FA32FBE2D8C8B9D8B2F
:1051D000AE8BBF8BCE010E94933D0D811C810E943E
:1051E0002E44A801485F5F4FBE010E940445BE01E6
:1051F000C601DF91CF911F910F91FF90EF90DF904B
:10520000CF90BF90AF909F908F907F906F900C94B5
:10521000C23D6F927F928F929F92AF92BF92CF9238
:10522000DF92EF92FF920F931F93CF93DF93762E2F
:10523000672EB22EA32E942E852E06966C0160E169
:1052400070E00E94B23DEC01188687E189871B86D9
:105250001A866C867D861F861E86888A998AAA8A07
:10526000BB8AA8019701852F902FA32FBE2D8C8B71
:105270009D8BAE8BBF8BCE010E94933D0D811C8117
:105280000E942E44A801485F5F4FBE010E94044562
:10529000BE01C601DF91CF911F910F91FF90EF905A
:1052A000DF90CF90BF90AF909F908F907F906F9046
:1052B0000C94C23DEF92FF920F931F93CF93DF9315
:1052C00006967C0164E070E00E94B23DEC01188615
:1052D00088E189871B861A86CE010E94933D0D8145
:1052E0001C810E942E44A801485F5F4FBE010E94AE
:1052F0000445BE01C701DF91CF911F910F91FF902F
:10530000EF900C94C23DCF92DF92EF92FF920F93F9
:105310001F93CF93DF93142F052FD62EC72E0696FB
:105320007C0168E070E00E94B23DEC01188689E1E2
:1053300089871B861A868C2D9D2DA02FB12F8C87D7
:105340009D87AE87BF87CE010E94933D0D811C8152
:105350000E942E44A801485F5F4FBE010E94044591
:10536000BE01C701DF91CF911F910F91FF90EF9088
:10537000DF90CF900C94C23DEF92FF920F931F935A
:10538000CF93DF9306967C0164E070E00E94B23D0B
:10539000EC0118868AE189871B861A86CE010E9455
:1053A000933D0D811C810E942E44A801485F5F4FF0
:1053B000BE010E940445BE01C701DF91CF911F913C
:1053C0000F91FF90EF900C94C23DEF92FF920F93DC
:1053D0001F93CF93DF9306967C0164E070E00E94F8
:1053E000B23DEC0118868BE189871B861A86CE01B7
:1053F0000E94933D0D811C810E942E44A801485FAC
:105400005F4FBE010E940445BE01C701DF91CF91ED
:105410001F910F91FF90EF900C94C23DEF92FF927D
:105420000F931F93CF93DF9306967C0164E070E0A7
:105430000E94B23DEC0118868CE189871B861A8692
:10544000CE010E94933D0D811C810E942E44A80133
:10545000485F5F4FBE010E940445BE01C701DF9156
:10546000CF911F910F91FF90EF900C94C23DEF925E
:10547000FF920F931F93CF93DF9306967C0164E016
:1054800070E00E94B23DEC0118868DE189871B8691
:105490001A86CE010E94933D0D811C810E942E44EC
:1054A000A801485F5F4FBE010E940445BE01C701CD
:1054B000DF91CF911F910F91FF90EF900C94C23D1F
:1054C000CF92DF92EF92FF920F931F93CF93DF93D0
:1054D000142F052FD62EC72E06967C0168E070E0AB
:1054E0000E94B23DEC0118868EE189871B861A86E0
:1054F0008C2D9D2DA02FB12F8C879D87AE87BF87C8
:10550000CE010E94933D0D811C810E942E44A80172
:10551000485F5F4FBE010E940445BE01C701DF9195
:10552000CF911F910F91FF90EF90DF90CF900C944F
:10553000C23DCF92DF92EF92FF920F931F93CF93D2
:10554000DF93D62EC72E142F052F06967C0168E018
:1055500070E00E94B23DEC0118868FE189871B86BE
:105560001A86CC86DD860E871F87CE010E94933D6A
:105570000D811C810E942E44A801485F5F4FBE012F
:105580000E940445BE01C701DF91CF911F910F9189
:10559000FF90EF90DF90CF900C94C23DCF92DF92BE
:1055A000EF92FF920F931F93CF93DF93D62EC72EC8
:1055B000142F052F06967C0168E070E00E94B23D32
:1055C000EC01188680E289871B861A86CC86DD86E8
:1055D0000E871F87CE010E94933D0D811C810E9482
:1055E0002E44A801485F5F4FBE010E940445BE01E2
:1055F000C701DF91CF911F910F91FF90EF90DF9046
:10560000CF900C94C23DEF92FF920F931F93CF93D4
:10561000DF9306967C0164E070E00E94B23DEC01ED
:10562000188681E289871B861A86CE010E94933DE7
:105630000D811C810E942E44A801485F5F4FBE016E
:105640000E940445BE01C701DF91CF911F910F91C8
:10565000FF90EF900C94C23DEF92FF920F931F9337
:10566000CF93DF9306967C0164E070E00E94B23D28
:10567000EC01188682E289871B861A86CE010E9479
:10568000933D0D811C810E942E44A801485F5F4F0D
:10569000BE010E940445BE01C701DF91CF911F9159
:1056A0000F91FF90EF900C94C23DEF92FF920F93F9
:1056B0001F93CF93DF93162F072F06967C0168E088
:1056C00070E00E94B23DEC01188683E289871B8658
:1056D0001A860C871D871F861E86CE010E94933D69
:1056E0000D811C810E942E44A801485F5F4FBE01BE
:1056F0000E940445BE01C701DF91CF911F910F9118
:10570000FF90EF900C94C23D6F927F928F929F9288
:10571000AF92BF92CF92DF92EF92FF920F931F93BF
:10572000CF93DF93762E672EB22EA32E942E852E46
:1057300006966C0160E170E00E94B23DEC011886B3
:1057400084E289871B861A866C867D861F861E8664
:10575000888A998AAA8ABB8AA8019701852F902FE7
:10576000A32FBE2D8C8B9D8BAE8BBF8BCE010E9449
:10577000933D0D811C810E942E44A801485F5F4F1C
:10578000BE010E940445BE01C601DF91CF911F9169
:105790000F91FF90EF90DF90CF90BF90AF909F90D0
:1057A0008F907F906F900C94C23D6F927F928F92FA
:1057B0009F92AF92BF92CF92DF92EF92FF920F93A0
:1057C0001F93CF93DF93762E672EB22EA32E942EA7
:1057D000852E06966C0160E170E00E94B23DEC01FE
:1057E000188685E289871B861A866C867D861F86C9
:1057F0001E86888A998AAA8ABB8AA8019701852F62
:10580000902FA32FBE2D8C8B9D8BAE8BBF8BCE018B
:105810000E94933D0D811C810E942E44A801485F87
:105820005F4FBE010E940445BE01C601DF91CF91CA
:105830001F910F91FF90EF90DF90CF90BF90AF90AE
:105840009F908F907F906F900C94C23DEF92FF924B
:105850000F931F93CF93DF9306967C0164E070E073
:105860000E94B23DEC01188686E289871B861A8663
:10587000CE010E94933D0D811C810E942E44A801FF
:10588000485F5F4FBE010E940445BE01C701DF9122
:10589000CF911F910F91FF90EF900C94C23DCF924A
:1058A000DF92EF92FF920F931F93CF93DF93142F0A
:1058B000052FD62EC72E06967C0168E070E00E9468
:1058C000B23DEC01188687E289871B861A868C2DEB
:1058D0009D2DA02FB12F8C879D87AE87BF87CE01CE
:1058E0000E94933D0D811C810E942E44A801485FB7
:1058F0005F4FBE010E940445BE01C701DF91CF91F9
:105900001F910F91FF90EF90DF90CF900C94C23DCC
:10591000EF92FF920F931F93CF93DF9306967C0134
:1059200064E070E00E94B23DEC01188688E289874D
:105930001B861A86CE010E94933D0D811C810E9418
:105940002E44A801485F5F4FBE010E940445BE017E
:10595000C701DF91CF911F910F91FF90EF900C94B1
:10596000C23DEF92FF920F931F93CF93DF93162FB9
:10597000072F06967C0168E070E00E94B23DEC01C2
:10598000188689E289871B861A860C871D871F86E1
:105990001E86CE010E94933D0D811C810E942E44E3
:1059A000A801485F5F4FBE010E940445BE01C701C8
:1059B000DF91CF911F910F91FF90EF900C94C23D1A
:1059C000EF92FF920F931F93CF93DF93162F072F22
:1059D00006967C0168E070E00E94B23DEC011886FA
:1059E00089E289871B861A860C871D871F861E867B
:1059F000CE010E94933D0D811C810E942E44A8017E
:105A0000485F5F4FBE010E940445BE01C701DF91A0
:105A1000CF911F910F91FF90EF900C94C23DCF92C8
:105A2000DF92EF92FF920F931F93CF93DF93142F88
:105A3000052FD62EC72E06967C0168E070E00E94E6
:105A4000B23DEC0118868BE289871B861A86CC86CC
:105A5000DD860E871F87CE010E94933D0D811C813C
:105A60000E942E44A801485F5F4FBE010E9404457A
:105A7000BE01C701DF91CF911F910F91FF90EF9071
:105A8000DF90CF900C94C23D8530910540F4FC012D
:105A9000EE0FFF1FEF50FC4F859194910895E1EFB9
:105AA000F3E08591949108958230910528F0EDEE10
:105AB000F3E0859194910895FC01EE0FFF1FE351EF
:105AC000FC4F8591949108958530910540F4FC0137
:105AD000EE0FFF1FED51FC4F859194910895E3EE79
