:100000000C94A2020C94CA020C94CA020C94CA0268
:100010000C94CA020C94CA020C94CA020C94CA0230
:100020000C94CA020C94CA020C94CA020C94CA0220
:100030000C94CA020C94CA020C94CA020C94CA0210
:100040000C9482440C94CA020C94CA020C94CA0206
:100050000C9457450C94CA020C94CA020C94CA0220
:100060000C94CA020C94CA020C94CA020C94CA02E0
:10007000A50100007A4406A50100007A4405A50107
:1000800000007A4404B2010000803F06B201000083
:10009000803F05B2010000803F04BC010024744988
:1000A00005BC010024744904CB0100007A4406CB4E
:1000B0000100007A4405CB0100007A4404CC020020
:1000C00000CE020000CD0200006B090000270300F3
:1000D0000095030000C7030000FE0300005B0C0056
:1000E000004D0400007D04000099040000CB0400D2
:1000F0000002050000A00C0000510500005E030096
:100100000081050000C5050000160C00009F0900D5
:1001100000190600003506000079060000D10B002A
:1001200000900A0000CD060000D5060000DD0600A4
:1001300000E5060000FC080000ED060000270700AF
:10014000007A07000082070000BE080000B7070021
:100150000017080000810B0000810800000408005F
:10016000008A070000A6070000462F772064657606
:100170002000492D5620536F75726365204D6574BC
:10018000657200ACC5273717B7D1386F12833A0AAA
:10019000D7233CCDCCCC3D08040201000000010077
:1001A000020003000400ACC5273717B7D1386F121F
:1001B000833A0AD7233CCDCCCC3D08040201000091
:1001C000000100020003000400D91F0000DA1F0034
:1001D00000BE230000CF200000F12000001321000A
:1001E000002621000080220000E41F00009F220062
:1001F00000392100005B2100006E210000BA2200BE
:1002000000F21F0000D922000081210000A321007C
:1002100000F422000000200000B6210000C92100E7
:1002200000EB210000132300000E200000FE21003F
:10023000001C2000002A200000382000004620007A
:10024000001122000051230000642300005420000C
:100250000062200000242200003822000032230027
:1002600000702000004B2200007E2000005E220073
:10027000008C2000000000010000000000010002CE
:100280000003000400050000000100020003000458
:100290000000000100000001000200030004000053
:1002A0000001001E001E001E001E001E001E001E7B
:1002B00000280028002800280028002800280028FE
:1002C000002800280028002000280013000C000D42
:1002D000000E000F00100011000700080009000ABE
:1002E000000B0005000600000001000200030004EE
:1002F000006F12833A0AD7233CCDCCCC3D0000805E
:100300003F000020410000C8420804020100300004
:1003100000010000000100020003000400050000CD
:100320000020410000000020410000C842002000E1
:100330000001000300030002000AD7233C0300036E
:100340000003000AD7233C0300030004000AD7235C
:100350003C0200020004006F12833A010001000415
:100360000017B7D138010001000400ACC5273701E0
:100370000001000400BD3786350300030002000AB7
:10038000D7233CCDCCCC3D0300030003000AD72388
:100390003C0000803F0300030004000AD7233C0018
:1003A0000020410200020004006F12833A00002086
:1003B0004101000100040017B7D1380000204101BD
:1003C0000001000400ACC5273700002041010001F6
:1003D000000400BD37863500002041000001000206
:1003E00000030004000500060080C0BB3D0000BC07
:1003F0003D0000C23D0000C83D000000FFFFFFFFC0
:10040000000100FF002000100008000400010203AA
:10041000454600004C4600006B460000F7460000D1
:100420008A460000174700009146000098460000E9
:100430009F460000B7460000BE460000E2460000AE
:100440006E616E00696E660000407A10F35A00A07B
:10045000724E18090010A5D4E80000E8764817008D
:1004600000E40B54020000CA9A3B000000E1F505CD
:10047000000080969800000040420F000000A08617
:1004800001000000102700000000E8030000000049
:100490006400000000000A000000000001000000ED
:1004A00000002C76D888DC674F0823DFC1DFAE5907
:1004B000E1B1B796E5E3E453C63AE651997696E89A
:1004C000E6C28426EB898C9B62ED407C6FFCEFBC1E
:1004D0009C9F40F2BAA56FA5F490055A2AF75C9349
:1004E0006B6CF9676DC11BFCE0E40D47FEF520E67F
:1004F000B500D0ED902E0300943577050080841E62
:10050000080000204E0A000000C80C333333330FBC
:10051000986E12831141EF8D2114893BE65516CF59
:10052000FEE6DB18D1844B381BF77C1D901DA4BB65
:10053000E424203284725E228100C9F124ECA1E51A
:100540003D27ED3811241FBECFEFD0E1DEBFCDBF78
:1005500012E0A0E0B1E0E0E0F6EA02C005900D9202
:10056000A235B107D9F725E0A2E5B2E001C01D929E
:10057000AF33B207E1F712E0C2EAD2E004C021973C
:10058000FE010E941650C13AD107C9F70E94BE0F62
:100590000C94FE520C94000008950895CF92DF92BF
:1005A000EF92FF920F931F93CF93DF9300D000D071
:1005B000CDB7DEB70E941638FC01C080D1800D2C6B
:1005C000000CEE08FF087601DD24CC240E941638CA
:1005D000FC0182819381092E000CAA0BBB0BBA2F60
:1005E000A92F982F8827C82AD92AEA2AFB2A0E94ED
:1005F0001638FC0124813581C901330FAA0BBB0BCE
:10060000A7019601282B392B4A2B5B2B29833A8390
:100610004B835C830E9449241DEFE12EFF24FA9452
:100620000FEF1FEF29813A814B815C8168E171E016
:100630000E9469240F900F900F900F90DF91CF913F
:100640001F910F91FF90EF90DF90CF9008950F933F
:100650001F93CF93DF93EB018A819B810E949A19AC
:100660008C010E944D1AB8010E94AA190E944D1ACD
:10067000FC01808191810E9414248C010E944924F4
:10068000B8010E941C288A819B810E94281DEC01D0
:100690000E94201FBE010E94F51D0E94201FFC0128
:1006A000848195810E94F423EC010E944924BE01BB
:1006B000DF91CF911F910F910C94F2240F931F9310
:1006C000CF93DF93EB018A819B810E94281D8C01CF
:1006D0000E94201FB8010E94F51D0E94201FFC01EE
:1006E000848195810E94F4238C010E944924B801E1
:1006F0000E94F2248A819B810E949A19EC010E9437
:100700004D1ABE010E94AA190E944D1AFC01808157
:1007100091810E941424EC010E944924BE01DF91C2
:10072000CF911F910F910C941C288F929F92AF92A2
:10073000BF92EF92FF920F931F93CF93DF93FB0132
:10074000C281D3810E94201FDD27FE01EE0FFF1F13
:10075000EC0FFD1FEE0FFF1FE80FF91F808491843F
:10076000A284B384E680F7800E9449249501840125
:10077000A701BE010E942125DF91CF911F910F910A
:10078000FF90EF90BF90AF909F908F9008958F92C1
:100790009F92AF92BF92EF92FF920F931F93CF93CE
:1007A000DF93FB01C281D381DD270E94201FBE01A0
:1007B0000E94A31F0E94201FFE01EE0FFF1FEC0FDF
:1007C000FD1FEE0FFF1FE80FF91F80849184A284A4
:1007D000B384E680F7800E94492495018401A70133
:1007E000BE010E947425DF91CF911F910F91FF9060
:1007F000EF90BF90AF909F908F9008958F929F92AF
:10080000AF92BF92CF92DF92EF92FF920F931F931E
:10081000CF93DF9300D000D0CDB7DEB7FB012481AA
:10082000358146815781C280D380DD2429833A8374
:100830004B835C830E94201F29813A814B815C811C
:10084000B6010E94B31F0E94201FF601EE0FFF1F8A
:10085000EC0DFD1DEE0FFF1FE80FF91F8084918442
:10086000A284B384E680F7800E9449249501840124
:10087000A701B6010E94C7250F900F900F900F900F
:10088000DF91CF911F910F91FF90EF90DF90CF906C
:10089000BF90AF909F908F900895CF93DF9300D03B
:1008A00000D0CDB7DEB7FB014281538164817581F1
:1008B00049835A836B837C830E94201F49815A811C
:1008C0006B817C810E942E1F0E94201FFC014081B1
:1008D00051816281738149835A836B837C830E9437
:1008E000492449815A816B817C810F900F900F9030
:1008F0000F90DF91CF910C944326CF93DF93FB01B0
:10090000828193810E943534EC010E946135BE01E1
:100910000E9448340E946135FC01848195810E94C7
:100920000424EC010E944924BE01DF91CF910C9474
:1009300087268F929F92AF92BF92EF92FF920F9372
:100940001F93CF93DF93FB01C281D3810E94613556
:10095000DD27FE01EE0FFF1FEC0FFD1FEE0FFF1F47
:10096000E80FF91F80849184A284B384E680F78025
:100970000E94492495018401A701BE010E94B62668
:10098000DF91CF911F910F91FF90EF90BF90AF90AB
:100990009F908F9008958F929F92AF92BF92EF9207
:1009A000FF920F931F93CF93DF93FB01C281D381FB
:1009B000DD270E946135BE010E941D360E9461350F
:1009C000FE01EE0FFF1FEC0FFD1FEE0FFF1FE80FE4
:1009D000F91F80849184A284B384E680F7800E940A
:1009E000492495018401A701BE010E940927DF91D6
:1009F000CF911F910F91FF90EF90BF90AF909F907C
:100A00008F9008958F929F92AF92BF92CF92DF9274
:100A1000EF92FF920F931F93CF93DF9300D000D0FC
:100A2000CDB7DEB7FB012481358146815781C28075
:100A3000D380DD2429833A834B835C830E94613514
:100A400029813A814B815C81B6010E942D360E943A
:100A50006135F601EE0FFF1FEC0DFD1DEE0FFF1FC0
:100A6000E80FF91F80849184A284B384E680F78024
:100A70000E94492495018401A701B6010E945C27C8
:100A80000F900F900F900F90DF91CF911F910F91CA
:100A9000FF90EF90DF90CF90BF90AF909F908F909E
:100AA0000895CF93DF9300D000D0CDB7DEB7FB0120
:100AB000428153816481758149835A836B837C832E
:100AC0000E94613549815A816B817C810E94A835E1
:100AD0000E946135FC0140815181628173814983AB
:100AE0005A836B837C830E94492449815A816B819C
:100AF0007C810F900F900F900F90DF91CF910C940D
:100B0000D827AF92BF92CF92DF92EF92FF920F93CE
:100B10001F93CF93DF9300D000D0CDB7DEB7FB019A
:100B2000E280F3800E944D1A5701BB24F501EE0FBD
:100B3000FF1FEE0FFF1FEE0FFF1FE80FF91FC6800C
:100B4000D780E084F18422813381448155812983D7
:100B50003A834B835C830E94492487017601298173
:100B60003A814B815C81B5010E944B280F900F9018
:100B70000F900F90DF91CF911F910F91FF90EF9009
:100B8000DF90CF90BF90AF900895AF92BF92CF9279
:100B9000DF92EF92FF920F931F93CF93DF9300D0DA
:100BA00000D0CDB7DEB7FB01248135814681578166
:100BB000A280B380BB2429833A834B835C830E9449
:100BC0004D1A29813A814B815C81B5010E94DF1B5E
:100BD0000E944D1AF501EE0FFF1FEE0FFF1FEE0FE3
:100BE000FF1FE80FF91FC680D780E084F1842281BF
:100BF00033814481558129833A834B835C830E94EE
:100C000049248701760129813A814B815C81B501B4
:100C10000E94A6280F900F900F900F90DF91CF9118
:100C20001F910F91FF90EF90DF90CF90BF90AF900A
:100C30000895CF93DF93FB01828193810E94B62EAA
:100C4000EC010E940730BE010E94D62E0E940730A0
:100C5000FC01808191810E942424EC010E9449249E
:100C6000BE01DF91CF910C946E29AF92BF92CF92CB
:100C7000DF92EF92FF920F931F93CF93DF9300D0F9
:100C800000D0CDB7DEB7FB01E280F3800E940730D1
:100C90005701BB24F501EE0FFF1FEE0FFF1FEE0FF4
:100CA000FF1FE80FF91FC680D780E084F1842281FE
:100CB00033814481558129833A834B835C830E942D
:100CC00049248701760129813A814B815C81B501F4
:100CD0000E949D290F900F900F900F90DF91CF9160
:100CE0001F910F91FF90EF90DF90CF90BF90AF904A
:100CF0000895AF92BF92CF92DF92EF92FF920F933F
:100D00001F93CF93DF9300D000D0CDB7DEB7FB01A8
:100D10002481358146815781A280B380BB242983F9
:100D20003A834B835C830E94073029813A814B814F
:100D30005C81B5010E94D7300E940730F501EE0FAB
:100D4000FF1FEE0FFF1FEE0FFF1FE80FF91FC680FA
:100D5000D780E084F18422813381448155812983C5
:100D60003A834B835C830E94492487017601298161
:100D70003A814B815C81B5010E94F8290F900F9058
:100D80000F900F90DF91CF911F910F91FF90EF90F7
:100D9000DF90CF90BF90AF9008950E94201F0E94D7
:100DA000521F0E9449240C94C02A0E9461350E945F
:100DB000CC350E9449240C94E92A0E944D1A0E94C5
:100DC000781B0E9449240C94122B0E9407300E9429
:100DD00070300E9449240C943B2BCF93DF93FB018E
:100DE000828193818130910521F18230910599F0C2
:100DF000892B19F0DF91CF9108950E941638FC01DC
:100E0000C081D1810E944924AE0160E070E0DF9191
:100E1000CF910C94A82B0E941638FC01C481D58177
:100E20000E944924AE0162E070E0DF91CF910C9402
:100E3000A82B0E941638FC01C281D3810E9449244C
:100E4000AE0161E070E0DF91CF910C94A82BCF93BD
:100E5000DF93FB0182819381C481D581813091052B
:100E6000B1F18230910501F1009759F0813091057F
:100E700099F182309105E9F0892B41F0DF91CF9112
:100E800008950E941638FC01D183C0830E94163851
:100E9000FC01C081D1810E944924AE0160E070E074
:100EA000DF91CF910C94E62B0E941638FC01D5837C
:100EB000C4830E941638FC01C481D5810E94492454
:100EC000AE0162E070E0DF91CF910C94E62B0E94BE
:100ED0001638FC01D383C2830E941638FC01C281FC
:100EE000D3810E944924AE0161E070E0DF91CF918F
:100EF0000C94E62B0E9416380E9470380E944924F8
:100F00000C94242C0E9416380E947C380E9449249C
:100F10000C944D2CCF93DF93FB01828193810E942F
:100F2000C62EEC010E940730BE010E9480310E9453
:100F30000730FC0183AD94AD0E943924EC010E947E
:100F40004924BE01DF91CF910C94F12DCF93DF9313
:100F50000E940730FC0183AD94AD0E943924EC015E
:100F60000E944924BE01DF91CF910C94202EAF92B4
:100F7000BF92CF92DF92EF92FF920F931F93CF9386
:100F8000DF9300D000D0CDB7DEB7FB01E280F38065
:100F900080919202811107C08DE592E00E94C131DB
:100FA00081E0809392025701BB24F501EE0FFF1FF1
:100FB000EE0FFF1FEE0FFF1FE35AFD4FC184D284D7
:100FC000E384F484258136814781508529833A83DF
:100FD0004B835C830E9449248701760129813A81F1
:100FE0004B815C81B5010E94A52C0F900F900F9052
:100FF0000F90DF91CF911F910F91FF90EF90DF90B5
:10100000CF90BF90AF90089580919202811107C058
:101010008DE592E00E94C13181E0809392028DE5DE
:1010200092E00E948C330E9449240C94C82DAF9208
:10103000BF92CF92DF92EF92FF920F931F93CF93C5
:10104000DF9300D000D0CDB7DEB7FB01248135811E
:1010500046815781A280B380BB248091920288236D
:1010600009F43FC0B5018DE592E00E941F338091E5
:101070009202811107C08DE592E00E94C13181E0AA
:1010800080939202F501EE0FFF1FEE0FFF1FEE0F90
:10109000FF1FE35AFD4FC184D284E384F484258189
:1010A00036814781508529833A834B835C830E9434
:1010B00049248701760129813A814B815C81B50100
:1010C0000E94002D0F900F900F900F90DF91CF9105
:1010D0001F910F91FF90EF90DF90CF90BF90AF9056
:1010E00008958DE592E029833A834B835C830E94C7
:1010F000C13181E0809392025C814B813A812981E8
:10110000B1CF0F931F93CF93DF9300D000D0CDB713
:10111000DEB78B010E9453360E946B36F801628164
:1011200073818091920281110BC08DE592E06B83F7
:101130007C830E94C13181E0809392027C816B812B
:101140008DE592E00E94F333AB01BC0149835A83E1
:101150006B837C830E94492449815A816B817C8105
:101160000E94842D0E9453360F900F900F900F9085
:10117000DF91CF911F910F910C946D360F931F93B8
:10118000CF93DF9300D0CDB7DEB7FB01828193818F
:101190000E94BC31BC0180919202882309F18DE547
:1011A00092E00E948C3280919202811107C08DE5FD
:1011B00092E00E94C13181E08093920280916002AE
:1011C000909161020E9434248C010E944924B8014C
:1011D0000F900F90DF91CF911F910F910C94762C6F
:1011E0008DE592E069837A830E94C13181E080932A
:1011F00092027A816981D3CF0F931F93CF93DF93AC
:1012000000D000D0CDB7DEB78B010E9461350E94BF
:1012100045340E9453360E9469360E94201F0E9466
:10122000381D0E9453360E946336F80102811381F3
:101230000E946F36B8010E94C737AB01BC014983D9
:101240005A836B837C830E94492449815A816B8134
:101250007C810F900F900F900F90DF91CF911F9195
:101260000F910C94642BCF92DF92EF92FF92DB01EF
:10127000ED91FC91EB32F10548F5EE0FFF1FEE0FFB
:10128000FF1FE354FF4FC590D590E590F490F60111
:10129000970135952795E0FE12C0DC01A20FB31F20
:1012A0002D913C911197F901EC0DFD1D0190F081FC
:1012B000E02DCD01FF90EF90DF90CF900994820F49
:1012C000931FFF90EF90DF90CF900994FF90EF90E5
:1012D000DF90CF900895FB01828193810097C9F040
:1012E0000197B1F40E94201F0E94F21D0E94533604
:1012F0000E9465360E9461350E946F350E94533608
:101300000E9467360E94492461E070E00C94C32477
:1013100008950E9461350E9445340E9453360E9410
:1013200069360E94201F0E94381D0E9453360E9479
:1013300063360E94492460E070E00C94C3248F92CD
:101340009F92AF92BF92CF92DF92EF92FF920F9354
:101350001F93CF93DF93CDB7DEB72B970FB6F894DB
:10136000DEBF0FBECDBF8C017B010E9453360E94B1
:101370006B36F701E280F3800E944D1AB7010E949C
:10138000DA1A4B015C010E944924B501A4010E94B4
:101390002A2981E0F80186830E94A7440E94C9445B
:1013A0006B017C010E94A74440E050E060E070E4E3
:1013B0000E94D544C60ED71EE81EF91EF801C7824A
:1013C000D086E186F2860E9407300E944D1AFC0109
:1013D000E080F1800E94F2380E94FA39FC0196E028
:1013E000DE01119601900D929A95E1F70E94F23874
:1013F00040E060E00E94D6398701000F111F000F06
:10140000111F000F111F0E191F09F801E656FF4F9B
:10141000E590F49082E00E946F3D8B8781E00E940E
:101420006F3D8A87F801E456FF4F2591359145912C
:101430005491C501B4010E941C4F4B015C01F8019D
:10144000E056FF4F84910E94703D898789E00E9499
:101450006F3D888784E00E946F3D8F830E94F23841
:1014600068E27DE30E94DE3CBE01695F7F4F0E941F
:10147000713D63E271E00E94053A6CE47DE30E94F5
:10148000DE3C60EE7CE30E94DE3C64E07DE30E9493
:10149000DE3CBE01685F7F4F0E94713DBE01675F09
:1014A0007F4F0E94963DB501A4010E94C43BBE013E
:1014B000665F7F4F0E94713D69E471E00E94053ACA
:1014C00068E27DE30E94DE3CBE01655F7F4F0E94C3
:1014D000713DB7010E94053A0E94F23840E061E098
:1014E0000E94D6390E94F238BE016F5F7F4F0E9482
:1014F000FC390E9453360E946D362B960FB6F89435
:10150000DEBF0FBECDBFDF91CF911F910F91FF9036
:10151000EF90DF90CF90BF90AF909F908F90089505
:101520008F929F92AF92BF92CF92DF92EF92FF92F3
:101530000F931F93CF93DF93CDB7DEB72B970FB6E3
:10154000F894DEBF0FBECDBF8C017B010E945336E5
:101550000E946B36F701E280F3800E940730B701EA
:101560000E9415304B015C010E944924B501A40181
:101570000E947C2A81E0F80186830E94A7440E9491
:10158000C9446B017C010E94A74440E050E060E048
:1015900070E40E94D544C60ED71EE81EF91EF8015D
:1015A000C782D086E186F2860E940730FC01E08087
:1015B000F1800E944D1A0E94F2380E94FA39FC0113
:1015C00096E0DE01119601900D929A95E1F70E9446
:1015D000F23840E060E00E94D6390E94F23840E0E4
:1015E00061E00E94D6398701000F111F000F111F03
:1015F000000F111F0E191F09F801E059FF4FE59068
:10160000F49082E00E946F3D8B8781E00E946F3DE5
:101610008A87F801EE58FF4F2591359145915491F5
:10162000C501B4010E941C4F4B015C01F801EA584E
:10163000FF4F84910E94703D898789E00E946F3D31
:10164000888784E00E946F3D8F830E94F23868E2B1
:101650007DE30E94DE3CBE01695F7F4F0E94713DC9
:1016600066E271E00E94053A6CE47DE30E94DE3C94
:1016700060EE7CE30E94DE3C64E07DE30E94DE3CA1
:10168000BE01685F7F4F0E94713DBE01675F7F4F63
:101690000E94963DB501A4010E94C43BBE01665F55
:1016A0007F4F0E94713D69E471E00E94053A68E253
:1016B0007DE30E94DE3CBE01655F7F4F0E94713D6D
:1016C000B7010E94053A0E94F238BE016F5F7F4F5A
:1016D0000E94FC390E9453360E946D362B960FB63D
:1016E000F894DEBF0FBECDBFDF91CF911F910F9158
:1016F000FF90EF90DF90CF90BF90AF909F908F9032
:101700000895CF92DF92EF92FF92CF93DF93EC0197
:1017100080919202811107C08DE592E00E94C13153
:1017200081E0809392028DE592E00E9476330E94E0
:1017300049240E945B2D81E08E830E94A7440E9471
:10174000C9446B017C010E94A74440E050E060E086
:1017500070E40E94D544C60ED71EE81EF91ECF8243
:10176000D886E986FA860E94F23840E060E00E945E
:10177000D6390E94F23869E271E00E94053A0E946F
:10178000F23840E061E00E94D6390E94F2386AE304
:1017900071E0DF91CF91FF90EF90DF90CF900C94AC
:1017A000053ACF92DF92EF92FF92CF93DF93EC0155
:1017B0000E9407300E9435310E9449240E94532A1A
:1017C00081E08E830E94A7440E94C9446B017C0182
:1017D0000E94A74440E050E060E070E40E94D544DD
:1017E000C60ED71EE81EF91ECF82D886E986FA8675
:1017F0000E94F23840E060E00E94D6390E94F23840
:1018000069E271E00E94053A0E94F23840E061E02E
:101810000E94D6390E94F2386AE371E0DF91CF91DD
:10182000FF90EF90DF90CF900C94053ACF92DF922B
:10183000EF92FF92CF93DF93EC010E944D1A0E942A
:101840008E1C0E9449240E94012981E08E830E94FF
:10185000A7440E94C9446B017C010E94A74440E058
:1018600050E060E070E40E94D544C60ED71EE81E2A
:10187000F91ECF82D886E986FA860E94F23840E0C7
:1018800060E00E94D6390E94F23869E271E00E945D
:10189000053A0E94F23840E061E00E94D6390E9489
:1018A000F2386AE371E0DF91CF91FF90EF90DF9023
:1018B000CF900C94053ACF92DF92EF92FF92CF93A4
:1018C000DF93EC010E94201F0E94C31F0E94492445
:1018D0000E941A2681E08E830E94A7440E94C94478
:1018E0006B017C010E94A74440E050E060E070E49E
:1018F0000E94D544C60ED71EE81EF91ECF82D88698
:10190000E986FA860E94F23840E060E00E94D6390B
:101910000E94F23869E271E00E94053A0E94F238B2
:1019200040E061E00E94D6390E94F2386AE371E03B
:10193000DF91CF91FF90EF90DF90CF900C94053A1C
:10194000CF92DF92EF92FF92CF93DF93EC010E9450
:1019500061350E943D360E9449240E94AF2781E0F4
:101960008E830E94A7440E94C9446B017C010E949F
:10197000A74440E050E060E070E40E94D544C60E09
:10198000D71EE81EF91ECF82D886E986FA860E9405
:10199000F23840E060E00E94D6390E94F23869E2F5
:1019A00071E00E94053A0E94F23840E061E00E9436
:1019B000D6390E94F2386AE371E0DF91CF91FF904F
:1019C000EF90DF90CF900C94053A0F931F93CF9335
:1019D000DF93CDB7DEB7AB970FB6F894DEBF0FBE7F
:1019E000CDBF0E94F2380E94FA39FC0196E0DE0178
:1019F000919601900D929A95E1F70E94F23840E09D
:101A000060E00E94D63962E771E0CE0101960E9443
:101A100021528C010E94F238B8010E94053A0E94BE
:101A2000F23840E061E00E94D63982E00E946F3DCA
:101A30008FA381E00E946F3D88A782E00E946F3DE6
:101A400089A781E00E946F3D8AA782E00E946F3DD6
:101A50008BA769E671E0CE0101960E9421528C01AC
:101A60000E94F238B8010E94053ABE01655D7F4FC1
:101A70000E94713D64E07DE30E94DE3C4FEF50E048
:101A800060E070E00E94CF3ABE01665D7F4F0E9429
:101A9000713D6BE471E00E94053ABE01675D7F4FC6
:101AA0000E94713D64E07DE30E94DE3C4FEF50E018
:101AB00060E070E00E94CF3ABE01685D7F4F0E94F7
:101AC000713D6BE471E00E94053ABE01695D7F4F94
:101AD0000E94713D64E07DE30E94DE3C4DEF50E0EA
:101AE00060E070E00E94CF3A0E94F238BE016F5D64
:101AF0007F4F0E94FC39AB960FB6F894DEBF0FBE45
:101B0000CDBFDF91CF911F910F910895CF92DF92BA
:101B1000EF92FF92CF93DF93EC010E94C33882EDE6
:101B200091E0998388831E821F82188619861A86FF
:101B30000E94F2380E94201F0E9461350E944D1AB7
:101B40000E94073080919202811107C08DE592E0DA
:101B50000E94C13181E0809392020E946F360E9400
:101B600049240E94201F0E94381D0E9453360E9463
:101B700063360E94613540E050E0BA010E94A8350A
:101B80000E94073060E070E00E9480310E9449248A
:101B9000AE0163E379E00E94DD38CE010E94E50CDE
:101BA000789481E08E830E94A7440E94C9446B010F
:101BB0007C010E94A74440E050E060E070E40E9495
:101BC000D544C60ED71EE81EF91ECF82D886E986F8
:101BD000FA86DF91CF91FF90EF90DF90CF9008953C
:101BE0002F923F924F925F926F927F928F929F922D
:101BF000AF92BF92CF92DF92EF92FF920F931F931B
:101C0000CF93DF93CDB7DEB72B970FB6F894DEBF37
:101C10000FBECDBFF62E29013A010E94F2380E9474
:101C2000FA39FC0196E0DE01119601900D929A9529
:101C3000E1F70E94F23840E060E00E94D639F110EE
:101C400099C00E94F23840E061E00E94D639EE204F
:101C500009F470C08401000F111F000F111F000F45
:101C6000111F08191909F801E059FF4FE590F49088
:101C700082E00E946F3D8F8381E00E946F3D8887E4
:101C8000F801EE58FF4F2591359145915491C601C9
:101C9000B5010E941C4F4B015C01F801EA58FF4F4F
:101CA00084910E94703D898789E00E946F3D8A87F8
:101CB00084E00E946F3D8B870E94F23868E27DE3EA
:101CC0000E94DE3CBE01655F7F4F0E94713D66E26F
:101CD00071E00E94053A6CE47DE30E94DE3C60EE18
:101CE0007CE30E94DE3C64E07DE30E94DE3CBE01BA
:101CF000665F7F4F0E94713DBE01675F7F4F0E940C
:101D0000963DB501A4010E94C43BBE01685F7F4FB0
:101D10000E94713D69E471E00E94053A68E27DE34A
:101D20000E94DE3CBE01695F7F4F0E94713DB7019A
:101D30000E94053A0E94F238BE016F5F7F4F0E94F9
:101D4000FC392B960FB6F894DEBF0FBECDBFDF91E6
:101D5000CF911F910F91FF90EF90DF90CF90BF90A8
:101D6000AF909F908F907F906F905F904F903F903B
:101D70002F900895F801EE0FFF1FEE0FFF1FEE0FDB
:101D8000FF1FCF01801B910B8C01FC01E656FF4F1A
:101D90002590349082E00E946F3D8F8381E00E9405
:101DA0006F3D8887F801E456FF4F259135914591A5
:101DB0005491C301B2010E941C4F2B013C01F80158
:101DC000E056FF4F84910E94703D898789E00E9410
:101DD0006F3D8A8784E00E946F3D8B870E94F238B6
:101DE00068E27DE30E94DE3CBE01655F7F4F0E949A
:101DF000713D63E271E00E94053A6CE47DE30E946C
:101E0000DE3C60EE7CE30E94DE3C64E07DE30E9409
:101E1000DE3CBE01665F7F4F0E94713DBE01675F81
:101E20007F4F0E94963DB301A2010E94C43BBE01B8
:101E3000685F7F4F0E94713D69E471E00E94053A3E
:101E400068E27DE30E94DE3CBE01695F7F4F0E9435
:101E5000713DB1010E94053AF4CE2F923F924F920C
:101E60005F926F927F928F929F92AF92BF92CF922A
:101E7000DF92EF920F931F93CF93DF9300D000D0A8
:101E8000CDB7DEB71C010E944D1A0E94A21C0E9411
:101E900007300E9449310E944D1AFC0120AD31AD3E
:101EA000232BB1F00F900F900F900F90DF91CF91F7
:101EB0001F910F91EF90DF90CF90BF90AF909F90C8
:101EC0008F907F906F905F904F903F902F900895EC
:101ED0000E940730FC0180AD91AD892B19F70E945B
:101EE0004D1A0E94FA1C9B01AC0169833A834B8313
:101EF0005C830E9407300E9458315B016C01F10144
:101F0000868129813A814B815C81811119C02983A5
:101F10003A834B835C830E940730FC018080918070
:101F20000E944D1AFC0100811181EE24E394298165
:101F30003A814B815C8161E0C1010E94F00DB2CF1A
:101F400029833A834B835C830E94A7440E94C9443F
:101F5000F101478050846184728429813A814B81E8
:101F60005C81641575058605970518F0F1011682E8
:101F7000CECFF1018681811195CFC9CF2FEF8FE3AD
:101F800098E3215080409040E1F700C0000080912C
:101F90008A02811107C082E592E00E94860D81E0ED
:101FA00080938A020E94A23880E090E008952F92E8
:101FB0003F924F925F926F927F928F929F92AF92D9
:101FC000BF92CF92DF92EF92FF920F931F93CF9326
:101FD000DF938C01EB01FC01E080F1806E157F0541
:101FE0000CF065C082809380A480B580A501940127
:101FF00060857185828593850E94F74C2B013C0199
:10200000F801668177816E197F09072E000C880B15
:10201000990B0E94194E9B01AC01C301B2010E94B1
:10202000694D2B013C01CE19DF09BE01DD0F880B84
:10203000990B0E94194E9B01AC01C301B2010E9491
:102040001C4F9B01AC01C501B4010E94F84C8B01EF
:10205000D82FC92F2CE53FE842E85FE3C501B40162
:102060000E941C4F6B017C019B01AC01B8018D2FBC
:102070009C2F0E94644D87FDEDC0502F412F9E0183
:10208000652F742F832F922FDF91CF911F910F9186
:10209000FF90EF90DF90CF90BF90AF909F908F9088
:1020A0007F906F905F904F903F902F900895FC012C
:1020B000208C318C261637060CF47EC0A4E0B0E0EC
:1020C0000DC04C175D070CF0CAC09C01CB01BF2DA1
:1020D000AC01421B530B42305105FCF02B2F30E07A
:1020E0006A2F70E0C901860F971F95958795F82E86
:1020F000FC01EE0FFF1FE80FF91FEE0FFF1FE00FAF
:10210000F11F40815181C417D507DCF6A82FAC011F
:10211000421B530B423051050CF7F901EE0FFF1F24
:10212000E20FF31FEE0FFF1FE00FF11F828093807D
:10213000A480B580E080F1809C01220F331F820FC4
:10214000931F880F991F080F191FA5019401F8010B
:1021500062817381848195810E94F74C2B013C013F
:10216000F801608171816E197F09072E000C880BC0
:10217000990B0E94194E9B01AC01C301B2010E9450
:10218000694D2B013C01CE19DF09BE01DD0F880B23
:10219000990B0E94194E9B01AC01C301B2010E9430
:1021A0001C4F9B01AC01C501B4010E94F84C562F95
:1021B000472F382F292F64CFC28CD38CE48CF58C19
:1021C00084889588A688B78802891389A501940117
:1021D000C701B6010E94F74C2B013C01B101601B05
:1021E000710B072E000C880B990B0E94194E9B0156
:1021F000AC01C301B2010E94694D2B013C01C01B1F
:10220000D10BBE01DD0F880B990B0E94194E9B016B
:10221000AC01C301B2010E941C4F9B01AC01C5017E
:10222000B4010E94F84C8B01D82FC92F2CE53FE850
:1022300042E85FE3C701B6010E941C4F6B017C01BD
:102240009B01AC01B8018D2F9C2F0E94174F1816CF
:102250000CF013CF5C2D4D2D3E2D2F2D11CF528123
:102260004381348125810CCF2F923F924F925F9210
:102270006F927F928F929F92AF92BF92CF92DF9296
:10228000EF92FF920F931F93CF93DF93CDB7DEB7FB
:1022900028970FB6F894DEBF0FBECDBF8C016A0140
:1022A0007B01FC0182809380A480B5809A01AB0100
:1022B000C501B4010E94174FF80118160CF079C03F
:1022C00060807180B301072C000C880B990B0E9471
:1022D000194E69837A838B839C83F80166817781A9
:1022E00066197709072E000C880B990B0E94194E6E
:1022F0002B013C01A5019401F8016085718582855F
:1023000093850E94F74C9B01AC01C301B2010E946E
:10231000694D2B013C01A5019401C701B6010E9442
:10232000F74C9B01AC01C301B2010E941C4F2981F3
:102330003A814B815C810E94F84C8B015C012CE559
:102340003FE842E85FE369817A818B819C810E944A
:102350001C4F6B017C019B01AC01B801C5010E94BF
:10236000644D87FD23C1502F412F3A2D2B2D652F12
:10237000742F832F922F0E94894F0E94DB4DCB0137
:1023800028960FB6F894DEBF0FBECDBFDF91CF9178
:102390001F910F91FF90EF90DF90CF90BF90AF9083
:1023A0009F908F907F906F905F904F903F902F9075
:1023B0000895828C938CA48CB58CA7019601C501DD
:1023C000B4010E94644D87FD94C0F4E0F9831D823E
:1023D00011C0A7019601C301B2010E94644D87FF9D
:1023E000EAC045015101FE81FD83C50188199909A3
:1023F000029754F12D81822E912C3981232E312C7C
:102400005401A20CB31CB594A794AE82C501880FE9
:10241000991F8A0D9B1D880F991FFC01E00FF11F6A
:10242000F887EF834280538064807580A70196010E
:10243000C301B2010E94174F18165CF6A982C501AC
:10244000881999090297B4F6F401EE0FFF1FE80D01
:10245000F91DEE0FFF1FE00FF11F20803180428039
:10246000538064807580C501880F991F8A0D9B1D5C
:10247000880F991F080F191FF80160817181621977
:102480007309072E000C880B990B0E94194E4B0103
:102490005C01A3019201F8016281738184819581BD
:1024A0000E94F74C9B01AC01C501B4010E94694D2B
:1024B0004B015C01A3019201C701B6010E94F74CD8
:1024C0009B01AC01C501B4010E941C4F6B017C0152
:1024D000B101330C880B990B0E94194E9B01AC0182
:1024E000C701B6010E94F84C562F472F382F292FCD
:1024F0003ECFF801208C318C2289338938872F8395
:102500004488558866887788B101621B730B072E53
:10251000000C880B990B0E94194E69837A838B8378
:102520009C83A3019201C501B4010E94F74C9B0159
:10253000AC0169817A818B819C810E94694D4B013C
:102540005C01A3019201C701B6010E94F74C9B01F7
:10255000AC01C501B4010E941C4F6B017C01EF81ED
:10256000F885BF01FF0F880B990B0E94194E9B0144
:10257000AC01C701B6010E94F84C8B015C01B101AE
:10258000330C880B990B0E94194E2CE53FE842E86A
:102590005FE30E941C4F6B017C019B01AC01B80101
:1025A000C5010E94174F18160CF0DDCE5C2D4D2D85
:1025B0003E2D2F2DDCCEEF81F88560817181072EB5
:1025C000000C880B990B0E94194E562F472F382F5D
:1025D000292FCDCE2F923F924F925F926F927F9292
:1025E0008F929F92AF92BF92CF92DF92EF92FF9223
:1025F0000F931F93CF93DF938C01EB01FC01E080DD
:10260000F1806E157F050CF065C082809380A480F8
:10261000B580A501940160857185828593850E94AE
:10262000F74C2B013C01F801668177816E197F0917
:10263000072E000C880B990B0E94194E9B01AC01D0
:10264000C301B2010E94694D2B013C01CE19DF0983
:10265000BE01DD0F880B990B0E94194E9B01AC0146
:10266000C301B2010E941C4F9B01AC01C501B40122
:102670000E94F84C8B01D82FC92F2CE53FE842E887
:102680005FE3C501B4010E941C4F6B017C019B01FB
:10269000AC01B8018D2F9C2F0E94644D87FDEDC0C9
:1026A000502F412F9E01652F742F832F922FDF9182
:1026B000CF911F910F91FF90EF90DF90CF90BF903F
:1026C000AF909F908F907F906F905F904F903F90D2
:1026D0002F900895FC01208C318C261637060CF4BF
:1026E0007EC0A4E0B0E00DC04C175D070CF0CAC07E
:1026F0009C01CB01BF2DAC01421B530B4230510555
:10270000FCF02B2F30E06A2F70E0C901860F971F75
:1027100095958795F82EFC01EE0FFF1FE80FF91F26
:10272000EE0FFF1FE00FF11F40815181C417D50745
:10273000DCF6A82FAC01421B530B423051050CF7BD
:10274000F901EE0FFF1FE20FF31FEE0FFF1FE00F67
:10275000F11F82809380A480B580E080F1809C018D
:10276000220F331F820F931F880F991F080F191F05
:10277000A5019401F80162817381848195810E9491
:10278000F74C2B013C01F801608171816E197F09C2
:10279000072E000C880B990B0E94194E9B01AC016F
:1027A000C301B2010E94694D2B013C01CE19DF0922
:1027B000BE01DD0F880B990B0E94194E9B01AC01E5
:1027C000C301B2010E941C4F9B01AC01C501B401C1
:1027D0000E94F84C562F472F382F292F64CFC28CD8
:1027E000D38CE48CF58C84889588A688B788028978
:1027F0001389A5019401C701B6010E94F74C2B0172
:102800003C01B101601B710B072E000C880B990B6A
:102810000E94194E9B01AC01C301B2010E94694D97
:102820002B013C01C01BD10BBE01DD0F880B990BA6
:102830000E94194E9B01AC01C301B2010E941C4FC2
:102840009B01AC01C501B4010E94F84C8B01D82F4B
:10285000C92F2CE53FE842E85FE3C701B6010E94BB
:102860001C4F6B017C019B01AC01B8018D2F9C2F8B
:102870000E94174F18160CF013CF5C2D4D2D3E2DD6
:102880002F2D11CF52814381348125810CCF2F927E
:102890003F924F925F926F927F928F929F92AF92F0
:1028A000BF92CF92DF92EF92FF920F931F93CF933D
:1028B000DF93CDB7DEB728970FB6F894DEBF0FBE13
:1028C000CDBF8C016A017B01FC0182809380A480D2
:1028D000B5809A01AB01C501B4010E94174FF80100
:1028E00018160CF079C060807180B301072C000CC1
:1028F000880B990B0E94194E69837A838B839C8382
:10290000F8016681778166197709072E000C880B1C
:10291000990B0E94194E2B013C01A5019401F8016D
:1029200060857185828593850E94F74C9B01AC017F
:10293000C301B2010E94694D2B013C01A501940124
:10294000C701B6010E94F74C9B01AC01C301B20163
:102950000E941C4F29813A814B815C810E94F84C76
:102960008B015C012CE53FE842E85FE369817A81F5
:102970008B819C810E941C4F6B017C019B01AC01EF
:10298000B801C5010E94644D87FD23C1502F412F1E
:102990003A2D2B2D652F742F832F922F0E94894F54
:1029A0000E94DB4DCB0128960FB6F894DEBF0FBE18
:1029B000CDBFDF91CF911F910F91FF90EF90DF90EE
:1029C000CF90BF90AF909F908F907F906F905F90CF
:1029D0004F903F902F900895828C938CA48CB58C4F
:1029E000A7019601C501B4010E94644D87FD94C002
:1029F000F4E0F9831D8211C0A7019601C301B20161
:102A00000E94644D87FFEAC045015101FE81FD83AC
:102A1000C50188199909029754F12D81822E912CB4
:102A20003981232E312C5401A20CB31CB594A794E8
:102A3000AE82C501880F991F8A0D9B1D880F991FB3
:102A4000FC01E00FF11FF887EF8342805380648020
:102A50007580A7019601C301B2010E94174F181695
:102A60005CF6A982C501881999090297B4F6F401A8
:102A7000EE0FFF1FE80DF91DEE0FFF1FE00FF11F16
:102A8000208031804280538064807580C501880F2A
:102A9000991F8A0D9B1D880F991F080F191FF80198
:102AA0006081718162197309072E000C880B990BE4
:102AB0000E94194E4B015C01A3019201F801628151
:102AC0007381848195810E94F74C9B01AC01C50103
:102AD000B4010E94694D4B015C01A3019201C70141
:102AE000B6010E94F74C9B01AC01C501B4010E94E4
:102AF0001C4F6B017C01B101330C880B990B0E94B8
:102B0000194E9B01AC01C701B6010E94F84C562F2B
:102B1000472F382F292F3ECFF801208C318C228966
:102B2000338938872F834488558866887788B10130
:102B3000621B730B072E000C880B990B0E94194E19
:102B400069837A838B839C83A3019201C501B401BD
:102B50000E94F74C9B01AC0169817A818B819C8139
:102B60000E94694D4B015C01A3019201C701B601AE
:102B70000E94F74C9B01AC01C501B4010E941C4F9F
:102B80006B017C01EF81F885BF01FF0F880B990B6A
:102B90000E94194E9B01AC01C701B6010E94F84C7E
:102BA0008B015C01B101330C880B990B0E94194E0B
:102BB0002CE53FE842E85FE30E941C4F6B017C017B
:102BC0009B01AC01B801C5010E94174F18160CF00B
:102BD000DDCE5C2D4D2D3E2D2F2DDCCEEF81F885E9
:102BE00060817181072E000C880B990B0E94194E91
:102BF000562F472F382F292FCDCE2F923F924F920D
:102C00005F926F927F928F929F92AF92BF92CF927C
:102C1000DF92EF92FF921F93CF93DF93CDB7DEB792
:102C20002C970FB6F894DEBF0FBECDBF1C016A0112
:102C30007B01DC018D909D90AD90BC901397481561
:102C400059056A057B050CF07DC014962D913D91C8
:102C50004D915C91179729833A834B835C831C9633
:102C60006D917D918D919C911F970E94F74C2B0146
:102C70003C01F10180859185A285B385BC01CD0120
:102C8000681979098A099B090E94194E9B01AC01B8
:102C9000C301B2010E94694D2B013C01C701B6017D
:102CA000681979098A099B090E94194E9B01AC0198
:102CB000C301B2010E941C4F9B01AC0169817A8162
:102CC0008B819C810E94F84CF62E172F982EA92EEE
:102CD0002CE53FE842E85FE369817A818B819C8142
:102CE0000E941C4FB62EC72ED82EE92E262F372F26
:102CF000482F592F6F2D712F892D9A2D0E94644DC9
:102D000087FD37C15F2D412F392D2A2D652F742F57
:102D1000832F922F2C960FB6F894DEBF0FBECDBF37
:102D2000DF91CF911F91FF90EF90DF90CF90BF90F8
:102D3000AF909F908F907F906F905F904F903F905B
:102D40002F900895DC0190964D905D906D907C9051
:102D5000939744165506660677060CF495C014E062
:102D6000B12C0FC04C155D056E057F050CF006C13A
:102D70009C01CD01BA2CAC01421B530B42305105D2
:102D80001CF12B2D30E0A12FB0E0C9018A0F9B1F51
:102D900095958795A82EFC01EE0FFF1FEE0FFF1FE4
:102DA000EE0FFF1FE20DF31D40815181628173819F
:102DB000C416D506E606F706ACF6182FAC01421B82
:102DC000530B42305105ECF6220F331F220F331FF5
:102DD000220F331FF101E20FF31F84809580A6803C
:102DE000B780208131814281538129833A834B838B
:102DF0005C83880F991F880F991F880F991F280ED1
:102E0000391EA5019401D10114966D917D918D918A
:102E10009C9117970E94F74C2B013C01F101808196
:102E20009181A281B381BC01CD0129813A814B817D
:102E30005C81621B730B840B950B0E94194E9B01E6
:102E4000AC01C301B2010E94694D2B013C01C701D5
:102E5000B60129813A814B815C81621B730B840B23
:102E6000950B0E94194E9B01AC01C301B2010E9457
:102E70001C4F9B01AC01C501B4010E94F84C562FB8
:102E8000472F382F292F42CF94968D909D90AD904B
:102E9000BC9097975C962D913D914D915C915F9779
:102EA00029833A834B835C8358962D913D914D91B4
:102EB0005C915B972D833E834F83588729813A81AC
:102EC0004B815C81C501B4010E94F74C69877A8708
:102ED0008B879C87C301B2012D813E814F8158852C
:102EE000621B730B840B950B0E94194E9B01AC0166
:102EF00069857A858B859C850E94694D2B013C01F3
:102F0000C701B6012D813E814F815885621B730B2D
:102F1000840B950B0E94194E9B01AC01C301B201B9
:102F20000E941C4F9B01AC0169817A818B819C813D
:102F30000E94F84CF62E172F3C012CE53FE842E8A2
:102F40005FE3C501B4010E941C4FB62EC72ED82ED8
:102F5000E92E262F372F482F592F6F2D712FC301A0
:102F60000E94174F18162CF05F2D412F362D272D5C
:102F7000CDCE5B2D4C2D3D2D2E2DC8CE54814581BF
:102F800036812781C3CE2F923F924F925F926F92EC
:102F90007F928F929F92AF92BF92CF92DF92EF92E9
:102FA000FF921F93CF93DF93CDB7DEB72C970FB669
:102FB000F894DEBF0FBECDBF1C016A017B01DC01AE
:102FC0008D909D90AD90BC901397481559056A055A
:102FD0007B050CF07DC014962D913D914D915C9137
:102FE000179729833A834B835C831C966D917D915F
:102FF0008D919C911F970E94F74C2B013C01F10190
:1030000080859185A285B385BC01CD0168197909B8
:103010008A099B090E94194E9B01AC01C301B201B0
:103020000E94694D2B013C01C701B601681979095D
:103030008A099B090E94194E9B01AC01C301B20190
:103040000E941C4F9B01AC0169817A818B819C811C
:103050000E94F84CF62E172F982EA92E2CE53FE84B
:1030600042E85FE369817A818B819C810E941C4FD9
:10307000B62EC72ED82EE92E262F372F482F592FA0
:103080006F2D712F892D9A2D0E94644D87FD37C1B8
:103090005F2D412F392D2A2D652F742F832F922FCD
:1030A0002C960FB6F894DEBF0FBECDBFDF91CF9147
:1030B0001F91FF90EF90DF90CF90BF90AF909F90C7
:1030C0008F907F906F905F904F903F902F900895DA
:1030D000DC0190964D905D906D907C909397441696
:1030E0005506660677060CF495C014E0B12C0FC0A7
:1030F0004C155D056E057F050CF006C19C01CD01E8
:10310000BA2CAC01421B530B423051051CF12B2D44
:1031100030E0A12FB0E0C9018A0F9B1F95958795DC
:10312000A82EFC01EE0FFF1FEE0FFF1FEE0FFF1F7B
:10313000E20DF31D4081518162817381C416D50671
:10314000E606F706ACF6182FAC01421B530B4230D3
:103150005105ECF6220F331F220F331F220F331FAE
:10316000F101E20FF31F84809580A680B780208153
:1031700031814281538129833A834B835C83880F59
:10318000991F880F991F880F991F280E391EA501B6
:103190009401D10114966D917D918D919C91179719
:1031A0000E94F74C2B013C01F10180819181A281A9
:1031B000B381BC01CD0129813A814B815C81621BC5
:1031C000730B840B950B0E94194E9B01AC01C3013C
:1031D000B2010E94694D2B013C01C701B601298152
:1031E0003A814B815C81621B730B840B950B0E94AF
:1031F000194E9B01AC01C301B2010E941C4F9B01FF
:10320000AC01C501B4010E94F84C562F472F382F4E
:10321000292F42CF94968D909D90AD90BC9097971A
:103220005C962D913D914D915C915F9729833A83F6
:103230004B835C8358962D913D914D915C915B97AA
:103240002D833E834F83588729813A814B815C814E
:10325000C501B4010E94F74C69877A878B879C87E8
:10326000C301B2012D813E814F815885621B730BD2
:10327000840B950B0E94194E9B01AC0169857A85E0
:103280008B859C850E94694D2B013C01C701B601CD
:103290002D813E814F815885621B730B840B950BEA
:1032A0000E94194E9B01AC01C301B2010E941C4F48
:1032B0009B01AC0169817A818B819C810E94F84CD1
:1032C000F62E172F3C012CE53FE842E85FE3C501ED
:1032D000B4010E941C4FB62EC72ED82EE92E262FE1
:1032E000372F482F592F6F2D712FC3010E94174F71
:1032F00018162CF05F2D412F362D272DCDCE5B2DAE
:103300004C2D3D2D2E2DC8CE5481458136812781EF
:10331000C3CE0895549A559808955C9808955C9A80
:1033200008950895089589B185FB882780F991E073
:10333000892708958530910540F4FC01EE0FFF1FA9
:10334000E456FE4F859194910895ECE9F1E0859162
:10335000949108954F925F926F927F928F929F9275
:10336000AF92BF92EF92FF920F931F93CF93DF9391
:10337000EC018B01FC01619371937F01CB010E94F1
:103380006F2E5C010E94942EA701B5010E94C143DB
:10339000889709F466C0F801EE0FFF1FEE0FFF1FBC
:1033A000ED57FE4F85909590A590B490C501B4015E
:1033B000905823E3422E542C23EF622E77247A94E4
:1033C0004A825B826C827D826E837F838887998745
:1033D00031EE432E3AE7532E34EF632E77247A945E
:1033E0004A865B866C867D8626E636E646E65FE3A1
:1033F0000E941C4F6E877F87888B998B1A8A1B8A45
:103400001C8A1D8A1E8A1F8A188E198E8FE195E8E4
:10341000ABE0B0E08A8F9B8FAC8FBD8F26E636E69F
:1034200046E65FE3C501B4010E941C4F6E8F7F8F9B
:1034300088A399A38DEC9CECACE0B0E08AA39BA39D
:10344000ACA3BDA38EA29FA2A8A6B9A6888199818C
:103450000E946F2E5C010E94942EA701B5010E946C
:103460002B44AA96CE010E94F23FF801E956FE4F86
:103470000491682F607F602BCE01DF91CF911F9167
:103480000F91FF90EF90BF90AF909F908F907F90A3
:103490006F905F904F900C94D43F8091D402811133
:1034A00086C010929C0210929D0210929E02109271
:1034B0009F021092A0021092A1021092A2021092FA
:1034C000A3021092A4021092A5021092A6021092DA
:1034D000A7021092A8021092A9021092AA021092BA
:1034E000AB021092AC021092AD021092AE0210929A
:1034F000AF021092B0021092B1021092B20210927A
:10350000B3021092B4021092B5021092B602109259
:10351000B7021092B8021092B9021092BA02109239
:10352000BB021092BC021092BD021092BE02109219
:10353000BF021092C0021092C1021092C2021092F9
:10354000C30260E084EC92E00E94D13F85EC92E0FF
:103550000E944C4188ED91E09093C6028093C50291
:1035600085EC92E00E94674160E170E088EC92E0B7
:103570000E94354884EC92E00E946840682F607F8A
:1035800084EC92E00E94944084EC92E00E941E4001
:10359000682F607F84EC92E00E944A4062E070E015
:1035A0008AE992E00E94AA1981E08093D4028AE914
:1035B00092E00895AF92BF92CF92DF92EF92FF9286
:1035C0000F931F93CF93DF93CDB7DEB727970FB637
:1035D000F894DEBF0FBECDBF5C01613081E078079B
:1035E00010F060E071E0CE0101960E94B7482B8197
:1035F0003C818D819E812817390709F452C08501CD
:10360000055D1F4F16C00E9411426B017C014427CB
:103610005527BA014C195D096E097F09CE01019643
:103620000E94D1482B813C818D819E8128173907CA
:10363000C1F10E941638FC01C080D1800D2C000C15
:10364000EE08FF087601DD24CC240E941638FC0128
:1036500082819381092E000CAA0BBB0BBA2FA92FD4
:10366000982F8827C82AD92AEA2AFB2A0E941638C6
:10367000FC0184819581092E000CAA0BBB0BC82A82
:10368000D92AEA2AFB2A60E0C801C114D104F3E078
:10369000EF06F10408F0B7CF0E941142AB01BC0164
:1036A000BDCFCE0101960E94F3480E94894F0E942F
:1036B000DB4DAB01BC01C50102960E94FD156B01FB
:1036C0007C01CE0101960E94CC48C701B601279625
:1036D0000FB6F894DEBF0FBECDBFDF91CF911F9123
:1036E0000F91FF90EF90DF90CF90BF90AF90089533
:1036F000CF92DF92EF92FF920F931F93CF93DF93BE
:10370000EC01E881F981EE0FFF1FEE0FFF1FED576F
:10371000FE4FC590D590E590F490C701B601905842
:1037200003E313E323EF3FEF0A831B832C833D83E3
:103730006E837F838887998701EE1AE724EF3FEF36
:103740000A871B872C873D8726E636E646E65FE339
:103750000E941C4F6E877F87888B998B1A8A1B8AE1
:103760001C8A1D8A1E8A1F8A188E198E8FE195E881
:10377000ABE0B0E08A8F9B8FAC8FBD8F26E636E63C
:1037800046E65FE3C701B6010E941C4F6E8F7F8F34
:1037900088A399A38DEC9CECACE0B0E08AA39BA33A
:1037A000ACA3BDA3CEA2DFA2E8A6F9A6DF91CF917C
:1037B0001F910F91FF90EF90DF90CF9008954F925F
:1037C0005F926F927F928F929F92AF92BF92CF92B1
:1037D000DF92EF92FF920F931F93CF93DF93CDB7BA
:1037E000DEB72C970FB6F894DEBF0FBECDBF4C01ED
:1037F0005B0129013A0160E870E0CE0101960E9468
:1038000035488B859C85892B09F457C08401055D5B
:103810001F4F14C00E9411426B017C0144275527A1
:10382000BA014C195D096E097F09CE0101960E940B
:1038300051488B859C85892B09F43FC00E9416381E
:10384000FC01C080D1800D2C000CEE08FF08760131
:10385000DD24CC240E941638FC0182819381092E3C
:10386000000CAA0BBB0BBA2FA92F982F8827C82AA8
:10387000D92AEA2AFB2A0E941638FC018481958104
:10388000092E000CAA0BBB0BC82AD92AEA2AFB2A4C
:1038900060E0C801C114D104F3E0EF06F10408F0C0
:1038A000B9CF0E941142AB01BC01CE0101960E942A
:1038B00051488B859C85892B09F6CE0101960E9483
:1038C0008C480E94894FBB24AA0CBB1CAA0CBB1CB1
:1038D000AA0CBB1C8A0C9B1C0E94DB4DF40162836A
:1038E00073838483958346825782608671862C9683
:1038F0000FB6F894DEBF0FBECDBFDF91CF911F9101
:103900000F91FF90EF90DF90CF90BF90AF909F907E
:103910008F907F906F905F904F9008950F931F93BB
:10392000CF93DF93EC01899199910E946F2E8C01C6
:103930000E94942EAE01B801DF91CF911F910F919B
:103940000C942B44CF92DF92EF92FF920F931F9330
:10395000CF93DF93EC010E941638FC01C080D18028
:103960000D2C000CEE08FF087601DD24CC240E940B
:103970001638FC0182819381092E000CAA0BBB0B27
:10398000BA2FA92F982F8827C82AD92AEA2AFB2AD2
:103990000E941638FC0184819581092E000CAA0B27
:1039A000BB0BC82AD92AEA2AFB2A60E0CE018B96F3
:1039B000C114D104F3E0EF06F104B8F00E94114203
:1039C0008B019C0144275527BA01401B510B620B08
:1039D000730BCE018E96DF91CF911F910F91FF90C7
:1039E000EF90DF90CF900C9451480E941142AB01B0
:1039F000BC01EFCFCF92DF92EF92FF920F931F9314
:103A0000CF93DF938C01EC01AE96CE010E948C48DF
:103A10000E94894F0E94DB4DAB01BC01C801029698
:103A20000E94FD156B017C01CE010E944348C70135
:103A3000B601DF91CF911F910F91FF90EF90DF9032
:103A4000CF9008955F9808955F9A0895579A0895C2
:103A50008530910540F4FC01EE0FFF1FE154FE4F4D
:103A6000859194910895EFEBF1E0859194910895FB
:103A70008F929F92AF92BF92CF92DF92EF92FF927E
:103A80000F931F93CF93DF93EC0181E08AA77E0110
:103A900084E2E80EF11CC7010E94F23F682F6F7E9E
:103AA000C7010E94D43F0C811D816E0186E0C80EC3
:103AB000D11CC8010E944F2E5C010E94942EA601C9
:103AC000B5010E94C1434E9709F44DC0F801EE0FB5
:103AD000FF1FEE0FFF1FEA55FE4F85909590A590B2
:103AE000B490C501B40190582BEB33EF3F832E8384
:103AF000688779878A879B8725EF34EF3D872C87F6
:103B000026E636E646E65FE30E941C4F6E877F8717
:103B1000888B998B1B8A1A8A1C8A1D8A1E8A1F8A87
:103B20008BE09BE0998F888F26E636E646E65FE3DA
:103B3000C501B4010E941C4F6A8F7B8F8C8F9D8FB3
:103B400085E49CE09F8F8E8F88A299A2AAA2BBA237
:103B50008C819D810E944F2E5C010E94942EA601B3
:103B6000B5010E942B44C7010E94F23FF801E654C0
:103B7000FE4F0491682F607F602BC7010E94D43FE5
:103B80008AA581110DC0DF91CF911F910F91FF90F8
:103B9000EF90DF90CF90BF90AF909F908F9008955F
:103BA000488159816A817B81C6010E9434118C0150
:103BB000BC01C6010E94D70F688379838A839B83E7
:103BC000B8017058CE018596DF91CF911F910F916A
:103BD000FF90EF90DF90CF90BF90AF909F908F902D
:103BE0000C94FA40FC0112A608958F929F92AF9216
:103BF000BF92CF92DF92EF92FF920F931F93CF93DA
:103C0000DF93EC018B017D836C837C0186E0E80E01
:103C1000F11CCB010E944F2E6C010E94942EA70133
:103C2000B6010E94C1434E9709F44DC0F801EE0F52
:103C3000FF1FEE0FFF1FEA55FE4F85909590A59050
:103C4000B490C501B40190582BEB33EF3F832E8322
:103C5000688779878A879B8725EF34EF3D872C8794
:103C600026E636E646E65FE30E941C4F6E877F87B6
:103C7000888B998B1B8A1A8A1C8A1D8A1E8A1F8A26
:103C80008BE09BE0998F888F26E636E646E65FE379
:103C9000C501B4010E941C4F6A8F7B8F8C8F9D8F52
:103CA00085E49CE09F8F8E8F88A299A2AAA2BBA2D6
:103CB0008C819D810E944F2E6C010E94942EA70141
:103CC000B6010E942B446E0184E2C80ED11CC601CD
:103CD0000E94F23FF801E654FE4F0491682F607F86
:103CE000602BC6010E94D43F8AA581110DC0DF91CF
:103CF000CF911F910F91FF90EF90DF90CF90BF90E9
:103D0000AF909F908F900895488159816A817B81FF
:103D1000C7010E9434118C01BC01C7010E94D70F5A
:103D2000688379838A839B83B8017058CE01859616
:103D3000DF91CF911F910F91FF90EF90DF90CF9087
:103D4000BF90AF909F908F900C94FA40CF92DF92EB
:103D5000EF92FF920F931F93CF93DF93EC011882A2
:103D600019821A821B8282E090E09D838C836E010F
:103D700086E0C80ED11C1F821E82188619861A86FC
:103D80001B861D861C861E861F86188A198A1B8A1A
:103D90001A8A1C8A1D8A1E8A1F8A198E188E1A8EEC
:103DA0001B8E1C8E1D8E1F8E1E8E18A219A21AA28B
:103DB0001BA28E010C5D1F4F60E0C8010E94D13F25
:103DC0007E0185E2E80EF11CC7010E94B5408AEE33
:103DD00091E09EA38DA3C7010E94D2401AA6C801FC
:103DE0000E946840682F607CC8010E949440C8010E
:103DF0000E941E40682F607CC8010E944A4062E019
:103E000070E0CE010E94F51D40E050E0BA01C6010D
:103E10000E9434118C01BC01C6010E94D70F688337
:103E200079838A839B83B8017058C701DF91CF9152
:103E30001F910F91FF90EF90DF90CF900C94FA407C
:103E400080910703811107C08CED92E00E94A61EAD
:103E500081E0809307038CED92E00895EF92FF924A
:103E60000F931F93CF93DF938C017C0186E0E80EC4
:103E7000F11CC7010E943411EC01BC01C7010E9472
:103E8000D70FF8016083718382839383BE017058DA
:103E9000C8018596DF91CF911F910F91FF90EF9010
:103EA0000C94FA40CF92DF92EF92FF92CF93DF9380
:103EB000EC01EC81FD81EE0FFF1FEE0FFF1FEA55B5
:103EC000FE4FC590D590E590F490C701B60190588B
:103ED0002BEB33EF3F832E83688779878A879B8715
:103EE00025EF34EF3D872C8726E636E646E65FE38E
:103EF0000E941C4F6E877F87888B998B1B8A1A8A3A
:103F00001C8A1D8A1E8A1F8A8BE09BE0998F888FEE
:103F100026E636E646E65FE3C701B6010E941C4F7F
:103F20006A8F7B8F8C8F9D8F85E49CE09F8F8E8F17
:103F3000C8A2D9A2EAA2FBA2DF91CF91FF90EF9095
:103F4000DF90CF9008957727FB01EE0FFF1FE60F5C
:103F5000F71FEE0FFF1FE80FF91F6681778170587A
:103F600085960C94FA407727FB01EE0FFF1F6E0F2A
:103F70007F1F660F771F860F971FFC0120873187F1
:103F80004287538708950F931F93CF93DF93EC01DC
:103F90008C819D810E944F2E8C010E94942EAE0137
:103FA0004A5F5F4FB801DF91CF911F910F910C9441
:103FB0002B44089521E030E0FC0130AF27ABBC0179
:103FC000695C7F4F0C94E3384430510508F4089540
:103FD00028E030E0FC0130AF27ABBC01695C7F4FCB
:103FE0000C94E3384430510508F408952EE030E095
:103FF000FC0130AF27ABBC01695C7F4F0C94E33808
:104000004430510508F4089523E130E0FC0130AF5D
:1040100027ABBC01695C7F4F0C94E33844305105F9
:1040200008F4089528E130E0FC0130AF27ABBC0173
:10403000695C7F4F0C94E3384430510508F40895CF
:104040002AE130E0FC0130AF27ABBC01695C7F4F57
:104050000C94E3384430510508F408952BE130E026
:10406000FC0130AF27ABBC01695C7F4F0C94E33897
:104070004430510508F408952CE130E0FC0130AFE4
:1040800027ABBC01695C7F4F0C94E3384430510589
:1040900008F408952DE130E0FC0130AF27ABBC01FE
:1040A000695C7F4F0C94E3384430510508F408955F
:1040B00021E230E0FC0130AF27ABBC01695C7F4FEF
:1040C0000C94E3384430510508F4089522E230E0BE
:1040D000FC0130AF27ABBC01695C7F4F0C94E33827
:1040E0004430510508F4089526E230E0FC0130AF79
:1040F00027ABBC01695C7F4F0C94E3384430510519
:1041000008F4089528E230E0FC0130AF27ABBC0191
:10411000695C7F4F0C94E3384430510508F40895EE
:104120002AE230E0FC0130AF27ABBC01695C7F4F75
:104130000C94E3380F931F93FB01A081B1812B2FC7
:104140003A2F2B32310540F5EB2FFA2FEE0FFF1FE0
:10415000EE0FFF1FE753FE4F059115912591349106
:10416000F80120FF12C0F901F595E795DC01AE0FCB
:10417000BF1FED91FC911197E00FF11F0190F081AD
:10418000E02DCD011F910F91099435952795820F50
:10419000931F1F910F9109941F910F91089548301B
:1041A000510508F40895DB011596EC9115971496C6
:1041B000FC91E230F10580F0EFE9F2E025913491D5
:1041C00043E050E0FC0150AF47AB32AF21AFBC0140
:1041D000695C7F4F0C94E338EE0FFF1FE156FD4FF3
:1041E000EDCF4830510508F40895DB011596EC91A8
:1041F00015971496FC91E530F10590F4EE0FFF1F32
:10420000EB56FD4F2591349144E050E0FC0150AF56
:1042100047AB32AF21AFBC01695C7F4F0C94E338F0
:10422000E5E9F2E0EFCF4830510578F0FB01248159
:10423000358145E050E0FC0150AF47AB31AF22AFD4
:10424000BC01695C7F4F0C94E338089548305105F8
:1042500078F0FB012481358146E050E0FC0150AF4D
:1042600047AB31AF22AFBC01695C7F4F0C94E338A0
:1042700008954830510508F40895DB011596EC9136
:1042800015971496FC91E230F10580F0E1E9F2E037
:10429000259134914AE050E0FC0150AF47AB32AF7A
:1042A00021AFBC01695C7F4F0C94E338EE0FFF1F18
:1042B000EF56FD4FEDCF4830510578F0FB012481DA
:1042C00035814BE050E0FC0150AF47AB31AF22AF3E
:1042D000BC01695C7F4F0C94E33808954830510568
:1042E00078F0FB01248135814CE050E0FC0150AFB7
:1042F00047AB31AF22AFBC01695C7F4F0C94E33810
:1043000008954830510508F40895DB011596EC91A5
:1043100015971496FC91E530F10590F4EE0FFF1F10
:10432000E957FD4F2591349140E150E0FC0150AF39
:1043300047AB32AF21AFBC01695C7F4F0C94E338CF
:10434000E7E8F2E0EFCF4830510578F0FB01248137
:10435000358141E150E0FC0150AF47AB31AF22AFB6
:10436000BC01695C7F4F0C94E338089548305105D7
:1043700078F0FB012481358144E150E0FC0150AF2D
:1043800047AB31AF22AFBC01695C7F4F0C94E3387F
:1043900008954830510508F40895DB011596EC9115
:1043A00015971496FC91E630F10590F4EE0FFF1F7F
:1043B000E558FD4F2591349145E150E0FC0150AFA7
:1043C00047AB32AF21AFBC01695C7F4F0C94E3383F
:1043D000EBE7F2E0EFCF4830510578F0FB012481A4
:1043E000358146E150E0FC0150AF47AB31AF22AF21
:1043F000BC01695C7F4F0C94E33808954830510547
:1044000078F0FB012481358149E150E0FC0150AF97
:1044100047AB31AF22AFBC01695C7F4F0C94E338EE
:1044200008954830510578F0FB01248135814EE133
:1044300050E0FC0150AF47AB31AF22AFBC01695C2B
:104440007F4F0C94E33808954830510508F40895DF
:10445000E9E7F2E02591349143E250E0FC0150AFEE
:1044600047AB32AF21AFBC01695C7F4F0C94E3389E
:104470004830510578F0FB012481358144E250E059
:10448000FC0150AF47AB31AF22AFBC01695C7F4F3D
:104490000C94E33808954830510578F0FB012481ED
:1044A000358147E250E0FC0150AF47AB31AF22AF5E
:1044B000BC01695C7F4F0C94E33808954830510586
:1044C00008F40895DB011596EC9115971496FC916C
:1044D000E230F10580F0E5E7F2E02591349149E220
:1044E00050E0FC0150AF47AB32AF21AFBC01695C7B
:1044F0007F4F0C94E338EE0FFF1FEB58FD4FEDCFCD
:10450000FB014C305105D0F044815581B385A28523
:104510003185208567E070E0FC0170AF67AB51AF7B
:1045200042AF4B2F5A2F632F722F43AF54AF65AF5B
:1045300076AFBC01695C7F4F0C94E3380895FB01B2
:1045400048305105B0F0B781A6813581248149E01A
:1045500050E0FC0150AF47AB4B2F5A2F632F722F07
:1045600041AF52AF63AF74AFBC01695C7F4F0C9435
:10457000E3380895FB014C305105D0F0448155815A
:10458000B385A285318520856DE070E0FC0170AFB8
:1045900067AB51AF42AF4B2F5A2F632F722F43AFF0
:1045A00054AF65AF76AFBC01695C7F4F0C94E338C4
:1045B0000895FB0148305105B0F0B781A6813581DF
:1045C00024814FE050E0FC0150AF47AB4B2F5A2FF6
:1045D000632F722F41AF52AF63AF74AFBC01695C00
:1045E0007F4F0C94E3380895FB014C305105D0F017
:1045F00044815581B385A2853185208562E170E0D3
:10460000FC0170AF67AB51AF42AF4B2F5A2F632FF6
:10461000722F43AF54AF65AF76AFBC01695C7F4F7B
:104620000C94E3380895FB014C305105D0F04481DF
:104630005581B385A2853185208567E170E0FC0155
:1046400070AF67AB51AF42AF4B2F5A2F632F722F12
:1046500043AF54AF65AF76AFBC01695C7F4F0C943C
:10466000E3380895FB014C305105D0F04481558169
:10467000B385A2853185208565E270E0FC0170AFCD
:1046800067AB51AF42AF4B2F5A2F632F722F43AFFF
:1046900054AF65AF76AFBC01695C7F4F0C94E338D3
:1046A00008954830510578F0FB01248135814FE1B0
:1046B00050E0FC0150AF47AB31AF22AFBC01695CA9
:1046C0007F4F0C94E3380895FB014830510590F07A
:1046D000448155812681378160E270E0FC0170AF32
:1046E00067AB51AF42AF33AF24AFBC01695C7F4FC2
:1046F0000C94E3380895AF92BF92CF92DF92EF927D
:10470000FF920F931F93CF93DF937C010E948C4500
:104710000E94F0455C010E948245EC01892B59F40E
:10472000DF91CF911F910F91FF90EF90DF90CF908D
:10473000BF90AF900895670186E0C80ED11C850137
:104740005701EEE0AE0EB11C05C0C6010E94173F36
:10475000219731F3F80161918F01C6010E942B3F2F
:10476000F70190A99923A1F3408551854430510563
:1047700060F3B501C7010E949A20E7CFEF92FF9244
:104780000F931F93CF93DF93EC0182E090E098AFFB
:104790008FABBE01695C7F4FCE010E94E3388E0172
:1047A0000A5F1F4F64E070E0C8010E94F23EEC0116
:1047B000188682E089871B861A86CE010E94D33E26
:1047C000ED80FC800E948C45A701485F5F4FBE01D1
:1047D0000E942B46BE01C801DF91CF911F910F911E
:1047E000FF90EF900C94023F8530910540F4FC015E
:1047F000EE0FFF1FEB56FD4F859194910895E5E96B
:10480000F2E08591949108958230910528F0E1E9D4
:10481000F2E0859194910895FC01EE0FFF1FEF5691
:10482000FD4F8591949108958530910540F4FC01E8
:10483000EE0FFF1FE957FD4F859194910895E7E82A
:10484000F2E08591949108958630910540F4FC0141
:10485000EE0FFF1FE558FD4F859194910895EBE70A
:10486000F2E0859194910895E9E7F2E085919491C1
:1048700008958230910528F0E5E7F2E08591949162
:104880000895FC01EE0FFF1FEB58FD4F85919491A9
:10489000089580914E03811119C08FE093E00E942A
:1048A000C33884EF91E09093100380930F0385E168
:1048B00093E00E94033F0E948C4540E855E260E08F
:1048C00070E00E94D14581E080934E038FE093E039
:1048D00008958F929F92AF92BF92CF92DF92EF9204
:1048E000FF920F931F93CF93DF9300D000D0CDB7EB
:1048F000DEB75B0106966C016CE270E029833A83B7
:104900004B835C830E94F23E4C01FC01108681E0E7
:104910008187138612865C8154A74B8145A73A8113
:1049200036A7298127A710AB01ABF2AAE3AAC401DD
:104930000C9620E2FC0111922A95E9F7B5010E943C
:104940003352C4010E94D33EF401058114810E94B8
:104950008C45A801485F5F4FB4010E942B46B4010B
:10496000C6010F900F900F900F90DF91CF911F9184
:104970000F91FF90EF90DF90CF90BF90AF909F90FE
:104980008F900C94023FEF92FF920F931F93CF935F
:10499000DF93162F072F06967C0168E070E00E94D7
:1049A000F23EEC01188683E089871B861A860C8705
:1049B0001D871F861E86CE010E94D33E0D811C815D
:1049C0000E948C45A801485F5F4FBE010E942B46A4
:1049D000BE01C701DF91CF911F910F91FF90EF9022
:1049E0000C94023FEF92FF920F931F93CF93DF93AC
:1049F000162F072F06967C0168E070E00E94F23EB9
:104A0000EC01188684E089871B861A860C871D872F
:104A10001F861E86CE010E94D33E0D811C810E94FE
:104A20008C45A801485F5F4FBE010E942B46BE0126
:104A3000C701DF91CF911F910F91FF90EF900C94E0
:104A4000023FAF92BF92CF92DF92EF92FF920F930D
:104A50001F93CF93DF9300D000D0CDB7DEB7D62E13
:104A6000C72E06967C016CE070E02B833C83498363
:104A70005A830E94F23E5C01FC01108685E081872A
:104A800013861286C486D5865A8156874981478700
:104A90003C812B81C801432F522F692F702FF501C4
:104AA000408B518B628B738BC5010E94D33EF50105
:104AB000058114810E948C45A801485F5F4FB501B4
:104AC0000E942B46B501C7010F900F900F900F90D9
:104AD000DF91CF911F910F91FF90EF90DF90CF90DA
:104AE000BF90AF900C94023FAF92BF92CF92DF92F3
:104AF000EF92FF920F931F93CF93DF9300D000D0DC
:104B0000CDB7DEB7D62EC72E06967C016CE070E0DE
:104B10002B833C8349835A830E94F23E5C01FC0153
:104B2000108686E0818713861286C486D5865A81D0
:104B30005687498147873C812B81C801432F522FDB
:104B4000692F702FF501408B518B628B738BC501E0
:104B50000E94D33EF501058114810E948C45A80175
:104B6000485F5F4FB5010E942B46B501C7010F900A
:104B70000F900F900F90DF91CF911F910F91FF90A9
:104B8000EF90DF90CF90BF90AF900C94023FAF9228
:104B9000BF92CF92DF92EF92FF920F931F93CF932A
:104BA000DF9300D000D0CDB7DEB7D62EC72E069645
:104BB0007C016CE070E02B833C8349835A830E9424
:104BC000F23E5C01FC01108687E081871386128625
:104BD000C486D5865A815687498147873C812B8177
:104BE000C801432F522F692F702FF501408B518B35
:104BF000628B738BC5010E94D33EF5010581148140
:104C00000E948C45A801485F5F4FB5010E942B466A
:104C1000B501C7010F900F900F900F90DF91CF91CA
:104C20001F910F91FF90EF90DF90CF90BF90AF90CA
:104C30000C94023FEF92FF920F931F93CF93DF9359
:104C400006967C0164E070E00E94F23EEC0118865A
:104C500088E089871B861A86CE010E94D33E0D818B
:104C60001C810E948C45A801485F5F4FBE010E94D5
:104C70002B46BE01C701DF91CF911F910F91FF908D
:104C8000EF900C94023FCF92DF92EF92FF920F933E
:104C90001F93CF93DF9300D0CDB7DEB7162F072F2A
:104CA00006967C0168E070E049835A830E94F23ED8
:104CB0006C01FC01108689E08187138612865A8177
:104CC000952F4981842F402F512F692F782F4487AA
:104CD000558766877787C6010E94D33EF601058116
:104CE00014810E948C45A801485F5F4FB6010E9465
:104CF0002B46B601C7010F900F90DF91CF911F9106
:104D00000F91FF90EF90DF90CF900C94023FEF92C5
:104D1000FF920F931F93CF93DF93162F072F0696C3
:104D20007C0168E070E00E94F23EEC0118868AE0A7
:104D300089871B861A860C871D871F861E86CE01D3
:104D40000E94D33E0D811C810E948C45A801485FC2
:104D50005F4FBE010E942B46BE01C701DF91CF917C
:104D60001F910F91FF90EF900C94023FAF92BF9272
:104D7000CF92DF92EF92FF920F931F93CF93DF9327
:104D800000D000D0CDB7DEB7D62EC72E06967C0158
:104D90006CE070E02B833C8349835A830E94F23E8F
:104DA0005C01FC0110868BE0818713861286C48625
:104DB000D5865A815687498147873C812B81C80116
:104DC000432F522F692F702FF501408B518B628B2F
:104DD000738BC5010E94D33EF501058114810E94A9
:104DE0008C45A801485F5F4FB5010E942B46B50175
:104DF000C7010F900F900F900F90DF91CF911F91EF
:104E00000F91FF90EF90DF90CF90BF90AF900C94F8
:104E1000023FAF92BF92CF92DF92EF92FF920F9339
:104E20001F93CF93DF9300D000D0CDB7DEB7D62E3F
:104E3000C72E06967C016CE070E02B833C8349838F
:104E40005A830E94F23E5C01FC0110868CE081874F
:104E500013861286C486D5865A815687498147872C
:104E60003C812B81C801432F522F692F702FF501F0
:104E7000408B518B628B738BC5010E94D33EF50131
:104E8000058114810E948C45A801485F5F4FB501E0
:104E90000E942B46B501C7010F900F900F900F9005
:104EA000DF91CF911F910F91FF90EF90DF90CF9006
:104EB000BF90AF900C94023FAF92BF92CF92DF921F
:104EC000EF92FF920F931F93CF93DF9300D000D008
:104ED000CDB7DEB7D62EC72E06967C016CE070E00B
:104EE0002B833C8349835A830E94F23E5C01FC0180
:104EF00010868DE0818713861286C486D5865A81F6
:104F00005687498147873C812B81C801432F522F07
:104F1000692F702FF501408B518B628B738BC5010C
:104F20000E94D33EF501058114810E948C45A801A1
:104F3000485F5F4FB5010E942B46B501C7010F9036
:104F40000F900F900F90DF91CF911F910F91FF90D5
:104F5000EF90DF90CF90BF90AF900C94023FEF9214
:104F6000FF920F931F93CF93DF9306967C0164E02B
:104F700070E00E94F23EEC0118868EE089871B8665
:104F80001A86CE010E94D33E0D811C810E948C4561
:104F9000A801485F5F4FBE010E942B46BE01C701BA
:104FA000DF91CF911F910F91FF90EF900C94023FF2
:104FB000CF92DF92EF92FF920F931F93CF93DF93E5
:104FC00000D0CDB7DEB7162F072F06967C0168E01C
:104FD00070E049835A830E94F23E6C01FC01108606
:104FE0008FE08187138612865A81952F4981842FFD
:104FF000402F512F692F782F4487558766877787F1
:10500000C6010E94D33EF601058114810E948C45A1
:10501000A801485F5F4FB6010E942B46B601C70149
:105020000F900F90DF91CF911F910F91FF90EF9014
:10503000DF90CF900C94023FEF92FF920F931F935B
:10504000CF93DF93162F072F06967C0168E070E060
:105050000E94F23EEC01188680E189871B861A8641
:105060000C871D871F861E86CE010E94D33E0D81B0
:105070001C810E948C45A801485F5F4FBE010E94C1
:105080002B46BE01C701DF91CF911F910F91FF9079
:10509000EF900C94023F8F929F92AF92BF92CF926B
:1050A000DF92EF92FF920F931F93CF93DF9300D085
:1050B00000D0CDB7DEB7B62EA72E06966C0160E104
:1050C00070E029833A834B835C830E94F23E4C015B
:1050D000FC01108681E1818713861286A486B5863D
:1050E000178616865C81508B4B81418B3A81328BBF
:1050F0002981238B9801C701432F502F692F7E2DC3
:10510000448B558B668B778BC4010E94D33EF40190
:10511000058114810E948C45A801485F5F4FB4014E
:105120000E942B46B401C6010F900F900F900F9074
:10513000DF91CF911F910F91FF90EF90DF90CF9073
:10514000BF90AF909F908F900C94023F8F929F9250
:10515000AF92BF92CF92DF92EF92FF920F931F9385
:10516000CF93DF9300D000D0CDB7DEB7B62EA72EF9
:1051700006966C0160E170E029833A834B835C837F
:105180000E94F23E4C01FC01108682E18187138669
:105190001286A486B586178616865C81508B4B8155
:1051A000418B3A81328B2981238B9801C701432F90
:1051B000502F692F7E2D448B558B668B778BC401C6
:1051C0000E94D33EF401058114810E948C45A80100
:1051D000485F5F4FB4010E942B46B401C6010F9097
:1051E0000F900F900F90DF91CF911F910F91FF9033
:1051F000EF90DF90CF90BF90AF909F908F900C94E6
:10520000023FEF92FF920F931F93CF93DF93069687
:105210007C0164E070E00E94F23EEC01188683E1BC
:1052200089871B861A86CE010E94D33E0D811C8180
:105230000E948C45A801485F5F4FBE010E942B462B
:10524000BE01C701DF91CF911F910F91FF90EF90A9
:105250000C94023FCF92DF92EF92FF920F931F9335
:10526000CF93DF9300D0CDB7DEB7162F072F06966A
:105270007C0168E070E049835A830E94F23E6C0131
:10528000FC01108684E18187138612865A81952F4E
:105290004981842F402F512F692F782F44875587BC
:1052A00066877787C6010E94D33EF6010581148187
:1052B0000E948C45A801485F5F4FB6010E942B46B3
:1052C000B601C7010F900F90DF91CF911F910F9101
:1052D000FF90EF90DF90CF900C94023FEF92FF92FF
:1052E0000F931F93CF93DF93162F072F06967C0102
:1052F00068E070E00E94F23EEC01188685E1898743
:105300001B861A860C871D871F861E86CE010E946B
:10531000D33E0D811C810E948C45A801485F5F4FE0
:10532000BE010E942B46BE01C701DF91CF911F91A4
:105330000F91FF90EF900C94023F8F929F92AF924B
:10534000BF92CF92DF92EF92FF920F931F93CF9372
:10535000DF9300D000D0CDB7DEB7B62EA72E0696CD
:105360006C0160E170E029833A834B835C830E9487
:10537000F23E4C01FC01108686E18187138612867D
:10538000A486B586178616865C81508B4B81418B2F
:105390003A81328B2981238B9801C701432F502FEB
:1053A000692F7E2D448B558B668B778BC4010E94B1
:1053B000D33EF401058114810E948C45A801485F09
:1053C0005F4FB4010E942B46B401C6010F900F90AD
:1053D0000F900F90DF91CF911F910F91FF90EF9061
:1053E000DF90CF90BF90AF909F908F900C94023F32
:1053F0008F929F92AF92BF92CF92DF92EF92FF92E5
:105400000F931F93CF93DF9300D000D0CDB7DEB7BB
:10541000B62EA72E06966C0160E170E029833A83D0
:105420004B835C830E94F23E4C01FC01108687E1B5
:10543000818713861286A486B586178616865C81B8
:10544000508B4B81418B3A81328B2981238B980180
:10545000C701432F502F692F7E2D448B558B668BB0
:10546000778BC4010E94D33EF401058114810E9410
:105470008C45A801485F5F4FB4010E942B46B401E0
:10548000C6010F900F900F900F90DF91CF911F9159
:105490000F91FF90EF90DF90CF90BF90AF909F90D3
:1054A0008F900C94023FEF92FF920F931F93CF9334
:1054B000DF9306967C0164E070E00E94F23EEC010E
:1054C000188688E189871B861A86CE010E94D33E02
:1054D0000D811C810E948C45A801485F5F4FBE0171
:1054E0000E942B46BE01C701DF91CF911F910F9102
:1054F000FF90EF900C94023FCF92DF92EF92FF92D9
:105500000F931F93CF93DF9300D0CDB7DEB7162F45
:10551000072F06967C0168E070E049835A830E9459
:10552000F23E6C01FC01108689E1818713861286A8
:105530005A81952F4981842F402F512F692F782F21
:105540004487558766877787C6010E94D33EF60158
:10555000058114810E948C45A801485F5F4FB60108
:105560000E942B46B601C7010F900F90DF91CF919B
:105570001F910F91FF90EF90DF90CF900C94023F1E
:10558000EF92FF920F931F93CF93DF9306967C01C8
:1055900064E070E00E94F23EEC0118868AE189879F
:1055A0001B861A86CE010E94D33E0D811C810E946B
:1055B0008C45A801485F5F4FBE010E942B46BE018B
:1055C000C701DF91CF911F910F91FF90EF900C9445
:1055D000023FEF92FF920F931F93CF93DF930696B4
:1055E0007C0164E070E00E94F23EEC0118868BE1E1
:1055F00089871B861A86CE010E94D33E0D811C81AD
:105600000E948C45A801485F5F4FBE010E942B4657
:10561000BE01C701DF91CF911F910F91FF90EF90D5
:105620000C94023FEF92FF920F931F93CF93DF935F
:1056300006967C0164E070E00E94F23EEC01188660
:105640008CE189871B861A86CE010E94D33E0D818C
:105650001C810E948C45A801485F5F4FBE010E94DB
:105660002B46BE01C701DF91CF911F910F91FF9093
:10567000EF900C94023FEF92FF920F931F93CF9302
:10568000DF9306967C0164E070E00E94F23EEC013C
:1056900018868DE189871B861A86CE010E94D33E2B
:1056A0000D811C810E948C45A801485F5F4FBE019F
:1056B0000E942B46BE01C701DF91CF911F910F9130
:1056C000FF90EF900C94023FCF92DF92EF92FF9207
:1056D0000F931F93CF93DF9300D0CDB7DEB7162F74
:1056E000072F06967C0168E070E049835A830E9488
:1056F000F23E6C01FC0110868EE1818713861286D2
:105700005A81952F4981842F402F512F692F782F4F
:105710004487558766877787C6010E94D33EF60186
:10572000058114810E948C45A801485F5F4FB60136
:105730000E942B46B601C7010F900F90DF91CF91C9
:105740001F910F91FF90EF90DF90CF900C94023F4C
:10575000CF92DF92EF92FF920F931F93CF93DF933D
:1057600000D0CDB7DEB7162F072F06967C0168E074
:1057700070E049835A830E94F23E6C01FC0110865E
:105780008FE1818713861286048715875A81568791
:1057900049814787C6010E94D33EF60105811481E5
:1057A0000E948C45A801485F5F4FB6010E942B46BE
:1057B000B601C7010F900F90DF91CF911F910F910C
:1057C000FF90EF90DF90CF900C94023FCF92DF924A
:1057D000EF92FF920F931F93CF93DF9300D0CDB73B
:1057E000DEB7162F072F06967C0168E070E049832C
:1057F0005A830E94F23E6C01FC01108680E2818790
:1058000013861286048715875A81568749814787F0
:10581000C6010E94D33EF601058114810E948C4589
:10582000A801485F5F4FB6010E942B46B601C70131
:105830000F900F90DF91CF911F910F91FF90EF90FC
:10584000DF90CF900C94023FEF92FF920F931F9343
:10585000CF93DF9306967C0164E070E00E94F23EF5
:10586000EC01188681E289871B861A86CE010E9488
:10587000D33E0D811C810E948C45A801485F5F4F7B
:10588000BE010E942B46BE01C701DF91CF911F913F
:105890000F91FF90EF900C94023FEF92FF920F93C5
:1058A0001F93CF93DF9306967C0164E070E00E9423
:1058B000F23EEC01188682E289871B861A86CE01A9
:1058C0000E94D33E0D811C810E948C45A801485F37
:1058D0005F4FBE010E942B46BE01C701DF91CF91F1
:1058E0001F910F91FF90EF900C94023FEF92FF9267
:1058F0000F931F93CF93DF93162F072F06967C01EC
:1059000068E070E00E94F23EEC01188683E289872D
:105910001B861A860C871D871F861E86CE010E9455
:10592000D33E0D811C810E948C45A801485F5F4FCA
:10593000BE010E942B46BE01C701DF91CF911F918E
:105940000F91FF90EF900C94023F8F929F92AF9235
:10595000BF92CF92DF92EF92FF920F931F93CF935C
:10596000DF9300D000D0CDB7DEB7B62EA72E0696B7
:105970006C0160E170E029833A834B835C830E9471
:10598000F23E4C01FC01108684E281871386128668
:10599000A486B586178616865C81508B4B81418B19
:1059A0003A81328B2981238B9801C701432F502FD5
:1059B000692F7E2D448B558B668B778BC4010E949B
:1059C000D33EF401058114810E948C45A801485FF3
:1059D0005F4FB4010E942B46B401C6010F900F9097
:1059E0000F900F90DF91CF911F910F91FF90EF904B
:1059F000DF90CF90BF90AF909F908F900C94023F1C
:105A00008F929F92AF92BF92CF92DF92EF92FF92CE
:105A10000F931F93CF93DF9300D000D0CDB7DEB7A5
:105A2000B62EA72E06966C0160E170E029833A83BA
:105A30004B835C830E94F23E4C01FC01108685E2A0
:105A4000818713861286A486B586178616865C81A2
:105A5000508B4B81418B3A81328B2981238B98016A
:105A6000C701432F502F692F7E2D448B558B668B9A
:105A7000778BC4010E94D33EF401058114810E94FA
:105A80008C45A801485F5F4FB4010E942B46B401CA
:105A9000C6010F900F900F900F90DF91CF911F9143
:105AA0000F91FF90EF90DF90CF90BF90AF909F90BD
:105AB0008F900C94023FEF92FF920F931F93CF931E
:105AC000DF9306967C0164E070E00E94F23EEC01F8
:105AD000188686E289871B861A86CE010E94D33EED
