:100000000C94A6020C94CE020C94CE020C94CE0258
:100010000C94CE020C94CE020C94CE020C94CE0220
:100020000C94CE020C94CE020C94CE020C94CE0210
:100030000C94CE020C94CE020C94CE020C94CE0200
:100040000C9477450C94CE020C94CE020C94CE0204
:100050000C944C460C94CE020C94CE020C94CE021E
:100060000C94CE020C94CE020C94CE020C94CE02D0
:10007000E90100007A4406E90100007A4405E9013B
:1000800000007A4404F6010000803F06F6010000FB
:10009000803F05F6010000803F04000200247449FF
:1000A00005000200247449040F0200007A44060F80
:1000B0000200007A44050F0200007A4404D00200D6
:1000C00000D2020000D10200006F0900002B0300E3
:1000D0000099030000CB03000002040000C30B00E2
:1000E0000051040000810400009D040000CF0400C2
:1000F00000060500007E0B000055050000620300AD
:100100000085050000C90500004D0C00008D0A00A7
:10011000001D060000390600007D060000080C00E6
:1001200000920C0000D1060000D9060000E1060094
:1001300000E906000000090000F10600002B07009E
:10014000007E07000086070000C2080000BB070011
:10015000001B0800003D0A00008508000008080098
:10016000008E070000AA070000A3090000462F77B1
:10017000206465762000492D5620536F75726365A3
:10018000204D6574657200ACC5273717B7D1386F3D
:1001900012833A0AD7233CCDCCCC3D08040201009F
:1001A00000000100020003000400ACC5273717B7A8
:1001B000D1386F12833A0AD7233CCDCCCC3D08040A
:1001C000020100000001000200030004007720008B
:1001D0000078200000752400006D2100008F2100B0
:1001E00000B1210000C42100001E23000082200075
:1001F000003D230000D7210000F92100000C22005F
:10020000005823000090200000772300001F2200E8
:100210000041220000922300009E20000054220092
:10022000006722000089220000B1230000AC2000FA
:10023000009C220000BA200000C8200000D6200048
:1002400000E4200000AF220000EF230000022400A1
:1002500000F220000000210000C2220000D622008F
:1002600000D02300000E210000E92200001C210024
:1002700000FC2200002A21000019240000000001D7
:10028000000000000001000200030004000500005F
:100290000001000200030004000000010000000152
:1002A00000020003000400000001001E001E001EEA
:1002B000001E001E001E001E002800280028002826
:1002C00000280028002800280028002800280020F6
:1002D00000280013000C000D000E000F001000118C
:1002E000000700080009000A000B000500060000D6
:1002F0000001000200030004006F12833A0AD723B2
:100300003CCDCCCC3D0000803F000020410000C827
:100310004208040201003000000100000001000258
:100320000003000400050000002041000000002040
:10033000410000C842002000000100030003000249
:10034000000AD7233C0300030003000AD7233C0321
:1003500000030004000AD7233C0200020004006FDF
:1003600012833A01000100040017B7D138010001DF
:10037000000400ACC52737010001000400BD37862A
:10038000350300030002000AD7233CCDCCCC3D034B
:1003900000030003000AD7233C0000803F03000352
:1003A0000004000AD7233C000020410200020004A0
:1003B000006F12833A000020410100010004001781
:1003C000B7D13800002041010001000400ACC5276E
:1003D0003700002041010001000400BD37863500D0
:1003E0000020410000010002000300040005000697
:1003F0000080C0B03E0000B13E0000B73E0000BD2E
:100400003E000000FFFFFFFF000100FF0020001082
:1004100000080004000102033A47000041470000C1
:1004200060470000EC4700007F4700000C480000D8
:10043000864700008D47000094470000AC4700004D
:10044000B3470000D74700006E616E00696E66001A
:1004500000407A10F35A00A0724E18090010A5D47B
:10046000E80000E87648170000E40B54020000CAD8
:100470009A3B000000E1F50500008096980000001E
:1004800040420F000000A08601000000102700007D
:100490000000E803000000006400000000000A0003
:1004A000000000000100000000002C76D888DC6706
:1004B0004F0823DFC1DFAE59E1B1B796E5E3E4535E
:1004C000C63AE651997696E8E6C28426EB898C9B7B
:1004D00062ED407C6FFCEFBC9C9F40F2BAA56FA51B
:1004E000F490055A2AF75C936B6CF9676DC11BFC9D
:1004F000E0E40D47FEF520E6B500D0ED902E0300B8
:10050000943577050080841E080000204E0A000004
:1005100000C80C333333330F986E12831141EF8DC3
:100520002114893BE65516CFFEE6DB18D1844B3803
:100530001BF77C1D901DA4BBE424203284725E2234
:100540008100C9F124ECA1E53D27E23911241FBE49
:10055000CFEFD0E1DEBFCDBF12E0A0E0B1E0EAEE28
:10056000F7EA02C005900D92A639B107D9F725E048
:10057000A6E9B2E001C01D92A738B207E1F712E088
:10058000C6EAD2E004C02197FE010E940B51C53A91
:10059000D107C9F70E945C100C94F3530C9400002F
:1005A00008950895CF92DF92EF92FF920F931F93D9
:1005B000CF93DF9300D000D0CDB7DEB70E940B39C8
:1005C000FC01C080D1800D2C000CEE08FF087601E4
:1005D000DD24CC240E940B39FC0182819381092EF9
:1005E000000CAA0BBB0BBA2FA92F982F8827C82A5B
:1005F000D92AEA2AFB2A0E940B39FC012481358181
:10060000C901330FAA0BBB0BA7019601282B392B6D
:100610004A2B5B2B29833A834B835C830E94002502
:100620001DEFE12EFF24FA940FEF1FEF29813A818D
:100630004B815C8168E171E00E9420250F900F9052
:100640000F900F90DF91CF911F910F91FF90EF903E
:10065000DF90CF9008950F931F93CF93DF93EB011B
:100660008A819B810E94381A8C010E94EB1AB80182
:100670000E94481A0E94EB1AFC01808191810E941D
:10068000CB248C010E940025B8010E94D3288A81C6
:100690009B810E94C61DEC010E94BE1FBE010E94EC
:1006A000931E0E94BE1FFC01848195810E94AB2491
:1006B000EC010E940025BE01DF91CF911F910F91A7
:1006C0000C94A9250F931F93CF93DF93EB018A819D
:1006D0009B810E94C61D8C010E94BE1FB8010E9412
:1006E000931E0E94BE1FFC01848195810E94AB2451
:1006F0008C010E940025B8010E94A9258A819B8156
:100700000E94381AEC010E94EB1ABE010E94481A9E
:100710000E94EB1AFC01808191810E94CB24EC01A4
:100720000E940025BE01DF91CF911F910F910C9483
:10073000D3288F929F92AF92BF92EF92FF920F9326
:100740001F93CF93DF93FB01C281D3810E94BE1F11
:10075000DD27FE01EE0FFF1FEC0FFD1FEE0FFF1F49
:10076000E80FF91F80849184A284B384E680F78027
:100770000E94002595018401A701BE010E94D82591
:10078000DF91CF911F910F91FF90EF90BF90AF90AD
:100790009F908F9008958F929F92AF92BF92EF9209
:1007A000FF920F931F93CF93DF93FB01C281D381FD
:1007B000DD270E94BE1FBE010E9441200E94BE1F75
:1007C000FE01EE0FFF1FEC0FFD1FEE0FFF1FE80FE6
:1007D000F91F80849184A284B384E680F7800E940C
:1007E000002595018401A701BE010E942B26DF91FF
:1007F000CF911F910F91FF90EF90BF90AF909F907E
:100800008F9008958F929F92AF92BF92CF92DF9276
:10081000EF92FF920F931F93CF93DF9300D000D0FE
:10082000CDB7DEB7FB012481358146815781C28077
:10083000D380DD2429833A834B835C830E94BE1FCF
:1008400029813A814B815C81B6010E9451200E942E
:10085000BE1FF601EE0FFF1FEC0DFD1DEE0FFF1F7B
:10086000E80FF91F80849184A284B384E680F78026
:100870000E94002595018401A701B6010E947E26F1
:100880000F900F900F900F90DF91CF911F910F91CC
:10089000FF90EF90DF90CF90BF90AF909F908F90A0
:1008A0000895CF93DF9300D000D0CDB7DEB7FB0122
:1008B000428153816481758149835A836B837C8330
:1008C0000E94BE1F49815A816B817C810E94CC1F8E
:1008D0000E94BE1FFC014081518162817381498366
:1008E0005A836B837C830E94002549815A816B81E6
:1008F0007C810F900F900F900F90DF91CF910C940F
:10090000FA26CF93DF93FB01828193810E942A35DF
:10091000EC010E945636BE010E943D350E945636BB
:10092000FC01848195810E94BB24EC010E9400257A
:10093000BE01DF91CF910C943E278F929F92AF9290
:10094000BF92EF92FF920F931F93CF93DF93FB0120
:10095000C281D3810E945636DD27FE01EE0FFF1FB4
:10096000EC0FFD1FEE0FFF1FE80FF91F808491842D
:10097000A284B384E680F7800E940025950184015B
:10098000A701BE010E946D27DF91CF911F910F91AA
:10099000FF90EF90BF90AF909F908F9008958F92AF
:1009A0009F92AF92BF92EF92FF920F931F93CF93BC
:1009B000DF93FB01C281D381DD270E945636BE0141
:1009C0000E9412370E945636FE01EE0FFF1FEC0FF9
:1009D000FD1FEE0FFF1FE80FF91F80849184A28492
:1009E000B384E680F7800E94002595018401A70169
:1009F000BE010E94C027DF91CF911F910F91FF9000
:100A0000EF90BF90AF909F908F9008958F929F929C
:100A1000AF92BF92CF92DF92EF92FF920F931F930C
:100A2000CF93DF9300D000D0CDB7DEB7FB01248198
:100A3000358146815781C280D380DD2429833A8362
:100A40004B835C830E94563629813A814B815C81BD
:100A5000B6010E9422370E945636F601EE0FFF1FA4
:100A6000EC0DFD1DEE0FFF1FE80FF91F8084918430
:100A7000A284B384E680F7800E940025950184015A
:100A8000A701B6010E9413280F900F900F900F90AE
:100A9000DF91CF911F910F91FF90EF90DF90CF905A
:100AA000BF90AF909F908F900895CF93DF9300D029
:100AB00000D0CDB7DEB7FB014281538164817581DF
:100AC00049835A836B837C830E94563649815A81BD
:100AD0006B817C810E949D360E945636FC014081CC
:100AE00051816281738149835A836B837C830E9425
:100AF000002549815A816B817C810F900F900F9066
:100B00000F90DF91CF910C948F28AF92BF92CF922C
:100B1000DF92EF92FF920F931F93CF93DF9300D05A
:100B200000D0CDB7DEB7FB01E280F3800E94EB1A64
:100B30005701BB24F501EE0FFF1FEE0FFF1FEE0F55
:100B4000FF1FE80FF91FC680D780E084F18422815F
:100B500033814481558129833A834B835C830E948E
:100B600000258701760129813A814B815C81B5019D
:100B70000E9402290F900F900F900F90DF91CF915C
:100B80001F910F91FF90EF90DF90CF90BF90AF90AB
:100B90000895AF92BF92CF92DF92EF92FF920F93A0
:100BA0001F93CF93DF9300D000D0CDB7DEB7FB010A
:100BB0002481358146815781A280B380BB2429835B
:100BC0003A834B835C830E94EB1A29813A814B81E3
:100BD0005C81B5010E947D1C0E94EB1AF501EE0FAD
:100BE000FF1FEE0FFF1FEE0FFF1FE80FF91FC6805C
:100BF000D780E084F1842281338144815581298327
:100C00003A834B835C830E9400258701760129810A
:100C10003A814B815C81B5010E945D290F900F9054
:100C20000F900F90DF91CF911F910F91FF90EF9058
:100C3000DF90CF90BF90AF900895CF93DF93FB01EB
:100C4000828193810E94AB2FEC010E94FC30BE0197
:100C50000E94CB2F0E94FC30FC01808191810E9478
:100C6000DB24EC010E940025BE01DF91CF910C94A2
:100C7000252AAF92BF92CF92DF92EF92FF920F930D
:100C80001F93CF93DF9300D000D0CDB7DEB7FB0129
:100C9000E280F3800E94FC305701BB24F501EE0F87
:100CA000FF1FEE0FFF1FEE0FFF1FE80FF91FC6809B
:100CB000D780E084F1842281338144815581298366
:100CC0003A834B835C830E9400258701760129814A
:100CD0003A814B815C81B5010E94542A0F900F909C
:100CE0000F900F90DF91CF911F910F91FF90EF9098
:100CF000DF90CF90BF90AF900895AF92BF92CF9208
:100D0000DF92EF92FF920F931F93CF93DF9300D068
:100D100000D0CDB7DEB7FB012481358146815781F4
:100D2000A280B380BB2429833A834B835C830E94D7
:100D3000FC3029813A814B815C81B5010E94CC3124
:100D40000E94FC30F501EE0FFF1FEE0FFF1FEE0FAC
:100D5000FF1FE80FF91FC680D780E084F18422814D
:100D600033814481558129833A834B835C830E947C
:100D700000258701760129813A814B815C81B5018B
:100D80000E94AF2A0F900F900F900F90DF91CF919C
:100D90001F910F91FF90EF90DF90CF90BF90AF9099
:100DA00008950E94BE1F0E94F01F0E9400250C940F
:100DB000772B0E9456360E94C1360E9400250C9463
:100DC000A02B0E94EB1A0E94161C0E9400250C9476
:100DD000C92B0E94FC300E9465310E9400250C94B2
:100DE000F22BCF93DF93FB018281938181309105B8
:100DF00021F18230910599F0892B19F0DF91CF9183
:100E000008950E940B39FC01C081D1810E94002508
:100E1000AE0160E070E0DF91CF910C945F2C0E94F6
:100E20000B39FC01C481D5810E940025AE0162E02E
:100E300070E0DF91CF910C945F2C0E940B39FC0184
:100E4000C281D3810E940025AE0161E070E0DF9194
:100E5000CF910C945F2CCF93DF93FB018281938120
:100E6000C481D58181309105B1F18230910501F1C4
:100E7000009759F08130910599F182309105E9F0A0
:100E8000892B41F0DF91CF9108950E940B39FC012D
:100E9000D183C0830E940B39FC01C081D1810E94A3
:100EA0000025AE0160E070E0DF91CF910C949D2CA5
:100EB0000E940B39FC01D583C4830E940B39FC01CD
:100EC000C481D5810E940025AE0162E070E0DF910F
:100ED000CF910C949D2C0E940B39FC01D383C283CB
:100EE0000E940B39FC01C281D3810E940025AE0112
:100EF00061E070E0DF91CF910C949D2C0E940B3942
:100F00000E9465390E9400250C94DB2C0E940B394D
:100F10000E9471390E9400250C94042DCF93DF9319
:100F2000FB01828193810E94BB2FEC010E94FC3067
:100F3000BE010E9475320E94FC30FC0183AD94AD6D
:100F40000E94F024EC010E940025BE01DF91CF91A8
:100F50000C94A82ECF93DF930E94FC30FC0183AD4C
:100F600094AD0E94F024EC010E940025BE01DF91A7
:100F7000CF910C94D72EAF92BF92CF92DF92EF9287
:100F8000FF920F931F93CF93DF9300D000D0CDB784
:100F9000DEB7FB01E280F3808091DA02811107C0A5
:100FA00085EA92E00E94B63281E08093DA0257012E
:100FB000BB24F501EE0FFF1FEE0FFF1FEE0FFF1F0B
:100FC000EB55FD4FC184D284E384F48425813681BE
:100FD0004781508529833A834B835C830E94002597
:100FE0008701760129813A814B815C81B5010E949C
:100FF0005C2D0F900F900F900F90DF91CF911F916C
:101000000F91FF90EF90DF90CF90BF90AF90089539
:101010008091DA02811107C085EA92E00E94B6321F
:1010200081E08093DA0285EA92E00E9481340E9496
:1010300000250C947F2EAF92BF92CF92DF92EF9259
:10104000FF920F931F93CF93DF9300D000D0CDB7C3
:10105000DEB7FB012481358146815781A280B380B0
:10106000BB248091DA02882309F43FC0B50185EAE8
:1010700092E00E9414348091DA02811107C085EA5F
:1010800092E00E94B63281E08093DA02F501EE0F21
:10109000FF1FEE0FFF1FEE0FFF1FEB55FD4FC1842B
:1010A000D284E384F4842581368147815085298365
:1010B0003A834B835C830E94002587017601298156
:1010C0003A814B815C81B5010E94B72D0F900F9042
:1010D0000F900F90DF91CF911F910F91FF90EF90A4
:1010E000DF90CF90BF90AF90089585EA92E029837A
:1010F0003A834B835C830E94B63281E08093DA02AC
:101100005C814B813A812981B1CF0F931F93CF939B
:10111000DF9300D000D0CDB7DEB78B010E944837F7
:101120000E946037F801628173818091DA02811137
:101130000BC085EA92E06B837C830E94B63281E02B
:101140008093DA027C816B8185EA92E00E94E83428
:10115000AB01BC0149835A836B837C830E940025C9
:1011600049815A816B817C810E943B2E0E944837C5
:101170000F900F900F900F90DF91CF911F910F91D3
:101180000C9462370F931F93CF93DF9300D0CDB7AA
:10119000DEB7FB01828193810E94B132BC01809154
:1011A000DA02882309F185EA92E00E948133809176
:1011B000DA02811107C085EA92E00E94B63281E02E
:1011C0008093DA028091A8029091A9020E94EB24F8
:1011D0008C010E940025B8010F900F90DF91CF91F4
:1011E0001F910F910C942D2D85EA92E069837A83EB
:1011F0000E94B63281E08093DA027A816981D3CF8E
:101200000F931F93CF93DF9300D000D0CDB7DEB7FD
:101210008B010E9456360E943A350E9448370E9440
:101220005E370E94BE1F0E94D61D0E9448370E9452
:101230005837F801028113810E946437B8010E9477
:10124000BC38AB01BC0149835A836B837C830E9409
:10125000002549815A816B817C810F900F900F90FE
:101260000F90DF91CF911F910F910C941B2CCF9277
:10127000DF92EF92FF92DB01ED91FC91EC32F105F0
:1012800048F5EE0FFF1FEE0FFF1FE354FF4FC59011
:10129000D590E590F490F601970135952795E0FEFD
:1012A00012C0DC01A20FB31F2D913C911197F901DF
:1012B000EC0DFD1D0190F081E02DCD01FF90EF9030
:1012C000DF90CF900994820F931FFF90EF90DF90F3
:1012D000CF900994FF90EF90DF90CF900895FB019D
:1012E000828193810097C9F00197B1F40E94BE1FDB
:1012F0000E94901E0E9448370E945A370E9456361C
:101300000E9464360E9448370E945C370E94002584
:1013100061E070E00C947A2508950E9456360E9490
:101320003A350E9448370E945E370E94BE1F0E94D5
:10133000D61D0E9448370E9458370E94002560E061
:1013400070E00C947A258F929F92BF92CF92DF9299
:10135000EF92FF920F931F93CF93DF9300D000D0B3
:10136000CDB7DEB74C018B01BB24B394FC01B28630
:101370000E949C450E94BE456B017C010E949C45D9
:1013800040E050E060E070E40E94CA45C60ED71EFF
:10139000E81EF91EF401C386D486E586F6860E940F
:1013A000E73940E060E00E94CB3A0E94E73963E20F
:1013B00071E00E94FA3A0E94E73940E061E00E9441
:1013C000CB3A0E94E73964E371E00E94FA3AF801EF
:1013D0004281538164817581F4014683578360871C
:1013E000718749835A836B837C830E9400254981DE
:1013F0005A816B817C810E94062FF401B2860E9483
:101400009C450E94BE456B017C010E949C4540E0CA
:1014100050E060E070E40E94CA45C60ED71EE81E88
:10142000F91EF401C386D486E586F6860E94E73964
:1014300040E060E00E94CB3A0E94E73965E471E049
:101440000E94FA3A0E94E73940E061E00E94CB3AFC
:101450000E94E73966E571E00F900F900F900F90B2
:10146000DF91CF911F910F91FF90EF90DF90CF9080
:10147000BF909F908F900C94FA3ACF92DF92EF92A8
:10148000FF92CF93DF93EC018091DA02811107C0C4
:1014900085EA92E00E94B63281E08093DA0285EA22
:1014A00092E00E946B340E9400250E94122E81E07F
:1014B0008A870E949C450E94BE456B017C010E9468
:1014C0009C4540E050E060E070E40E94CA45C60ED2
:1014D000D71EE81EF91ECB86DC86ED86FE860E94AE
:1014E000E73940E060E00E94CB3A0E94E73967E6C6
:1014F00071E00E94FA3A0E94E73940E061E00E9400
:10150000CB3A0E94E73968E771E0DF91CF91FF9015
:10151000EF90DF90CF900C94FA3A8F929F92AF9217
:10152000BF92CF92DF92EF92FF920F931F93CF93D0
:10153000DF93CDB7DEB72B970FB6F894DEBF0FBEA3
:10154000CDBF8C017B010E9448370E946037F701B4
:10155000E280F3800E94EB1AB7010E94781B4B01D6
:101560005C010E940025B501A4010E94E12981E0EF
:10157000F80182870E949C450E94BE456B017C0158
:101580000E949C4540E050E060E070E40E94CA4543
:10159000C60ED71EE81EF91EF801C386D486E5865E
:1015A000F6860E94FC300E94EB1AFC01E080F1807C
:1015B0000E94E7390E94EF3AFC0196E0DE011196A5
:1015C00001900D929A95E1F70E94E73940E060E0C2
:1015D0000E94CB3A8701000F111F000F111F000F4F
:1015E000111F0E191F09F801E656FF4FE590F49000
:1015F00082E00E94643E8B8781E00E94643E8A877D
:10160000F801E456FF4F2591359145915491C5015C
:10161000B4010E9411504B015C01F801E056FF4FEC
:1016200084910E94653E898789E00E94643E888794
:1016300084E00E94643E8F830E94E7396DE17EE37F
:101640000E94D33DBE01695F7F4F0E94663E69E8FC
:1016500071E00E94FA3A61E47EE30E94D33D65EDB9
:101660007DE30E94D33D69EF7DE30E94D33DBE013F
:10167000685F7F4F0E94663EBE01675F7F4F0E949A
:101680008B3EB501A4010E94B93CBE01665F7F4F4D
:101690000E94663E67E871E00E94FA3A6DE17EE3DF
:1016A0000E94D33DBE01655F7F4F0E94663EB70139
:1016B0000E94FA3A0E94E73940E061E00E94CB3A8A
:1016C0000E94E739BE016F5F7F4F0E94F13A0E948E
:1016D00048370E9462372B960FB6F894DEBF0FBED4
:1016E000CDBFDF91CF911F910F91FF90EF90DF90D1
:1016F000CF90BF90AF909F908F900895CF92DF9240
:10170000EF92FF92CF93DF93EC010E9456360E9436
:1017100032370E9400250E94662881E08A870E9455
:101720009C450E94BE456B017C010E949C4540E0A7
:1017300050E060E070E40E94CA45C60ED71EE81E65
:10174000F91ECB86DC86ED86FE860E94E73940E0F6
:1017500060E00E94CB3A0E94E73967E671E00E94A0
:10176000FA3A0E94E73940E061E00E94CB3A0E94D9
:10177000E73968E771E0DF91CF91FF90EF90DF905C
:10178000CF900C94FA3ACF92DF92EF92FF92CF93E0
:10179000DF93EC010E94BE1F0E9461200E94002581
:1017A0000E94D12681E08A870E949C450E94BE4506
:1017B0006B017C010E949C4540E050E060E070E4D9
:1017C0000E94CA45C60ED71EE81EF91ECB86DC86CF
:1017D000ED86FE860E94E73940E060E00E94CB3A49
:1017E0000E94E73967E671E00E94FA3A0E94E73901
:1017F00040E061E00E94CB3A0E94E73968E771E07F
:10180000DF91CF91FF90EF90DF90CF900C94FA3A58
:10181000CF92DF92EF92FF92CF93DF93EC010E9481
:10182000FC300E942A320E9400250E940A2B81E08F
:101830008A870E949C450E94BE456B017C010E94E4
:101840009C4540E050E060E070E40E94CA45C60E4E
:10185000D71EE81EF91ECB86DC86ED86FE860E942A
:10186000E73940E060E00E94CB3A0E94E73967E642
:1018700071E00E94FA3A0E94E73940E061E00E947C
:10188000CB3A0E94E73968E771E0DF91CF91FF9092
:10189000EF90DF90CF900C94FA3ACF92DF92EF92D4
:1018A000FF92CF93DF93EC010E94EB1A0E942C1D54
:1018B0000E9400250E94B82981E08A870E949C45E9
:1018C0000E94BE456B017C010E949C4540E050E0B7
:1018D00060E070E40E94CA45C60ED71EE81EF91EDD
:1018E000CB86DC86ED86FE860E94E73940E060E02C
:1018F0000E94CB3A0E94E73967E671E00E94FA3A0B
:101900000E94E73940E061E00E94CB3A0E94E7394B
:1019100068E771E0DF91CF91FF90EF90DF90CF907B
:101920000C94FA3A8F929F92AF92BF92CF92DF922D
:10193000EF92FF920F931F93CF93DF93CDB7DEB754
:101940002B970FB6F894DEBF0FBECDBF8C017B0185
:101950000E9448370E946037F701E280F3800E94BE
:10196000FC30B7010E940A314B015C010E94002546
:10197000B501A4010E94332B81E0F80182870E9407
:101980009C450E94BE456B017C010E949C4540E045
:1019900050E060E070E40E94CA45C60ED71EE81E03
:1019A000F91EF801C386D486E586F6860E94FC30CF
:1019B000FC01E080F1800E94EB1A0E94E7390E944E
:1019C000EF3AFC0196E0DE01119601900D929A9596
:1019D000E1F70E94E73940E060E00E94CB3A0E94C4
:1019E000E73940E061E00E94CB3A8701000F111F08
:1019F000000F111F000F111F0E191F09F801E059E8
:101A0000FF4FE590F49082E00E94643E8B8781E076
:101A10000E94643E8A87F801EE58FF4F2591359168
:101A200045915491C501B4010E9411504B015C01D4
:101A3000F801EA58FF4F84910E94653E898789E04A
:101A40000E94643E888784E00E94643E8F830E94E7
:101A5000E7396DE17EE30E94D33DBE01695F7F4FB0
:101A60000E94663E6CE871E00E94FA3A61E47EE30F
:101A70000E94D33D65ED7DE30E94D33D69EF7DE398
:101A80000E94D33DBE01685F7F4F0E94663EBE014B
:101A9000675F7F4F0E948B3EB501A4010E94B93C55
:101AA000BE01665F7F4F0E94663E67E871E00E945C
:101AB000FA3A6DE17EE30E94D33DBE01655F7F4F40
:101AC0000E94663EB7010E94FA3A0E94E739BE01C1
:101AD0006F5F7F4F0E94F13A0E9448370E94623741
:101AE0002B960FB6F894DEBF0FBECDBFDF91CF911E
:101AF0001F910F91FF90EF90DF90CF90BF90AF902C
:101B00009F908F9008950F931F93CF93DF93CDB73E
:101B1000DEB7AB970FB6F894DEBF0FBECDBF0E9405
:101B2000E7390E94EF3AFC0196E0DE0191960190C0
:101B30000D929A95E1F70E94E73940E060E00E943B
:101B4000CB3A66E771E0CE0101960E9416538C01F4
:101B50000E94E739B8010E94FA3A0E94E73940E052
:101B600061E00E94CB3A82E00E94643E8FA381E054
:101B70000E94643E88A782E00E94643E89A781E0BB
:101B80000E94643E8AA782E00E94643E8BA76DE6B5
:101B900071E0CE0101960E9416538C010E94E73934
:101BA000B8010E94FA3ABE01655D7F4F0E94663E11
:101BB00069EF7DE30E94D33D4FEF50E060E070E0BD
:101BC0000E94C43BBE01665D7F4F0E94663E6FE887
:101BD00071E00E94FA3ABE01675D7F4F0E94663E47
:101BE00069EF7DE30E94D33D4FEF50E060E070E08D
:101BF0000E94C43BBE01685D7F4F0E94663E6FE855
:101C000071E00E94FA3ABE01695D7F4F0E94663E14
:101C100069EF7DE30E94D33D4DEF50E060E070E05E
:101C20000E94C43B0E94E739BE016F5D7F4F0E9456
:101C3000F13AAB960FB6F894DEBF0FBECDBFDF9181
:101C4000CF911F910F910895CF92DF92EF92FF9263
:101C5000CF93DF93EC010E94B83986E192E099833B
:101C600088831A861B861C861D861E860E94E7397D
:101C70000E94BE1F0E9456360E94EB1A0E94FC3042
:101C80008091DA02811107C085EA92E00E94B632A3
:101C900081E08093DA020E9464370E9400250E944E
:101CA000BE1F0E94D61D0E9448370E9458370E94CE
:101CB000563640E050E0BA010E949D360E94FC304A
:101CC00060E070E00E9475320E940025AE0167E37B
:101CD00079E00E94D239CE010E94830D789481E090
:101CE0008A870E949C450E94BE456B017C010E9430
:101CF0009C4540E050E060E070E40E94CA45C60E9A
:101D0000D71EE81EF91ECB86DC86ED86FE86DF91A7
:101D1000CF91FF90EF90DF90CF9008952F923F9258
:101D20004F925F926F927F928F929F92AF92BF92EB
:101D3000CF92DF92EF92FF920F931F93CF93DF9397
:101D4000CDB7DEB72B970FB6F894DEBF0FBECDBF71
:101D5000F62E29013A010E94E7390E94EF3AFC0170
:101D600096E0DE01119601900D929A95E1F70E949E
:101D7000E73940E060E00E94CB3AF11099C00E9440
:101D8000E73940E061E00E94CB3AEE2009F470C0F0
:101D90008401000F111F000F111F000F111F0819E0
:101DA0001909F801E059FF4FE590F49082E00E9494
:101DB000643E8F8381E00E94643E8887F801EE587C
:101DC000FF4F2591359145915491C601B5010E946F
:101DD00011504B015C01F801EA58FF4F84910E94B9
:101DE000653E898789E00E94643E8A8784E00E947C
:101DF000643E8B870E94E7396DE17EE30E94D33D0C
:101E0000BE01655F7F4F0E94663E6CE871E00E94F4
:101E1000FA3A61E47EE30E94D33D65ED7DE30E94E2
:101E2000D33D69EF7DE30E94D33DBE01665F7F4FE6
:101E30000E94663EBE01675F7F4F0E948B3EB501E8
:101E4000A4010E94B93CBE01685F7F4F0E94663EBC
:101E500067E871E00E94FA3A6DE17EE30E94D33DAB
:101E6000BE01695F7F4F0E94663EB7010E94FA3A49
:101E70000E94E739BE016F5F7F4F0E94F13A2B96B7
:101E80000FB6F894DEBF0FBECDBFDF91CF911F918B
:101E90000F91FF90EF90DF90CF90BF90AF909F9009
:101EA0008F907F906F905F904F903F902F9008950C
:101EB000F801EE0FFF1FEE0FFF1FEE0FFF1FCF0108
:101EC000801B910B8C01FC01E656FF4F259034904E
:101ED00082E00E94643E8F8381E00E94643E888796
:101EE000F801E456FF4F2591359145915491C30176
:101EF000B2010E9411502B013C01F801E056FF4F46
:101F000084910E94653E898789E00E94643E8A87A9
:101F100084E00E94643E8B870E94E7396DE17EE396
:101F20000E94D33DBE01655F7F4F0E94663E69E817
:101F300071E00E94FA3A61E47EE30E94D33D65EDD0
:101F40007DE30E94D33D69EF7DE30E94D33DBE0156
:101F5000665F7F4F0E94663EBE01675F7F4F0E94B3
:101F60008B3EB301A2010E94B93CBE01685F7F4F66
:101F70000E94663E67E871E00E94FA3A6DE17EE3F6
:101F80000E94D33DBE01695F7F4F0E94663EB10152
:101F90000E94FA3AF4CE2F923F924F925F926F9244
:101FA0007F928F929F92AF92BF92CF92DF92EF92E9
:101FB0000F931F93CF93DF9300D000D0CDB7DEB740
:101FC0001C010E94EB1A0E94401D0E94FC300E94DE
:101FD0003E320E94EB1AFC0120AD31AD232BB1F053
:101FE0000F900F900F900F90DF91CF911F910F9155
:101FF000EF90DF90CF90BF90AF909F908F907F90A9
:102000006F905F904F903F902F9008950E94FC300A
:10201000FC0180AD91AD892B19F70E94EB1A0E944B
:10202000981D9B01AC0169833A834B835C830E94BA
:10203000FC300E944D325B016C01F10182852981E7
:102040003A814B815C81811119C029833A834B838A
:102050005C830E94FC30FC01808091800E94EB1A1E
:10206000FC0100811181EE24E39429813A814B81A6
:102070005C8161E0C1010E948E0EB2CF29833A8358
:102080004B835C830E949C450E94BE45F1014384C2
:1020900054846584768429813A814B815C816415FE
:1020A00075058605970518F0F1011286CECFF1016E
:1020B0008285811195CFC9CF2FEF8FE398E321500F
:1020C00080409040E1F700C000008091D202811171
:1020D00007C086E992E00E94240E81E08093D2023C
:1020E0000E94973980E090E008952F923F924F929E
:1020F0005F926F927F928F929F92AF92BF92CF9298
:10210000DF92EF92FF920F931F93CF93DF938C0197
:10211000EB01FC01E080F1806E157F050CF065C0DD
:1021200082809380A480B580A5019401608571852B
:10213000828593850E94EC4D2B013C01F80166815C
:1021400077816E197F09072E000C880B990B0E946E
:102150000E4F9B01AC01C301B2010E945E4E2B01E8
:102160003C01CE19DF09BE01DD0F880B990B0E94DF
:102170000E4F9B01AC01C301B2010E9411509B01A3
:10218000AC01C501B4010E94ED4D8B01D82FC92FC0
:102190002CE53FE842E85FE3C501B4010E9411501D
:1021A0006B017C019B01AC01B8018D2F9C2F0E941B
:1021B000594E87FDEDC0502F412F9E01652F742F82
:1021C000832F922FDF91CF911F910F91FF90EF906E
:1021D000DF90CF90BF90AF909F908F907F906F9047
:1021E0005F904F903F902F900895FC01208C318C90
:1021F000261637060CF47EC0A4E0B0E00DC04C17E4
:102200005D070CF0CAC09C01CB01BF2DAC01421B85
:10221000530B42305105FCF02B2F30E06A2F70E059
:10222000C901860F971F95958795F82EFC01EE0F33
:10223000FF1FE80FF91FEE0FFF1FE00FF11F408196
:102240005181C417D507DCF6A82FAC01421B530BF4
:10225000423051050CF7F901EE0FFF1FE20FF31F9B
:10226000EE0FFF1FE00FF11F82809380A480B580E6
:10227000E080F1809C01220F331F820F931F880F93
:10228000991F080F191FA5019401F801628173813C
:10229000848195810E94EC4D2B013C01F801608105
:1022A00071816E197F09072E000C880B990B0E9413
:1022B0000E4F9B01AC01C301B2010E945E4E2B0187
:1022C0003C01CE19DF09BE01DD0F880B990B0E947E
:1022D0000E4F9B01AC01C301B2010E9411509B0142
:1022E000AC01C501B4010E94ED4D562F472F382F88
:1022F000292F64CFC28CD38CE48CF58C848895888C
:10230000A688B78802891389A5019401C701B6017F
:102310000E94EC4D2B013C01B101601B710B072E9B
:10232000000C880B990B0E940E4F9B01AC01C3015E
:10233000B2010E945E4E2B013C01C01BD10BBE01BD
:10234000DD0F880B990B0E940E4F9B01AC01C3015E
:10235000B2010E9411509B01AC01C501B4010E9461
:10236000ED4D8B01D82FC92F2CE53FE842E85FE304
:10237000C701B6010E9411506B017C019B01AC01A9
:10238000B8018D2F9C2F0E940C5018160CF013CF03
:102390005C2D4D2D3E2D2F2D11CF52814381348147
:1023A00025810CCF2F923F924F925F926F927F9236
:1023B0008F929F92AF92BF92CF92DF92EF92FF9255
:1023C0000F931F93CF93DF93CDB7DEB728970FB648
:1023D000F894DEBF0FBECDBF8C016A017B01FC010A
:1023E00082809380A480B5809A01AB01C501B401BD
:1023F0000E940C50F80118160CF079C060807180B2
:10240000B301072C000C880B990B0E940E4F6983B7
:102410007A838B839C83F8016681778166197709BB
:10242000072E000C880B990B0E940E4F2B013C01CC
:10243000A5019401F80160857185828593850E94CC
:10244000EC4D9B01AC01C301B2010E945E4E2B0119
:102450003C01A5019401C701B6010E94EC4D9B010E
:10246000AC01C301B2010E94115029813A814B8114
:102470005C810E94ED4D8B015C012CE53FE842E858
:102480005FE369817A818B819C810E9411506B018D
:102490007C019B01AC01B801C5010E94594E87FD2A
:1024A00023C1502F412F3A2D2B2D652F742F832FB1
:1024B000922F0E947E500E94D04ECB0128960FB6DC
:1024C000F894DEBF0FBECDBFDF91CF911F910F916A
:1024D000FF90EF90DF90CF90BF90AF909F908F9044
:1024E0007F906F905F904F903F902F900895828CD7
:1024F000938CA48CB58CA7019601C501B4010E94F0
:10250000594E87FD94C0F4E0F9831D8211C0A701E4
:102510009601C301B2010E94594E87FFEAC04501EE
:102520005101FE81FD83C50188199909029754F173
:102530002D81822E912C3981232E312C5401A20C15
:10254000B31CB594A794AE82C501880F991F8A0D5C
:102550009B1D880F991FFC01E00FF11FF887EF8387
:102560004280538064807580A7019601C301B20147
:102570000E940C5018165CF6A982C50188199909A9
:102580000297B4F6F401EE0FFF1FE80DF91DEE0FF0
:10259000FF1FE00FF11F2080318042805380648054
:1025A0007580C501880F991F8A0D9B1D880F991F83
:1025B000080F191FF8016081718162197309072ED4
:1025C000000C880B990B0E940E4F4B015C01A3017C
:1025D0009201F80162817381848195810E94EC4DA2
:1025E0009B01AC01C501B4010E945E4E4B015C0130
:1025F000A3019201C701B6010E94EC4D9B01AC0101
:10260000C501B4010E9411506B017C01B101330C72
:10261000880B990B0E940E4F9B01AC01C701B601BC
:102620000E94ED4D562F472F382F292F3ECFF8010E
:10263000208C318C2289338938872F8344885588B0
:1026400066887788B101621B730B072E000C880B1C
:10265000990B0E940E4F69837A838B839C83A3011D
:102660009201C501B4010E94EC4D9B01AC0169814E
:102670007A818B819C810E945E4E4B015C01A3019B
:102680009201C701B6010E94EC4D9B01AC01C5014E
:10269000B4010E9411506B017C01EF81F885BF01EC
:1026A000FF0F880B990B0E940E4F9B01AC01C701D5
:1026B000B6010E94ED4D8B015C01B101330C880B1A
:1026C000990B0E940E4F2CE53FE842E85FE30E9421
:1026D00011506B017C019B01AC01B801C5010E9446
:1026E0000C5018160CF0DDCE5C2D4D2D3E2D2F2DEF
:1026F000DCCEEF81F88560817181072E000C880B9C
:10270000990B0E940E4F562F472F382F292FCDCED1
:102710002F923F924F925F926F927F928F929F92F1
:10272000AF92BF92CF92DF92EF92FF920F931F93DF
:10273000CF93DF938C01EB01FC01E080F1806E15FB
:102740007F050CF065C082809380A480B580A501D0
:10275000940160857185828593850E94EC4D2B01E3
:102760003C01F801668177816E197F09072E000C04
:10277000880B990B0E940E4F9B01AC01C301B20163
:102780000E945E4E2B013C01CE19DF09BE01DD0F18
:10279000880B990B0E940E4F9B01AC01C301B20143
:1027A0000E9411509B01AC01C501B4010E94ED4D86
:1027B0008B01D82FC92F2CE53FE842E85FE3C50124
:1027C000B4010E9411506B017C019B01AC01B80166
:1027D0008D2F9C2F0E94594E87FDEDC0502F412F09
:1027E0009E01652F742F832F922FDF91CF911F9120
:1027F0000F91FF90EF90DF90CF90BF90AF909F90A0
:102800008F907F906F905F904F903F902F900895A2
:10281000FC01208C318C261637060CF47EC0A4E017
:10282000B0E00DC04C175D070CF0CAC09C01CB0195
:10283000BF2DAC01421B530B42305105FCF02B2F36
:1028400030E06A2F70E0C901860F971F9595879534
:10285000F82EFC01EE0FFF1FE80FF91FEE0FFF1F10
:10286000E00FF11F40815181C417D507DCF6A82F76
:10287000AC01421B530B423051050CF7F901EE0F2E
:10288000FF1FE20FF31FEE0FFF1FE00FF11F82800B
:102890009380A480B580E080F1809C01220F331FDB
:1028A000820F931F880F991F080F191FA50194010C
:1028B000F80162817381848195810E94EC4D2B0126
:1028C0003C01F801608171816E197F09072E000CAF
:1028D000880B990B0E940E4F9B01AC01C301B20102
:1028E0000E945E4E2B013C01CE19DF09BE01DD0FB7
:1028F000880B990B0E940E4F9B01AC01C301B201E2
:102900000E9411509B01AC01C501B4010E94ED4D24
:10291000562F472F382F292F64CFC28CD38CE48CAD
:10292000F58C84889588A688B78802891389A501C3
:102930009401C701B6010E94EC4D2B013C01B1018D
:10294000601B710B072E000C880B990B0E940E4F19
:102950009B01AC01C301B2010E945E4E2B013C0100
:10296000C01BD10BBE01DD0F880B990B0E940E4FCF
:102970009B01AC01C301B2010E9411509B01AC014B
:10298000C501B4010E94ED4D8B01D82FC92F2CE554
:102990003FE842E85FE3C701B6010E9411506B01B6
:1029A0007C019B01AC01B8018D2F9C2F0E940C5023
:1029B00018160CF013CF5C2D4D2D3E2D2F2D11CF61
:1029C00052814381348125810CCF2F923F924F92C7
:1029D0005F926F927F928F929F92AF92BF92CF92AF
:1029E000DF92EF92FF920F931F93CF93DF93CDB7B8
:1029F000DEB728970FB6F894DEBF0FBECDBF8C01AF
:102A00006A017B01FC0182809380A480B5809A01D9
:102A1000AB01C501B4010E940C50F80118160CF06E
:102A200079C060807180B301072C000C880B990B72
:102A30000E940E4F69837A838B839C83F8016681A1
:102A4000778166197709072E000C880B990B0E9475
:102A50000E4F2B013C01A5019401F80160857185A1
:102A6000828593850E94EC4D9B01AC01C301B201AC
:102A70000E945E4E2B013C01A5019401C701B601E5
:102A80000E94EC4D9B01AC01C301B2010E941150A8
:102A900029813A814B815C810E94ED4D8B015C0163
:102AA0002CE53FE842E85FE369817A818B819C8174
:102AB0000E9411506B017C019B01AC01B801C50162
:102AC0000E94594E87FD23C1502F412F3A2D2B2DA7
:102AD000652F742F832F922F0E947E500E94D04E1C
:102AE000CB0128960FB6F894DEBF0FBECDBFDF91A5
:102AF000CF911F910F91FF90EF90DF90CF90BF90FB
:102B0000AF909F908F907F906F905F904F903F908D
:102B10002F900895828C938CA48CB58CA70196017C
:102B2000C501B4010E94594E87FD94C0F4E0F983B9
:102B30001D8211C0A7019601C301B2010E94594E26
:102B400087FFEAC045015101FE81FD83C501881957
:102B50009909029754F12D81822E912C3981232ECF
:102B6000312C5401A20CB31CB594A794AE82C501BC
:102B7000880F991F8A0D9B1D880F991FFC01E00F7C
:102B8000F11FF887EF834280538064807580A7012E
:102B90009601C301B2010E940C5018165CF6A9827E
:102BA000C501881999090297B4F6F401EE0FFF1FC9
:102BB000E80DF91DEE0FFF1FE00FF11F208031809F
:102BC0004280538064807580C501880F991F8A0DEB
:102BD0009B1D880F991F080F191FF80160817181D3
:102BE00062197309072E000C880B990B0E940E4F77
:102BF0004B015C01A3019201F80162817381848120
:102C000095810E94EC4D9B01AC01C501B4010E946D
:102C10005E4E4B015C01A3019201C701B6010E9407
:102C2000EC4D9B01AC01C501B4010E9411506B0138
:102C30007C01B101330C880B990B0E940E4F9B0154
:102C4000AC01C701B6010E94ED4D562F472F382F1A
:102C5000292F3ECFF801208C318C22893389388787
:102C60002F834488558866887788B101621B730B6F
:102C7000072E000C880B990B0E940E4F69837A83F4
:102C80008B839C83A3019201C501B4010E94EC4D8A
:102C90009B01AC0169817A818B819C810E945E4E8F
:102CA0004B015C01A3019201C701B6010E94EC4DEA
:102CB0009B01AC01C501B4010E9411506B017C0164
:102CC000EF81F885BF01FF0F880B990B0E940E4F13
:102CD0009B01AC01C701B6010E94ED4D8B015C0167
:102CE000B101330C880B990B0E940E4F2CE53FE885
:102CF00042E85FE30E9411506B017C019B01AC0133
:102D0000B801C5010E940C5018160CF0DDCE5C2DE8
:102D10004D2D3E2D2F2DDCCEEF81F8856081718108
:102D2000072E000C880B990B0E940E4F562F472F31
:102D3000382F292FCDCE2F923F924F925F926F92D4
:102D40007F928F929F92AF92BF92CF92DF92EF923B
:102D5000FF921F93CF93DF93CDB7DEB72C970FB6BB
:102D6000F894DEBF0FBECDBF1C016A017B01DC0100
:102D70008D909D90AD90BC901397481559056A05AC
:102D80007B050CF07DC014962D913D914D915C9189
:102D9000179729833A834B835C831C966D917D91B1
:102DA0008D919C911F970E94EC4D2B013C01F101EC
:102DB00080859185A285B385BC01CD01681979090B
:102DC0008A099B090E940E4F9B01AC01C301B2010D
:102DD0000E945E4E2B013C01C701B60168197909BA
:102DE0008A099B090E940E4F9B01AC01C301B201ED
:102DF0000E9411509B01AC0169817A818B819C8179
:102E00000E94ED4DF62E172F982EA92E2CE53FE8A7
:102E100042E85FE369817A818B819C810E94115035
:102E2000B62EC72ED82EE92E262F372F482F592FF2
:102E30006F2D712F892D9A2D0E94594E87FD37C114
:102E40005F2D412F392D2A2D652F742F832F922F1F
:102E50002C960FB6F894DEBF0FBECDBFDF91CF9199
:102E60001F91FF90EF90DF90CF90BF90AF909F9019
:102E70008F907F906F905F904F903F902F9008952C
:102E8000DC0190964D905D906D907C9093974416E8
:102E90005506660677060CF495C014E0B12C0FC0F9
:102EA0004C155D056E057F050CF006C19C01CD013A
:102EB000BA2CAC01421B530B423051051CF12B2D97
:102EC00030E0A12FB0E0C9018A0F9B1F959587952F
:102ED000A82EFC01EE0FFF1FEE0FFF1FEE0FFF1FCE
:102EE000E20DF31D4081518162817381C416D506C4
:102EF000E606F706ACF6182FAC01421B530B423026
:102F00005105ECF6220F331F220F331F220F331F00
:102F1000F101E20FF31F84809580A680B7802081A5
:102F200031814281538129833A834B835C83880FAB
:102F3000991F880F991F880F991F280E391EA50108
:102F40009401D10114966D917D918D919C9117976B
:102F50000E94EC4D2B013C01F10180819181A28105
:102F6000B381BC01CD0129813A814B815C81621B17
:102F7000730B840B950B0E940E4F9B01AC01C30198
:102F8000B2010E945E4E2B013C01C701B6012981AE
:102F90003A814B815C81621B730B840B950B0E9401
:102FA0000E4F9B01AC01C301B2010E9411509B0165
:102FB000AC01C501B4010E94ED4D562F472F382FAB
:102FC000292F42CF94968D909D90AD90BC9097976D
:102FD0005C962D913D914D915C915F9729833A8349
:102FE0004B835C8358962D913D914D915C915B97FD
:102FF0002D833E834F83588729813A814B815C81A1
:10300000C501B4010E94EC4D69877A878B879C8744
:10301000C301B2012D813E814F815885621B730B24
:10302000840B950B0E940E4F9B01AC0169857A853C
:103030008B859C850E945E4E2B013C01C701B60129
:103040002D813E814F815885621B730B840B950B3C
:103050000E940E4F9B01AC01C301B2010E941150AE
:103060009B01AC0169817A818B819C810E94ED4D2D
:10307000F62E172F3C012CE53FE842E85FE3C5013F
:10308000B4010E941150B62EC72ED82EE92E262F3D
:10309000372F482F592F6F2D712FC3010E940C50CD
:1030A00018162CF05F2D412F362D272DCDCE5B2D00
:1030B0004C2D3D2D2E2DC8CE548145813681278142
:1030C000C3CE2F923F924F925F926F927F928F92D8
:1030D0009F92AF92BF92CF92DF92EF92FF921F9397
:1030E000CF93DF93CDB7DEB72C970FB6F894DEBF42
:1030F0000FBECDBF1C016A017B01DC018D909D904C
:10310000AD90BC901397481559056A057B050CF0E6
:103110007DC014962D913D914D915C911797298317
:103120003A834B835C831C966D917D918D919C912C
:103130001F970E94EC4D2B013C01F1018085918588
:10314000A285B385BC01CD01681979098A099B095B
:103150000E940E4F9B01AC01C301B2010E945E4E62
:103160002B013C01C701B601681979098A099B093D
:103170000E940E4F9B01AC01C301B2010E9411508D
:103180009B01AC0169817A818B819C810E94ED4D0C
:10319000F62E172F982EA92E2CE53FE842E85FE384
:1031A00069817A818B819C810E941150B62EC72E35
:1031B000D82EE92E262F372F482F592F6F2D712FFC
:1031C000892D9A2D0E94594E87FD37C15F2D412FC1
:1031D000392D2A2D652F742F832F922F2C960FB601
:1031E000F894DEBF0FBECDBFDF91CF911F91FF904E
:1031F000EF90DF90CF90BF90AF909F908F907F9097
:103200006F905F904F903F902F900895DC019096C3
:103210004D905D906D907C90939744165506660690
:1032200077060CF495C014E0B12C0FC04C155D0569
:103230006E057F050CF006C19C01CD01BA2CAC01D6
:10324000421B530B423051051CF12B2D30E0A12FB6
:10325000B0E0C9018A0F9B1F95958795A82EFC01A8
:10326000EE0FFF1FEE0FFF1FEE0FFF1FE20DF31D0E
:103270004081518162817381C416D506E606F70646
:10328000ACF6182FAC01421B530B42305105ECF643
:10329000220F331F220F331F220F331FF101E20FC2
:1032A000F31F84809580A680B78020813181428180
:1032B000538129833A834B835C83880F991F880F3E
:1032C000991F880F991F280E391EA5019401D1015D
:1032D00014966D917D918D919C9117970E94EC4D64
:1032E0002B013C01F10180819181A281B381BC015C
:1032F000CD0129813A814B815C81621B730B840B68
:10330000950B0E940E4F9B01AC01C301B2010E94BC
:103310005E4E2B013C01C701B60129813A814B81E8
:103320005C81621B730B840B950B0E940E4F9B01FB
:10333000AC01C301B2010E9411509B01AC01C50157
:10334000B4010E94ED4D562F472F382F292F42CF21
:1033500094968D909D90AD90BC9097975C962D9192
:103360003D914D915C915F9729833A834B835C83B8
:1033700058962D913D914D915C915B972D833E83A5
:103380004F83588729813A814B815C81C501B40103
:103390000E94EC4D69877A878B879C87C301B201B5
:1033A0002D813E814F815885621B730B840B950BD9
:1033B0000E940E4F9B01AC0169857A858B859C85A7
:1033C0000E945E4E2B013C01C701B6012D813E815A
:1033D0004F815885621B730B840B950B0E940E4F17
:1033E0009B01AC01C301B2010E9411509B01AC01D1
:1033F00069817A818B819C810E94ED4DF62E172F79
:103400003C012CE53FE842E85FE3C501B4010E94BE
:103410001150B62EC72ED82EE92E262F372F482F23
:10342000592F6F2D712FC3010E940C5018162CF0CC
:103430005F2D412F362D272DCDCE5B2D4C2D3D2DD3
:103440002E2DC8CE5481458136812781C3CE089563
:10345000549A559808955C9808955C9A0895089533
:10346000089589B185FB882780F991E0892708951F
:103470008530910540F4FC01EE0FFF1FE056FE4F32
:10348000859194910895E0EAF1E0859194910895F1
:103490004F925F926F927F928F929F92AF92BF9264
:1034A000EF92FF920F931F93CF93DF93EC018B0169
:1034B000FC01619371937F01CB010E94642F5C0139
:1034C0000E94892FA701B5010E94B644889709F48C
:1034D00066C0F801EE0FFF1FEE0FFF1FE957FE4F0A
:1034E00085909590A590B490C501B401905823E3C0
:1034F000422E542C23EF622E77247A944A825B82E8
:103500006C827D826E837F838887998731EE432E1C
:103510003AE7532E34EF632E77247A944A865B86FB
:103520006C867D8626E636E646E65FE30E9411500D
:103530006E877F87888B998B1A8A1B8A1C8A1D8AC3
:103540001E8A1F8A188E198E8FE195E8ABE0B0E0D5
:103550008A8F9B8FAC8FBD8F26E636E646E65FE30B
:10356000C501B4010E9411506E8F7F8F88A399A36B
:103570008DEC9CECACE0B0E08AA39BA3ACA3BDA314
:103580008EA29FA2A8A6B9A6888199810E94642FC5
:103590005C010E94892FA701B5010E942045AA96CF
:1035A000CE010E94E740F801E556FE4F0491682FD6
:1035B000607F602BCE01DF91CF911F910F91FF9023
:1035C000EF90BF90AF909F908F907F906F905F90A3
:1035D0004F900C94C94080911C03811186C01092B9
:1035E000E4021092E5021092E6021092E7021092B5
:1035F000E8021092E9021092EA021092EB02109295
:10360000EC021092ED021092EE021092EF02109274
:10361000F0021092F1021092F2021092F302109254
:10362000F4021092F5021092F6021092F702109234
:10363000F8021092F9021092FA021092FB02109214
:10364000FC021092FD021092FE021092FF021092F4
:1036500000031092010310920203109203031092D0
:1036600004031092050310920603109207031092B0
:1036700008031092090310920A0310920B0360E0F2
:103680008CE093E00E94C6408DE093E00E944142AE
:103690008CE192E090930E0380930D038DE093E014
:1036A0000E945C4260E170E080E193E00E942A4960
:1036B0008CE093E00E945D41682F607F8CE093E096
:1036C0000E9489418CE093E00E941341682F607F43
:1036D0008CE093E00E943F4162E070E082EE92E075
:1036E0000E94481A81E080931C0382EE92E00895C4
:1036F000AF92BF92CF92DF92EF92FF920F931F9300
:10370000CF93DF93CDB7DEB727970FB6F894DEBF20
:103710000FBECDBF5C01613081E0780710F060E042
:1037200071E0CE0101960E94AC492B813C818D81D4
:103730009E812817390709F452C08501055D1F4F86
:1037400016C00E9406436B017C0144275527BA012D
:103750004C195D096E097F09CE0101960E94C64988
:103760002B813C818D819E8128173907C1F10E94F0
:103770000B39FC01C080D1800D2C000CEE08FF0835
:103780007601DD24CC240E940B39FC0182819381D7
:10379000092E000CAA0BBB0BBA2FA92F982F882734
:1037A000C82AD92AEA2AFB2A0E940B39FC01848103
:1037B0009581092E000CAA0BBB0BC82AD92AEA2A2C
:1037C000FB2A60E0C801C114D104F3E0EF06F10464
:1037D00008F0B7CF0E940643AB01BC01BDCFCE01BC
:1037E00001960E94E8490E947E500E94D04EAB0193
:1037F000BC01C50102960E949B166B017C01CE01A3
:1038000001960E94C149C701B60127960FB6F894E8
:10381000DEBF0FBECDBFDF91CF911F910F91FF9003
:10382000EF90DF90CF90BF90AF900895CF92DF924E
:10383000EF92FF920F931F93CF93DF93EC01E881F8
:10384000F981EE0FFF1FEE0FFF1FE957FE4FC590E6
:10385000D590E590F490C701B601905803E313E3C7
:1038600023EF3FEF0A831B832C833D836E837F838B
:103870008887998701EE1AE724EF3FEF0A871B87B5
:103880002C873D8726E636E646E65FE30E94115028
:103890006E877F87888B998B1A8A1B8A1C8A1D8A60
:1038A0001E8A1F8A188E198E8FE195E8ABE0B0E072
:1038B0008A8F9B8FAC8FBD8F26E636E646E65FE3A8
:1038C000C701B6010E9411506E8F7F8F88A399A304
:1038D0008DEC9CECACE0B0E08AA39BA3ACA3BDA3B1
:1038E000CEA2DFA2E8A6F9A6DF91CF911F910F919A
:1038F000FF90EF90DF90CF9008954F925F926F927C
:103900007F928F929F92AF92BF92CF92DF92EF926F
:10391000FF920F931F93CF93DF93CDB7DEB72C9712
:103920000FB6F894DEBF0FBECDBF4C015B0129017D
:103930003A0160E870E0CE0101960E942A498B8529
:103940009C85892B09F457C08401055D1F4F14C065
:103950000E9406436B017C0144275527BA014C198C
:103960005D096E097F09CE0101960E9446498B854B
:103970009C85892B09F43FC00E940B39FC01C08053
:10398000D1800D2C000CEE08FF087601DD24CC243C
:103990000E940B39FC0182819381092E000CAA0B35
:1039A000BB0BBA2FA92F982F8827C82AD92AEA2A11
:1039B000FB2A0E940B39FC0184819581092E000CA1
:1039C000AA0BBB0BC82AD92AEA2AFB2A60E0C80145
:1039D000C114D104F3E0EF06F10408F0B9CF0E945E
:1039E0000643AB01BC01CE0101960E9446498B857E
:1039F0009C85892B09F6CE0101960E9481490E947F
:103A00007E50BB24AA0CBB1CAA0CBB1CAA0CBB1C62
:103A10008A0C9B1C0E94D04EF401628373838483C2
:103A2000958346825782608671862C960FB6F894ED
:103A3000DEBF0FBECDBFDF91CF911F910F91FF90E1
:103A4000EF90DF90CF90BF90AF909F908F907F903E
:103A50006F905F904F9008950F931F93CF93DF93D4
:103A6000EC01899199910E94642F8C010E94892F09
:103A7000AE01B801DF91CF911F910F910C942045B9
:103A8000CF92DF92EF92FF920F931F93CF93DF932A
:103A9000EC010E940B39FC01C080D1800D2C000C80
:103AA000EE08FF087601DD24CC240E940B39FC01CE
:103AB00082819381092E000CAA0BBB0BBA2FA92F70
:103AC000982F8827C82AD92AEA2AFB2A0E940B396C
:103AD000FC0184819581092E000CAA0BBB0BC82A1E
:103AE000D92AEA2AFB2A60E0CE018B96C114D104C0
:103AF000F3E0EF06F104B8F00E9406438B019C014D
:103B000044275527BA01401B510B620B730BCE01A2
:103B10008E96DF91CF911F910F91FF90EF90DF90E4
:103B2000CF900C9446490E940643AB01BC01EFCFF5
:103B3000CF92DF92EF92FF920F931F93CF93DF9379
:103B40008C01EC01AE96CE010E9481490E947E500C
:103B50000E94D04EAB01BC01C80102960E949B1688
:103B60006B017C01CE010E943849C701B601DF918B
:103B7000CF911F910F91FF90EF90DF90CF9008951C
:103B80005F9808955F9A0895579A08958530910532
:103B900040F4FC01EE0FFF1FED53FE4F8591949111
:103BA0000895E3ECF1E08591949108958F929F92AE
:103BB000AF92BF92CF92DF92EF92FF920F931F933B
:103BC000CF93DF93EC0181E08AA77E0184E2E80EC7
:103BD000F11CC7010E94E740682F6F7EC7010E9459
:103BE000C9400C811D816E0186E0C80ED11CC80140
:103BF0000E94442F5C010E94892FA601B5010E94FA
:103C0000B6444E9709F44DC0F801EE0FFF1FEE0FBA
:103C1000FF1FE655FE4F85909590A590B490C50185
:103C2000B40190582BEB33EF3F832E83688779875D
:103C30008A879B8725EF34EF3D872C8726E636E67B
:103C400046E65FE30E9411506E877F87888B998BD1
:103C50001B8A1A8A1C8A1D8A1E8A1F8A8BE09BE097
:103C6000998F888F26E636E646E65FE3C501B40104
:103C70000E9411506A8F7B8F8C8F9D8F85E49CE012
:103C80009F8F8E8F88A299A2AAA2BBA28C819D81B0
:103C90000E94442F5C010E94892FA601B5010E9459
:103CA0002045C7010E94E740F801E254FE4F04910D
:103CB000682F607F602BC7010E94C9408AA58111CF
:103CC0000DC0DF91CF911F910F91FF90EF90DF908A
:103CD000CF90BF90AF909F908F9008954881598169
:103CE0006A817B81C6010E94D2118C01BC01C60190
:103CF0000E947510688379838A839B83B80170580A
:103D0000CE018596DF91CF911F910F91FF90EF909B
:103D1000DF90CF90BF90AF909F908F900C94EF4129
:103D2000FC0112A608958F929F92AF92BF92CF92FC
:103D3000DF92EF92FF920F931F93CF93DF93EC01EB
:103D40008B017D836C837C0186E0E80EF11CCB0146
:103D50000E94442F6C010E94892FA701B6010E9486
:103D6000B6444E9709F44DC0F801EE0FFF1FEE0F59
:103D7000FF1FE655FE4F85909590A590B490C50124
:103D8000B40190582BEB33EF3F832E8368877987FC
:103D90008A879B8725EF34EF3D872C8726E636E61A
:103DA00046E65FE30E9411506E877F87888B998B70
:103DB0001B8A1A8A1C8A1D8A1E8A1F8A8BE09BE036
:103DC000998F888F26E636E646E65FE3C501B401A3
:103DD0000E9411506A8F7B8F8C8F9D8F85E49CE0B1
:103DE0009F8F8E8F88A299A2AAA2BBA28C819D814F
:103DF0000E94442F6C010E94892FA701B6010E94E6
:103E000020456E0184E2C80ED11CC6010E94E74025
:103E1000F801E254FE4F0491682F607F602BC601C9
:103E20000E94C9408AA581110DC0DF91CF911F91D9
:103E30000F91FF90EF90DF90CF90BF90AF909F9049
:103E40008F900895488159816A817B81C7010E94C2
:103E5000D2118C01BC01C7010E947510688379835F
:103E60008A839B83B8017058CE018596DF91CF91EC
:103E70001F910F91FF90EF90DF90CF90BF90AF9088
:103E80009F908F900C94EF41CF92DF92EF92FF9230
:103E90000F931F93CF93DF93EC01188219821A823C
:103EA0001B8282E090E09D838C836E0186E0C80EC9
:103EB000D11C1F821E82188619861A861B861D86B3
:103EC0001C861E861F86188A198A1B8A1A8A1C8AD3
:103ED0001D8A1E8A1F8A198E188E1A8E1B8E1C8EA2
:103EE0001D8E1F8E1E8E18A219A21AA21BA28E0151
:103EF0000C5D1F4F60E0C8010E94C6407E0185E254
:103F0000E80EF11CC7010E94AA418EE292E09EA336
:103F10008DA3C7010E94C7411AA6C8010E945D4136
:103F2000682F607CC8010E948941C8010E9413412A
:103F3000682F607CC8010E943F4162E070E0CE01C2
:103F40000E94931E40E050E0BA01C6010E94D211C7
:103F50008C01BC01C6010E947510688379838A8335
:103F60009B83B8017058C701DF91CF911F910F91CA
:103F7000FF90EF90DF90CF900C94EF4180914F0332
:103F8000811107C084E293E00E94441F81E0809386
:103F90004F0384E293E00895EF92FF920F931F93F3
:103FA000CF93DF938C017C0186E0E80EF11CC70102
:103FB0000E94D211EC01BC01C7010E947510F801EA
:103FC0006083718382839383BE017058C801859694
:103FD000DF91CF911F910F91FF90EF900C94EF41E3
:103FE000CF92DF92EF92FF92CF93DF93EC01EC81BF
:103FF000FD81EE0FFF1FEE0FFF1FE655FE4FC59030
:10400000D590E590F490C701B60190582BEB33EFB3
:104010003F832E83688779878A879B8725EF34EFD4
:104020003D872C8726E636E646E65FE30E94115080
:104030006E877F87888B998B1B8A1A8A1C8A1D8AB8
:104040001E8A1F8A8BE09BE0998F888F26E636E6D2
:1040500046E65FE3C701B6010E9411506A8F7B8F6D
:104060008C8F9D8F85E49CE09F8F8E8FC8A2D9A2F4
:10407000EAA2FBA2DF91CF91FF90EF90DF90CF906B
:1040800008957727FB01EE0FFF1FE60FF71FEE0FD6
:10409000FF1FE80FF91F66817781705885960C9491
:1040A000EF417727FB01EE0FFF1F6E0F7F1F660F9B
:1040B000771F860F971FFC01208731874287538720
:1040C00008950F931F93CF93DF93EC018C819D8113
:1040D0000E94442F8C010E94892FAE014A5F5F4FDE
:1040E000B801DF91CF911F910F910C942045089555
:1040F00021E030E0FC0130AF27ABBC01695C7F4FB1
:104100000C94D8394430510508F4089528E030E083
:10411000FC0130AF27ABBC01695C7F4F0C94D839F0
:104120004430510508F408952EE030E0FC0130AF32
:1041300027ABBC01695C7F4F0C94D83944305105E2
:1041400008F4089523E130E0FC0130AF27ABBC0157
:10415000695C7F4F0C94D8394430510508F40895B8
:1041600028E130E0FC0130AF27ABBC01695C7F4F38
:104170000C94D8394430510508F408952AE130E010
:10418000FC0130AF27ABBC01695C7F4F0C94D83980
:104190004430510508F408952BE130E0FC0130AFC4
:1041A00027ABBC01695C7F4F0C94D8394430510572
:1041B00008F408952CE130E0FC0130AF27ABBC01DE
:1041C000695C7F4F0C94D8394430510508F4089548
:1041D0002DE130E0FC0130AF27ABBC01695C7F4FC3
:1041E0000C94D8394430510508F4089521E230E0A8
:1041F000FC0130AF27ABBC01695C7F4F0C94D83910
:104200004430510508F4089522E230E0FC0130AF5B
:1042100027ABBC01695C7F4F0C94D8394430510501
:1042200008F4089526E230E0FC0130AF27ABBC0172
:10423000695C7F4F0C94D8394430510508F40895D7
:1042400028E230E0FC0130AF27ABBC01695C7F4F56
:104250000C94D8394430510508F408952AE230E02E
:10426000FC0130AF27ABBC01695C7F4F0C94D8399F
:104270000F931F93FB01A081B1812B2F3A2F2C327A
:10428000310540F5EB2FFA2FEE0FFF1FEE0FFF1F4A
:10429000E353FE4F0591159125913491F80120FFCC
:1042A00012C0F901F595E795DC01AE0FBF1FED9146
:1042B000FC911197E00FF11F0190F081E02DCD01ED
:1042C0001F910F91099435952795820F931F1F9188
:1042D0000F9109941F910F9108954830510508F4EA
:1042E0000895DB011596EC9115971496FC91E23038
:1042F000F10580F0E7EAF2E02591349143E050E0E7
:10430000FC0150AF47AB32AF21AFBC01695C7F4FBE
:104310000C94D839EE0FFF1FE955FD4FEDCF483013
:10432000510508F40895DB011596EC911597149644
:10433000FC91E530F10590F4EE0FFF1FE356FD4FC1
:104340002591349144E050E0FC0150AF47AB32AFCF
:1043500021AFBC01695C7F4F0C94D839EDE9F2E0E4
:10436000EFCF4830510578F0FB012481358145E0DD
:1043700050E0FC0150AF47AB31AF22AFBC01695CEC
:104380007F4F0C94D83908954830510578F0FB01DF
:104390002481358146E050E0FC0150AF47AB31AF9E
:1043A00022AFBC01695C7F4F0C94D8390895483026
:1043B000510508F40895DB011596EC9115971496B4
:1043C000FC91E230F10580F0E9E9F2E025913491C9
:1043D0004AE050E0FC0150AF47AB32AF21AFBC0127
:1043E000695C7F4F0C94D839EE0FFF1FE756FD4FE5
:1043F000EDCF4830510578F0FB01248135814BE049
:1044000050E0FC0150AF47AB31AF22AFBC01695C5B
:104410007F4F0C94D83908954830510578F0FB014E
:10442000248135814CE050E0FC0150AF47AB31AF07
:1044300022AFBC01695C7F4F0C94D8390895483095
:10444000510508F40895DB011596EC911597149623
:10445000FC91E530F10590F4EE0FFF1FE157FD4FA1
:104460002591349140E150E0FC0150AF47AB32AFB1
:1044700021AFBC01695C7F4F0C94D839EFE8F2E0C2
:10448000EFCF4830510578F0FB012481358141E1BF
:1044900050E0FC0150AF47AB31AF22AFBC01695CCB
:1044A0007F4F0C94D83908954830510578F0FB01BE
:1044B0002481358144E150E0FC0150AF47AB31AF7E
:1044C00022AFBC01695C7F4F0C94D8390895483005
:1044D000510508F40895DB011596EC911597149693
:1044E000FC91E630F10590F4EE0FFF1FED57FD4F04
:1044F0002591349145E150E0FC0150AF47AB32AF1C
:1045000021AFBC01695C7F4F0C94D839E3E8F2E03D
:10451000EFCF4830510578F0FB012481358146E129
:1045200050E0FC0150AF47AB31AF22AFBC01695C3A
:104530007F4F0C94D83908954830510578F0FB012D
:104540002481358149E150E0FC0150AF47AB31AFE8
:1045500022AFBC01695C7F4F0C94D8390895483074
:10456000510578F0FB01248135814EE150E0FC01DA
:1045700050AF47AB31AF22AFBC01695C7F4F0C94A9
:10458000D83908954830510508F40895E1E8F2E07B
:104590002591349143E250E0FC0150AF47AB32AF7C
:1045A00021AFBC01695C7F4F0C94D839483051056C
:1045B00078F0FB012481358144E250E0FC0150AFEA
:1045C00047AB31AF22AFBC01695C7F4F0C94D83947
:1045D00008954830510578F0FB012481358147E288
:1045E00050E0FC0150AF47AB31AF22AFBC01695C7A
:1045F0007F4F0C94D83908954830510508F4089538
:10460000DB011596EC9115971496FC91E230F105BB
:1046100080F0EDE7F2E02591349149E250E0FC01B1
:1046200050AF47AB32AF21AFBC01695C7F4F0C94F8
:10463000D839EE0FFF1FE358FD4FEDCFFB014C3093
:104640005105D0F044815581B385A28531852085FF
:1046500067E070E0FC0170AF67AB51AF42AF4B2F2A
:104660005A2F632F722F43AF54AF65AF76AFBC01A3
:10467000695C7F4F0C94D8390895FB01483051058F
:10468000B0F0B781A6813581248149E050E0FC017A
:1046900050AF47AB4B2F5A2F632F722F41AF52AF02
:1046A00063AF74AFBC01695C7F4F0C94D839089537
:1046B000FB014C305105D0F044815581B385A28572
:1046C000318520856DE070E0FC0170AF67AB51AFC4
:1046D00042AF4B2F5A2F632F722F43AF54AF65AFAA
:1046E00076AFBC01695C7F4F0C94D8390895FB010B
:1046F00048305105B0F0B781A681358124814FE063
:1047000050E0FC0150AF47AB4B2F5A2F632F722F55
:1047100041AF52AF63AF74AFBC01695C7F4F0C9483
:10472000D8390895FB014C305105D0F044815581B2
:10473000B385A2853185208562E170E0FC0170AF10
:1047400067AB51AF42AF4B2F5A2F632F722F43AF3E
:1047500054AF65AF76AFBC01695C7F4F0C94D8391C
:104760000895FB014C305105D0F044815581B3854B
:10477000A2853185208567E170E0FC0170AF67ABF1
:1047800051AF42AF4B2F5A2F632F722F43AF54AF0D
:1047900065AF76AFBC01695C7F4F0C94D839089542
:1047A000FB014C305105D0F044815581B385A28581
:1047B0003185208565E270E0FC0170AF67AB51AFD9
:1047C00042AF4B2F5A2F632F722F43AF54AF65AFB9
:1047D00076AFBC01695C7F4F0C94D839089548309E
:1047E000510578F0FB01248135814FE150E0FC0157
:1047F00050AF47AB31AF22AFBC01695C7F4F0C9427
:10480000D8390895FB014830510590F04481558115
:104810002681378160E270E0FC0170AF67AB51AF79
:1048200042AF33AF24AFBC01695C7F4F0C94D839E1
:104830000895FB0148305105A0F0478156816581FC
:1048400074812BE230E0FC0130AF27AB662777277D
:1048500041AF52AF63AF74AFBC01695C7F4F0C9442
:10486000D8390895AF92BF92CF92DF92EF92FF9224
:104870000F931F93CF93DF937C010E9481460E9488
:10488000E5465C010E947746EC01892B59F4DF91E3
:10489000CF911F910F91FF90EF90DF90CF90BF903D
:1048A000AF900895670186E0C80ED11C85015701BD
:1048B000EEE0AE0EB11C05C0C6010E940C4021976F
:1048C00031F3F80161918F01C6010E942040F70188
:1048D00090A99923A1F3408551854430510560F397
:1048E000B501C7010E943821E7CFEF92FF920F93E5
:1048F0001F93CF93DF93EC0182E090E098AF8FABF2
:10490000BE01695C7F4FCE010E94D8398E010A5FDB
:104910001F4F64E070E0C8010E94E73FEC01188679
:1049200082E089871B861A86CE010E94C83FED80EF
:10493000FC800E948146A701485F5F4FBE010E9434
:104940002047BE01C801DF91CF911F910F91FF90C9
:10495000EF900C94F73F8530910540F4FC01EE0F89
:10496000FF1FE356FD4F859194910895EDE9F2E024
:104970008591949108958230910528F0E9E9F2E05B
:10498000859194910895FC01EE0FFF1FE756FD4FAE
:104990008591949108958530910540F4FC01EE0FC6
:1049A000FF1FE157FD4F859194910895EFE8F2E0E4
:1049B0008591949108958630910540F4FC01EE0FA5
:1049C000FF1FED57FD4F859194910895E3E8F2E0C4
:1049D000859194910895E1E8F2E08591949108958C
:1049E0008230910528F0EDE7F2E0859194910895E9
:1049F000FC01EE0FFF1FE358FD4F85919491089540
:104A000080919603811119C087E593E00E94B8391F
:104A100088E392E090935803809357038DE593E0E9
:104A20000E94F83F0E94814640E855E260E070E055
:104A30000E94C64681E08093960387E593E008953F
:104A40008F929F92AF92BF92CF92DF92EF92FF929E
:104A50000F931F93CF93DF9300D000D0CDB7DEB775
:104A60005B0106966C016CE270E029833A834B830C
:104A70005C830E94E73F4C01FC01108681E0818746
:104A8000138612865C8154A74B8145A73A8136A7CD
:104A9000298127A710AB01ABF2AAE3AAC4010C96A7
:104AA00020E2FC0111922A95E9F7B5010E942853F2
:104AB000C4010E94C83FF401058114810E9481460F
:104AC000A801485F5F4FB4010E942047B401C601AE
:104AD0000F900F900F900F90DF91CF911F910F913A
:104AE000FF90EF90DF90CF90BF90AF909F908F900E
:104AF0000C94F73FEF92FF920F931F93CF93DF93A6
:104B0000162F072F06967C0168E070E00E94E73FB1
:104B1000EC01188683E089871B861A860C871D871F
:104B20001F861E86CE010E94C83F0D811C810E94F7
:104B30008146A801485F5F4FBE010E942047BE0129
:104B4000C701DF91CF911F910F91FF90EF900C94CF
:104B5000F73FEF92FF920F931F93CF93DF93162FA0
:104B6000072F06967C0168E070E00E94E73FEC01A9
:104B7000188684E089871B861A860C871D871F8606
:104B80001E86CE010E94C83F0D811C810E94814675
:104B9000A801485F5F4FBE010E942047BE01C701C8
:104BA000DF91CF911F910F91FF90EF900C94F73F01
:104BB000AF92BF92CF92DF92EF92FF920F931F932B
:104BC000CF93DF9300D000D0CDB7DEB7D62EC72E5F
:104BD00006967C016CE070E02B833C8349835A830A
:104BE0000E94E73F5C01FC01108685E08187138607
:104BF0001286C486D5865A815687498147873C816B
:104C00002B81C801432F522F692F702FF501408B44
:104C1000518B628B738BC5010E94C83FF5010581E2
:104C200014810E948146A801485F5F4FB5010E9430
:104C30002047B501C7010F900F900F900F90DF91A3
:104C4000CF911F910F91FF90EF90DF90CF90BF9089
:104C5000AF900C94F73FAF92BF92CF92DF92EF925A
:104C6000FF920F931F93CF93DF9300D000D0CDB767
:104C7000DEB7D62EC72E06967C016CE070E02B8343
:104C80003C8349835A830E94E73F5C01FC01108604
:104C900086E0818713861286C486D5865A81568718
:104CA000498147873C812B81C801432F522F692FAF
:104CB000702FF501408B518B628B738BC5010E9465
:104CC000C83FF501058114810E948146A801485F13
:104CD0005F4FB5010E942047B501C7010F900F90AB
:104CE0000F900F90DF91CF911F910F91FF90EF9058
:104CF000DF90CF90BF90AF900C94F73FAF92BF92F0
:104D0000CF92DF92EF92FF920F931F93CF93DF9397
:104D100000D000D0CDB7DEB7D62EC72E06967C01C8
:104D20006CE070E02B833C8349835A830E94E73F09
:104D30005C01FC01108687E0818713861286C48699
:104D4000D5865A815687498147873C812B81C80186
:104D5000432F522F692F702FF501408B518B628B9F
:104D6000738BC5010E94C83FF501058114810E9423
:104D70008146A801485F5F4FB5010E942047B501F9
:104D8000C7010F900F900F900F90DF91CF911F915F
:104D90000F91FF90EF90DF90CF90BF90AF900C9469
:104DA000F73FEF92FF920F931F93CF93DF930696F7
:104DB0007C0164E070E00E94E73FEC01188688E027
:104DC00089871B861A86CE010E94C83F0D811C81EF
:104DD0000E948146A801485F5F4FBE010E942047A4
:104DE000BE01C701DF91CF911F910F91FF90EF900E
:104DF0000C94F73FCF92DF92EF92FF920F931F93A5
:104E0000CF93DF9300D0CDB7DEB7162F072F0696CE
:104E10007C0168E070E049835A830E94E73F6C019F
:104E2000FC01108689E08187138612865A81952FAE
:104E30004981842F402F512F692F782F4487558720
:104E400066877787C6010E94C83FF60105811481F5
:104E50000E948146A801485F5F4FB6010E9420472B
:104E6000B601C7010F900F90DF91CF911F910F9165
:104E7000FF90EF90DF90CF900C94F73FEF92FF926E
:104E80000F931F93CF93DF93162F072F06967C0166
:104E900068E070E00E94E73FEC0118868AE08987AD
:104EA0001B861A860C871D871F861E86CE010E94D0
:104EB000C83F0D811C810E948146A801485F5F4F59
:104EC000BE010E942047BE01C701DF91CF911F9113
:104ED0000F91FF90EF900C94F73FAF92BF92CF925B
:104EE000DF92EF92FF920F931F93CF93DF9300D047
:104EF00000D0CDB7DEB7D62EC72E06967C016CE06B
:104F000070E02B833C8349835A830E94E73F5C0116
:104F1000FC0110868BE0818713861286C486D586B5
:104F20005A815687498147873C812B81C801432F8D
:104F3000522F692F702FF501408B518B628B738B31
:104F4000C5010E94C83FF501058114810E94814678
:104F5000A801485F5F4FB5010E942047B501C70116
:104F60000F900F900F900F90DF91CF911F910F91A5
:104F7000FF90EF90DF90CF90BF90AF900C94F73FF1
:104F8000AF92BF92CF92DF92EF92FF920F931F9357
:104F9000CF93DF9300D000D0CDB7DEB7D62EC72E8B
:104FA00006967C016CE070E02B833C8349835A8336
:104FB0000E94E73F5C01FC0110868CE0818713862C
:104FC0001286C486D5865A815687498147873C8197
:104FD0002B81C801432F522F692F702FF501408B71
:104FE000518B628B738BC5010E94C83FF50105810F
:104FF00014810E948146A801485F5F4FB5010E945D
:105000002047B501C7010F900F900F900F90DF91CF
:10501000CF911F910F91FF90EF90DF90CF90BF90B5
:10502000AF900C94F73FAF92BF92CF92DF92EF9286
:10503000FF920F931F93CF93DF9300D000D0CDB793
:10504000DEB7D62EC72E06967C016CE070E02B836F
:105050003C8349835A830E94E73F5C01FC01108630
:105060008DE0818713861286C486D5865A8156873D
:10507000498147873C812B81C801432F522F692FDB
:10508000702FF501408B518B628B738BC5010E9491
:10509000C83FF501058114810E948146A801485F3F
:1050A0005F4FB5010E942047B501C7010F900F90D7
:1050B0000F900F90DF91CF911F910F91FF90EF9084
:1050C000DF90CF90BF90AF900C94F73FEF92FF929C
:1050D0000F931F93CF93DF9306967C0164E070E0FB
:1050E0000E94E73FEC0118868EE089871B861A86AE
:1050F000CE010E94C83F0D811C810E948146A801FB
:10510000485F5F4FBE010E942047BE01C701DF918B
:10511000CF911F910F91FF90EF900C94F73FCF929A
:10512000DF92EF92FF920F931F93CF93DF9300D004
:10513000CDB7DEB7162F072F06967C0168E070E02A
:1051400049835A830E94E73F6C01FC0110868FE07F
:105150008187138612865A81952F4981842F402F8B
:10516000512F692F782F4487558766877787C60127
:105170000E94C83FF601058114810E948146A80162
:10518000485F5F4FB6010E942047B601C7010F90EC
:105190000F90DF91CF911F910F91FF90EF90DF90D3
:1051A000CF900C94F73FEF92FF920F931F93CF9302
:1051B000DF93162F072F06967C0168E070E00E94AF
:1051C000E73FEC01188680E189871B861A860C87E9
:1051D0001D871F861E86CE010E94C83F0D811C813F
:1051E0000E948146A801485F5F4FBE010E94204790
:1051F000BE01C701DF91CF911F910F91FF90EF90FA
:105200000C94F73F8F929F92AF92BF92CF92DF9212
:10521000EF92FF920F931F93CF93DF9300D000D0B4
:10522000CDB7DEB7B62EA72E06966C0160E170E012
:1052300029833A834B835C830E94E73F4C01FC0146
:10524000108681E1818713861286A486B58617862B
:1052500016865C81508B4B81418B3A81328B298140
:10526000238B9801C701432F502F692F7E2D448B2C
:10527000558B668B778BC4010E94C83FF401058172
:1052800014810E948146A801485F5F4FB4010E94CB
:105290002047B401C6010F900F900F900F90DF913F
:1052A000CF911F910F91FF90EF90DF90CF90BF9023
:1052B000AF909F908F900C94F73F8F929F92AF92F8
:1052C000BF92CF92DF92EF92FF920F931F93CF93F3
:1052D000DF9300D000D0CDB7DEB7B62EA72E06964E
:1052E0006C0160E170E029833A834B835C830E9408
:1052F000E73F4C01FC01108682E18187138612860C
:10530000A486B586178616865C81508B4B81418BAF
:105310003A81328B2981238B9801C701432F502F6B
:10532000692F7E2D448B558B668B778BC4010E9431
:10533000C83FF401058114810E948146A801485F9D
:105340005F4FB4010E942047B401C6010F900F9037
:105350000F900F90DF91CF911F910F91FF90EF90E1
:10536000DF90CF90BF90AF909F908F900C94F73FBD
:10537000EF92FF920F931F93CF93DF9306967C01DA
:1053800064E070E00E94E73FEC01188683E18987C2
:105390001B861A86CE010E94C83F0D811C810E9487
:1053A0008146A801485F5F4FBE010E942047BE01B1
:1053B000C701DF91CF911F910F91FF90EF900C9457
:1053C000F73FCF92DF92EF92FF920F931F93CF930D
:1053D000DF9300D0CDB7DEB7162F072F06967C01DE
:1053E00068E070E049835A830E94E73F6C01FC014A
:1053F000108684E18187138612865A81952F498110
:10540000842F402F512F692F782F44875587668727
:105410007787C6010E94C83FF601058114810E946A
:105420008146A801485F5F4FB6010E942047B60140
:10543000C7010F900F90DF91CF911F910F91FF90B7
:10544000EF90DF90CF900C94F73FEF92FF920F9385
:105450001F93CF93DF93162F072F06967C0168E0EA
:1054600070E00E94E73FEC01188685E189871B8682
:105470001A860C871D871F861E86CE010E94C83F94
:105480000D811C810E948146A801485F5F4FBE01CB
:105490000E942047BE01C701DF91CF911F910F915C
:1054A000FF90EF900C94F73F8F929F92AF92BF9234
:1054B000CF92DF92EF92FF920F931F93CF93DF93E0
:1054C00000D000D0CDB7DEB7B62EA72E06966C0161
:1054D00060E170E029833A834B835C830E94E73F5D
:1054E0004C01FC01108686E1818713861286A48612
:1054F000B586178616865C81508B4B81418B3A812D
:10550000328B2981238B9801C701432F502F692F9C
:105510007E2D448B558B668B778BC4010E94C83FD0
:10552000F401058114810E948146A801485F5F4F04
:10553000B4010E942047B401C6010F900F900F9054
:105540000F90DF91CF911F910F91FF90EF90DF901F
:10555000CF90BF90AF909F908F900C94F73F8F9219
:105560009F92AF92BF92CF92DF92EF92FF920F93F2
:105570001F93CF93DF9300D000D0CDB7DEB7B62E08
:10558000A72E06966C0160E170E029833A834B8375
:105590005C830E94E73F4C01FC01108687E1818714
:1055A00013861286A486B586178616865C81508B74
:1055B0004B81418B3A81328B2981238B9801C70122
:1055C000432F502F692F7E2D448B558B668B778B05
:1055D000C4010E94C83FF401058114810E948146E4
:1055E000A801485F5F4FB4010E942047B401C60183
:1055F0000F900F900F900F90DF91CF911F910F910F
:10560000FF90EF90DF90CF90BF90AF909F908F90E2
:105610000C94F73FEF92FF920F931F93CF93DF937A
:1056200006967C0164E070E00E94E73FEC0118867A
:1056300088E189871B861A86CE010E94C83F0D81AA
:105640001C810E948146A801485F5F4FBE010E94F5
:105650002047BE01C701DF91CF911F910F91FF90AD
:10566000EF900C94F73FCF92DF92EF92FF920F935F
:105670001F93CF93DF9300D0CDB7DEB7162F072F40
:1056800006967C0168E070E049835A830E94E73FF8
:105690006C01FC01108689E18187138612865A818C
:1056A000952F4981842F402F512F692F782F4487C0
:1056B000558766877787C6010E94C83FF601058136
:1056C00014810E948146A801485F5F4FB6010E9485
:1056D0002047B601C7010F900F90DF91CF911F9126
:1056E0000F91FF90EF90DF90CF900C94F73FEF92E7
:1056F000FF920F931F93CF93DF9306967C0164E094
:1057000070E00E94E73FEC0118868AE189871B86DA
:105710001A86CE010E94C83F0D811C810E948146DD
:10572000A801485F5F4FBE010E942047BE01C7012C
:10573000DF91CF911F910F91FF90EF900C94F73F65
:10574000EF92FF920F931F93CF93DF9306967C0106
:1057500064E070E00E94E73FEC0118868BE18987E6
:105760001B861A86CE010E94C83F0D811C810E94B3
:105770008146A801485F5F4FBE010E942047BE01DD
:10578000C701DF91CF911F910F91FF90EF900C9483
:10579000F73FEF92FF920F931F93CF93DF930696FD
:1057A0007C0164E070E00E94E73FEC0118868CE128
:1057B00089871B861A86CE010E94C83F0D811C81F5
:1057C0000E948146A801485F5F4FBE010E942047AA
:1057D000BE01C701DF91CF911F910F91FF90EF9014
:1057E0000C94F73FEF92FF920F931F93CF93DF93A9
:1057F00006967C0164E070E00E94E73FEC011886A9
:105800008DE189871B861A86CE010E94C83F0D81D3
:105810001C810E948146A801485F5F4FBE010E9423
:105820002047BE01C701DF91CF911F910F91FF90DB
:10583000EF900C94F73FCF92DF92EF92FF920F938D
:105840001F93CF93DF9300D0CDB7DEB7162F072F6E
:1058500006967C0168E070E049835A830E94E73F26
:105860006C01FC0110868EE18187138612865A81B5
:10587000952F4981842F402F512F692F782F4487EE
:10588000558766877787C6010E94C83FF601058164
:1058900014810E948146A801485F5F4FB6010E94B3
:1058A0002047B601C7010F900F90DF91CF911F9154
:1058B0000F91FF90EF90DF90CF900C94F73FCF9235
:1058C000DF92EF92FF920F931F93CF93DF9300D05D
:1058D000CDB7DEB7162F072F06967C0168E070E083
:1058E00049835A830E94E73F6C01FC0110868FE1D7
:1058F000818713861286048715875A8156874981C6
:105900004787C6010E94C83FF601058114810E94A5
:105910008146A801485F5F4FB6010E942047B6014B
:10592000C7010F900F90DF91CF911F910F91FF90C2
:10593000EF90DF90CF900C94F73FCF92DF92EF92F1
:10594000FF920F931F93CF93DF9300D0CDB7DEB7B5
:10595000162F072F06967C0168E070E049835A8372
:105960000E94E73F6C01FC01108680E2818713866C
:105970001286048715875A81568749814787C60151
:105980000E94C83FF601058114810E948146A8014A
:10599000485F5F4FB6010E942047B601C7010F90D4
:1059A0000F90DF91CF911F910F91FF90EF90DF90BB
:1059B000CF900C94F73FEF92FF920F931F93CF93EA
:1059C000DF9306967C0164E070E00E94E73FEC0103
:1059D000188681E289871B861A86CE010E94C83FFD
:1059E0000D811C810E948146A801485F5F4FBE0166
:1059F0000E942047BE01C701DF91CF911F910F91F7
:105A0000FF90EF900C94F73FEF92FF920F931F934C
:105A1000CF93DF9306967C0164E070E00E94E73F3D
:105A2000EC01188682E289871B861A86CE010E94C5
:105A3000C83F0D811C810E948146A801485F5F4FCD
:105A4000BE010E942047BE01C701DF91CF911F9187
:105A50000F91FF90EF900C94F73FEF92FF920F930E
:105A60001F93CF93DF93162F072F06967C0168E0D4
:105A700070E00E94E73FEC01188683E289871B866D
:105A80001A860C871D871F861E86CE010E94C83F7E
:105A90000D811C810E948146A801485F5F4FBE01B5
:105AA0000E942047BE01C701DF91CF911F910F9146
:105AB000FF90EF900C94F73F8F929F92AF92BF921E
:105AC000CF92DF92EF92FF920F931F93CF93DF93CA
:105AD00000D000D0CDB7DEB7B62EA72E06966C014B
